{
	"data": {
		"bytecode": {
			"linkReferences": {},
			"object": "60806040526000600b556103e8600c55600a600d556000600e60006101000a81548160ff0219169083151502179055506001600e60016101000a81548160ff0219169083151502179055506040518060400160405280600581526020017f2e6a736f6e00000000000000000000000000000000000000000000000000000081525060119080519060200190620000979291906200041f565b506000601260146101000a81548160ff021916908315150217905550348015620000c057600080fd5b506040518060400160405280600781526020017f4570696772616d000000000000000000000000000000000000000000000000008152506040518060400160405280600781526020017f4570696772616d000000000000000000000000000000000000000000000000008152506200014d62000141620001d760201b60201c565b620001df60201b60201c565b8160039080519060200190620001659291906200041f565b5080600490805190602001906200017e9291906200041f565b506200018f620002a360201b60201c565b60018190555050506001600981905550620001d17f3a2f235c9daaf33349d300aadff2f15078a89df81bcfdd45ba11c8f816bddc6f33620002ac60201b60201c565b62000534565b600033905090565b60008060009054906101000a900473ffffffffffffffffffffffffffffffffffffffff169050816000806101000a81548173ffffffffffffffffffffffffffffffffffffffff021916908373ffffffffffffffffffffffffffffffffffffffff1602179055508173ffffffffffffffffffffffffffffffffffffffff168173ffffffffffffffffffffffffffffffffffffffff167f8be0079c531659141344cd1fd0a4f28419497f9722a3daafe3b4186f6b6457e060405160405180910390a35050565b60006001905090565b620002be8282620002c260201b60201c565b5050565b620002d48282620003b460201b60201c565b620003b0576001600a600084815260200190815260200160002060000160008373ffffffffffffffffffffffffffffffffffffffff1673ffffffffffffffffffffffffffffffffffffffff16815260200190815260200160002060006101000a81548160ff02191690831515021790555062000355620001d760201b60201c565b73ffffffffffffffffffffffffffffffffffffffff168173ffffffffffffffffffffffffffffffffffffffff16837f2f8788117e7eff1d82e926ec794901d17c78024a50270940304540a733656f0d60405160405180910390a45b5050565b6000600a600084815260200190815260200160002060000160008373ffffffffffffffffffffffffffffffffffffffff1673ffffffffffffffffffffffffffffffffffffffff16815260200190815260200160002060009054906101000a900460ff16905092915050565b8280546200042d90620004fe565b90600052602060002090601f0160209004810192826200045157600085556200049d565b82601f106200046c57805160ff19168380011785556200049d565b828001600101855582156200049d579182015b828111156200049c5782518255916020019190600101906200047f565b5b509050620004ac9190620004b0565b5090565b5b80821115620004cb576000816000905550600101620004b1565b5090565b7f4e487b7100000000000000000000000000000000000000000000000000000000600052602260045260246000fd5b600060028204905060018216806200051757607f821691505b602082108114156200052e576200052d620004cf565b5b50919050565b6149fa80620005446000396000f3fe6080604052600436106102ae5760003560e01c8063715018a611610175578063a9e2acd5116100dc578063c87b56dd11610095578063da3ef23f1161006f578063da3ef23f14610a57578063e985e9c514610a80578063f138abfa14610abd578063f2fde38b14610ae6576102ae565b8063c87b56dd146109c6578063d547741f14610a03578063d5abeb0114610a2c576102ae565b8063a9e2acd5146108e9578063ac44600214610912578063b88d4fde14610929578063ba6269c614610945578063bbb8974414610970578063c66828621461099b576102ae565b806395d89b411161012e57806395d89b41146107e65780639659867e14610811578063a0712d681461083c578063a217fddf14610858578063a22cb46514610883578063a58c12ae146108ac576102ae565b8063715018a6146106d65780638462151c146106ed578063877984cb1461072a5780638da5cb5b146107555780638e73cf001461078057806391d14854146107a9576102ae565b8063253b15291161021957806355f804b3116101d257806355f804b3146105b45780635c975abb146105dd5780636352211e146106085780636c0360eb146106455780636f8b44b01461067057806370a0823114610699576102ae565b8063253b1529146104cb578063279a669e146104f45780632f2ff15d1461051d57806336568abe1461054657806342842e0e1461056f57806344a0d68a1461058b576102ae565b80631581b6001161026b5780631581b600146103c857806318160ddd146103f35780631e0fbfa21461041e57806323b872dd1461044957806323c0308514610465578063248a9ca31461048e576102ae565b806301ffc9a7146102b357806302329a29146102f057806306fdde0314610319578063081812fc14610344578063095ea7b31461038157806313faede61461039d575b600080fd5b3480156102bf57600080fd5b506102da60048036038101906102d59190613398565b610b0f565b6040516102e791906133e0565b60405180910390f35b3480156102fc57600080fd5b5061031760048036038101906103129190613427565b610b21565b005b34801561032557600080fd5b5061032e610b46565b60405161033b91906134ed565b60405180910390f35b34801561035057600080fd5b5061036b60048036038101906103669190613545565b610bd8565b60405161037891906135b3565b60405180910390f35b61039b600480360381019061039691906135fa565b610c57565b005b3480156103a957600080fd5b506103b2610d9b565b6040516103bf9190613649565b60405180910390f35b3480156103d457600080fd5b506103dd610da1565b6040516103ea91906135b3565b60405180910390f35b3480156103ff57600080fd5b50610408610db9565b6040516104159190613649565b60405180910390f35b34801561042a57600080fd5b50610433610dd0565b604051610440919061367d565b60405180910390f35b610463600480360381019061045e9190613698565b610df4565b005b34801561047157600080fd5b5061048c600480360381019061048791906136eb565b611119565b005b34801561049a57600080fd5b506104b560048036038101906104b09190613744565b611165565b6040516104c2919061367d565b60405180910390f35b3480156104d757600080fd5b506104f260048036038101906104ed91906138a6565b611185565b005b34801561050057600080fd5b5061051b60048036038101906105169190613a25565b611346565b005b34801561052957600080fd5b50610544600480360381019061053f9190613aa1565b611503565b005b34801561055257600080fd5b5061056d60048036038101906105689190613aa1565b611524565b005b61058960048036038101906105849190613698565b6115a7565b005b34801561059757600080fd5b506105b260048036038101906105ad9190613545565b6115c7565b005b3480156105c057600080fd5b506105db60048036038101906105d69190613ae1565b6115d9565b005b3480156105e957600080fd5b506105f26115fb565b6040516105ff91906133e0565b60405180910390f35b34801561061457600080fd5b5061062f600480360381019061062a9190613545565b61160e565b60405161063c91906135b3565b60405180910390f35b34801561065157600080fd5b5061065a611620565b60405161066791906134ed565b60405180910390f35b34801561067c57600080fd5b5061069760048036038101906106929190613545565b6116ae565b005b3480156106a557600080fd5b506106c060048036038101906106bb91906136eb565b6116c0565b6040516106cd9190613649565b60405180910390f35b3480156106e257600080fd5b506106eb611779565b005b3480156106f957600080fd5b50610714600480360381019061070f91906136eb565b61178d565b6040516107219190613be8565b60405180910390f35b34801561073657600080fd5b5061073f6118d7565b60405161074c9190613c69565b60405180910390f35b34801561076157600080fd5b5061076a6118fd565b60405161077791906135b3565b60405180910390f35b34801561078c57600080fd5b506107a760048036038101906107a29190613427565b611926565b005b3480156107b557600080fd5b506107d060048036038101906107cb9190613aa1565b61194b565b6040516107dd91906133e0565b60405180910390f35b3480156107f257600080fd5b506107fb6119b6565b60405161080891906134ed565b60405180910390f35b34801561081d57600080fd5b50610826611a48565b60405161083391906133e0565b60405180910390f35b61085660048036038101906108519190613545565b611a5b565b005b34801561086457600080fd5b5061086d611cc8565b60405161087a919061367d565b60405180910390f35b34801561088f57600080fd5b506108aa60048036038101906108a59190613c84565b611ccf565b005b3480156108b857600080fd5b506108d360048036038101906108ce91906136eb565b611dda565b6040516108e09190613649565b60405180910390f35b3480156108f557600080fd5b50610910600480360381019061090b9190613545565b611df2565b005b34801561091e57600080fd5b50610927611e04565b005b610943600480360381019061093e9190613d65565b611edf565b005b34801561095157600080fd5b5061095a611f52565b60405161096791906133e0565b60405180910390f35b34801561097c57600080fd5b50610985611f65565b6040516109929190613649565b60405180910390f35b3480156109a757600080fd5b506109b0611f6b565b6040516109bd91906134ed565b60405180910390f35b3480156109d257600080fd5b506109ed60048036038101906109e89190613545565b611ff9565b6040516109fa91906134ed565b60405180910390f35b348015610a0f57600080fd5b50610a2a6004803603810190610a259190613aa1565b612101565b005b348015610a3857600080fd5b50610a41612122565b604051610a4e9190613649565b60405180910390f35b348015610a6357600080fd5b50610a7e6004803603810190610a799190613ae1565b612128565b005b348015610a8c57600080fd5b50610aa76004803603810190610aa29190613de8565b61214a565b604051610ab491906133e0565b60405180910390f35b348015610ac957600080fd5b50610ae46004803603810190610adf9190613427565b6121de565b005b348015610af257600080fd5b50610b0d6004803603810190610b0891906136eb565b612203565b005b6000610b1a82612287565b9050919050565b610b29612301565b80600e60006101000a81548160ff02191690831515021790555050565b606060038054610b5590613e57565b80601f0160208091040260200160405190810160405280929190818152602001828054610b8190613e57565b8015610bce5780601f10610ba357610100808354040283529160200191610bce565b820191906000526020600020905b815481529060010190602001808311610bb157829003601f168201915b5050505050905090565b6000610be38261237f565b610c19576040517fcf4700e400000000000000000000000000000000000000000000000000000000815260040160405180910390fd5b6007600083815260200190815260200160002060000160009054906101000a900473ffffffffffffffffffffffffffffffffffffffff169050919050565b6000610c628261160e565b90508073ffffffffffffffffffffffffffffffffffffffff16610c836123de565b73ffffffffffffffffffffffffffffffffffffffff1614610ce657610caf81610caa6123de565b61214a565b610ce5576040517fcfb3b94200000000000000000000000000000000000000000000000000000000815260040160405180910390fd5b5b826007600084815260200190815260200160002060000160006101000a81548173ffffffffffffffffffffffffffffffffffffffff021916908373ffffffffffffffffffffffffffffffffffffffff160217905550818373ffffffffffffffffffffffffffffffffffffffff168273ffffffffffffffffffffffffffffffffffffffff167f8c5be1e5ebec7d5bd14f71427d1e84f3dd0314c0f7b2291e5b200ac8c7c3b92560405160405180910390a4505050565b600b5481565b737b3391d586808329f218cbae72e50941f697fece81565b6000610dc36123e6565b6002546001540303905090565b7f3a2f235c9daaf33349d300aadff2f15078a89df81bcfdd45ba11c8f816bddc6f81565b6000610dff826123ef565b90508373ffffffffffffffffffffffffffffffffffffffff168173ffffffffffffffffffffffffffffffffffffffff1614610e66576040517fa114810000000000000000000000000000000000000000000000000000000000815260040160405180910390fd5b600080610e72846124bd565b91509150610e888187610e836123de565b6124e4565b610ed457610e9d86610e986123de565b61214a565b610ed3576040517f59c896be00000000000000000000000000000000000000000000000000000000815260040160405180910390fd5b5b600073ffffffffffffffffffffffffffffffffffffffff168573ffffffffffffffffffffffffffffffffffffffff161415610f3b576040517fea553b3400000000000000000000000000000000000000000000000000000000815260040160405180910390fd5b610f488686866001612528565b8015610f5357600082555b600660008773ffffffffffffffffffffffffffffffffffffffff1673ffffffffffffffffffffffffffffffffffffffff168152602001908152602001600020600081546001900391905081905550600660008673ffffffffffffffffffffffffffffffffffffffff1673ffffffffffffffffffffffffffffffffffffffff168152602001908152602001600020600081546001019190508190555061102185610ffd88888761252e565b7c020000000000000000000000000000000000000000000000000000000017612556565b600560008681526020019081526020016000208190555060007c0200000000000000000000000000000000000000000000000000000000841614156110a95760006001850190506000600560008381526020019081526020016000205414156110a75760015481146110a6578360056000838152602001908152602001600020819055505b5b505b838573ffffffffffffffffffffffffffffffffffffffff168773ffffffffffffffffffffffffffffffffffffffff167fddf252ad1be2c89b69c2b068fc378daa952ba7f163c4a11628f55a4df523b3ef60405160405180910390a46111118686866001612581565b505050505050565b611121612301565b80601260006101000a81548173ffffffffffffffffffffffffffffffffffffffff021916908373ffffffffffffffffffffffffffffffffffffffff16021790555050565b6000600a6000838152602001908152602001600020600101549050919050565b61118d612301565b600e60009054906101000a900460ff16156111dd576040517f08c379a00000000000000000000000000000000000000000000000000000000081526004016111d490613ed5565b60405180910390fd5b81600010611220576040517f08c379a000000000000000000000000000000000000000000000000000000000815260040161121790613f41565b60405180910390fd5b600d54821115611265576040517f08c379a000000000000000000000000000000000000000000000000000000000815260040161125c90613fd3565b60405180910390fd5b600c5482611271610db9565b61127b9190614022565b11156112bc576040517f08c379a00000000000000000000000000000000000000000000000000000000081526004016112b3906140c4565b60405180910390fd5b60011515600e60019054906101000a900460ff161515141561132f5781600f60003373ffffffffffffffffffffffffffffffffffffffff1673ffffffffffffffffffffffffffffffffffffffff16815260200190815260200160002060008282546113279190614022565b925050819055505b611338816115d9565b6113423383612587565b5050565b6113707f3a2f235c9daaf33349d300aadff2f15078a89df81bcfdd45ba11c8f816bddc6f3361194b565b6113af576040517f08c379a00000000000000000000000000000000000000000000000000000000081526004016113a690614130565b60405180910390fd5b6000805b82518110156113f7578281815181106113cf576113ce614150565b5b6020026020010151826113e29190614022565b915080806113ef9061417f565b9150506113b3565b508060001061143b576040517f08c379a000000000000000000000000000000000000000000000000000000000815260040161143290613f41565b60405180910390fd5b600c5481611447610db9565b6114519190614022565b1115611492576040517f08c379a0000000000000000000000000000000000000000000000000000000008152600401611489906140c4565b60405180910390fd5b60005b82518110156114fc576114e98585838181106114b4576114b3614150565b5b90506020020160208101906114c991906136eb565b8483815181106114dc576114db614150565b5b6020026020010151612587565b80806114f49061417f565b915050611495565b5050505050565b61150c82611165565b611515816125a5565b61151f83836125b9565b505050565b61152c61269a565b73ffffffffffffffffffffffffffffffffffffffff168173ffffffffffffffffffffffffffffffffffffffff1614611599576040517f08c379a00000000000000000000000000000000000000000000000000000000081526004016115909061423a565b60405180910390fd5b6115a382826126a2565b5050565b6115c283838360405180602001604052806000815250611edf565b505050565b6115cf612301565b80600b8190555050565b6115e1612301565b80601090805190602001906115f792919061323a565b5050565b600e60009054906101000a900460ff1681565b6000611619826123ef565b9050919050565b6010805461162d90613e57565b80601f016020809104026020016040519081016040528092919081815260200182805461165990613e57565b80156116a65780601f1061167b576101008083540402835291602001916116a6565b820191906000526020600020905b81548152906001019060200180831161168957829003601f168201915b505050505081565b6116b6612301565b80600c8190555050565b60008073ffffffffffffffffffffffffffffffffffffffff168273ffffffffffffffffffffffffffffffffffffffff161415611728576040517f8f4eb60400000000000000000000000000000000000000000000000000000000815260040160405180910390fd5b67ffffffffffffffff600660008473ffffffffffffffffffffffffffffffffffffffff1673ffffffffffffffffffffffffffffffffffffffff16815260200190815260200160002054169050919050565b611781612301565b61178b6000612784565b565b6060600080600061179d856116c0565b905060008167ffffffffffffffff8111156117bb576117ba61377b565b5b6040519080825280602002602001820160405280156117e95781602001602082028036833780820191505090505b5090506117f46132c0565b60006117fe6123e6565b90505b8386146118c95761181181612848565b9150816040015115611822576118be565b600073ffffffffffffffffffffffffffffffffffffffff16826000015173ffffffffffffffffffffffffffffffffffffffff161461186257816000015194505b8773ffffffffffffffffffffffffffffffffffffffff168573ffffffffffffffffffffffffffffffffffffffff1614156118bd57808387806001019850815181106118b0576118af614150565b5b6020026020010181815250505b5b806001019050611801565b508195505050505050919050565b601260009054906101000a900473ffffffffffffffffffffffffffffffffffffffff1681565b60008060009054906101000a900473ffffffffffffffffffffffffffffffffffffffff16905090565b61192e612301565b80600e60016101000a81548160ff02191690831515021790555050565b6000600a600084815260200190815260200160002060000160008373ffffffffffffffffffffffffffffffffffffffff1673ffffffffffffffffffffffffffffffffffffffff16815260200190815260200160002060009054906101000a900460ff16905092915050565b6060600480546119c590613e57565b80601f01602080910402602001604051908101604052809291908181526020018280546119f190613e57565b8015611a3e5780601f10611a1357610100808354040283529160200191611a3e565b820191906000526020600020905b815481529060010190602001808311611a2157829003601f168201915b5050505050905090565b600e60019054906101000a900460ff1681565b3373ffffffffffffffffffffffffffffffffffffffff163273ffffffffffffffffffffffffffffffffffffffff1614611ac9576040517f08c379a0000000000000000000000000000000000000000000000000000000008152600401611ac0906142a6565b60405180910390fd5b600e60009054906101000a900460ff1615611b19576040517f08c379a0000000000000000000000000000000000000000000000000000000008152600401611b1090613ed5565b60405180910390fd5b80600010611b5c576040517f08c379a0000000000000000000000000000000000000000000000000000000008152600401611b5390613f41565b60405180910390fd5b600d54811115611ba1576040517f08c379a0000000000000000000000000000000000000000000000000000000008152600401611b9890613fd3565b60405180910390fd5b600c5481611bad610db9565b611bb79190614022565b1115611bf8576040517f08c379a0000000000000000000000000000000000000000000000000000000008152600401611bef906140c4565b60405180910390fd5b3481600b54611c0791906142c6565b1115611c48576040517f08c379a0000000000000000000000000000000000000000000000000000000008152600401611c3f9061436c565b60405180910390fd5b60011515600e60019054906101000a900460ff1615151415611cbb5780600f60003373ffffffffffffffffffffffffffffffffffffffff1673ffffffffffffffffffffffffffffffffffffffff1681526020019081526020016000206000828254611cb39190614022565b925050819055505b611cc53382612587565b50565b6000801b81565b8060086000611cdc6123de565b73ffffffffffffffffffffffffffffffffffffffff1673ffffffffffffffffffffffffffffffffffffffff16815260200190815260200160002060008473ffffffffffffffffffffffffffffffffffffffff1673ffffffffffffffffffffffffffffffffffffffff16815260200190815260200160002060006101000a81548160ff0219169083151502179055508173ffffffffffffffffffffffffffffffffffffffff16611d896123de565b73ffffffffffffffffffffffffffffffffffffffff167f17307eab39ab6107e8899845ad3d59bd9653f200f220920489ca2b5937696c3183604051611dce91906133e0565b60405180910390a35050565b600f6020528060005260406000206000915090505481565b611dfa612301565b80600d8190555050565b611e0c612301565b611e14612873565b6000737b3391d586808329f218cbae72e50941f697fece73ffffffffffffffffffffffffffffffffffffffff1647604051611e4e906143bd565b60006040518083038185875af1925050503d8060008114611e8b576040519150601f19603f3d011682016040523d82523d6000602084013e611e90565b606091505b5050905080611ed4576040517f08c379a0000000000000000000000000000000000000000000000000000000008152600401611ecb9061441e565b60405180910390fd5b50611edd6128c3565b565b611eea848484610df4565b60008373ffffffffffffffffffffffffffffffffffffffff163b14611f4c57611f15848484846128cd565b611f4b576040517fd1a57ed600000000000000000000000000000000000000000000000000000000815260040160405180910390fd5b5b50505050565b601260149054906101000a900460ff1681565b600d5481565b60118054611f7890613e57565b80601f0160208091040260200160405190810160405280929190818152602001828054611fa490613e57565b8015611ff15780601f10611fc657610100808354040283529160200191611ff1565b820191906000526020600020905b815481529060010190602001808311611fd457829003601f168201915b505050505081565b606060011515601260149054906101000a900460ff16151514156120ce57601260009054906101000a900473ffffffffffffffffffffffffffffffffffffffff1673ffffffffffffffffffffffffffffffffffffffff1663c87b56dd836040518263ffffffff1660e01b81526004016120729190613649565b60006040518083038186803b15801561208a57600080fd5b505afa15801561209e573d6000803e3d6000fd5b505050506040513d6000823e3d601f19601f820116820180604052508101906120c791906144ae565b90506120fc565b6120d782612a2d565b60116040516020016120ea9291906145c7565b60405160208183030381529060405290505b919050565b61210a82611165565b612113816125a5565b61211d83836126a2565b505050565b600c5481565b612130612301565b806011908051906020019061214692919061323a565b5050565b6000600860008473ffffffffffffffffffffffffffffffffffffffff1673ffffffffffffffffffffffffffffffffffffffff16815260200190815260200160002060008373ffffffffffffffffffffffffffffffffffffffff1673ffffffffffffffffffffffffffffffffffffffff16815260200190815260200160002060009054906101000a900460ff16905092915050565b6121e6612301565b80601260146101000a81548160ff02191690831515021790555050565b61220b612301565b600073ffffffffffffffffffffffffffffffffffffffff168173ffffffffffffffffffffffffffffffffffffffff16141561227b576040517f08c379a00000000000000000000000000000000000000000000000000000000081526004016122729061465d565b60405180910390fd5b61228481612784565b50565b60007f7965db0b000000000000000000000000000000000000000000000000000000007bffffffffffffffffffffffffffffffffffffffffffffffffffffffff1916827bffffffffffffffffffffffffffffffffffffffffffffffffffffffff191614806122fa57506122f982612acc565b5b9050919050565b61230961269a565b73ffffffffffffffffffffffffffffffffffffffff166123276118fd565b73ffffffffffffffffffffffffffffffffffffffff161461237d576040517f08c379a0000000000000000000000000000000000000000000000000000000008152600401612374906146c9565b60405180910390fd5b565b60008161238a6123e6565b11158015612399575060015482105b80156123d7575060007c0100000000000000000000000000000000000000000000000000000000600560008581526020019081526020016000205416145b9050919050565b600033905090565b60006001905090565b600080829050806123fe6123e6565b11612486576001548110156124855760006005600083815260200190815260200160002054905060007c010000000000000000000000000000000000000000000000000000000082161415612483575b600081141561247957600560008360019003935083815260200190815260200160002054905061244e565b80925050506124b8565b505b5b6040517fdf2d9b4200000000000000000000000000000000000000000000000000000000815260040160405180910390fd5b919050565b60008060006007600085815260200190815260200160002090508092508254915050915091565b600073ffffffffffffffffffffffffffffffffffffffff8316925073ffffffffffffffffffffffffffffffffffffffff821691508382148383141790509392505050565b50505050565b60008060e883901c905060e8612545868684612b36565b62ffffff16901b9150509392505050565b600073ffffffffffffffffffffffffffffffffffffffff83169250814260a01b178317905092915050565b50505050565b6125a1828260405180602001604052806000815250612b3f565b5050565b6125b6816125b161269a565b612bdd565b50565b6125c3828261194b565b612696576001600a600084815260200190815260200160002060000160008373ffffffffffffffffffffffffffffffffffffffff1673ffffffffffffffffffffffffffffffffffffffff16815260200190815260200160002060006101000a81548160ff02191690831515021790555061263b61269a565b73ffffffffffffffffffffffffffffffffffffffff168173ffffffffffffffffffffffffffffffffffffffff16837f2f8788117e7eff1d82e926ec794901d17c78024a50270940304540a733656f0d60405160405180910390a45b5050565b600033905090565b6126ac828261194b565b15612780576000600a600084815260200190815260200160002060000160008373ffffffffffffffffffffffffffffffffffffffff1673ffffffffffffffffffffffffffffffffffffffff16815260200190815260200160002060006101000a81548160ff02191690831515021790555061272561269a565b73ffffffffffffffffffffffffffffffffffffffff168173ffffffffffffffffffffffffffffffffffffffff16837ff6391f5c32d9c69d2a47ea670b442974b53935d1edc7fd64eb21e047a839171b60405160405180910390a45b5050565b60008060009054906101000a900473ffffffffffffffffffffffffffffffffffffffff169050816000806101000a81548173ffffffffffffffffffffffffffffffffffffffff021916908373ffffffffffffffffffffffffffffffffffffffff1602179055508173ffffffffffffffffffffffffffffffffffffffff168173ffffffffffffffffffffffffffffffffffffffff167f8be0079c531659141344cd1fd0a4f28419497f9722a3daafe3b4186f6b6457e060405160405180910390a35050565b6128506132c0565b61286c6005600084815260200190815260200160002054612c62565b9050919050565b600260095414156128b9576040517f08c379a00000000000000000000000000000000000000000000000000000000081526004016128b090614735565b60405180910390fd5b6002600981905550565b6001600981905550565b60008373ffffffffffffffffffffffffffffffffffffffff1663150b7a026128f36123de565b8786866040518563ffffffff1660e01b815260040161291594939291906147aa565b602060405180830381600087803b15801561292f57600080fd5b505af192505050801561296057506040513d601f19601f8201168201806040525081019061295d919061480b565b60015b6129da573d8060008114612990576040519150601f19603f3d011682016040523d82523d6000602084013e612995565b606091505b506000815114156129d2576040517fd1a57ed600000000000000000000000000000000000000000000000000000000815260040160405180910390fd5b805181602001fd5b63150b7a0260e01b7bffffffffffffffffffffffffffffffffffffffffffffffffffffffff1916817bffffffffffffffffffffffffffffffffffffffffffffffffffffffff191614915050949350505050565b6060612a388261237f565b612a6e576040517fa14c4b5000000000000000000000000000000000000000000000000000000000815260040160405180910390fd5b6000612a78612d18565b9050600081511415612a995760405180602001604052806000815250612ac4565b80612aa384612daa565b604051602001612ab4929190614838565b6040516020818303038152906040525b915050919050565b60007f01ffc9a7000000000000000000000000000000000000000000000000000000007bffffffffffffffffffffffffffffffffffffffffffffffffffffffff1916827bffffffffffffffffffffffffffffffffffffffffffffffffffffffff1916149050919050565b60009392505050565b612b498383612e03565b60008373ffffffffffffffffffffffffffffffffffffffff163b14612bd85760006001549050600083820390505b612b8a60008683806001019450866128cd565b612bc0576040517fd1a57ed600000000000000000000000000000000000000000000000000000000815260040160405180910390fd5b818110612b77578160015414612bd557600080fd5b50505b505050565b612be7828261194b565b612c5e57612bf481612fc1565b612c028360001c6020612fee565b604051602001612c139291906148f4565b6040516020818303038152906040526040517f08c379a0000000000000000000000000000000000000000000000000000000008152600401612c5591906134ed565b60405180910390fd5b5050565b612c6a6132c0565b81816000019073ffffffffffffffffffffffffffffffffffffffff16908173ffffffffffffffffffffffffffffffffffffffff168152505060a082901c816020019067ffffffffffffffff16908167ffffffffffffffff168152505060007c01000000000000000000000000000000000000000000000000000000008316141581604001901515908115158152505060e882901c816060019062ffffff16908162ffffff1681525050919050565b606060108054612d2790613e57565b80601f0160208091040260200160405190810160405280929190818152602001828054612d5390613e57565b8015612da05780601f10612d7557610100808354040283529160200191612da0565b820191906000526020600020905b815481529060010190602001808311612d8357829003601f168201915b5050505050905090565b606060a060405101806040526020810391506000825281835b600115612dee57600184039350600a81066030018453600a8104905080612de957612dee565b612dc3565b50828103602084039350808452505050919050565b600060015490506000821415612e45576040517fb562e8dd00000000000000000000000000000000000000000000000000000000815260040160405180910390fd5b612e526000848385612528565b600160406001901b178202600660008573ffffffffffffffffffffffffffffffffffffffff1673ffffffffffffffffffffffffffffffffffffffff16815260200190815260200160002060008282540192505081905550612ec983612eba600086600061252e565b612ec38561322a565b17612556565b6005600083815260200190815260200160002081905550600080838301905073ffffffffffffffffffffffffffffffffffffffff85169150828260007fddf252ad1be2c89b69c2b068fc378daa952ba7f163c4a11628f55a4df523b3ef600080a4600183015b818114612f6a57808360007fddf252ad1be2c89b69c2b068fc378daa952ba7f163c4a11628f55a4df523b3ef600080a4600181019050612f2f565b506000821415612fa6576040517f2e07630000000000000000000000000000000000000000000000000000000000815260040160405180910390fd5b806001819055505050612fbc6000848385612581565b505050565b6060612fe78273ffffffffffffffffffffffffffffffffffffffff16601460ff16612fee565b9050919050565b60606000600283600261300191906142c6565b61300b9190614022565b67ffffffffffffffff8111156130245761302361377b565b5b6040519080825280601f01601f1916602001820160405280156130565781602001600182028036833780820191505090505b5090507f30000000000000000000000000000000000000000000000000000000000000008160008151811061308e5761308d614150565b5b60200101907effffffffffffffffffffffffffffffffffffffffffffffffffffffffffffff1916908160001a9053507f7800000000000000000000000000000000000000000000000000000000000000816001815181106130f2576130f1614150565b5b60200101907effffffffffffffffffffffffffffffffffffffffffffffffffffffffffffff1916908160001a9053506000600184600261313291906142c6565b61313c9190614022565b90505b60018111156131dc577f3031323334353637383961626364656600000000000000000000000000000000600f86166010811061317e5761317d614150565b5b1a60f81b82828151811061319557613194614150565b5b60200101907effffffffffffffffffffffffffffffffffffffffffffffffffffffffffffff1916908160001a905350600485901c9450806131d59061492e565b905061313f565b5060008414613220576040517f08c379a0000000000000000000000000000000000000000000000000000000008152600401613217906149a4565b60405180910390fd5b8091505092915050565b60006001821460e11b9050919050565b82805461324690613e57565b90600052602060002090601f01602090048101928261326857600085556132af565b82601f1061328157805160ff19168380011785556132af565b828001600101855582156132af579182015b828111156132ae578251825591602001919060010190613293565b5b5090506132bc919061330f565b5090565b6040518060800160405280600073ffffffffffffffffffffffffffffffffffffffff168152602001600067ffffffffffffffff168152602001600015158152602001600062ffffff1681525090565b5b80821115613328576000816000905550600101613310565b5090565b6000604051905090565b600080fd5b600080fd5b60007fffffffff0000000000000000000000000000000000000000000000000000000082169050919050565b61337581613340565b811461338057600080fd5b50565b6000813590506133928161336c565b92915050565b6000602082840312156133ae576133ad613336565b5b60006133bc84828501613383565b91505092915050565b60008115159050919050565b6133da816133c5565b82525050565b60006020820190506133f560008301846133d1565b92915050565b613404816133c5565b811461340f57600080fd5b50565b600081359050613421816133fb565b92915050565b60006020828403121561343d5761343c613336565b5b600061344b84828501613412565b91505092915050565b600081519050919050565b600082825260208201905092915050565b60005b8381101561348e578082015181840152602081019050613473565b8381111561349d576000848401525b50505050565b6000601f19601f8301169050919050565b60006134bf82613454565b6134c9818561345f565b93506134d9818560208601613470565b6134e2816134a3565b840191505092915050565b6000602082019050818103600083015261350781846134b4565b905092915050565b6000819050919050565b6135228161350f565b811461352d57600080fd5b50565b60008135905061353f81613519565b92915050565b60006020828403121561355b5761355a613336565b5b600061356984828501613530565b91505092915050565b600073ffffffffffffffffffffffffffffffffffffffff82169050919050565b600061359d82613572565b9050919050565b6135ad81613592565b82525050565b60006020820190506135c860008301846135a4565b92915050565b6135d781613592565b81146135e257600080fd5b50565b6000813590506135f4816135ce565b92915050565b6000806040838503121561361157613610613336565b5b600061361f858286016135e5565b925050602061363085828601613530565b9150509250929050565b6136438161350f565b82525050565b600060208201905061365e600083018461363a565b92915050565b6000819050919050565b61367781613664565b82525050565b6000602082019050613692600083018461366e565b92915050565b6000806000606084860312156136b1576136b0613336565b5b60006136bf868287016135e5565b93505060206136d0868287016135e5565b92505060406136e186828701613530565b9150509250925092565b60006020828403121561370157613700613336565b5b600061370f848285016135e5565b91505092915050565b61372181613664565b811461372c57600080fd5b50565b60008135905061373e81613718565b92915050565b60006020828403121561375a57613759613336565b5b60006137688482850161372f565b91505092915050565b600080fd5b600080fd5b7f4e487b7100000000000000000000000000000000000000000000000000000000600052604160045260246000fd5b6137b3826134a3565b810181811067ffffffffffffffff821117156137d2576137d161377b565b5b80604052505050565b60006137e561332c565b90506137f182826137aa565b919050565b600067ffffffffffffffff8211156138115761381061377b565b5b61381a826134a3565b9050602081019050919050565b82818337600083830152505050565b6000613849613844846137f6565b6137db565b90508281526020810184848401111561386557613864613776565b5b613870848285613827565b509392505050565b600082601f83011261388d5761388c613771565b5b813561389d848260208601613836565b91505092915050565b600080604083850312156138bd576138bc613336565b5b60006138cb85828601613530565b925050602083013567ffffffffffffffff8111156138ec576138eb61333b565b5b6138f885828601613878565b9150509250929050565b600080fd5b600080fd5b60008083601f84011261392257613921613771565b5b8235905067ffffffffffffffff81111561393f5761393e613902565b5b60208301915083602082028301111561395b5761395a613907565b5b9250929050565b600067ffffffffffffffff82111561397d5761397c61377b565b5b602082029050602081019050919050565b60006139a161399c84613962565b6137db565b905080838252602082019050602084028301858111156139c4576139c3613907565b5b835b818110156139ed57806139d98882613530565b8452602084019350506020810190506139c6565b5050509392505050565b600082601f830112613a0c57613a0b613771565b5b8135613a1c84826020860161398e565b91505092915050565b600080600060408486031215613a3e57613a3d613336565b5b600084013567ffffffffffffffff811115613a5c57613a5b61333b565b5b613a688682870161390c565b9350935050602084013567ffffffffffffffff811115613a8b57613a8a61333b565b5b613a97868287016139f7565b9150509250925092565b60008060408385031215613ab857613ab7613336565b5b6000613ac68582860161372f565b9250506020613ad7858286016135e5565b9150509250929050565b600060208284031215613af757613af6613336565b5b600082013567ffffffffffffffff811115613b1557613b1461333b565b5b613b2184828501613878565b91505092915050565b600081519050919050565b600082825260208201905092915050565b6000819050602082019050919050565b613b5f8161350f565b82525050565b6000613b718383613b56565b60208301905092915050565b6000602082019050919050565b6000613b9582613b2a565b613b9f8185613b35565b9350613baa83613b46565b8060005b83811015613bdb578151613bc28882613b65565b9750613bcd83613b7d565b925050600181019050613bae565b5085935050505092915050565b60006020820190508181036000830152613c028184613b8a565b905092915050565b6000819050919050565b6000613c2f613c2a613c2584613572565b613c0a565b613572565b9050919050565b6000613c4182613c14565b9050919050565b6000613c5382613c36565b9050919050565b613c6381613c48565b82525050565b6000602082019050613c7e6000830184613c5a565b92915050565b60008060408385031215613c9b57613c9a613336565b5b6000613ca9858286016135e5565b9250506020613cba85828601613412565b9150509250929050565b600067ffffffffffffffff821115613cdf57613cde61377b565b5b613ce8826134a3565b9050602081019050919050565b6000613d08613d0384613cc4565b6137db565b905082815260208101848484011115613d2457613d23613776565b5b613d2f848285613827565b509392505050565b600082601f830112613d4c57613d4b613771565b5b8135613d5c848260208601613cf5565b91505092915050565b60008060008060808587031215613d7f57613d7e613336565b5b6000613d8d878288016135e5565b9450506020613d9e878288016135e5565b9350506040613daf87828801613530565b925050606085013567ffffffffffffffff811115613dd057613dcf61333b565b5b613ddc87828801613d37565b91505092959194509250565b60008060408385031215613dff57613dfe613336565b5b6000613e0d858286016135e5565b9250506020613e1e858286016135e5565b9150509250929050565b7f4e487b7100000000000000000000000000000000000000000000000000000000600052602260045260246000fd5b60006002820490506001821680613e6f57607f821691505b60208210811415613e8357613e82613e28565b5b50919050565b7f74686520636f6e74726163742069732070617573656400000000000000000000600082015250565b6000613ebf60168361345f565b9150613eca82613e89565b602082019050919050565b60006020820190508181036000830152613eee81613eb2565b9050919050565b7f6e65656420746f206d696e74206174206c656173742031204e46540000000000600082015250565b6000613f2b601b8361345f565b9150613f3682613ef5565b602082019050919050565b60006020820190508181036000830152613f5a81613f1e565b9050919050565b7f6d6178206d696e7420616d6f756e74207065722073657373696f6e206578636560008201527f6564656400000000000000000000000000000000000000000000000000000000602082015250565b6000613fbd60248361345f565b9150613fc882613f61565b604082019050919050565b60006020820190508181036000830152613fec81613fb0565b9050919050565b7f4e487b7100000000000000000000000000000000000000000000000000000000600052601160045260246000fd5b600061402d8261350f565b91506140388361350f565b9250827fffffffffffffffffffffffffffffffffffffffffffffffffffffffffffffffff0382111561406d5761406c613ff3565b5b828201905092915050565b7f6d6178204e4654206c696d697420657863656564656400000000000000000000600082015250565b60006140ae60168361345f565b91506140b982614078565b602082019050919050565b600060208201905081810360008301526140dd816140a1565b9050919050565b7f43616c6c6572206973206e6f742061206169722064726f707065720000000000600082015250565b600061411a601b8361345f565b9150614125826140e4565b602082019050919050565b600060208201905081810360008301526141498161410d565b9050919050565b7f4e487b7100000000000000000000000000000000000000000000000000000000600052603260045260246000fd5b600061418a8261350f565b91507fffffffffffffffffffffffffffffffffffffffffffffffffffffffffffffffff8214156141bd576141bc613ff3565b5b600182019050919050565b7f416363657373436f6e74726f6c3a2063616e206f6e6c792072656e6f756e636560008201527f20726f6c657320666f722073656c660000000000000000000000000000000000602082015250565b6000614224602f8361345f565b915061422f826141c8565b604082019050919050565b6000602082019050818103600083015261425381614217565b9050919050565b7f5468652063616c6c657220697320616e6f7468657220636f6e74726163742e00600082015250565b6000614290601f8361345f565b915061429b8261425a565b602082019050919050565b600060208201905081810360008301526142bf81614283565b9050919050565b60006142d18261350f565b91506142dc8361350f565b9250817fffffffffffffffffffffffffffffffffffffffffffffffffffffffffffffffff048311821515161561431557614314613ff3565b5b828202905092915050565b7f696e73756666696369656e742066756e64730000000000000000000000000000600082015250565b600061435660128361345f565b915061436182614320565b602082019050919050565b6000602082019050818103600083015261438581614349565b9050919050565b600081905092915050565b50565b60006143a760008361438c565b91506143b282614397565b600082019050919050565b60006143c88261439a565b9150819050919050565b7f5472616e73666572206661696c65642e00000000000000000000000000000000600082015250565b600061440860108361345f565b9150614413826143d2565b602082019050919050565b60006020820190508181036000830152614437816143fb565b9050919050565b600061445161444c846137f6565b6137db565b90508281526020810184848401111561446d5761446c613776565b5b614478848285613470565b509392505050565b600082601f83011261449557614494613771565b5b81516144a584826020860161443e565b91505092915050565b6000602082840312156144c4576144c3613336565b5b600082015167ffffffffffffffff8111156144e2576144e161333b565b5b6144ee84828501614480565b91505092915050565b600081905092915050565b600061450d82613454565b61451781856144f7565b9350614527818560208601613470565b80840191505092915050565b60008190508160005260206000209050919050565b6000815461455581613e57565b61455f81866144f7565b9450600182166000811461457a576001811461458b576145be565b60ff198316865281860193506145be565b61459485614533565b60005b838110156145b657815481890152600182019150602081019050614597565b838801955050505b50505092915050565b60006145d38285614502565b91506145df8284614548565b91508190509392505050565b7f4f776e61626c653a206e6577206f776e657220697320746865207a65726f206160008201527f6464726573730000000000000000000000000000000000000000000000000000602082015250565b600061464760268361345f565b9150614652826145eb565b604082019050919050565b600060208201905081810360008301526146768161463a565b9050919050565b7f4f776e61626c653a2063616c6c6572206973206e6f7420746865206f776e6572600082015250565b60006146b360208361345f565b91506146be8261467d565b602082019050919050565b600060208201905081810360008301526146e2816146a6565b9050919050565b7f5265656e7472616e637947756172643a207265656e7472616e742063616c6c00600082015250565b600061471f601f8361345f565b915061472a826146e9565b602082019050919050565b6000602082019050818103600083015261474e81614712565b9050919050565b600081519050919050565b600082825260208201905092915050565b600061477c82614755565b6147868185614760565b9350614796818560208601613470565b61479f816134a3565b840191505092915050565b60006080820190506147bf60008301876135a4565b6147cc60208301866135a4565b6147d9604083018561363a565b81810360608301526147eb8184614771565b905095945050505050565b6000815190506148058161336c565b92915050565b60006020828403121561482157614820613336565b5b600061482f848285016147f6565b91505092915050565b60006148448285614502565b91506148508284614502565b91508190509392505050565b7f416363657373436f6e74726f6c3a206163636f756e7420000000000000000000600082015250565b60006148926017836144f7565b915061489d8261485c565b601782019050919050565b7f206973206d697373696e6720726f6c6520000000000000000000000000000000600082015250565b60006148de6011836144f7565b91506148e9826148a8565b601182019050919050565b60006148ff82614885565b915061490b8285614502565b9150614916826148d1565b91506149228284614502565b91508190509392505050565b60006149398261350f565b9150600082141561494d5761494c613ff3565b5b600182039050919050565b7f537472696e67733a20686578206c656e67746820696e73756666696369656e74600082015250565b600061498e60208361345f565b915061499982614958565b602082019050919050565b600060208201905081810360008301526149bd81614981565b905091905056fea2646970667358221220a3b3de651c29558552ce6fcf5aaba702e3d2e7d1c069a15757a21adfb54214e064736f6c63430008090033",
			"opcodes": "PUSH1 0x80 PUSH1 0x40 MSTORE PUSH1 0x0 PUSH1 0xB SSTORE PUSH2 0x3E8 PUSH1 0xC SSTORE PUSH1 0xA PUSH1 0xD SSTORE PUSH1 0x0 PUSH1 0xE PUSH1 0x0 PUSH2 0x100 EXP DUP2 SLOAD DUP2 PUSH1 0xFF MUL NOT AND SWAP1 DUP4 ISZERO ISZERO MUL OR SWAP1 SSTORE POP PUSH1 0x1 PUSH1 0xE PUSH1 0x1 PUSH2 0x100 EXP DUP2 SLOAD DUP2 PUSH1 0xFF MUL NOT AND SWAP1 DUP4 ISZERO ISZERO MUL OR SWAP1 SSTORE POP PUSH1 0x40 MLOAD DUP1 PUSH1 0x40 ADD PUSH1 0x40 MSTORE DUP1 PUSH1 0x5 DUP2 MSTORE PUSH1 0x20 ADD PUSH32 0x2E6A736F6E000000000000000000000000000000000000000000000000000000 DUP2 MSTORE POP PUSH1 0x11 SWAP1 DUP1 MLOAD SWAP1 PUSH1 0x20 ADD SWAP1 PUSH3 0x97 SWAP3 SWAP2 SWAP1 PUSH3 0x41F JUMP JUMPDEST POP PUSH1 0x0 PUSH1 0x12 PUSH1 0x14 PUSH2 0x100 EXP DUP2 SLOAD DUP2 PUSH1 0xFF MUL NOT AND SWAP1 DUP4 ISZERO ISZERO MUL OR SWAP1 SSTORE POP CALLVALUE DUP1 ISZERO PUSH3 0xC0 JUMPI PUSH1 0x0 DUP1 REVERT JUMPDEST POP PUSH1 0x40 MLOAD DUP1 PUSH1 0x40 ADD PUSH1 0x40 MSTORE DUP1 PUSH1 0x7 DUP2 MSTORE PUSH1 0x20 ADD PUSH32 0x4570696772616D00000000000000000000000000000000000000000000000000 DUP2 MSTORE POP PUSH1 0x40 MLOAD DUP1 PUSH1 0x40 ADD PUSH1 0x40 MSTORE DUP1 PUSH1 0x7 DUP2 MSTORE PUSH1 0x20 ADD PUSH32 0x4570696772616D00000000000000000000000000000000000000000000000000 DUP2 MSTORE POP PUSH3 0x14D PUSH3 0x141 PUSH3 0x1D7 PUSH1 0x20 SHL PUSH1 0x20 SHR JUMP JUMPDEST PUSH3 0x1DF PUSH1 0x20 SHL PUSH1 0x20 SHR JUMP JUMPDEST DUP2 PUSH1 0x3 SWAP1 DUP1 MLOAD SWAP1 PUSH1 0x20 ADD SWAP1 PUSH3 0x165 SWAP3 SWAP2 SWAP1 PUSH3 0x41F JUMP JUMPDEST POP DUP1 PUSH1 0x4 SWAP1 DUP1 MLOAD SWAP1 PUSH1 0x20 ADD SWAP1 PUSH3 0x17E SWAP3 SWAP2 SWAP1 PUSH3 0x41F JUMP JUMPDEST POP PUSH3 0x18F PUSH3 0x2A3 PUSH1 0x20 SHL PUSH1 0x20 SHR JUMP JUMPDEST PUSH1 0x1 DUP2 SWAP1 SSTORE POP POP POP PUSH1 0x1 PUSH1 0x9 DUP2 SWAP1 SSTORE POP PUSH3 0x1D1 PUSH32 0x3A2F235C9DAAF33349D300AADFF2F15078A89DF81BCFDD45BA11C8F816BDDC6F CALLER PUSH3 0x2AC PUSH1 0x20 SHL PUSH1 0x20 SHR JUMP JUMPDEST PUSH3 0x534 JUMP JUMPDEST PUSH1 0x0 CALLER SWAP1 POP SWAP1 JUMP JUMPDEST PUSH1 0x0 DUP1 PUSH1 0x0 SWAP1 SLOAD SWAP1 PUSH2 0x100 EXP SWAP1 DIV PUSH20 0xFFFFFFFFFFFFFFFFFFFFFFFFFFFFFFFFFFFFFFFF AND SWAP1 POP DUP2 PUSH1 0x0 DUP1 PUSH2 0x100 EXP DUP2 SLOAD DUP2 PUSH20 0xFFFFFFFFFFFFFFFFFFFFFFFFFFFFFFFFFFFFFFFF MUL NOT AND SWAP1 DUP4 PUSH20 0xFFFFFFFFFFFFFFFFFFFFFFFFFFFFFFFFFFFFFFFF AND MUL OR SWAP1 SSTORE POP DUP2 PUSH20 0xFFFFFFFFFFFFFFFFFFFFFFFFFFFFFFFFFFFFFFFF AND DUP2 PUSH20 0xFFFFFFFFFFFFFFFFFFFFFFFFFFFFFFFFFFFFFFFF AND PUSH32 0x8BE0079C531659141344CD1FD0A4F28419497F9722A3DAAFE3B4186F6B6457E0 PUSH1 0x40 MLOAD PUSH1 0x40 MLOAD DUP1 SWAP2 SUB SWAP1 LOG3 POP POP JUMP JUMPDEST PUSH1 0x0 PUSH1 0x1 SWAP1 POP SWAP1 JUMP JUMPDEST PUSH3 0x2BE DUP3 DUP3 PUSH3 0x2C2 PUSH1 0x20 SHL PUSH1 0x20 SHR JUMP JUMPDEST POP POP JUMP JUMPDEST PUSH3 0x2D4 DUP3 DUP3 PUSH3 0x3B4 PUSH1 0x20 SHL PUSH1 0x20 SHR JUMP JUMPDEST PUSH3 0x3B0 JUMPI PUSH1 0x1 PUSH1 0xA PUSH1 0x0 DUP5 DUP2 MSTORE PUSH1 0x20 ADD SWAP1 DUP2 MSTORE PUSH1 0x20 ADD PUSH1 0x0 KECCAK256 PUSH1 0x0 ADD PUSH1 0x0 DUP4 PUSH20 0xFFFFFFFFFFFFFFFFFFFFFFFFFFFFFFFFFFFFFFFF AND PUSH20 0xFFFFFFFFFFFFFFFFFFFFFFFFFFFFFFFFFFFFFFFF AND DUP2 MSTORE PUSH1 0x20 ADD SWAP1 DUP2 MSTORE PUSH1 0x20 ADD PUSH1 0x0 KECCAK256 PUSH1 0x0 PUSH2 0x100 EXP DUP2 SLOAD DUP2 PUSH1 0xFF MUL NOT AND SWAP1 DUP4 ISZERO ISZERO MUL OR SWAP1 SSTORE POP PUSH3 0x355 PUSH3 0x1D7 PUSH1 0x20 SHL PUSH1 0x20 SHR JUMP JUMPDEST PUSH20 0xFFFFFFFFFFFFFFFFFFFFFFFFFFFFFFFFFFFFFFFF AND DUP2 PUSH20 0xFFFFFFFFFFFFFFFFFFFFFFFFFFFFFFFFFFFFFFFF AND DUP4 PUSH32 0x2F8788117E7EFF1D82E926EC794901D17C78024A50270940304540A733656F0D PUSH1 0x40 MLOAD PUSH1 0x40 MLOAD DUP1 SWAP2 SUB SWAP1 LOG4 JUMPDEST POP POP JUMP JUMPDEST PUSH1 0x0 PUSH1 0xA PUSH1 0x0 DUP5 DUP2 MSTORE PUSH1 0x20 ADD SWAP1 DUP2 MSTORE PUSH1 0x20 ADD PUSH1 0x0 KECCAK256 PUSH1 0x0 ADD PUSH1 0x0 DUP4 PUSH20 0xFFFFFFFFFFFFFFFFFFFFFFFFFFFFFFFFFFFFFFFF AND PUSH20 0xFFFFFFFFFFFFFFFFFFFFFFFFFFFFFFFFFFFFFFFF AND DUP2 MSTORE PUSH1 0x20 ADD SWAP1 DUP2 MSTORE PUSH1 0x20 ADD PUSH1 0x0 KECCAK256 PUSH1 0x0 SWAP1 SLOAD SWAP1 PUSH2 0x100 EXP SWAP1 DIV PUSH1 0xFF AND SWAP1 POP SWAP3 SWAP2 POP POP JUMP JUMPDEST DUP3 DUP1 SLOAD PUSH3 0x42D SWAP1 PUSH3 0x4FE JUMP JUMPDEST SWAP1 PUSH1 0x0 MSTORE PUSH1 0x20 PUSH1 0x0 KECCAK256 SWAP1 PUSH1 0x1F ADD PUSH1 0x20 SWAP1 DIV DUP2 ADD SWAP3 DUP3 PUSH3 0x451 JUMPI PUSH1 0x0 DUP6 SSTORE PUSH3 0x49D JUMP JUMPDEST DUP3 PUSH1 0x1F LT PUSH3 0x46C JUMPI DUP1 MLOAD PUSH1 0xFF NOT AND DUP4 DUP1 ADD OR DUP6 SSTORE PUSH3 0x49D JUMP JUMPDEST DUP3 DUP1 ADD PUSH1 0x1 ADD DUP6 SSTORE DUP3 ISZERO PUSH3 0x49D JUMPI SWAP2 DUP3 ADD JUMPDEST DUP3 DUP2 GT ISZERO PUSH3 0x49C JUMPI DUP3 MLOAD DUP3 SSTORE SWAP2 PUSH1 0x20 ADD SWAP2 SWAP1 PUSH1 0x1 ADD SWAP1 PUSH3 0x47F JUMP JUMPDEST JUMPDEST POP SWAP1 POP PUSH3 0x4AC SWAP2 SWAP1 PUSH3 0x4B0 JUMP JUMPDEST POP SWAP1 JUMP JUMPDEST JUMPDEST DUP1 DUP3 GT ISZERO PUSH3 0x4CB JUMPI PUSH1 0x0 DUP2 PUSH1 0x0 SWAP1 SSTORE POP PUSH1 0x1 ADD PUSH3 0x4B1 JUMP JUMPDEST POP SWAP1 JUMP JUMPDEST PUSH32 0x4E487B7100000000000000000000000000000000000000000000000000000000 PUSH1 0x0 MSTORE PUSH1 0x22 PUSH1 0x4 MSTORE PUSH1 0x24 PUSH1 0x0 REVERT JUMPDEST PUSH1 0x0 PUSH1 0x2 DUP3 DIV SWAP1 POP PUSH1 0x1 DUP3 AND DUP1 PUSH3 0x517 JUMPI PUSH1 0x7F DUP3 AND SWAP2 POP JUMPDEST PUSH1 0x20 DUP3 LT DUP2 EQ ISZERO PUSH3 0x52E JUMPI PUSH3 0x52D PUSH3 0x4CF JUMP JUMPDEST JUMPDEST POP SWAP2 SWAP1 POP JUMP JUMPDEST PUSH2 0x49FA DUP1 PUSH3 0x544 PUSH1 0x0 CODECOPY PUSH1 0x0 RETURN INVALID PUSH1 0x80 PUSH1 0x40 MSTORE PUSH1 0x4 CALLDATASIZE LT PUSH2 0x2AE JUMPI PUSH1 0x0 CALLDATALOAD PUSH1 0xE0 SHR DUP1 PUSH4 0x715018A6 GT PUSH2 0x175 JUMPI DUP1 PUSH4 0xA9E2ACD5 GT PUSH2 0xDC JUMPI DUP1 PUSH4 0xC87B56DD GT PUSH2 0x95 JUMPI DUP1 PUSH4 0xDA3EF23F GT PUSH2 0x6F JUMPI DUP1 PUSH4 0xDA3EF23F EQ PUSH2 0xA57 JUMPI DUP1 PUSH4 0xE985E9C5 EQ PUSH2 0xA80 JUMPI DUP1 PUSH4 0xF138ABFA EQ PUSH2 0xABD JUMPI DUP1 PUSH4 0xF2FDE38B EQ PUSH2 0xAE6 JUMPI PUSH2 0x2AE JUMP JUMPDEST DUP1 PUSH4 0xC87B56DD EQ PUSH2 0x9C6 JUMPI DUP1 PUSH4 0xD547741F EQ PUSH2 0xA03 JUMPI DUP1 PUSH4 0xD5ABEB01 EQ PUSH2 0xA2C JUMPI PUSH2 0x2AE JUMP JUMPDEST DUP1 PUSH4 0xA9E2ACD5 EQ PUSH2 0x8E9 JUMPI DUP1 PUSH4 0xAC446002 EQ PUSH2 0x912 JUMPI DUP1 PUSH4 0xB88D4FDE EQ PUSH2 0x929 JUMPI DUP1 PUSH4 0xBA6269C6 EQ PUSH2 0x945 JUMPI DUP1 PUSH4 0xBBB89744 EQ PUSH2 0x970 JUMPI DUP1 PUSH4 0xC6682862 EQ PUSH2 0x99B JUMPI PUSH2 0x2AE JUMP JUMPDEST DUP1 PUSH4 0x95D89B41 GT PUSH2 0x12E JUMPI DUP1 PUSH4 0x95D89B41 EQ PUSH2 0x7E6 JUMPI DUP1 PUSH4 0x9659867E EQ PUSH2 0x811 JUMPI DUP1 PUSH4 0xA0712D68 EQ PUSH2 0x83C JUMPI DUP1 PUSH4 0xA217FDDF EQ PUSH2 0x858 JUMPI DUP1 PUSH4 0xA22CB465 EQ PUSH2 0x883 JUMPI DUP1 PUSH4 0xA58C12AE EQ PUSH2 0x8AC JUMPI PUSH2 0x2AE JUMP JUMPDEST DUP1 PUSH4 0x715018A6 EQ PUSH2 0x6D6 JUMPI DUP1 PUSH4 0x8462151C EQ PUSH2 0x6ED JUMPI DUP1 PUSH4 0x877984CB EQ PUSH2 0x72A JUMPI DUP1 PUSH4 0x8DA5CB5B EQ PUSH2 0x755 JUMPI DUP1 PUSH4 0x8E73CF00 EQ PUSH2 0x780 JUMPI DUP1 PUSH4 0x91D14854 EQ PUSH2 0x7A9 JUMPI PUSH2 0x2AE JUMP JUMPDEST DUP1 PUSH4 0x253B1529 GT PUSH2 0x219 JUMPI DUP1 PUSH4 0x55F804B3 GT PUSH2 0x1D2 JUMPI DUP1 PUSH4 0x55F804B3 EQ PUSH2 0x5B4 JUMPI DUP1 PUSH4 0x5C975ABB EQ PUSH2 0x5DD JUMPI DUP1 PUSH4 0x6352211E EQ PUSH2 0x608 JUMPI DUP1 PUSH4 0x6C0360EB EQ PUSH2 0x645 JUMPI DUP1 PUSH4 0x6F8B44B0 EQ PUSH2 0x670 JUMPI DUP1 PUSH4 0x70A08231 EQ PUSH2 0x699 JUMPI PUSH2 0x2AE JUMP JUMPDEST DUP1 PUSH4 0x253B1529 EQ PUSH2 0x4CB JUMPI DUP1 PUSH4 0x279A669E EQ PUSH2 0x4F4 JUMPI DUP1 PUSH4 0x2F2FF15D EQ PUSH2 0x51D JUMPI DUP1 PUSH4 0x36568ABE EQ PUSH2 0x546 JUMPI DUP1 PUSH4 0x42842E0E EQ PUSH2 0x56F JUMPI DUP1 PUSH4 0x44A0D68A EQ PUSH2 0x58B JUMPI PUSH2 0x2AE JUMP JUMPDEST DUP1 PUSH4 0x1581B600 GT PUSH2 0x26B JUMPI DUP1 PUSH4 0x1581B600 EQ PUSH2 0x3C8 JUMPI DUP1 PUSH4 0x18160DDD EQ PUSH2 0x3F3 JUMPI DUP1 PUSH4 0x1E0FBFA2 EQ PUSH2 0x41E JUMPI DUP1 PUSH4 0x23B872DD EQ PUSH2 0x449 JUMPI DUP1 PUSH4 0x23C03085 EQ PUSH2 0x465 JUMPI DUP1 PUSH4 0x248A9CA3 EQ PUSH2 0x48E JUMPI PUSH2 0x2AE JUMP JUMPDEST DUP1 PUSH4 0x1FFC9A7 EQ PUSH2 0x2B3 JUMPI DUP1 PUSH4 0x2329A29 EQ PUSH2 0x2F0 JUMPI DUP1 PUSH4 0x6FDDE03 EQ PUSH2 0x319 JUMPI DUP1 PUSH4 0x81812FC EQ PUSH2 0x344 JUMPI DUP1 PUSH4 0x95EA7B3 EQ PUSH2 0x381 JUMPI DUP1 PUSH4 0x13FAEDE6 EQ PUSH2 0x39D JUMPI JUMPDEST PUSH1 0x0 DUP1 REVERT JUMPDEST CALLVALUE DUP1 ISZERO PUSH2 0x2BF JUMPI PUSH1 0x0 DUP1 REVERT JUMPDEST POP PUSH2 0x2DA PUSH1 0x4 DUP1 CALLDATASIZE SUB DUP2 ADD SWAP1 PUSH2 0x2D5 SWAP2 SWAP1 PUSH2 0x3398 JUMP JUMPDEST PUSH2 0xB0F JUMP JUMPDEST PUSH1 0x40 MLOAD PUSH2 0x2E7 SWAP2 SWAP1 PUSH2 0x33E0 JUMP JUMPDEST PUSH1 0x40 MLOAD DUP1 SWAP2 SUB SWAP1 RETURN JUMPDEST CALLVALUE DUP1 ISZERO PUSH2 0x2FC JUMPI PUSH1 0x0 DUP1 REVERT JUMPDEST POP PUSH2 0x317 PUSH1 0x4 DUP1 CALLDATASIZE SUB DUP2 ADD SWAP1 PUSH2 0x312 SWAP2 SWAP1 PUSH2 0x3427 JUMP JUMPDEST PUSH2 0xB21 JUMP JUMPDEST STOP JUMPDEST CALLVALUE DUP1 ISZERO PUSH2 0x325 JUMPI PUSH1 0x0 DUP1 REVERT JUMPDEST POP PUSH2 0x32E PUSH2 0xB46 JUMP JUMPDEST PUSH1 0x40 MLOAD PUSH2 0x33B SWAP2 SWAP1 PUSH2 0x34ED JUMP JUMPDEST PUSH1 0x40 MLOAD DUP1 SWAP2 SUB SWAP1 RETURN JUMPDEST CALLVALUE DUP1 ISZERO PUSH2 0x350 JUMPI PUSH1 0x0 DUP1 REVERT JUMPDEST POP PUSH2 0x36B PUSH1 0x4 DUP1 CALLDATASIZE SUB DUP2 ADD SWAP1 PUSH2 0x366 SWAP2 SWAP1 PUSH2 0x3545 JUMP JUMPDEST PUSH2 0xBD8 JUMP JUMPDEST PUSH1 0x40 MLOAD PUSH2 0x378 SWAP2 SWAP1 PUSH2 0x35B3 JUMP JUMPDEST PUSH1 0x40 MLOAD DUP1 SWAP2 SUB SWAP1 RETURN JUMPDEST PUSH2 0x39B PUSH1 0x4 DUP1 CALLDATASIZE SUB DUP2 ADD SWAP1 PUSH2 0x396 SWAP2 SWAP1 PUSH2 0x35FA JUMP JUMPDEST PUSH2 0xC57 JUMP JUMPDEST STOP JUMPDEST CALLVALUE DUP1 ISZERO PUSH2 0x3A9 JUMPI PUSH1 0x0 DUP1 REVERT JUMPDEST POP PUSH2 0x3B2 PUSH2 0xD9B JUMP JUMPDEST PUSH1 0x40 MLOAD PUSH2 0x3BF SWAP2 SWAP1 PUSH2 0x3649 JUMP JUMPDEST PUSH1 0x40 MLOAD DUP1 SWAP2 SUB SWAP1 RETURN JUMPDEST CALLVALUE DUP1 ISZERO PUSH2 0x3D4 JUMPI PUSH1 0x0 DUP1 REVERT JUMPDEST POP PUSH2 0x3DD PUSH2 0xDA1 JUMP JUMPDEST PUSH1 0x40 MLOAD PUSH2 0x3EA SWAP2 SWAP1 PUSH2 0x35B3 JUMP JUMPDEST PUSH1 0x40 MLOAD DUP1 SWAP2 SUB SWAP1 RETURN JUMPDEST CALLVALUE DUP1 ISZERO PUSH2 0x3FF JUMPI PUSH1 0x0 DUP1 REVERT JUMPDEST POP PUSH2 0x408 PUSH2 0xDB9 JUMP JUMPDEST PUSH1 0x40 MLOAD PUSH2 0x415 SWAP2 SWAP1 PUSH2 0x3649 JUMP JUMPDEST PUSH1 0x40 MLOAD DUP1 SWAP2 SUB SWAP1 RETURN JUMPDEST CALLVALUE DUP1 ISZERO PUSH2 0x42A JUMPI PUSH1 0x0 DUP1 REVERT JUMPDEST POP PUSH2 0x433 PUSH2 0xDD0 JUMP JUMPDEST PUSH1 0x40 MLOAD PUSH2 0x440 SWAP2 SWAP1 PUSH2 0x367D JUMP JUMPDEST PUSH1 0x40 MLOAD DUP1 SWAP2 SUB SWAP1 RETURN JUMPDEST PUSH2 0x463 PUSH1 0x4 DUP1 CALLDATASIZE SUB DUP2 ADD SWAP1 PUSH2 0x45E SWAP2 SWAP1 PUSH2 0x3698 JUMP JUMPDEST PUSH2 0xDF4 JUMP JUMPDEST STOP JUMPDEST CALLVALUE DUP1 ISZERO PUSH2 0x471 JUMPI PUSH1 0x0 DUP1 REVERT JUMPDEST POP PUSH2 0x48C PUSH1 0x4 DUP1 CALLDATASIZE SUB DUP2 ADD SWAP1 PUSH2 0x487 SWAP2 SWAP1 PUSH2 0x36EB JUMP JUMPDEST PUSH2 0x1119 JUMP JUMPDEST STOP JUMPDEST CALLVALUE DUP1 ISZERO PUSH2 0x49A JUMPI PUSH1 0x0 DUP1 REVERT JUMPDEST POP PUSH2 0x4B5 PUSH1 0x4 DUP1 CALLDATASIZE SUB DUP2 ADD SWAP1 PUSH2 0x4B0 SWAP2 SWAP1 PUSH2 0x3744 JUMP JUMPDEST PUSH2 0x1165 JUMP JUMPDEST PUSH1 0x40 MLOAD PUSH2 0x4C2 SWAP2 SWAP1 PUSH2 0x367D JUMP JUMPDEST PUSH1 0x40 MLOAD DUP1 SWAP2 SUB SWAP1 RETURN JUMPDEST CALLVALUE DUP1 ISZERO PUSH2 0x4D7 JUMPI PUSH1 0x0 DUP1 REVERT JUMPDEST POP PUSH2 0x4F2 PUSH1 0x4 DUP1 CALLDATASIZE SUB DUP2 ADD SWAP1 PUSH2 0x4ED SWAP2 SWAP1 PUSH2 0x38A6 JUMP JUMPDEST PUSH2 0x1185 JUMP JUMPDEST STOP JUMPDEST CALLVALUE DUP1 ISZERO PUSH2 0x500 JUMPI PUSH1 0x0 DUP1 REVERT JUMPDEST POP PUSH2 0x51B PUSH1 0x4 DUP1 CALLDATASIZE SUB DUP2 ADD SWAP1 PUSH2 0x516 SWAP2 SWAP1 PUSH2 0x3A25 JUMP JUMPDEST PUSH2 0x1346 JUMP JUMPDEST STOP JUMPDEST CALLVALUE DUP1 ISZERO PUSH2 0x529 JUMPI PUSH1 0x0 DUP1 REVERT JUMPDEST POP PUSH2 0x544 PUSH1 0x4 DUP1 CALLDATASIZE SUB DUP2 ADD SWAP1 PUSH2 0x53F SWAP2 SWAP1 PUSH2 0x3AA1 JUMP JUMPDEST PUSH2 0x1503 JUMP JUMPDEST STOP JUMPDEST CALLVALUE DUP1 ISZERO PUSH2 0x552 JUMPI PUSH1 0x0 DUP1 REVERT JUMPDEST POP PUSH2 0x56D PUSH1 0x4 DUP1 CALLDATASIZE SUB DUP2 ADD SWAP1 PUSH2 0x568 SWAP2 SWAP1 PUSH2 0x3AA1 JUMP JUMPDEST PUSH2 0x1524 JUMP JUMPDEST STOP JUMPDEST PUSH2 0x589 PUSH1 0x4 DUP1 CALLDATASIZE SUB DUP2 ADD SWAP1 PUSH2 0x584 SWAP2 SWAP1 PUSH2 0x3698 JUMP JUMPDEST PUSH2 0x15A7 JUMP JUMPDEST STOP JUMPDEST CALLVALUE DUP1 ISZERO PUSH2 0x597 JUMPI PUSH1 0x0 DUP1 REVERT JUMPDEST POP PUSH2 0x5B2 PUSH1 0x4 DUP1 CALLDATASIZE SUB DUP2 ADD SWAP1 PUSH2 0x5AD SWAP2 SWAP1 PUSH2 0x3545 JUMP JUMPDEST PUSH2 0x15C7 JUMP JUMPDEST STOP JUMPDEST CALLVALUE DUP1 ISZERO PUSH2 0x5C0 JUMPI PUSH1 0x0 DUP1 REVERT JUMPDEST POP PUSH2 0x5DB PUSH1 0x4 DUP1 CALLDATASIZE SUB DUP2 ADD SWAP1 PUSH2 0x5D6 SWAP2 SWAP1 PUSH2 0x3AE1 JUMP JUMPDEST PUSH2 0x15D9 JUMP JUMPDEST STOP JUMPDEST CALLVALUE DUP1 ISZERO PUSH2 0x5E9 JUMPI PUSH1 0x0 DUP1 REVERT JUMPDEST POP PUSH2 0x5F2 PUSH2 0x15FB JUMP JUMPDEST PUSH1 0x40 MLOAD PUSH2 0x5FF SWAP2 SWAP1 PUSH2 0x33E0 JUMP JUMPDEST PUSH1 0x40 MLOAD DUP1 SWAP2 SUB SWAP1 RETURN JUMPDEST CALLVALUE DUP1 ISZERO PUSH2 0x614 JUMPI PUSH1 0x0 DUP1 REVERT JUMPDEST POP PUSH2 0x62F PUSH1 0x4 DUP1 CALLDATASIZE SUB DUP2 ADD SWAP1 PUSH2 0x62A SWAP2 SWAP1 PUSH2 0x3545 JUMP JUMPDEST PUSH2 0x160E JUMP JUMPDEST PUSH1 0x40 MLOAD PUSH2 0x63C SWAP2 SWAP1 PUSH2 0x35B3 JUMP JUMPDEST PUSH1 0x40 MLOAD DUP1 SWAP2 SUB SWAP1 RETURN JUMPDEST CALLVALUE DUP1 ISZERO PUSH2 0x651 JUMPI PUSH1 0x0 DUP1 REVERT JUMPDEST POP PUSH2 0x65A PUSH2 0x1620 JUMP JUMPDEST PUSH1 0x40 MLOAD PUSH2 0x667 SWAP2 SWAP1 PUSH2 0x34ED JUMP JUMPDEST PUSH1 0x40 MLOAD DUP1 SWAP2 SUB SWAP1 RETURN JUMPDEST CALLVALUE DUP1 ISZERO PUSH2 0x67C JUMPI PUSH1 0x0 DUP1 REVERT JUMPDEST POP PUSH2 0x697 PUSH1 0x4 DUP1 CALLDATASIZE SUB DUP2 ADD SWAP1 PUSH2 0x692 SWAP2 SWAP1 PUSH2 0x3545 JUMP JUMPDEST PUSH2 0x16AE JUMP JUMPDEST STOP JUMPDEST CALLVALUE DUP1 ISZERO PUSH2 0x6A5 JUMPI PUSH1 0x0 DUP1 REVERT JUMPDEST POP PUSH2 0x6C0 PUSH1 0x4 DUP1 CALLDATASIZE SUB DUP2 ADD SWAP1 PUSH2 0x6BB SWAP2 SWAP1 PUSH2 0x36EB JUMP JUMPDEST PUSH2 0x16C0 JUMP JUMPDEST PUSH1 0x40 MLOAD PUSH2 0x6CD SWAP2 SWAP1 PUSH2 0x3649 JUMP JUMPDEST PUSH1 0x40 MLOAD DUP1 SWAP2 SUB SWAP1 RETURN JUMPDEST CALLVALUE DUP1 ISZERO PUSH2 0x6E2 JUMPI PUSH1 0x0 DUP1 REVERT JUMPDEST POP PUSH2 0x6EB PUSH2 0x1779 JUMP JUMPDEST STOP JUMPDEST CALLVALUE DUP1 ISZERO PUSH2 0x6F9 JUMPI PUSH1 0x0 DUP1 REVERT JUMPDEST POP PUSH2 0x714 PUSH1 0x4 DUP1 CALLDATASIZE SUB DUP2 ADD SWAP1 PUSH2 0x70F SWAP2 SWAP1 PUSH2 0x36EB JUMP JUMPDEST PUSH2 0x178D JUMP JUMPDEST PUSH1 0x40 MLOAD PUSH2 0x721 SWAP2 SWAP1 PUSH2 0x3BE8 JUMP JUMPDEST PUSH1 0x40 MLOAD DUP1 SWAP2 SUB SWAP1 RETURN JUMPDEST CALLVALUE DUP1 ISZERO PUSH2 0x736 JUMPI PUSH1 0x0 DUP1 REVERT JUMPDEST POP PUSH2 0x73F PUSH2 0x18D7 JUMP JUMPDEST PUSH1 0x40 MLOAD PUSH2 0x74C SWAP2 SWAP1 PUSH2 0x3C69 JUMP JUMPDEST PUSH1 0x40 MLOAD DUP1 SWAP2 SUB SWAP1 RETURN JUMPDEST CALLVALUE DUP1 ISZERO PUSH2 0x761 JUMPI PUSH1 0x0 DUP1 REVERT JUMPDEST POP PUSH2 0x76A PUSH2 0x18FD JUMP JUMPDEST PUSH1 0x40 MLOAD PUSH2 0x777 SWAP2 SWAP1 PUSH2 0x35B3 JUMP JUMPDEST PUSH1 0x40 MLOAD DUP1 SWAP2 SUB SWAP1 RETURN JUMPDEST CALLVALUE DUP1 ISZERO PUSH2 0x78C JUMPI PUSH1 0x0 DUP1 REVERT JUMPDEST POP PUSH2 0x7A7 PUSH1 0x4 DUP1 CALLDATASIZE SUB DUP2 ADD SWAP1 PUSH2 0x7A2 SWAP2 SWAP1 PUSH2 0x3427 JUMP JUMPDEST PUSH2 0x1926 JUMP JUMPDEST STOP JUMPDEST CALLVALUE DUP1 ISZERO PUSH2 0x7B5 JUMPI PUSH1 0x0 DUP1 REVERT JUMPDEST POP PUSH2 0x7D0 PUSH1 0x4 DUP1 CALLDATASIZE SUB DUP2 ADD SWAP1 PUSH2 0x7CB SWAP2 SWAP1 PUSH2 0x3AA1 JUMP JUMPDEST PUSH2 0x194B JUMP JUMPDEST PUSH1 0x40 MLOAD PUSH2 0x7DD SWAP2 SWAP1 PUSH2 0x33E0 JUMP JUMPDEST PUSH1 0x40 MLOAD DUP1 SWAP2 SUB SWAP1 RETURN JUMPDEST CALLVALUE DUP1 ISZERO PUSH2 0x7F2 JUMPI PUSH1 0x0 DUP1 REVERT JUMPDEST POP PUSH2 0x7FB PUSH2 0x19B6 JUMP JUMPDEST PUSH1 0x40 MLOAD PUSH2 0x808 SWAP2 SWAP1 PUSH2 0x34ED JUMP JUMPDEST PUSH1 0x40 MLOAD DUP1 SWAP2 SUB SWAP1 RETURN JUMPDEST CALLVALUE DUP1 ISZERO PUSH2 0x81D JUMPI PUSH1 0x0 DUP1 REVERT JUMPDEST POP PUSH2 0x826 PUSH2 0x1A48 JUMP JUMPDEST PUSH1 0x40 MLOAD PUSH2 0x833 SWAP2 SWAP1 PUSH2 0x33E0 JUMP JUMPDEST PUSH1 0x40 MLOAD DUP1 SWAP2 SUB SWAP1 RETURN JUMPDEST PUSH2 0x856 PUSH1 0x4 DUP1 CALLDATASIZE SUB DUP2 ADD SWAP1 PUSH2 0x851 SWAP2 SWAP1 PUSH2 0x3545 JUMP JUMPDEST PUSH2 0x1A5B JUMP JUMPDEST STOP JUMPDEST CALLVALUE DUP1 ISZERO PUSH2 0x864 JUMPI PUSH1 0x0 DUP1 REVERT JUMPDEST POP PUSH2 0x86D PUSH2 0x1CC8 JUMP JUMPDEST PUSH1 0x40 MLOAD PUSH2 0x87A SWAP2 SWAP1 PUSH2 0x367D JUMP JUMPDEST PUSH1 0x40 MLOAD DUP1 SWAP2 SUB SWAP1 RETURN JUMPDEST CALLVALUE DUP1 ISZERO PUSH2 0x88F JUMPI PUSH1 0x0 DUP1 REVERT JUMPDEST POP PUSH2 0x8AA PUSH1 0x4 DUP1 CALLDATASIZE SUB DUP2 ADD SWAP1 PUSH2 0x8A5 SWAP2 SWAP1 PUSH2 0x3C84 JUMP JUMPDEST PUSH2 0x1CCF JUMP JUMPDEST STOP JUMPDEST CALLVALUE DUP1 ISZERO PUSH2 0x8B8 JUMPI PUSH1 0x0 DUP1 REVERT JUMPDEST POP PUSH2 0x8D3 PUSH1 0x4 DUP1 CALLDATASIZE SUB DUP2 ADD SWAP1 PUSH2 0x8CE SWAP2 SWAP1 PUSH2 0x36EB JUMP JUMPDEST PUSH2 0x1DDA JUMP JUMPDEST PUSH1 0x40 MLOAD PUSH2 0x8E0 SWAP2 SWAP1 PUSH2 0x3649 JUMP JUMPDEST PUSH1 0x40 MLOAD DUP1 SWAP2 SUB SWAP1 RETURN JUMPDEST CALLVALUE DUP1 ISZERO PUSH2 0x8F5 JUMPI PUSH1 0x0 DUP1 REVERT JUMPDEST POP PUSH2 0x910 PUSH1 0x4 DUP1 CALLDATASIZE SUB DUP2 ADD SWAP1 PUSH2 0x90B SWAP2 SWAP1 PUSH2 0x3545 JUMP JUMPDEST PUSH2 0x1DF2 JUMP JUMPDEST STOP JUMPDEST CALLVALUE DUP1 ISZERO PUSH2 0x91E JUMPI PUSH1 0x0 DUP1 REVERT JUMPDEST POP PUSH2 0x927 PUSH2 0x1E04 JUMP JUMPDEST STOP JUMPDEST PUSH2 0x943 PUSH1 0x4 DUP1 CALLDATASIZE SUB DUP2 ADD SWAP1 PUSH2 0x93E SWAP2 SWAP1 PUSH2 0x3D65 JUMP JUMPDEST PUSH2 0x1EDF JUMP JUMPDEST STOP JUMPDEST CALLVALUE DUP1 ISZERO PUSH2 0x951 JUMPI PUSH1 0x0 DUP1 REVERT JUMPDEST POP PUSH2 0x95A PUSH2 0x1F52 JUMP JUMPDEST PUSH1 0x40 MLOAD PUSH2 0x967 SWAP2 SWAP1 PUSH2 0x33E0 JUMP JUMPDEST PUSH1 0x40 MLOAD DUP1 SWAP2 SUB SWAP1 RETURN JUMPDEST CALLVALUE DUP1 ISZERO PUSH2 0x97C JUMPI PUSH1 0x0 DUP1 REVERT JUMPDEST POP PUSH2 0x985 PUSH2 0x1F65 JUMP JUMPDEST PUSH1 0x40 MLOAD PUSH2 0x992 SWAP2 SWAP1 PUSH2 0x3649 JUMP JUMPDEST PUSH1 0x40 MLOAD DUP1 SWAP2 SUB SWAP1 RETURN JUMPDEST CALLVALUE DUP1 ISZERO PUSH2 0x9A7 JUMPI PUSH1 0x0 DUP1 REVERT JUMPDEST POP PUSH2 0x9B0 PUSH2 0x1F6B JUMP JUMPDEST PUSH1 0x40 MLOAD PUSH2 0x9BD SWAP2 SWAP1 PUSH2 0x34ED JUMP JUMPDEST PUSH1 0x40 MLOAD DUP1 SWAP2 SUB SWAP1 RETURN JUMPDEST CALLVALUE DUP1 ISZERO PUSH2 0x9D2 JUMPI PUSH1 0x0 DUP1 REVERT JUMPDEST POP PUSH2 0x9ED PUSH1 0x4 DUP1 CALLDATASIZE SUB DUP2 ADD SWAP1 PUSH2 0x9E8 SWAP2 SWAP1 PUSH2 0x3545 JUMP JUMPDEST PUSH2 0x1FF9 JUMP JUMPDEST PUSH1 0x40 MLOAD PUSH2 0x9FA SWAP2 SWAP1 PUSH2 0x34ED JUMP JUMPDEST PUSH1 0x40 MLOAD DUP1 SWAP2 SUB SWAP1 RETURN JUMPDEST CALLVALUE DUP1 ISZERO PUSH2 0xA0F JUMPI PUSH1 0x0 DUP1 REVERT JUMPDEST POP PUSH2 0xA2A PUSH1 0x4 DUP1 CALLDATASIZE SUB DUP2 ADD SWAP1 PUSH2 0xA25 SWAP2 SWAP1 PUSH2 0x3AA1 JUMP JUMPDEST PUSH2 0x2101 JUMP JUMPDEST STOP JUMPDEST CALLVALUE DUP1 ISZERO PUSH2 0xA38 JUMPI PUSH1 0x0 DUP1 REVERT JUMPDEST POP PUSH2 0xA41 PUSH2 0x2122 JUMP JUMPDEST PUSH1 0x40 MLOAD PUSH2 0xA4E SWAP2 SWAP1 PUSH2 0x3649 JUMP JUMPDEST PUSH1 0x40 MLOAD DUP1 SWAP2 SUB SWAP1 RETURN JUMPDEST CALLVALUE DUP1 ISZERO PUSH2 0xA63 JUMPI PUSH1 0x0 DUP1 REVERT JUMPDEST POP PUSH2 0xA7E PUSH1 0x4 DUP1 CALLDATASIZE SUB DUP2 ADD SWAP1 PUSH2 0xA79 SWAP2 SWAP1 PUSH2 0x3AE1 JUMP JUMPDEST PUSH2 0x2128 JUMP JUMPDEST STOP JUMPDEST CALLVALUE DUP1 ISZERO PUSH2 0xA8C JUMPI PUSH1 0x0 DUP1 REVERT JUMPDEST POP PUSH2 0xAA7 PUSH1 0x4 DUP1 CALLDATASIZE SUB DUP2 ADD SWAP1 PUSH2 0xAA2 SWAP2 SWAP1 PUSH2 0x3DE8 JUMP JUMPDEST PUSH2 0x214A JUMP JUMPDEST PUSH1 0x40 MLOAD PUSH2 0xAB4 SWAP2 SWAP1 PUSH2 0x33E0 JUMP JUMPDEST PUSH1 0x40 MLOAD DUP1 SWAP2 SUB SWAP1 RETURN JUMPDEST CALLVALUE DUP1 ISZERO PUSH2 0xAC9 JUMPI PUSH1 0x0 DUP1 REVERT JUMPDEST POP PUSH2 0xAE4 PUSH1 0x4 DUP1 CALLDATASIZE SUB DUP2 ADD SWAP1 PUSH2 0xADF SWAP2 SWAP1 PUSH2 0x3427 JUMP JUMPDEST PUSH2 0x21DE JUMP JUMPDEST STOP JUMPDEST CALLVALUE DUP1 ISZERO PUSH2 0xAF2 JUMPI PUSH1 0x0 DUP1 REVERT JUMPDEST POP PUSH2 0xB0D PUSH1 0x4 DUP1 CALLDATASIZE SUB DUP2 ADD SWAP1 PUSH2 0xB08 SWAP2 SWAP1 PUSH2 0x36EB JUMP JUMPDEST PUSH2 0x2203 JUMP JUMPDEST STOP JUMPDEST PUSH1 0x0 PUSH2 0xB1A DUP3 PUSH2 0x2287 JUMP JUMPDEST SWAP1 POP SWAP2 SWAP1 POP JUMP JUMPDEST PUSH2 0xB29 PUSH2 0x2301 JUMP JUMPDEST DUP1 PUSH1 0xE PUSH1 0x0 PUSH2 0x100 EXP DUP2 SLOAD DUP2 PUSH1 0xFF MUL NOT AND SWAP1 DUP4 ISZERO ISZERO MUL OR SWAP1 SSTORE POP POP JUMP JUMPDEST PUSH1 0x60 PUSH1 0x3 DUP1 SLOAD PUSH2 0xB55 SWAP1 PUSH2 0x3E57 JUMP JUMPDEST DUP1 PUSH1 0x1F ADD PUSH1 0x20 DUP1 SWAP2 DIV MUL PUSH1 0x20 ADD PUSH1 0x40 MLOAD SWAP1 DUP2 ADD PUSH1 0x40 MSTORE DUP1 SWAP3 SWAP2 SWAP1 DUP2 DUP2 MSTORE PUSH1 0x20 ADD DUP3 DUP1 SLOAD PUSH2 0xB81 SWAP1 PUSH2 0x3E57 JUMP JUMPDEST DUP1 ISZERO PUSH2 0xBCE JUMPI DUP1 PUSH1 0x1F LT PUSH2 0xBA3 JUMPI PUSH2 0x100 DUP1 DUP4 SLOAD DIV MUL DUP4 MSTORE SWAP2 PUSH1 0x20 ADD SWAP2 PUSH2 0xBCE JUMP JUMPDEST DUP3 ADD SWAP2 SWAP1 PUSH1 0x0 MSTORE PUSH1 0x20 PUSH1 0x0 KECCAK256 SWAP1 JUMPDEST DUP2 SLOAD DUP2 MSTORE SWAP1 PUSH1 0x1 ADD SWAP1 PUSH1 0x20 ADD DUP1 DUP4 GT PUSH2 0xBB1 JUMPI DUP3 SWAP1 SUB PUSH1 0x1F AND DUP3 ADD SWAP2 JUMPDEST POP POP POP POP POP SWAP1 POP SWAP1 JUMP JUMPDEST PUSH1 0x0 PUSH2 0xBE3 DUP3 PUSH2 0x237F JUMP JUMPDEST PUSH2 0xC19 JUMPI PUSH1 0x40 MLOAD PUSH32 0xCF4700E400000000000000000000000000000000000000000000000000000000 DUP2 MSTORE PUSH1 0x4 ADD PUSH1 0x40 MLOAD DUP1 SWAP2 SUB SWAP1 REVERT JUMPDEST PUSH1 0x7 PUSH1 0x0 DUP4 DUP2 MSTORE PUSH1 0x20 ADD SWAP1 DUP2 MSTORE PUSH1 0x20 ADD PUSH1 0x0 KECCAK256 PUSH1 0x0 ADD PUSH1 0x0 SWAP1 SLOAD SWAP1 PUSH2 0x100 EXP SWAP1 DIV PUSH20 0xFFFFFFFFFFFFFFFFFFFFFFFFFFFFFFFFFFFFFFFF AND SWAP1 POP SWAP2 SWAP1 POP JUMP JUMPDEST PUSH1 0x0 PUSH2 0xC62 DUP3 PUSH2 0x160E JUMP JUMPDEST SWAP1 POP DUP1 PUSH20 0xFFFFFFFFFFFFFFFFFFFFFFFFFFFFFFFFFFFFFFFF AND PUSH2 0xC83 PUSH2 0x23DE JUMP JUMPDEST PUSH20 0xFFFFFFFFFFFFFFFFFFFFFFFFFFFFFFFFFFFFFFFF AND EQ PUSH2 0xCE6 JUMPI PUSH2 0xCAF DUP2 PUSH2 0xCAA PUSH2 0x23DE JUMP JUMPDEST PUSH2 0x214A JUMP JUMPDEST PUSH2 0xCE5 JUMPI PUSH1 0x40 MLOAD PUSH32 0xCFB3B94200000000000000000000000000000000000000000000000000000000 DUP2 MSTORE PUSH1 0x4 ADD PUSH1 0x40 MLOAD DUP1 SWAP2 SUB SWAP1 REVERT JUMPDEST JUMPDEST DUP3 PUSH1 0x7 PUSH1 0x0 DUP5 DUP2 MSTORE PUSH1 0x20 ADD SWAP1 DUP2 MSTORE PUSH1 0x20 ADD PUSH1 0x0 KECCAK256 PUSH1 0x0 ADD PUSH1 0x0 PUSH2 0x100 EXP DUP2 SLOAD DUP2 PUSH20 0xFFFFFFFFFFFFFFFFFFFFFFFFFFFFFFFFFFFFFFFF MUL NOT AND SWAP1 DUP4 PUSH20 0xFFFFFFFFFFFFFFFFFFFFFFFFFFFFFFFFFFFFFFFF AND MUL OR SWAP1 SSTORE POP DUP2 DUP4 PUSH20 0xFFFFFFFFFFFFFFFFFFFFFFFFFFFFFFFFFFFFFFFF AND DUP3 PUSH20 0xFFFFFFFFFFFFFFFFFFFFFFFFFFFFFFFFFFFFFFFF AND PUSH32 0x8C5BE1E5EBEC7D5BD14F71427D1E84F3DD0314C0F7B2291E5B200AC8C7C3B925 PUSH1 0x40 MLOAD PUSH1 0x40 MLOAD DUP1 SWAP2 SUB SWAP1 LOG4 POP POP POP JUMP JUMPDEST PUSH1 0xB SLOAD DUP2 JUMP JUMPDEST PUSH20 0x7B3391D586808329F218CBAE72E50941F697FECE DUP2 JUMP JUMPDEST PUSH1 0x0 PUSH2 0xDC3 PUSH2 0x23E6 JUMP JUMPDEST PUSH1 0x2 SLOAD PUSH1 0x1 SLOAD SUB SUB SWAP1 POP SWAP1 JUMP JUMPDEST PUSH32 0x3A2F235C9DAAF33349D300AADFF2F15078A89DF81BCFDD45BA11C8F816BDDC6F DUP2 JUMP JUMPDEST PUSH1 0x0 PUSH2 0xDFF DUP3 PUSH2 0x23EF JUMP JUMPDEST SWAP1 POP DUP4 PUSH20 0xFFFFFFFFFFFFFFFFFFFFFFFFFFFFFFFFFFFFFFFF AND DUP2 PUSH20 0xFFFFFFFFFFFFFFFFFFFFFFFFFFFFFFFFFFFFFFFF AND EQ PUSH2 0xE66 JUMPI PUSH1 0x40 MLOAD PUSH32 0xA114810000000000000000000000000000000000000000000000000000000000 DUP2 MSTORE PUSH1 0x4 ADD PUSH1 0x40 MLOAD DUP1 SWAP2 SUB SWAP1 REVERT JUMPDEST PUSH1 0x0 DUP1 PUSH2 0xE72 DUP5 PUSH2 0x24BD JUMP JUMPDEST SWAP2 POP SWAP2 POP PUSH2 0xE88 DUP2 DUP8 PUSH2 0xE83 PUSH2 0x23DE JUMP JUMPDEST PUSH2 0x24E4 JUMP JUMPDEST PUSH2 0xED4 JUMPI PUSH2 0xE9D DUP7 PUSH2 0xE98 PUSH2 0x23DE JUMP JUMPDEST PUSH2 0x214A JUMP JUMPDEST PUSH2 0xED3 JUMPI PUSH1 0x40 MLOAD PUSH32 0x59C896BE00000000000000000000000000000000000000000000000000000000 DUP2 MSTORE PUSH1 0x4 ADD PUSH1 0x40 MLOAD DUP1 SWAP2 SUB SWAP1 REVERT JUMPDEST JUMPDEST PUSH1 0x0 PUSH20 0xFFFFFFFFFFFFFFFFFFFFFFFFFFFFFFFFFFFFFFFF AND DUP6 PUSH20 0xFFFFFFFFFFFFFFFFFFFFFFFFFFFFFFFFFFFFFFFF AND EQ ISZERO PUSH2 0xF3B JUMPI PUSH1 0x40 MLOAD PUSH32 0xEA553B3400000000000000000000000000000000000000000000000000000000 DUP2 MSTORE PUSH1 0x4 ADD PUSH1 0x40 MLOAD DUP1 SWAP2 SUB SWAP1 REVERT JUMPDEST PUSH2 0xF48 DUP7 DUP7 DUP7 PUSH1 0x1 PUSH2 0x2528 JUMP JUMPDEST DUP1 ISZERO PUSH2 0xF53 JUMPI PUSH1 0x0 DUP3 SSTORE JUMPDEST PUSH1 0x6 PUSH1 0x0 DUP8 PUSH20 0xFFFFFFFFFFFFFFFFFFFFFFFFFFFFFFFFFFFFFFFF AND PUSH20 0xFFFFFFFFFFFFFFFFFFFFFFFFFFFFFFFFFFFFFFFF AND DUP2 MSTORE PUSH1 0x20 ADD SWAP1 DUP2 MSTORE PUSH1 0x20 ADD PUSH1 0x0 KECCAK256 PUSH1 0x0 DUP2 SLOAD PUSH1 0x1 SWAP1 SUB SWAP2 SWAP1 POP DUP2 SWAP1 SSTORE POP PUSH1 0x6 PUSH1 0x0 DUP7 PUSH20 0xFFFFFFFFFFFFFFFFFFFFFFFFFFFFFFFFFFFFFFFF AND PUSH20 0xFFFFFFFFFFFFFFFFFFFFFFFFFFFFFFFFFFFFFFFF AND DUP2 MSTORE PUSH1 0x20 ADD SWAP1 DUP2 MSTORE PUSH1 0x20 ADD PUSH1 0x0 KECCAK256 PUSH1 0x0 DUP2 SLOAD PUSH1 0x1 ADD SWAP2 SWAP1 POP DUP2 SWAP1 SSTORE POP PUSH2 0x1021 DUP6 PUSH2 0xFFD DUP9 DUP9 DUP8 PUSH2 0x252E JUMP JUMPDEST PUSH29 0x200000000000000000000000000000000000000000000000000000000 OR PUSH2 0x2556 JUMP JUMPDEST PUSH1 0x5 PUSH1 0x0 DUP7 DUP2 MSTORE PUSH1 0x20 ADD SWAP1 DUP2 MSTORE PUSH1 0x20 ADD PUSH1 0x0 KECCAK256 DUP2 SWAP1 SSTORE POP PUSH1 0x0 PUSH29 0x200000000000000000000000000000000000000000000000000000000 DUP5 AND EQ ISZERO PUSH2 0x10A9 JUMPI PUSH1 0x0 PUSH1 0x1 DUP6 ADD SWAP1 POP PUSH1 0x0 PUSH1 0x5 PUSH1 0x0 DUP4 DUP2 MSTORE PUSH1 0x20 ADD SWAP1 DUP2 MSTORE PUSH1 0x20 ADD PUSH1 0x0 KECCAK256 SLOAD EQ ISZERO PUSH2 0x10A7 JUMPI PUSH1 0x1 SLOAD DUP2 EQ PUSH2 0x10A6 JUMPI DUP4 PUSH1 0x5 PUSH1 0x0 DUP4 DUP2 MSTORE PUSH1 0x20 ADD SWAP1 DUP2 MSTORE PUSH1 0x20 ADD PUSH1 0x0 KECCAK256 DUP2 SWAP1 SSTORE POP JUMPDEST JUMPDEST POP JUMPDEST DUP4 DUP6 PUSH20 0xFFFFFFFFFFFFFFFFFFFFFFFFFFFFFFFFFFFFFFFF AND DUP8 PUSH20 0xFFFFFFFFFFFFFFFFFFFFFFFFFFFFFFFFFFFFFFFF AND PUSH32 0xDDF252AD1BE2C89B69C2B068FC378DAA952BA7F163C4A11628F55A4DF523B3EF PUSH1 0x40 MLOAD PUSH1 0x40 MLOAD DUP1 SWAP2 SUB SWAP1 LOG4 PUSH2 0x1111 DUP7 DUP7 DUP7 PUSH1 0x1 PUSH2 0x2581 JUMP JUMPDEST POP POP POP POP POP POP JUMP JUMPDEST PUSH2 0x1121 PUSH2 0x2301 JUMP JUMPDEST DUP1 PUSH1 0x12 PUSH1 0x0 PUSH2 0x100 EXP DUP2 SLOAD DUP2 PUSH20 0xFFFFFFFFFFFFFFFFFFFFFFFFFFFFFFFFFFFFFFFF MUL NOT AND SWAP1 DUP4 PUSH20 0xFFFFFFFFFFFFFFFFFFFFFFFFFFFFFFFFFFFFFFFF AND MUL OR SWAP1 SSTORE POP POP JUMP JUMPDEST PUSH1 0x0 PUSH1 0xA PUSH1 0x0 DUP4 DUP2 MSTORE PUSH1 0x20 ADD SWAP1 DUP2 MSTORE PUSH1 0x20 ADD PUSH1 0x0 KECCAK256 PUSH1 0x1 ADD SLOAD SWAP1 POP SWAP2 SWAP1 POP JUMP JUMPDEST PUSH2 0x118D PUSH2 0x2301 JUMP JUMPDEST PUSH1 0xE PUSH1 0x0 SWAP1 SLOAD SWAP1 PUSH2 0x100 EXP SWAP1 DIV PUSH1 0xFF AND ISZERO PUSH2 0x11DD JUMPI PUSH1 0x40 MLOAD PUSH32 0x8C379A000000000000000000000000000000000000000000000000000000000 DUP2 MSTORE PUSH1 0x4 ADD PUSH2 0x11D4 SWAP1 PUSH2 0x3ED5 JUMP JUMPDEST PUSH1 0x40 MLOAD DUP1 SWAP2 SUB SWAP1 REVERT JUMPDEST DUP2 PUSH1 0x0 LT PUSH2 0x1220 JUMPI PUSH1 0x40 MLOAD PUSH32 0x8C379A000000000000000000000000000000000000000000000000000000000 DUP2 MSTORE PUSH1 0x4 ADD PUSH2 0x1217 SWAP1 PUSH2 0x3F41 JUMP JUMPDEST PUSH1 0x40 MLOAD DUP1 SWAP2 SUB SWAP1 REVERT JUMPDEST PUSH1 0xD SLOAD DUP3 GT ISZERO PUSH2 0x1265 JUMPI PUSH1 0x40 MLOAD PUSH32 0x8C379A000000000000000000000000000000000000000000000000000000000 DUP2 MSTORE PUSH1 0x4 ADD PUSH2 0x125C SWAP1 PUSH2 0x3FD3 JUMP JUMPDEST PUSH1 0x40 MLOAD DUP1 SWAP2 SUB SWAP1 REVERT JUMPDEST PUSH1 0xC SLOAD DUP3 PUSH2 0x1271 PUSH2 0xDB9 JUMP JUMPDEST PUSH2 0x127B SWAP2 SWAP1 PUSH2 0x4022 JUMP JUMPDEST GT ISZERO PUSH2 0x12BC JUMPI PUSH1 0x40 MLOAD PUSH32 0x8C379A000000000000000000000000000000000000000000000000000000000 DUP2 MSTORE PUSH1 0x4 ADD PUSH2 0x12B3 SWAP1 PUSH2 0x40C4 JUMP JUMPDEST PUSH1 0x40 MLOAD DUP1 SWAP2 SUB SWAP1 REVERT JUMPDEST PUSH1 0x1 ISZERO ISZERO PUSH1 0xE PUSH1 0x1 SWAP1 SLOAD SWAP1 PUSH2 0x100 EXP SWAP1 DIV PUSH1 0xFF AND ISZERO ISZERO EQ ISZERO PUSH2 0x132F JUMPI DUP2 PUSH1 0xF PUSH1 0x0 CALLER PUSH20 0xFFFFFFFFFFFFFFFFFFFFFFFFFFFFFFFFFFFFFFFF AND PUSH20 0xFFFFFFFFFFFFFFFFFFFFFFFFFFFFFFFFFFFFFFFF AND DUP2 MSTORE PUSH1 0x20 ADD SWAP1 DUP2 MSTORE PUSH1 0x20 ADD PUSH1 0x0 KECCAK256 PUSH1 0x0 DUP3 DUP3 SLOAD PUSH2 0x1327 SWAP2 SWAP1 PUSH2 0x4022 JUMP JUMPDEST SWAP3 POP POP DUP2 SWAP1 SSTORE POP JUMPDEST PUSH2 0x1338 DUP2 PUSH2 0x15D9 JUMP JUMPDEST PUSH2 0x1342 CALLER DUP4 PUSH2 0x2587 JUMP JUMPDEST POP POP JUMP JUMPDEST PUSH2 0x1370 PUSH32 0x3A2F235C9DAAF33349D300AADFF2F15078A89DF81BCFDD45BA11C8F816BDDC6F CALLER PUSH2 0x194B JUMP JUMPDEST PUSH2 0x13AF JUMPI PUSH1 0x40 MLOAD PUSH32 0x8C379A000000000000000000000000000000000000000000000000000000000 DUP2 MSTORE PUSH1 0x4 ADD PUSH2 0x13A6 SWAP1 PUSH2 0x4130 JUMP JUMPDEST PUSH1 0x40 MLOAD DUP1 SWAP2 SUB SWAP1 REVERT JUMPDEST PUSH1 0x0 DUP1 JUMPDEST DUP3 MLOAD DUP2 LT ISZERO PUSH2 0x13F7 JUMPI DUP3 DUP2 DUP2 MLOAD DUP2 LT PUSH2 0x13CF JUMPI PUSH2 0x13CE PUSH2 0x4150 JUMP JUMPDEST JUMPDEST PUSH1 0x20 MUL PUSH1 0x20 ADD ADD MLOAD DUP3 PUSH2 0x13E2 SWAP2 SWAP1 PUSH2 0x4022 JUMP JUMPDEST SWAP2 POP DUP1 DUP1 PUSH2 0x13EF SWAP1 PUSH2 0x417F JUMP JUMPDEST SWAP2 POP POP PUSH2 0x13B3 JUMP JUMPDEST POP DUP1 PUSH1 0x0 LT PUSH2 0x143B JUMPI PUSH1 0x40 MLOAD PUSH32 0x8C379A000000000000000000000000000000000000000000000000000000000 DUP2 MSTORE PUSH1 0x4 ADD PUSH2 0x1432 SWAP1 PUSH2 0x3F41 JUMP JUMPDEST PUSH1 0x40 MLOAD DUP1 SWAP2 SUB SWAP1 REVERT JUMPDEST PUSH1 0xC SLOAD DUP2 PUSH2 0x1447 PUSH2 0xDB9 JUMP JUMPDEST PUSH2 0x1451 SWAP2 SWAP1 PUSH2 0x4022 JUMP JUMPDEST GT ISZERO PUSH2 0x1492 JUMPI PUSH1 0x40 MLOAD PUSH32 0x8C379A000000000000000000000000000000000000000000000000000000000 DUP2 MSTORE PUSH1 0x4 ADD PUSH2 0x1489 SWAP1 PUSH2 0x40C4 JUMP JUMPDEST PUSH1 0x40 MLOAD DUP1 SWAP2 SUB SWAP1 REVERT JUMPDEST PUSH1 0x0 JUMPDEST DUP3 MLOAD DUP2 LT ISZERO PUSH2 0x14FC JUMPI PUSH2 0x14E9 DUP6 DUP6 DUP4 DUP2 DUP2 LT PUSH2 0x14B4 JUMPI PUSH2 0x14B3 PUSH2 0x4150 JUMP JUMPDEST JUMPDEST SWAP1 POP PUSH1 0x20 MUL ADD PUSH1 0x20 DUP2 ADD SWAP1 PUSH2 0x14C9 SWAP2 SWAP1 PUSH2 0x36EB JUMP JUMPDEST DUP5 DUP4 DUP2 MLOAD DUP2 LT PUSH2 0x14DC JUMPI PUSH2 0x14DB PUSH2 0x4150 JUMP JUMPDEST JUMPDEST PUSH1 0x20 MUL PUSH1 0x20 ADD ADD MLOAD PUSH2 0x2587 JUMP JUMPDEST DUP1 DUP1 PUSH2 0x14F4 SWAP1 PUSH2 0x417F JUMP JUMPDEST SWAP2 POP POP PUSH2 0x1495 JUMP JUMPDEST POP POP POP POP POP JUMP JUMPDEST PUSH2 0x150C DUP3 PUSH2 0x1165 JUMP JUMPDEST PUSH2 0x1515 DUP2 PUSH2 0x25A5 JUMP JUMPDEST PUSH2 0x151F DUP4 DUP4 PUSH2 0x25B9 JUMP JUMPDEST POP POP POP JUMP JUMPDEST PUSH2 0x152C PUSH2 0x269A JUMP JUMPDEST PUSH20 0xFFFFFFFFFFFFFFFFFFFFFFFFFFFFFFFFFFFFFFFF AND DUP2 PUSH20 0xFFFFFFFFFFFFFFFFFFFFFFFFFFFFFFFFFFFFFFFF AND EQ PUSH2 0x1599 JUMPI PUSH1 0x40 MLOAD PUSH32 0x8C379A000000000000000000000000000000000000000000000000000000000 DUP2 MSTORE PUSH1 0x4 ADD PUSH2 0x1590 SWAP1 PUSH2 0x423A JUMP JUMPDEST PUSH1 0x40 MLOAD DUP1 SWAP2 SUB SWAP1 REVERT JUMPDEST PUSH2 0x15A3 DUP3 DUP3 PUSH2 0x26A2 JUMP JUMPDEST POP POP JUMP JUMPDEST PUSH2 0x15C2 DUP4 DUP4 DUP4 PUSH1 0x40 MLOAD DUP1 PUSH1 0x20 ADD PUSH1 0x40 MSTORE DUP1 PUSH1 0x0 DUP2 MSTORE POP PUSH2 0x1EDF JUMP JUMPDEST POP POP POP JUMP JUMPDEST PUSH2 0x15CF PUSH2 0x2301 JUMP JUMPDEST DUP1 PUSH1 0xB DUP2 SWAP1 SSTORE POP POP JUMP JUMPDEST PUSH2 0x15E1 PUSH2 0x2301 JUMP JUMPDEST DUP1 PUSH1 0x10 SWAP1 DUP1 MLOAD SWAP1 PUSH1 0x20 ADD SWAP1 PUSH2 0x15F7 SWAP3 SWAP2 SWAP1 PUSH2 0x323A JUMP JUMPDEST POP POP JUMP JUMPDEST PUSH1 0xE PUSH1 0x0 SWAP1 SLOAD SWAP1 PUSH2 0x100 EXP SWAP1 DIV PUSH1 0xFF AND DUP2 JUMP JUMPDEST PUSH1 0x0 PUSH2 0x1619 DUP3 PUSH2 0x23EF JUMP JUMPDEST SWAP1 POP SWAP2 SWAP1 POP JUMP JUMPDEST PUSH1 0x10 DUP1 SLOAD PUSH2 0x162D SWAP1 PUSH2 0x3E57 JUMP JUMPDEST DUP1 PUSH1 0x1F ADD PUSH1 0x20 DUP1 SWAP2 DIV MUL PUSH1 0x20 ADD PUSH1 0x40 MLOAD SWAP1 DUP2 ADD PUSH1 0x40 MSTORE DUP1 SWAP3 SWAP2 SWAP1 DUP2 DUP2 MSTORE PUSH1 0x20 ADD DUP3 DUP1 SLOAD PUSH2 0x1659 SWAP1 PUSH2 0x3E57 JUMP JUMPDEST DUP1 ISZERO PUSH2 0x16A6 JUMPI DUP1 PUSH1 0x1F LT PUSH2 0x167B JUMPI PUSH2 0x100 DUP1 DUP4 SLOAD DIV MUL DUP4 MSTORE SWAP2 PUSH1 0x20 ADD SWAP2 PUSH2 0x16A6 JUMP JUMPDEST DUP3 ADD SWAP2 SWAP1 PUSH1 0x0 MSTORE PUSH1 0x20 PUSH1 0x0 KECCAK256 SWAP1 JUMPDEST DUP2 SLOAD DUP2 MSTORE SWAP1 PUSH1 0x1 ADD SWAP1 PUSH1 0x20 ADD DUP1 DUP4 GT PUSH2 0x1689 JUMPI DUP3 SWAP1 SUB PUSH1 0x1F AND DUP3 ADD SWAP2 JUMPDEST POP POP POP POP POP DUP2 JUMP JUMPDEST PUSH2 0x16B6 PUSH2 0x2301 JUMP JUMPDEST DUP1 PUSH1 0xC DUP2 SWAP1 SSTORE POP POP JUMP JUMPDEST PUSH1 0x0 DUP1 PUSH20 0xFFFFFFFFFFFFFFFFFFFFFFFFFFFFFFFFFFFFFFFF AND DUP3 PUSH20 0xFFFFFFFFFFFFFFFFFFFFFFFFFFFFFFFFFFFFFFFF AND EQ ISZERO PUSH2 0x1728 JUMPI PUSH1 0x40 MLOAD PUSH32 0x8F4EB60400000000000000000000000000000000000000000000000000000000 DUP2 MSTORE PUSH1 0x4 ADD PUSH1 0x40 MLOAD DUP1 SWAP2 SUB SWAP1 REVERT JUMPDEST PUSH8 0xFFFFFFFFFFFFFFFF PUSH1 0x6 PUSH1 0x0 DUP5 PUSH20 0xFFFFFFFFFFFFFFFFFFFFFFFFFFFFFFFFFFFFFFFF AND PUSH20 0xFFFFFFFFFFFFFFFFFFFFFFFFFFFFFFFFFFFFFFFF AND DUP2 MSTORE PUSH1 0x20 ADD SWAP1 DUP2 MSTORE PUSH1 0x20 ADD PUSH1 0x0 KECCAK256 SLOAD AND SWAP1 POP SWAP2 SWAP1 POP JUMP JUMPDEST PUSH2 0x1781 PUSH2 0x2301 JUMP JUMPDEST PUSH2 0x178B PUSH1 0x0 PUSH2 0x2784 JUMP JUMPDEST JUMP JUMPDEST PUSH1 0x60 PUSH1 0x0 DUP1 PUSH1 0x0 PUSH2 0x179D DUP6 PUSH2 0x16C0 JUMP JUMPDEST SWAP1 POP PUSH1 0x0 DUP2 PUSH8 0xFFFFFFFFFFFFFFFF DUP2 GT ISZERO PUSH2 0x17BB JUMPI PUSH2 0x17BA PUSH2 0x377B JUMP JUMPDEST JUMPDEST PUSH1 0x40 MLOAD SWAP1 DUP1 DUP3 MSTORE DUP1 PUSH1 0x20 MUL PUSH1 0x20 ADD DUP3 ADD PUSH1 0x40 MSTORE DUP1 ISZERO PUSH2 0x17E9 JUMPI DUP2 PUSH1 0x20 ADD PUSH1 0x20 DUP3 MUL DUP1 CALLDATASIZE DUP4 CALLDATACOPY DUP1 DUP3 ADD SWAP2 POP POP SWAP1 POP JUMPDEST POP SWAP1 POP PUSH2 0x17F4 PUSH2 0x32C0 JUMP JUMPDEST PUSH1 0x0 PUSH2 0x17FE PUSH2 0x23E6 JUMP JUMPDEST SWAP1 POP JUMPDEST DUP4 DUP7 EQ PUSH2 0x18C9 JUMPI PUSH2 0x1811 DUP2 PUSH2 0x2848 JUMP JUMPDEST SWAP2 POP DUP2 PUSH1 0x40 ADD MLOAD ISZERO PUSH2 0x1822 JUMPI PUSH2 0x18BE JUMP JUMPDEST PUSH1 0x0 PUSH20 0xFFFFFFFFFFFFFFFFFFFFFFFFFFFFFFFFFFFFFFFF AND DUP3 PUSH1 0x0 ADD MLOAD PUSH20 0xFFFFFFFFFFFFFFFFFFFFFFFFFFFFFFFFFFFFFFFF AND EQ PUSH2 0x1862 JUMPI DUP2 PUSH1 0x0 ADD MLOAD SWAP5 POP JUMPDEST DUP8 PUSH20 0xFFFFFFFFFFFFFFFFFFFFFFFFFFFFFFFFFFFFFFFF AND DUP6 PUSH20 0xFFFFFFFFFFFFFFFFFFFFFFFFFFFFFFFFFFFFFFFF AND EQ ISZERO PUSH2 0x18BD JUMPI DUP1 DUP4 DUP8 DUP1 PUSH1 0x1 ADD SWAP9 POP DUP2 MLOAD DUP2 LT PUSH2 0x18B0 JUMPI PUSH2 0x18AF PUSH2 0x4150 JUMP JUMPDEST JUMPDEST PUSH1 0x20 MUL PUSH1 0x20 ADD ADD DUP2 DUP2 MSTORE POP POP JUMPDEST JUMPDEST DUP1 PUSH1 0x1 ADD SWAP1 POP PUSH2 0x1801 JUMP JUMPDEST POP DUP2 SWAP6 POP POP POP POP POP POP SWAP2 SWAP1 POP JUMP JUMPDEST PUSH1 0x12 PUSH1 0x0 SWAP1 SLOAD SWAP1 PUSH2 0x100 EXP SWAP1 DIV PUSH20 0xFFFFFFFFFFFFFFFFFFFFFFFFFFFFFFFFFFFFFFFF AND DUP2 JUMP JUMPDEST PUSH1 0x0 DUP1 PUSH1 0x0 SWAP1 SLOAD SWAP1 PUSH2 0x100 EXP SWAP1 DIV PUSH20 0xFFFFFFFFFFFFFFFFFFFFFFFFFFFFFFFFFFFFFFFF AND SWAP1 POP SWAP1 JUMP JUMPDEST PUSH2 0x192E PUSH2 0x2301 JUMP JUMPDEST DUP1 PUSH1 0xE PUSH1 0x1 PUSH2 0x100 EXP DUP2 SLOAD DUP2 PUSH1 0xFF MUL NOT AND SWAP1 DUP4 ISZERO ISZERO MUL OR SWAP1 SSTORE POP POP JUMP JUMPDEST PUSH1 0x0 PUSH1 0xA PUSH1 0x0 DUP5 DUP2 MSTORE PUSH1 0x20 ADD SWAP1 DUP2 MSTORE PUSH1 0x20 ADD PUSH1 0x0 KECCAK256 PUSH1 0x0 ADD PUSH1 0x0 DUP4 PUSH20 0xFFFFFFFFFFFFFFFFFFFFFFFFFFFFFFFFFFFFFFFF AND PUSH20 0xFFFFFFFFFFFFFFFFFFFFFFFFFFFFFFFFFFFFFFFF AND DUP2 MSTORE PUSH1 0x20 ADD SWAP1 DUP2 MSTORE PUSH1 0x20 ADD PUSH1 0x0 KECCAK256 PUSH1 0x0 SWAP1 SLOAD SWAP1 PUSH2 0x100 EXP SWAP1 DIV PUSH1 0xFF AND SWAP1 POP SWAP3 SWAP2 POP POP JUMP JUMPDEST PUSH1 0x60 PUSH1 0x4 DUP1 SLOAD PUSH2 0x19C5 SWAP1 PUSH2 0x3E57 JUMP JUMPDEST DUP1 PUSH1 0x1F ADD PUSH1 0x20 DUP1 SWAP2 DIV MUL PUSH1 0x20 ADD PUSH1 0x40 MLOAD SWAP1 DUP2 ADD PUSH1 0x40 MSTORE DUP1 SWAP3 SWAP2 SWAP1 DUP2 DUP2 MSTORE PUSH1 0x20 ADD DUP3 DUP1 SLOAD PUSH2 0x19F1 SWAP1 PUSH2 0x3E57 JUMP JUMPDEST DUP1 ISZERO PUSH2 0x1A3E JUMPI DUP1 PUSH1 0x1F LT PUSH2 0x1A13 JUMPI PUSH2 0x100 DUP1 DUP4 SLOAD DIV MUL DUP4 MSTORE SWAP2 PUSH1 0x20 ADD SWAP2 PUSH2 0x1A3E JUMP JUMPDEST DUP3 ADD SWAP2 SWAP1 PUSH1 0x0 MSTORE PUSH1 0x20 PUSH1 0x0 KECCAK256 SWAP1 JUMPDEST DUP2 SLOAD DUP2 MSTORE SWAP1 PUSH1 0x1 ADD SWAP1 PUSH1 0x20 ADD DUP1 DUP4 GT PUSH2 0x1A21 JUMPI DUP3 SWAP1 SUB PUSH1 0x1F AND DUP3 ADD SWAP2 JUMPDEST POP POP POP POP POP SWAP1 POP SWAP1 JUMP JUMPDEST PUSH1 0xE PUSH1 0x1 SWAP1 SLOAD SWAP1 PUSH2 0x100 EXP SWAP1 DIV PUSH1 0xFF AND DUP2 JUMP JUMPDEST CALLER PUSH20 0xFFFFFFFFFFFFFFFFFFFFFFFFFFFFFFFFFFFFFFFF AND ORIGIN PUSH20 0xFFFFFFFFFFFFFFFFFFFFFFFFFFFFFFFFFFFFFFFF AND EQ PUSH2 0x1AC9 JUMPI PUSH1 0x40 MLOAD PUSH32 0x8C379A000000000000000000000000000000000000000000000000000000000 DUP2 MSTORE PUSH1 0x4 ADD PUSH2 0x1AC0 SWAP1 PUSH2 0x42A6 JUMP JUMPDEST PUSH1 0x40 MLOAD DUP1 SWAP2 SUB SWAP1 REVERT JUMPDEST PUSH1 0xE PUSH1 0x0 SWAP1 SLOAD SWAP1 PUSH2 0x100 EXP SWAP1 DIV PUSH1 0xFF AND ISZERO PUSH2 0x1B19 JUMPI PUSH1 0x40 MLOAD PUSH32 0x8C379A000000000000000000000000000000000000000000000000000000000 DUP2 MSTORE PUSH1 0x4 ADD PUSH2 0x1B10 SWAP1 PUSH2 0x3ED5 JUMP JUMPDEST PUSH1 0x40 MLOAD DUP1 SWAP2 SUB SWAP1 REVERT JUMPDEST DUP1 PUSH1 0x0 LT PUSH2 0x1B5C JUMPI PUSH1 0x40 MLOAD PUSH32 0x8C379A000000000000000000000000000000000000000000000000000000000 DUP2 MSTORE PUSH1 0x4 ADD PUSH2 0x1B53 SWAP1 PUSH2 0x3F41 JUMP JUMPDEST PUSH1 0x40 MLOAD DUP1 SWAP2 SUB SWAP1 REVERT JUMPDEST PUSH1 0xD SLOAD DUP2 GT ISZERO PUSH2 0x1BA1 JUMPI PUSH1 0x40 MLOAD PUSH32 0x8C379A000000000000000000000000000000000000000000000000000000000 DUP2 MSTORE PUSH1 0x4 ADD PUSH2 0x1B98 SWAP1 PUSH2 0x3FD3 JUMP JUMPDEST PUSH1 0x40 MLOAD DUP1 SWAP2 SUB SWAP1 REVERT JUMPDEST PUSH1 0xC SLOAD DUP2 PUSH2 0x1BAD PUSH2 0xDB9 JUMP JUMPDEST PUSH2 0x1BB7 SWAP2 SWAP1 PUSH2 0x4022 JUMP JUMPDEST GT ISZERO PUSH2 0x1BF8 JUMPI PUSH1 0x40 MLOAD PUSH32 0x8C379A000000000000000000000000000000000000000000000000000000000 DUP2 MSTORE PUSH1 0x4 ADD PUSH2 0x1BEF SWAP1 PUSH2 0x40C4 JUMP JUMPDEST PUSH1 0x40 MLOAD DUP1 SWAP2 SUB SWAP1 REVERT JUMPDEST CALLVALUE DUP2 PUSH1 0xB SLOAD PUSH2 0x1C07 SWAP2 SWAP1 PUSH2 0x42C6 JUMP JUMPDEST GT ISZERO PUSH2 0x1C48 JUMPI PUSH1 0x40 MLOAD PUSH32 0x8C379A000000000000000000000000000000000000000000000000000000000 DUP2 MSTORE PUSH1 0x4 ADD PUSH2 0x1C3F SWAP1 PUSH2 0x436C JUMP JUMPDEST PUSH1 0x40 MLOAD DUP1 SWAP2 SUB SWAP1 REVERT JUMPDEST PUSH1 0x1 ISZERO ISZERO PUSH1 0xE PUSH1 0x1 SWAP1 SLOAD SWAP1 PUSH2 0x100 EXP SWAP1 DIV PUSH1 0xFF AND ISZERO ISZERO EQ ISZERO PUSH2 0x1CBB JUMPI DUP1 PUSH1 0xF PUSH1 0x0 CALLER PUSH20 0xFFFFFFFFFFFFFFFFFFFFFFFFFFFFFFFFFFFFFFFF AND PUSH20 0xFFFFFFFFFFFFFFFFFFFFFFFFFFFFFFFFFFFFFFFF AND DUP2 MSTORE PUSH1 0x20 ADD SWAP1 DUP2 MSTORE PUSH1 0x20 ADD PUSH1 0x0 KECCAK256 PUSH1 0x0 DUP3 DUP3 SLOAD PUSH2 0x1CB3 SWAP2 SWAP1 PUSH2 0x4022 JUMP JUMPDEST SWAP3 POP POP DUP2 SWAP1 SSTORE POP JUMPDEST PUSH2 0x1CC5 CALLER DUP3 PUSH2 0x2587 JUMP JUMPDEST POP JUMP JUMPDEST PUSH1 0x0 DUP1 SHL DUP2 JUMP JUMPDEST DUP1 PUSH1 0x8 PUSH1 0x0 PUSH2 0x1CDC PUSH2 0x23DE JUMP JUMPDEST PUSH20 0xFFFFFFFFFFFFFFFFFFFFFFFFFFFFFFFFFFFFFFFF AND PUSH20 0xFFFFFFFFFFFFFFFFFFFFFFFFFFFFFFFFFFFFFFFF AND DUP2 MSTORE PUSH1 0x20 ADD SWAP1 DUP2 MSTORE PUSH1 0x20 ADD PUSH1 0x0 KECCAK256 PUSH1 0x0 DUP5 PUSH20 0xFFFFFFFFFFFFFFFFFFFFFFFFFFFFFFFFFFFFFFFF AND PUSH20 0xFFFFFFFFFFFFFFFFFFFFFFFFFFFFFFFFFFFFFFFF AND DUP2 MSTORE PUSH1 0x20 ADD SWAP1 DUP2 MSTORE PUSH1 0x20 ADD PUSH1 0x0 KECCAK256 PUSH1 0x0 PUSH2 0x100 EXP DUP2 SLOAD DUP2 PUSH1 0xFF MUL NOT AND SWAP1 DUP4 ISZERO ISZERO MUL OR SWAP1 SSTORE POP DUP2 PUSH20 0xFFFFFFFFFFFFFFFFFFFFFFFFFFFFFFFFFFFFFFFF AND PUSH2 0x1D89 PUSH2 0x23DE JUMP JUMPDEST PUSH20 0xFFFFFFFFFFFFFFFFFFFFFFFFFFFFFFFFFFFFFFFF AND PUSH32 0x17307EAB39AB6107E8899845AD3D59BD9653F200F220920489CA2B5937696C31 DUP4 PUSH1 0x40 MLOAD PUSH2 0x1DCE SWAP2 SWAP1 PUSH2 0x33E0 JUMP JUMPDEST PUSH1 0x40 MLOAD DUP1 SWAP2 SUB SWAP1 LOG3 POP POP JUMP JUMPDEST PUSH1 0xF PUSH1 0x20 MSTORE DUP1 PUSH1 0x0 MSTORE PUSH1 0x40 PUSH1 0x0 KECCAK256 PUSH1 0x0 SWAP2 POP SWAP1 POP SLOAD DUP2 JUMP JUMPDEST PUSH2 0x1DFA PUSH2 0x2301 JUMP JUMPDEST DUP1 PUSH1 0xD DUP2 SWAP1 SSTORE POP POP JUMP JUMPDEST PUSH2 0x1E0C PUSH2 0x2301 JUMP JUMPDEST PUSH2 0x1E14 PUSH2 0x2873 JUMP JUMPDEST PUSH1 0x0 PUSH20 0x7B3391D586808329F218CBAE72E50941F697FECE PUSH20 0xFFFFFFFFFFFFFFFFFFFFFFFFFFFFFFFFFFFFFFFF AND SELFBALANCE PUSH1 0x40 MLOAD PUSH2 0x1E4E SWAP1 PUSH2 0x43BD JUMP JUMPDEST PUSH1 0x0 PUSH1 0x40 MLOAD DUP1 DUP4 SUB DUP2 DUP6 DUP8 GAS CALL SWAP3 POP POP POP RETURNDATASIZE DUP1 PUSH1 0x0 DUP2 EQ PUSH2 0x1E8B JUMPI PUSH1 0x40 MLOAD SWAP2 POP PUSH1 0x1F NOT PUSH1 0x3F RETURNDATASIZE ADD AND DUP3 ADD PUSH1 0x40 MSTORE RETURNDATASIZE DUP3 MSTORE RETURNDATASIZE PUSH1 0x0 PUSH1 0x20 DUP5 ADD RETURNDATACOPY PUSH2 0x1E90 JUMP JUMPDEST PUSH1 0x60 SWAP2 POP JUMPDEST POP POP SWAP1 POP DUP1 PUSH2 0x1ED4 JUMPI PUSH1 0x40 MLOAD PUSH32 0x8C379A000000000000000000000000000000000000000000000000000000000 DUP2 MSTORE PUSH1 0x4 ADD PUSH2 0x1ECB SWAP1 PUSH2 0x441E JUMP JUMPDEST PUSH1 0x40 MLOAD DUP1 SWAP2 SUB SWAP1 REVERT JUMPDEST POP PUSH2 0x1EDD PUSH2 0x28C3 JUMP JUMPDEST JUMP JUMPDEST PUSH2 0x1EEA DUP5 DUP5 DUP5 PUSH2 0xDF4 JUMP JUMPDEST PUSH1 0x0 DUP4 PUSH20 0xFFFFFFFFFFFFFFFFFFFFFFFFFFFFFFFFFFFFFFFF AND EXTCODESIZE EQ PUSH2 0x1F4C JUMPI PUSH2 0x1F15 DUP5 DUP5 DUP5 DUP5 PUSH2 0x28CD JUMP JUMPDEST PUSH2 0x1F4B JUMPI PUSH1 0x40 MLOAD PUSH32 0xD1A57ED600000000000000000000000000000000000000000000000000000000 DUP2 MSTORE PUSH1 0x4 ADD PUSH1 0x40 MLOAD DUP1 SWAP2 SUB SWAP1 REVERT JUMPDEST JUMPDEST POP POP POP POP JUMP JUMPDEST PUSH1 0x12 PUSH1 0x14 SWAP1 SLOAD SWAP1 PUSH2 0x100 EXP SWAP1 DIV PUSH1 0xFF AND DUP2 JUMP JUMPDEST PUSH1 0xD SLOAD DUP2 JUMP JUMPDEST PUSH1 0x11 DUP1 SLOAD PUSH2 0x1F78 SWAP1 PUSH2 0x3E57 JUMP JUMPDEST DUP1 PUSH1 0x1F ADD PUSH1 0x20 DUP1 SWAP2 DIV MUL PUSH1 0x20 ADD PUSH1 0x40 MLOAD SWAP1 DUP2 ADD PUSH1 0x40 MSTORE DUP1 SWAP3 SWAP2 SWAP1 DUP2 DUP2 MSTORE PUSH1 0x20 ADD DUP3 DUP1 SLOAD PUSH2 0x1FA4 SWAP1 PUSH2 0x3E57 JUMP JUMPDEST DUP1 ISZERO PUSH2 0x1FF1 JUMPI DUP1 PUSH1 0x1F LT PUSH2 0x1FC6 JUMPI PUSH2 0x100 DUP1 DUP4 SLOAD DIV MUL DUP4 MSTORE SWAP2 PUSH1 0x20 ADD SWAP2 PUSH2 0x1FF1 JUMP JUMPDEST DUP3 ADD SWAP2 SWAP1 PUSH1 0x0 MSTORE PUSH1 0x20 PUSH1 0x0 KECCAK256 SWAP1 JUMPDEST DUP2 SLOAD DUP2 MSTORE SWAP1 PUSH1 0x1 ADD SWAP1 PUSH1 0x20 ADD DUP1 DUP4 GT PUSH2 0x1FD4 JUMPI DUP3 SWAP1 SUB PUSH1 0x1F AND DUP3 ADD SWAP2 JUMPDEST POP POP POP POP POP DUP2 JUMP JUMPDEST PUSH1 0x60 PUSH1 0x1 ISZERO ISZERO PUSH1 0x12 PUSH1 0x14 SWAP1 SLOAD SWAP1 PUSH2 0x100 EXP SWAP1 DIV PUSH1 0xFF AND ISZERO ISZERO EQ ISZERO PUSH2 0x20CE JUMPI PUSH1 0x12 PUSH1 0x0 SWAP1 SLOAD SWAP1 PUSH2 0x100 EXP SWAP1 DIV PUSH20 0xFFFFFFFFFFFFFFFFFFFFFFFFFFFFFFFFFFFFFFFF AND PUSH20 0xFFFFFFFFFFFFFFFFFFFFFFFFFFFFFFFFFFFFFFFF AND PUSH4 0xC87B56DD DUP4 PUSH1 0x40 MLOAD DUP3 PUSH4 0xFFFFFFFF AND PUSH1 0xE0 SHL DUP2 MSTORE PUSH1 0x4 ADD PUSH2 0x2072 SWAP2 SWAP1 PUSH2 0x3649 JUMP JUMPDEST PUSH1 0x0 PUSH1 0x40 MLOAD DUP1 DUP4 SUB DUP2 DUP7 DUP1 EXTCODESIZE ISZERO DUP1 ISZERO PUSH2 0x208A JUMPI PUSH1 0x0 DUP1 REVERT JUMPDEST POP GAS STATICCALL ISZERO DUP1 ISZERO PUSH2 0x209E JUMPI RETURNDATASIZE PUSH1 0x0 DUP1 RETURNDATACOPY RETURNDATASIZE PUSH1 0x0 REVERT JUMPDEST POP POP POP POP PUSH1 0x40 MLOAD RETURNDATASIZE PUSH1 0x0 DUP3 RETURNDATACOPY RETURNDATASIZE PUSH1 0x1F NOT PUSH1 0x1F DUP3 ADD AND DUP3 ADD DUP1 PUSH1 0x40 MSTORE POP DUP2 ADD SWAP1 PUSH2 0x20C7 SWAP2 SWAP1 PUSH2 0x44AE JUMP JUMPDEST SWAP1 POP PUSH2 0x20FC JUMP JUMPDEST PUSH2 0x20D7 DUP3 PUSH2 0x2A2D JUMP JUMPDEST PUSH1 0x11 PUSH1 0x40 MLOAD PUSH1 0x20 ADD PUSH2 0x20EA SWAP3 SWAP2 SWAP1 PUSH2 0x45C7 JUMP JUMPDEST PUSH1 0x40 MLOAD PUSH1 0x20 DUP2 DUP4 SUB SUB DUP2 MSTORE SWAP1 PUSH1 0x40 MSTORE SWAP1 POP JUMPDEST SWAP2 SWAP1 POP JUMP JUMPDEST PUSH2 0x210A DUP3 PUSH2 0x1165 JUMP JUMPDEST PUSH2 0x2113 DUP2 PUSH2 0x25A5 JUMP JUMPDEST PUSH2 0x211D DUP4 DUP4 PUSH2 0x26A2 JUMP JUMPDEST POP POP POP JUMP JUMPDEST PUSH1 0xC SLOAD DUP2 JUMP JUMPDEST PUSH2 0x2130 PUSH2 0x2301 JUMP JUMPDEST DUP1 PUSH1 0x11 SWAP1 DUP1 MLOAD SWAP1 PUSH1 0x20 ADD SWAP1 PUSH2 0x2146 SWAP3 SWAP2 SWAP1 PUSH2 0x323A JUMP JUMPDEST POP POP JUMP JUMPDEST PUSH1 0x0 PUSH1 0x8 PUSH1 0x0 DUP5 PUSH20 0xFFFFFFFFFFFFFFFFFFFFFFFFFFFFFFFFFFFFFFFF AND PUSH20 0xFFFFFFFFFFFFFFFFFFFFFFFFFFFFFFFFFFFFFFFF AND DUP2 MSTORE PUSH1 0x20 ADD SWAP1 DUP2 MSTORE PUSH1 0x20 ADD PUSH1 0x0 KECCAK256 PUSH1 0x0 DUP4 PUSH20 0xFFFFFFFFFFFFFFFFFFFFFFFFFFFFFFFFFFFFFFFF AND PUSH20 0xFFFFFFFFFFFFFFFFFFFFFFFFFFFFFFFFFFFFFFFF AND DUP2 MSTORE PUSH1 0x20 ADD SWAP1 DUP2 MSTORE PUSH1 0x20 ADD PUSH1 0x0 KECCAK256 PUSH1 0x0 SWAP1 SLOAD SWAP1 PUSH2 0x100 EXP SWAP1 DIV PUSH1 0xFF AND SWAP1 POP SWAP3 SWAP2 POP POP JUMP JUMPDEST PUSH2 0x21E6 PUSH2 0x2301 JUMP JUMPDEST DUP1 PUSH1 0x12 PUSH1 0x14 PUSH2 0x100 EXP DUP2 SLOAD DUP2 PUSH1 0xFF MUL NOT AND SWAP1 DUP4 ISZERO ISZERO MUL OR SWAP1 SSTORE POP POP JUMP JUMPDEST PUSH2 0x220B PUSH2 0x2301 JUMP JUMPDEST PUSH1 0x0 PUSH20 0xFFFFFFFFFFFFFFFFFFFFFFFFFFFFFFFFFFFFFFFF AND DUP2 PUSH20 0xFFFFFFFFFFFFFFFFFFFFFFFFFFFFFFFFFFFFFFFF AND EQ ISZERO PUSH2 0x227B JUMPI PUSH1 0x40 MLOAD PUSH32 0x8C379A000000000000000000000000000000000000000000000000000000000 DUP2 MSTORE PUSH1 0x4 ADD PUSH2 0x2272 SWAP1 PUSH2 0x465D JUMP JUMPDEST PUSH1 0x40 MLOAD DUP1 SWAP2 SUB SWAP1 REVERT JUMPDEST PUSH2 0x2284 DUP2 PUSH2 0x2784 JUMP JUMPDEST POP JUMP JUMPDEST PUSH1 0x0 PUSH32 0x7965DB0B00000000000000000000000000000000000000000000000000000000 PUSH28 0xFFFFFFFFFFFFFFFFFFFFFFFFFFFFFFFFFFFFFFFFFFFFFFFFFFFFFFFF NOT AND DUP3 PUSH28 0xFFFFFFFFFFFFFFFFFFFFFFFFFFFFFFFFFFFFFFFFFFFFFFFFFFFFFFFF NOT AND EQ DUP1 PUSH2 0x22FA JUMPI POP PUSH2 0x22F9 DUP3 PUSH2 0x2ACC JUMP JUMPDEST JUMPDEST SWAP1 POP SWAP2 SWAP1 POP JUMP JUMPDEST PUSH2 0x2309 PUSH2 0x269A JUMP JUMPDEST PUSH20 0xFFFFFFFFFFFFFFFFFFFFFFFFFFFFFFFFFFFFFFFF AND PUSH2 0x2327 PUSH2 0x18FD JUMP JUMPDEST PUSH20 0xFFFFFFFFFFFFFFFFFFFFFFFFFFFFFFFFFFFFFFFF AND EQ PUSH2 0x237D JUMPI PUSH1 0x40 MLOAD PUSH32 0x8C379A000000000000000000000000000000000000000000000000000000000 DUP2 MSTORE PUSH1 0x4 ADD PUSH2 0x2374 SWAP1 PUSH2 0x46C9 JUMP JUMPDEST PUSH1 0x40 MLOAD DUP1 SWAP2 SUB SWAP1 REVERT JUMPDEST JUMP JUMPDEST PUSH1 0x0 DUP2 PUSH2 0x238A PUSH2 0x23E6 JUMP JUMPDEST GT ISZERO DUP1 ISZERO PUSH2 0x2399 JUMPI POP PUSH1 0x1 SLOAD DUP3 LT JUMPDEST DUP1 ISZERO PUSH2 0x23D7 JUMPI POP PUSH1 0x0 PUSH29 0x100000000000000000000000000000000000000000000000000000000 PUSH1 0x5 PUSH1 0x0 DUP6 DUP2 MSTORE PUSH1 0x20 ADD SWAP1 DUP2 MSTORE PUSH1 0x20 ADD PUSH1 0x0 KECCAK256 SLOAD AND EQ JUMPDEST SWAP1 POP SWAP2 SWAP1 POP JUMP JUMPDEST PUSH1 0x0 CALLER SWAP1 POP SWAP1 JUMP JUMPDEST PUSH1 0x0 PUSH1 0x1 SWAP1 POP SWAP1 JUMP JUMPDEST PUSH1 0x0 DUP1 DUP3 SWAP1 POP DUP1 PUSH2 0x23FE PUSH2 0x23E6 JUMP JUMPDEST GT PUSH2 0x2486 JUMPI PUSH1 0x1 SLOAD DUP2 LT ISZERO PUSH2 0x2485 JUMPI PUSH1 0x0 PUSH1 0x5 PUSH1 0x0 DUP4 DUP2 MSTORE PUSH1 0x20 ADD SWAP1 DUP2 MSTORE PUSH1 0x20 ADD PUSH1 0x0 KECCAK256 SLOAD SWAP1 POP PUSH1 0x0 PUSH29 0x100000000000000000000000000000000000000000000000000000000 DUP3 AND EQ ISZERO PUSH2 0x2483 JUMPI JUMPDEST PUSH1 0x0 DUP2 EQ ISZERO PUSH2 0x2479 JUMPI PUSH1 0x5 PUSH1 0x0 DUP4 PUSH1 0x1 SWAP1 SUB SWAP4 POP DUP4 DUP2 MSTORE PUSH1 0x20 ADD SWAP1 DUP2 MSTORE PUSH1 0x20 ADD PUSH1 0x0 KECCAK256 SLOAD SWAP1 POP PUSH2 0x244E JUMP JUMPDEST DUP1 SWAP3 POP POP POP PUSH2 0x24B8 JUMP JUMPDEST POP JUMPDEST JUMPDEST PUSH1 0x40 MLOAD PUSH32 0xDF2D9B4200000000000000000000000000000000000000000000000000000000 DUP2 MSTORE PUSH1 0x4 ADD PUSH1 0x40 MLOAD DUP1 SWAP2 SUB SWAP1 REVERT JUMPDEST SWAP2 SWAP1 POP JUMP JUMPDEST PUSH1 0x0 DUP1 PUSH1 0x0 PUSH1 0x7 PUSH1 0x0 DUP6 DUP2 MSTORE PUSH1 0x20 ADD SWAP1 DUP2 MSTORE PUSH1 0x20 ADD PUSH1 0x0 KECCAK256 SWAP1 POP DUP1 SWAP3 POP DUP3 SLOAD SWAP2 POP POP SWAP2 POP SWAP2 JUMP JUMPDEST PUSH1 0x0 PUSH20 0xFFFFFFFFFFFFFFFFFFFFFFFFFFFFFFFFFFFFFFFF DUP4 AND SWAP3 POP PUSH20 0xFFFFFFFFFFFFFFFFFFFFFFFFFFFFFFFFFFFFFFFF DUP3 AND SWAP2 POP DUP4 DUP3 EQ DUP4 DUP4 EQ OR SWAP1 POP SWAP4 SWAP3 POP POP POP JUMP JUMPDEST POP POP POP POP JUMP JUMPDEST PUSH1 0x0 DUP1 PUSH1 0xE8 DUP4 SWAP1 SHR SWAP1 POP PUSH1 0xE8 PUSH2 0x2545 DUP7 DUP7 DUP5 PUSH2 0x2B36 JUMP JUMPDEST PUSH3 0xFFFFFF AND SWAP1 SHL SWAP2 POP POP SWAP4 SWAP3 POP POP POP JUMP JUMPDEST PUSH1 0x0 PUSH20 0xFFFFFFFFFFFFFFFFFFFFFFFFFFFFFFFFFFFFFFFF DUP4 AND SWAP3 POP DUP2 TIMESTAMP PUSH1 0xA0 SHL OR DUP4 OR SWAP1 POP SWAP3 SWAP2 POP POP JUMP JUMPDEST POP POP POP POP JUMP JUMPDEST PUSH2 0x25A1 DUP3 DUP3 PUSH1 0x40 MLOAD DUP1 PUSH1 0x20 ADD PUSH1 0x40 MSTORE DUP1 PUSH1 0x0 DUP2 MSTORE POP PUSH2 0x2B3F JUMP JUMPDEST POP POP JUMP JUMPDEST PUSH2 0x25B6 DUP2 PUSH2 0x25B1 PUSH2 0x269A JUMP JUMPDEST PUSH2 0x2BDD JUMP JUMPDEST POP JUMP JUMPDEST PUSH2 0x25C3 DUP3 DUP3 PUSH2 0x194B JUMP JUMPDEST PUSH2 0x2696 JUMPI PUSH1 0x1 PUSH1 0xA PUSH1 0x0 DUP5 DUP2 MSTORE PUSH1 0x20 ADD SWAP1 DUP2 MSTORE PUSH1 0x20 ADD PUSH1 0x0 KECCAK256 PUSH1 0x0 ADD PUSH1 0x0 DUP4 PUSH20 0xFFFFFFFFFFFFFFFFFFFFFFFFFFFFFFFFFFFFFFFF AND PUSH20 0xFFFFFFFFFFFFFFFFFFFFFFFFFFFFFFFFFFFFFFFF AND DUP2 MSTORE PUSH1 0x20 ADD SWAP1 DUP2 MSTORE PUSH1 0x20 ADD PUSH1 0x0 KECCAK256 PUSH1 0x0 PUSH2 0x100 EXP DUP2 SLOAD DUP2 PUSH1 0xFF MUL NOT AND SWAP1 DUP4 ISZERO ISZERO MUL OR SWAP1 SSTORE POP PUSH2 0x263B PUSH2 0x269A JUMP JUMPDEST PUSH20 0xFFFFFFFFFFFFFFFFFFFFFFFFFFFFFFFFFFFFFFFF AND DUP2 PUSH20 0xFFFFFFFFFFFFFFFFFFFFFFFFFFFFFFFFFFFFFFFF AND DUP4 PUSH32 0x2F8788117E7EFF1D82E926EC794901D17C78024A50270940304540A733656F0D PUSH1 0x40 MLOAD PUSH1 0x40 MLOAD DUP1 SWAP2 SUB SWAP1 LOG4 JUMPDEST POP POP JUMP JUMPDEST PUSH1 0x0 CALLER SWAP1 POP SWAP1 JUMP JUMPDEST PUSH2 0x26AC DUP3 DUP3 PUSH2 0x194B JUMP JUMPDEST ISZERO PUSH2 0x2780 JUMPI PUSH1 0x0 PUSH1 0xA PUSH1 0x0 DUP5 DUP2 MSTORE PUSH1 0x20 ADD SWAP1 DUP2 MSTORE PUSH1 0x20 ADD PUSH1 0x0 KECCAK256 PUSH1 0x0 ADD PUSH1 0x0 DUP4 PUSH20 0xFFFFFFFFFFFFFFFFFFFFFFFFFFFFFFFFFFFFFFFF AND PUSH20 0xFFFFFFFFFFFFFFFFFFFFFFFFFFFFFFFFFFFFFFFF AND DUP2 MSTORE PUSH1 0x20 ADD SWAP1 DUP2 MSTORE PUSH1 0x20 ADD PUSH1 0x0 KECCAK256 PUSH1 0x0 PUSH2 0x100 EXP DUP2 SLOAD DUP2 PUSH1 0xFF MUL NOT AND SWAP1 DUP4 ISZERO ISZERO MUL OR SWAP1 SSTORE POP PUSH2 0x2725 PUSH2 0x269A JUMP JUMPDEST PUSH20 0xFFFFFFFFFFFFFFFFFFFFFFFFFFFFFFFFFFFFFFFF AND DUP2 PUSH20 0xFFFFFFFFFFFFFFFFFFFFFFFFFFFFFFFFFFFFFFFF AND DUP4 PUSH32 0xF6391F5C32D9C69D2A47EA670B442974B53935D1EDC7FD64EB21E047A839171B PUSH1 0x40 MLOAD PUSH1 0x40 MLOAD DUP1 SWAP2 SUB SWAP1 LOG4 JUMPDEST POP POP JUMP JUMPDEST PUSH1 0x0 DUP1 PUSH1 0x0 SWAP1 SLOAD SWAP1 PUSH2 0x100 EXP SWAP1 DIV PUSH20 0xFFFFFFFFFFFFFFFFFFFFFFFFFFFFFFFFFFFFFFFF AND SWAP1 POP DUP2 PUSH1 0x0 DUP1 PUSH2 0x100 EXP DUP2 SLOAD DUP2 PUSH20 0xFFFFFFFFFFFFFFFFFFFFFFFFFFFFFFFFFFFFFFFF MUL NOT AND SWAP1 DUP4 PUSH20 0xFFFFFFFFFFFFFFFFFFFFFFFFFFFFFFFFFFFFFFFF AND MUL OR SWAP1 SSTORE POP DUP2 PUSH20 0xFFFFFFFFFFFFFFFFFFFFFFFFFFFFFFFFFFFFFFFF AND DUP2 PUSH20 0xFFFFFFFFFFFFFFFFFFFFFFFFFFFFFFFFFFFFFFFF AND PUSH32 0x8BE0079C531659141344CD1FD0A4F28419497F9722A3DAAFE3B4186F6B6457E0 PUSH1 0x40 MLOAD PUSH1 0x40 MLOAD DUP1 SWAP2 SUB SWAP1 LOG3 POP POP JUMP JUMPDEST PUSH2 0x2850 PUSH2 0x32C0 JUMP JUMPDEST PUSH2 0x286C PUSH1 0x5 PUSH1 0x0 DUP5 DUP2 MSTORE PUSH1 0x20 ADD SWAP1 DUP2 MSTORE PUSH1 0x20 ADD PUSH1 0x0 KECCAK256 SLOAD PUSH2 0x2C62 JUMP JUMPDEST SWAP1 POP SWAP2 SWAP1 POP JUMP JUMPDEST PUSH1 0x2 PUSH1 0x9 SLOAD EQ ISZERO PUSH2 0x28B9 JUMPI PUSH1 0x40 MLOAD PUSH32 0x8C379A000000000000000000000000000000000000000000000000000000000 DUP2 MSTORE PUSH1 0x4 ADD PUSH2 0x28B0 SWAP1 PUSH2 0x4735 JUMP JUMPDEST PUSH1 0x40 MLOAD DUP1 SWAP2 SUB SWAP1 REVERT JUMPDEST PUSH1 0x2 PUSH1 0x9 DUP2 SWAP1 SSTORE POP JUMP JUMPDEST PUSH1 0x1 PUSH1 0x9 DUP2 SWAP1 SSTORE POP JUMP JUMPDEST PUSH1 0x0 DUP4 PUSH20 0xFFFFFFFFFFFFFFFFFFFFFFFFFFFFFFFFFFFFFFFF AND PUSH4 0x150B7A02 PUSH2 0x28F3 PUSH2 0x23DE JUMP JUMPDEST DUP8 DUP7 DUP7 PUSH1 0x40 MLOAD DUP6 PUSH4 0xFFFFFFFF AND PUSH1 0xE0 SHL DUP2 MSTORE PUSH1 0x4 ADD PUSH2 0x2915 SWAP5 SWAP4 SWAP3 SWAP2 SWAP1 PUSH2 0x47AA JUMP JUMPDEST PUSH1 0x20 PUSH1 0x40 MLOAD DUP1 DUP4 SUB DUP2 PUSH1 0x0 DUP8 DUP1 EXTCODESIZE ISZERO DUP1 ISZERO PUSH2 0x292F JUMPI PUSH1 0x0 DUP1 REVERT JUMPDEST POP GAS CALL SWAP3 POP POP POP DUP1 ISZERO PUSH2 0x2960 JUMPI POP PUSH1 0x40 MLOAD RETURNDATASIZE PUSH1 0x1F NOT PUSH1 0x1F DUP3 ADD AND DUP3 ADD DUP1 PUSH1 0x40 MSTORE POP DUP2 ADD SWAP1 PUSH2 0x295D SWAP2 SWAP1 PUSH2 0x480B JUMP JUMPDEST PUSH1 0x1 JUMPDEST PUSH2 0x29DA JUMPI RETURNDATASIZE DUP1 PUSH1 0x0 DUP2 EQ PUSH2 0x2990 JUMPI PUSH1 0x40 MLOAD SWAP2 POP PUSH1 0x1F NOT PUSH1 0x3F RETURNDATASIZE ADD AND DUP3 ADD PUSH1 0x40 MSTORE RETURNDATASIZE DUP3 MSTORE RETURNDATASIZE PUSH1 0x0 PUSH1 0x20 DUP5 ADD RETURNDATACOPY PUSH2 0x2995 JUMP JUMPDEST PUSH1 0x60 SWAP2 POP JUMPDEST POP PUSH1 0x0 DUP2 MLOAD EQ ISZERO PUSH2 0x29D2 JUMPI PUSH1 0x40 MLOAD PUSH32 0xD1A57ED600000000000000000000000000000000000000000000000000000000 DUP2 MSTORE PUSH1 0x4 ADD PUSH1 0x40 MLOAD DUP1 SWAP2 SUB SWAP1 REVERT JUMPDEST DUP1 MLOAD DUP2 PUSH1 0x20 ADD REVERT JUMPDEST PUSH4 0x150B7A02 PUSH1 0xE0 SHL PUSH28 0xFFFFFFFFFFFFFFFFFFFFFFFFFFFFFFFFFFFFFFFFFFFFFFFFFFFFFFFF NOT AND DUP2 PUSH28 0xFFFFFFFFFFFFFFFFFFFFFFFFFFFFFFFFFFFFFFFFFFFFFFFFFFFFFFFF NOT AND EQ SWAP2 POP POP SWAP5 SWAP4 POP POP POP POP JUMP JUMPDEST PUSH1 0x60 PUSH2 0x2A38 DUP3 PUSH2 0x237F JUMP JUMPDEST PUSH2 0x2A6E JUMPI PUSH1 0x40 MLOAD PUSH32 0xA14C4B5000000000000000000000000000000000000000000000000000000000 DUP2 MSTORE PUSH1 0x4 ADD PUSH1 0x40 MLOAD DUP1 SWAP2 SUB SWAP1 REVERT JUMPDEST PUSH1 0x0 PUSH2 0x2A78 PUSH2 0x2D18 JUMP JUMPDEST SWAP1 POP PUSH1 0x0 DUP2 MLOAD EQ ISZERO PUSH2 0x2A99 JUMPI PUSH1 0x40 MLOAD DUP1 PUSH1 0x20 ADD PUSH1 0x40 MSTORE DUP1 PUSH1 0x0 DUP2 MSTORE POP PUSH2 0x2AC4 JUMP JUMPDEST DUP1 PUSH2 0x2AA3 DUP5 PUSH2 0x2DAA JUMP JUMPDEST PUSH1 0x40 MLOAD PUSH1 0x20 ADD PUSH2 0x2AB4 SWAP3 SWAP2 SWAP1 PUSH2 0x4838 JUMP JUMPDEST PUSH1 0x40 MLOAD PUSH1 0x20 DUP2 DUP4 SUB SUB DUP2 MSTORE SWAP1 PUSH1 0x40 MSTORE JUMPDEST SWAP2 POP POP SWAP2 SWAP1 POP JUMP JUMPDEST PUSH1 0x0 PUSH32 0x1FFC9A700000000000000000000000000000000000000000000000000000000 PUSH28 0xFFFFFFFFFFFFFFFFFFFFFFFFFFFFFFFFFFFFFFFFFFFFFFFFFFFFFFFF NOT AND DUP3 PUSH28 0xFFFFFFFFFFFFFFFFFFFFFFFFFFFFFFFFFFFFFFFFFFFFFFFFFFFFFFFF NOT AND EQ SWAP1 POP SWAP2 SWAP1 POP JUMP JUMPDEST PUSH1 0x0 SWAP4 SWAP3 POP POP POP JUMP JUMPDEST PUSH2 0x2B49 DUP4 DUP4 PUSH2 0x2E03 JUMP JUMPDEST PUSH1 0x0 DUP4 PUSH20 0xFFFFFFFFFFFFFFFFFFFFFFFFFFFFFFFFFFFFFFFF AND EXTCODESIZE EQ PUSH2 0x2BD8 JUMPI PUSH1 0x0 PUSH1 0x1 SLOAD SWAP1 POP PUSH1 0x0 DUP4 DUP3 SUB SWAP1 POP JUMPDEST PUSH2 0x2B8A PUSH1 0x0 DUP7 DUP4 DUP1 PUSH1 0x1 ADD SWAP5 POP DUP7 PUSH2 0x28CD JUMP JUMPDEST PUSH2 0x2BC0 JUMPI PUSH1 0x40 MLOAD PUSH32 0xD1A57ED600000000000000000000000000000000000000000000000000000000 DUP2 MSTORE PUSH1 0x4 ADD PUSH1 0x40 MLOAD DUP1 SWAP2 SUB SWAP1 REVERT JUMPDEST DUP2 DUP2 LT PUSH2 0x2B77 JUMPI DUP2 PUSH1 0x1 SLOAD EQ PUSH2 0x2BD5 JUMPI PUSH1 0x0 DUP1 REVERT JUMPDEST POP POP JUMPDEST POP POP POP JUMP JUMPDEST PUSH2 0x2BE7 DUP3 DUP3 PUSH2 0x194B JUMP JUMPDEST PUSH2 0x2C5E JUMPI PUSH2 0x2BF4 DUP2 PUSH2 0x2FC1 JUMP JUMPDEST PUSH2 0x2C02 DUP4 PUSH1 0x0 SHR PUSH1 0x20 PUSH2 0x2FEE JUMP JUMPDEST PUSH1 0x40 MLOAD PUSH1 0x20 ADD PUSH2 0x2C13 SWAP3 SWAP2 SWAP1 PUSH2 0x48F4 JUMP JUMPDEST PUSH1 0x40 MLOAD PUSH1 0x20 DUP2 DUP4 SUB SUB DUP2 MSTORE SWAP1 PUSH1 0x40 MSTORE PUSH1 0x40 MLOAD PUSH32 0x8C379A000000000000000000000000000000000000000000000000000000000 DUP2 MSTORE PUSH1 0x4 ADD PUSH2 0x2C55 SWAP2 SWAP1 PUSH2 0x34ED JUMP JUMPDEST PUSH1 0x40 MLOAD DUP1 SWAP2 SUB SWAP1 REVERT JUMPDEST POP POP JUMP JUMPDEST PUSH2 0x2C6A PUSH2 0x32C0 JUMP JUMPDEST DUP2 DUP2 PUSH1 0x0 ADD SWAP1 PUSH20 0xFFFFFFFFFFFFFFFFFFFFFFFFFFFFFFFFFFFFFFFF AND SWAP1 DUP2 PUSH20 0xFFFFFFFFFFFFFFFFFFFFFFFFFFFFFFFFFFFFFFFF AND DUP2 MSTORE POP POP PUSH1 0xA0 DUP3 SWAP1 SHR DUP2 PUSH1 0x20 ADD SWAP1 PUSH8 0xFFFFFFFFFFFFFFFF AND SWAP1 DUP2 PUSH8 0xFFFFFFFFFFFFFFFF AND DUP2 MSTORE POP POP PUSH1 0x0 PUSH29 0x100000000000000000000000000000000000000000000000000000000 DUP4 AND EQ ISZERO DUP2 PUSH1 0x40 ADD SWAP1 ISZERO ISZERO SWAP1 DUP2 ISZERO ISZERO DUP2 MSTORE POP POP PUSH1 0xE8 DUP3 SWAP1 SHR DUP2 PUSH1 0x60 ADD SWAP1 PUSH3 0xFFFFFF AND SWAP1 DUP2 PUSH3 0xFFFFFF AND DUP2 MSTORE POP POP SWAP2 SWAP1 POP JUMP JUMPDEST PUSH1 0x60 PUSH1 0x10 DUP1 SLOAD PUSH2 0x2D27 SWAP1 PUSH2 0x3E57 JUMP JUMPDEST DUP1 PUSH1 0x1F ADD PUSH1 0x20 DUP1 SWAP2 DIV MUL PUSH1 0x20 ADD PUSH1 0x40 MLOAD SWAP1 DUP2 ADD PUSH1 0x40 MSTORE DUP1 SWAP3 SWAP2 SWAP1 DUP2 DUP2 MSTORE PUSH1 0x20 ADD DUP3 DUP1 SLOAD PUSH2 0x2D53 SWAP1 PUSH2 0x3E57 JUMP JUMPDEST DUP1 ISZERO PUSH2 0x2DA0 JUMPI DUP1 PUSH1 0x1F LT PUSH2 0x2D75 JUMPI PUSH2 0x100 DUP1 DUP4 SLOAD DIV MUL DUP4 MSTORE SWAP2 PUSH1 0x20 ADD SWAP2 PUSH2 0x2DA0 JUMP JUMPDEST DUP3 ADD SWAP2 SWAP1 PUSH1 0x0 MSTORE PUSH1 0x20 PUSH1 0x0 KECCAK256 SWAP1 JUMPDEST DUP2 SLOAD DUP2 MSTORE SWAP1 PUSH1 0x1 ADD SWAP1 PUSH1 0x20 ADD DUP1 DUP4 GT PUSH2 0x2D83 JUMPI DUP3 SWAP1 SUB PUSH1 0x1F AND DUP3 ADD SWAP2 JUMPDEST POP POP POP POP POP SWAP1 POP SWAP1 JUMP JUMPDEST PUSH1 0x60 PUSH1 0xA0 PUSH1 0x40 MLOAD ADD DUP1 PUSH1 0x40 MSTORE PUSH1 0x20 DUP2 SUB SWAP2 POP PUSH1 0x0 DUP3 MSTORE DUP2 DUP4 JUMPDEST PUSH1 0x1 ISZERO PUSH2 0x2DEE JUMPI PUSH1 0x1 DUP5 SUB SWAP4 POP PUSH1 0xA DUP2 MOD PUSH1 0x30 ADD DUP5 MSTORE8 PUSH1 0xA DUP2 DIV SWAP1 POP DUP1 PUSH2 0x2DE9 JUMPI PUSH2 0x2DEE JUMP JUMPDEST PUSH2 0x2DC3 JUMP JUMPDEST POP DUP3 DUP2 SUB PUSH1 0x20 DUP5 SUB SWAP4 POP DUP1 DUP5 MSTORE POP POP POP SWAP2 SWAP1 POP JUMP JUMPDEST PUSH1 0x0 PUSH1 0x1 SLOAD SWAP1 POP PUSH1 0x0 DUP3 EQ ISZERO PUSH2 0x2E45 JUMPI PUSH1 0x40 MLOAD PUSH32 0xB562E8DD00000000000000000000000000000000000000000000000000000000 DUP2 MSTORE PUSH1 0x4 ADD PUSH1 0x40 MLOAD DUP1 SWAP2 SUB SWAP1 REVERT JUMPDEST PUSH2 0x2E52 PUSH1 0x0 DUP5 DUP4 DUP6 PUSH2 0x2528 JUMP JUMPDEST PUSH1 0x1 PUSH1 0x40 PUSH1 0x1 SWAP1 SHL OR DUP3 MUL PUSH1 0x6 PUSH1 0x0 DUP6 PUSH20 0xFFFFFFFFFFFFFFFFFFFFFFFFFFFFFFFFFFFFFFFF AND PUSH20 0xFFFFFFFFFFFFFFFFFFFFFFFFFFFFFFFFFFFFFFFF AND DUP2 MSTORE PUSH1 0x20 ADD SWAP1 DUP2 MSTORE PUSH1 0x20 ADD PUSH1 0x0 KECCAK256 PUSH1 0x0 DUP3 DUP3 SLOAD ADD SWAP3 POP POP DUP2 SWAP1 SSTORE POP PUSH2 0x2EC9 DUP4 PUSH2 0x2EBA PUSH1 0x0 DUP7 PUSH1 0x0 PUSH2 0x252E JUMP JUMPDEST PUSH2 0x2EC3 DUP6 PUSH2 0x322A JUMP JUMPDEST OR PUSH2 0x2556 JUMP JUMPDEST PUSH1 0x5 PUSH1 0x0 DUP4 DUP2 MSTORE PUSH1 0x20 ADD SWAP1 DUP2 MSTORE PUSH1 0x20 ADD PUSH1 0x0 KECCAK256 DUP2 SWAP1 SSTORE POP PUSH1 0x0 DUP1 DUP4 DUP4 ADD SWAP1 POP PUSH20 0xFFFFFFFFFFFFFFFFFFFFFFFFFFFFFFFFFFFFFFFF DUP6 AND SWAP2 POP DUP3 DUP3 PUSH1 0x0 PUSH32 0xDDF252AD1BE2C89B69C2B068FC378DAA952BA7F163C4A11628F55A4DF523B3EF PUSH1 0x0 DUP1 LOG4 PUSH1 0x1 DUP4 ADD JUMPDEST DUP2 DUP2 EQ PUSH2 0x2F6A JUMPI DUP1 DUP4 PUSH1 0x0 PUSH32 0xDDF252AD1BE2C89B69C2B068FC378DAA952BA7F163C4A11628F55A4DF523B3EF PUSH1 0x0 DUP1 LOG4 PUSH1 0x1 DUP2 ADD SWAP1 POP PUSH2 0x2F2F JUMP JUMPDEST POP PUSH1 0x0 DUP3 EQ ISZERO PUSH2 0x2FA6 JUMPI PUSH1 0x40 MLOAD PUSH32 0x2E07630000000000000000000000000000000000000000000000000000000000 DUP2 MSTORE PUSH1 0x4 ADD PUSH1 0x40 MLOAD DUP1 SWAP2 SUB SWAP1 REVERT JUMPDEST DUP1 PUSH1 0x1 DUP2 SWAP1 SSTORE POP POP POP PUSH2 0x2FBC PUSH1 0x0 DUP5 DUP4 DUP6 PUSH2 0x2581 JUMP JUMPDEST POP POP POP JUMP JUMPDEST PUSH1 0x60 PUSH2 0x2FE7 DUP3 PUSH20 0xFFFFFFFFFFFFFFFFFFFFFFFFFFFFFFFFFFFFFFFF AND PUSH1 0x14 PUSH1 0xFF AND PUSH2 0x2FEE JUMP JUMPDEST SWAP1 POP SWAP2 SWAP1 POP JUMP JUMPDEST PUSH1 0x60 PUSH1 0x0 PUSH1 0x2 DUP4 PUSH1 0x2 PUSH2 0x3001 SWAP2 SWAP1 PUSH2 0x42C6 JUMP JUMPDEST PUSH2 0x300B SWAP2 SWAP1 PUSH2 0x4022 JUMP JUMPDEST PUSH8 0xFFFFFFFFFFFFFFFF DUP2 GT ISZERO PUSH2 0x3024 JUMPI PUSH2 0x3023 PUSH2 0x377B JUMP JUMPDEST JUMPDEST PUSH1 0x40 MLOAD SWAP1 DUP1 DUP3 MSTORE DUP1 PUSH1 0x1F ADD PUSH1 0x1F NOT AND PUSH1 0x20 ADD DUP3 ADD PUSH1 0x40 MSTORE DUP1 ISZERO PUSH2 0x3056 JUMPI DUP2 PUSH1 0x20 ADD PUSH1 0x1 DUP3 MUL DUP1 CALLDATASIZE DUP4 CALLDATACOPY DUP1 DUP3 ADD SWAP2 POP POP SWAP1 POP JUMPDEST POP SWAP1 POP PUSH32 0x3000000000000000000000000000000000000000000000000000000000000000 DUP2 PUSH1 0x0 DUP2 MLOAD DUP2 LT PUSH2 0x308E JUMPI PUSH2 0x308D PUSH2 0x4150 JUMP JUMPDEST JUMPDEST PUSH1 0x20 ADD ADD SWAP1 PUSH31 0xFFFFFFFFFFFFFFFFFFFFFFFFFFFFFFFFFFFFFFFFFFFFFFFFFFFFFFFFFFFFFF NOT AND SWAP1 DUP2 PUSH1 0x0 BYTE SWAP1 MSTORE8 POP PUSH32 0x7800000000000000000000000000000000000000000000000000000000000000 DUP2 PUSH1 0x1 DUP2 MLOAD DUP2 LT PUSH2 0x30F2 JUMPI PUSH2 0x30F1 PUSH2 0x4150 JUMP JUMPDEST JUMPDEST PUSH1 0x20 ADD ADD SWAP1 PUSH31 0xFFFFFFFFFFFFFFFFFFFFFFFFFFFFFFFFFFFFFFFFFFFFFFFFFFFFFFFFFFFFFF NOT AND SWAP1 DUP2 PUSH1 0x0 BYTE SWAP1 MSTORE8 POP PUSH1 0x0 PUSH1 0x1 DUP5 PUSH1 0x2 PUSH2 0x3132 SWAP2 SWAP1 PUSH2 0x42C6 JUMP JUMPDEST PUSH2 0x313C SWAP2 SWAP1 PUSH2 0x4022 JUMP JUMPDEST SWAP1 POP JUMPDEST PUSH1 0x1 DUP2 GT ISZERO PUSH2 0x31DC JUMPI PUSH32 0x3031323334353637383961626364656600000000000000000000000000000000 PUSH1 0xF DUP7 AND PUSH1 0x10 DUP2 LT PUSH2 0x317E JUMPI PUSH2 0x317D PUSH2 0x4150 JUMP JUMPDEST JUMPDEST BYTE PUSH1 0xF8 SHL DUP3 DUP3 DUP2 MLOAD DUP2 LT PUSH2 0x3195 JUMPI PUSH2 0x3194 PUSH2 0x4150 JUMP JUMPDEST JUMPDEST PUSH1 0x20 ADD ADD SWAP1 PUSH31 0xFFFFFFFFFFFFFFFFFFFFFFFFFFFFFFFFFFFFFFFFFFFFFFFFFFFFFFFFFFFFFF NOT AND SWAP1 DUP2 PUSH1 0x0 BYTE SWAP1 MSTORE8 POP PUSH1 0x4 DUP6 SWAP1 SHR SWAP5 POP DUP1 PUSH2 0x31D5 SWAP1 PUSH2 0x492E JUMP JUMPDEST SWAP1 POP PUSH2 0x313F JUMP JUMPDEST POP PUSH1 0x0 DUP5 EQ PUSH2 0x3220 JUMPI PUSH1 0x40 MLOAD PUSH32 0x8C379A000000000000000000000000000000000000000000000000000000000 DUP2 MSTORE PUSH1 0x4 ADD PUSH2 0x3217 SWAP1 PUSH2 0x49A4 JUMP JUMPDEST PUSH1 0x40 MLOAD DUP1 SWAP2 SUB SWAP1 REVERT JUMPDEST DUP1 SWAP2 POP POP SWAP3 SWAP2 POP POP JUMP JUMPDEST PUSH1 0x0 PUSH1 0x1 DUP3 EQ PUSH1 0xE1 SHL SWAP1 POP SWAP2 SWAP1 POP JUMP JUMPDEST DUP3 DUP1 SLOAD PUSH2 0x3246 SWAP1 PUSH2 0x3E57 JUMP JUMPDEST SWAP1 PUSH1 0x0 MSTORE PUSH1 0x20 PUSH1 0x0 KECCAK256 SWAP1 PUSH1 0x1F ADD PUSH1 0x20 SWAP1 DIV DUP2 ADD SWAP3 DUP3 PUSH2 0x3268 JUMPI PUSH1 0x0 DUP6 SSTORE PUSH2 0x32AF JUMP JUMPDEST DUP3 PUSH1 0x1F LT PUSH2 0x3281 JUMPI DUP1 MLOAD PUSH1 0xFF NOT AND DUP4 DUP1 ADD OR DUP6 SSTORE PUSH2 0x32AF JUMP JUMPDEST DUP3 DUP1 ADD PUSH1 0x1 ADD DUP6 SSTORE DUP3 ISZERO PUSH2 0x32AF JUMPI SWAP2 DUP3 ADD JUMPDEST DUP3 DUP2 GT ISZERO PUSH2 0x32AE JUMPI DUP3 MLOAD DUP3 SSTORE SWAP2 PUSH1 0x20 ADD SWAP2 SWAP1 PUSH1 0x1 ADD SWAP1 PUSH2 0x3293 JUMP JUMPDEST JUMPDEST POP SWAP1 POP PUSH2 0x32BC SWAP2 SWAP1 PUSH2 0x330F JUMP JUMPDEST POP SWAP1 JUMP JUMPDEST PUSH1 0x40 MLOAD DUP1 PUSH1 0x80 ADD PUSH1 0x40 MSTORE DUP1 PUSH1 0x0 PUSH20 0xFFFFFFFFFFFFFFFFFFFFFFFFFFFFFFFFFFFFFFFF AND DUP2 MSTORE PUSH1 0x20 ADD PUSH1 0x0 PUSH8 0xFFFFFFFFFFFFFFFF AND DUP2 MSTORE PUSH1 0x20 ADD PUSH1 0x0 ISZERO ISZERO DUP2 MSTORE PUSH1 0x20 ADD PUSH1 0x0 PUSH3 0xFFFFFF AND DUP2 MSTORE POP SWAP1 JUMP JUMPDEST JUMPDEST DUP1 DUP3 GT ISZERO PUSH2 0x3328 JUMPI PUSH1 0x0 DUP2 PUSH1 0x0 SWAP1 SSTORE POP PUSH1 0x1 ADD PUSH2 0x3310 JUMP JUMPDEST POP SWAP1 JUMP JUMPDEST PUSH1 0x0 PUSH1 0x40 MLOAD SWAP1 POP SWAP1 JUMP JUMPDEST PUSH1 0x0 DUP1 REVERT JUMPDEST PUSH1 0x0 DUP1 REVERT JUMPDEST PUSH1 0x0 PUSH32 0xFFFFFFFF00000000000000000000000000000000000000000000000000000000 DUP3 AND SWAP1 POP SWAP2 SWAP1 POP JUMP JUMPDEST PUSH2 0x3375 DUP2 PUSH2 0x3340 JUMP JUMPDEST DUP2 EQ PUSH2 0x3380 JUMPI PUSH1 0x0 DUP1 REVERT JUMPDEST POP JUMP JUMPDEST PUSH1 0x0 DUP2 CALLDATALOAD SWAP1 POP PUSH2 0x3392 DUP2 PUSH2 0x336C JUMP JUMPDEST SWAP3 SWAP2 POP POP JUMP JUMPDEST PUSH1 0x0 PUSH1 0x20 DUP3 DUP5 SUB SLT ISZERO PUSH2 0x33AE JUMPI PUSH2 0x33AD PUSH2 0x3336 JUMP JUMPDEST JUMPDEST PUSH1 0x0 PUSH2 0x33BC DUP5 DUP3 DUP6 ADD PUSH2 0x3383 JUMP JUMPDEST SWAP2 POP POP SWAP3 SWAP2 POP POP JUMP JUMPDEST PUSH1 0x0 DUP2 ISZERO ISZERO SWAP1 POP SWAP2 SWAP1 POP JUMP JUMPDEST PUSH2 0x33DA DUP2 PUSH2 0x33C5 JUMP JUMPDEST DUP3 MSTORE POP POP JUMP JUMPDEST PUSH1 0x0 PUSH1 0x20 DUP3 ADD SWAP1 POP PUSH2 0x33F5 PUSH1 0x0 DUP4 ADD DUP5 PUSH2 0x33D1 JUMP JUMPDEST SWAP3 SWAP2 POP POP JUMP JUMPDEST PUSH2 0x3404 DUP2 PUSH2 0x33C5 JUMP JUMPDEST DUP2 EQ PUSH2 0x340F JUMPI PUSH1 0x0 DUP1 REVERT JUMPDEST POP JUMP JUMPDEST PUSH1 0x0 DUP2 CALLDATALOAD SWAP1 POP PUSH2 0x3421 DUP2 PUSH2 0x33FB JUMP JUMPDEST SWAP3 SWAP2 POP POP JUMP JUMPDEST PUSH1 0x0 PUSH1 0x20 DUP3 DUP5 SUB SLT ISZERO PUSH2 0x343D JUMPI PUSH2 0x343C PUSH2 0x3336 JUMP JUMPDEST JUMPDEST PUSH1 0x0 PUSH2 0x344B DUP5 DUP3 DUP6 ADD PUSH2 0x3412 JUMP JUMPDEST SWAP2 POP POP SWAP3 SWAP2 POP POP JUMP JUMPDEST PUSH1 0x0 DUP2 MLOAD SWAP1 POP SWAP2 SWAP1 POP JUMP JUMPDEST PUSH1 0x0 DUP3 DUP3 MSTORE PUSH1 0x20 DUP3 ADD SWAP1 POP SWAP3 SWAP2 POP POP JUMP JUMPDEST PUSH1 0x0 JUMPDEST DUP4 DUP2 LT ISZERO PUSH2 0x348E JUMPI DUP1 DUP3 ADD MLOAD DUP2 DUP5 ADD MSTORE PUSH1 0x20 DUP2 ADD SWAP1 POP PUSH2 0x3473 JUMP JUMPDEST DUP4 DUP2 GT ISZERO PUSH2 0x349D JUMPI PUSH1 0x0 DUP5 DUP5 ADD MSTORE JUMPDEST POP POP POP POP JUMP JUMPDEST PUSH1 0x0 PUSH1 0x1F NOT PUSH1 0x1F DUP4 ADD AND SWAP1 POP SWAP2 SWAP1 POP JUMP JUMPDEST PUSH1 0x0 PUSH2 0x34BF DUP3 PUSH2 0x3454 JUMP JUMPDEST PUSH2 0x34C9 DUP2 DUP6 PUSH2 0x345F JUMP JUMPDEST SWAP4 POP PUSH2 0x34D9 DUP2 DUP6 PUSH1 0x20 DUP7 ADD PUSH2 0x3470 JUMP JUMPDEST PUSH2 0x34E2 DUP2 PUSH2 0x34A3 JUMP JUMPDEST DUP5 ADD SWAP2 POP POP SWAP3 SWAP2 POP POP JUMP JUMPDEST PUSH1 0x0 PUSH1 0x20 DUP3 ADD SWAP1 POP DUP2 DUP2 SUB PUSH1 0x0 DUP4 ADD MSTORE PUSH2 0x3507 DUP2 DUP5 PUSH2 0x34B4 JUMP JUMPDEST SWAP1 POP SWAP3 SWAP2 POP POP JUMP JUMPDEST PUSH1 0x0 DUP2 SWAP1 POP SWAP2 SWAP1 POP JUMP JUMPDEST PUSH2 0x3522 DUP2 PUSH2 0x350F JUMP JUMPDEST DUP2 EQ PUSH2 0x352D JUMPI PUSH1 0x0 DUP1 REVERT JUMPDEST POP JUMP JUMPDEST PUSH1 0x0 DUP2 CALLDATALOAD SWAP1 POP PUSH2 0x353F DUP2 PUSH2 0x3519 JUMP JUMPDEST SWAP3 SWAP2 POP POP JUMP JUMPDEST PUSH1 0x0 PUSH1 0x20 DUP3 DUP5 SUB SLT ISZERO PUSH2 0x355B JUMPI PUSH2 0x355A PUSH2 0x3336 JUMP JUMPDEST JUMPDEST PUSH1 0x0 PUSH2 0x3569 DUP5 DUP3 DUP6 ADD PUSH2 0x3530 JUMP JUMPDEST SWAP2 POP POP SWAP3 SWAP2 POP POP JUMP JUMPDEST PUSH1 0x0 PUSH20 0xFFFFFFFFFFFFFFFFFFFFFFFFFFFFFFFFFFFFFFFF DUP3 AND SWAP1 POP SWAP2 SWAP1 POP JUMP JUMPDEST PUSH1 0x0 PUSH2 0x359D DUP3 PUSH2 0x3572 JUMP JUMPDEST SWAP1 POP SWAP2 SWAP1 POP JUMP JUMPDEST PUSH2 0x35AD DUP2 PUSH2 0x3592 JUMP JUMPDEST DUP3 MSTORE POP POP JUMP JUMPDEST PUSH1 0x0 PUSH1 0x20 DUP3 ADD SWAP1 POP PUSH2 0x35C8 PUSH1 0x0 DUP4 ADD DUP5 PUSH2 0x35A4 JUMP JUMPDEST SWAP3 SWAP2 POP POP JUMP JUMPDEST PUSH2 0x35D7 DUP2 PUSH2 0x3592 JUMP JUMPDEST DUP2 EQ PUSH2 0x35E2 JUMPI PUSH1 0x0 DUP1 REVERT JUMPDEST POP JUMP JUMPDEST PUSH1 0x0 DUP2 CALLDATALOAD SWAP1 POP PUSH2 0x35F4 DUP2 PUSH2 0x35CE JUMP JUMPDEST SWAP3 SWAP2 POP POP JUMP JUMPDEST PUSH1 0x0 DUP1 PUSH1 0x40 DUP4 DUP6 SUB SLT ISZERO PUSH2 0x3611 JUMPI PUSH2 0x3610 PUSH2 0x3336 JUMP JUMPDEST JUMPDEST PUSH1 0x0 PUSH2 0x361F DUP6 DUP3 DUP7 ADD PUSH2 0x35E5 JUMP JUMPDEST SWAP3 POP POP PUSH1 0x20 PUSH2 0x3630 DUP6 DUP3 DUP7 ADD PUSH2 0x3530 JUMP JUMPDEST SWAP2 POP POP SWAP3 POP SWAP3 SWAP1 POP JUMP JUMPDEST PUSH2 0x3643 DUP2 PUSH2 0x350F JUMP JUMPDEST DUP3 MSTORE POP POP JUMP JUMPDEST PUSH1 0x0 PUSH1 0x20 DUP3 ADD SWAP1 POP PUSH2 0x365E PUSH1 0x0 DUP4 ADD DUP5 PUSH2 0x363A JUMP JUMPDEST SWAP3 SWAP2 POP POP JUMP JUMPDEST PUSH1 0x0 DUP2 SWAP1 POP SWAP2 SWAP1 POP JUMP JUMPDEST PUSH2 0x3677 DUP2 PUSH2 0x3664 JUMP JUMPDEST DUP3 MSTORE POP POP JUMP JUMPDEST PUSH1 0x0 PUSH1 0x20 DUP3 ADD SWAP1 POP PUSH2 0x3692 PUSH1 0x0 DUP4 ADD DUP5 PUSH2 0x366E JUMP JUMPDEST SWAP3 SWAP2 POP POP JUMP JUMPDEST PUSH1 0x0 DUP1 PUSH1 0x0 PUSH1 0x60 DUP5 DUP7 SUB SLT ISZERO PUSH2 0x36B1 JUMPI PUSH2 0x36B0 PUSH2 0x3336 JUMP JUMPDEST JUMPDEST PUSH1 0x0 PUSH2 0x36BF DUP7 DUP3 DUP8 ADD PUSH2 0x35E5 JUMP JUMPDEST SWAP4 POP POP PUSH1 0x20 PUSH2 0x36D0 DUP7 DUP3 DUP8 ADD PUSH2 0x35E5 JUMP JUMPDEST SWAP3 POP POP PUSH1 0x40 PUSH2 0x36E1 DUP7 DUP3 DUP8 ADD PUSH2 0x3530 JUMP JUMPDEST SWAP2 POP POP SWAP3 POP SWAP3 POP SWAP3 JUMP JUMPDEST PUSH1 0x0 PUSH1 0x20 DUP3 DUP5 SUB SLT ISZERO PUSH2 0x3701 JUMPI PUSH2 0x3700 PUSH2 0x3336 JUMP JUMPDEST JUMPDEST PUSH1 0x0 PUSH2 0x370F DUP5 DUP3 DUP6 ADD PUSH2 0x35E5 JUMP JUMPDEST SWAP2 POP POP SWAP3 SWAP2 POP POP JUMP JUMPDEST PUSH2 0x3721 DUP2 PUSH2 0x3664 JUMP JUMPDEST DUP2 EQ PUSH2 0x372C JUMPI PUSH1 0x0 DUP1 REVERT JUMPDEST POP JUMP JUMPDEST PUSH1 0x0 DUP2 CALLDATALOAD SWAP1 POP PUSH2 0x373E DUP2 PUSH2 0x3718 JUMP JUMPDEST SWAP3 SWAP2 POP POP JUMP JUMPDEST PUSH1 0x0 PUSH1 0x20 DUP3 DUP5 SUB SLT ISZERO PUSH2 0x375A JUMPI PUSH2 0x3759 PUSH2 0x3336 JUMP JUMPDEST JUMPDEST PUSH1 0x0 PUSH2 0x3768 DUP5 DUP3 DUP6 ADD PUSH2 0x372F JUMP JUMPDEST SWAP2 POP POP SWAP3 SWAP2 POP POP JUMP JUMPDEST PUSH1 0x0 DUP1 REVERT JUMPDEST PUSH1 0x0 DUP1 REVERT JUMPDEST PUSH32 0x4E487B7100000000000000000000000000000000000000000000000000000000 PUSH1 0x0 MSTORE PUSH1 0x41 PUSH1 0x4 MSTORE PUSH1 0x24 PUSH1 0x0 REVERT JUMPDEST PUSH2 0x37B3 DUP3 PUSH2 0x34A3 JUMP JUMPDEST DUP2 ADD DUP2 DUP2 LT PUSH8 0xFFFFFFFFFFFFFFFF DUP3 GT OR ISZERO PUSH2 0x37D2 JUMPI PUSH2 0x37D1 PUSH2 0x377B JUMP JUMPDEST JUMPDEST DUP1 PUSH1 0x40 MSTORE POP POP POP JUMP JUMPDEST PUSH1 0x0 PUSH2 0x37E5 PUSH2 0x332C JUMP JUMPDEST SWAP1 POP PUSH2 0x37F1 DUP3 DUP3 PUSH2 0x37AA JUMP JUMPDEST SWAP2 SWAP1 POP JUMP JUMPDEST PUSH1 0x0 PUSH8 0xFFFFFFFFFFFFFFFF DUP3 GT ISZERO PUSH2 0x3811 JUMPI PUSH2 0x3810 PUSH2 0x377B JUMP JUMPDEST JUMPDEST PUSH2 0x381A DUP3 PUSH2 0x34A3 JUMP JUMPDEST SWAP1 POP PUSH1 0x20 DUP2 ADD SWAP1 POP SWAP2 SWAP1 POP JUMP JUMPDEST DUP3 DUP2 DUP4 CALLDATACOPY PUSH1 0x0 DUP4 DUP4 ADD MSTORE POP POP POP JUMP JUMPDEST PUSH1 0x0 PUSH2 0x3849 PUSH2 0x3844 DUP5 PUSH2 0x37F6 JUMP JUMPDEST PUSH2 0x37DB JUMP JUMPDEST SWAP1 POP DUP3 DUP2 MSTORE PUSH1 0x20 DUP2 ADD DUP5 DUP5 DUP5 ADD GT ISZERO PUSH2 0x3865 JUMPI PUSH2 0x3864 PUSH2 0x3776 JUMP JUMPDEST JUMPDEST PUSH2 0x3870 DUP5 DUP3 DUP6 PUSH2 0x3827 JUMP JUMPDEST POP SWAP4 SWAP3 POP POP POP JUMP JUMPDEST PUSH1 0x0 DUP3 PUSH1 0x1F DUP4 ADD SLT PUSH2 0x388D JUMPI PUSH2 0x388C PUSH2 0x3771 JUMP JUMPDEST JUMPDEST DUP2 CALLDATALOAD PUSH2 0x389D DUP5 DUP3 PUSH1 0x20 DUP7 ADD PUSH2 0x3836 JUMP JUMPDEST SWAP2 POP POP SWAP3 SWAP2 POP POP JUMP JUMPDEST PUSH1 0x0 DUP1 PUSH1 0x40 DUP4 DUP6 SUB SLT ISZERO PUSH2 0x38BD JUMPI PUSH2 0x38BC PUSH2 0x3336 JUMP JUMPDEST JUMPDEST PUSH1 0x0 PUSH2 0x38CB DUP6 DUP3 DUP7 ADD PUSH2 0x3530 JUMP JUMPDEST SWAP3 POP POP PUSH1 0x20 DUP4 ADD CALLDATALOAD PUSH8 0xFFFFFFFFFFFFFFFF DUP2 GT ISZERO PUSH2 0x38EC JUMPI PUSH2 0x38EB PUSH2 0x333B JUMP JUMPDEST JUMPDEST PUSH2 0x38F8 DUP6 DUP3 DUP7 ADD PUSH2 0x3878 JUMP JUMPDEST SWAP2 POP POP SWAP3 POP SWAP3 SWAP1 POP JUMP JUMPDEST PUSH1 0x0 DUP1 REVERT JUMPDEST PUSH1 0x0 DUP1 REVERT JUMPDEST PUSH1 0x0 DUP1 DUP4 PUSH1 0x1F DUP5 ADD SLT PUSH2 0x3922 JUMPI PUSH2 0x3921 PUSH2 0x3771 JUMP JUMPDEST JUMPDEST DUP3 CALLDATALOAD SWAP1 POP PUSH8 0xFFFFFFFFFFFFFFFF DUP2 GT ISZERO PUSH2 0x393F JUMPI PUSH2 0x393E PUSH2 0x3902 JUMP JUMPDEST JUMPDEST PUSH1 0x20 DUP4 ADD SWAP2 POP DUP4 PUSH1 0x20 DUP3 MUL DUP4 ADD GT ISZERO PUSH2 0x395B JUMPI PUSH2 0x395A PUSH2 0x3907 JUMP JUMPDEST JUMPDEST SWAP3 POP SWAP3 SWAP1 POP JUMP JUMPDEST PUSH1 0x0 PUSH8 0xFFFFFFFFFFFFFFFF DUP3 GT ISZERO PUSH2 0x397D JUMPI PUSH2 0x397C PUSH2 0x377B JUMP JUMPDEST JUMPDEST PUSH1 0x20 DUP3 MUL SWAP1 POP PUSH1 0x20 DUP2 ADD SWAP1 POP SWAP2 SWAP1 POP JUMP JUMPDEST PUSH1 0x0 PUSH2 0x39A1 PUSH2 0x399C DUP5 PUSH2 0x3962 JUMP JUMPDEST PUSH2 0x37DB JUMP JUMPDEST SWAP1 POP DUP1 DUP4 DUP3 MSTORE PUSH1 0x20 DUP3 ADD SWAP1 POP PUSH1 0x20 DUP5 MUL DUP4 ADD DUP6 DUP2 GT ISZERO PUSH2 0x39C4 JUMPI PUSH2 0x39C3 PUSH2 0x3907 JUMP JUMPDEST JUMPDEST DUP4 JUMPDEST DUP2 DUP2 LT ISZERO PUSH2 0x39ED JUMPI DUP1 PUSH2 0x39D9 DUP9 DUP3 PUSH2 0x3530 JUMP JUMPDEST DUP5 MSTORE PUSH1 0x20 DUP5 ADD SWAP4 POP POP PUSH1 0x20 DUP2 ADD SWAP1 POP PUSH2 0x39C6 JUMP JUMPDEST POP POP POP SWAP4 SWAP3 POP POP POP JUMP JUMPDEST PUSH1 0x0 DUP3 PUSH1 0x1F DUP4 ADD SLT PUSH2 0x3A0C JUMPI PUSH2 0x3A0B PUSH2 0x3771 JUMP JUMPDEST JUMPDEST DUP2 CALLDATALOAD PUSH2 0x3A1C DUP5 DUP3 PUSH1 0x20 DUP7 ADD PUSH2 0x398E JUMP JUMPDEST SWAP2 POP POP SWAP3 SWAP2 POP POP JUMP JUMPDEST PUSH1 0x0 DUP1 PUSH1 0x0 PUSH1 0x40 DUP5 DUP7 SUB SLT ISZERO PUSH2 0x3A3E JUMPI PUSH2 0x3A3D PUSH2 0x3336 JUMP JUMPDEST JUMPDEST PUSH1 0x0 DUP5 ADD CALLDATALOAD PUSH8 0xFFFFFFFFFFFFFFFF DUP2 GT ISZERO PUSH2 0x3A5C JUMPI PUSH2 0x3A5B PUSH2 0x333B JUMP JUMPDEST JUMPDEST PUSH2 0x3A68 DUP7 DUP3 DUP8 ADD PUSH2 0x390C JUMP JUMPDEST SWAP4 POP SWAP4 POP POP PUSH1 0x20 DUP5 ADD CALLDATALOAD PUSH8 0xFFFFFFFFFFFFFFFF DUP2 GT ISZERO PUSH2 0x3A8B JUMPI PUSH2 0x3A8A PUSH2 0x333B JUMP JUMPDEST JUMPDEST PUSH2 0x3A97 DUP7 DUP3 DUP8 ADD PUSH2 0x39F7 JUMP JUMPDEST SWAP2 POP POP SWAP3 POP SWAP3 POP SWAP3 JUMP JUMPDEST PUSH1 0x0 DUP1 PUSH1 0x40 DUP4 DUP6 SUB SLT ISZERO PUSH2 0x3AB8 JUMPI PUSH2 0x3AB7 PUSH2 0x3336 JUMP JUMPDEST JUMPDEST PUSH1 0x0 PUSH2 0x3AC6 DUP6 DUP3 DUP7 ADD PUSH2 0x372F JUMP JUMPDEST SWAP3 POP POP PUSH1 0x20 PUSH2 0x3AD7 DUP6 DUP3 DUP7 ADD PUSH2 0x35E5 JUMP JUMPDEST SWAP2 POP POP SWAP3 POP SWAP3 SWAP1 POP JUMP JUMPDEST PUSH1 0x0 PUSH1 0x20 DUP3 DUP5 SUB SLT ISZERO PUSH2 0x3AF7 JUMPI PUSH2 0x3AF6 PUSH2 0x3336 JUMP JUMPDEST JUMPDEST PUSH1 0x0 DUP3 ADD CALLDATALOAD PUSH8 0xFFFFFFFFFFFFFFFF DUP2 GT ISZERO PUSH2 0x3B15 JUMPI PUSH2 0x3B14 PUSH2 0x333B JUMP JUMPDEST JUMPDEST PUSH2 0x3B21 DUP5 DUP3 DUP6 ADD PUSH2 0x3878 JUMP JUMPDEST SWAP2 POP POP SWAP3 SWAP2 POP POP JUMP JUMPDEST PUSH1 0x0 DUP2 MLOAD SWAP1 POP SWAP2 SWAP1 POP JUMP JUMPDEST PUSH1 0x0 DUP3 DUP3 MSTORE PUSH1 0x20 DUP3 ADD SWAP1 POP SWAP3 SWAP2 POP POP JUMP JUMPDEST PUSH1 0x0 DUP2 SWAP1 POP PUSH1 0x20 DUP3 ADD SWAP1 POP SWAP2 SWAP1 POP JUMP JUMPDEST PUSH2 0x3B5F DUP2 PUSH2 0x350F JUMP JUMPDEST DUP3 MSTORE POP POP JUMP JUMPDEST PUSH1 0x0 PUSH2 0x3B71 DUP4 DUP4 PUSH2 0x3B56 JUMP JUMPDEST PUSH1 0x20 DUP4 ADD SWAP1 POP SWAP3 SWAP2 POP POP JUMP JUMPDEST PUSH1 0x0 PUSH1 0x20 DUP3 ADD SWAP1 POP SWAP2 SWAP1 POP JUMP JUMPDEST PUSH1 0x0 PUSH2 0x3B95 DUP3 PUSH2 0x3B2A JUMP JUMPDEST PUSH2 0x3B9F DUP2 DUP6 PUSH2 0x3B35 JUMP JUMPDEST SWAP4 POP PUSH2 0x3BAA DUP4 PUSH2 0x3B46 JUMP JUMPDEST DUP1 PUSH1 0x0 JUMPDEST DUP4 DUP2 LT ISZERO PUSH2 0x3BDB JUMPI DUP2 MLOAD PUSH2 0x3BC2 DUP9 DUP3 PUSH2 0x3B65 JUMP JUMPDEST SWAP8 POP PUSH2 0x3BCD DUP4 PUSH2 0x3B7D JUMP JUMPDEST SWAP3 POP POP PUSH1 0x1 DUP2 ADD SWAP1 POP PUSH2 0x3BAE JUMP JUMPDEST POP DUP6 SWAP4 POP POP POP POP SWAP3 SWAP2 POP POP JUMP JUMPDEST PUSH1 0x0 PUSH1 0x20 DUP3 ADD SWAP1 POP DUP2 DUP2 SUB PUSH1 0x0 DUP4 ADD MSTORE PUSH2 0x3C02 DUP2 DUP5 PUSH2 0x3B8A JUMP JUMPDEST SWAP1 POP SWAP3 SWAP2 POP POP JUMP JUMPDEST PUSH1 0x0 DUP2 SWAP1 POP SWAP2 SWAP1 POP JUMP JUMPDEST PUSH1 0x0 PUSH2 0x3C2F PUSH2 0x3C2A PUSH2 0x3C25 DUP5 PUSH2 0x3572 JUMP JUMPDEST PUSH2 0x3C0A JUMP JUMPDEST PUSH2 0x3572 JUMP JUMPDEST SWAP1 POP SWAP2 SWAP1 POP JUMP JUMPDEST PUSH1 0x0 PUSH2 0x3C41 DUP3 PUSH2 0x3C14 JUMP JUMPDEST SWAP1 POP SWAP2 SWAP1 POP JUMP JUMPDEST PUSH1 0x0 PUSH2 0x3C53 DUP3 PUSH2 0x3C36 JUMP JUMPDEST SWAP1 POP SWAP2 SWAP1 POP JUMP JUMPDEST PUSH2 0x3C63 DUP2 PUSH2 0x3C48 JUMP JUMPDEST DUP3 MSTORE POP POP JUMP JUMPDEST PUSH1 0x0 PUSH1 0x20 DUP3 ADD SWAP1 POP PUSH2 0x3C7E PUSH1 0x0 DUP4 ADD DUP5 PUSH2 0x3C5A JUMP JUMPDEST SWAP3 SWAP2 POP POP JUMP JUMPDEST PUSH1 0x0 DUP1 PUSH1 0x40 DUP4 DUP6 SUB SLT ISZERO PUSH2 0x3C9B JUMPI PUSH2 0x3C9A PUSH2 0x3336 JUMP JUMPDEST JUMPDEST PUSH1 0x0 PUSH2 0x3CA9 DUP6 DUP3 DUP7 ADD PUSH2 0x35E5 JUMP JUMPDEST SWAP3 POP POP PUSH1 0x20 PUSH2 0x3CBA DUP6 DUP3 DUP7 ADD PUSH2 0x3412 JUMP JUMPDEST SWAP2 POP POP SWAP3 POP SWAP3 SWAP1 POP JUMP JUMPDEST PUSH1 0x0 PUSH8 0xFFFFFFFFFFFFFFFF DUP3 GT ISZERO PUSH2 0x3CDF JUMPI PUSH2 0x3CDE PUSH2 0x377B JUMP JUMPDEST JUMPDEST PUSH2 0x3CE8 DUP3 PUSH2 0x34A3 JUMP JUMPDEST SWAP1 POP PUSH1 0x20 DUP2 ADD SWAP1 POP SWAP2 SWAP1 POP JUMP JUMPDEST PUSH1 0x0 PUSH2 0x3D08 PUSH2 0x3D03 DUP5 PUSH2 0x3CC4 JUMP JUMPDEST PUSH2 0x37DB JUMP JUMPDEST SWAP1 POP DUP3 DUP2 MSTORE PUSH1 0x20 DUP2 ADD DUP5 DUP5 DUP5 ADD GT ISZERO PUSH2 0x3D24 JUMPI PUSH2 0x3D23 PUSH2 0x3776 JUMP JUMPDEST JUMPDEST PUSH2 0x3D2F DUP5 DUP3 DUP6 PUSH2 0x3827 JUMP JUMPDEST POP SWAP4 SWAP3 POP POP POP JUMP JUMPDEST PUSH1 0x0 DUP3 PUSH1 0x1F DUP4 ADD SLT PUSH2 0x3D4C JUMPI PUSH2 0x3D4B PUSH2 0x3771 JUMP JUMPDEST JUMPDEST DUP2 CALLDATALOAD PUSH2 0x3D5C DUP5 DUP3 PUSH1 0x20 DUP7 ADD PUSH2 0x3CF5 JUMP JUMPDEST SWAP2 POP POP SWAP3 SWAP2 POP POP JUMP JUMPDEST PUSH1 0x0 DUP1 PUSH1 0x0 DUP1 PUSH1 0x80 DUP6 DUP8 SUB SLT ISZERO PUSH2 0x3D7F JUMPI PUSH2 0x3D7E PUSH2 0x3336 JUMP JUMPDEST JUMPDEST PUSH1 0x0 PUSH2 0x3D8D DUP8 DUP3 DUP9 ADD PUSH2 0x35E5 JUMP JUMPDEST SWAP5 POP POP PUSH1 0x20 PUSH2 0x3D9E DUP8 DUP3 DUP9 ADD PUSH2 0x35E5 JUMP JUMPDEST SWAP4 POP POP PUSH1 0x40 PUSH2 0x3DAF DUP8 DUP3 DUP9 ADD PUSH2 0x3530 JUMP JUMPDEST SWAP3 POP POP PUSH1 0x60 DUP6 ADD CALLDATALOAD PUSH8 0xFFFFFFFFFFFFFFFF DUP2 GT ISZERO PUSH2 0x3DD0 JUMPI PUSH2 0x3DCF PUSH2 0x333B JUMP JUMPDEST JUMPDEST PUSH2 0x3DDC DUP8 DUP3 DUP9 ADD PUSH2 0x3D37 JUMP JUMPDEST SWAP2 POP POP SWAP3 SWAP6 SWAP2 SWAP5 POP SWAP3 POP JUMP JUMPDEST PUSH1 0x0 DUP1 PUSH1 0x40 DUP4 DUP6 SUB SLT ISZERO PUSH2 0x3DFF JUMPI PUSH2 0x3DFE PUSH2 0x3336 JUMP JUMPDEST JUMPDEST PUSH1 0x0 PUSH2 0x3E0D DUP6 DUP3 DUP7 ADD PUSH2 0x35E5 JUMP JUMPDEST SWAP3 POP POP PUSH1 0x20 PUSH2 0x3E1E DUP6 DUP3 DUP7 ADD PUSH2 0x35E5 JUMP JUMPDEST SWAP2 POP POP SWAP3 POP SWAP3 SWAP1 POP JUMP JUMPDEST PUSH32 0x4E487B7100000000000000000000000000000000000000000000000000000000 PUSH1 0x0 MSTORE PUSH1 0x22 PUSH1 0x4 MSTORE PUSH1 0x24 PUSH1 0x0 REVERT JUMPDEST PUSH1 0x0 PUSH1 0x2 DUP3 DIV SWAP1 POP PUSH1 0x1 DUP3 AND DUP1 PUSH2 0x3E6F JUMPI PUSH1 0x7F DUP3 AND SWAP2 POP JUMPDEST PUSH1 0x20 DUP3 LT DUP2 EQ ISZERO PUSH2 0x3E83 JUMPI PUSH2 0x3E82 PUSH2 0x3E28 JUMP JUMPDEST JUMPDEST POP SWAP2 SWAP1 POP JUMP JUMPDEST PUSH32 0x74686520636F6E74726163742069732070617573656400000000000000000000 PUSH1 0x0 DUP3 ADD MSTORE POP JUMP JUMPDEST PUSH1 0x0 PUSH2 0x3EBF PUSH1 0x16 DUP4 PUSH2 0x345F JUMP JUMPDEST SWAP2 POP PUSH2 0x3ECA DUP3 PUSH2 0x3E89 JUMP JUMPDEST PUSH1 0x20 DUP3 ADD SWAP1 POP SWAP2 SWAP1 POP JUMP JUMPDEST PUSH1 0x0 PUSH1 0x20 DUP3 ADD SWAP1 POP DUP2 DUP2 SUB PUSH1 0x0 DUP4 ADD MSTORE PUSH2 0x3EEE DUP2 PUSH2 0x3EB2 JUMP JUMPDEST SWAP1 POP SWAP2 SWAP1 POP JUMP JUMPDEST PUSH32 0x6E65656420746F206D696E74206174206C656173742031204E46540000000000 PUSH1 0x0 DUP3 ADD MSTORE POP JUMP JUMPDEST PUSH1 0x0 PUSH2 0x3F2B PUSH1 0x1B DUP4 PUSH2 0x345F JUMP JUMPDEST SWAP2 POP PUSH2 0x3F36 DUP3 PUSH2 0x3EF5 JUMP JUMPDEST PUSH1 0x20 DUP3 ADD SWAP1 POP SWAP2 SWAP1 POP JUMP JUMPDEST PUSH1 0x0 PUSH1 0x20 DUP3 ADD SWAP1 POP DUP2 DUP2 SUB PUSH1 0x0 DUP4 ADD MSTORE PUSH2 0x3F5A DUP2 PUSH2 0x3F1E JUMP JUMPDEST SWAP1 POP SWAP2 SWAP1 POP JUMP JUMPDEST PUSH32 0x6D6178206D696E7420616D6F756E74207065722073657373696F6E2065786365 PUSH1 0x0 DUP3 ADD MSTORE PUSH32 0x6564656400000000000000000000000000000000000000000000000000000000 PUSH1 0x20 DUP3 ADD MSTORE POP JUMP JUMPDEST PUSH1 0x0 PUSH2 0x3FBD PUSH1 0x24 DUP4 PUSH2 0x345F JUMP JUMPDEST SWAP2 POP PUSH2 0x3FC8 DUP3 PUSH2 0x3F61 JUMP JUMPDEST PUSH1 0x40 DUP3 ADD SWAP1 POP SWAP2 SWAP1 POP JUMP JUMPDEST PUSH1 0x0 PUSH1 0x20 DUP3 ADD SWAP1 POP DUP2 DUP2 SUB PUSH1 0x0 DUP4 ADD MSTORE PUSH2 0x3FEC DUP2 PUSH2 0x3FB0 JUMP JUMPDEST SWAP1 POP SWAP2 SWAP1 POP JUMP JUMPDEST PUSH32 0x4E487B7100000000000000000000000000000000000000000000000000000000 PUSH1 0x0 MSTORE PUSH1 0x11 PUSH1 0x4 MSTORE PUSH1 0x24 PUSH1 0x0 REVERT JUMPDEST PUSH1 0x0 PUSH2 0x402D DUP3 PUSH2 0x350F JUMP JUMPDEST SWAP2 POP PUSH2 0x4038 DUP4 PUSH2 0x350F JUMP JUMPDEST SWAP3 POP DUP3 PUSH32 0xFFFFFFFFFFFFFFFFFFFFFFFFFFFFFFFFFFFFFFFFFFFFFFFFFFFFFFFFFFFFFFFF SUB DUP3 GT ISZERO PUSH2 0x406D JUMPI PUSH2 0x406C PUSH2 0x3FF3 JUMP JUMPDEST JUMPDEST DUP3 DUP3 ADD SWAP1 POP SWAP3 SWAP2 POP POP JUMP JUMPDEST PUSH32 0x6D6178204E4654206C696D697420657863656564656400000000000000000000 PUSH1 0x0 DUP3 ADD MSTORE POP JUMP JUMPDEST PUSH1 0x0 PUSH2 0x40AE PUSH1 0x16 DUP4 PUSH2 0x345F JUMP JUMPDEST SWAP2 POP PUSH2 0x40B9 DUP3 PUSH2 0x4078 JUMP JUMPDEST PUSH1 0x20 DUP3 ADD SWAP1 POP SWAP2 SWAP1 POP JUMP JUMPDEST PUSH1 0x0 PUSH1 0x20 DUP3 ADD SWAP1 POP DUP2 DUP2 SUB PUSH1 0x0 DUP4 ADD MSTORE PUSH2 0x40DD DUP2 PUSH2 0x40A1 JUMP JUMPDEST SWAP1 POP SWAP2 SWAP1 POP JUMP JUMPDEST PUSH32 0x43616C6C6572206973206E6F742061206169722064726F707065720000000000 PUSH1 0x0 DUP3 ADD MSTORE POP JUMP JUMPDEST PUSH1 0x0 PUSH2 0x411A PUSH1 0x1B DUP4 PUSH2 0x345F JUMP JUMPDEST SWAP2 POP PUSH2 0x4125 DUP3 PUSH2 0x40E4 JUMP JUMPDEST PUSH1 0x20 DUP3 ADD SWAP1 POP SWAP2 SWAP1 POP JUMP JUMPDEST PUSH1 0x0 PUSH1 0x20 DUP3 ADD SWAP1 POP DUP2 DUP2 SUB PUSH1 0x0 DUP4 ADD MSTORE PUSH2 0x4149 DUP2 PUSH2 0x410D JUMP JUMPDEST SWAP1 POP SWAP2 SWAP1 POP JUMP JUMPDEST PUSH32 0x4E487B7100000000000000000000000000000000000000000000000000000000 PUSH1 0x0 MSTORE PUSH1 0x32 PUSH1 0x4 MSTORE PUSH1 0x24 PUSH1 0x0 REVERT JUMPDEST PUSH1 0x0 PUSH2 0x418A DUP3 PUSH2 0x350F JUMP JUMPDEST SWAP2 POP PUSH32 0xFFFFFFFFFFFFFFFFFFFFFFFFFFFFFFFFFFFFFFFFFFFFFFFFFFFFFFFFFFFFFFFF DUP3 EQ ISZERO PUSH2 0x41BD JUMPI PUSH2 0x41BC PUSH2 0x3FF3 JUMP JUMPDEST JUMPDEST PUSH1 0x1 DUP3 ADD SWAP1 POP SWAP2 SWAP1 POP JUMP JUMPDEST PUSH32 0x416363657373436F6E74726F6C3A2063616E206F6E6C792072656E6F756E6365 PUSH1 0x0 DUP3 ADD MSTORE PUSH32 0x20726F6C657320666F722073656C660000000000000000000000000000000000 PUSH1 0x20 DUP3 ADD MSTORE POP JUMP JUMPDEST PUSH1 0x0 PUSH2 0x4224 PUSH1 0x2F DUP4 PUSH2 0x345F JUMP JUMPDEST SWAP2 POP PUSH2 0x422F DUP3 PUSH2 0x41C8 JUMP JUMPDEST PUSH1 0x40 DUP3 ADD SWAP1 POP SWAP2 SWAP1 POP JUMP JUMPDEST PUSH1 0x0 PUSH1 0x20 DUP3 ADD SWAP1 POP DUP2 DUP2 SUB PUSH1 0x0 DUP4 ADD MSTORE PUSH2 0x4253 DUP2 PUSH2 0x4217 JUMP JUMPDEST SWAP1 POP SWAP2 SWAP1 POP JUMP JUMPDEST PUSH32 0x5468652063616C6C657220697320616E6F7468657220636F6E74726163742E00 PUSH1 0x0 DUP3 ADD MSTORE POP JUMP JUMPDEST PUSH1 0x0 PUSH2 0x4290 PUSH1 0x1F DUP4 PUSH2 0x345F JUMP JUMPDEST SWAP2 POP PUSH2 0x429B DUP3 PUSH2 0x425A JUMP JUMPDEST PUSH1 0x20 DUP3 ADD SWAP1 POP SWAP2 SWAP1 POP JUMP JUMPDEST PUSH1 0x0 PUSH1 0x20 DUP3 ADD SWAP1 POP DUP2 DUP2 SUB PUSH1 0x0 DUP4 ADD MSTORE PUSH2 0x42BF DUP2 PUSH2 0x4283 JUMP JUMPDEST SWAP1 POP SWAP2 SWAP1 POP JUMP JUMPDEST PUSH1 0x0 PUSH2 0x42D1 DUP3 PUSH2 0x350F JUMP JUMPDEST SWAP2 POP PUSH2 0x42DC DUP4 PUSH2 0x350F JUMP JUMPDEST SWAP3 POP DUP2 PUSH32 0xFFFFFFFFFFFFFFFFFFFFFFFFFFFFFFFFFFFFFFFFFFFFFFFFFFFFFFFFFFFFFFFF DIV DUP4 GT DUP3 ISZERO ISZERO AND ISZERO PUSH2 0x4315 JUMPI PUSH2 0x4314 PUSH2 0x3FF3 JUMP JUMPDEST JUMPDEST DUP3 DUP3 MUL SWAP1 POP SWAP3 SWAP2 POP POP JUMP JUMPDEST PUSH32 0x696E73756666696369656E742066756E64730000000000000000000000000000 PUSH1 0x0 DUP3 ADD MSTORE POP JUMP JUMPDEST PUSH1 0x0 PUSH2 0x4356 PUSH1 0x12 DUP4 PUSH2 0x345F JUMP JUMPDEST SWAP2 POP PUSH2 0x4361 DUP3 PUSH2 0x4320 JUMP JUMPDEST PUSH1 0x20 DUP3 ADD SWAP1 POP SWAP2 SWAP1 POP JUMP JUMPDEST PUSH1 0x0 PUSH1 0x20 DUP3 ADD SWAP1 POP DUP2 DUP2 SUB PUSH1 0x0 DUP4 ADD MSTORE PUSH2 0x4385 DUP2 PUSH2 0x4349 JUMP JUMPDEST SWAP1 POP SWAP2 SWAP1 POP JUMP JUMPDEST PUSH1 0x0 DUP2 SWAP1 POP SWAP3 SWAP2 POP POP JUMP JUMPDEST POP JUMP JUMPDEST PUSH1 0x0 PUSH2 0x43A7 PUSH1 0x0 DUP4 PUSH2 0x438C JUMP JUMPDEST SWAP2 POP PUSH2 0x43B2 DUP3 PUSH2 0x4397 JUMP JUMPDEST PUSH1 0x0 DUP3 ADD SWAP1 POP SWAP2 SWAP1 POP JUMP JUMPDEST PUSH1 0x0 PUSH2 0x43C8 DUP3 PUSH2 0x439A JUMP JUMPDEST SWAP2 POP DUP2 SWAP1 POP SWAP2 SWAP1 POP JUMP JUMPDEST PUSH32 0x5472616E73666572206661696C65642E00000000000000000000000000000000 PUSH1 0x0 DUP3 ADD MSTORE POP JUMP JUMPDEST PUSH1 0x0 PUSH2 0x4408 PUSH1 0x10 DUP4 PUSH2 0x345F JUMP JUMPDEST SWAP2 POP PUSH2 0x4413 DUP3 PUSH2 0x43D2 JUMP JUMPDEST PUSH1 0x20 DUP3 ADD SWAP1 POP SWAP2 SWAP1 POP JUMP JUMPDEST PUSH1 0x0 PUSH1 0x20 DUP3 ADD SWAP1 POP DUP2 DUP2 SUB PUSH1 0x0 DUP4 ADD MSTORE PUSH2 0x4437 DUP2 PUSH2 0x43FB JUMP JUMPDEST SWAP1 POP SWAP2 SWAP1 POP JUMP JUMPDEST PUSH1 0x0 PUSH2 0x4451 PUSH2 0x444C DUP5 PUSH2 0x37F6 JUMP JUMPDEST PUSH2 0x37DB JUMP JUMPDEST SWAP1 POP DUP3 DUP2 MSTORE PUSH1 0x20 DUP2 ADD DUP5 DUP5 DUP5 ADD GT ISZERO PUSH2 0x446D JUMPI PUSH2 0x446C PUSH2 0x3776 JUMP JUMPDEST JUMPDEST PUSH2 0x4478 DUP5 DUP3 DUP6 PUSH2 0x3470 JUMP JUMPDEST POP SWAP4 SWAP3 POP POP POP JUMP JUMPDEST PUSH1 0x0 DUP3 PUSH1 0x1F DUP4 ADD SLT PUSH2 0x4495 JUMPI PUSH2 0x4494 PUSH2 0x3771 JUMP JUMPDEST JUMPDEST DUP2 MLOAD PUSH2 0x44A5 DUP5 DUP3 PUSH1 0x20 DUP7 ADD PUSH2 0x443E JUMP JUMPDEST SWAP2 POP POP SWAP3 SWAP2 POP POP JUMP JUMPDEST PUSH1 0x0 PUSH1 0x20 DUP3 DUP5 SUB SLT ISZERO PUSH2 0x44C4 JUMPI PUSH2 0x44C3 PUSH2 0x3336 JUMP JUMPDEST JUMPDEST PUSH1 0x0 DUP3 ADD MLOAD PUSH8 0xFFFFFFFFFFFFFFFF DUP2 GT ISZERO PUSH2 0x44E2 JUMPI PUSH2 0x44E1 PUSH2 0x333B JUMP JUMPDEST JUMPDEST PUSH2 0x44EE DUP5 DUP3 DUP6 ADD PUSH2 0x4480 JUMP JUMPDEST SWAP2 POP POP SWAP3 SWAP2 POP POP JUMP JUMPDEST PUSH1 0x0 DUP2 SWAP1 POP SWAP3 SWAP2 POP POP JUMP JUMPDEST PUSH1 0x0 PUSH2 0x450D DUP3 PUSH2 0x3454 JUMP JUMPDEST PUSH2 0x4517 DUP2 DUP6 PUSH2 0x44F7 JUMP JUMPDEST SWAP4 POP PUSH2 0x4527 DUP2 DUP6 PUSH1 0x20 DUP7 ADD PUSH2 0x3470 JUMP JUMPDEST DUP1 DUP5 ADD SWAP2 POP POP SWAP3 SWAP2 POP POP JUMP JUMPDEST PUSH1 0x0 DUP2 SWAP1 POP DUP2 PUSH1 0x0 MSTORE PUSH1 0x20 PUSH1 0x0 KECCAK256 SWAP1 POP SWAP2 SWAP1 POP JUMP JUMPDEST PUSH1 0x0 DUP2 SLOAD PUSH2 0x4555 DUP2 PUSH2 0x3E57 JUMP JUMPDEST PUSH2 0x455F DUP2 DUP7 PUSH2 0x44F7 JUMP JUMPDEST SWAP5 POP PUSH1 0x1 DUP3 AND PUSH1 0x0 DUP2 EQ PUSH2 0x457A JUMPI PUSH1 0x1 DUP2 EQ PUSH2 0x458B JUMPI PUSH2 0x45BE JUMP JUMPDEST PUSH1 0xFF NOT DUP4 AND DUP7 MSTORE DUP2 DUP7 ADD SWAP4 POP PUSH2 0x45BE JUMP JUMPDEST PUSH2 0x4594 DUP6 PUSH2 0x4533 JUMP JUMPDEST PUSH1 0x0 JUMPDEST DUP4 DUP2 LT ISZERO PUSH2 0x45B6 JUMPI DUP2 SLOAD DUP2 DUP10 ADD MSTORE PUSH1 0x1 DUP3 ADD SWAP2 POP PUSH1 0x20 DUP2 ADD SWAP1 POP PUSH2 0x4597 JUMP JUMPDEST DUP4 DUP9 ADD SWAP6 POP POP POP JUMPDEST POP POP POP SWAP3 SWAP2 POP POP JUMP JUMPDEST PUSH1 0x0 PUSH2 0x45D3 DUP3 DUP6 PUSH2 0x4502 JUMP JUMPDEST SWAP2 POP PUSH2 0x45DF DUP3 DUP5 PUSH2 0x4548 JUMP JUMPDEST SWAP2 POP DUP2 SWAP1 POP SWAP4 SWAP3 POP POP POP JUMP JUMPDEST PUSH32 0x4F776E61626C653A206E6577206F776E657220697320746865207A65726F2061 PUSH1 0x0 DUP3 ADD MSTORE PUSH32 0x6464726573730000000000000000000000000000000000000000000000000000 PUSH1 0x20 DUP3 ADD MSTORE POP JUMP JUMPDEST PUSH1 0x0 PUSH2 0x4647 PUSH1 0x26 DUP4 PUSH2 0x345F JUMP JUMPDEST SWAP2 POP PUSH2 0x4652 DUP3 PUSH2 0x45EB JUMP JUMPDEST PUSH1 0x40 DUP3 ADD SWAP1 POP SWAP2 SWAP1 POP JUMP JUMPDEST PUSH1 0x0 PUSH1 0x20 DUP3 ADD SWAP1 POP DUP2 DUP2 SUB PUSH1 0x0 DUP4 ADD MSTORE PUSH2 0x4676 DUP2 PUSH2 0x463A JUMP JUMPDEST SWAP1 POP SWAP2 SWAP1 POP JUMP JUMPDEST PUSH32 0x4F776E61626C653A2063616C6C6572206973206E6F7420746865206F776E6572 PUSH1 0x0 DUP3 ADD MSTORE POP JUMP JUMPDEST PUSH1 0x0 PUSH2 0x46B3 PUSH1 0x20 DUP4 PUSH2 0x345F JUMP JUMPDEST SWAP2 POP PUSH2 0x46BE DUP3 PUSH2 0x467D JUMP JUMPDEST PUSH1 0x20 DUP3 ADD SWAP1 POP SWAP2 SWAP1 POP JUMP JUMPDEST PUSH1 0x0 PUSH1 0x20 DUP3 ADD SWAP1 POP DUP2 DUP2 SUB PUSH1 0x0 DUP4 ADD MSTORE PUSH2 0x46E2 DUP2 PUSH2 0x46A6 JUMP JUMPDEST SWAP1 POP SWAP2 SWAP1 POP JUMP JUMPDEST PUSH32 0x5265656E7472616E637947756172643A207265656E7472616E742063616C6C00 PUSH1 0x0 DUP3 ADD MSTORE POP JUMP JUMPDEST PUSH1 0x0 PUSH2 0x471F PUSH1 0x1F DUP4 PUSH2 0x345F JUMP JUMPDEST SWAP2 POP PUSH2 0x472A DUP3 PUSH2 0x46E9 JUMP JUMPDEST PUSH1 0x20 DUP3 ADD SWAP1 POP SWAP2 SWAP1 POP JUMP JUMPDEST PUSH1 0x0 PUSH1 0x20 DUP3 ADD SWAP1 POP DUP2 DUP2 SUB PUSH1 0x0 DUP4 ADD MSTORE PUSH2 0x474E DUP2 PUSH2 0x4712 JUMP JUMPDEST SWAP1 POP SWAP2 SWAP1 POP JUMP JUMPDEST PUSH1 0x0 DUP2 MLOAD SWAP1 POP SWAP2 SWAP1 POP JUMP JUMPDEST PUSH1 0x0 DUP3 DUP3 MSTORE PUSH1 0x20 DUP3 ADD SWAP1 POP SWAP3 SWAP2 POP POP JUMP JUMPDEST PUSH1 0x0 PUSH2 0x477C DUP3 PUSH2 0x4755 JUMP JUMPDEST PUSH2 0x4786 DUP2 DUP6 PUSH2 0x4760 JUMP JUMPDEST SWAP4 POP PUSH2 0x4796 DUP2 DUP6 PUSH1 0x20 DUP7 ADD PUSH2 0x3470 JUMP JUMPDEST PUSH2 0x479F DUP2 PUSH2 0x34A3 JUMP JUMPDEST DUP5 ADD SWAP2 POP POP SWAP3 SWAP2 POP POP JUMP JUMPDEST PUSH1 0x0 PUSH1 0x80 DUP3 ADD SWAP1 POP PUSH2 0x47BF PUSH1 0x0 DUP4 ADD DUP8 PUSH2 0x35A4 JUMP JUMPDEST PUSH2 0x47CC PUSH1 0x20 DUP4 ADD DUP7 PUSH2 0x35A4 JUMP JUMPDEST PUSH2 0x47D9 PUSH1 0x40 DUP4 ADD DUP6 PUSH2 0x363A JUMP JUMPDEST DUP2 DUP2 SUB PUSH1 0x60 DUP4 ADD MSTORE PUSH2 0x47EB DUP2 DUP5 PUSH2 0x4771 JUMP JUMPDEST SWAP1 POP SWAP6 SWAP5 POP POP POP POP POP JUMP JUMPDEST PUSH1 0x0 DUP2 MLOAD SWAP1 POP PUSH2 0x4805 DUP2 PUSH2 0x336C JUMP JUMPDEST SWAP3 SWAP2 POP POP JUMP JUMPDEST PUSH1 0x0 PUSH1 0x20 DUP3 DUP5 SUB SLT ISZERO PUSH2 0x4821 JUMPI PUSH2 0x4820 PUSH2 0x3336 JUMP JUMPDEST JUMPDEST PUSH1 0x0 PUSH2 0x482F DUP5 DUP3 DUP6 ADD PUSH2 0x47F6 JUMP JUMPDEST SWAP2 POP POP SWAP3 SWAP2 POP POP JUMP JUMPDEST PUSH1 0x0 PUSH2 0x4844 DUP3 DUP6 PUSH2 0x4502 JUMP JUMPDEST SWAP2 POP PUSH2 0x4850 DUP3 DUP5 PUSH2 0x4502 JUMP JUMPDEST SWAP2 POP DUP2 SWAP1 POP SWAP4 SWAP3 POP POP POP JUMP JUMPDEST PUSH32 0x416363657373436F6E74726F6C3A206163636F756E7420000000000000000000 PUSH1 0x0 DUP3 ADD MSTORE POP JUMP JUMPDEST PUSH1 0x0 PUSH2 0x4892 PUSH1 0x17 DUP4 PUSH2 0x44F7 JUMP JUMPDEST SWAP2 POP PUSH2 0x489D DUP3 PUSH2 0x485C JUMP JUMPDEST PUSH1 0x17 DUP3 ADD SWAP1 POP SWAP2 SWAP1 POP JUMP JUMPDEST PUSH32 0x206973206D697373696E6720726F6C6520000000000000000000000000000000 PUSH1 0x0 DUP3 ADD MSTORE POP JUMP JUMPDEST PUSH1 0x0 PUSH2 0x48DE PUSH1 0x11 DUP4 PUSH2 0x44F7 JUMP JUMPDEST SWAP2 POP PUSH2 0x48E9 DUP3 PUSH2 0x48A8 JUMP JUMPDEST PUSH1 0x11 DUP3 ADD SWAP1 POP SWAP2 SWAP1 POP JUMP JUMPDEST PUSH1 0x0 PUSH2 0x48FF DUP3 PUSH2 0x4885 JUMP JUMPDEST SWAP2 POP PUSH2 0x490B DUP3 DUP6 PUSH2 0x4502 JUMP JUMPDEST SWAP2 POP PUSH2 0x4916 DUP3 PUSH2 0x48D1 JUMP JUMPDEST SWAP2 POP PUSH2 0x4922 DUP3 DUP5 PUSH2 0x4502 JUMP JUMPDEST SWAP2 POP DUP2 SWAP1 POP SWAP4 SWAP3 POP POP POP JUMP JUMPDEST PUSH1 0x0 PUSH2 0x4939 DUP3 PUSH2 0x350F JUMP JUMPDEST SWAP2 POP PUSH1 0x0 DUP3 EQ ISZERO PUSH2 0x494D JUMPI PUSH2 0x494C PUSH2 0x3FF3 JUMP JUMPDEST JUMPDEST PUSH1 0x1 DUP3 SUB SWAP1 POP SWAP2 SWAP1 POP JUMP JUMPDEST PUSH32 0x537472696E67733A20686578206C656E67746820696E73756666696369656E74 PUSH1 0x0 DUP3 ADD MSTORE POP JUMP JUMPDEST PUSH1 0x0 PUSH2 0x498E PUSH1 0x20 DUP4 PUSH2 0x345F JUMP JUMPDEST SWAP2 POP PUSH2 0x4999 DUP3 PUSH2 0x4958 JUMP JUMPDEST PUSH1 0x20 DUP3 ADD SWAP1 POP SWAP2 SWAP1 POP JUMP JUMPDEST PUSH1 0x0 PUSH1 0x20 DUP3 ADD SWAP1 POP DUP2 DUP2 SUB PUSH1 0x0 DUP4 ADD MSTORE PUSH2 0x49BD DUP2 PUSH2 0x4981 JUMP JUMPDEST SWAP1 POP SWAP2 SWAP1 POP JUMP INVALID LOG2 PUSH5 0x6970667358 0x22 SLT KECCAK256 LOG3 0xB3 0xDE PUSH6 0x1C29558552CE PUSH16 0xCF5AABA702E3D2E7D1C069A15757A21A 0xDF 0xB5 TIMESTAMP EQ 0xE0 PUSH5 0x736F6C6343 STOP ADDMOD MULMOD STOP CALLER "
		},
		"gasEstimates": {
			"creation": {
				"codeDepositCost": "3787600",
				"executionCost": "infinite",
				"totalCost": "infinite"
			},
			"external": {
				"AIRDROP_ROLE()": "419",
				"DEFAULT_ADMIN_ROLE()": "446",
				"airdropMint(address[],uint256[])": "infinite",
				"approve(address,uint256)": "infinite",
				"balanceOf(address)": "3040",
				"baseExtension()": "infinite",
				"baseURI()": "infinite",
				"cost()": "2586",
				"devMint(uint256,string)": "infinite",
				"getApproved(uint256)": "7434",
				"getRoleAdmin(bytes32)": "infinite",
				"grantRole(bytes32,address)": "infinite",
				"hasRole(bytes32,address)": "3296",
				"interfaceOfTokenURI()": "infinite",
				"isApprovedForAll(address,address)": "infinite",
				"maxMintAmountPerTransaction()": "2562",
				"maxSupply()": "2540",
				"mint(uint256)": "infinite",
				"mintCount()": "2588",
				"name()": "infinite",
				"owner()": "2634",
				"ownerOf(uint256)": "infinite",
				"pause(bool)": "27012",
				"paused()": "2538",
				"publicSaleMintedAmount(address)": "2969",
				"renounceOwnership()": "30444",
				"renounceRole(bytes32,address)": "infinite",
				"revokeRole(bytes32,address)": "infinite",
				"safeTransferFrom(address,address,uint256)": "infinite",
				"safeTransferFrom(address,address,uint256,bytes)": "infinite",
				"setApprovalForAll(address,bool)": "infinite",
				"setBaseExtension(string)": "infinite",
				"setBaseURI(string)": "infinite",
				"setCost(uint256)": "24940",
				"setInterfaceOfTokenURI(address)": "27120",
				"setMaxMintAmountPerTransaction(uint256)": "24829",
				"setMaxSupply(uint256)": "24917",
				"setMintCount(bool)": "27127",
				"setUseInterfaceMetadata(bool)": "27103",
				"supportsInterface(bytes4)": "817",
				"symbol()": "infinite",
				"tokenURI(uint256)": "infinite",
				"tokensOfOwner(address)": "infinite",
				"totalSupply()": "4652",
				"transferFrom(address,address,uint256)": "infinite",
				"transferOwnership(address)": "30879",
				"useInterfaceMetadata()": "2632",
				"withdrawAddress()": "424",
				"withdrawMoney()": "infinite"
			},
			"internal": {
				"_baseURI()": "infinite",
				"_startTokenId()": "23"
			}
		},
		"methodIdentifiers": {
			"AIRDROP_ROLE()": "1e0fbfa2",
			"DEFAULT_ADMIN_ROLE()": "a217fddf",
			"airdropMint(address[],uint256[])": "279a669e",
			"approve(address,uint256)": "095ea7b3",
			"balanceOf(address)": "70a08231",
			"baseExtension()": "c6682862",
			"baseURI()": "6c0360eb",
			"cost()": "13faede6",
			"devMint(uint256,string)": "253b1529",
			"getApproved(uint256)": "081812fc",
			"getRoleAdmin(bytes32)": "248a9ca3",
			"grantRole(bytes32,address)": "2f2ff15d",
			"hasRole(bytes32,address)": "91d14854",
			"interfaceOfTokenURI()": "877984cb",
			"isApprovedForAll(address,address)": "e985e9c5",
			"maxMintAmountPerTransaction()": "bbb89744",
			"maxSupply()": "d5abeb01",
			"mint(uint256)": "a0712d68",
			"mintCount()": "9659867e",
			"name()": "06fdde03",
			"owner()": "8da5cb5b",
			"ownerOf(uint256)": "6352211e",
			"pause(bool)": "02329a29",
			"paused()": "5c975abb",
			"publicSaleMintedAmount(address)": "a58c12ae",
			"renounceOwnership()": "715018a6",
			"renounceRole(bytes32,address)": "36568abe",
			"revokeRole(bytes32,address)": "d547741f",
			"safeTransferFrom(address,address,uint256)": "42842e0e",
			"safeTransferFrom(address,address,uint256,bytes)": "b88d4fde",
			"setApprovalForAll(address,bool)": "a22cb465",
			"setBaseExtension(string)": "da3ef23f",
			"setBaseURI(string)": "55f804b3",
			"setCost(uint256)": "44a0d68a",
			"setInterfaceOfTokenURI(address)": "23c03085",
			"setMaxMintAmountPerTransaction(uint256)": "a9e2acd5",
			"setMaxSupply(uint256)": "6f8b44b0",
			"setMintCount(bool)": "8e73cf00",
			"setUseInterfaceMetadata(bool)": "f138abfa",
			"supportsInterface(bytes4)": "01ffc9a7",
			"symbol()": "95d89b41",
			"tokenURI(uint256)": "c87b56dd",
			"tokensOfOwner(address)": "8462151c",
			"totalSupply()": "18160ddd",
			"transferFrom(address,address,uint256)": "23b872dd",
			"transferOwnership(address)": "f2fde38b",
			"useInterfaceMetadata()": "ba6269c6",
			"withdrawAddress()": "1581b600",
			"withdrawMoney()": "ac446002"
		}
	},
	"abi": [
		{
			"inputs": [],
			"stateMutability": "nonpayable",
			"type": "constructor"
		},
		{
			"inputs": [],
			"name": "ApprovalCallerNotOwnerNorApproved",
			"type": "error"
		},
		{
			"inputs": [],
			"name": "ApprovalQueryForNonexistentToken",
			"type": "error"
		},
		{
			"inputs": [],
			"name": "BalanceQueryForZeroAddress",
			"type": "error"
		},
		{
			"inputs": [],
			"name": "MintERC2309QuantityExceedsLimit",
			"type": "error"
		},
		{
			"inputs": [],
			"name": "MintToZeroAddress",
			"type": "error"
		},
		{
			"inputs": [],
			"name": "MintZeroQuantity",
			"type": "error"
		},
		{
			"inputs": [],
			"name": "OwnerQueryForNonexistentToken",
			"type": "error"
		},
		{
			"inputs": [],
			"name": "OwnershipNotInitializedForExtraData",
			"type": "error"
		},
		{
			"inputs": [],
			"name": "TransferCallerNotOwnerNorApproved",
			"type": "error"
		},
		{
			"inputs": [],
			"name": "TransferFromIncorrectOwner",
			"type": "error"
		},
		{
			"inputs": [],
			"name": "TransferToNonERC721ReceiverImplementer",
			"type": "error"
		},
		{
			"inputs": [],
			"name": "TransferToZeroAddress",
			"type": "error"
		},
		{
			"inputs": [],
			"name": "URIQueryForNonexistentToken",
			"type": "error"
		},
		{
			"anonymous": false,
			"inputs": [
				{
					"indexed": true,
					"internalType": "address",
					"name": "owner",
					"type": "address"
				},
				{
					"indexed": true,
					"internalType": "address",
					"name": "approved",
					"type": "address"
				},
				{
					"indexed": true,
					"internalType": "uint256",
					"name": "tokenId",
					"type": "uint256"
				}
			],
			"name": "Approval",
			"type": "event"
		},
		{
			"anonymous": false,
			"inputs": [
				{
					"indexed": true,
					"internalType": "address",
					"name": "owner",
					"type": "address"
				},
				{
					"indexed": true,
					"internalType": "address",
					"name": "operator",
					"type": "address"
				},
				{
					"indexed": false,
					"internalType": "bool",
					"name": "approved",
					"type": "bool"
				}
			],
			"name": "ApprovalForAll",
			"type": "event"
		},
		{
			"anonymous": false,
			"inputs": [
				{
					"indexed": true,
					"internalType": "uint256",
					"name": "fromTokenId",
					"type": "uint256"
				},
				{
					"indexed": false,
					"internalType": "uint256",
					"name": "toTokenId",
					"type": "uint256"
				},
				{
					"indexed": true,
					"internalType": "address",
					"name": "from",
					"type": "address"
				},
				{
					"indexed": true,
					"internalType": "address",
					"name": "to",
					"type": "address"
				}
			],
			"name": "ConsecutiveTransfer",
			"type": "event"
		},
		{
			"anonymous": false,
			"inputs": [
				{
					"indexed": true,
					"internalType": "address",
					"name": "previousOwner",
					"type": "address"
				},
				{
					"indexed": true,
					"internalType": "address",
					"name": "newOwner",
					"type": "address"
				}
			],
			"name": "OwnershipTransferred",
			"type": "event"
		},
		{
			"anonymous": false,
			"inputs": [
				{
					"indexed": true,
					"internalType": "bytes32",
					"name": "role",
					"type": "bytes32"
				},
				{
					"indexed": true,
					"internalType": "bytes32",
					"name": "previousAdminRole",
					"type": "bytes32"
				},
				{
					"indexed": true,
					"internalType": "bytes32",
					"name": "newAdminRole",
					"type": "bytes32"
				}
			],
			"name": "RoleAdminChanged",
			"type": "event"
		},
		{
			"anonymous": false,
			"inputs": [
				{
					"indexed": true,
					"internalType": "bytes32",
					"name": "role",
					"type": "bytes32"
				},
				{
					"indexed": true,
					"internalType": "address",
					"name": "account",
					"type": "address"
				},
				{
					"indexed": true,
					"internalType": "address",
					"name": "sender",
					"type": "address"
				}
			],
			"name": "RoleGranted",
			"type": "event"
		},
		{
			"anonymous": false,
			"inputs": [
				{
					"indexed": true,
					"internalType": "bytes32",
					"name": "role",
					"type": "bytes32"
				},
				{
					"indexed": true,
					"internalType": "address",
					"name": "account",
					"type": "address"
				},
				{
					"indexed": true,
					"internalType": "address",
					"name": "sender",
					"type": "address"
				}
			],
			"name": "RoleRevoked",
			"type": "event"
		},
		{
			"anonymous": false,
			"inputs": [
				{
					"indexed": true,
					"internalType": "address",
					"name": "from",
					"type": "address"
				},
				{
					"indexed": true,
					"internalType": "address",
					"name": "to",
					"type": "address"
				},
				{
					"indexed": true,
					"internalType": "uint256",
					"name": "tokenId",
					"type": "uint256"
				}
			],
			"name": "Transfer",
			"type": "event"
		},
		{
			"inputs": [],
			"name": "AIRDROP_ROLE",
			"outputs": [
				{
					"internalType": "bytes32",
					"name": "",
					"type": "bytes32"
				}
			],
			"stateMutability": "view",
			"type": "function"
		},
		{
			"inputs": [],
			"name": "DEFAULT_ADMIN_ROLE",
			"outputs": [
				{
					"internalType": "bytes32",
					"name": "",
					"type": "bytes32"
				}
			],
			"stateMutability": "view",
			"type": "function"
		},
		{
			"inputs": [
				{
					"internalType": "address[]",
					"name": "_airdropAddresses",
					"type": "address[]"
				},
				{
					"internalType": "uint256[]",
					"name": "_UserMintAmount",
					"type": "uint256[]"
				}
			],
			"name": "airdropMint",
			"outputs": [],
			"stateMutability": "nonpayable",
			"type": "function"
		},
		{
			"inputs": [
				{
					"internalType": "address",
					"name": "to",
					"type": "address"
				},
				{
					"internalType": "uint256",
					"name": "tokenId",
					"type": "uint256"
				}
			],
			"name": "approve",
			"outputs": [],
			"stateMutability": "payable",
			"type": "function"
		},
		{
			"inputs": [
				{
					"internalType": "address",
					"name": "owner",
					"type": "address"
				}
			],
			"name": "balanceOf",
			"outputs": [
				{
					"internalType": "uint256",
					"name": "",
					"type": "uint256"
				}
			],
			"stateMutability": "view",
			"type": "function"
		},
		{
			"inputs": [],
			"name": "baseExtension",
			"outputs": [
				{
					"internalType": "string",
					"name": "",
					"type": "string"
				}
			],
			"stateMutability": "view",
			"type": "function"
		},
		{
			"inputs": [],
			"name": "baseURI",
			"outputs": [
				{
					"internalType": "string",
					"name": "",
					"type": "string"
				}
			],
			"stateMutability": "view",
			"type": "function"
		},
		{
			"inputs": [],
			"name": "cost",
			"outputs": [
				{
					"internalType": "uint256",
					"name": "",
					"type": "uint256"
				}
			],
			"stateMutability": "view",
			"type": "function"
		},
		{
			"inputs": [
				{
					"internalType": "uint256",
					"name": "_mintAmount",
					"type": "uint256"
				},
				{
					"internalType": "string",
					"name": "_newBaseURI",
					"type": "string"
				}
			],
			"name": "devMint",
			"outputs": [],
			"stateMutability": "nonpayable",
			"type": "function"
		},
		{
			"inputs": [
				{
					"internalType": "uint256",
					"name": "tokenId",
					"type": "uint256"
				}
			],
			"name": "getApproved",
			"outputs": [
				{
					"internalType": "address",
					"name": "",
					"type": "address"
				}
			],
			"stateMutability": "view",
			"type": "function"
		},
		{
			"inputs": [
				{
					"internalType": "bytes32",
					"name": "role",
					"type": "bytes32"
				}
			],
			"name": "getRoleAdmin",
			"outputs": [
				{
					"internalType": "bytes32",
					"name": "",
					"type": "bytes32"
				}
			],
			"stateMutability": "view",
			"type": "function"
		},
		{
			"inputs": [
				{
					"internalType": "bytes32",
					"name": "role",
					"type": "bytes32"
				},
				{
					"internalType": "address",
					"name": "account",
					"type": "address"
				}
			],
			"name": "grantRole",
			"outputs": [],
			"stateMutability": "nonpayable",
			"type": "function"
		},
		{
			"inputs": [
				{
					"internalType": "bytes32",
					"name": "role",
					"type": "bytes32"
				},
				{
					"internalType": "address",
					"name": "account",
					"type": "address"
				}
			],
			"name": "hasRole",
			"outputs": [
				{
					"internalType": "bool",
					"name": "",
					"type": "bool"
				}
			],
			"stateMutability": "view",
			"type": "function"
		},
		{
			"inputs": [],
			"name": "interfaceOfTokenURI",
			"outputs": [
				{
					"internalType": "contract iTokenURI",
					"name": "",
					"type": "address"
				}
			],
			"stateMutability": "view",
			"type": "function"
		},
		{
			"inputs": [
				{
					"internalType": "address",
					"name": "owner",
					"type": "address"
				},
				{
					"internalType": "address",
					"name": "operator",
					"type": "address"
				}
			],
			"name": "isApprovedForAll",
			"outputs": [
				{
					"internalType": "bool",
					"name": "",
					"type": "bool"
				}
			],
			"stateMutability": "view",
			"type": "function"
		},
		{
			"inputs": [],
			"name": "maxMintAmountPerTransaction",
			"outputs": [
				{
					"internalType": "uint256",
					"name": "",
					"type": "uint256"
				}
			],
			"stateMutability": "view",
			"type": "function"
		},
		{
			"inputs": [],
			"name": "maxSupply",
			"outputs": [
				{
					"internalType": "uint256",
					"name": "",
					"type": "uint256"
				}
			],
			"stateMutability": "view",
			"type": "function"
		},
		{
			"inputs": [
				{
					"internalType": "uint256",
					"name": "_mintAmount",
					"type": "uint256"
				}
			],
			"name": "mint",
			"outputs": [],
			"stateMutability": "payable",
			"type": "function"
		},
		{
			"inputs": [],
			"name": "mintCount",
			"outputs": [
				{
					"internalType": "bool",
					"name": "",
					"type": "bool"
				}
			],
			"stateMutability": "view",
			"type": "function"
		},
		{
			"inputs": [],
			"name": "name",
			"outputs": [
				{
					"internalType": "string",
					"name": "",
					"type": "string"
				}
			],
			"stateMutability": "view",
			"type": "function"
		},
		{
			"inputs": [],
			"name": "owner",
			"outputs": [
				{
					"internalType": "address",
					"name": "",
					"type": "address"
				}
			],
			"stateMutability": "view",
			"type": "function"
		},
		{
			"inputs": [
				{
					"internalType": "uint256",
					"name": "tokenId",
					"type": "uint256"
				}
			],
			"name": "ownerOf",
			"outputs": [
				{
					"internalType": "address",
					"name": "",
					"type": "address"
				}
			],
			"stateMutability": "view",
			"type": "function"
		},
		{
			"inputs": [
				{
					"internalType": "bool",
					"name": "_state",
					"type": "bool"
				}
			],
			"name": "pause",
			"outputs": [],
			"stateMutability": "nonpayable",
			"type": "function"
		},
		{
			"inputs": [],
			"name": "paused",
			"outputs": [
				{
					"internalType": "bool",
					"name": "",
					"type": "bool"
				}
			],
			"stateMutability": "view",
			"type": "function"
		},
		{
			"inputs": [
				{
					"internalType": "address",
					"name": "",
					"type": "address"
				}
			],
			"name": "publicSaleMintedAmount",
			"outputs": [
				{
					"internalType": "uint256",
					"name": "",
					"type": "uint256"
				}
			],
			"stateMutability": "view",
			"type": "function"
		},
		{
			"inputs": [],
			"name": "renounceOwnership",
			"outputs": [],
			"stateMutability": "nonpayable",
			"type": "function"
		},
		{
			"inputs": [
				{
					"internalType": "bytes32",
					"name": "role",
					"type": "bytes32"
				},
				{
					"internalType": "address",
					"name": "account",
					"type": "address"
				}
			],
			"name": "renounceRole",
			"outputs": [],
			"stateMutability": "nonpayable",
			"type": "function"
		},
		{
			"inputs": [
				{
					"internalType": "bytes32",
					"name": "role",
					"type": "bytes32"
				},
				{
					"internalType": "address",
					"name": "account",
					"type": "address"
				}
			],
			"name": "revokeRole",
			"outputs": [],
			"stateMutability": "nonpayable",
			"type": "function"
		},
		{
			"inputs": [
				{
					"internalType": "address",
					"name": "from",
					"type": "address"
				},
				{
					"internalType": "address",
					"name": "to",
					"type": "address"
				},
				{
					"internalType": "uint256",
					"name": "tokenId",
					"type": "uint256"
				}
			],
			"name": "safeTransferFrom",
			"outputs": [],
			"stateMutability": "payable",
			"type": "function"
		},
		{
			"inputs": [
				{
					"internalType": "address",
					"name": "from",
					"type": "address"
				},
				{
					"internalType": "address",
					"name": "to",
					"type": "address"
				},
				{
					"internalType": "uint256",
					"name": "tokenId",
					"type": "uint256"
				},
				{
					"internalType": "bytes",
					"name": "_data",
					"type": "bytes"
				}
			],
			"name": "safeTransferFrom",
			"outputs": [],
			"stateMutability": "payable",
			"type": "function"
		},
		{
			"inputs": [
				{
					"internalType": "address",
					"name": "operator",
					"type": "address"
				},
				{
					"internalType": "bool",
					"name": "approved",
					"type": "bool"
				}
			],
			"name": "setApprovalForAll",
			"outputs": [],
			"stateMutability": "nonpayable",
			"type": "function"
		},
		{
			"inputs": [
				{
					"internalType": "string",
					"name": "_newBaseExtension",
					"type": "string"
				}
			],
			"name": "setBaseExtension",
			"outputs": [],
			"stateMutability": "nonpayable",
			"type": "function"
		},
		{
			"inputs": [
				{
					"internalType": "string",
					"name": "_newBaseURI",
					"type": "string"
				}
			],
			"name": "setBaseURI",
			"outputs": [],
			"stateMutability": "nonpayable",
			"type": "function"
		},
		{
			"inputs": [
				{
					"internalType": "uint256",
					"name": "_newCost",
					"type": "uint256"
				}
			],
			"name": "setCost",
			"outputs": [],
			"stateMutability": "nonpayable",
			"type": "function"
		},
		{
			"inputs": [
				{
					"internalType": "address",
					"name": "_address",
					"type": "address"
				}
			],
			"name": "setInterfaceOfTokenURI",
			"outputs": [],
			"stateMutability": "nonpayable",
			"type": "function"
		},
		{
			"inputs": [
				{
					"internalType": "uint256",
					"name": "_maxMintAmountPerTransaction",
					"type": "uint256"
				}
			],
			"name": "setMaxMintAmountPerTransaction",
			"outputs": [],
			"stateMutability": "nonpayable",
			"type": "function"
		},
		{
			"inputs": [
				{
					"internalType": "uint256",
					"name": "_maxSupply",
					"type": "uint256"
				}
			],
			"name": "setMaxSupply",
			"outputs": [],
			"stateMutability": "nonpayable",
			"type": "function"
		},
		{
			"inputs": [
				{
					"internalType": "bool",
					"name": "_state",
					"type": "bool"
				}
			],
			"name": "setMintCount",
			"outputs": [],
			"stateMutability": "nonpayable",
			"type": "function"
		},
		{
			"inputs": [
				{
					"internalType": "bool",
					"name": "_useInterfaceMetadata",
					"type": "bool"
				}
			],
			"name": "setUseInterfaceMetadata",
			"outputs": [],
			"stateMutability": "nonpayable",
			"type": "function"
		},
		{
			"inputs": [
				{
					"internalType": "bytes4",
					"name": "interfaceId",
					"type": "bytes4"
				}
			],
			"name": "supportsInterface",
			"outputs": [
				{
					"internalType": "bool",
					"name": "",
					"type": "bool"
				}
			],
			"stateMutability": "view",
			"type": "function"
		},
		{
			"inputs": [],
			"name": "symbol",
			"outputs": [
				{
					"internalType": "string",
					"name": "",
					"type": "string"
				}
			],
			"stateMutability": "view",
			"type": "function"
		},
		{
			"inputs": [
				{
					"internalType": "uint256",
					"name": "tokenId",
					"type": "uint256"
				}
			],
			"name": "tokenURI",
			"outputs": [
				{
					"internalType": "string",
					"name": "",
					"type": "string"
				}
			],
			"stateMutability": "view",
			"type": "function"
		},
		{
			"inputs": [
				{
					"internalType": "address",
					"name": "owner",
					"type": "address"
				}
			],
			"name": "tokensOfOwner",
			"outputs": [
				{
					"internalType": "uint256[]",
					"name": "",
					"type": "uint256[]"
				}
			],
			"stateMutability": "view",
			"type": "function"
		},
		{
			"inputs": [],
			"name": "totalSupply",
			"outputs": [
				{
					"internalType": "uint256",
					"name": "",
					"type": "uint256"
				}
			],
			"stateMutability": "view",
			"type": "function"
		},
		{
			"inputs": [
				{
					"internalType": "address",
					"name": "from",
					"type": "address"
				},
				{
					"internalType": "address",
					"name": "to",
					"type": "address"
				},
				{
					"internalType": "uint256",
					"name": "tokenId",
					"type": "uint256"
				}
			],
			"name": "transferFrom",
			"outputs": [],
			"stateMutability": "payable",
			"type": "function"
		},
		{
			"inputs": [
				{
					"internalType": "address",
					"name": "newOwner",
					"type": "address"
				}
			],
			"name": "transferOwnership",
			"outputs": [],
			"stateMutability": "nonpayable",
			"type": "function"
		},
		{
			"inputs": [],
			"name": "useInterfaceMetadata",
			"outputs": [
				{
					"internalType": "bool",
					"name": "",
					"type": "bool"
				}
			],
			"stateMutability": "view",
			"type": "function"
		},
		{
			"inputs": [],
			"name": "withdrawAddress",
			"outputs": [
				{
					"internalType": "address",
					"name": "",
					"type": "address"
				}
			],
			"stateMutability": "view",
			"type": "function"
		},
		{
			"inputs": [],
			"name": "withdrawMoney",
			"outputs": [],
			"stateMutability": "nonpayable",
			"type": "function"
		}
	]
}