{
	"Objectron/OperatorFilterRegistry.sol": {
		"OperatorFilterRegistry": {
			"abi": [
				{
					"inputs": [
						{
							"internalType": "address",
							"name": "operator",
							"type": "address"
						}
					],
					"name": "AddressAlreadyFiltered",
					"type": "error"
				},
				{
					"inputs": [
						{
							"internalType": "address",
							"name": "filtered",
							"type": "address"
						}
					],
					"name": "AddressFiltered",
					"type": "error"
				},
				{
					"inputs": [
						{
							"internalType": "address",
							"name": "operator",
							"type": "address"
						}
					],
					"name": "AddressNotFiltered",
					"type": "error"
				},
				{
					"inputs": [],
					"name": "AlreadyRegistered",
					"type": "error"
				},
				{
					"inputs": [
						{
							"internalType": "address",
							"name": "subscription",
							"type": "address"
						}
					],
					"name": "AlreadySubscribed",
					"type": "error"
				},
				{
					"inputs": [],
					"name": "CannotCopyFromSelf",
					"type": "error"
				},
				{
					"inputs": [],
					"name": "CannotFilterEOAs",
					"type": "error"
				},
				{
					"inputs": [
						{
							"internalType": "address",
							"name": "registrant",
							"type": "address"
						}
					],
					"name": "CannotSubscribeToRegistrantWithSubscription",
					"type": "error"
				},
				{
					"inputs": [],
					"name": "CannotSubscribeToSelf",
					"type": "error"
				},
				{
					"inputs": [],
					"name": "CannotSubscribeToZeroAddress",
					"type": "error"
				},
				{
					"inputs": [
						{
							"internalType": "address",
							"name": "subscription",
							"type": "address"
						}
					],
					"name": "CannotUpdateWhileSubscribed",
					"type": "error"
				},
				{
					"inputs": [
						{
							"internalType": "bytes32",
							"name": "codeHash",
							"type": "bytes32"
						}
					],
					"name": "CodeHashAlreadyFiltered",
					"type": "error"
				},
				{
					"inputs": [
						{
							"internalType": "address",
							"name": "account",
							"type": "address"
						},
						{
							"internalType": "bytes32",
							"name": "codeHash",
							"type": "bytes32"
						}
					],
					"name": "CodeHashFiltered",
					"type": "error"
				},
				{
					"inputs": [
						{
							"internalType": "bytes32",
							"name": "codeHash",
							"type": "bytes32"
						}
					],
					"name": "CodeHashNotFiltered",
					"type": "error"
				},
				{
					"inputs": [],
					"name": "NotOwnable",
					"type": "error"
				},
				{
					"inputs": [
						{
							"internalType": "address",
							"name": "registrant",
							"type": "address"
						}
					],
					"name": "NotRegistered",
					"type": "error"
				},
				{
					"inputs": [],
					"name": "NotSubscribed",
					"type": "error"
				},
				{
					"inputs": [],
					"name": "OnlyAddressOrOwner",
					"type": "error"
				},
				{
					"anonymous": false,
					"inputs": [
						{
							"indexed": true,
							"internalType": "address",
							"name": "registrant",
							"type": "address"
						},
						{
							"indexed": true,
							"internalType": "bytes32",
							"name": "codeHash",
							"type": "bytes32"
						},
						{
							"indexed": true,
							"internalType": "bool",
							"name": "filtered",
							"type": "bool"
						}
					],
					"name": "CodeHashUpdated",
					"type": "event"
				},
				{
					"anonymous": false,
					"inputs": [
						{
							"indexed": true,
							"internalType": "address",
							"name": "registrant",
							"type": "address"
						},
						{
							"indexed": false,
							"internalType": "bytes32[]",
							"name": "codeHashes",
							"type": "bytes32[]"
						},
						{
							"indexed": true,
							"internalType": "bool",
							"name": "filtered",
							"type": "bool"
						}
					],
					"name": "CodeHashesUpdated",
					"type": "event"
				},
				{
					"anonymous": false,
					"inputs": [
						{
							"indexed": true,
							"internalType": "address",
							"name": "registrant",
							"type": "address"
						},
						{
							"indexed": true,
							"internalType": "address",
							"name": "operator",
							"type": "address"
						},
						{
							"indexed": true,
							"internalType": "bool",
							"name": "filtered",
							"type": "bool"
						}
					],
					"name": "OperatorUpdated",
					"type": "event"
				},
				{
					"anonymous": false,
					"inputs": [
						{
							"indexed": true,
							"internalType": "address",
							"name": "registrant",
							"type": "address"
						},
						{
							"indexed": false,
							"internalType": "address[]",
							"name": "operators",
							"type": "address[]"
						},
						{
							"indexed": true,
							"internalType": "bool",
							"name": "filtered",
							"type": "bool"
						}
					],
					"name": "OperatorsUpdated",
					"type": "event"
				},
				{
					"anonymous": false,
					"inputs": [
						{
							"indexed": true,
							"internalType": "address",
							"name": "registrant",
							"type": "address"
						},
						{
							"indexed": true,
							"internalType": "bool",
							"name": "registered",
							"type": "bool"
						}
					],
					"name": "RegistrationUpdated",
					"type": "event"
				},
				{
					"anonymous": false,
					"inputs": [
						{
							"indexed": true,
							"internalType": "address",
							"name": "registrant",
							"type": "address"
						},
						{
							"indexed": true,
							"internalType": "address",
							"name": "subscription",
							"type": "address"
						},
						{
							"indexed": true,
							"internalType": "bool",
							"name": "subscribed",
							"type": "bool"
						}
					],
					"name": "SubscriptionUpdated",
					"type": "event"
				},
				{
					"inputs": [
						{
							"internalType": "address",
							"name": "a",
							"type": "address"
						}
					],
					"name": "codeHashOf",
					"outputs": [
						{
							"internalType": "bytes32",
							"name": "",
							"type": "bytes32"
						}
					],
					"stateMutability": "view",
					"type": "function"
				},
				{
					"inputs": [
						{
							"internalType": "address",
							"name": "registrant",
							"type": "address"
						},
						{
							"internalType": "address",
							"name": "registrantToCopy",
							"type": "address"
						}
					],
					"name": "copyEntriesOf",
					"outputs": [],
					"stateMutability": "nonpayable",
					"type": "function"
				},
				{
					"inputs": [
						{
							"internalType": "address",
							"name": "registrant",
							"type": "address"
						},
						{
							"internalType": "uint256",
							"name": "index",
							"type": "uint256"
						}
					],
					"name": "filteredCodeHashAt",
					"outputs": [
						{
							"internalType": "bytes32",
							"name": "",
							"type": "bytes32"
						}
					],
					"stateMutability": "view",
					"type": "function"
				},
				{
					"inputs": [
						{
							"internalType": "address",
							"name": "registrant",
							"type": "address"
						}
					],
					"name": "filteredCodeHashes",
					"outputs": [
						{
							"internalType": "bytes32[]",
							"name": "",
							"type": "bytes32[]"
						}
					],
					"stateMutability": "view",
					"type": "function"
				},
				{
					"inputs": [
						{
							"internalType": "address",
							"name": "registrant",
							"type": "address"
						},
						{
							"internalType": "uint256",
							"name": "index",
							"type": "uint256"
						}
					],
					"name": "filteredOperatorAt",
					"outputs": [
						{
							"internalType": "address",
							"name": "",
							"type": "address"
						}
					],
					"stateMutability": "view",
					"type": "function"
				},
				{
					"inputs": [
						{
							"internalType": "address",
							"name": "registrant",
							"type": "address"
						}
					],
					"name": "filteredOperators",
					"outputs": [
						{
							"internalType": "address[]",
							"name": "",
							"type": "address[]"
						}
					],
					"stateMutability": "view",
					"type": "function"
				},
				{
					"inputs": [
						{
							"internalType": "address",
							"name": "registrant",
							"type": "address"
						},
						{
							"internalType": "bytes32",
							"name": "codeHash",
							"type": "bytes32"
						}
					],
					"name": "isCodeHashFiltered",
					"outputs": [
						{
							"internalType": "bool",
							"name": "",
							"type": "bool"
						}
					],
					"stateMutability": "view",
					"type": "function"
				},
				{
					"inputs": [
						{
							"internalType": "address",
							"name": "registrant",
							"type": "address"
						},
						{
							"internalType": "address",
							"name": "operatorWithCode",
							"type": "address"
						}
					],
					"name": "isCodeHashOfFiltered",
					"outputs": [
						{
							"internalType": "bool",
							"name": "",
							"type": "bool"
						}
					],
					"stateMutability": "view",
					"type": "function"
				},
				{
					"inputs": [
						{
							"internalType": "address",
							"name": "registrant",
							"type": "address"
						},
						{
							"internalType": "address",
							"name": "operator",
							"type": "address"
						}
					],
					"name": "isOperatorAllowed",
					"outputs": [
						{
							"internalType": "bool",
							"name": "",
							"type": "bool"
						}
					],
					"stateMutability": "view",
					"type": "function"
				},
				{
					"inputs": [
						{
							"internalType": "address",
							"name": "registrant",
							"type": "address"
						},
						{
							"internalType": "address",
							"name": "operator",
							"type": "address"
						}
					],
					"name": "isOperatorFiltered",
					"outputs": [
						{
							"internalType": "bool",
							"name": "",
							"type": "bool"
						}
					],
					"stateMutability": "view",
					"type": "function"
				},
				{
					"inputs": [
						{
							"internalType": "address",
							"name": "registrant",
							"type": "address"
						}
					],
					"name": "isRegistered",
					"outputs": [
						{
							"internalType": "bool",
							"name": "",
							"type": "bool"
						}
					],
					"stateMutability": "view",
					"type": "function"
				},
				{
					"inputs": [
						{
							"internalType": "address",
							"name": "registrant",
							"type": "address"
						}
					],
					"name": "register",
					"outputs": [],
					"stateMutability": "nonpayable",
					"type": "function"
				},
				{
					"inputs": [
						{
							"internalType": "address",
							"name": "registrant",
							"type": "address"
						},
						{
							"internalType": "address",
							"name": "registrantToCopy",
							"type": "address"
						}
					],
					"name": "registerAndCopyEntries",
					"outputs": [],
					"stateMutability": "nonpayable",
					"type": "function"
				},
				{
					"inputs": [
						{
							"internalType": "address",
							"name": "registrant",
							"type": "address"
						},
						{
							"internalType": "address",
							"name": "subscription",
							"type": "address"
						}
					],
					"name": "registerAndSubscribe",
					"outputs": [],
					"stateMutability": "nonpayable",
					"type": "function"
				},
				{
					"inputs": [
						{
							"internalType": "address",
							"name": "registrant",
							"type": "address"
						},
						{
							"internalType": "address",
							"name": "newSubscription",
							"type": "address"
						}
					],
					"name": "subscribe",
					"outputs": [],
					"stateMutability": "nonpayable",
					"type": "function"
				},
				{
					"inputs": [
						{
							"internalType": "address",
							"name": "registrant",
							"type": "address"
						},
						{
							"internalType": "uint256",
							"name": "index",
							"type": "uint256"
						}
					],
					"name": "subscriberAt",
					"outputs": [
						{
							"internalType": "address",
							"name": "",
							"type": "address"
						}
					],
					"stateMutability": "view",
					"type": "function"
				},
				{
					"inputs": [
						{
							"internalType": "address",
							"name": "registrant",
							"type": "address"
						}
					],
					"name": "subscribers",
					"outputs": [
						{
							"internalType": "address[]",
							"name": "",
							"type": "address[]"
						}
					],
					"stateMutability": "view",
					"type": "function"
				},
				{
					"inputs": [
						{
							"internalType": "address",
							"name": "registrant",
							"type": "address"
						}
					],
					"name": "subscriptionOf",
					"outputs": [
						{
							"internalType": "address",
							"name": "subscription",
							"type": "address"
						}
					],
					"stateMutability": "view",
					"type": "function"
				},
				{
					"inputs": [
						{
							"internalType": "address",
							"name": "registrant",
							"type": "address"
						}
					],
					"name": "unregister",
					"outputs": [],
					"stateMutability": "nonpayable",
					"type": "function"
				},
				{
					"inputs": [
						{
							"internalType": "address",
							"name": "registrant",
							"type": "address"
						},
						{
							"internalType": "bool",
							"name": "copyExistingEntries",
							"type": "bool"
						}
					],
					"name": "unsubscribe",
					"outputs": [],
					"stateMutability": "nonpayable",
					"type": "function"
				},
				{
					"inputs": [
						{
							"internalType": "address",
							"name": "registrant",
							"type": "address"
						},
						{
							"internalType": "bytes32",
							"name": "codeHash",
							"type": "bytes32"
						},
						{
							"internalType": "bool",
							"name": "filtered",
							"type": "bool"
						}
					],
					"name": "updateCodeHash",
					"outputs": [],
					"stateMutability": "nonpayable",
					"type": "function"
				},
				{
					"inputs": [
						{
							"internalType": "address",
							"name": "registrant",
							"type": "address"
						},
						{
							"internalType": "bytes32[]",
							"name": "codeHashes",
							"type": "bytes32[]"
						},
						{
							"internalType": "bool",
							"name": "filtered",
							"type": "bool"
						}
					],
					"name": "updateCodeHashes",
					"outputs": [],
					"stateMutability": "nonpayable",
					"type": "function"
				},
				{
					"inputs": [
						{
							"internalType": "address",
							"name": "registrant",
							"type": "address"
						},
						{
							"internalType": "address",
							"name": "operator",
							"type": "address"
						},
						{
							"internalType": "bool",
							"name": "filtered",
							"type": "bool"
						}
					],
					"name": "updateOperator",
					"outputs": [],
					"stateMutability": "nonpayable",
					"type": "function"
				},
				{
					"inputs": [
						{
							"internalType": "address",
							"name": "registrant",
							"type": "address"
						},
						{
							"internalType": "address[]",
							"name": "operators",
							"type": "address[]"
						},
						{
							"internalType": "bool",
							"name": "filtered",
							"type": "bool"
						}
					],
					"name": "updateOperators",
					"outputs": [],
					"stateMutability": "nonpayable",
					"type": "function"
				}
			],
			"devdoc": {
				"kind": "dev",
				"methods": {
					"codeHashOf(address)": {
						"details": "Convenience method to compute the code hash of an arbitrary contract"
					}
				},
				"stateVariables": {
					"EOA_CODEHASH": {
						"details": "initialized accounts have a nonzero codehash (see https://eips.ethereum.org/EIPS/eip-1052) Note that this will also be a smart contract's codehash when making calls from its constructor."
					}
				},
				"title": "OperatorFilterRegistry",
				"version": 1
			},
			"evm": {
				"assembly": "    /* \"Objectron/OperatorFilterRegistry.sol\":776:23823  contract OperatorFilterRegistry is IOperatorFilterRegistry, OperatorFilterRegistryErrorsAndEvents {... */\n  mstore(0x40, 0x80)\n  callvalue\n  dup1\n  iszero\n  tag_1\n  jumpi\n  0x00\n  dup1\n  revert\ntag_1:\n  pop\n  dataSize(sub_0)\n  dup1\n  dataOffset(sub_0)\n  0x00\n  codecopy\n  0x00\n  return\nstop\n\nsub_0: assembly {\n        /* \"Objectron/OperatorFilterRegistry.sol\":776:23823  contract OperatorFilterRegistry is IOperatorFilterRegistry, OperatorFilterRegistryErrorsAndEvents {... */\n      mstore(0x40, 0x80)\n      callvalue\n      dup1\n      iszero\n      tag_1\n      jumpi\n      0x00\n      dup1\n      revert\n    tag_1:\n      pop\n      jumpi(tag_2, lt(calldatasize, 0x04))\n      shr(0xe0, calldataload(0x00))\n      dup1\n      0x712fc00b\n      gt\n      tag_27\n      jumpi\n      dup1\n      0xb314d414\n      gt\n      tag_28\n      jumpi\n      dup1\n      0xb314d414\n      eq\n      tag_21\n      jumpi\n      dup1\n      0xbbd652c7\n      eq\n      tag_22\n      jumpi\n      dup1\n      0xc3c5a547\n      eq\n      tag_23\n      jumpi\n      dup1\n      0xc4308805\n      eq\n      tag_24\n      jumpi\n      dup1\n      0xc6171134\n      eq\n      tag_25\n      jumpi\n      dup1\n      0xe4aecb54\n      eq\n      tag_26\n      jumpi\n      jump(tag_2)\n    tag_28:\n      dup1\n      0x712fc00b\n      eq\n      tag_15\n      jumpi\n      dup1\n      0x7d3e3dbe\n      eq\n      tag_16\n      jumpi\n      dup1\n      0xa0af2903\n      eq\n      tag_17\n      jumpi\n      dup1\n      0xa14584c1\n      eq\n      tag_18\n      jumpi\n      dup1\n      0xa2f367ab\n      eq\n      tag_19\n      jumpi\n      dup1\n      0xa6529eb5\n      eq\n      tag_20\n      jumpi\n      jump(tag_2)\n    tag_27:\n      dup1\n      0x3f1cc5fa\n      gt\n      tag_29\n      jumpi\n      dup1\n      0x3f1cc5fa\n      eq\n      tag_9\n      jumpi\n      dup1\n      0x4420e486\n      eq\n      tag_10\n      jumpi\n      dup1\n      0x55940e51\n      eq\n      tag_11\n      jumpi\n      dup1\n      0x5745ae28\n      eq\n      tag_12\n      jumpi\n      dup1\n      0x5eae3173\n      eq\n      tag_13\n      jumpi\n      dup1\n      0x6af0c315\n      eq\n      tag_14\n      jumpi\n      jump(tag_2)\n    tag_29:\n      dup1\n      0x063298b6\n      eq\n      tag_3\n      jumpi\n      dup1\n      0x1e06b4b4\n      eq\n      tag_4\n      jumpi\n      dup1\n      0x22fa2762\n      eq\n      tag_5\n      jumpi\n      dup1\n      0x2ec2c246\n      eq\n      tag_6\n      jumpi\n      dup1\n      0x34a0dc10\n      eq\n      tag_7\n      jumpi\n      dup1\n      0x3c5030bb\n      eq\n      tag_8\n      jumpi\n    tag_2:\n      0x00\n      dup1\n      revert\n        /* \"Objectron/OperatorFilterRegistry.sol\":12489:14041  function updateCodeHashes(address registrant, bytes32[] calldata codeHashes, bool filtered)... */\n    tag_3:\n      tag_30\n      0x04\n      dup1\n      calldatasize\n      sub\n      dup2\n      add\n      swap1\n      tag_31\n      swap2\n      swap1\n      tag_32\n      jump\t// in\n    tag_31:\n      tag_33\n      jump\t// in\n    tag_30:\n      stop\n        /* \"Objectron/OperatorFilterRegistry.sol\":16668:17393  function copyEntriesOf(address registrant, address registrantToCopy) external onlyAddressOrOwner(registrant) {... */\n    tag_4:\n      tag_34\n      0x04\n      dup1\n      calldatasize\n      sub\n      dup2\n      add\n      swap1\n      tag_35\n      swap2\n      swap1\n      tag_36\n      jump\t// in\n    tag_35:\n      tag_37\n      jump\t// in\n    tag_34:\n      stop\n        /* \"Objectron/OperatorFilterRegistry.sol\":22134:22461  function filteredCodeHashes(address registrant) external view returns (bytes32[] memory) {... */\n    tag_5:\n      tag_38\n      0x04\n      dup1\n      calldatasize\n      sub\n      dup2\n      add\n      swap1\n      tag_39\n      swap2\n      swap1\n      tag_40\n      jump\t// in\n    tag_39:\n      tag_41\n      jump\t// in\n    tag_38:\n      mload(0x40)\n      tag_42\n      swap2\n      swap1\n      tag_43\n      jump\t// in\n    tag_42:\n      mload(0x40)\n      dup1\n      swap2\n      sub\n      swap1\n      return\n        /* \"Objectron/OperatorFilterRegistry.sol\":4639:5167  function unregister(address registrant) external onlyAddressOrOwner(registrant) {... */\n    tag_6:\n      tag_44\n      0x04\n      dup1\n      calldatasize\n      sub\n      dup2\n      add\n      swap1\n      tag_45\n      swap2\n      swap1\n      tag_40\n      jump\t// in\n    tag_45:\n      tag_46\n      jump\t// in\n    tag_44:\n      stop\n        /* \"Objectron/OperatorFilterRegistry.sol\":15922:16549  function unsubscribe(address registrant, bool copyExistingEntries) external onlyAddressOrOwner(registrant) {... */\n    tag_7:\n      tag_47\n      0x04\n      dup1\n      calldatasize\n      sub\n      dup2\n      add\n      swap1\n      tag_48\n      swap2\n      swap1\n      tag_49\n      jump\t// in\n    tag_48:\n      tag_50\n      jump\t// in\n    tag_47:\n      stop\n        /* \"Objectron/OperatorFilterRegistry.sol\":18822:19155  function subscriptionOf(address registrant) external view returns (address subscription) {... */\n    tag_8:\n      tag_51\n      0x04\n      dup1\n      calldatasize\n      sub\n      dup2\n      add\n      swap1\n      tag_52\n      swap2\n      swap1\n      tag_40\n      jump\t// in\n    tag_52:\n      tag_53\n      jump\t// in\n    tag_51:\n      mload(0x40)\n      tag_54\n      swap2\n      swap1\n      tag_55\n      jump\t// in\n    tag_54:\n      mload(0x40)\n      dup1\n      swap2\n      sub\n      swap1\n      return\n        /* \"Objectron/OperatorFilterRegistry.sol\":22706:23039  function filteredOperatorAt(address registrant, uint256 index) external view returns (address) {... */\n    tag_9:\n      tag_56\n      0x04\n      dup1\n      calldatasize\n      sub\n      dup2\n      add\n      swap1\n      tag_57\n      swap2\n      swap1\n      tag_58\n      jump\t// in\n    tag_57:\n      tag_59\n      jump\t// in\n    tag_56:\n      mload(0x40)\n      tag_60\n      swap2\n      swap1\n      tag_55\n      jump\t// in\n    tag_60:\n      mload(0x40)\n      dup1\n      swap2\n      sub\n      swap1\n      return\n        /* \"Objectron/OperatorFilterRegistry.sol\":3955:4247  function register(address registrant) external onlyAddressOrOwner(registrant) {... */\n    tag_10:\n      tag_61\n      0x04\n      dup1\n      calldatasize\n      sub\n      dup2\n      add\n      swap1\n      tag_62\n      swap2\n      swap1\n      tag_40\n      jump\t// in\n    tag_62:\n      tag_63\n      jump\t// in\n    tag_61:\n      stop\n        /* \"Objectron/OperatorFilterRegistry.sol\":19661:19808  function subscriberAt(address registrant, uint256 index) external view returns (address) {... */\n    tag_11:\n      tag_64\n      0x04\n      dup1\n      calldatasize\n      sub\n      dup2\n      add\n      swap1\n      tag_65\n      swap2\n      swap1\n      tag_58\n      jump\t// in\n    tag_65:\n      tag_66\n      jump\t// in\n    tag_64:\n      mload(0x40)\n      tag_67\n      swap2\n      swap1\n      tag_55\n      jump\t// in\n    tag_67:\n      mload(0x40)\n      dup1\n      swap2\n      sub\n      swap1\n      return\n        /* \"Objectron/OperatorFilterRegistry.sol\":19321:19460  function subscribers(address registrant) external view returns (address[] memory) {... */\n    tag_12:\n      tag_68\n      0x04\n      dup1\n      calldatasize\n      sub\n      dup2\n      add\n      swap1\n      tag_69\n      swap2\n      swap1\n      tag_40\n      jump\t// in\n    tag_69:\n      tag_70\n      jump\t// in\n    tag_68:\n      mload(0x40)\n      tag_71\n      swap2\n      swap1\n      tag_72\n      jump\t// in\n    tag_71:\n      mload(0x40)\n      dup1\n      swap2\n      sub\n      swap1\n      return\n        /* \"Objectron/OperatorFilterRegistry.sol\":20877:21294  function isCodeHashOfFiltered(address registrant, address operatorWithCode) external view returns (bool) {... */\n    tag_13:\n      tag_73\n      0x04\n      dup1\n      calldatasize\n      sub\n      dup2\n      add\n      swap1\n      tag_74\n      swap2\n      swap1\n      tag_36\n      jump\t// in\n    tag_74:\n      tag_75\n      jump\t// in\n    tag_73:\n      mload(0x40)\n      tag_76\n      swap2\n      swap1\n      tag_77\n      jump\t// in\n    tag_76:\n      mload(0x40)\n      dup1\n      swap2\n      sub\n      swap1\n      return\n        /* \"Objectron/OperatorFilterRegistry.sol\":20389:20742  function isCodeHashFiltered(address registrant, bytes32 codeHash) external view returns (bool) {... */\n    tag_14:\n      tag_78\n      0x04\n      dup1\n      calldatasize\n      sub\n      dup2\n      add\n      swap1\n      tag_79\n      swap2\n      swap1\n      tag_80\n      jump\t// in\n    tag_79:\n      tag_81\n      jump\t// in\n    tag_78:\n      mload(0x40)\n      tag_82\n      swap2\n      swap1\n      tag_77\n      jump\t// in\n    tag_82:\n      mload(0x40)\n      dup1\n      swap2\n      sub\n      swap1\n      return\n        /* \"Objectron/OperatorFilterRegistry.sol\":9027:10067  function updateCodeHash(address registrant, bytes32 codeHash, bool filtered)... */\n    tag_15:\n      tag_83\n      0x04\n      dup1\n      calldatasize\n      sub\n      dup2\n      add\n      swap1\n      tag_84\n      swap2\n      swap1\n      tag_85\n      jump\t// in\n    tag_84:\n      tag_86\n      jump\t// in\n    tag_83:\n      stop\n        /* \"Objectron/OperatorFilterRegistry.sol\":5316:6233  function registerAndSubscribe(address registrant, address subscription) external onlyAddressOrOwner(registrant) {... */\n    tag_16:\n      tag_87\n      0x04\n      dup1\n      calldatasize\n      sub\n      dup2\n      add\n      swap1\n      tag_88\n      swap2\n      swap1\n      tag_36\n      jump\t// in\n    tag_88:\n      tag_89\n      jump\t// in\n    tag_87:\n      stop\n        /* \"Objectron/OperatorFilterRegistry.sol\":6415:7150  function registerAndCopyEntries(address registrant, address registrantToCopy)... */\n    tag_17:\n      tag_90\n      0x04\n      dup1\n      calldatasize\n      sub\n      dup2\n      add\n      swap1\n      tag_91\n      swap2\n      swap1\n      tag_36\n      jump\t// in\n    tag_91:\n      tag_92\n      jump\t// in\n    tag_90:\n      stop\n        /* \"Objectron/OperatorFilterRegistry.sol\":10235:11658  function updateOperators(address registrant, address[] calldata operators, bool filtered)... */\n    tag_18:\n      tag_93\n      0x04\n      dup1\n      calldatasize\n      sub\n      dup2\n      add\n      swap1\n      tag_94\n      swap2\n      swap1\n      tag_95\n      jump\t// in\n    tag_94:\n      tag_96\n      jump\t// in\n    tag_93:\n      stop\n        /* \"Objectron/OperatorFilterRegistry.sol\":7290:8235  function updateOperator(address registrant, address operator, bool filtered)... */\n    tag_19:\n      tag_97\n      0x04\n      dup1\n      calldatasize\n      sub\n      dup2\n      add\n      swap1\n      tag_98\n      swap2\n      swap1\n      tag_99\n      jump\t// in\n    tag_98:\n      tag_100\n      jump\t// in\n    tag_97:\n      stop\n        /* \"Objectron/OperatorFilterRegistry.sol\":23286:23621  function filteredCodeHashAt(address registrant, uint256 index) external view returns (bytes32) {... */\n    tag_20:\n      tag_101\n      0x04\n      dup1\n      calldatasize\n      sub\n      dup2\n      add\n      swap1\n      tag_102\n      swap2\n      swap1\n      tag_58\n      jump\t// in\n    tag_102:\n      tag_103\n      jump\t// in\n    tag_101:\n      mload(0x40)\n      tag_104\n      swap2\n      swap1\n      tag_105\n      jump\t// in\n    tag_104:\n      mload(0x40)\n      dup1\n      swap2\n      sub\n      swap1\n      return\n        /* \"Objectron/OperatorFilterRegistry.sol\":14467:15763  function subscribe(address registrant, address newSubscription) external onlyAddressOrOwner(registrant) {... */\n    tag_21:\n      tag_106\n      0x04\n      dup1\n      calldatasize\n      sub\n      dup2\n      add\n      swap1\n      tag_107\n      swap2\n      swap1\n      tag_36\n      jump\t// in\n    tag_107:\n      tag_108\n      jump\t// in\n    tag_106:\n      stop\n        /* \"Objectron/OperatorFilterRegistry.sol\":23724:23821  function codeHashOf(address a) external view returns (bytes32) {... */\n    tag_22:\n      tag_109\n      0x04\n      dup1\n      calldatasize\n      sub\n      dup2\n      add\n      swap1\n      tag_110\n      swap2\n      swap1\n      tag_40\n      jump\t// in\n    tag_110:\n      tag_111\n      jump\t// in\n    tag_109:\n      mload(0x40)\n      tag_112\n      swap2\n      swap1\n      tag_105\n      jump\t// in\n    tag_112:\n      mload(0x40)\n      dup1\n      swap2\n      sub\n      swap1\n      return\n        /* \"Objectron/OperatorFilterRegistry.sol\":21373:21508  function isRegistered(address registrant) external view returns (bool) {... */\n    tag_23:\n      tag_113\n      0x04\n      dup1\n      calldatasize\n      sub\n      dup2\n      add\n      swap1\n      tag_114\n      swap2\n      swap1\n      tag_40\n      jump\t// in\n    tag_114:\n      tag_115\n      jump\t// in\n    tag_113:\n      mload(0x40)\n      tag_116\n      swap2\n      swap1\n      tag_77\n      jump\t// in\n    tag_116:\n      mload(0x40)\n      dup1\n      swap2\n      sub\n      swap1\n      return\n        /* \"Objectron/OperatorFilterRegistry.sol\":21623:21947  function filteredOperators(address registrant) external view returns (address[] memory) {... */\n    tag_24:\n      tag_117\n      0x04\n      dup1\n      calldatasize\n      sub\n      dup2\n      add\n      swap1\n      tag_118\n      swap2\n      swap1\n      tag_40\n      jump\t// in\n    tag_118:\n      tag_119\n      jump\t// in\n    tag_117:\n      mload(0x40)\n      tag_120\n      swap2\n      swap1\n      tag_72\n      jump\t// in\n    tag_120:\n      mload(0x40)\n      dup1\n      swap2\n      sub\n      swap1\n      return\n        /* \"Objectron/OperatorFilterRegistry.sol\":2863:3755  function isOperatorAllowed(address registrant, address operator) external view returns (bool) {... */\n    tag_25:\n      tag_121\n      0x04\n      dup1\n      calldatasize\n      sub\n      dup2\n      add\n      swap1\n      tag_122\n      swap2\n      swap1\n      tag_36\n      jump\t// in\n    tag_122:\n      tag_123\n      jump\t// in\n    tag_121:\n      mload(0x40)\n      tag_124\n      swap2\n      swap1\n      tag_77\n      jump\t// in\n    tag_124:\n      mload(0x40)\n      dup1\n      swap2\n      sub\n      swap1\n      return\n        /* \"Objectron/OperatorFilterRegistry.sol\":19922:20273  function isOperatorFiltered(address registrant, address operator) external view returns (bool) {... */\n    tag_26:\n      tag_125\n      0x04\n      dup1\n      calldatasize\n      sub\n      dup2\n      add\n      swap1\n      tag_126\n      swap2\n      swap1\n      tag_36\n      jump\t// in\n    tag_126:\n      tag_127\n      jump\t// in\n    tag_125:\n      mload(0x40)\n      tag_128\n      swap2\n      swap1\n      tag_77\n      jump\t// in\n    tag_128:\n      mload(0x40)\n      dup1\n      swap2\n      sub\n      swap1\n      return\n        /* \"Objectron/OperatorFilterRegistry.sol\":12489:14041  function updateCodeHashes(address registrant, bytes32[] calldata codeHashes, bool filtered)... */\n    tag_33:\n        /* \"Objectron/OperatorFilterRegistry.sol\":12625:12635  registrant */\n      dup4\n        /* \"Objectron/OperatorFilterRegistry.sol\":1693:1697  addr */\n      dup1\n        /* \"Objectron/OperatorFilterRegistry.sol\":1679:1697  msg.sender != addr */\n      0xffffffffffffffffffffffffffffffffffffffff\n      and\n        /* \"Objectron/OperatorFilterRegistry.sol\":1679:1689  msg.sender */\n      caller\n        /* \"Objectron/OperatorFilterRegistry.sol\":1679:1697  msg.sender != addr */\n      0xffffffffffffffffffffffffffffffffffffffff\n      and\n      eq\n        /* \"Objectron/OperatorFilterRegistry.sol\":1675:2239  if (msg.sender != addr) {... */\n      tag_130\n      jumpi\n        /* \"Objectron/OperatorFilterRegistry.sol\":1725:1729  addr */\n      dup1\n        /* \"Objectron/OperatorFilterRegistry.sol\":1717:1736  Ownable(addr).owner */\n      0xffffffffffffffffffffffffffffffffffffffff\n      and\n      0x8da5cb5b\n        /* \"Objectron/OperatorFilterRegistry.sol\":1717:1738  Ownable(addr).owner() */\n      mload(0x40)\n      dup2\n      0xffffffff\n      and\n      0xe0\n      shl\n      dup2\n      mstore\n      0x04\n      add\n      0x20\n      mload(0x40)\n      dup1\n      dup4\n      sub\n      dup2\n      dup7\n      gas\n      staticcall\n      swap3\n      pop\n      pop\n      pop\n      dup1\n      iszero\n      tag_131\n      jumpi\n      pop\n      mload(0x40)\n      returndatasize\n      not(0x1f)\n      0x1f\n      dup3\n      add\n      and\n      dup3\n      add\n      dup1\n      0x40\n      mstore\n      pop\n      dup2\n      add\n      swap1\n      tag_132\n      swap2\n      swap1\n      tag_133\n      jump\t// in\n    tag_132:\n      0x01\n    tag_131:\n        /* \"Objectron/OperatorFilterRegistry.sol\":1713:2229  try Ownable(addr).owner() returns (address owner) {... */\n      tag_134\n      jumpi\n      returndatasize\n      dup1\n      0x00\n      dup2\n      eq\n      tag_139\n      jumpi\n      mload(0x40)\n      swap2\n      pop\n      and(add(returndatasize, 0x3f), not(0x1f))\n      dup3\n      add\n      0x40\n      mstore\n      returndatasize\n      dup3\n      mstore\n      returndatasize\n      0x00\n      0x20\n      dup5\n      add\n      returndatacopy\n      jump(tag_138)\n    tag_139:\n      0x60\n      swap2\n      pop\n    tag_138:\n      pop\n        /* \"Objectron/OperatorFilterRegistry.sol\":1956:1957  0 */\n      0x00\n        /* \"Objectron/OperatorFilterRegistry.sol\":1939:1945  reason */\n      dup2\n        /* \"Objectron/OperatorFilterRegistry.sol\":1939:1952  reason.length */\n      mload\n        /* \"Objectron/OperatorFilterRegistry.sol\":1939:1957  reason.length == 0 */\n      sub\n        /* \"Objectron/OperatorFilterRegistry.sol\":1935:2215  if (reason.length == 0) {... */\n      tag_140\n      jumpi\n        /* \"Objectron/OperatorFilterRegistry.sol\":1988:2000  NotOwnable() */\n      mload(0x40)\n      0xb2c1414000000000000000000000000000000000000000000000000000000000\n      dup2\n      mstore\n      0x04\n      add\n      mload(0x40)\n      dup1\n      swap2\n      sub\n      swap1\n      revert\n        /* \"Objectron/OperatorFilterRegistry.sol\":1935:2215  if (reason.length == 0) {... */\n    tag_140:\n        /* \"Objectron/OperatorFilterRegistry.sol\":2167:2173  reason */\n      dup1\n        /* \"Objectron/OperatorFilterRegistry.sol\":2161:2174  mload(reason) */\n      mload\n        /* \"Objectron/OperatorFilterRegistry.sol\":2152:2158  reason */\n      dup2\n        /* \"Objectron/OperatorFilterRegistry.sol\":2148:2150  32 */\n      0x20\n        /* \"Objectron/OperatorFilterRegistry.sol\":2144:2159  add(32, reason) */\n      add\n        /* \"Objectron/OperatorFilterRegistry.sol\":2137:2175  revert(add(32, reason), mload(reason)) */\n      revert\n        /* \"Objectron/OperatorFilterRegistry.sol\":1713:2229  try Ownable(addr).owner() returns (address owner) {... */\n    tag_134:\n        /* \"Objectron/OperatorFilterRegistry.sol\":1799:1804  owner */\n      dup1\n        /* \"Objectron/OperatorFilterRegistry.sol\":1785:1804  msg.sender != owner */\n      0xffffffffffffffffffffffffffffffffffffffff\n      and\n        /* \"Objectron/OperatorFilterRegistry.sol\":1785:1795  msg.sender */\n      caller\n        /* \"Objectron/OperatorFilterRegistry.sol\":1785:1804  msg.sender != owner */\n      0xffffffffffffffffffffffffffffffffffffffff\n      and\n      eq\n        /* \"Objectron/OperatorFilterRegistry.sol\":1781:1874  if (msg.sender != owner) {... */\n      tag_143\n      jumpi\n        /* \"Objectron/OperatorFilterRegistry.sol\":1835:1855  OnlyAddressOrOwner() */\n      mload(0x40)\n      0xfcf5eff800000000000000000000000000000000000000000000000000000000\n      dup2\n      mstore\n      0x04\n      add\n      mload(0x40)\n      dup1\n      swap2\n      sub\n      swap1\n      revert\n        /* \"Objectron/OperatorFilterRegistry.sol\":1781:1874  if (msg.sender != owner) {... */\n    tag_143:\n        /* \"Objectron/OperatorFilterRegistry.sol\":1739:1888  returns (address owner) {... */\n      pop\n        /* \"Objectron/OperatorFilterRegistry.sol\":1675:2239  if (msg.sender != addr) {... */\n    tag_130:\n        /* \"Objectron/OperatorFilterRegistry.sol\":12651:12671  address registration */\n      0x00\n        /* \"Objectron/OperatorFilterRegistry.sol\":12674:12688  _registrations */\n      0x02\n        /* \"Objectron/OperatorFilterRegistry.sol\":12674:12700  _registrations[registrant] */\n      0x00\n        /* \"Objectron/OperatorFilterRegistry.sol\":12689:12699  registrant */\n      dup8\n        /* \"Objectron/OperatorFilterRegistry.sol\":12674:12700  _registrations[registrant] */\n      0xffffffffffffffffffffffffffffffffffffffff\n      and\n      0xffffffffffffffffffffffffffffffffffffffff\n      and\n      dup2\n      mstore\n      0x20\n      add\n      swap1\n      dup2\n      mstore\n      0x20\n      add\n      0x00\n      keccak256\n      0x00\n      swap1\n      sload\n      swap1\n      0x0100\n      exp\n      swap1\n      div\n      0xffffffffffffffffffffffffffffffffffffffff\n      and\n        /* \"Objectron/OperatorFilterRegistry.sol\":12651:12700  address registration = _registrations[registrant] */\n      swap1\n      pop\n        /* \"Objectron/OperatorFilterRegistry.sol\":12738:12739  0 */\n      0x00\n        /* \"Objectron/OperatorFilterRegistry.sol\":12714:12740  registration == address(0) */\n      0xffffffffffffffffffffffffffffffffffffffff\n      and\n        /* \"Objectron/OperatorFilterRegistry.sol\":12714:12726  registration */\n      dup2\n        /* \"Objectron/OperatorFilterRegistry.sol\":12714:12740  registration == address(0) */\n      0xffffffffffffffffffffffffffffffffffffffff\n      and\n      sub\n        /* \"Objectron/OperatorFilterRegistry.sol\":12710:12799  if (registration == address(0)) {... */\n      tag_145\n      jumpi\n        /* \"Objectron/OperatorFilterRegistry.sol\":12777:12787  registrant */\n      dup6\n        /* \"Objectron/OperatorFilterRegistry.sol\":12763:12788  NotRegistered(registrant) */\n      mload(0x40)\n      0xbfc6c33700000000000000000000000000000000000000000000000000000000\n      dup2\n      mstore\n      0x04\n      add\n      tag_146\n      swap2\n      swap1\n      tag_55\n      jump\t// in\n    tag_146:\n      mload(0x40)\n      dup1\n      swap2\n      sub\n      swap1\n      revert\n        /* \"Objectron/OperatorFilterRegistry.sol\":12710:12799  if (registration == address(0)) {... */\n    tag_145:\n        /* \"Objectron/OperatorFilterRegistry.sol\":12828:12838  registrant */\n      dup6\n        /* \"Objectron/OperatorFilterRegistry.sol\":12812:12838  registration != registrant */\n      0xffffffffffffffffffffffffffffffffffffffff\n      and\n        /* \"Objectron/OperatorFilterRegistry.sol\":12812:12824  registration */\n      dup2\n        /* \"Objectron/OperatorFilterRegistry.sol\":12812:12838  registration != registrant */\n      0xffffffffffffffffffffffffffffffffffffffff\n      and\n      eq\n        /* \"Objectron/OperatorFilterRegistry.sol\":12808:12913  if (registration != registrant) {... */\n      tag_147\n      jumpi\n        /* \"Objectron/OperatorFilterRegistry.sol\":12889:12901  registration */\n      dup1\n        /* \"Objectron/OperatorFilterRegistry.sol\":12861:12902  CannotUpdateWhileSubscribed(registration) */\n      mload(0x40)\n      0x04af4d6900000000000000000000000000000000000000000000000000000000\n      dup2\n      mstore\n      0x04\n      add\n      tag_148\n      swap2\n      swap1\n      tag_55\n      jump\t// in\n    tag_148:\n      mload(0x40)\n      dup1\n      swap2\n      sub\n      swap1\n      revert\n        /* \"Objectron/OperatorFilterRegistry.sol\":12808:12913  if (registration != registrant) {... */\n    tag_147:\n        /* \"Objectron/OperatorFilterRegistry.sol\":12922:12976  EnumerableSet.Bytes32Set storage filteredCodeHashesRef */\n      0x00\n        /* \"Objectron/OperatorFilterRegistry.sol\":12979:12998  _filteredCodeHashes */\n      0x01\n        /* \"Objectron/OperatorFilterRegistry.sol\":12979:13010  _filteredCodeHashes[registrant] */\n      0x00\n        /* \"Objectron/OperatorFilterRegistry.sol\":12999:13009  registrant */\n      dup9\n        /* \"Objectron/OperatorFilterRegistry.sol\":12979:13010  _filteredCodeHashes[registrant] */\n      0xffffffffffffffffffffffffffffffffffffffff\n      and\n      0xffffffffffffffffffffffffffffffffffffffff\n      and\n      dup2\n      mstore\n      0x20\n      add\n      swap1\n      dup2\n      mstore\n      0x20\n      add\n      0x00\n      keccak256\n        /* \"Objectron/OperatorFilterRegistry.sol\":12922:13010  EnumerableSet.Bytes32Set storage filteredCodeHashesRef = _filteredCodeHashes[registrant] */\n      swap1\n      pop\n        /* \"Objectron/OperatorFilterRegistry.sol\":13020:13044  uint256 codeHashesLength */\n      0x00\n        /* \"Objectron/OperatorFilterRegistry.sol\":13047:13057  codeHashes */\n      dup7\n      dup7\n        /* \"Objectron/OperatorFilterRegistry.sol\":13047:13064  codeHashes.length */\n      swap1\n      pop\n        /* \"Objectron/OperatorFilterRegistry.sol\":13020:13064  uint256 codeHashesLength = codeHashes.length */\n      swap1\n      pop\n        /* \"Objectron/OperatorFilterRegistry.sol\":13079:13087  filtered */\n      dup5\n        /* \"Objectron/OperatorFilterRegistry.sol\":13074:13969  if (!filtered) {... */\n      tag_149\n      jumpi\n        /* \"Objectron/OperatorFilterRegistry.sol\":13108:13117  uint256 i */\n      0x00\n        /* \"Objectron/OperatorFilterRegistry.sol\":13103:13461  for (uint256 i = 0; i < codeHashesLength;) {... */\n    tag_150:\n        /* \"Objectron/OperatorFilterRegistry.sol\":13127:13143  codeHashesLength */\n      dup2\n        /* \"Objectron/OperatorFilterRegistry.sol\":13123:13124  i */\n      dup2\n        /* \"Objectron/OperatorFilterRegistry.sol\":13123:13143  i < codeHashesLength */\n      lt\n        /* \"Objectron/OperatorFilterRegistry.sol\":13103:13461  for (uint256 i = 0; i < codeHashesLength;) {... */\n      iszero\n      tag_151\n      jumpi\n        /* \"Objectron/OperatorFilterRegistry.sol\":13164:13180  bytes32 codeHash */\n      0x00\n        /* \"Objectron/OperatorFilterRegistry.sol\":13183:13193  codeHashes */\n      dup9\n      dup9\n        /* \"Objectron/OperatorFilterRegistry.sol\":13194:13195  i */\n      dup4\n        /* \"Objectron/OperatorFilterRegistry.sol\":13183:13196  codeHashes[i] */\n      dup2\n      dup2\n      lt\n      tag_153\n      jumpi\n      tag_154\n      tag_155\n      jump\t// in\n    tag_154:\n    tag_153:\n      swap1\n      pop\n      0x20\n      mul\n      add\n      calldataload\n        /* \"Objectron/OperatorFilterRegistry.sol\":13164:13196  bytes32 codeHash = codeHashes[i] */\n      swap1\n      pop\n        /* \"Objectron/OperatorFilterRegistry.sol\":13214:13226  bool removed */\n      0x00\n        /* \"Objectron/OperatorFilterRegistry.sol\":13229:13267  filteredCodeHashesRef.remove(codeHash) */\n      tag_156\n        /* \"Objectron/OperatorFilterRegistry.sol\":13258:13266  codeHash */\n      dup3\n        /* \"Objectron/OperatorFilterRegistry.sol\":13229:13250  filteredCodeHashesRef */\n      dup7\n        /* \"Objectron/OperatorFilterRegistry.sol\":13229:13257  filteredCodeHashesRef.remove */\n      tag_157\n      swap1\n        /* \"Objectron/OperatorFilterRegistry.sol\":13229:13267  filteredCodeHashesRef.remove(codeHash) */\n      swap2\n      swap1\n      0xffffffff\n      and\n      jump\t// in\n    tag_156:\n        /* \"Objectron/OperatorFilterRegistry.sol\":13214:13267  bool removed = filteredCodeHashesRef.remove(codeHash) */\n      swap1\n      pop\n        /* \"Objectron/OperatorFilterRegistry.sol\":13290:13297  removed */\n      dup1\n        /* \"Objectron/OperatorFilterRegistry.sol\":13285:13376  if (!removed) {... */\n      tag_158\n      jumpi\n        /* \"Objectron/OperatorFilterRegistry.sol\":13348:13356  codeHash */\n      dup2\n        /* \"Objectron/OperatorFilterRegistry.sol\":13328:13357  CodeHashNotFiltered(codeHash) */\n      mload(0x40)\n      0x478730a800000000000000000000000000000000000000000000000000000000\n      dup2\n      mstore\n      0x04\n      add\n      tag_159\n      swap2\n      swap1\n      tag_105\n      jump\t// in\n    tag_159:\n      mload(0x40)\n      dup1\n      swap2\n      sub\n      swap1\n      revert\n        /* \"Objectron/OperatorFilterRegistry.sol\":13285:13376  if (!removed) {... */\n    tag_158:\n        /* \"Objectron/OperatorFilterRegistry.sol\":13425:13428  ++i */\n      dup3\n      0x01\n      add\n      swap3\n      pop\n        /* \"Objectron/OperatorFilterRegistry.sol\":13146:13461  {... */\n      pop\n      pop\n        /* \"Objectron/OperatorFilterRegistry.sol\":13103:13461  for (uint256 i = 0; i < codeHashesLength;) {... */\n      jump(tag_150)\n    tag_151:\n      pop\n        /* \"Objectron/OperatorFilterRegistry.sol\":13074:13969  if (!filtered) {... */\n      jump(tag_160)\n    tag_149:\n        /* \"Objectron/OperatorFilterRegistry.sol\":13496:13505  uint256 i */\n      0x00\n        /* \"Objectron/OperatorFilterRegistry.sol\":13491:13959  for (uint256 i = 0; i < codeHashesLength;) {... */\n    tag_161:\n        /* \"Objectron/OperatorFilterRegistry.sol\":13515:13531  codeHashesLength */\n      dup2\n        /* \"Objectron/OperatorFilterRegistry.sol\":13511:13512  i */\n      dup2\n        /* \"Objectron/OperatorFilterRegistry.sol\":13511:13531  i < codeHashesLength */\n      lt\n        /* \"Objectron/OperatorFilterRegistry.sol\":13491:13959  for (uint256 i = 0; i < codeHashesLength;) {... */\n      iszero\n      tag_162\n      jumpi\n        /* \"Objectron/OperatorFilterRegistry.sol\":13552:13568  bytes32 codeHash */\n      0x00\n        /* \"Objectron/OperatorFilterRegistry.sol\":13571:13581  codeHashes */\n      dup9\n      dup9\n        /* \"Objectron/OperatorFilterRegistry.sol\":13582:13583  i */\n      dup4\n        /* \"Objectron/OperatorFilterRegistry.sol\":13571:13584  codeHashes[i] */\n      dup2\n      dup2\n      lt\n      tag_164\n      jumpi\n      tag_165\n      tag_155\n      jump\t// in\n    tag_165:\n    tag_164:\n      swap1\n      pop\n      0x20\n      mul\n      add\n      calldataload\n        /* \"Objectron/OperatorFilterRegistry.sol\":13552:13584  bytes32 codeHash = codeHashes[i] */\n      swap1\n      pop\n        /* \"Objectron/OperatorFilterRegistry.sol\":1229:1242  keccak256(\"\") */\n      0xc5d2460186f7233c927e7db2dcc703c0e500b653ca82273b7bfad8045d85a470\n        /* \"Objectron/OperatorFilterRegistry.sol\":13606:13614  codeHash */\n      dup2\n        /* \"Objectron/OperatorFilterRegistry.sol\":13606:13630  codeHash == EOA_CODEHASH */\n      sub\n        /* \"Objectron/OperatorFilterRegistry.sol\":13602:13698  if (codeHash == EOA_CODEHASH) {... */\n      tag_166\n      jumpi\n        /* \"Objectron/OperatorFilterRegistry.sol\":13661:13679  CannotFilterEOAs() */\n      mload(0x40)\n      0xf575ead800000000000000000000000000000000000000000000000000000000\n      dup2\n      mstore\n      0x04\n      add\n      mload(0x40)\n      dup1\n      swap2\n      sub\n      swap1\n      revert\n        /* \"Objectron/OperatorFilterRegistry.sol\":13602:13698  if (codeHash == EOA_CODEHASH) {... */\n    tag_166:\n        /* \"Objectron/OperatorFilterRegistry.sol\":13715:13725  bool added */\n      0x00\n        /* \"Objectron/OperatorFilterRegistry.sol\":13728:13763  filteredCodeHashesRef.add(codeHash) */\n      tag_167\n        /* \"Objectron/OperatorFilterRegistry.sol\":13754:13762  codeHash */\n      dup3\n        /* \"Objectron/OperatorFilterRegistry.sol\":13728:13749  filteredCodeHashesRef */\n      dup7\n        /* \"Objectron/OperatorFilterRegistry.sol\":13728:13753  filteredCodeHashesRef.add */\n      tag_168\n      swap1\n        /* \"Objectron/OperatorFilterRegistry.sol\":13728:13763  filteredCodeHashesRef.add(codeHash) */\n      swap2\n      swap1\n      0xffffffff\n      and\n      jump\t// in\n    tag_167:\n        /* \"Objectron/OperatorFilterRegistry.sol\":13715:13763  bool added = filteredCodeHashesRef.add(codeHash) */\n      swap1\n      pop\n        /* \"Objectron/OperatorFilterRegistry.sol\":13786:13791  added */\n      dup1\n        /* \"Objectron/OperatorFilterRegistry.sol\":13781:13874  if (!added) {... */\n      tag_169\n      jumpi\n        /* \"Objectron/OperatorFilterRegistry.sol\":13846:13854  codeHash */\n      dup2\n        /* \"Objectron/OperatorFilterRegistry.sol\":13822:13855  CodeHashAlreadyFiltered(codeHash) */\n      mload(0x40)\n      0x186bea0000000000000000000000000000000000000000000000000000000000\n      dup2\n      mstore\n      0x04\n      add\n      tag_170\n      swap2\n      swap1\n      tag_105\n      jump\t// in\n    tag_170:\n      mload(0x40)\n      dup1\n      swap2\n      sub\n      swap1\n      revert\n        /* \"Objectron/OperatorFilterRegistry.sol\":13781:13874  if (!added) {... */\n    tag_169:\n        /* \"Objectron/OperatorFilterRegistry.sol\":13923:13926  ++i */\n      dup3\n      0x01\n      add\n      swap3\n      pop\n        /* \"Objectron/OperatorFilterRegistry.sol\":13534:13959  {... */\n      pop\n      pop\n        /* \"Objectron/OperatorFilterRegistry.sol\":13491:13959  for (uint256 i = 0; i < codeHashesLength;) {... */\n      jump(tag_161)\n    tag_162:\n      pop\n        /* \"Objectron/OperatorFilterRegistry.sol\":13074:13969  if (!filtered) {... */\n    tag_160:\n        /* \"Objectron/OperatorFilterRegistry.sol\":14025:14033  filtered */\n      dup5\n        /* \"Objectron/OperatorFilterRegistry.sol\":13983:14034  CodeHashesUpdated(registrant, codeHashes, filtered) */\n      iszero\n      iszero\n        /* \"Objectron/OperatorFilterRegistry.sol\":14001:14011  registrant */\n      dup9\n        /* \"Objectron/OperatorFilterRegistry.sol\":13983:14034  CodeHashesUpdated(registrant, codeHashes, filtered) */\n      0xffffffffffffffffffffffffffffffffffffffff\n      and\n      0x34e9f70c5a16a4df2a396cf0cbc4735eb3c7fb6ae40aaa0b34be7720121d1b96\n        /* \"Objectron/OperatorFilterRegistry.sol\":14013:14023  codeHashes */\n      dup10\n      dup10\n        /* \"Objectron/OperatorFilterRegistry.sol\":13983:14034  CodeHashesUpdated(registrant, codeHashes, filtered) */\n      mload(0x40)\n      tag_171\n      swap3\n      swap2\n      swap1\n      tag_172\n      jump\t// in\n    tag_171:\n      mload(0x40)\n      dup1\n      swap2\n      sub\n      swap1\n      log3\n        /* \"Objectron/OperatorFilterRegistry.sol\":12641:14041  {... */\n      pop\n      pop\n      pop\n        /* \"Objectron/OperatorFilterRegistry.sol\":12489:14041  function updateCodeHashes(address registrant, bytes32[] calldata codeHashes, bool filtered)... */\n      pop\n      pop\n      pop\n      pop\n      pop\n      jump\t// out\n        /* \"Objectron/OperatorFilterRegistry.sol\":16668:17393  function copyEntriesOf(address registrant, address registrantToCopy) external onlyAddressOrOwner(registrant) {... */\n    tag_37:\n        /* \"Objectron/OperatorFilterRegistry.sol\":16765:16775  registrant */\n      dup2\n        /* \"Objectron/OperatorFilterRegistry.sol\":1693:1697  addr */\n      dup1\n        /* \"Objectron/OperatorFilterRegistry.sol\":1679:1697  msg.sender != addr */\n      0xffffffffffffffffffffffffffffffffffffffff\n      and\n        /* \"Objectron/OperatorFilterRegistry.sol\":1679:1689  msg.sender */\n      caller\n        /* \"Objectron/OperatorFilterRegistry.sol\":1679:1697  msg.sender != addr */\n      0xffffffffffffffffffffffffffffffffffffffff\n      and\n      eq\n        /* \"Objectron/OperatorFilterRegistry.sol\":1675:2239  if (msg.sender != addr) {... */\n      tag_174\n      jumpi\n        /* \"Objectron/OperatorFilterRegistry.sol\":1725:1729  addr */\n      dup1\n        /* \"Objectron/OperatorFilterRegistry.sol\":1717:1736  Ownable(addr).owner */\n      0xffffffffffffffffffffffffffffffffffffffff\n      and\n      0x8da5cb5b\n        /* \"Objectron/OperatorFilterRegistry.sol\":1717:1738  Ownable(addr).owner() */\n      mload(0x40)\n      dup2\n      0xffffffff\n      and\n      0xe0\n      shl\n      dup2\n      mstore\n      0x04\n      add\n      0x20\n      mload(0x40)\n      dup1\n      dup4\n      sub\n      dup2\n      dup7\n      gas\n      staticcall\n      swap3\n      pop\n      pop\n      pop\n      dup1\n      iszero\n      tag_175\n      jumpi\n      pop\n      mload(0x40)\n      returndatasize\n      not(0x1f)\n      0x1f\n      dup3\n      add\n      and\n      dup3\n      add\n      dup1\n      0x40\n      mstore\n      pop\n      dup2\n      add\n      swap1\n      tag_176\n      swap2\n      swap1\n      tag_133\n      jump\t// in\n    tag_176:\n      0x01\n    tag_175:\n        /* \"Objectron/OperatorFilterRegistry.sol\":1713:2229  try Ownable(addr).owner() returns (address owner) {... */\n      tag_177\n      jumpi\n      returndatasize\n      dup1\n      0x00\n      dup2\n      eq\n      tag_182\n      jumpi\n      mload(0x40)\n      swap2\n      pop\n      and(add(returndatasize, 0x3f), not(0x1f))\n      dup3\n      add\n      0x40\n      mstore\n      returndatasize\n      dup3\n      mstore\n      returndatasize\n      0x00\n      0x20\n      dup5\n      add\n      returndatacopy\n      jump(tag_181)\n    tag_182:\n      0x60\n      swap2\n      pop\n    tag_181:\n      pop\n        /* \"Objectron/OperatorFilterRegistry.sol\":1956:1957  0 */\n      0x00\n        /* \"Objectron/OperatorFilterRegistry.sol\":1939:1945  reason */\n      dup2\n        /* \"Objectron/OperatorFilterRegistry.sol\":1939:1952  reason.length */\n      mload\n        /* \"Objectron/OperatorFilterRegistry.sol\":1939:1957  reason.length == 0 */\n      sub\n        /* \"Objectron/OperatorFilterRegistry.sol\":1935:2215  if (reason.length == 0) {... */\n      tag_183\n      jumpi\n        /* \"Objectron/OperatorFilterRegistry.sol\":1988:2000  NotOwnable() */\n      mload(0x40)\n      0xb2c1414000000000000000000000000000000000000000000000000000000000\n      dup2\n      mstore\n      0x04\n      add\n      mload(0x40)\n      dup1\n      swap2\n      sub\n      swap1\n      revert\n        /* \"Objectron/OperatorFilterRegistry.sol\":1935:2215  if (reason.length == 0) {... */\n    tag_183:\n        /* \"Objectron/OperatorFilterRegistry.sol\":2167:2173  reason */\n      dup1\n        /* \"Objectron/OperatorFilterRegistry.sol\":2161:2174  mload(reason) */\n      mload\n        /* \"Objectron/OperatorFilterRegistry.sol\":2152:2158  reason */\n      dup2\n        /* \"Objectron/OperatorFilterRegistry.sol\":2148:2150  32 */\n      0x20\n        /* \"Objectron/OperatorFilterRegistry.sol\":2144:2159  add(32, reason) */\n      add\n        /* \"Objectron/OperatorFilterRegistry.sol\":2137:2175  revert(add(32, reason), mload(reason)) */\n      revert\n        /* \"Objectron/OperatorFilterRegistry.sol\":1713:2229  try Ownable(addr).owner() returns (address owner) {... */\n    tag_177:\n        /* \"Objectron/OperatorFilterRegistry.sol\":1799:1804  owner */\n      dup1\n        /* \"Objectron/OperatorFilterRegistry.sol\":1785:1804  msg.sender != owner */\n      0xffffffffffffffffffffffffffffffffffffffff\n      and\n        /* \"Objectron/OperatorFilterRegistry.sol\":1785:1795  msg.sender */\n      caller\n        /* \"Objectron/OperatorFilterRegistry.sol\":1785:1804  msg.sender != owner */\n      0xffffffffffffffffffffffffffffffffffffffff\n      and\n      eq\n        /* \"Objectron/OperatorFilterRegistry.sol\":1781:1874  if (msg.sender != owner) {... */\n      tag_186\n      jumpi\n        /* \"Objectron/OperatorFilterRegistry.sol\":1835:1855  OnlyAddressOrOwner() */\n      mload(0x40)\n      0xfcf5eff800000000000000000000000000000000000000000000000000000000\n      dup2\n      mstore\n      0x04\n      add\n      mload(0x40)\n      dup1\n      swap2\n      sub\n      swap1\n      revert\n        /* \"Objectron/OperatorFilterRegistry.sol\":1781:1874  if (msg.sender != owner) {... */\n    tag_186:\n        /* \"Objectron/OperatorFilterRegistry.sol\":1739:1888  returns (address owner) {... */\n      pop\n        /* \"Objectron/OperatorFilterRegistry.sol\":1675:2239  if (msg.sender != addr) {... */\n    tag_174:\n        /* \"Objectron/OperatorFilterRegistry.sol\":16805:16821  registrantToCopy */\n      dup2\n        /* \"Objectron/OperatorFilterRegistry.sol\":16791:16821  registrant == registrantToCopy */\n      0xffffffffffffffffffffffffffffffffffffffff\n      and\n        /* \"Objectron/OperatorFilterRegistry.sol\":16791:16801  registrant */\n      dup4\n        /* \"Objectron/OperatorFilterRegistry.sol\":16791:16821  registrant == registrantToCopy */\n      0xffffffffffffffffffffffffffffffffffffffff\n      and\n      sub\n        /* \"Objectron/OperatorFilterRegistry.sol\":16787:16875  if (registrant == registrantToCopy) {... */\n      tag_188\n      jumpi\n        /* \"Objectron/OperatorFilterRegistry.sol\":16844:16864  CannotCopyFromSelf() */\n      mload(0x40)\n      0x1acab6b800000000000000000000000000000000000000000000000000000000\n      dup2\n      mstore\n      0x04\n      add\n      mload(0x40)\n      dup1\n      swap2\n      sub\n      swap1\n      revert\n        /* \"Objectron/OperatorFilterRegistry.sol\":16787:16875  if (registrant == registrantToCopy) {... */\n    tag_188:\n        /* \"Objectron/OperatorFilterRegistry.sol\":16884:16904  address registration */\n      0x00\n        /* \"Objectron/OperatorFilterRegistry.sol\":16907:16921  _registrations */\n      0x02\n        /* \"Objectron/OperatorFilterRegistry.sol\":16907:16933  _registrations[registrant] */\n      0x00\n        /* \"Objectron/OperatorFilterRegistry.sol\":16922:16932  registrant */\n      dup6\n        /* \"Objectron/OperatorFilterRegistry.sol\":16907:16933  _registrations[registrant] */\n      0xffffffffffffffffffffffffffffffffffffffff\n      and\n      0xffffffffffffffffffffffffffffffffffffffff\n      and\n      dup2\n      mstore\n      0x20\n      add\n      swap1\n      dup2\n      mstore\n      0x20\n      add\n      0x00\n      keccak256\n      0x00\n      swap1\n      sload\n      swap1\n      0x0100\n      exp\n      swap1\n      div\n      0xffffffffffffffffffffffffffffffffffffffff\n      and\n        /* \"Objectron/OperatorFilterRegistry.sol\":16884:16933  address registration = _registrations[registrant] */\n      swap1\n      pop\n        /* \"Objectron/OperatorFilterRegistry.sol\":16971:16972  0 */\n      0x00\n        /* \"Objectron/OperatorFilterRegistry.sol\":16947:16973  registration == address(0) */\n      0xffffffffffffffffffffffffffffffffffffffff\n      and\n        /* \"Objectron/OperatorFilterRegistry.sol\":16947:16959  registration */\n      dup2\n        /* \"Objectron/OperatorFilterRegistry.sol\":16947:16973  registration == address(0) */\n      0xffffffffffffffffffffffffffffffffffffffff\n      and\n      sub\n        /* \"Objectron/OperatorFilterRegistry.sol\":16943:17032  if (registration == address(0)) {... */\n      tag_189\n      jumpi\n        /* \"Objectron/OperatorFilterRegistry.sol\":17010:17020  registrant */\n      dup4\n        /* \"Objectron/OperatorFilterRegistry.sol\":16996:17021  NotRegistered(registrant) */\n      mload(0x40)\n      0xbfc6c33700000000000000000000000000000000000000000000000000000000\n      dup2\n      mstore\n      0x04\n      add\n      tag_190\n      swap2\n      swap1\n      tag_55\n      jump\t// in\n    tag_190:\n      mload(0x40)\n      dup1\n      swap2\n      sub\n      swap1\n      revert\n        /* \"Objectron/OperatorFilterRegistry.sol\":16943:17032  if (registration == address(0)) {... */\n    tag_189:\n        /* \"Objectron/OperatorFilterRegistry.sol\":17061:17071  registrant */\n      dup4\n        /* \"Objectron/OperatorFilterRegistry.sol\":17045:17071  registration != registrant */\n      0xffffffffffffffffffffffffffffffffffffffff\n      and\n        /* \"Objectron/OperatorFilterRegistry.sol\":17045:17057  registration */\n      dup2\n        /* \"Objectron/OperatorFilterRegistry.sol\":17045:17071  registration != registrant */\n      0xffffffffffffffffffffffffffffffffffffffff\n      and\n      eq\n        /* \"Objectron/OperatorFilterRegistry.sol\":17041:17146  if (registration != registrant) {... */\n      tag_191\n      jumpi\n        /* \"Objectron/OperatorFilterRegistry.sol\":17122:17134  registration */\n      dup1\n        /* \"Objectron/OperatorFilterRegistry.sol\":17094:17135  CannotUpdateWhileSubscribed(registration) */\n      mload(0x40)\n      0x04af4d6900000000000000000000000000000000000000000000000000000000\n      dup2\n      mstore\n      0x04\n      add\n      tag_192\n      swap2\n      swap1\n      tag_55\n      jump\t// in\n    tag_192:\n      mload(0x40)\n      dup1\n      swap2\n      sub\n      swap1\n      revert\n        /* \"Objectron/OperatorFilterRegistry.sol\":17041:17146  if (registration != registrant) {... */\n    tag_191:\n        /* \"Objectron/OperatorFilterRegistry.sol\":17155:17185  address registrantRegistration */\n      0x00\n        /* \"Objectron/OperatorFilterRegistry.sol\":17188:17202  _registrations */\n      0x02\n        /* \"Objectron/OperatorFilterRegistry.sol\":17188:17220  _registrations[registrantToCopy] */\n      0x00\n        /* \"Objectron/OperatorFilterRegistry.sol\":17203:17219  registrantToCopy */\n      dup6\n        /* \"Objectron/OperatorFilterRegistry.sol\":17188:17220  _registrations[registrantToCopy] */\n      0xffffffffffffffffffffffffffffffffffffffff\n      and\n      0xffffffffffffffffffffffffffffffffffffffff\n      and\n      dup2\n      mstore\n      0x20\n      add\n      swap1\n      dup2\n      mstore\n      0x20\n      add\n      0x00\n      keccak256\n      0x00\n      swap1\n      sload\n      swap1\n      0x0100\n      exp\n      swap1\n      div\n      0xffffffffffffffffffffffffffffffffffffffff\n      and\n        /* \"Objectron/OperatorFilterRegistry.sol\":17155:17220  address registrantRegistration = _registrations[registrantToCopy] */\n      swap1\n      pop\n        /* \"Objectron/OperatorFilterRegistry.sol\":17268:17269  0 */\n      0x00\n        /* \"Objectron/OperatorFilterRegistry.sol\":17234:17270  registrantRegistration == address(0) */\n      0xffffffffffffffffffffffffffffffffffffffff\n      and\n        /* \"Objectron/OperatorFilterRegistry.sol\":17234:17256  registrantRegistration */\n      dup2\n        /* \"Objectron/OperatorFilterRegistry.sol\":17234:17270  registrantRegistration == address(0) */\n      0xffffffffffffffffffffffffffffffffffffffff\n      and\n      sub\n        /* \"Objectron/OperatorFilterRegistry.sol\":17230:17335  if (registrantRegistration == address(0)) {... */\n      tag_193\n      jumpi\n        /* \"Objectron/OperatorFilterRegistry.sol\":17307:17323  registrantToCopy */\n      dup4\n        /* \"Objectron/OperatorFilterRegistry.sol\":17293:17324  NotRegistered(registrantToCopy) */\n      mload(0x40)\n      0xbfc6c33700000000000000000000000000000000000000000000000000000000\n      dup2\n      mstore\n      0x04\n      add\n      tag_194\n      swap2\n      swap1\n      tag_55\n      jump\t// in\n    tag_194:\n      mload(0x40)\n      dup1\n      swap2\n      sub\n      swap1\n      revert\n        /* \"Objectron/OperatorFilterRegistry.sol\":17230:17335  if (registrantRegistration == address(0)) {... */\n    tag_193:\n        /* \"Objectron/OperatorFilterRegistry.sol\":17344:17386  _copyEntries(registrant, registrantToCopy) */\n      tag_195\n        /* \"Objectron/OperatorFilterRegistry.sol\":17357:17367  registrant */\n      dup6\n        /* \"Objectron/OperatorFilterRegistry.sol\":17369:17385  registrantToCopy */\n      dup6\n        /* \"Objectron/OperatorFilterRegistry.sol\":17344:17356  _copyEntries */\n      tag_196\n        /* \"Objectron/OperatorFilterRegistry.sol\":17344:17386  _copyEntries(registrant, registrantToCopy) */\n      jump\t// in\n    tag_195:\n        /* \"Objectron/OperatorFilterRegistry.sol\":16777:17393  {... */\n      pop\n      pop\n        /* \"Objectron/OperatorFilterRegistry.sol\":16668:17393  function copyEntriesOf(address registrant, address registrantToCopy) external onlyAddressOrOwner(registrant) {... */\n      pop\n      pop\n      pop\n      jump\t// out\n        /* \"Objectron/OperatorFilterRegistry.sol\":22134:22461  function filteredCodeHashes(address registrant) external view returns (bytes32[] memory) {... */\n    tag_41:\n        /* \"Objectron/OperatorFilterRegistry.sol\":22205:22221  bytes32[] memory */\n      0x60\n        /* \"Objectron/OperatorFilterRegistry.sol\":22233:22253  address registration */\n      0x00\n        /* \"Objectron/OperatorFilterRegistry.sol\":22256:22270  _registrations */\n      0x02\n        /* \"Objectron/OperatorFilterRegistry.sol\":22256:22282  _registrations[registrant] */\n      0x00\n        /* \"Objectron/OperatorFilterRegistry.sol\":22271:22281  registrant */\n      dup5\n        /* \"Objectron/OperatorFilterRegistry.sol\":22256:22282  _registrations[registrant] */\n      0xffffffffffffffffffffffffffffffffffffffff\n      and\n      0xffffffffffffffffffffffffffffffffffffffff\n      and\n      dup2\n      mstore\n      0x20\n      add\n      swap1\n      dup2\n      mstore\n      0x20\n      add\n      0x00\n      keccak256\n      0x00\n      swap1\n      sload\n      swap1\n      0x0100\n      exp\n      swap1\n      div\n      0xffffffffffffffffffffffffffffffffffffffff\n      and\n        /* \"Objectron/OperatorFilterRegistry.sol\":22233:22282  address registration = _registrations[registrant] */\n      swap1\n      pop\n        /* \"Objectron/OperatorFilterRegistry.sol\":22312:22322  registrant */\n      dup3\n        /* \"Objectron/OperatorFilterRegistry.sol\":22296:22322  registration != registrant */\n      0xffffffffffffffffffffffffffffffffffffffff\n      and\n        /* \"Objectron/OperatorFilterRegistry.sol\":22296:22308  registration */\n      dup2\n        /* \"Objectron/OperatorFilterRegistry.sol\":22296:22322  registration != registrant */\n      0xffffffffffffffffffffffffffffffffffffffff\n      and\n      eq\n        /* \"Objectron/OperatorFilterRegistry.sol\":22292:22398  if (registration != registrant) {... */\n      tag_198\n      jumpi\n        /* \"Objectron/OperatorFilterRegistry.sol\":22345:22387  _filteredCodeHashes[registration].values() */\n      tag_199\n        /* \"Objectron/OperatorFilterRegistry.sol\":22345:22364  _filteredCodeHashes */\n      0x01\n        /* \"Objectron/OperatorFilterRegistry.sol\":22345:22378  _filteredCodeHashes[registration] */\n      0x00\n        /* \"Objectron/OperatorFilterRegistry.sol\":22365:22377  registration */\n      dup4\n        /* \"Objectron/OperatorFilterRegistry.sol\":22345:22378  _filteredCodeHashes[registration] */\n      0xffffffffffffffffffffffffffffffffffffffff\n      and\n      0xffffffffffffffffffffffffffffffffffffffff\n      and\n      dup2\n      mstore\n      0x20\n      add\n      swap1\n      dup2\n      mstore\n      0x20\n      add\n      0x00\n      keccak256\n        /* \"Objectron/OperatorFilterRegistry.sol\":22345:22385  _filteredCodeHashes[registration].values */\n      tag_200\n        /* \"Objectron/OperatorFilterRegistry.sol\":22345:22387  _filteredCodeHashes[registration].values() */\n      jump\t// in\n    tag_199:\n        /* \"Objectron/OperatorFilterRegistry.sol\":22338:22387  return _filteredCodeHashes[registration].values() */\n      swap2\n      pop\n      pop\n      jump(tag_197)\n        /* \"Objectron/OperatorFilterRegistry.sol\":22292:22398  if (registration != registrant) {... */\n    tag_198:\n        /* \"Objectron/OperatorFilterRegistry.sol\":22414:22454  _filteredCodeHashes[registrant].values() */\n      tag_201\n        /* \"Objectron/OperatorFilterRegistry.sol\":22414:22433  _filteredCodeHashes */\n      0x01\n        /* \"Objectron/OperatorFilterRegistry.sol\":22414:22445  _filteredCodeHashes[registrant] */\n      0x00\n        /* \"Objectron/OperatorFilterRegistry.sol\":22434:22444  registrant */\n      dup6\n        /* \"Objectron/OperatorFilterRegistry.sol\":22414:22445  _filteredCodeHashes[registrant] */\n      0xffffffffffffffffffffffffffffffffffffffff\n      and\n      0xffffffffffffffffffffffffffffffffffffffff\n      and\n      dup2\n      mstore\n      0x20\n      add\n      swap1\n      dup2\n      mstore\n      0x20\n      add\n      0x00\n      keccak256\n        /* \"Objectron/OperatorFilterRegistry.sol\":22414:22452  _filteredCodeHashes[registrant].values */\n      tag_200\n        /* \"Objectron/OperatorFilterRegistry.sol\":22414:22454  _filteredCodeHashes[registrant].values() */\n      jump\t// in\n    tag_201:\n        /* \"Objectron/OperatorFilterRegistry.sol\":22407:22454  return _filteredCodeHashes[registrant].values() */\n      swap2\n      pop\n      pop\n        /* \"Objectron/OperatorFilterRegistry.sol\":22134:22461  function filteredCodeHashes(address registrant) external view returns (bytes32[] memory) {... */\n    tag_197:\n      swap2\n      swap1\n      pop\n      jump\t// out\n        /* \"Objectron/OperatorFilterRegistry.sol\":4639:5167  function unregister(address registrant) external onlyAddressOrOwner(registrant) {... */\n    tag_46:\n        /* \"Objectron/OperatorFilterRegistry.sol\":4707:4717  registrant */\n      dup1\n        /* \"Objectron/OperatorFilterRegistry.sol\":1693:1697  addr */\n      dup1\n        /* \"Objectron/OperatorFilterRegistry.sol\":1679:1697  msg.sender != addr */\n      0xffffffffffffffffffffffffffffffffffffffff\n      and\n        /* \"Objectron/OperatorFilterRegistry.sol\":1679:1689  msg.sender */\n      caller\n        /* \"Objectron/OperatorFilterRegistry.sol\":1679:1697  msg.sender != addr */\n      0xffffffffffffffffffffffffffffffffffffffff\n      and\n      eq\n        /* \"Objectron/OperatorFilterRegistry.sol\":1675:2239  if (msg.sender != addr) {... */\n      tag_203\n      jumpi\n        /* \"Objectron/OperatorFilterRegistry.sol\":1725:1729  addr */\n      dup1\n        /* \"Objectron/OperatorFilterRegistry.sol\":1717:1736  Ownable(addr).owner */\n      0xffffffffffffffffffffffffffffffffffffffff\n      and\n      0x8da5cb5b\n        /* \"Objectron/OperatorFilterRegistry.sol\":1717:1738  Ownable(addr).owner() */\n      mload(0x40)\n      dup2\n      0xffffffff\n      and\n      0xe0\n      shl\n      dup2\n      mstore\n      0x04\n      add\n      0x20\n      mload(0x40)\n      dup1\n      dup4\n      sub\n      dup2\n      dup7\n      gas\n      staticcall\n      swap3\n      pop\n      pop\n      pop\n      dup1\n      iszero\n      tag_204\n      jumpi\n      pop\n      mload(0x40)\n      returndatasize\n      not(0x1f)\n      0x1f\n      dup3\n      add\n      and\n      dup3\n      add\n      dup1\n      0x40\n      mstore\n      pop\n      dup2\n      add\n      swap1\n      tag_205\n      swap2\n      swap1\n      tag_133\n      jump\t// in\n    tag_205:\n      0x01\n    tag_204:\n        /* \"Objectron/OperatorFilterRegistry.sol\":1713:2229  try Ownable(addr).owner() returns (address owner) {... */\n      tag_206\n      jumpi\n      returndatasize\n      dup1\n      0x00\n      dup2\n      eq\n      tag_211\n      jumpi\n      mload(0x40)\n      swap2\n      pop\n      and(add(returndatasize, 0x3f), not(0x1f))\n      dup3\n      add\n      0x40\n      mstore\n      returndatasize\n      dup3\n      mstore\n      returndatasize\n      0x00\n      0x20\n      dup5\n      add\n      returndatacopy\n      jump(tag_210)\n    tag_211:\n      0x60\n      swap2\n      pop\n    tag_210:\n      pop\n        /* \"Objectron/OperatorFilterRegistry.sol\":1956:1957  0 */\n      0x00\n        /* \"Objectron/OperatorFilterRegistry.sol\":1939:1945  reason */\n      dup2\n        /* \"Objectron/OperatorFilterRegistry.sol\":1939:1952  reason.length */\n      mload\n        /* \"Objectron/OperatorFilterRegistry.sol\":1939:1957  reason.length == 0 */\n      sub\n        /* \"Objectron/OperatorFilterRegistry.sol\":1935:2215  if (reason.length == 0) {... */\n      tag_212\n      jumpi\n        /* \"Objectron/OperatorFilterRegistry.sol\":1988:2000  NotOwnable() */\n      mload(0x40)\n      0xb2c1414000000000000000000000000000000000000000000000000000000000\n      dup2\n      mstore\n      0x04\n      add\n      mload(0x40)\n      dup1\n      swap2\n      sub\n      swap1\n      revert\n        /* \"Objectron/OperatorFilterRegistry.sol\":1935:2215  if (reason.length == 0) {... */\n    tag_212:\n        /* \"Objectron/OperatorFilterRegistry.sol\":2167:2173  reason */\n      dup1\n        /* \"Objectron/OperatorFilterRegistry.sol\":2161:2174  mload(reason) */\n      mload\n        /* \"Objectron/OperatorFilterRegistry.sol\":2152:2158  reason */\n      dup2\n        /* \"Objectron/OperatorFilterRegistry.sol\":2148:2150  32 */\n      0x20\n        /* \"Objectron/OperatorFilterRegistry.sol\":2144:2159  add(32, reason) */\n      add\n        /* \"Objectron/OperatorFilterRegistry.sol\":2137:2175  revert(add(32, reason), mload(reason)) */\n      revert\n        /* \"Objectron/OperatorFilterRegistry.sol\":1713:2229  try Ownable(addr).owner() returns (address owner) {... */\n    tag_206:\n        /* \"Objectron/OperatorFilterRegistry.sol\":1799:1804  owner */\n      dup1\n        /* \"Objectron/OperatorFilterRegistry.sol\":1785:1804  msg.sender != owner */\n      0xffffffffffffffffffffffffffffffffffffffff\n      and\n        /* \"Objectron/OperatorFilterRegistry.sol\":1785:1795  msg.sender */\n      caller\n        /* \"Objectron/OperatorFilterRegistry.sol\":1785:1804  msg.sender != owner */\n      0xffffffffffffffffffffffffffffffffffffffff\n      and\n      eq\n        /* \"Objectron/OperatorFilterRegistry.sol\":1781:1874  if (msg.sender != owner) {... */\n      tag_215\n      jumpi\n        /* \"Objectron/OperatorFilterRegistry.sol\":1835:1855  OnlyAddressOrOwner() */\n      mload(0x40)\n      0xfcf5eff800000000000000000000000000000000000000000000000000000000\n      dup2\n      mstore\n      0x04\n      add\n      mload(0x40)\n      dup1\n      swap2\n      sub\n      swap1\n      revert\n        /* \"Objectron/OperatorFilterRegistry.sol\":1781:1874  if (msg.sender != owner) {... */\n    tag_215:\n        /* \"Objectron/OperatorFilterRegistry.sol\":1739:1888  returns (address owner) {... */\n      pop\n        /* \"Objectron/OperatorFilterRegistry.sol\":1675:2239  if (msg.sender != addr) {... */\n    tag_203:\n        /* \"Objectron/OperatorFilterRegistry.sol\":4729:4749  address registration */\n      0x00\n        /* \"Objectron/OperatorFilterRegistry.sol\":4752:4766  _registrations */\n      0x02\n        /* \"Objectron/OperatorFilterRegistry.sol\":4752:4778  _registrations[registrant] */\n      0x00\n        /* \"Objectron/OperatorFilterRegistry.sol\":4767:4777  registrant */\n      dup5\n        /* \"Objectron/OperatorFilterRegistry.sol\":4752:4778  _registrations[registrant] */\n      0xffffffffffffffffffffffffffffffffffffffff\n      and\n      0xffffffffffffffffffffffffffffffffffffffff\n      and\n      dup2\n      mstore\n      0x20\n      add\n      swap1\n      dup2\n      mstore\n      0x20\n      add\n      0x00\n      keccak256\n      0x00\n      swap1\n      sload\n      swap1\n      0x0100\n      exp\n      swap1\n      div\n      0xffffffffffffffffffffffffffffffffffffffff\n      and\n        /* \"Objectron/OperatorFilterRegistry.sol\":4729:4778  address registration = _registrations[registrant] */\n      swap1\n      pop\n        /* \"Objectron/OperatorFilterRegistry.sol\":4816:4817  0 */\n      0x00\n        /* \"Objectron/OperatorFilterRegistry.sol\":4792:4818  registration == address(0) */\n      0xffffffffffffffffffffffffffffffffffffffff\n      and\n        /* \"Objectron/OperatorFilterRegistry.sol\":4792:4804  registration */\n      dup2\n        /* \"Objectron/OperatorFilterRegistry.sol\":4792:4818  registration == address(0) */\n      0xffffffffffffffffffffffffffffffffffffffff\n      and\n      sub\n        /* \"Objectron/OperatorFilterRegistry.sol\":4788:4877  if (registration == address(0)) {... */\n      tag_217\n      jumpi\n        /* \"Objectron/OperatorFilterRegistry.sol\":4855:4865  registrant */\n      dup3\n        /* \"Objectron/OperatorFilterRegistry.sol\":4841:4866  NotRegistered(registrant) */\n      mload(0x40)\n      0xbfc6c33700000000000000000000000000000000000000000000000000000000\n      dup2\n      mstore\n      0x04\n      add\n      tag_218\n      swap2\n      swap1\n      tag_55\n      jump\t// in\n    tag_218:\n      mload(0x40)\n      dup1\n      swap2\n      sub\n      swap1\n      revert\n        /* \"Objectron/OperatorFilterRegistry.sol\":4788:4877  if (registration == address(0)) {... */\n    tag_217:\n        /* \"Objectron/OperatorFilterRegistry.sol\":4906:4916  registrant */\n      dup3\n        /* \"Objectron/OperatorFilterRegistry.sol\":4890:4916  registration != registrant */\n      0xffffffffffffffffffffffffffffffffffffffff\n      and\n        /* \"Objectron/OperatorFilterRegistry.sol\":4890:4902  registration */\n      dup2\n        /* \"Objectron/OperatorFilterRegistry.sol\":4890:4916  registration != registrant */\n      0xffffffffffffffffffffffffffffffffffffffff\n      and\n      eq\n        /* \"Objectron/OperatorFilterRegistry.sol\":4886:5059  if (registration != registrant) {... */\n      tag_219\n      jumpi\n        /* \"Objectron/OperatorFilterRegistry.sol\":4932:4977  _subscribers[registration].remove(registrant) */\n      tag_220\n        /* \"Objectron/OperatorFilterRegistry.sol\":4966:4976  registrant */\n      dup4\n        /* \"Objectron/OperatorFilterRegistry.sol\":4932:4944  _subscribers */\n      0x03\n        /* \"Objectron/OperatorFilterRegistry.sol\":4932:4958  _subscribers[registration] */\n      0x00\n        /* \"Objectron/OperatorFilterRegistry.sol\":4945:4957  registration */\n      dup5\n        /* \"Objectron/OperatorFilterRegistry.sol\":4932:4958  _subscribers[registration] */\n      0xffffffffffffffffffffffffffffffffffffffff\n      and\n      0xffffffffffffffffffffffffffffffffffffffff\n      and\n      dup2\n      mstore\n      0x20\n      add\n      swap1\n      dup2\n      mstore\n      0x20\n      add\n      0x00\n      keccak256\n        /* \"Objectron/OperatorFilterRegistry.sol\":4932:4965  _subscribers[registration].remove */\n      tag_221\n      swap1\n        /* \"Objectron/OperatorFilterRegistry.sol\":4932:4977  _subscribers[registration].remove(registrant) */\n      swap2\n      swap1\n      0xffffffff\n      and\n      jump\t// in\n    tag_220:\n      pop\n        /* \"Objectron/OperatorFilterRegistry.sol\":5042:5047  false */\n      0x00\n        /* \"Objectron/OperatorFilterRegistry.sol\":4996:5048  SubscriptionUpdated(registrant, registration, false) */\n      iszero\n      iszero\n        /* \"Objectron/OperatorFilterRegistry.sol\":5028:5040  registration */\n      dup2\n        /* \"Objectron/OperatorFilterRegistry.sol\":4996:5048  SubscriptionUpdated(registrant, registration, false) */\n      0xffffffffffffffffffffffffffffffffffffffff\n      and\n        /* \"Objectron/OperatorFilterRegistry.sol\":5016:5026  registrant */\n      dup5\n        /* \"Objectron/OperatorFilterRegistry.sol\":4996:5048  SubscriptionUpdated(registrant, registration, false) */\n      0xffffffffffffffffffffffffffffffffffffffff\n      and\n      0x38c54977604f1a5c0a3604cbbecd0153c81e3131799ead95755e8bb5d5b9e8\n      mload(0x40)\n      mload(0x40)\n      dup1\n      swap2\n      sub\n      swap1\n      log4\n        /* \"Objectron/OperatorFilterRegistry.sol\":4886:5059  if (registration != registrant) {... */\n    tag_219:\n        /* \"Objectron/OperatorFilterRegistry.sol\":5105:5106  0 */\n      0x00\n        /* \"Objectron/OperatorFilterRegistry.sol\":5068:5082  _registrations */\n      0x02\n        /* \"Objectron/OperatorFilterRegistry.sol\":5068:5094  _registrations[registrant] */\n      0x00\n        /* \"Objectron/OperatorFilterRegistry.sol\":5083:5093  registrant */\n      dup6\n        /* \"Objectron/OperatorFilterRegistry.sol\":5068:5094  _registrations[registrant] */\n      0xffffffffffffffffffffffffffffffffffffffff\n      and\n      0xffffffffffffffffffffffffffffffffffffffff\n      and\n      dup2\n      mstore\n      0x20\n      add\n      swap1\n      dup2\n      mstore\n      0x20\n      add\n      0x00\n      keccak256\n      0x00\n        /* \"Objectron/OperatorFilterRegistry.sol\":5068:5107  _registrations[registrant] = address(0) */\n      0x0100\n      exp\n      dup2\n      sload\n      dup2\n      0xffffffffffffffffffffffffffffffffffffffff\n      mul\n      not\n      and\n      swap1\n      dup4\n      0xffffffffffffffffffffffffffffffffffffffff\n      and\n      mul\n      or\n      swap1\n      sstore\n      pop\n        /* \"Objectron/OperatorFilterRegistry.sol\":5154:5159  false */\n      0x00\n        /* \"Objectron/OperatorFilterRegistry.sol\":5122:5160  RegistrationUpdated(registrant, false) */\n      iszero\n      iszero\n        /* \"Objectron/OperatorFilterRegistry.sol\":5142:5152  registrant */\n      dup4\n        /* \"Objectron/OperatorFilterRegistry.sol\":5122:5160  RegistrationUpdated(registrant, false) */\n      0xffffffffffffffffffffffffffffffffffffffff\n      and\n      0x86d03f430c7616021073d7a71766f632f1ce19f289aa989534d9f4732253eb59\n      mload(0x40)\n      mload(0x40)\n      dup1\n      swap2\n      sub\n      swap1\n      log3\n        /* \"Objectron/OperatorFilterRegistry.sol\":4719:5167  {... */\n      pop\n        /* \"Objectron/OperatorFilterRegistry.sol\":4639:5167  function unregister(address registrant) external onlyAddressOrOwner(registrant) {... */\n      pop\n      pop\n      jump\t// out\n        /* \"Objectron/OperatorFilterRegistry.sol\":15922:16549  function unsubscribe(address registrant, bool copyExistingEntries) external onlyAddressOrOwner(registrant) {... */\n    tag_50:\n        /* \"Objectron/OperatorFilterRegistry.sol\":16017:16027  registrant */\n      dup2\n        /* \"Objectron/OperatorFilterRegistry.sol\":1693:1697  addr */\n      dup1\n        /* \"Objectron/OperatorFilterRegistry.sol\":1679:1697  msg.sender != addr */\n      0xffffffffffffffffffffffffffffffffffffffff\n      and\n        /* \"Objectron/OperatorFilterRegistry.sol\":1679:1689  msg.sender */\n      caller\n        /* \"Objectron/OperatorFilterRegistry.sol\":1679:1697  msg.sender != addr */\n      0xffffffffffffffffffffffffffffffffffffffff\n      and\n      eq\n        /* \"Objectron/OperatorFilterRegistry.sol\":1675:2239  if (msg.sender != addr) {... */\n      tag_223\n      jumpi\n        /* \"Objectron/OperatorFilterRegistry.sol\":1725:1729  addr */\n      dup1\n        /* \"Objectron/OperatorFilterRegistry.sol\":1717:1736  Ownable(addr).owner */\n      0xffffffffffffffffffffffffffffffffffffffff\n      and\n      0x8da5cb5b\n        /* \"Objectron/OperatorFilterRegistry.sol\":1717:1738  Ownable(addr).owner() */\n      mload(0x40)\n      dup2\n      0xffffffff\n      and\n      0xe0\n      shl\n      dup2\n      mstore\n      0x04\n      add\n      0x20\n      mload(0x40)\n      dup1\n      dup4\n      sub\n      dup2\n      dup7\n      gas\n      staticcall\n      swap3\n      pop\n      pop\n      pop\n      dup1\n      iszero\n      tag_224\n      jumpi\n      pop\n      mload(0x40)\n      returndatasize\n      not(0x1f)\n      0x1f\n      dup3\n      add\n      and\n      dup3\n      add\n      dup1\n      0x40\n      mstore\n      pop\n      dup2\n      add\n      swap1\n      tag_225\n      swap2\n      swap1\n      tag_133\n      jump\t// in\n    tag_225:\n      0x01\n    tag_224:\n        /* \"Objectron/OperatorFilterRegistry.sol\":1713:2229  try Ownable(addr).owner() returns (address owner) {... */\n      tag_226\n      jumpi\n      returndatasize\n      dup1\n      0x00\n      dup2\n      eq\n      tag_231\n      jumpi\n      mload(0x40)\n      swap2\n      pop\n      and(add(returndatasize, 0x3f), not(0x1f))\n      dup3\n      add\n      0x40\n      mstore\n      returndatasize\n      dup3\n      mstore\n      returndatasize\n      0x00\n      0x20\n      dup5\n      add\n      returndatacopy\n      jump(tag_230)\n    tag_231:\n      0x60\n      swap2\n      pop\n    tag_230:\n      pop\n        /* \"Objectron/OperatorFilterRegistry.sol\":1956:1957  0 */\n      0x00\n        /* \"Objectron/OperatorFilterRegistry.sol\":1939:1945  reason */\n      dup2\n        /* \"Objectron/OperatorFilterRegistry.sol\":1939:1952  reason.length */\n      mload\n        /* \"Objectron/OperatorFilterRegistry.sol\":1939:1957  reason.length == 0 */\n      sub\n        /* \"Objectron/OperatorFilterRegistry.sol\":1935:2215  if (reason.length == 0) {... */\n      tag_232\n      jumpi\n        /* \"Objectron/OperatorFilterRegistry.sol\":1988:2000  NotOwnable() */\n      mload(0x40)\n      0xb2c1414000000000000000000000000000000000000000000000000000000000\n      dup2\n      mstore\n      0x04\n      add\n      mload(0x40)\n      dup1\n      swap2\n      sub\n      swap1\n      revert\n        /* \"Objectron/OperatorFilterRegistry.sol\":1935:2215  if (reason.length == 0) {... */\n    tag_232:\n        /* \"Objectron/OperatorFilterRegistry.sol\":2167:2173  reason */\n      dup1\n        /* \"Objectron/OperatorFilterRegistry.sol\":2161:2174  mload(reason) */\n      mload\n        /* \"Objectron/OperatorFilterRegistry.sol\":2152:2158  reason */\n      dup2\n        /* \"Objectron/OperatorFilterRegistry.sol\":2148:2150  32 */\n      0x20\n        /* \"Objectron/OperatorFilterRegistry.sol\":2144:2159  add(32, reason) */\n      add\n        /* \"Objectron/OperatorFilterRegistry.sol\":2137:2175  revert(add(32, reason), mload(reason)) */\n      revert\n        /* \"Objectron/OperatorFilterRegistry.sol\":1713:2229  try Ownable(addr).owner() returns (address owner) {... */\n    tag_226:\n        /* \"Objectron/OperatorFilterRegistry.sol\":1799:1804  owner */\n      dup1\n        /* \"Objectron/OperatorFilterRegistry.sol\":1785:1804  msg.sender != owner */\n      0xffffffffffffffffffffffffffffffffffffffff\n      and\n        /* \"Objectron/OperatorFilterRegistry.sol\":1785:1795  msg.sender */\n      caller\n        /* \"Objectron/OperatorFilterRegistry.sol\":1785:1804  msg.sender != owner */\n      0xffffffffffffffffffffffffffffffffffffffff\n      and\n      eq\n        /* \"Objectron/OperatorFilterRegistry.sol\":1781:1874  if (msg.sender != owner) {... */\n      tag_235\n      jumpi\n        /* \"Objectron/OperatorFilterRegistry.sol\":1835:1855  OnlyAddressOrOwner() */\n      mload(0x40)\n      0xfcf5eff800000000000000000000000000000000000000000000000000000000\n      dup2\n      mstore\n      0x04\n      add\n      mload(0x40)\n      dup1\n      swap2\n      sub\n      swap1\n      revert\n        /* \"Objectron/OperatorFilterRegistry.sol\":1781:1874  if (msg.sender != owner) {... */\n    tag_235:\n        /* \"Objectron/OperatorFilterRegistry.sol\":1739:1888  returns (address owner) {... */\n      pop\n        /* \"Objectron/OperatorFilterRegistry.sol\":1675:2239  if (msg.sender != addr) {... */\n    tag_223:\n        /* \"Objectron/OperatorFilterRegistry.sol\":16039:16059  address registration */\n      0x00\n        /* \"Objectron/OperatorFilterRegistry.sol\":16062:16076  _registrations */\n      0x02\n        /* \"Objectron/OperatorFilterRegistry.sol\":16062:16088  _registrations[registrant] */\n      0x00\n        /* \"Objectron/OperatorFilterRegistry.sol\":16077:16087  registrant */\n      dup6\n        /* \"Objectron/OperatorFilterRegistry.sol\":16062:16088  _registrations[registrant] */\n      0xffffffffffffffffffffffffffffffffffffffff\n      and\n      0xffffffffffffffffffffffffffffffffffffffff\n      and\n      dup2\n      mstore\n      0x20\n      add\n      swap1\n      dup2\n      mstore\n      0x20\n      add\n      0x00\n      keccak256\n      0x00\n      swap1\n      sload\n      swap1\n      0x0100\n      exp\n      swap1\n      div\n      0xffffffffffffffffffffffffffffffffffffffff\n      and\n        /* \"Objectron/OperatorFilterRegistry.sol\":16039:16088  address registration = _registrations[registrant] */\n      swap1\n      pop\n        /* \"Objectron/OperatorFilterRegistry.sol\":16126:16127  0 */\n      0x00\n        /* \"Objectron/OperatorFilterRegistry.sol\":16102:16128  registration == address(0) */\n      0xffffffffffffffffffffffffffffffffffffffff\n      and\n        /* \"Objectron/OperatorFilterRegistry.sol\":16102:16114  registration */\n      dup2\n        /* \"Objectron/OperatorFilterRegistry.sol\":16102:16128  registration == address(0) */\n      0xffffffffffffffffffffffffffffffffffffffff\n      and\n      sub\n        /* \"Objectron/OperatorFilterRegistry.sol\":16098:16187  if (registration == address(0)) {... */\n      tag_237\n      jumpi\n        /* \"Objectron/OperatorFilterRegistry.sol\":16165:16175  registrant */\n      dup4\n        /* \"Objectron/OperatorFilterRegistry.sol\":16151:16176  NotRegistered(registrant) */\n      mload(0x40)\n      0xbfc6c33700000000000000000000000000000000000000000000000000000000\n      dup2\n      mstore\n      0x04\n      add\n      tag_238\n      swap2\n      swap1\n      tag_55\n      jump\t// in\n    tag_238:\n      mload(0x40)\n      dup1\n      swap2\n      sub\n      swap1\n      revert\n        /* \"Objectron/OperatorFilterRegistry.sol\":16098:16187  if (registration == address(0)) {... */\n    tag_237:\n        /* \"Objectron/OperatorFilterRegistry.sol\":16216:16226  registrant */\n      dup4\n        /* \"Objectron/OperatorFilterRegistry.sol\":16200:16226  registration == registrant */\n      0xffffffffffffffffffffffffffffffffffffffff\n      and\n        /* \"Objectron/OperatorFilterRegistry.sol\":16200:16212  registration */\n      dup2\n        /* \"Objectron/OperatorFilterRegistry.sol\":16200:16226  registration == registrant */\n      0xffffffffffffffffffffffffffffffffffffffff\n      and\n      sub\n        /* \"Objectron/OperatorFilterRegistry.sol\":16196:16275  if (registration == registrant) {... */\n      tag_239\n      jumpi\n        /* \"Objectron/OperatorFilterRegistry.sol\":16249:16264  NotSubscribed() */\n      mload(0x40)\n      0x237e6c2800000000000000000000000000000000000000000000000000000000\n      dup2\n      mstore\n      0x04\n      add\n      mload(0x40)\n      dup1\n      swap2\n      sub\n      swap1\n      revert\n        /* \"Objectron/OperatorFilterRegistry.sol\":16196:16275  if (registration == registrant) {... */\n    tag_239:\n        /* \"Objectron/OperatorFilterRegistry.sol\":16284:16329  _subscribers[registration].remove(registrant) */\n      tag_240\n        /* \"Objectron/OperatorFilterRegistry.sol\":16318:16328  registrant */\n      dup5\n        /* \"Objectron/OperatorFilterRegistry.sol\":16284:16296  _subscribers */\n      0x03\n        /* \"Objectron/OperatorFilterRegistry.sol\":16284:16310  _subscribers[registration] */\n      0x00\n        /* \"Objectron/OperatorFilterRegistry.sol\":16297:16309  registration */\n      dup5\n        /* \"Objectron/OperatorFilterRegistry.sol\":16284:16310  _subscribers[registration] */\n      0xffffffffffffffffffffffffffffffffffffffff\n      and\n      0xffffffffffffffffffffffffffffffffffffffff\n      and\n      dup2\n      mstore\n      0x20\n      add\n      swap1\n      dup2\n      mstore\n      0x20\n      add\n      0x00\n      keccak256\n        /* \"Objectron/OperatorFilterRegistry.sol\":16284:16317  _subscribers[registration].remove */\n      tag_221\n      swap1\n        /* \"Objectron/OperatorFilterRegistry.sol\":16284:16329  _subscribers[registration].remove(registrant) */\n      swap2\n      swap1\n      0xffffffff\n      and\n      jump\t// in\n    tag_240:\n      pop\n        /* \"Objectron/OperatorFilterRegistry.sol\":16368:16378  registrant */\n      dup4\n        /* \"Objectron/OperatorFilterRegistry.sol\":16339:16353  _registrations */\n      0x02\n        /* \"Objectron/OperatorFilterRegistry.sol\":16339:16365  _registrations[registrant] */\n      0x00\n        /* \"Objectron/OperatorFilterRegistry.sol\":16354:16364  registrant */\n      dup7\n        /* \"Objectron/OperatorFilterRegistry.sol\":16339:16365  _registrations[registrant] */\n      0xffffffffffffffffffffffffffffffffffffffff\n      and\n      0xffffffffffffffffffffffffffffffffffffffff\n      and\n      dup2\n      mstore\n      0x20\n      add\n      swap1\n      dup2\n      mstore\n      0x20\n      add\n      0x00\n      keccak256\n      0x00\n        /* \"Objectron/OperatorFilterRegistry.sol\":16339:16378  _registrations[registrant] = registrant */\n      0x0100\n      exp\n      dup2\n      sload\n      dup2\n      0xffffffffffffffffffffffffffffffffffffffff\n      mul\n      not\n      and\n      swap1\n      dup4\n      0xffffffffffffffffffffffffffffffffffffffff\n      and\n      mul\n      or\n      swap1\n      sstore\n      pop\n        /* \"Objectron/OperatorFilterRegistry.sol\":16439:16444  false */\n      0x00\n        /* \"Objectron/OperatorFilterRegistry.sol\":16393:16445  SubscriptionUpdated(registrant, registration, false) */\n      iszero\n      iszero\n        /* \"Objectron/OperatorFilterRegistry.sol\":16425:16437  registration */\n      dup2\n        /* \"Objectron/OperatorFilterRegistry.sol\":16393:16445  SubscriptionUpdated(registrant, registration, false) */\n      0xffffffffffffffffffffffffffffffffffffffff\n      and\n        /* \"Objectron/OperatorFilterRegistry.sol\":16413:16423  registrant */\n      dup6\n        /* \"Objectron/OperatorFilterRegistry.sol\":16393:16445  SubscriptionUpdated(registrant, registration, false) */\n      0xffffffffffffffffffffffffffffffffffffffff\n      and\n      0x38c54977604f1a5c0a3604cbbecd0153c81e3131799ead95755e8bb5d5b9e8\n      mload(0x40)\n      mload(0x40)\n      dup1\n      swap2\n      sub\n      swap1\n      log4\n        /* \"Objectron/OperatorFilterRegistry.sol\":16459:16478  copyExistingEntries */\n      dup3\n        /* \"Objectron/OperatorFilterRegistry.sol\":16455:16543  if (copyExistingEntries) {... */\n      iszero\n      tag_241\n      jumpi\n        /* \"Objectron/OperatorFilterRegistry.sol\":16494:16532  _copyEntries(registrant, registration) */\n      tag_242\n        /* \"Objectron/OperatorFilterRegistry.sol\":16507:16517  registrant */\n      dup5\n        /* \"Objectron/OperatorFilterRegistry.sol\":16519:16531  registration */\n      dup3\n        /* \"Objectron/OperatorFilterRegistry.sol\":16494:16506  _copyEntries */\n      tag_196\n        /* \"Objectron/OperatorFilterRegistry.sol\":16494:16532  _copyEntries(registrant, registration) */\n      jump\t// in\n    tag_242:\n        /* \"Objectron/OperatorFilterRegistry.sol\":16455:16543  if (copyExistingEntries) {... */\n    tag_241:\n        /* \"Objectron/OperatorFilterRegistry.sol\":16029:16549  {... */\n      pop\n        /* \"Objectron/OperatorFilterRegistry.sol\":15922:16549  function unsubscribe(address registrant, bool copyExistingEntries) external onlyAddressOrOwner(registrant) {... */\n      pop\n      pop\n      pop\n      jump\t// out\n        /* \"Objectron/OperatorFilterRegistry.sol\":18822:19155  function subscriptionOf(address registrant) external view returns (address subscription) {... */\n    tag_53:\n        /* \"Objectron/OperatorFilterRegistry.sol\":18889:18909  address subscription */\n      0x00\n        /* \"Objectron/OperatorFilterRegistry.sol\":18936:18950  _registrations */\n      0x02\n        /* \"Objectron/OperatorFilterRegistry.sol\":18936:18962  _registrations[registrant] */\n      0x00\n        /* \"Objectron/OperatorFilterRegistry.sol\":18951:18961  registrant */\n      dup4\n        /* \"Objectron/OperatorFilterRegistry.sol\":18936:18962  _registrations[registrant] */\n      0xffffffffffffffffffffffffffffffffffffffff\n      and\n      0xffffffffffffffffffffffffffffffffffffffff\n      and\n      dup2\n      mstore\n      0x20\n      add\n      swap1\n      dup2\n      mstore\n      0x20\n      add\n      0x00\n      keccak256\n      0x00\n      swap1\n      sload\n      swap1\n      0x0100\n      exp\n      swap1\n      div\n      0xffffffffffffffffffffffffffffffffffffffff\n      and\n        /* \"Objectron/OperatorFilterRegistry.sol\":18921:18962  subscription = _registrations[registrant] */\n      swap1\n      pop\n        /* \"Objectron/OperatorFilterRegistry.sol\":19000:19001  0 */\n      0x00\n        /* \"Objectron/OperatorFilterRegistry.sol\":18976:19002  subscription == address(0) */\n      0xffffffffffffffffffffffffffffffffffffffff\n      and\n        /* \"Objectron/OperatorFilterRegistry.sol\":18976:18988  subscription */\n      dup2\n        /* \"Objectron/OperatorFilterRegistry.sol\":18976:19002  subscription == address(0) */\n      0xffffffffffffffffffffffffffffffffffffffff\n      and\n      sub\n        /* \"Objectron/OperatorFilterRegistry.sol\":18972:19149  if (subscription == address(0)) {... */\n      tag_244\n      jumpi\n        /* \"Objectron/OperatorFilterRegistry.sol\":19039:19049  registrant */\n      dup2\n        /* \"Objectron/OperatorFilterRegistry.sol\":19025:19050  NotRegistered(registrant) */\n      mload(0x40)\n      0xbfc6c33700000000000000000000000000000000000000000000000000000000\n      dup2\n      mstore\n      0x04\n      add\n      tag_245\n      swap2\n      swap1\n      tag_55\n      jump\t// in\n    tag_245:\n      mload(0x40)\n      dup1\n      swap2\n      sub\n      swap1\n      revert\n        /* \"Objectron/OperatorFilterRegistry.sol\":18972:19149  if (subscription == address(0)) {... */\n    tag_244:\n        /* \"Objectron/OperatorFilterRegistry.sol\":19087:19097  registrant */\n      dup2\n        /* \"Objectron/OperatorFilterRegistry.sol\":19071:19097  subscription == registrant */\n      0xffffffffffffffffffffffffffffffffffffffff\n      and\n        /* \"Objectron/OperatorFilterRegistry.sol\":19071:19083  subscription */\n      dup2\n        /* \"Objectron/OperatorFilterRegistry.sol\":19071:19097  subscription == registrant */\n      0xffffffffffffffffffffffffffffffffffffffff\n      and\n      sub\n        /* \"Objectron/OperatorFilterRegistry.sol\":19067:19149  if (subscription == registrant) {... */\n      tag_247\n      jumpi\n        /* \"Objectron/OperatorFilterRegistry.sol\":19136:19137  0 */\n      0x00\n        /* \"Objectron/OperatorFilterRegistry.sol\":19113:19138  subscription = address(0) */\n      swap1\n      pop\n        /* \"Objectron/OperatorFilterRegistry.sol\":19067:19149  if (subscription == registrant) {... */\n    tag_247:\n        /* \"Objectron/OperatorFilterRegistry.sol\":18822:19155  function subscriptionOf(address registrant) external view returns (address subscription) {... */\n      swap2\n      swap1\n      pop\n      jump\t// out\n        /* \"Objectron/OperatorFilterRegistry.sol\":22706:23039  function filteredOperatorAt(address registrant, uint256 index) external view returns (address) {... */\n    tag_59:\n        /* \"Objectron/OperatorFilterRegistry.sol\":22792:22799  address */\n      0x00\n        /* \"Objectron/OperatorFilterRegistry.sol\":22811:22831  address registration */\n      dup1\n        /* \"Objectron/OperatorFilterRegistry.sol\":22834:22848  _registrations */\n      0x02\n        /* \"Objectron/OperatorFilterRegistry.sol\":22834:22860  _registrations[registrant] */\n      0x00\n        /* \"Objectron/OperatorFilterRegistry.sol\":22849:22859  registrant */\n      dup6\n        /* \"Objectron/OperatorFilterRegistry.sol\":22834:22860  _registrations[registrant] */\n      0xffffffffffffffffffffffffffffffffffffffff\n      and\n      0xffffffffffffffffffffffffffffffffffffffff\n      and\n      dup2\n      mstore\n      0x20\n      add\n      swap1\n      dup2\n      mstore\n      0x20\n      add\n      0x00\n      keccak256\n      0x00\n      swap1\n      sload\n      swap1\n      0x0100\n      exp\n      swap1\n      div\n      0xffffffffffffffffffffffffffffffffffffffff\n      and\n        /* \"Objectron/OperatorFilterRegistry.sol\":22811:22860  address registration = _registrations[registrant] */\n      swap1\n      pop\n        /* \"Objectron/OperatorFilterRegistry.sol\":22890:22900  registrant */\n      dup4\n        /* \"Objectron/OperatorFilterRegistry.sol\":22874:22900  registration != registrant */\n      0xffffffffffffffffffffffffffffffffffffffff\n      and\n        /* \"Objectron/OperatorFilterRegistry.sol\":22874:22886  registration */\n      dup2\n        /* \"Objectron/OperatorFilterRegistry.sol\":22874:22900  registration != registrant */\n      0xffffffffffffffffffffffffffffffffffffffff\n      and\n      eq\n        /* \"Objectron/OperatorFilterRegistry.sol\":22870:22976  if (registration != registrant) {... */\n      tag_249\n      jumpi\n        /* \"Objectron/OperatorFilterRegistry.sol\":22923:22965  _filteredOperators[registration].at(index) */\n      tag_250\n        /* \"Objectron/OperatorFilterRegistry.sol\":22959:22964  index */\n      dup4\n        /* \"Objectron/OperatorFilterRegistry.sol\":22923:22941  _filteredOperators */\n      0x00\n        /* \"Objectron/OperatorFilterRegistry.sol\":22923:22955  _filteredOperators[registration] */\n      dup1\n        /* \"Objectron/OperatorFilterRegistry.sol\":22942:22954  registration */\n      dup5\n        /* \"Objectron/OperatorFilterRegistry.sol\":22923:22955  _filteredOperators[registration] */\n      0xffffffffffffffffffffffffffffffffffffffff\n      and\n      0xffffffffffffffffffffffffffffffffffffffff\n      and\n      dup2\n      mstore\n      0x20\n      add\n      swap1\n      dup2\n      mstore\n      0x20\n      add\n      0x00\n      keccak256\n        /* \"Objectron/OperatorFilterRegistry.sol\":22923:22958  _filteredOperators[registration].at */\n      tag_251\n      swap1\n        /* \"Objectron/OperatorFilterRegistry.sol\":22923:22965  _filteredOperators[registration].at(index) */\n      swap2\n      swap1\n      0xffffffff\n      and\n      jump\t// in\n    tag_250:\n        /* \"Objectron/OperatorFilterRegistry.sol\":22916:22965  return _filteredOperators[registration].at(index) */\n      swap2\n      pop\n      pop\n      jump(tag_248)\n        /* \"Objectron/OperatorFilterRegistry.sol\":22870:22976  if (registration != registrant) {... */\n    tag_249:\n        /* \"Objectron/OperatorFilterRegistry.sol\":22992:23032  _filteredOperators[registrant].at(index) */\n      tag_252\n        /* \"Objectron/OperatorFilterRegistry.sol\":23026:23031  index */\n      dup4\n        /* \"Objectron/OperatorFilterRegistry.sol\":22992:23010  _filteredOperators */\n      0x00\n        /* \"Objectron/OperatorFilterRegistry.sol\":22992:23022  _filteredOperators[registrant] */\n      dup1\n        /* \"Objectron/OperatorFilterRegistry.sol\":23011:23021  registrant */\n      dup8\n        /* \"Objectron/OperatorFilterRegistry.sol\":22992:23022  _filteredOperators[registrant] */\n      0xffffffffffffffffffffffffffffffffffffffff\n      and\n      0xffffffffffffffffffffffffffffffffffffffff\n      and\n      dup2\n      mstore\n      0x20\n      add\n      swap1\n      dup2\n      mstore\n      0x20\n      add\n      0x00\n      keccak256\n        /* \"Objectron/OperatorFilterRegistry.sol\":22992:23025  _filteredOperators[registrant].at */\n      tag_251\n      swap1\n        /* \"Objectron/OperatorFilterRegistry.sol\":22992:23032  _filteredOperators[registrant].at(index) */\n      swap2\n      swap1\n      0xffffffff\n      and\n      jump\t// in\n    tag_252:\n        /* \"Objectron/OperatorFilterRegistry.sol\":22985:23032  return _filteredOperators[registrant].at(index) */\n      swap2\n      pop\n      pop\n        /* \"Objectron/OperatorFilterRegistry.sol\":22706:23039  function filteredOperatorAt(address registrant, uint256 index) external view returns (address) {... */\n    tag_248:\n      swap3\n      swap2\n      pop\n      pop\n      jump\t// out\n        /* \"Objectron/OperatorFilterRegistry.sol\":3955:4247  function register(address registrant) external onlyAddressOrOwner(registrant) {... */\n    tag_63:\n        /* \"Objectron/OperatorFilterRegistry.sol\":4021:4031  registrant */\n      dup1\n        /* \"Objectron/OperatorFilterRegistry.sol\":1693:1697  addr */\n      dup1\n        /* \"Objectron/OperatorFilterRegistry.sol\":1679:1697  msg.sender != addr */\n      0xffffffffffffffffffffffffffffffffffffffff\n      and\n        /* \"Objectron/OperatorFilterRegistry.sol\":1679:1689  msg.sender */\n      caller\n        /* \"Objectron/OperatorFilterRegistry.sol\":1679:1697  msg.sender != addr */\n      0xffffffffffffffffffffffffffffffffffffffff\n      and\n      eq\n        /* \"Objectron/OperatorFilterRegistry.sol\":1675:2239  if (msg.sender != addr) {... */\n      tag_254\n      jumpi\n        /* \"Objectron/OperatorFilterRegistry.sol\":1725:1729  addr */\n      dup1\n        /* \"Objectron/OperatorFilterRegistry.sol\":1717:1736  Ownable(addr).owner */\n      0xffffffffffffffffffffffffffffffffffffffff\n      and\n      0x8da5cb5b\n        /* \"Objectron/OperatorFilterRegistry.sol\":1717:1738  Ownable(addr).owner() */\n      mload(0x40)\n      dup2\n      0xffffffff\n      and\n      0xe0\n      shl\n      dup2\n      mstore\n      0x04\n      add\n      0x20\n      mload(0x40)\n      dup1\n      dup4\n      sub\n      dup2\n      dup7\n      gas\n      staticcall\n      swap3\n      pop\n      pop\n      pop\n      dup1\n      iszero\n      tag_255\n      jumpi\n      pop\n      mload(0x40)\n      returndatasize\n      not(0x1f)\n      0x1f\n      dup3\n      add\n      and\n      dup3\n      add\n      dup1\n      0x40\n      mstore\n      pop\n      dup2\n      add\n      swap1\n      tag_256\n      swap2\n      swap1\n      tag_133\n      jump\t// in\n    tag_256:\n      0x01\n    tag_255:\n        /* \"Objectron/OperatorFilterRegistry.sol\":1713:2229  try Ownable(addr).owner() returns (address owner) {... */\n      tag_257\n      jumpi\n      returndatasize\n      dup1\n      0x00\n      dup2\n      eq\n      tag_262\n      jumpi\n      mload(0x40)\n      swap2\n      pop\n      and(add(returndatasize, 0x3f), not(0x1f))\n      dup3\n      add\n      0x40\n      mstore\n      returndatasize\n      dup3\n      mstore\n      returndatasize\n      0x00\n      0x20\n      dup5\n      add\n      returndatacopy\n      jump(tag_261)\n    tag_262:\n      0x60\n      swap2\n      pop\n    tag_261:\n      pop\n        /* \"Objectron/OperatorFilterRegistry.sol\":1956:1957  0 */\n      0x00\n        /* \"Objectron/OperatorFilterRegistry.sol\":1939:1945  reason */\n      dup2\n        /* \"Objectron/OperatorFilterRegistry.sol\":1939:1952  reason.length */\n      mload\n        /* \"Objectron/OperatorFilterRegistry.sol\":1939:1957  reason.length == 0 */\n      sub\n        /* \"Objectron/OperatorFilterRegistry.sol\":1935:2215  if (reason.length == 0) {... */\n      tag_263\n      jumpi\n        /* \"Objectron/OperatorFilterRegistry.sol\":1988:2000  NotOwnable() */\n      mload(0x40)\n      0xb2c1414000000000000000000000000000000000000000000000000000000000\n      dup2\n      mstore\n      0x04\n      add\n      mload(0x40)\n      dup1\n      swap2\n      sub\n      swap1\n      revert\n        /* \"Objectron/OperatorFilterRegistry.sol\":1935:2215  if (reason.length == 0) {... */\n    tag_263:\n        /* \"Objectron/OperatorFilterRegistry.sol\":2167:2173  reason */\n      dup1\n        /* \"Objectron/OperatorFilterRegistry.sol\":2161:2174  mload(reason) */\n      mload\n        /* \"Objectron/OperatorFilterRegistry.sol\":2152:2158  reason */\n      dup2\n        /* \"Objectron/OperatorFilterRegistry.sol\":2148:2150  32 */\n      0x20\n        /* \"Objectron/OperatorFilterRegistry.sol\":2144:2159  add(32, reason) */\n      add\n        /* \"Objectron/OperatorFilterRegistry.sol\":2137:2175  revert(add(32, reason), mload(reason)) */\n      revert\n        /* \"Objectron/OperatorFilterRegistry.sol\":1713:2229  try Ownable(addr).owner() returns (address owner) {... */\n    tag_257:\n        /* \"Objectron/OperatorFilterRegistry.sol\":1799:1804  owner */\n      dup1\n        /* \"Objectron/OperatorFilterRegistry.sol\":1785:1804  msg.sender != owner */\n      0xffffffffffffffffffffffffffffffffffffffff\n      and\n        /* \"Objectron/OperatorFilterRegistry.sol\":1785:1795  msg.sender */\n      caller\n        /* \"Objectron/OperatorFilterRegistry.sol\":1785:1804  msg.sender != owner */\n      0xffffffffffffffffffffffffffffffffffffffff\n      and\n      eq\n        /* \"Objectron/OperatorFilterRegistry.sol\":1781:1874  if (msg.sender != owner) {... */\n      tag_266\n      jumpi\n        /* \"Objectron/OperatorFilterRegistry.sol\":1835:1855  OnlyAddressOrOwner() */\n      mload(0x40)\n      0xfcf5eff800000000000000000000000000000000000000000000000000000000\n      dup2\n      mstore\n      0x04\n      add\n      mload(0x40)\n      dup1\n      swap2\n      sub\n      swap1\n      revert\n        /* \"Objectron/OperatorFilterRegistry.sol\":1781:1874  if (msg.sender != owner) {... */\n    tag_266:\n        /* \"Objectron/OperatorFilterRegistry.sol\":1739:1888  returns (address owner) {... */\n      pop\n        /* \"Objectron/OperatorFilterRegistry.sol\":1675:2239  if (msg.sender != addr) {... */\n    tag_254:\n        /* \"Objectron/OperatorFilterRegistry.sol\":4085:4086  0 */\n      0x00\n        /* \"Objectron/OperatorFilterRegistry.sol\":4047:4087  _registrations[registrant] != address(0) */\n      0xffffffffffffffffffffffffffffffffffffffff\n      and\n        /* \"Objectron/OperatorFilterRegistry.sol\":4047:4061  _registrations */\n      0x02\n        /* \"Objectron/OperatorFilterRegistry.sol\":4047:4073  _registrations[registrant] */\n      0x00\n        /* \"Objectron/OperatorFilterRegistry.sol\":4062:4072  registrant */\n      dup5\n        /* \"Objectron/OperatorFilterRegistry.sol\":4047:4073  _registrations[registrant] */\n      0xffffffffffffffffffffffffffffffffffffffff\n      and\n      0xffffffffffffffffffffffffffffffffffffffff\n      and\n      dup2\n      mstore\n      0x20\n      add\n      swap1\n      dup2\n      mstore\n      0x20\n      add\n      0x00\n      keccak256\n      0x00\n      swap1\n      sload\n      swap1\n      0x0100\n      exp\n      swap1\n      div\n      0xffffffffffffffffffffffffffffffffffffffff\n      and\n        /* \"Objectron/OperatorFilterRegistry.sol\":4047:4087  _registrations[registrant] != address(0) */\n      0xffffffffffffffffffffffffffffffffffffffff\n      and\n      eq\n        /* \"Objectron/OperatorFilterRegistry.sol\":4043:4140  if (_registrations[registrant] != address(0)) {... */\n      tag_268\n      jumpi\n        /* \"Objectron/OperatorFilterRegistry.sol\":4110:4129  AlreadyRegistered() */\n      mload(0x40)\n      0x3a81d6fc00000000000000000000000000000000000000000000000000000000\n      dup2\n      mstore\n      0x04\n      add\n      mload(0x40)\n      dup1\n      swap2\n      sub\n      swap1\n      revert\n        /* \"Objectron/OperatorFilterRegistry.sol\":4043:4140  if (_registrations[registrant] != address(0)) {... */\n    tag_268:\n        /* \"Objectron/OperatorFilterRegistry.sol\":4178:4188  registrant */\n      dup2\n        /* \"Objectron/OperatorFilterRegistry.sol\":4149:4163  _registrations */\n      0x02\n        /* \"Objectron/OperatorFilterRegistry.sol\":4149:4175  _registrations[registrant] */\n      0x00\n        /* \"Objectron/OperatorFilterRegistry.sol\":4164:4174  registrant */\n      dup5\n        /* \"Objectron/OperatorFilterRegistry.sol\":4149:4175  _registrations[registrant] */\n      0xffffffffffffffffffffffffffffffffffffffff\n      and\n      0xffffffffffffffffffffffffffffffffffffffff\n      and\n      dup2\n      mstore\n      0x20\n      add\n      swap1\n      dup2\n      mstore\n      0x20\n      add\n      0x00\n      keccak256\n      0x00\n        /* \"Objectron/OperatorFilterRegistry.sol\":4149:4188  _registrations[registrant] = registrant */\n      0x0100\n      exp\n      dup2\n      sload\n      dup2\n      0xffffffffffffffffffffffffffffffffffffffff\n      mul\n      not\n      and\n      swap1\n      dup4\n      0xffffffffffffffffffffffffffffffffffffffff\n      and\n      mul\n      or\n      swap1\n      sstore\n      pop\n        /* \"Objectron/OperatorFilterRegistry.sol\":4235:4239  true */\n      0x01\n        /* \"Objectron/OperatorFilterRegistry.sol\":4203:4240  RegistrationUpdated(registrant, true) */\n      iszero\n      iszero\n        /* \"Objectron/OperatorFilterRegistry.sol\":4223:4233  registrant */\n      dup3\n        /* \"Objectron/OperatorFilterRegistry.sol\":4203:4240  RegistrationUpdated(registrant, true) */\n      0xffffffffffffffffffffffffffffffffffffffff\n      and\n      0x86d03f430c7616021073d7a71766f632f1ce19f289aa989534d9f4732253eb59\n      mload(0x40)\n      mload(0x40)\n      dup1\n      swap2\n      sub\n      swap1\n      log3\n        /* \"Objectron/OperatorFilterRegistry.sol\":3955:4247  function register(address registrant) external onlyAddressOrOwner(registrant) {... */\n      pop\n      pop\n      jump\t// out\n        /* \"Objectron/OperatorFilterRegistry.sol\":19661:19808  function subscriberAt(address registrant, uint256 index) external view returns (address) {... */\n    tag_66:\n        /* \"Objectron/OperatorFilterRegistry.sol\":19741:19748  address */\n      0x00\n        /* \"Objectron/OperatorFilterRegistry.sol\":19767:19801  _subscribers[registrant].at(index) */\n      tag_270\n        /* \"Objectron/OperatorFilterRegistry.sol\":19795:19800  index */\n      dup3\n        /* \"Objectron/OperatorFilterRegistry.sol\":19767:19779  _subscribers */\n      0x03\n        /* \"Objectron/OperatorFilterRegistry.sol\":19767:19791  _subscribers[registrant] */\n      0x00\n        /* \"Objectron/OperatorFilterRegistry.sol\":19780:19790  registrant */\n      dup7\n        /* \"Objectron/OperatorFilterRegistry.sol\":19767:19791  _subscribers[registrant] */\n      0xffffffffffffffffffffffffffffffffffffffff\n      and\n      0xffffffffffffffffffffffffffffffffffffffff\n      and\n      dup2\n      mstore\n      0x20\n      add\n      swap1\n      dup2\n      mstore\n      0x20\n      add\n      0x00\n      keccak256\n        /* \"Objectron/OperatorFilterRegistry.sol\":19767:19794  _subscribers[registrant].at */\n      tag_251\n      swap1\n        /* \"Objectron/OperatorFilterRegistry.sol\":19767:19801  _subscribers[registrant].at(index) */\n      swap2\n      swap1\n      0xffffffff\n      and\n      jump\t// in\n    tag_270:\n        /* \"Objectron/OperatorFilterRegistry.sol\":19760:19801  return _subscribers[registrant].at(index) */\n      swap1\n      pop\n        /* \"Objectron/OperatorFilterRegistry.sol\":19661:19808  function subscriberAt(address registrant, uint256 index) external view returns (address) {... */\n      swap3\n      swap2\n      pop\n      pop\n      jump\t// out\n        /* \"Objectron/OperatorFilterRegistry.sol\":19321:19460  function subscribers(address registrant) external view returns (address[] memory) {... */\n    tag_70:\n        /* \"Objectron/OperatorFilterRegistry.sol\":19385:19401  address[] memory */\n      0x60\n        /* \"Objectron/OperatorFilterRegistry.sol\":19420:19453  _subscribers[registrant].values() */\n      tag_272\n        /* \"Objectron/OperatorFilterRegistry.sol\":19420:19432  _subscribers */\n      0x03\n        /* \"Objectron/OperatorFilterRegistry.sol\":19420:19444  _subscribers[registrant] */\n      0x00\n        /* \"Objectron/OperatorFilterRegistry.sol\":19433:19443  registrant */\n      dup5\n        /* \"Objectron/OperatorFilterRegistry.sol\":19420:19444  _subscribers[registrant] */\n      0xffffffffffffffffffffffffffffffffffffffff\n      and\n      0xffffffffffffffffffffffffffffffffffffffff\n      and\n      dup2\n      mstore\n      0x20\n      add\n      swap1\n      dup2\n      mstore\n      0x20\n      add\n      0x00\n      keccak256\n        /* \"Objectron/OperatorFilterRegistry.sol\":19420:19451  _subscribers[registrant].values */\n      tag_273\n        /* \"Objectron/OperatorFilterRegistry.sol\":19420:19453  _subscribers[registrant].values() */\n      jump\t// in\n    tag_272:\n        /* \"Objectron/OperatorFilterRegistry.sol\":19413:19453  return _subscribers[registrant].values() */\n      swap1\n      pop\n        /* \"Objectron/OperatorFilterRegistry.sol\":19321:19460  function subscribers(address registrant) external view returns (address[] memory) {... */\n      swap2\n      swap1\n      pop\n      jump\t// out\n        /* \"Objectron/OperatorFilterRegistry.sol\":20877:21294  function isCodeHashOfFiltered(address registrant, address operatorWithCode) external view returns (bool) {... */\n    tag_75:\n        /* \"Objectron/OperatorFilterRegistry.sol\":20976:20980  bool */\n      0x00\n        /* \"Objectron/OperatorFilterRegistry.sol\":20992:21008  bytes32 codeHash */\n      dup1\n        /* \"Objectron/OperatorFilterRegistry.sol\":21011:21027  operatorWithCode */\n      dup3\n        /* \"Objectron/OperatorFilterRegistry.sol\":21011:21036  operatorWithCode.codehash */\n      0xffffffffffffffffffffffffffffffffffffffff\n      and\n      extcodehash\n        /* \"Objectron/OperatorFilterRegistry.sol\":20992:21036  bytes32 codeHash = operatorWithCode.codehash */\n      swap1\n      pop\n        /* \"Objectron/OperatorFilterRegistry.sol\":21046:21066  address registration */\n      0x00\n        /* \"Objectron/OperatorFilterRegistry.sol\":21069:21083  _registrations */\n      0x02\n        /* \"Objectron/OperatorFilterRegistry.sol\":21069:21095  _registrations[registrant] */\n      0x00\n        /* \"Objectron/OperatorFilterRegistry.sol\":21084:21094  registrant */\n      dup7\n        /* \"Objectron/OperatorFilterRegistry.sol\":21069:21095  _registrations[registrant] */\n      0xffffffffffffffffffffffffffffffffffffffff\n      and\n      0xffffffffffffffffffffffffffffffffffffffff\n      and\n      dup2\n      mstore\n      0x20\n      add\n      swap1\n      dup2\n      mstore\n      0x20\n      add\n      0x00\n      keccak256\n      0x00\n      swap1\n      sload\n      swap1\n      0x0100\n      exp\n      swap1\n      div\n      0xffffffffffffffffffffffffffffffffffffffff\n      and\n        /* \"Objectron/OperatorFilterRegistry.sol\":21046:21095  address registration = _registrations[registrant] */\n      swap1\n      pop\n        /* \"Objectron/OperatorFilterRegistry.sol\":21125:21135  registrant */\n      dup5\n        /* \"Objectron/OperatorFilterRegistry.sol\":21109:21135  registration != registrant */\n      0xffffffffffffffffffffffffffffffffffffffff\n      and\n        /* \"Objectron/OperatorFilterRegistry.sol\":21109:21121  registration */\n      dup2\n        /* \"Objectron/OperatorFilterRegistry.sol\":21109:21135  registration != registrant */\n      0xffffffffffffffffffffffffffffffffffffffff\n      and\n      eq\n        /* \"Objectron/OperatorFilterRegistry.sol\":21105:21221  if (registration != registrant) {... */\n      tag_275\n      jumpi\n        /* \"Objectron/OperatorFilterRegistry.sol\":21158:21210  _filteredCodeHashes[registration].contains(codeHash) */\n      tag_276\n        /* \"Objectron/OperatorFilterRegistry.sol\":21201:21209  codeHash */\n      dup3\n        /* \"Objectron/OperatorFilterRegistry.sol\":21158:21177  _filteredCodeHashes */\n      0x01\n        /* \"Objectron/OperatorFilterRegistry.sol\":21158:21191  _filteredCodeHashes[registration] */\n      0x00\n        /* \"Objectron/OperatorFilterRegistry.sol\":21178:21190  registration */\n      dup5\n        /* \"Objectron/OperatorFilterRegistry.sol\":21158:21191  _filteredCodeHashes[registration] */\n      0xffffffffffffffffffffffffffffffffffffffff\n      and\n      0xffffffffffffffffffffffffffffffffffffffff\n      and\n      dup2\n      mstore\n      0x20\n      add\n      swap1\n      dup2\n      mstore\n      0x20\n      add\n      0x00\n      keccak256\n        /* \"Objectron/OperatorFilterRegistry.sol\":21158:21200  _filteredCodeHashes[registration].contains */\n      tag_277\n      swap1\n        /* \"Objectron/OperatorFilterRegistry.sol\":21158:21210  _filteredCodeHashes[registration].contains(codeHash) */\n      swap2\n      swap1\n      0xffffffff\n      and\n      jump\t// in\n    tag_276:\n        /* \"Objectron/OperatorFilterRegistry.sol\":21151:21210  return _filteredCodeHashes[registration].contains(codeHash) */\n      swap3\n      pop\n      pop\n      pop\n      jump(tag_274)\n        /* \"Objectron/OperatorFilterRegistry.sol\":21105:21221  if (registration != registrant) {... */\n    tag_275:\n        /* \"Objectron/OperatorFilterRegistry.sol\":21237:21287  _filteredCodeHashes[registrant].contains(codeHash) */\n      tag_278\n        /* \"Objectron/OperatorFilterRegistry.sol\":21278:21286  codeHash */\n      dup3\n        /* \"Objectron/OperatorFilterRegistry.sol\":21237:21256  _filteredCodeHashes */\n      0x01\n        /* \"Objectron/OperatorFilterRegistry.sol\":21237:21268  _filteredCodeHashes[registrant] */\n      0x00\n        /* \"Objectron/OperatorFilterRegistry.sol\":21257:21267  registrant */\n      dup9\n        /* \"Objectron/OperatorFilterRegistry.sol\":21237:21268  _filteredCodeHashes[registrant] */\n      0xffffffffffffffffffffffffffffffffffffffff\n      and\n      0xffffffffffffffffffffffffffffffffffffffff\n      and\n      dup2\n      mstore\n      0x20\n      add\n      swap1\n      dup2\n      mstore\n      0x20\n      add\n      0x00\n      keccak256\n        /* \"Objectron/OperatorFilterRegistry.sol\":21237:21277  _filteredCodeHashes[registrant].contains */\n      tag_277\n      swap1\n        /* \"Objectron/OperatorFilterRegistry.sol\":21237:21287  _filteredCodeHashes[registrant].contains(codeHash) */\n      swap2\n      swap1\n      0xffffffff\n      and\n      jump\t// in\n    tag_278:\n        /* \"Objectron/OperatorFilterRegistry.sol\":21230:21287  return _filteredCodeHashes[registrant].contains(codeHash) */\n      swap3\n      pop\n      pop\n      pop\n        /* \"Objectron/OperatorFilterRegistry.sol\":20877:21294  function isCodeHashOfFiltered(address registrant, address operatorWithCode) external view returns (bool) {... */\n    tag_274:\n      swap3\n      swap2\n      pop\n      pop\n      jump\t// out\n        /* \"Objectron/OperatorFilterRegistry.sol\":20389:20742  function isCodeHashFiltered(address registrant, bytes32 codeHash) external view returns (bool) {... */\n    tag_81:\n        /* \"Objectron/OperatorFilterRegistry.sol\":20478:20482  bool */\n      0x00\n        /* \"Objectron/OperatorFilterRegistry.sol\":20494:20514  address registration */\n      dup1\n        /* \"Objectron/OperatorFilterRegistry.sol\":20517:20531  _registrations */\n      0x02\n        /* \"Objectron/OperatorFilterRegistry.sol\":20517:20543  _registrations[registrant] */\n      0x00\n        /* \"Objectron/OperatorFilterRegistry.sol\":20532:20542  registrant */\n      dup6\n        /* \"Objectron/OperatorFilterRegistry.sol\":20517:20543  _registrations[registrant] */\n      0xffffffffffffffffffffffffffffffffffffffff\n      and\n      0xffffffffffffffffffffffffffffffffffffffff\n      and\n      dup2\n      mstore\n      0x20\n      add\n      swap1\n      dup2\n      mstore\n      0x20\n      add\n      0x00\n      keccak256\n      0x00\n      swap1\n      sload\n      swap1\n      0x0100\n      exp\n      swap1\n      div\n      0xffffffffffffffffffffffffffffffffffffffff\n      and\n        /* \"Objectron/OperatorFilterRegistry.sol\":20494:20543  address registration = _registrations[registrant] */\n      swap1\n      pop\n        /* \"Objectron/OperatorFilterRegistry.sol\":20573:20583  registrant */\n      dup4\n        /* \"Objectron/OperatorFilterRegistry.sol\":20557:20583  registration != registrant */\n      0xffffffffffffffffffffffffffffffffffffffff\n      and\n        /* \"Objectron/OperatorFilterRegistry.sol\":20557:20569  registration */\n      dup2\n        /* \"Objectron/OperatorFilterRegistry.sol\":20557:20583  registration != registrant */\n      0xffffffffffffffffffffffffffffffffffffffff\n      and\n      eq\n        /* \"Objectron/OperatorFilterRegistry.sol\":20553:20669  if (registration != registrant) {... */\n      tag_280\n      jumpi\n        /* \"Objectron/OperatorFilterRegistry.sol\":20606:20658  _filteredCodeHashes[registration].contains(codeHash) */\n      tag_281\n        /* \"Objectron/OperatorFilterRegistry.sol\":20649:20657  codeHash */\n      dup4\n        /* \"Objectron/OperatorFilterRegistry.sol\":20606:20625  _filteredCodeHashes */\n      0x01\n        /* \"Objectron/OperatorFilterRegistry.sol\":20606:20639  _filteredCodeHashes[registration] */\n      0x00\n        /* \"Objectron/OperatorFilterRegistry.sol\":20626:20638  registration */\n      dup5\n        /* \"Objectron/OperatorFilterRegistry.sol\":20606:20639  _filteredCodeHashes[registration] */\n      0xffffffffffffffffffffffffffffffffffffffff\n      and\n      0xffffffffffffffffffffffffffffffffffffffff\n      and\n      dup2\n      mstore\n      0x20\n      add\n      swap1\n      dup2\n      mstore\n      0x20\n      add\n      0x00\n      keccak256\n        /* \"Objectron/OperatorFilterRegistry.sol\":20606:20648  _filteredCodeHashes[registration].contains */\n      tag_277\n      swap1\n        /* \"Objectron/OperatorFilterRegistry.sol\":20606:20658  _filteredCodeHashes[registration].contains(codeHash) */\n      swap2\n      swap1\n      0xffffffff\n      and\n      jump\t// in\n    tag_281:\n        /* \"Objectron/OperatorFilterRegistry.sol\":20599:20658  return _filteredCodeHashes[registration].contains(codeHash) */\n      swap2\n      pop\n      pop\n      jump(tag_279)\n        /* \"Objectron/OperatorFilterRegistry.sol\":20553:20669  if (registration != registrant) {... */\n    tag_280:\n        /* \"Objectron/OperatorFilterRegistry.sol\":20685:20735  _filteredCodeHashes[registrant].contains(codeHash) */\n      tag_282\n        /* \"Objectron/OperatorFilterRegistry.sol\":20726:20734  codeHash */\n      dup4\n        /* \"Objectron/OperatorFilterRegistry.sol\":20685:20704  _filteredCodeHashes */\n      0x01\n        /* \"Objectron/OperatorFilterRegistry.sol\":20685:20716  _filteredCodeHashes[registrant] */\n      0x00\n        /* \"Objectron/OperatorFilterRegistry.sol\":20705:20715  registrant */\n      dup8\n        /* \"Objectron/OperatorFilterRegistry.sol\":20685:20716  _filteredCodeHashes[registrant] */\n      0xffffffffffffffffffffffffffffffffffffffff\n      and\n      0xffffffffffffffffffffffffffffffffffffffff\n      and\n      dup2\n      mstore\n      0x20\n      add\n      swap1\n      dup2\n      mstore\n      0x20\n      add\n      0x00\n      keccak256\n        /* \"Objectron/OperatorFilterRegistry.sol\":20685:20725  _filteredCodeHashes[registrant].contains */\n      tag_277\n      swap1\n        /* \"Objectron/OperatorFilterRegistry.sol\":20685:20735  _filteredCodeHashes[registrant].contains(codeHash) */\n      swap2\n      swap1\n      0xffffffff\n      and\n      jump\t// in\n    tag_282:\n        /* \"Objectron/OperatorFilterRegistry.sol\":20678:20735  return _filteredCodeHashes[registrant].contains(codeHash) */\n      swap2\n      pop\n      pop\n        /* \"Objectron/OperatorFilterRegistry.sol\":20389:20742  function isCodeHashFiltered(address registrant, bytes32 codeHash) external view returns (bool) {... */\n    tag_279:\n      swap3\n      swap2\n      pop\n      pop\n      jump\t// out\n        /* \"Objectron/OperatorFilterRegistry.sol\":9027:10067  function updateCodeHash(address registrant, bytes32 codeHash, bool filtered)... */\n    tag_86:\n        /* \"Objectron/OperatorFilterRegistry.sol\":9148:9158  registrant */\n      dup3\n        /* \"Objectron/OperatorFilterRegistry.sol\":1693:1697  addr */\n      dup1\n        /* \"Objectron/OperatorFilterRegistry.sol\":1679:1697  msg.sender != addr */\n      0xffffffffffffffffffffffffffffffffffffffff\n      and\n        /* \"Objectron/OperatorFilterRegistry.sol\":1679:1689  msg.sender */\n      caller\n        /* \"Objectron/OperatorFilterRegistry.sol\":1679:1697  msg.sender != addr */\n      0xffffffffffffffffffffffffffffffffffffffff\n      and\n      eq\n        /* \"Objectron/OperatorFilterRegistry.sol\":1675:2239  if (msg.sender != addr) {... */\n      tag_284\n      jumpi\n        /* \"Objectron/OperatorFilterRegistry.sol\":1725:1729  addr */\n      dup1\n        /* \"Objectron/OperatorFilterRegistry.sol\":1717:1736  Ownable(addr).owner */\n      0xffffffffffffffffffffffffffffffffffffffff\n      and\n      0x8da5cb5b\n        /* \"Objectron/OperatorFilterRegistry.sol\":1717:1738  Ownable(addr).owner() */\n      mload(0x40)\n      dup2\n      0xffffffff\n      and\n      0xe0\n      shl\n      dup2\n      mstore\n      0x04\n      add\n      0x20\n      mload(0x40)\n      dup1\n      dup4\n      sub\n      dup2\n      dup7\n      gas\n      staticcall\n      swap3\n      pop\n      pop\n      pop\n      dup1\n      iszero\n      tag_285\n      jumpi\n      pop\n      mload(0x40)\n      returndatasize\n      not(0x1f)\n      0x1f\n      dup3\n      add\n      and\n      dup3\n      add\n      dup1\n      0x40\n      mstore\n      pop\n      dup2\n      add\n      swap1\n      tag_286\n      swap2\n      swap1\n      tag_133\n      jump\t// in\n    tag_286:\n      0x01\n    tag_285:\n        /* \"Objectron/OperatorFilterRegistry.sol\":1713:2229  try Ownable(addr).owner() returns (address owner) {... */\n      tag_287\n      jumpi\n      returndatasize\n      dup1\n      0x00\n      dup2\n      eq\n      tag_292\n      jumpi\n      mload(0x40)\n      swap2\n      pop\n      and(add(returndatasize, 0x3f), not(0x1f))\n      dup3\n      add\n      0x40\n      mstore\n      returndatasize\n      dup3\n      mstore\n      returndatasize\n      0x00\n      0x20\n      dup5\n      add\n      returndatacopy\n      jump(tag_291)\n    tag_292:\n      0x60\n      swap2\n      pop\n    tag_291:\n      pop\n        /* \"Objectron/OperatorFilterRegistry.sol\":1956:1957  0 */\n      0x00\n        /* \"Objectron/OperatorFilterRegistry.sol\":1939:1945  reason */\n      dup2\n        /* \"Objectron/OperatorFilterRegistry.sol\":1939:1952  reason.length */\n      mload\n        /* \"Objectron/OperatorFilterRegistry.sol\":1939:1957  reason.length == 0 */\n      sub\n        /* \"Objectron/OperatorFilterRegistry.sol\":1935:2215  if (reason.length == 0) {... */\n      tag_293\n      jumpi\n        /* \"Objectron/OperatorFilterRegistry.sol\":1988:2000  NotOwnable() */\n      mload(0x40)\n      0xb2c1414000000000000000000000000000000000000000000000000000000000\n      dup2\n      mstore\n      0x04\n      add\n      mload(0x40)\n      dup1\n      swap2\n      sub\n      swap1\n      revert\n        /* \"Objectron/OperatorFilterRegistry.sol\":1935:2215  if (reason.length == 0) {... */\n    tag_293:\n        /* \"Objectron/OperatorFilterRegistry.sol\":2167:2173  reason */\n      dup1\n        /* \"Objectron/OperatorFilterRegistry.sol\":2161:2174  mload(reason) */\n      mload\n        /* \"Objectron/OperatorFilterRegistry.sol\":2152:2158  reason */\n      dup2\n        /* \"Objectron/OperatorFilterRegistry.sol\":2148:2150  32 */\n      0x20\n        /* \"Objectron/OperatorFilterRegistry.sol\":2144:2159  add(32, reason) */\n      add\n        /* \"Objectron/OperatorFilterRegistry.sol\":2137:2175  revert(add(32, reason), mload(reason)) */\n      revert\n        /* \"Objectron/OperatorFilterRegistry.sol\":1713:2229  try Ownable(addr).owner() returns (address owner) {... */\n    tag_287:\n        /* \"Objectron/OperatorFilterRegistry.sol\":1799:1804  owner */\n      dup1\n        /* \"Objectron/OperatorFilterRegistry.sol\":1785:1804  msg.sender != owner */\n      0xffffffffffffffffffffffffffffffffffffffff\n      and\n        /* \"Objectron/OperatorFilterRegistry.sol\":1785:1795  msg.sender */\n      caller\n        /* \"Objectron/OperatorFilterRegistry.sol\":1785:1804  msg.sender != owner */\n      0xffffffffffffffffffffffffffffffffffffffff\n      and\n      eq\n        /* \"Objectron/OperatorFilterRegistry.sol\":1781:1874  if (msg.sender != owner) {... */\n      tag_296\n      jumpi\n        /* \"Objectron/OperatorFilterRegistry.sol\":1835:1855  OnlyAddressOrOwner() */\n      mload(0x40)\n      0xfcf5eff800000000000000000000000000000000000000000000000000000000\n      dup2\n      mstore\n      0x04\n      add\n      mload(0x40)\n      dup1\n      swap2\n      sub\n      swap1\n      revert\n        /* \"Objectron/OperatorFilterRegistry.sol\":1781:1874  if (msg.sender != owner) {... */\n    tag_296:\n        /* \"Objectron/OperatorFilterRegistry.sol\":1739:1888  returns (address owner) {... */\n      pop\n        /* \"Objectron/OperatorFilterRegistry.sol\":1675:2239  if (msg.sender != addr) {... */\n    tag_284:\n        /* \"Objectron/OperatorFilterRegistry.sol\":1229:1242  keccak256(\"\") */\n      0xc5d2460186f7233c927e7db2dcc703c0e500b653ca82273b7bfad8045d85a470\n        /* \"Objectron/OperatorFilterRegistry.sol\":9178:9186  codeHash */\n      dup4\n        /* \"Objectron/OperatorFilterRegistry.sol\":9178:9202  codeHash == EOA_CODEHASH */\n      sub\n        /* \"Objectron/OperatorFilterRegistry.sol\":9174:9254  if (codeHash == EOA_CODEHASH) {... */\n      tag_298\n      jumpi\n        /* \"Objectron/OperatorFilterRegistry.sol\":9225:9243  CannotFilterEOAs() */\n      mload(0x40)\n      0xf575ead800000000000000000000000000000000000000000000000000000000\n      dup2\n      mstore\n      0x04\n      add\n      mload(0x40)\n      dup1\n      swap2\n      sub\n      swap1\n      revert\n        /* \"Objectron/OperatorFilterRegistry.sol\":9174:9254  if (codeHash == EOA_CODEHASH) {... */\n    tag_298:\n        /* \"Objectron/OperatorFilterRegistry.sol\":9263:9283  address registration */\n      0x00\n        /* \"Objectron/OperatorFilterRegistry.sol\":9286:9300  _registrations */\n      0x02\n        /* \"Objectron/OperatorFilterRegistry.sol\":9286:9312  _registrations[registrant] */\n      0x00\n        /* \"Objectron/OperatorFilterRegistry.sol\":9301:9311  registrant */\n      dup7\n        /* \"Objectron/OperatorFilterRegistry.sol\":9286:9312  _registrations[registrant] */\n      0xffffffffffffffffffffffffffffffffffffffff\n      and\n      0xffffffffffffffffffffffffffffffffffffffff\n      and\n      dup2\n      mstore\n      0x20\n      add\n      swap1\n      dup2\n      mstore\n      0x20\n      add\n      0x00\n      keccak256\n      0x00\n      swap1\n      sload\n      swap1\n      0x0100\n      exp\n      swap1\n      div\n      0xffffffffffffffffffffffffffffffffffffffff\n      and\n        /* \"Objectron/OperatorFilterRegistry.sol\":9263:9312  address registration = _registrations[registrant] */\n      swap1\n      pop\n        /* \"Objectron/OperatorFilterRegistry.sol\":9350:9351  0 */\n      0x00\n        /* \"Objectron/OperatorFilterRegistry.sol\":9326:9352  registration == address(0) */\n      0xffffffffffffffffffffffffffffffffffffffff\n      and\n        /* \"Objectron/OperatorFilterRegistry.sol\":9326:9338  registration */\n      dup2\n        /* \"Objectron/OperatorFilterRegistry.sol\":9326:9352  registration == address(0) */\n      0xffffffffffffffffffffffffffffffffffffffff\n      and\n      sub\n        /* \"Objectron/OperatorFilterRegistry.sol\":9322:9411  if (registration == address(0)) {... */\n      tag_299\n      jumpi\n        /* \"Objectron/OperatorFilterRegistry.sol\":9389:9399  registrant */\n      dup5\n        /* \"Objectron/OperatorFilterRegistry.sol\":9375:9400  NotRegistered(registrant) */\n      mload(0x40)\n      0xbfc6c33700000000000000000000000000000000000000000000000000000000\n      dup2\n      mstore\n      0x04\n      add\n      tag_300\n      swap2\n      swap1\n      tag_55\n      jump\t// in\n    tag_300:\n      mload(0x40)\n      dup1\n      swap2\n      sub\n      swap1\n      revert\n        /* \"Objectron/OperatorFilterRegistry.sol\":9322:9411  if (registration == address(0)) {... */\n    tag_299:\n        /* \"Objectron/OperatorFilterRegistry.sol\":9440:9450  registrant */\n      dup5\n        /* \"Objectron/OperatorFilterRegistry.sol\":9424:9450  registration != registrant */\n      0xffffffffffffffffffffffffffffffffffffffff\n      and\n        /* \"Objectron/OperatorFilterRegistry.sol\":9424:9436  registration */\n      dup2\n        /* \"Objectron/OperatorFilterRegistry.sol\":9424:9450  registration != registrant */\n      0xffffffffffffffffffffffffffffffffffffffff\n      and\n      eq\n        /* \"Objectron/OperatorFilterRegistry.sol\":9420:9525  if (registration != registrant) {... */\n      tag_301\n      jumpi\n        /* \"Objectron/OperatorFilterRegistry.sol\":9501:9513  registration */\n      dup1\n        /* \"Objectron/OperatorFilterRegistry.sol\":9473:9514  CannotUpdateWhileSubscribed(registration) */\n      mload(0x40)\n      0x04af4d6900000000000000000000000000000000000000000000000000000000\n      dup2\n      mstore\n      0x04\n      add\n      tag_302\n      swap2\n      swap1\n      tag_55\n      jump\t// in\n    tag_302:\n      mload(0x40)\n      dup1\n      swap2\n      sub\n      swap1\n      revert\n        /* \"Objectron/OperatorFilterRegistry.sol\":9420:9525  if (registration != registrant) {... */\n    tag_301:\n        /* \"Objectron/OperatorFilterRegistry.sol\":9534:9588  EnumerableSet.Bytes32Set storage filteredCodeHashesRef */\n      0x00\n        /* \"Objectron/OperatorFilterRegistry.sol\":9591:9610  _filteredCodeHashes */\n      0x01\n        /* \"Objectron/OperatorFilterRegistry.sol\":9591:9622  _filteredCodeHashes[registrant] */\n      0x00\n        /* \"Objectron/OperatorFilterRegistry.sol\":9611:9621  registrant */\n      dup8\n        /* \"Objectron/OperatorFilterRegistry.sol\":9591:9622  _filteredCodeHashes[registrant] */\n      0xffffffffffffffffffffffffffffffffffffffff\n      and\n      0xffffffffffffffffffffffffffffffffffffffff\n      and\n      dup2\n      mstore\n      0x20\n      add\n      swap1\n      dup2\n      mstore\n      0x20\n      add\n      0x00\n      keccak256\n        /* \"Objectron/OperatorFilterRegistry.sol\":9534:9622  EnumerableSet.Bytes32Set storage filteredCodeHashesRef = _filteredCodeHashes[registrant] */\n      swap1\n      pop\n        /* \"Objectron/OperatorFilterRegistry.sol\":9638:9646  filtered */\n      dup4\n        /* \"Objectron/OperatorFilterRegistry.sol\":9633:9999  if (!filtered) {... */\n      tag_303\n      jumpi\n        /* \"Objectron/OperatorFilterRegistry.sol\":9662:9674  bool removed */\n      0x00\n        /* \"Objectron/OperatorFilterRegistry.sol\":9677:9715  filteredCodeHashesRef.remove(codeHash) */\n      tag_304\n        /* \"Objectron/OperatorFilterRegistry.sol\":9706:9714  codeHash */\n      dup7\n        /* \"Objectron/OperatorFilterRegistry.sol\":9677:9698  filteredCodeHashesRef */\n      dup4\n        /* \"Objectron/OperatorFilterRegistry.sol\":9677:9705  filteredCodeHashesRef.remove */\n      tag_157\n      swap1\n        /* \"Objectron/OperatorFilterRegistry.sol\":9677:9715  filteredCodeHashesRef.remove(codeHash) */\n      swap2\n      swap1\n      0xffffffff\n      and\n      jump\t// in\n    tag_304:\n        /* \"Objectron/OperatorFilterRegistry.sol\":9662:9715  bool removed = filteredCodeHashesRef.remove(codeHash) */\n      swap1\n      pop\n        /* \"Objectron/OperatorFilterRegistry.sol\":9734:9741  removed */\n      dup1\n        /* \"Objectron/OperatorFilterRegistry.sol\":9729:9812  if (!removed) {... */\n      tag_305\n      jumpi\n        /* \"Objectron/OperatorFilterRegistry.sol\":9788:9796  codeHash */\n      dup6\n        /* \"Objectron/OperatorFilterRegistry.sol\":9768:9797  CodeHashNotFiltered(codeHash) */\n      mload(0x40)\n      0x478730a800000000000000000000000000000000000000000000000000000000\n      dup2\n      mstore\n      0x04\n      add\n      tag_306\n      swap2\n      swap1\n      tag_105\n      jump\t// in\n    tag_306:\n      mload(0x40)\n      dup1\n      swap2\n      sub\n      swap1\n      revert\n        /* \"Objectron/OperatorFilterRegistry.sol\":9729:9812  if (!removed) {... */\n    tag_305:\n        /* \"Objectron/OperatorFilterRegistry.sol\":9648:9822  {... */\n      pop\n        /* \"Objectron/OperatorFilterRegistry.sol\":9633:9999  if (!filtered) {... */\n      jump(tag_307)\n    tag_303:\n        /* \"Objectron/OperatorFilterRegistry.sol\":9842:9852  bool added */\n      0x00\n        /* \"Objectron/OperatorFilterRegistry.sol\":9855:9890  filteredCodeHashesRef.add(codeHash) */\n      tag_308\n        /* \"Objectron/OperatorFilterRegistry.sol\":9881:9889  codeHash */\n      dup7\n        /* \"Objectron/OperatorFilterRegistry.sol\":9855:9876  filteredCodeHashesRef */\n      dup4\n        /* \"Objectron/OperatorFilterRegistry.sol\":9855:9880  filteredCodeHashesRef.add */\n      tag_168\n      swap1\n        /* \"Objectron/OperatorFilterRegistry.sol\":9855:9890  filteredCodeHashesRef.add(codeHash) */\n      swap2\n      swap1\n      0xffffffff\n      and\n      jump\t// in\n    tag_308:\n        /* \"Objectron/OperatorFilterRegistry.sol\":9842:9890  bool added = filteredCodeHashesRef.add(codeHash) */\n      swap1\n      pop\n        /* \"Objectron/OperatorFilterRegistry.sol\":9909:9914  added */\n      dup1\n        /* \"Objectron/OperatorFilterRegistry.sol\":9904:9989  if (!added) {... */\n      tag_309\n      jumpi\n        /* \"Objectron/OperatorFilterRegistry.sol\":9965:9973  codeHash */\n      dup6\n        /* \"Objectron/OperatorFilterRegistry.sol\":9941:9974  CodeHashAlreadyFiltered(codeHash) */\n      mload(0x40)\n      0x186bea0000000000000000000000000000000000000000000000000000000000\n      dup2\n      mstore\n      0x04\n      add\n      tag_310\n      swap2\n      swap1\n      tag_105\n      jump\t// in\n    tag_310:\n      mload(0x40)\n      dup1\n      swap2\n      sub\n      swap1\n      revert\n        /* \"Objectron/OperatorFilterRegistry.sol\":9904:9989  if (!added) {... */\n    tag_309:\n        /* \"Objectron/OperatorFilterRegistry.sol\":9828:9999  {... */\n      pop\n        /* \"Objectron/OperatorFilterRegistry.sol\":9633:9999  if (!filtered) {... */\n    tag_307:\n        /* \"Objectron/OperatorFilterRegistry.sol\":10051:10059  filtered */\n      dup4\n        /* \"Objectron/OperatorFilterRegistry.sol\":10013:10060  CodeHashUpdated(registrant, codeHash, filtered) */\n      iszero\n      iszero\n        /* \"Objectron/OperatorFilterRegistry.sol\":10041:10049  codeHash */\n      dup6\n        /* \"Objectron/OperatorFilterRegistry.sol\":10029:10039  registrant */\n      dup8\n        /* \"Objectron/OperatorFilterRegistry.sol\":10013:10060  CodeHashUpdated(registrant, codeHash, filtered) */\n      0xffffffffffffffffffffffffffffffffffffffff\n      and\n      0xb8036058bafea884aabc446ca15619fd86f5464a4ad96f64164ad6f77444354d\n      mload(0x40)\n      mload(0x40)\n      dup1\n      swap2\n      sub\n      swap1\n      log4\n        /* \"Objectron/OperatorFilterRegistry.sol\":9164:10067  {... */\n      pop\n      pop\n        /* \"Objectron/OperatorFilterRegistry.sol\":9027:10067  function updateCodeHash(address registrant, bytes32 codeHash, bool filtered)... */\n      pop\n      pop\n      pop\n      pop\n      jump\t// out\n        /* \"Objectron/OperatorFilterRegistry.sol\":5316:6233  function registerAndSubscribe(address registrant, address subscription) external onlyAddressOrOwner(registrant) {... */\n    tag_89:\n        /* \"Objectron/OperatorFilterRegistry.sol\":5416:5426  registrant */\n      dup2\n        /* \"Objectron/OperatorFilterRegistry.sol\":1693:1697  addr */\n      dup1\n        /* \"Objectron/OperatorFilterRegistry.sol\":1679:1697  msg.sender != addr */\n      0xffffffffffffffffffffffffffffffffffffffff\n      and\n        /* \"Objectron/OperatorFilterRegistry.sol\":1679:1689  msg.sender */\n      caller\n        /* \"Objectron/OperatorFilterRegistry.sol\":1679:1697  msg.sender != addr */\n      0xffffffffffffffffffffffffffffffffffffffff\n      and\n      eq\n        /* \"Objectron/OperatorFilterRegistry.sol\":1675:2239  if (msg.sender != addr) {... */\n      tag_312\n      jumpi\n        /* \"Objectron/OperatorFilterRegistry.sol\":1725:1729  addr */\n      dup1\n        /* \"Objectron/OperatorFilterRegistry.sol\":1717:1736  Ownable(addr).owner */\n      0xffffffffffffffffffffffffffffffffffffffff\n      and\n      0x8da5cb5b\n        /* \"Objectron/OperatorFilterRegistry.sol\":1717:1738  Ownable(addr).owner() */\n      mload(0x40)\n      dup2\n      0xffffffff\n      and\n      0xe0\n      shl\n      dup2\n      mstore\n      0x04\n      add\n      0x20\n      mload(0x40)\n      dup1\n      dup4\n      sub\n      dup2\n      dup7\n      gas\n      staticcall\n      swap3\n      pop\n      pop\n      pop\n      dup1\n      iszero\n      tag_313\n      jumpi\n      pop\n      mload(0x40)\n      returndatasize\n      not(0x1f)\n      0x1f\n      dup3\n      add\n      and\n      dup3\n      add\n      dup1\n      0x40\n      mstore\n      pop\n      dup2\n      add\n      swap1\n      tag_314\n      swap2\n      swap1\n      tag_133\n      jump\t// in\n    tag_314:\n      0x01\n    tag_313:\n        /* \"Objectron/OperatorFilterRegistry.sol\":1713:2229  try Ownable(addr).owner() returns (address owner) {... */\n      tag_315\n      jumpi\n      returndatasize\n      dup1\n      0x00\n      dup2\n      eq\n      tag_320\n      jumpi\n      mload(0x40)\n      swap2\n      pop\n      and(add(returndatasize, 0x3f), not(0x1f))\n      dup3\n      add\n      0x40\n      mstore\n      returndatasize\n      dup3\n      mstore\n      returndatasize\n      0x00\n      0x20\n      dup5\n      add\n      returndatacopy\n      jump(tag_319)\n    tag_320:\n      0x60\n      swap2\n      pop\n    tag_319:\n      pop\n        /* \"Objectron/OperatorFilterRegistry.sol\":1956:1957  0 */\n      0x00\n        /* \"Objectron/OperatorFilterRegistry.sol\":1939:1945  reason */\n      dup2\n        /* \"Objectron/OperatorFilterRegistry.sol\":1939:1952  reason.length */\n      mload\n        /* \"Objectron/OperatorFilterRegistry.sol\":1939:1957  reason.length == 0 */\n      sub\n        /* \"Objectron/OperatorFilterRegistry.sol\":1935:2215  if (reason.length == 0) {... */\n      tag_321\n      jumpi\n        /* \"Objectron/OperatorFilterRegistry.sol\":1988:2000  NotOwnable() */\n      mload(0x40)\n      0xb2c1414000000000000000000000000000000000000000000000000000000000\n      dup2\n      mstore\n      0x04\n      add\n      mload(0x40)\n      dup1\n      swap2\n      sub\n      swap1\n      revert\n        /* \"Objectron/OperatorFilterRegistry.sol\":1935:2215  if (reason.length == 0) {... */\n    tag_321:\n        /* \"Objectron/OperatorFilterRegistry.sol\":2167:2173  reason */\n      dup1\n        /* \"Objectron/OperatorFilterRegistry.sol\":2161:2174  mload(reason) */\n      mload\n        /* \"Objectron/OperatorFilterRegistry.sol\":2152:2158  reason */\n      dup2\n        /* \"Objectron/OperatorFilterRegistry.sol\":2148:2150  32 */\n      0x20\n        /* \"Objectron/OperatorFilterRegistry.sol\":2144:2159  add(32, reason) */\n      add\n        /* \"Objectron/OperatorFilterRegistry.sol\":2137:2175  revert(add(32, reason), mload(reason)) */\n      revert\n        /* \"Objectron/OperatorFilterRegistry.sol\":1713:2229  try Ownable(addr).owner() returns (address owner) {... */\n    tag_315:\n        /* \"Objectron/OperatorFilterRegistry.sol\":1799:1804  owner */\n      dup1\n        /* \"Objectron/OperatorFilterRegistry.sol\":1785:1804  msg.sender != owner */\n      0xffffffffffffffffffffffffffffffffffffffff\n      and\n        /* \"Objectron/OperatorFilterRegistry.sol\":1785:1795  msg.sender */\n      caller\n        /* \"Objectron/OperatorFilterRegistry.sol\":1785:1804  msg.sender != owner */\n      0xffffffffffffffffffffffffffffffffffffffff\n      and\n      eq\n        /* \"Objectron/OperatorFilterRegistry.sol\":1781:1874  if (msg.sender != owner) {... */\n      tag_324\n      jumpi\n        /* \"Objectron/OperatorFilterRegistry.sol\":1835:1855  OnlyAddressOrOwner() */\n      mload(0x40)\n      0xfcf5eff800000000000000000000000000000000000000000000000000000000\n      dup2\n      mstore\n      0x04\n      add\n      mload(0x40)\n      dup1\n      swap2\n      sub\n      swap1\n      revert\n        /* \"Objectron/OperatorFilterRegistry.sol\":1781:1874  if (msg.sender != owner) {... */\n    tag_324:\n        /* \"Objectron/OperatorFilterRegistry.sol\":1739:1888  returns (address owner) {... */\n      pop\n        /* \"Objectron/OperatorFilterRegistry.sol\":1675:2239  if (msg.sender != addr) {... */\n    tag_312:\n        /* \"Objectron/OperatorFilterRegistry.sol\":5438:5458  address registration */\n      0x00\n        /* \"Objectron/OperatorFilterRegistry.sol\":5461:5475  _registrations */\n      0x02\n        /* \"Objectron/OperatorFilterRegistry.sol\":5461:5487  _registrations[registrant] */\n      0x00\n        /* \"Objectron/OperatorFilterRegistry.sol\":5476:5486  registrant */\n      dup6\n        /* \"Objectron/OperatorFilterRegistry.sol\":5461:5487  _registrations[registrant] */\n      0xffffffffffffffffffffffffffffffffffffffff\n      and\n      0xffffffffffffffffffffffffffffffffffffffff\n      and\n      dup2\n      mstore\n      0x20\n      add\n      swap1\n      dup2\n      mstore\n      0x20\n      add\n      0x00\n      keccak256\n      0x00\n      swap1\n      sload\n      swap1\n      0x0100\n      exp\n      swap1\n      div\n      0xffffffffffffffffffffffffffffffffffffffff\n      and\n        /* \"Objectron/OperatorFilterRegistry.sol\":5438:5487  address registration = _registrations[registrant] */\n      swap1\n      pop\n        /* \"Objectron/OperatorFilterRegistry.sol\":5525:5526  0 */\n      0x00\n        /* \"Objectron/OperatorFilterRegistry.sol\":5501:5527  registration != address(0) */\n      0xffffffffffffffffffffffffffffffffffffffff\n      and\n        /* \"Objectron/OperatorFilterRegistry.sol\":5501:5513  registration */\n      dup2\n        /* \"Objectron/OperatorFilterRegistry.sol\":5501:5527  registration != address(0) */\n      0xffffffffffffffffffffffffffffffffffffffff\n      and\n      eq\n        /* \"Objectron/OperatorFilterRegistry.sol\":5497:5580  if (registration != address(0)) {... */\n      tag_326\n      jumpi\n        /* \"Objectron/OperatorFilterRegistry.sol\":5550:5569  AlreadyRegistered() */\n      mload(0x40)\n      0x3a81d6fc00000000000000000000000000000000000000000000000000000000\n      dup2\n      mstore\n      0x04\n      add\n      mload(0x40)\n      dup1\n      swap2\n      sub\n      swap1\n      revert\n        /* \"Objectron/OperatorFilterRegistry.sol\":5497:5580  if (registration != address(0)) {... */\n    tag_326:\n        /* \"Objectron/OperatorFilterRegistry.sol\":5607:5619  subscription */\n      dup3\n        /* \"Objectron/OperatorFilterRegistry.sol\":5593:5619  registrant == subscription */\n      0xffffffffffffffffffffffffffffffffffffffff\n      and\n        /* \"Objectron/OperatorFilterRegistry.sol\":5593:5603  registrant */\n      dup5\n        /* \"Objectron/OperatorFilterRegistry.sol\":5593:5619  registrant == subscription */\n      0xffffffffffffffffffffffffffffffffffffffff\n      and\n      sub\n        /* \"Objectron/OperatorFilterRegistry.sol\":5589:5676  if (registrant == subscription) {... */\n      tag_327\n      jumpi\n        /* \"Objectron/OperatorFilterRegistry.sol\":5642:5665  CannotSubscribeToSelf() */\n      mload(0x40)\n      0x347f118f00000000000000000000000000000000000000000000000000000000\n      dup2\n      mstore\n      0x04\n      add\n      mload(0x40)\n      dup1\n      swap2\n      sub\n      swap1\n      revert\n        /* \"Objectron/OperatorFilterRegistry.sol\":5589:5676  if (registrant == subscription) {... */\n    tag_327:\n        /* \"Objectron/OperatorFilterRegistry.sol\":5685:5717  address subscriptionRegistration */\n      0x00\n        /* \"Objectron/OperatorFilterRegistry.sol\":5720:5734  _registrations */\n      0x02\n        /* \"Objectron/OperatorFilterRegistry.sol\":5720:5748  _registrations[subscription] */\n      0x00\n        /* \"Objectron/OperatorFilterRegistry.sol\":5735:5747  subscription */\n      dup6\n        /* \"Objectron/OperatorFilterRegistry.sol\":5720:5748  _registrations[subscription] */\n      0xffffffffffffffffffffffffffffffffffffffff\n      and\n      0xffffffffffffffffffffffffffffffffffffffff\n      and\n      dup2\n      mstore\n      0x20\n      add\n      swap1\n      dup2\n      mstore\n      0x20\n      add\n      0x00\n      keccak256\n      0x00\n      swap1\n      sload\n      swap1\n      0x0100\n      exp\n      swap1\n      div\n      0xffffffffffffffffffffffffffffffffffffffff\n      and\n        /* \"Objectron/OperatorFilterRegistry.sol\":5685:5748  address subscriptionRegistration = _registrations[subscription] */\n      swap1\n      pop\n        /* \"Objectron/OperatorFilterRegistry.sol\":5798:5799  0 */\n      0x00\n        /* \"Objectron/OperatorFilterRegistry.sol\":5762:5800  subscriptionRegistration == address(0) */\n      0xffffffffffffffffffffffffffffffffffffffff\n      and\n        /* \"Objectron/OperatorFilterRegistry.sol\":5762:5786  subscriptionRegistration */\n      dup2\n        /* \"Objectron/OperatorFilterRegistry.sol\":5762:5800  subscriptionRegistration == address(0) */\n      0xffffffffffffffffffffffffffffffffffffffff\n      and\n      sub\n        /* \"Objectron/OperatorFilterRegistry.sol\":5758:5861  if (subscriptionRegistration == address(0)) {... */\n      tag_328\n      jumpi\n        /* \"Objectron/OperatorFilterRegistry.sol\":5837:5849  subscription */\n      dup4\n        /* \"Objectron/OperatorFilterRegistry.sol\":5823:5850  NotRegistered(subscription) */\n      mload(0x40)\n      0xbfc6c33700000000000000000000000000000000000000000000000000000000\n      dup2\n      mstore\n      0x04\n      add\n      tag_329\n      swap2\n      swap1\n      tag_55\n      jump\t// in\n    tag_329:\n      mload(0x40)\n      dup1\n      swap2\n      sub\n      swap1\n      revert\n        /* \"Objectron/OperatorFilterRegistry.sol\":5758:5861  if (subscriptionRegistration == address(0)) {... */\n    tag_328:\n        /* \"Objectron/OperatorFilterRegistry.sol\":5902:5914  subscription */\n      dup4\n        /* \"Objectron/OperatorFilterRegistry.sol\":5874:5914  subscriptionRegistration != subscription */\n      0xffffffffffffffffffffffffffffffffffffffff\n      and\n        /* \"Objectron/OperatorFilterRegistry.sol\":5874:5898  subscriptionRegistration */\n      dup2\n        /* \"Objectron/OperatorFilterRegistry.sol\":5874:5914  subscriptionRegistration != subscription */\n      0xffffffffffffffffffffffffffffffffffffffff\n      and\n      eq\n        /* \"Objectron/OperatorFilterRegistry.sol\":5870:6005  if (subscriptionRegistration != subscription) {... */\n      tag_330\n      jumpi\n        /* \"Objectron/OperatorFilterRegistry.sol\":5981:5993  subscription */\n      dup4\n        /* \"Objectron/OperatorFilterRegistry.sol\":5937:5994  CannotSubscribeToRegistrantWithSubscription(subscription) */\n      mload(0x40)\n      0x768e549c00000000000000000000000000000000000000000000000000000000\n      dup2\n      mstore\n      0x04\n      add\n      tag_331\n      swap2\n      swap1\n      tag_55\n      jump\t// in\n    tag_331:\n      mload(0x40)\n      dup1\n      swap2\n      sub\n      swap1\n      revert\n        /* \"Objectron/OperatorFilterRegistry.sol\":5870:6005  if (subscriptionRegistration != subscription) {... */\n    tag_330:\n        /* \"Objectron/OperatorFilterRegistry.sol\":6044:6056  subscription */\n      dup4\n        /* \"Objectron/OperatorFilterRegistry.sol\":6015:6029  _registrations */\n      0x02\n        /* \"Objectron/OperatorFilterRegistry.sol\":6015:6041  _registrations[registrant] */\n      0x00\n        /* \"Objectron/OperatorFilterRegistry.sol\":6030:6040  registrant */\n      dup8\n        /* \"Objectron/OperatorFilterRegistry.sol\":6015:6041  _registrations[registrant] */\n      0xffffffffffffffffffffffffffffffffffffffff\n      and\n      0xffffffffffffffffffffffffffffffffffffffff\n      and\n      dup2\n      mstore\n      0x20\n      add\n      swap1\n      dup2\n      mstore\n      0x20\n      add\n      0x00\n      keccak256\n      0x00\n        /* \"Objectron/OperatorFilterRegistry.sol\":6015:6056  _registrations[registrant] = subscription */\n      0x0100\n      exp\n      dup2\n      sload\n      dup2\n      0xffffffffffffffffffffffffffffffffffffffff\n      mul\n      not\n      and\n      swap1\n      dup4\n      0xffffffffffffffffffffffffffffffffffffffff\n      and\n      mul\n      or\n      swap1\n      sstore\n      pop\n        /* \"Objectron/OperatorFilterRegistry.sol\":6066:6108  _subscribers[subscription].add(registrant) */\n      tag_332\n        /* \"Objectron/OperatorFilterRegistry.sol\":6097:6107  registrant */\n      dup6\n        /* \"Objectron/OperatorFilterRegistry.sol\":6066:6078  _subscribers */\n      0x03\n        /* \"Objectron/OperatorFilterRegistry.sol\":6066:6092  _subscribers[subscription] */\n      0x00\n        /* \"Objectron/OperatorFilterRegistry.sol\":6079:6091  subscription */\n      dup8\n        /* \"Objectron/OperatorFilterRegistry.sol\":6066:6092  _subscribers[subscription] */\n      0xffffffffffffffffffffffffffffffffffffffff\n      and\n      0xffffffffffffffffffffffffffffffffffffffff\n      and\n      dup2\n      mstore\n      0x20\n      add\n      swap1\n      dup2\n      mstore\n      0x20\n      add\n      0x00\n      keccak256\n        /* \"Objectron/OperatorFilterRegistry.sol\":6066:6096  _subscribers[subscription].add */\n      tag_333\n      swap1\n        /* \"Objectron/OperatorFilterRegistry.sol\":6066:6108  _subscribers[subscription].add(registrant) */\n      swap2\n      swap1\n      0xffffffff\n      and\n      jump\t// in\n    tag_332:\n      pop\n        /* \"Objectron/OperatorFilterRegistry.sol\":6155:6159  true */\n      0x01\n        /* \"Objectron/OperatorFilterRegistry.sol\":6123:6160  RegistrationUpdated(registrant, true) */\n      iszero\n      iszero\n        /* \"Objectron/OperatorFilterRegistry.sol\":6143:6153  registrant */\n      dup6\n        /* \"Objectron/OperatorFilterRegistry.sol\":6123:6160  RegistrationUpdated(registrant, true) */\n      0xffffffffffffffffffffffffffffffffffffffff\n      and\n      0x86d03f430c7616021073d7a71766f632f1ce19f289aa989534d9f4732253eb59\n      mload(0x40)\n      mload(0x40)\n      dup1\n      swap2\n      sub\n      swap1\n      log3\n        /* \"Objectron/OperatorFilterRegistry.sol\":6221:6225  true */\n      0x01\n        /* \"Objectron/OperatorFilterRegistry.sol\":6175:6226  SubscriptionUpdated(registrant, subscription, true) */\n      iszero\n      iszero\n        /* \"Objectron/OperatorFilterRegistry.sol\":6207:6219  subscription */\n      dup5\n        /* \"Objectron/OperatorFilterRegistry.sol\":6175:6226  SubscriptionUpdated(registrant, subscription, true) */\n      0xffffffffffffffffffffffffffffffffffffffff\n      and\n        /* \"Objectron/OperatorFilterRegistry.sol\":6195:6205  registrant */\n      dup7\n        /* \"Objectron/OperatorFilterRegistry.sol\":6175:6226  SubscriptionUpdated(registrant, subscription, true) */\n      0xffffffffffffffffffffffffffffffffffffffff\n      and\n      0x38c54977604f1a5c0a3604cbbecd0153c81e3131799ead95755e8bb5d5b9e8\n      mload(0x40)\n      mload(0x40)\n      dup1\n      swap2\n      sub\n      swap1\n      log4\n        /* \"Objectron/OperatorFilterRegistry.sol\":5428:6233  {... */\n      pop\n      pop\n        /* \"Objectron/OperatorFilterRegistry.sol\":5316:6233  function registerAndSubscribe(address registrant, address subscription) external onlyAddressOrOwner(registrant) {... */\n      pop\n      pop\n      pop\n      jump\t// out\n        /* \"Objectron/OperatorFilterRegistry.sol\":6415:7150  function registerAndCopyEntries(address registrant, address registrantToCopy)... */\n    tag_92:\n        /* \"Objectron/OperatorFilterRegistry.sol\":6537:6547  registrant */\n      dup2\n        /* \"Objectron/OperatorFilterRegistry.sol\":1693:1697  addr */\n      dup1\n        /* \"Objectron/OperatorFilterRegistry.sol\":1679:1697  msg.sender != addr */\n      0xffffffffffffffffffffffffffffffffffffffff\n      and\n        /* \"Objectron/OperatorFilterRegistry.sol\":1679:1689  msg.sender */\n      caller\n        /* \"Objectron/OperatorFilterRegistry.sol\":1679:1697  msg.sender != addr */\n      0xffffffffffffffffffffffffffffffffffffffff\n      and\n      eq\n        /* \"Objectron/OperatorFilterRegistry.sol\":1675:2239  if (msg.sender != addr) {... */\n      tag_335\n      jumpi\n        /* \"Objectron/OperatorFilterRegistry.sol\":1725:1729  addr */\n      dup1\n        /* \"Objectron/OperatorFilterRegistry.sol\":1717:1736  Ownable(addr).owner */\n      0xffffffffffffffffffffffffffffffffffffffff\n      and\n      0x8da5cb5b\n        /* \"Objectron/OperatorFilterRegistry.sol\":1717:1738  Ownable(addr).owner() */\n      mload(0x40)\n      dup2\n      0xffffffff\n      and\n      0xe0\n      shl\n      dup2\n      mstore\n      0x04\n      add\n      0x20\n      mload(0x40)\n      dup1\n      dup4\n      sub\n      dup2\n      dup7\n      gas\n      staticcall\n      swap3\n      pop\n      pop\n      pop\n      dup1\n      iszero\n      tag_336\n      jumpi\n      pop\n      mload(0x40)\n      returndatasize\n      not(0x1f)\n      0x1f\n      dup3\n      add\n      and\n      dup3\n      add\n      dup1\n      0x40\n      mstore\n      pop\n      dup2\n      add\n      swap1\n      tag_337\n      swap2\n      swap1\n      tag_133\n      jump\t// in\n    tag_337:\n      0x01\n    tag_336:\n        /* \"Objectron/OperatorFilterRegistry.sol\":1713:2229  try Ownable(addr).owner() returns (address owner) {... */\n      tag_338\n      jumpi\n      returndatasize\n      dup1\n      0x00\n      dup2\n      eq\n      tag_343\n      jumpi\n      mload(0x40)\n      swap2\n      pop\n      and(add(returndatasize, 0x3f), not(0x1f))\n      dup3\n      add\n      0x40\n      mstore\n      returndatasize\n      dup3\n      mstore\n      returndatasize\n      0x00\n      0x20\n      dup5\n      add\n      returndatacopy\n      jump(tag_342)\n    tag_343:\n      0x60\n      swap2\n      pop\n    tag_342:\n      pop\n        /* \"Objectron/OperatorFilterRegistry.sol\":1956:1957  0 */\n      0x00\n        /* \"Objectron/OperatorFilterRegistry.sol\":1939:1945  reason */\n      dup2\n        /* \"Objectron/OperatorFilterRegistry.sol\":1939:1952  reason.length */\n      mload\n        /* \"Objectron/OperatorFilterRegistry.sol\":1939:1957  reason.length == 0 */\n      sub\n        /* \"Objectron/OperatorFilterRegistry.sol\":1935:2215  if (reason.length == 0) {... */\n      tag_344\n      jumpi\n        /* \"Objectron/OperatorFilterRegistry.sol\":1988:2000  NotOwnable() */\n      mload(0x40)\n      0xb2c1414000000000000000000000000000000000000000000000000000000000\n      dup2\n      mstore\n      0x04\n      add\n      mload(0x40)\n      dup1\n      swap2\n      sub\n      swap1\n      revert\n        /* \"Objectron/OperatorFilterRegistry.sol\":1935:2215  if (reason.length == 0) {... */\n    tag_344:\n        /* \"Objectron/OperatorFilterRegistry.sol\":2167:2173  reason */\n      dup1\n        /* \"Objectron/OperatorFilterRegistry.sol\":2161:2174  mload(reason) */\n      mload\n        /* \"Objectron/OperatorFilterRegistry.sol\":2152:2158  reason */\n      dup2\n        /* \"Objectron/OperatorFilterRegistry.sol\":2148:2150  32 */\n      0x20\n        /* \"Objectron/OperatorFilterRegistry.sol\":2144:2159  add(32, reason) */\n      add\n        /* \"Objectron/OperatorFilterRegistry.sol\":2137:2175  revert(add(32, reason), mload(reason)) */\n      revert\n        /* \"Objectron/OperatorFilterRegistry.sol\":1713:2229  try Ownable(addr).owner() returns (address owner) {... */\n    tag_338:\n        /* \"Objectron/OperatorFilterRegistry.sol\":1799:1804  owner */\n      dup1\n        /* \"Objectron/OperatorFilterRegistry.sol\":1785:1804  msg.sender != owner */\n      0xffffffffffffffffffffffffffffffffffffffff\n      and\n        /* \"Objectron/OperatorFilterRegistry.sol\":1785:1795  msg.sender */\n      caller\n        /* \"Objectron/OperatorFilterRegistry.sol\":1785:1804  msg.sender != owner */\n      0xffffffffffffffffffffffffffffffffffffffff\n      and\n      eq\n        /* \"Objectron/OperatorFilterRegistry.sol\":1781:1874  if (msg.sender != owner) {... */\n      tag_347\n      jumpi\n        /* \"Objectron/OperatorFilterRegistry.sol\":1835:1855  OnlyAddressOrOwner() */\n      mload(0x40)\n      0xfcf5eff800000000000000000000000000000000000000000000000000000000\n      dup2\n      mstore\n      0x04\n      add\n      mload(0x40)\n      dup1\n      swap2\n      sub\n      swap1\n      revert\n        /* \"Objectron/OperatorFilterRegistry.sol\":1781:1874  if (msg.sender != owner) {... */\n    tag_347:\n        /* \"Objectron/OperatorFilterRegistry.sol\":1739:1888  returns (address owner) {... */\n      pop\n        /* \"Objectron/OperatorFilterRegistry.sol\":1675:2239  if (msg.sender != addr) {... */\n    tag_335:\n        /* \"Objectron/OperatorFilterRegistry.sol\":6587:6597  registrant */\n      dup3\n        /* \"Objectron/OperatorFilterRegistry.sol\":6567:6597  registrantToCopy == registrant */\n      0xffffffffffffffffffffffffffffffffffffffff\n      and\n        /* \"Objectron/OperatorFilterRegistry.sol\":6567:6583  registrantToCopy */\n      dup3\n        /* \"Objectron/OperatorFilterRegistry.sol\":6567:6597  registrantToCopy == registrant */\n      0xffffffffffffffffffffffffffffffffffffffff\n      and\n      sub\n        /* \"Objectron/OperatorFilterRegistry.sol\":6563:6651  if (registrantToCopy == registrant) {... */\n      tag_349\n      jumpi\n        /* \"Objectron/OperatorFilterRegistry.sol\":6620:6640  CannotCopyFromSelf() */\n      mload(0x40)\n      0x1acab6b800000000000000000000000000000000000000000000000000000000\n      dup2\n      mstore\n      0x04\n      add\n      mload(0x40)\n      dup1\n      swap2\n      sub\n      swap1\n      revert\n        /* \"Objectron/OperatorFilterRegistry.sol\":6563:6651  if (registrantToCopy == registrant) {... */\n    tag_349:\n        /* \"Objectron/OperatorFilterRegistry.sol\":6660:6680  address registration */\n      0x00\n        /* \"Objectron/OperatorFilterRegistry.sol\":6683:6697  _registrations */\n      0x02\n        /* \"Objectron/OperatorFilterRegistry.sol\":6683:6709  _registrations[registrant] */\n      0x00\n        /* \"Objectron/OperatorFilterRegistry.sol\":6698:6708  registrant */\n      dup6\n        /* \"Objectron/OperatorFilterRegistry.sol\":6683:6709  _registrations[registrant] */\n      0xffffffffffffffffffffffffffffffffffffffff\n      and\n      0xffffffffffffffffffffffffffffffffffffffff\n      and\n      dup2\n      mstore\n      0x20\n      add\n      swap1\n      dup2\n      mstore\n      0x20\n      add\n      0x00\n      keccak256\n      0x00\n      swap1\n      sload\n      swap1\n      0x0100\n      exp\n      swap1\n      div\n      0xffffffffffffffffffffffffffffffffffffffff\n      and\n        /* \"Objectron/OperatorFilterRegistry.sol\":6660:6709  address registration = _registrations[registrant] */\n      swap1\n      pop\n        /* \"Objectron/OperatorFilterRegistry.sol\":6747:6748  0 */\n      0x00\n        /* \"Objectron/OperatorFilterRegistry.sol\":6723:6749  registration != address(0) */\n      0xffffffffffffffffffffffffffffffffffffffff\n      and\n        /* \"Objectron/OperatorFilterRegistry.sol\":6723:6735  registration */\n      dup2\n        /* \"Objectron/OperatorFilterRegistry.sol\":6723:6749  registration != address(0) */\n      0xffffffffffffffffffffffffffffffffffffffff\n      and\n      eq\n        /* \"Objectron/OperatorFilterRegistry.sol\":6719:6802  if (registration != address(0)) {... */\n      tag_350\n      jumpi\n        /* \"Objectron/OperatorFilterRegistry.sol\":6772:6791  AlreadyRegistered() */\n      mload(0x40)\n      0x3a81d6fc00000000000000000000000000000000000000000000000000000000\n      dup2\n      mstore\n      0x04\n      add\n      mload(0x40)\n      dup1\n      swap2\n      sub\n      swap1\n      revert\n        /* \"Objectron/OperatorFilterRegistry.sol\":6719:6802  if (registration != address(0)) {... */\n    tag_350:\n        /* \"Objectron/OperatorFilterRegistry.sol\":6811:6841  address registrantRegistration */\n      0x00\n        /* \"Objectron/OperatorFilterRegistry.sol\":6844:6858  _registrations */\n      0x02\n        /* \"Objectron/OperatorFilterRegistry.sol\":6844:6876  _registrations[registrantToCopy] */\n      0x00\n        /* \"Objectron/OperatorFilterRegistry.sol\":6859:6875  registrantToCopy */\n      dup6\n        /* \"Objectron/OperatorFilterRegistry.sol\":6844:6876  _registrations[registrantToCopy] */\n      0xffffffffffffffffffffffffffffffffffffffff\n      and\n      0xffffffffffffffffffffffffffffffffffffffff\n      and\n      dup2\n      mstore\n      0x20\n      add\n      swap1\n      dup2\n      mstore\n      0x20\n      add\n      0x00\n      keccak256\n      0x00\n      swap1\n      sload\n      swap1\n      0x0100\n      exp\n      swap1\n      div\n      0xffffffffffffffffffffffffffffffffffffffff\n      and\n        /* \"Objectron/OperatorFilterRegistry.sol\":6811:6876  address registrantRegistration = _registrations[registrantToCopy] */\n      swap1\n      pop\n        /* \"Objectron/OperatorFilterRegistry.sol\":6924:6925  0 */\n      0x00\n        /* \"Objectron/OperatorFilterRegistry.sol\":6890:6926  registrantRegistration == address(0) */\n      0xffffffffffffffffffffffffffffffffffffffff\n      and\n        /* \"Objectron/OperatorFilterRegistry.sol\":6890:6912  registrantRegistration */\n      dup2\n        /* \"Objectron/OperatorFilterRegistry.sol\":6890:6926  registrantRegistration == address(0) */\n      0xffffffffffffffffffffffffffffffffffffffff\n      and\n      sub\n        /* \"Objectron/OperatorFilterRegistry.sol\":6886:6991  if (registrantRegistration == address(0)) {... */\n      tag_351\n      jumpi\n        /* \"Objectron/OperatorFilterRegistry.sol\":6963:6979  registrantToCopy */\n      dup4\n        /* \"Objectron/OperatorFilterRegistry.sol\":6949:6980  NotRegistered(registrantToCopy) */\n      mload(0x40)\n      0xbfc6c33700000000000000000000000000000000000000000000000000000000\n      dup2\n      mstore\n      0x04\n      add\n      tag_352\n      swap2\n      swap1\n      tag_55\n      jump\t// in\n    tag_352:\n      mload(0x40)\n      dup1\n      swap2\n      sub\n      swap1\n      revert\n        /* \"Objectron/OperatorFilterRegistry.sol\":6886:6991  if (registrantRegistration == address(0)) {... */\n    tag_351:\n        /* \"Objectron/OperatorFilterRegistry.sol\":7029:7039  registrant */\n      dup5\n        /* \"Objectron/OperatorFilterRegistry.sol\":7000:7014  _registrations */\n      0x02\n        /* \"Objectron/OperatorFilterRegistry.sol\":7000:7026  _registrations[registrant] */\n      0x00\n        /* \"Objectron/OperatorFilterRegistry.sol\":7015:7025  registrant */\n      dup8\n        /* \"Objectron/OperatorFilterRegistry.sol\":7000:7026  _registrations[registrant] */\n      0xffffffffffffffffffffffffffffffffffffffff\n      and\n      0xffffffffffffffffffffffffffffffffffffffff\n      and\n      dup2\n      mstore\n      0x20\n      add\n      swap1\n      dup2\n      mstore\n      0x20\n      add\n      0x00\n      keccak256\n      0x00\n        /* \"Objectron/OperatorFilterRegistry.sol\":7000:7039  _registrations[registrant] = registrant */\n      0x0100\n      exp\n      dup2\n      sload\n      dup2\n      0xffffffffffffffffffffffffffffffffffffffff\n      mul\n      not\n      and\n      swap1\n      dup4\n      0xffffffffffffffffffffffffffffffffffffffff\n      and\n      mul\n      or\n      swap1\n      sstore\n      pop\n        /* \"Objectron/OperatorFilterRegistry.sol\":7086:7090  true */\n      0x01\n        /* \"Objectron/OperatorFilterRegistry.sol\":7054:7091  RegistrationUpdated(registrant, true) */\n      iszero\n      iszero\n        /* \"Objectron/OperatorFilterRegistry.sol\":7074:7084  registrant */\n      dup6\n        /* \"Objectron/OperatorFilterRegistry.sol\":7054:7091  RegistrationUpdated(registrant, true) */\n      0xffffffffffffffffffffffffffffffffffffffff\n      and\n      0x86d03f430c7616021073d7a71766f632f1ce19f289aa989534d9f4732253eb59\n      mload(0x40)\n      mload(0x40)\n      dup1\n      swap2\n      sub\n      swap1\n      log3\n        /* \"Objectron/OperatorFilterRegistry.sol\":7101:7143  _copyEntries(registrant, registrantToCopy) */\n      tag_353\n        /* \"Objectron/OperatorFilterRegistry.sol\":7114:7124  registrant */\n      dup6\n        /* \"Objectron/OperatorFilterRegistry.sol\":7126:7142  registrantToCopy */\n      dup6\n        /* \"Objectron/OperatorFilterRegistry.sol\":7101:7113  _copyEntries */\n      tag_196\n        /* \"Objectron/OperatorFilterRegistry.sol\":7101:7143  _copyEntries(registrant, registrantToCopy) */\n      jump\t// in\n    tag_353:\n        /* \"Objectron/OperatorFilterRegistry.sol\":6553:7150  {... */\n      pop\n      pop\n        /* \"Objectron/OperatorFilterRegistry.sol\":6415:7150  function registerAndCopyEntries(address registrant, address registrantToCopy)... */\n      pop\n      pop\n      pop\n      jump\t// out\n        /* \"Objectron/OperatorFilterRegistry.sol\":10235:11658  function updateOperators(address registrant, address[] calldata operators, bool filtered)... */\n    tag_96:\n        /* \"Objectron/OperatorFilterRegistry.sol\":10369:10379  registrant */\n      dup4\n        /* \"Objectron/OperatorFilterRegistry.sol\":1693:1697  addr */\n      dup1\n        /* \"Objectron/OperatorFilterRegistry.sol\":1679:1697  msg.sender != addr */\n      0xffffffffffffffffffffffffffffffffffffffff\n      and\n        /* \"Objectron/OperatorFilterRegistry.sol\":1679:1689  msg.sender */\n      caller\n        /* \"Objectron/OperatorFilterRegistry.sol\":1679:1697  msg.sender != addr */\n      0xffffffffffffffffffffffffffffffffffffffff\n      and\n      eq\n        /* \"Objectron/OperatorFilterRegistry.sol\":1675:2239  if (msg.sender != addr) {... */\n      tag_355\n      jumpi\n        /* \"Objectron/OperatorFilterRegistry.sol\":1725:1729  addr */\n      dup1\n        /* \"Objectron/OperatorFilterRegistry.sol\":1717:1736  Ownable(addr).owner */\n      0xffffffffffffffffffffffffffffffffffffffff\n      and\n      0x8da5cb5b\n        /* \"Objectron/OperatorFilterRegistry.sol\":1717:1738  Ownable(addr).owner() */\n      mload(0x40)\n      dup2\n      0xffffffff\n      and\n      0xe0\n      shl\n      dup2\n      mstore\n      0x04\n      add\n      0x20\n      mload(0x40)\n      dup1\n      dup4\n      sub\n      dup2\n      dup7\n      gas\n      staticcall\n      swap3\n      pop\n      pop\n      pop\n      dup1\n      iszero\n      tag_356\n      jumpi\n      pop\n      mload(0x40)\n      returndatasize\n      not(0x1f)\n      0x1f\n      dup3\n      add\n      and\n      dup3\n      add\n      dup1\n      0x40\n      mstore\n      pop\n      dup2\n      add\n      swap1\n      tag_357\n      swap2\n      swap1\n      tag_133\n      jump\t// in\n    tag_357:\n      0x01\n    tag_356:\n        /* \"Objectron/OperatorFilterRegistry.sol\":1713:2229  try Ownable(addr).owner() returns (address owner) {... */\n      tag_358\n      jumpi\n      returndatasize\n      dup1\n      0x00\n      dup2\n      eq\n      tag_363\n      jumpi\n      mload(0x40)\n      swap2\n      pop\n      and(add(returndatasize, 0x3f), not(0x1f))\n      dup3\n      add\n      0x40\n      mstore\n      returndatasize\n      dup3\n      mstore\n      returndatasize\n      0x00\n      0x20\n      dup5\n      add\n      returndatacopy\n      jump(tag_362)\n    tag_363:\n      0x60\n      swap2\n      pop\n    tag_362:\n      pop\n        /* \"Objectron/OperatorFilterRegistry.sol\":1956:1957  0 */\n      0x00\n        /* \"Objectron/OperatorFilterRegistry.sol\":1939:1945  reason */\n      dup2\n        /* \"Objectron/OperatorFilterRegistry.sol\":1939:1952  reason.length */\n      mload\n        /* \"Objectron/OperatorFilterRegistry.sol\":1939:1957  reason.length == 0 */\n      sub\n        /* \"Objectron/OperatorFilterRegistry.sol\":1935:2215  if (reason.length == 0) {... */\n      tag_364\n      jumpi\n        /* \"Objectron/OperatorFilterRegistry.sol\":1988:2000  NotOwnable() */\n      mload(0x40)\n      0xb2c1414000000000000000000000000000000000000000000000000000000000\n      dup2\n      mstore\n      0x04\n      add\n      mload(0x40)\n      dup1\n      swap2\n      sub\n      swap1\n      revert\n        /* \"Objectron/OperatorFilterRegistry.sol\":1935:2215  if (reason.length == 0) {... */\n    tag_364:\n        /* \"Objectron/OperatorFilterRegistry.sol\":2167:2173  reason */\n      dup1\n        /* \"Objectron/OperatorFilterRegistry.sol\":2161:2174  mload(reason) */\n      mload\n        /* \"Objectron/OperatorFilterRegistry.sol\":2152:2158  reason */\n      dup2\n        /* \"Objectron/OperatorFilterRegistry.sol\":2148:2150  32 */\n      0x20\n        /* \"Objectron/OperatorFilterRegistry.sol\":2144:2159  add(32, reason) */\n      add\n        /* \"Objectron/OperatorFilterRegistry.sol\":2137:2175  revert(add(32, reason), mload(reason)) */\n      revert\n        /* \"Objectron/OperatorFilterRegistry.sol\":1713:2229  try Ownable(addr).owner() returns (address owner) {... */\n    tag_358:\n        /* \"Objectron/OperatorFilterRegistry.sol\":1799:1804  owner */\n      dup1\n        /* \"Objectron/OperatorFilterRegistry.sol\":1785:1804  msg.sender != owner */\n      0xffffffffffffffffffffffffffffffffffffffff\n      and\n        /* \"Objectron/OperatorFilterRegistry.sol\":1785:1795  msg.sender */\n      caller\n        /* \"Objectron/OperatorFilterRegistry.sol\":1785:1804  msg.sender != owner */\n      0xffffffffffffffffffffffffffffffffffffffff\n      and\n      eq\n        /* \"Objectron/OperatorFilterRegistry.sol\":1781:1874  if (msg.sender != owner) {... */\n      tag_367\n      jumpi\n        /* \"Objectron/OperatorFilterRegistry.sol\":1835:1855  OnlyAddressOrOwner() */\n      mload(0x40)\n      0xfcf5eff800000000000000000000000000000000000000000000000000000000\n      dup2\n      mstore\n      0x04\n      add\n      mload(0x40)\n      dup1\n      swap2\n      sub\n      swap1\n      revert\n        /* \"Objectron/OperatorFilterRegistry.sol\":1781:1874  if (msg.sender != owner) {... */\n    tag_367:\n        /* \"Objectron/OperatorFilterRegistry.sol\":1739:1888  returns (address owner) {... */\n      pop\n        /* \"Objectron/OperatorFilterRegistry.sol\":1675:2239  if (msg.sender != addr) {... */\n    tag_355:\n        /* \"Objectron/OperatorFilterRegistry.sol\":10395:10415  address registration */\n      0x00\n        /* \"Objectron/OperatorFilterRegistry.sol\":10418:10432  _registrations */\n      0x02\n        /* \"Objectron/OperatorFilterRegistry.sol\":10418:10444  _registrations[registrant] */\n      0x00\n        /* \"Objectron/OperatorFilterRegistry.sol\":10433:10443  registrant */\n      dup8\n        /* \"Objectron/OperatorFilterRegistry.sol\":10418:10444  _registrations[registrant] */\n      0xffffffffffffffffffffffffffffffffffffffff\n      and\n      0xffffffffffffffffffffffffffffffffffffffff\n      and\n      dup2\n      mstore\n      0x20\n      add\n      swap1\n      dup2\n      mstore\n      0x20\n      add\n      0x00\n      keccak256\n      0x00\n      swap1\n      sload\n      swap1\n      0x0100\n      exp\n      swap1\n      div\n      0xffffffffffffffffffffffffffffffffffffffff\n      and\n        /* \"Objectron/OperatorFilterRegistry.sol\":10395:10444  address registration = _registrations[registrant] */\n      swap1\n      pop\n        /* \"Objectron/OperatorFilterRegistry.sol\":10482:10483  0 */\n      0x00\n        /* \"Objectron/OperatorFilterRegistry.sol\":10458:10484  registration == address(0) */\n      0xffffffffffffffffffffffffffffffffffffffff\n      and\n        /* \"Objectron/OperatorFilterRegistry.sol\":10458:10470  registration */\n      dup2\n        /* \"Objectron/OperatorFilterRegistry.sol\":10458:10484  registration == address(0) */\n      0xffffffffffffffffffffffffffffffffffffffff\n      and\n      sub\n        /* \"Objectron/OperatorFilterRegistry.sol\":10454:10543  if (registration == address(0)) {... */\n      tag_369\n      jumpi\n        /* \"Objectron/OperatorFilterRegistry.sol\":10521:10531  registrant */\n      dup6\n        /* \"Objectron/OperatorFilterRegistry.sol\":10507:10532  NotRegistered(registrant) */\n      mload(0x40)\n      0xbfc6c33700000000000000000000000000000000000000000000000000000000\n      dup2\n      mstore\n      0x04\n      add\n      tag_370\n      swap2\n      swap1\n      tag_55\n      jump\t// in\n    tag_370:\n      mload(0x40)\n      dup1\n      swap2\n      sub\n      swap1\n      revert\n        /* \"Objectron/OperatorFilterRegistry.sol\":10454:10543  if (registration == address(0)) {... */\n    tag_369:\n        /* \"Objectron/OperatorFilterRegistry.sol\":10572:10582  registrant */\n      dup6\n        /* \"Objectron/OperatorFilterRegistry.sol\":10556:10582  registration != registrant */\n      0xffffffffffffffffffffffffffffffffffffffff\n      and\n        /* \"Objectron/OperatorFilterRegistry.sol\":10556:10568  registration */\n      dup2\n        /* \"Objectron/OperatorFilterRegistry.sol\":10556:10582  registration != registrant */\n      0xffffffffffffffffffffffffffffffffffffffff\n      and\n      eq\n        /* \"Objectron/OperatorFilterRegistry.sol\":10552:10657  if (registration != registrant) {... */\n      tag_371\n      jumpi\n        /* \"Objectron/OperatorFilterRegistry.sol\":10633:10645  registration */\n      dup1\n        /* \"Objectron/OperatorFilterRegistry.sol\":10605:10646  CannotUpdateWhileSubscribed(registration) */\n      mload(0x40)\n      0x04af4d6900000000000000000000000000000000000000000000000000000000\n      dup2\n      mstore\n      0x04\n      add\n      tag_372\n      swap2\n      swap1\n      tag_55\n      jump\t// in\n    tag_372:\n      mload(0x40)\n      dup1\n      swap2\n      sub\n      swap1\n      revert\n        /* \"Objectron/OperatorFilterRegistry.sol\":10552:10657  if (registration != registrant) {... */\n    tag_371:\n        /* \"Objectron/OperatorFilterRegistry.sol\":10666:10719  EnumerableSet.AddressSet storage filteredOperatorsRef */\n      0x00\n        /* \"Objectron/OperatorFilterRegistry.sol\":10722:10740  _filteredOperators */\n      dup1\n        /* \"Objectron/OperatorFilterRegistry.sol\":10722:10752  _filteredOperators[registrant] */\n      0x00\n        /* \"Objectron/OperatorFilterRegistry.sol\":10741:10751  registrant */\n      dup9\n        /* \"Objectron/OperatorFilterRegistry.sol\":10722:10752  _filteredOperators[registrant] */\n      0xffffffffffffffffffffffffffffffffffffffff\n      and\n      0xffffffffffffffffffffffffffffffffffffffff\n      and\n      dup2\n      mstore\n      0x20\n      add\n      swap1\n      dup2\n      mstore\n      0x20\n      add\n      0x00\n      keccak256\n        /* \"Objectron/OperatorFilterRegistry.sol\":10666:10752  EnumerableSet.AddressSet storage filteredOperatorsRef = _filteredOperators[registrant] */\n      swap1\n      pop\n        /* \"Objectron/OperatorFilterRegistry.sol\":10762:10785  uint256 operatorsLength */\n      0x00\n        /* \"Objectron/OperatorFilterRegistry.sol\":10788:10797  operators */\n      dup7\n      dup7\n        /* \"Objectron/OperatorFilterRegistry.sol\":10788:10804  operators.length */\n      swap1\n      pop\n        /* \"Objectron/OperatorFilterRegistry.sol\":10762:10804  uint256 operatorsLength = operators.length */\n      swap1\n      pop\n        /* \"Objectron/OperatorFilterRegistry.sol\":10819:10827  filtered */\n      dup5\n        /* \"Objectron/OperatorFilterRegistry.sol\":10814:11588  if (!filtered) {... */\n      tag_373\n      jumpi\n        /* \"Objectron/OperatorFilterRegistry.sol\":10848:10857  uint256 i */\n      0x00\n        /* \"Objectron/OperatorFilterRegistry.sol\":10843:11197  for (uint256 i = 0; i < operatorsLength;) {... */\n    tag_374:\n        /* \"Objectron/OperatorFilterRegistry.sol\":10867:10882  operatorsLength */\n      dup2\n        /* \"Objectron/OperatorFilterRegistry.sol\":10863:10864  i */\n      dup2\n        /* \"Objectron/OperatorFilterRegistry.sol\":10863:10882  i < operatorsLength */\n      lt\n        /* \"Objectron/OperatorFilterRegistry.sol\":10843:11197  for (uint256 i = 0; i < operatorsLength;) {... */\n      iszero\n      tag_375\n      jumpi\n        /* \"Objectron/OperatorFilterRegistry.sol\":10903:10919  address operator */\n      0x00\n        /* \"Objectron/OperatorFilterRegistry.sol\":10922:10931  operators */\n      dup9\n      dup9\n        /* \"Objectron/OperatorFilterRegistry.sol\":10932:10933  i */\n      dup4\n        /* \"Objectron/OperatorFilterRegistry.sol\":10922:10934  operators[i] */\n      dup2\n      dup2\n      lt\n      tag_377\n      jumpi\n      tag_378\n      tag_155\n      jump\t// in\n    tag_378:\n    tag_377:\n      swap1\n      pop\n      0x20\n      mul\n      add\n      0x20\n      dup2\n      add\n      swap1\n      tag_379\n      swap2\n      swap1\n      tag_40\n      jump\t// in\n    tag_379:\n        /* \"Objectron/OperatorFilterRegistry.sol\":10903:10934  address operator = operators[i] */\n      swap1\n      pop\n        /* \"Objectron/OperatorFilterRegistry.sol\":10952:10964  bool removed */\n      0x00\n        /* \"Objectron/OperatorFilterRegistry.sol\":10967:11004  filteredOperatorsRef.remove(operator) */\n      tag_380\n        /* \"Objectron/OperatorFilterRegistry.sol\":10995:11003  operator */\n      dup3\n        /* \"Objectron/OperatorFilterRegistry.sol\":10967:10987  filteredOperatorsRef */\n      dup7\n        /* \"Objectron/OperatorFilterRegistry.sol\":10967:10994  filteredOperatorsRef.remove */\n      tag_221\n      swap1\n        /* \"Objectron/OperatorFilterRegistry.sol\":10967:11004  filteredOperatorsRef.remove(operator) */\n      swap2\n      swap1\n      0xffffffff\n      and\n      jump\t// in\n    tag_380:\n        /* \"Objectron/OperatorFilterRegistry.sol\":10952:11004  bool removed = filteredOperatorsRef.remove(operator) */\n      swap1\n      pop\n        /* \"Objectron/OperatorFilterRegistry.sol\":11027:11034  removed */\n      dup1\n        /* \"Objectron/OperatorFilterRegistry.sol\":11022:11112  if (!removed) {... */\n      tag_381\n      jumpi\n        /* \"Objectron/OperatorFilterRegistry.sol\":11084:11092  operator */\n      dup2\n        /* \"Objectron/OperatorFilterRegistry.sol\":11065:11093  AddressNotFiltered(operator) */\n      mload(0x40)\n      0x45525c0e00000000000000000000000000000000000000000000000000000000\n      dup2\n      mstore\n      0x04\n      add\n      tag_382\n      swap2\n      swap1\n      tag_55\n      jump\t// in\n    tag_382:\n      mload(0x40)\n      dup1\n      swap2\n      sub\n      swap1\n      revert\n        /* \"Objectron/OperatorFilterRegistry.sol\":11022:11112  if (!removed) {... */\n    tag_381:\n        /* \"Objectron/OperatorFilterRegistry.sol\":11161:11164  ++i */\n      dup3\n      0x01\n      add\n      swap3\n      pop\n        /* \"Objectron/OperatorFilterRegistry.sol\":10885:11197  {... */\n      pop\n      pop\n        /* \"Objectron/OperatorFilterRegistry.sol\":10843:11197  for (uint256 i = 0; i < operatorsLength;) {... */\n      jump(tag_374)\n    tag_375:\n      pop\n        /* \"Objectron/OperatorFilterRegistry.sol\":10814:11588  if (!filtered) {... */\n      jump(tag_383)\n    tag_373:\n        /* \"Objectron/OperatorFilterRegistry.sol\":11232:11241  uint256 i */\n      0x00\n        /* \"Objectron/OperatorFilterRegistry.sol\":11227:11578  for (uint256 i = 0; i < operatorsLength;) {... */\n    tag_384:\n        /* \"Objectron/OperatorFilterRegistry.sol\":11251:11266  operatorsLength */\n      dup2\n        /* \"Objectron/OperatorFilterRegistry.sol\":11247:11248  i */\n      dup2\n        /* \"Objectron/OperatorFilterRegistry.sol\":11247:11266  i < operatorsLength */\n      lt\n        /* \"Objectron/OperatorFilterRegistry.sol\":11227:11578  for (uint256 i = 0; i < operatorsLength;) {... */\n      iszero\n      tag_385\n      jumpi\n        /* \"Objectron/OperatorFilterRegistry.sol\":11287:11303  address operator */\n      0x00\n        /* \"Objectron/OperatorFilterRegistry.sol\":11306:11315  operators */\n      dup9\n      dup9\n        /* \"Objectron/OperatorFilterRegistry.sol\":11316:11317  i */\n      dup4\n        /* \"Objectron/OperatorFilterRegistry.sol\":11306:11318  operators[i] */\n      dup2\n      dup2\n      lt\n      tag_387\n      jumpi\n      tag_388\n      tag_155\n      jump\t// in\n    tag_388:\n    tag_387:\n      swap1\n      pop\n      0x20\n      mul\n      add\n      0x20\n      dup2\n      add\n      swap1\n      tag_389\n      swap2\n      swap1\n      tag_40\n      jump\t// in\n    tag_389:\n        /* \"Objectron/OperatorFilterRegistry.sol\":11287:11318  address operator = operators[i] */\n      swap1\n      pop\n        /* \"Objectron/OperatorFilterRegistry.sol\":11336:11346  bool added */\n      0x00\n        /* \"Objectron/OperatorFilterRegistry.sol\":11349:11383  filteredOperatorsRef.add(operator) */\n      tag_390\n        /* \"Objectron/OperatorFilterRegistry.sol\":11374:11382  operator */\n      dup3\n        /* \"Objectron/OperatorFilterRegistry.sol\":11349:11369  filteredOperatorsRef */\n      dup7\n        /* \"Objectron/OperatorFilterRegistry.sol\":11349:11373  filteredOperatorsRef.add */\n      tag_333\n      swap1\n        /* \"Objectron/OperatorFilterRegistry.sol\":11349:11383  filteredOperatorsRef.add(operator) */\n      swap2\n      swap1\n      0xffffffff\n      and\n      jump\t// in\n    tag_390:\n        /* \"Objectron/OperatorFilterRegistry.sol\":11336:11383  bool added = filteredOperatorsRef.add(operator) */\n      swap1\n      pop\n        /* \"Objectron/OperatorFilterRegistry.sol\":11406:11411  added */\n      dup1\n        /* \"Objectron/OperatorFilterRegistry.sol\":11401:11493  if (!added) {... */\n      tag_391\n      jumpi\n        /* \"Objectron/OperatorFilterRegistry.sol\":11465:11473  operator */\n      dup2\n        /* \"Objectron/OperatorFilterRegistry.sol\":11442:11474  AddressAlreadyFiltered(operator) */\n      mload(0x40)\n      0x0bb4423400000000000000000000000000000000000000000000000000000000\n      dup2\n      mstore\n      0x04\n      add\n      tag_392\n      swap2\n      swap1\n      tag_55\n      jump\t// in\n    tag_392:\n      mload(0x40)\n      dup1\n      swap2\n      sub\n      swap1\n      revert\n        /* \"Objectron/OperatorFilterRegistry.sol\":11401:11493  if (!added) {... */\n    tag_391:\n        /* \"Objectron/OperatorFilterRegistry.sol\":11542:11545  ++i */\n      dup3\n      0x01\n      add\n      swap3\n      pop\n        /* \"Objectron/OperatorFilterRegistry.sol\":11269:11578  {... */\n      pop\n      pop\n        /* \"Objectron/OperatorFilterRegistry.sol\":11227:11578  for (uint256 i = 0; i < operatorsLength;) {... */\n      jump(tag_384)\n    tag_385:\n      pop\n        /* \"Objectron/OperatorFilterRegistry.sol\":10814:11588  if (!filtered) {... */\n    tag_383:\n        /* \"Objectron/OperatorFilterRegistry.sol\":11642:11650  filtered */\n      dup5\n        /* \"Objectron/OperatorFilterRegistry.sol\":11602:11651  OperatorsUpdated(registrant, operators, filtered) */\n      iszero\n      iszero\n        /* \"Objectron/OperatorFilterRegistry.sol\":11619:11629  registrant */\n      dup9\n        /* \"Objectron/OperatorFilterRegistry.sol\":11602:11651  OperatorsUpdated(registrant, operators, filtered) */\n      0xffffffffffffffffffffffffffffffffffffffff\n      and\n      0x02b85afdacb82d5512c6f05566b3018677ffcbd7e5f75e498bc64081131cbd6c\n        /* \"Objectron/OperatorFilterRegistry.sol\":11631:11640  operators */\n      dup10\n      dup10\n        /* \"Objectron/OperatorFilterRegistry.sol\":11602:11651  OperatorsUpdated(registrant, operators, filtered) */\n      mload(0x40)\n      tag_393\n      swap3\n      swap2\n      swap1\n      tag_394\n      jump\t// in\n    tag_393:\n      mload(0x40)\n      dup1\n      swap2\n      sub\n      swap1\n      log3\n        /* \"Objectron/OperatorFilterRegistry.sol\":10385:11658  {... */\n      pop\n      pop\n      pop\n        /* \"Objectron/OperatorFilterRegistry.sol\":10235:11658  function updateOperators(address registrant, address[] calldata operators, bool filtered)... */\n      pop\n      pop\n      pop\n      pop\n      pop\n      jump\t// out\n        /* \"Objectron/OperatorFilterRegistry.sol\":7290:8235  function updateOperator(address registrant, address operator, bool filtered)... */\n    tag_100:\n        /* \"Objectron/OperatorFilterRegistry.sol\":7411:7421  registrant */\n      dup3\n        /* \"Objectron/OperatorFilterRegistry.sol\":1693:1697  addr */\n      dup1\n        /* \"Objectron/OperatorFilterRegistry.sol\":1679:1697  msg.sender != addr */\n      0xffffffffffffffffffffffffffffffffffffffff\n      and\n        /* \"Objectron/OperatorFilterRegistry.sol\":1679:1689  msg.sender */\n      caller\n        /* \"Objectron/OperatorFilterRegistry.sol\":1679:1697  msg.sender != addr */\n      0xffffffffffffffffffffffffffffffffffffffff\n      and\n      eq\n        /* \"Objectron/OperatorFilterRegistry.sol\":1675:2239  if (msg.sender != addr) {... */\n      tag_396\n      jumpi\n        /* \"Objectron/OperatorFilterRegistry.sol\":1725:1729  addr */\n      dup1\n        /* \"Objectron/OperatorFilterRegistry.sol\":1717:1736  Ownable(addr).owner */\n      0xffffffffffffffffffffffffffffffffffffffff\n      and\n      0x8da5cb5b\n        /* \"Objectron/OperatorFilterRegistry.sol\":1717:1738  Ownable(addr).owner() */\n      mload(0x40)\n      dup2\n      0xffffffff\n      and\n      0xe0\n      shl\n      dup2\n      mstore\n      0x04\n      add\n      0x20\n      mload(0x40)\n      dup1\n      dup4\n      sub\n      dup2\n      dup7\n      gas\n      staticcall\n      swap3\n      pop\n      pop\n      pop\n      dup1\n      iszero\n      tag_397\n      jumpi\n      pop\n      mload(0x40)\n      returndatasize\n      not(0x1f)\n      0x1f\n      dup3\n      add\n      and\n      dup3\n      add\n      dup1\n      0x40\n      mstore\n      pop\n      dup2\n      add\n      swap1\n      tag_398\n      swap2\n      swap1\n      tag_133\n      jump\t// in\n    tag_398:\n      0x01\n    tag_397:\n        /* \"Objectron/OperatorFilterRegistry.sol\":1713:2229  try Ownable(addr).owner() returns (address owner) {... */\n      tag_399\n      jumpi\n      returndatasize\n      dup1\n      0x00\n      dup2\n      eq\n      tag_404\n      jumpi\n      mload(0x40)\n      swap2\n      pop\n      and(add(returndatasize, 0x3f), not(0x1f))\n      dup3\n      add\n      0x40\n      mstore\n      returndatasize\n      dup3\n      mstore\n      returndatasize\n      0x00\n      0x20\n      dup5\n      add\n      returndatacopy\n      jump(tag_403)\n    tag_404:\n      0x60\n      swap2\n      pop\n    tag_403:\n      pop\n        /* \"Objectron/OperatorFilterRegistry.sol\":1956:1957  0 */\n      0x00\n        /* \"Objectron/OperatorFilterRegistry.sol\":1939:1945  reason */\n      dup2\n        /* \"Objectron/OperatorFilterRegistry.sol\":1939:1952  reason.length */\n      mload\n        /* \"Objectron/OperatorFilterRegistry.sol\":1939:1957  reason.length == 0 */\n      sub\n        /* \"Objectron/OperatorFilterRegistry.sol\":1935:2215  if (reason.length == 0) {... */\n      tag_405\n      jumpi\n        /* \"Objectron/OperatorFilterRegistry.sol\":1988:2000  NotOwnable() */\n      mload(0x40)\n      0xb2c1414000000000000000000000000000000000000000000000000000000000\n      dup2\n      mstore\n      0x04\n      add\n      mload(0x40)\n      dup1\n      swap2\n      sub\n      swap1\n      revert\n        /* \"Objectron/OperatorFilterRegistry.sol\":1935:2215  if (reason.length == 0) {... */\n    tag_405:\n        /* \"Objectron/OperatorFilterRegistry.sol\":2167:2173  reason */\n      dup1\n        /* \"Objectron/OperatorFilterRegistry.sol\":2161:2174  mload(reason) */\n      mload\n        /* \"Objectron/OperatorFilterRegistry.sol\":2152:2158  reason */\n      dup2\n        /* \"Objectron/OperatorFilterRegistry.sol\":2148:2150  32 */\n      0x20\n        /* \"Objectron/OperatorFilterRegistry.sol\":2144:2159  add(32, reason) */\n      add\n        /* \"Objectron/OperatorFilterRegistry.sol\":2137:2175  revert(add(32, reason), mload(reason)) */\n      revert\n        /* \"Objectron/OperatorFilterRegistry.sol\":1713:2229  try Ownable(addr).owner() returns (address owner) {... */\n    tag_399:\n        /* \"Objectron/OperatorFilterRegistry.sol\":1799:1804  owner */\n      dup1\n        /* \"Objectron/OperatorFilterRegistry.sol\":1785:1804  msg.sender != owner */\n      0xffffffffffffffffffffffffffffffffffffffff\n      and\n        /* \"Objectron/OperatorFilterRegistry.sol\":1785:1795  msg.sender */\n      caller\n        /* \"Objectron/OperatorFilterRegistry.sol\":1785:1804  msg.sender != owner */\n      0xffffffffffffffffffffffffffffffffffffffff\n      and\n      eq\n        /* \"Objectron/OperatorFilterRegistry.sol\":1781:1874  if (msg.sender != owner) {... */\n      tag_408\n      jumpi\n        /* \"Objectron/OperatorFilterRegistry.sol\":1835:1855  OnlyAddressOrOwner() */\n      mload(0x40)\n      0xfcf5eff800000000000000000000000000000000000000000000000000000000\n      dup2\n      mstore\n      0x04\n      add\n      mload(0x40)\n      dup1\n      swap2\n      sub\n      swap1\n      revert\n        /* \"Objectron/OperatorFilterRegistry.sol\":1781:1874  if (msg.sender != owner) {... */\n    tag_408:\n        /* \"Objectron/OperatorFilterRegistry.sol\":1739:1888  returns (address owner) {... */\n      pop\n        /* \"Objectron/OperatorFilterRegistry.sol\":1675:2239  if (msg.sender != addr) {... */\n    tag_396:\n        /* \"Objectron/OperatorFilterRegistry.sol\":7437:7457  address registration */\n      0x00\n        /* \"Objectron/OperatorFilterRegistry.sol\":7460:7474  _registrations */\n      0x02\n        /* \"Objectron/OperatorFilterRegistry.sol\":7460:7486  _registrations[registrant] */\n      0x00\n        /* \"Objectron/OperatorFilterRegistry.sol\":7475:7485  registrant */\n      dup7\n        /* \"Objectron/OperatorFilterRegistry.sol\":7460:7486  _registrations[registrant] */\n      0xffffffffffffffffffffffffffffffffffffffff\n      and\n      0xffffffffffffffffffffffffffffffffffffffff\n      and\n      dup2\n      mstore\n      0x20\n      add\n      swap1\n      dup2\n      mstore\n      0x20\n      add\n      0x00\n      keccak256\n      0x00\n      swap1\n      sload\n      swap1\n      0x0100\n      exp\n      swap1\n      div\n      0xffffffffffffffffffffffffffffffffffffffff\n      and\n        /* \"Objectron/OperatorFilterRegistry.sol\":7437:7486  address registration = _registrations[registrant] */\n      swap1\n      pop\n        /* \"Objectron/OperatorFilterRegistry.sol\":7524:7525  0 */\n      0x00\n        /* \"Objectron/OperatorFilterRegistry.sol\":7500:7526  registration == address(0) */\n      0xffffffffffffffffffffffffffffffffffffffff\n      and\n        /* \"Objectron/OperatorFilterRegistry.sol\":7500:7512  registration */\n      dup2\n        /* \"Objectron/OperatorFilterRegistry.sol\":7500:7526  registration == address(0) */\n      0xffffffffffffffffffffffffffffffffffffffff\n      and\n      sub\n        /* \"Objectron/OperatorFilterRegistry.sol\":7496:7585  if (registration == address(0)) {... */\n      tag_410\n      jumpi\n        /* \"Objectron/OperatorFilterRegistry.sol\":7563:7573  registrant */\n      dup5\n        /* \"Objectron/OperatorFilterRegistry.sol\":7549:7574  NotRegistered(registrant) */\n      mload(0x40)\n      0xbfc6c33700000000000000000000000000000000000000000000000000000000\n      dup2\n      mstore\n      0x04\n      add\n      tag_411\n      swap2\n      swap1\n      tag_55\n      jump\t// in\n    tag_411:\n      mload(0x40)\n      dup1\n      swap2\n      sub\n      swap1\n      revert\n        /* \"Objectron/OperatorFilterRegistry.sol\":7496:7585  if (registration == address(0)) {... */\n    tag_410:\n        /* \"Objectron/OperatorFilterRegistry.sol\":7614:7624  registrant */\n      dup5\n        /* \"Objectron/OperatorFilterRegistry.sol\":7598:7624  registration != registrant */\n      0xffffffffffffffffffffffffffffffffffffffff\n      and\n        /* \"Objectron/OperatorFilterRegistry.sol\":7598:7610  registration */\n      dup2\n        /* \"Objectron/OperatorFilterRegistry.sol\":7598:7624  registration != registrant */\n      0xffffffffffffffffffffffffffffffffffffffff\n      and\n      eq\n        /* \"Objectron/OperatorFilterRegistry.sol\":7594:7699  if (registration != registrant) {... */\n      tag_412\n      jumpi\n        /* \"Objectron/OperatorFilterRegistry.sol\":7675:7687  registration */\n      dup1\n        /* \"Objectron/OperatorFilterRegistry.sol\":7647:7688  CannotUpdateWhileSubscribed(registration) */\n      mload(0x40)\n      0x04af4d6900000000000000000000000000000000000000000000000000000000\n      dup2\n      mstore\n      0x04\n      add\n      tag_413\n      swap2\n      swap1\n      tag_55\n      jump\t// in\n    tag_413:\n      mload(0x40)\n      dup1\n      swap2\n      sub\n      swap1\n      revert\n        /* \"Objectron/OperatorFilterRegistry.sol\":7594:7699  if (registration != registrant) {... */\n    tag_412:\n        /* \"Objectron/OperatorFilterRegistry.sol\":7708:7761  EnumerableSet.AddressSet storage filteredOperatorsRef */\n      0x00\n        /* \"Objectron/OperatorFilterRegistry.sol\":7764:7782  _filteredOperators */\n      dup1\n        /* \"Objectron/OperatorFilterRegistry.sol\":7764:7794  _filteredOperators[registrant] */\n      0x00\n        /* \"Objectron/OperatorFilterRegistry.sol\":7783:7793  registrant */\n      dup8\n        /* \"Objectron/OperatorFilterRegistry.sol\":7764:7794  _filteredOperators[registrant] */\n      0xffffffffffffffffffffffffffffffffffffffff\n      and\n      0xffffffffffffffffffffffffffffffffffffffff\n      and\n      dup2\n      mstore\n      0x20\n      add\n      swap1\n      dup2\n      mstore\n      0x20\n      add\n      0x00\n      keccak256\n        /* \"Objectron/OperatorFilterRegistry.sol\":7708:7794  EnumerableSet.AddressSet storage filteredOperatorsRef = _filteredOperators[registrant] */\n      swap1\n      pop\n        /* \"Objectron/OperatorFilterRegistry.sol\":7810:7818  filtered */\n      dup4\n        /* \"Objectron/OperatorFilterRegistry.sol\":7805:8167  if (!filtered) {... */\n      tag_414\n      jumpi\n        /* \"Objectron/OperatorFilterRegistry.sol\":7834:7846  bool removed */\n      0x00\n        /* \"Objectron/OperatorFilterRegistry.sol\":7849:7886  filteredOperatorsRef.remove(operator) */\n      tag_415\n        /* \"Objectron/OperatorFilterRegistry.sol\":7877:7885  operator */\n      dup7\n        /* \"Objectron/OperatorFilterRegistry.sol\":7849:7869  filteredOperatorsRef */\n      dup4\n        /* \"Objectron/OperatorFilterRegistry.sol\":7849:7876  filteredOperatorsRef.remove */\n      tag_221\n      swap1\n        /* \"Objectron/OperatorFilterRegistry.sol\":7849:7886  filteredOperatorsRef.remove(operator) */\n      swap2\n      swap1\n      0xffffffff\n      and\n      jump\t// in\n    tag_415:\n        /* \"Objectron/OperatorFilterRegistry.sol\":7834:7886  bool removed = filteredOperatorsRef.remove(operator) */\n      swap1\n      pop\n        /* \"Objectron/OperatorFilterRegistry.sol\":7905:7912  removed */\n      dup1\n        /* \"Objectron/OperatorFilterRegistry.sol\":7900:7982  if (!removed) {... */\n      tag_416\n      jumpi\n        /* \"Objectron/OperatorFilterRegistry.sol\":7958:7966  operator */\n      dup6\n        /* \"Objectron/OperatorFilterRegistry.sol\":7939:7967  AddressNotFiltered(operator) */\n      mload(0x40)\n      0x45525c0e00000000000000000000000000000000000000000000000000000000\n      dup2\n      mstore\n      0x04\n      add\n      tag_417\n      swap2\n      swap1\n      tag_55\n      jump\t// in\n    tag_417:\n      mload(0x40)\n      dup1\n      swap2\n      sub\n      swap1\n      revert\n        /* \"Objectron/OperatorFilterRegistry.sol\":7900:7982  if (!removed) {... */\n    tag_416:\n        /* \"Objectron/OperatorFilterRegistry.sol\":7820:7992  {... */\n      pop\n        /* \"Objectron/OperatorFilterRegistry.sol\":7805:8167  if (!filtered) {... */\n      jump(tag_418)\n    tag_414:\n        /* \"Objectron/OperatorFilterRegistry.sol\":8012:8022  bool added */\n      0x00\n        /* \"Objectron/OperatorFilterRegistry.sol\":8025:8059  filteredOperatorsRef.add(operator) */\n      tag_419\n        /* \"Objectron/OperatorFilterRegistry.sol\":8050:8058  operator */\n      dup7\n        /* \"Objectron/OperatorFilterRegistry.sol\":8025:8045  filteredOperatorsRef */\n      dup4\n        /* \"Objectron/OperatorFilterRegistry.sol\":8025:8049  filteredOperatorsRef.add */\n      tag_333\n      swap1\n        /* \"Objectron/OperatorFilterRegistry.sol\":8025:8059  filteredOperatorsRef.add(operator) */\n      swap2\n      swap1\n      0xffffffff\n      and\n      jump\t// in\n    tag_419:\n        /* \"Objectron/OperatorFilterRegistry.sol\":8012:8059  bool added = filteredOperatorsRef.add(operator) */\n      swap1\n      pop\n        /* \"Objectron/OperatorFilterRegistry.sol\":8078:8083  added */\n      dup1\n        /* \"Objectron/OperatorFilterRegistry.sol\":8073:8157  if (!added) {... */\n      tag_420\n      jumpi\n        /* \"Objectron/OperatorFilterRegistry.sol\":8133:8141  operator */\n      dup6\n        /* \"Objectron/OperatorFilterRegistry.sol\":8110:8142  AddressAlreadyFiltered(operator) */\n      mload(0x40)\n      0x0bb4423400000000000000000000000000000000000000000000000000000000\n      dup2\n      mstore\n      0x04\n      add\n      tag_421\n      swap2\n      swap1\n      tag_55\n      jump\t// in\n    tag_421:\n      mload(0x40)\n      dup1\n      swap2\n      sub\n      swap1\n      revert\n        /* \"Objectron/OperatorFilterRegistry.sol\":8073:8157  if (!added) {... */\n    tag_420:\n        /* \"Objectron/OperatorFilterRegistry.sol\":7998:8167  {... */\n      pop\n        /* \"Objectron/OperatorFilterRegistry.sol\":7805:8167  if (!filtered) {... */\n    tag_418:\n        /* \"Objectron/OperatorFilterRegistry.sol\":8219:8227  filtered */\n      dup4\n        /* \"Objectron/OperatorFilterRegistry.sol\":8181:8228  OperatorUpdated(registrant, operator, filtered) */\n      iszero\n      iszero\n        /* \"Objectron/OperatorFilterRegistry.sol\":8209:8217  operator */\n      dup6\n        /* \"Objectron/OperatorFilterRegistry.sol\":8181:8228  OperatorUpdated(registrant, operator, filtered) */\n      0xffffffffffffffffffffffffffffffffffffffff\n      and\n        /* \"Objectron/OperatorFilterRegistry.sol\":8197:8207  registrant */\n      dup8\n        /* \"Objectron/OperatorFilterRegistry.sol\":8181:8228  OperatorUpdated(registrant, operator, filtered) */\n      0xffffffffffffffffffffffffffffffffffffffff\n      and\n      0x2738289d9deecdc30eb8ffc42876633caecca1ffa166e4efa89f408e17373a1a\n      mload(0x40)\n      mload(0x40)\n      dup1\n      swap2\n      sub\n      swap1\n      log4\n        /* \"Objectron/OperatorFilterRegistry.sol\":7427:8235  {... */\n      pop\n      pop\n        /* \"Objectron/OperatorFilterRegistry.sol\":7290:8235  function updateOperator(address registrant, address operator, bool filtered)... */\n      pop\n      pop\n      pop\n      pop\n      jump\t// out\n        /* \"Objectron/OperatorFilterRegistry.sol\":23286:23621  function filteredCodeHashAt(address registrant, uint256 index) external view returns (bytes32) {... */\n    tag_103:\n        /* \"Objectron/OperatorFilterRegistry.sol\":23372:23379  bytes32 */\n      0x00\n        /* \"Objectron/OperatorFilterRegistry.sol\":23391:23411  address registration */\n      dup1\n        /* \"Objectron/OperatorFilterRegistry.sol\":23414:23428  _registrations */\n      0x02\n        /* \"Objectron/OperatorFilterRegistry.sol\":23414:23440  _registrations[registrant] */\n      0x00\n        /* \"Objectron/OperatorFilterRegistry.sol\":23429:23439  registrant */\n      dup6\n        /* \"Objectron/OperatorFilterRegistry.sol\":23414:23440  _registrations[registrant] */\n      0xffffffffffffffffffffffffffffffffffffffff\n      and\n      0xffffffffffffffffffffffffffffffffffffffff\n      and\n      dup2\n      mstore\n      0x20\n      add\n      swap1\n      dup2\n      mstore\n      0x20\n      add\n      0x00\n      keccak256\n      0x00\n      swap1\n      sload\n      swap1\n      0x0100\n      exp\n      swap1\n      div\n      0xffffffffffffffffffffffffffffffffffffffff\n      and\n        /* \"Objectron/OperatorFilterRegistry.sol\":23391:23440  address registration = _registrations[registrant] */\n      swap1\n      pop\n        /* \"Objectron/OperatorFilterRegistry.sol\":23470:23480  registrant */\n      dup4\n        /* \"Objectron/OperatorFilterRegistry.sol\":23454:23480  registration != registrant */\n      0xffffffffffffffffffffffffffffffffffffffff\n      and\n        /* \"Objectron/OperatorFilterRegistry.sol\":23454:23466  registration */\n      dup2\n        /* \"Objectron/OperatorFilterRegistry.sol\":23454:23480  registration != registrant */\n      0xffffffffffffffffffffffffffffffffffffffff\n      and\n      eq\n        /* \"Objectron/OperatorFilterRegistry.sol\":23450:23557  if (registration != registrant) {... */\n      tag_423\n      jumpi\n        /* \"Objectron/OperatorFilterRegistry.sol\":23503:23546  _filteredCodeHashes[registration].at(index) */\n      tag_424\n        /* \"Objectron/OperatorFilterRegistry.sol\":23540:23545  index */\n      dup4\n        /* \"Objectron/OperatorFilterRegistry.sol\":23503:23522  _filteredCodeHashes */\n      0x01\n        /* \"Objectron/OperatorFilterRegistry.sol\":23503:23536  _filteredCodeHashes[registration] */\n      0x00\n        /* \"Objectron/OperatorFilterRegistry.sol\":23523:23535  registration */\n      dup5\n        /* \"Objectron/OperatorFilterRegistry.sol\":23503:23536  _filteredCodeHashes[registration] */\n      0xffffffffffffffffffffffffffffffffffffffff\n      and\n      0xffffffffffffffffffffffffffffffffffffffff\n      and\n      dup2\n      mstore\n      0x20\n      add\n      swap1\n      dup2\n      mstore\n      0x20\n      add\n      0x00\n      keccak256\n        /* \"Objectron/OperatorFilterRegistry.sol\":23503:23539  _filteredCodeHashes[registration].at */\n      tag_425\n      swap1\n        /* \"Objectron/OperatorFilterRegistry.sol\":23503:23546  _filteredCodeHashes[registration].at(index) */\n      swap2\n      swap1\n      0xffffffff\n      and\n      jump\t// in\n    tag_424:\n        /* \"Objectron/OperatorFilterRegistry.sol\":23496:23546  return _filteredCodeHashes[registration].at(index) */\n      swap2\n      pop\n      pop\n      jump(tag_422)\n        /* \"Objectron/OperatorFilterRegistry.sol\":23450:23557  if (registration != registrant) {... */\n    tag_423:\n        /* \"Objectron/OperatorFilterRegistry.sol\":23573:23614  _filteredCodeHashes[registrant].at(index) */\n      tag_426\n        /* \"Objectron/OperatorFilterRegistry.sol\":23608:23613  index */\n      dup4\n        /* \"Objectron/OperatorFilterRegistry.sol\":23573:23592  _filteredCodeHashes */\n      0x01\n        /* \"Objectron/OperatorFilterRegistry.sol\":23573:23604  _filteredCodeHashes[registrant] */\n      0x00\n        /* \"Objectron/OperatorFilterRegistry.sol\":23593:23603  registrant */\n      dup8\n        /* \"Objectron/OperatorFilterRegistry.sol\":23573:23604  _filteredCodeHashes[registrant] */\n      0xffffffffffffffffffffffffffffffffffffffff\n      and\n      0xffffffffffffffffffffffffffffffffffffffff\n      and\n      dup2\n      mstore\n      0x20\n      add\n      swap1\n      dup2\n      mstore\n      0x20\n      add\n      0x00\n      keccak256\n        /* \"Objectron/OperatorFilterRegistry.sol\":23573:23607  _filteredCodeHashes[registrant].at */\n      tag_425\n      swap1\n        /* \"Objectron/OperatorFilterRegistry.sol\":23573:23614  _filteredCodeHashes[registrant].at(index) */\n      swap2\n      swap1\n      0xffffffff\n      and\n      jump\t// in\n    tag_426:\n        /* \"Objectron/OperatorFilterRegistry.sol\":23566:23614  return _filteredCodeHashes[registrant].at(index) */\n      swap2\n      pop\n      pop\n        /* \"Objectron/OperatorFilterRegistry.sol\":23286:23621  function filteredCodeHashAt(address registrant, uint256 index) external view returns (bytes32) {... */\n    tag_422:\n      swap3\n      swap2\n      pop\n      pop\n      jump\t// out\n        /* \"Objectron/OperatorFilterRegistry.sol\":14467:15763  function subscribe(address registrant, address newSubscription) external onlyAddressOrOwner(registrant) {... */\n    tag_108:\n        /* \"Objectron/OperatorFilterRegistry.sol\":14559:14569  registrant */\n      dup2\n        /* \"Objectron/OperatorFilterRegistry.sol\":1693:1697  addr */\n      dup1\n        /* \"Objectron/OperatorFilterRegistry.sol\":1679:1697  msg.sender != addr */\n      0xffffffffffffffffffffffffffffffffffffffff\n      and\n        /* \"Objectron/OperatorFilterRegistry.sol\":1679:1689  msg.sender */\n      caller\n        /* \"Objectron/OperatorFilterRegistry.sol\":1679:1697  msg.sender != addr */\n      0xffffffffffffffffffffffffffffffffffffffff\n      and\n      eq\n        /* \"Objectron/OperatorFilterRegistry.sol\":1675:2239  if (msg.sender != addr) {... */\n      tag_428\n      jumpi\n        /* \"Objectron/OperatorFilterRegistry.sol\":1725:1729  addr */\n      dup1\n        /* \"Objectron/OperatorFilterRegistry.sol\":1717:1736  Ownable(addr).owner */\n      0xffffffffffffffffffffffffffffffffffffffff\n      and\n      0x8da5cb5b\n        /* \"Objectron/OperatorFilterRegistry.sol\":1717:1738  Ownable(addr).owner() */\n      mload(0x40)\n      dup2\n      0xffffffff\n      and\n      0xe0\n      shl\n      dup2\n      mstore\n      0x04\n      add\n      0x20\n      mload(0x40)\n      dup1\n      dup4\n      sub\n      dup2\n      dup7\n      gas\n      staticcall\n      swap3\n      pop\n      pop\n      pop\n      dup1\n      iszero\n      tag_429\n      jumpi\n      pop\n      mload(0x40)\n      returndatasize\n      not(0x1f)\n      0x1f\n      dup3\n      add\n      and\n      dup3\n      add\n      dup1\n      0x40\n      mstore\n      pop\n      dup2\n      add\n      swap1\n      tag_430\n      swap2\n      swap1\n      tag_133\n      jump\t// in\n    tag_430:\n      0x01\n    tag_429:\n        /* \"Objectron/OperatorFilterRegistry.sol\":1713:2229  try Ownable(addr).owner() returns (address owner) {... */\n      tag_431\n      jumpi\n      returndatasize\n      dup1\n      0x00\n      dup2\n      eq\n      tag_436\n      jumpi\n      mload(0x40)\n      swap2\n      pop\n      and(add(returndatasize, 0x3f), not(0x1f))\n      dup3\n      add\n      0x40\n      mstore\n      returndatasize\n      dup3\n      mstore\n      returndatasize\n      0x00\n      0x20\n      dup5\n      add\n      returndatacopy\n      jump(tag_435)\n    tag_436:\n      0x60\n      swap2\n      pop\n    tag_435:\n      pop\n        /* \"Objectron/OperatorFilterRegistry.sol\":1956:1957  0 */\n      0x00\n        /* \"Objectron/OperatorFilterRegistry.sol\":1939:1945  reason */\n      dup2\n        /* \"Objectron/OperatorFilterRegistry.sol\":1939:1952  reason.length */\n      mload\n        /* \"Objectron/OperatorFilterRegistry.sol\":1939:1957  reason.length == 0 */\n      sub\n        /* \"Objectron/OperatorFilterRegistry.sol\":1935:2215  if (reason.length == 0) {... */\n      tag_437\n      jumpi\n        /* \"Objectron/OperatorFilterRegistry.sol\":1988:2000  NotOwnable() */\n      mload(0x40)\n      0xb2c1414000000000000000000000000000000000000000000000000000000000\n      dup2\n      mstore\n      0x04\n      add\n      mload(0x40)\n      dup1\n      swap2\n      sub\n      swap1\n      revert\n        /* \"Objectron/OperatorFilterRegistry.sol\":1935:2215  if (reason.length == 0) {... */\n    tag_437:\n        /* \"Objectron/OperatorFilterRegistry.sol\":2167:2173  reason */\n      dup1\n        /* \"Objectron/OperatorFilterRegistry.sol\":2161:2174  mload(reason) */\n      mload\n        /* \"Objectron/OperatorFilterRegistry.sol\":2152:2158  reason */\n      dup2\n        /* \"Objectron/OperatorFilterRegistry.sol\":2148:2150  32 */\n      0x20\n        /* \"Objectron/OperatorFilterRegistry.sol\":2144:2159  add(32, reason) */\n      add\n        /* \"Objectron/OperatorFilterRegistry.sol\":2137:2175  revert(add(32, reason), mload(reason)) */\n      revert\n        /* \"Objectron/OperatorFilterRegistry.sol\":1713:2229  try Ownable(addr).owner() returns (address owner) {... */\n    tag_431:\n        /* \"Objectron/OperatorFilterRegistry.sol\":1799:1804  owner */\n      dup1\n        /* \"Objectron/OperatorFilterRegistry.sol\":1785:1804  msg.sender != owner */\n      0xffffffffffffffffffffffffffffffffffffffff\n      and\n        /* \"Objectron/OperatorFilterRegistry.sol\":1785:1795  msg.sender */\n      caller\n        /* \"Objectron/OperatorFilterRegistry.sol\":1785:1804  msg.sender != owner */\n      0xffffffffffffffffffffffffffffffffffffffff\n      and\n      eq\n        /* \"Objectron/OperatorFilterRegistry.sol\":1781:1874  if (msg.sender != owner) {... */\n      tag_440\n      jumpi\n        /* \"Objectron/OperatorFilterRegistry.sol\":1835:1855  OnlyAddressOrOwner() */\n      mload(0x40)\n      0xfcf5eff800000000000000000000000000000000000000000000000000000000\n      dup2\n      mstore\n      0x04\n      add\n      mload(0x40)\n      dup1\n      swap2\n      sub\n      swap1\n      revert\n        /* \"Objectron/OperatorFilterRegistry.sol\":1781:1874  if (msg.sender != owner) {... */\n    tag_440:\n        /* \"Objectron/OperatorFilterRegistry.sol\":1739:1888  returns (address owner) {... */\n      pop\n        /* \"Objectron/OperatorFilterRegistry.sol\":1675:2239  if (msg.sender != addr) {... */\n    tag_428:\n        /* \"Objectron/OperatorFilterRegistry.sol\":14599:14614  newSubscription */\n      dup2\n        /* \"Objectron/OperatorFilterRegistry.sol\":14585:14614  registrant == newSubscription */\n      0xffffffffffffffffffffffffffffffffffffffff\n      and\n        /* \"Objectron/OperatorFilterRegistry.sol\":14585:14595  registrant */\n      dup4\n        /* \"Objectron/OperatorFilterRegistry.sol\":14585:14614  registrant == newSubscription */\n      0xffffffffffffffffffffffffffffffffffffffff\n      and\n      sub\n        /* \"Objectron/OperatorFilterRegistry.sol\":14581:14671  if (registrant == newSubscription) {... */\n      tag_442\n      jumpi\n        /* \"Objectron/OperatorFilterRegistry.sol\":14637:14660  CannotSubscribeToSelf() */\n      mload(0x40)\n      0x347f118f00000000000000000000000000000000000000000000000000000000\n      dup2\n      mstore\n      0x04\n      add\n      mload(0x40)\n      dup1\n      swap2\n      sub\n      swap1\n      revert\n        /* \"Objectron/OperatorFilterRegistry.sol\":14581:14671  if (registrant == newSubscription) {... */\n    tag_442:\n        /* \"Objectron/OperatorFilterRegistry.sol\":14711:14712  0 */\n      0x00\n        /* \"Objectron/OperatorFilterRegistry.sol\":14684:14713  newSubscription == address(0) */\n      0xffffffffffffffffffffffffffffffffffffffff\n      and\n        /* \"Objectron/OperatorFilterRegistry.sol\":14684:14699  newSubscription */\n      dup3\n        /* \"Objectron/OperatorFilterRegistry.sol\":14684:14713  newSubscription == address(0) */\n      0xffffffffffffffffffffffffffffffffffffffff\n      and\n      sub\n        /* \"Objectron/OperatorFilterRegistry.sol\":14680:14777  if (newSubscription == address(0)) {... */\n      tag_443\n      jumpi\n        /* \"Objectron/OperatorFilterRegistry.sol\":14736:14766  CannotSubscribeToZeroAddress() */\n      mload(0x40)\n      0xb05574d300000000000000000000000000000000000000000000000000000000\n      dup2\n      mstore\n      0x04\n      add\n      mload(0x40)\n      dup1\n      swap2\n      sub\n      swap1\n      revert\n        /* \"Objectron/OperatorFilterRegistry.sol\":14680:14777  if (newSubscription == address(0)) {... */\n    tag_443:\n        /* \"Objectron/OperatorFilterRegistry.sol\":14786:14806  address registration */\n      0x00\n        /* \"Objectron/OperatorFilterRegistry.sol\":14809:14823  _registrations */\n      0x02\n        /* \"Objectron/OperatorFilterRegistry.sol\":14809:14835  _registrations[registrant] */\n      0x00\n        /* \"Objectron/OperatorFilterRegistry.sol\":14824:14834  registrant */\n      dup6\n        /* \"Objectron/OperatorFilterRegistry.sol\":14809:14835  _registrations[registrant] */\n      0xffffffffffffffffffffffffffffffffffffffff\n      and\n      0xffffffffffffffffffffffffffffffffffffffff\n      and\n      dup2\n      mstore\n      0x20\n      add\n      swap1\n      dup2\n      mstore\n      0x20\n      add\n      0x00\n      keccak256\n      0x00\n      swap1\n      sload\n      swap1\n      0x0100\n      exp\n      swap1\n      div\n      0xffffffffffffffffffffffffffffffffffffffff\n      and\n        /* \"Objectron/OperatorFilterRegistry.sol\":14786:14835  address registration = _registrations[registrant] */\n      swap1\n      pop\n        /* \"Objectron/OperatorFilterRegistry.sol\":14873:14874  0 */\n      0x00\n        /* \"Objectron/OperatorFilterRegistry.sol\":14849:14875  registration == address(0) */\n      0xffffffffffffffffffffffffffffffffffffffff\n      and\n        /* \"Objectron/OperatorFilterRegistry.sol\":14849:14861  registration */\n      dup2\n        /* \"Objectron/OperatorFilterRegistry.sol\":14849:14875  registration == address(0) */\n      0xffffffffffffffffffffffffffffffffffffffff\n      and\n      sub\n        /* \"Objectron/OperatorFilterRegistry.sol\":14845:14934  if (registration == address(0)) {... */\n      tag_444\n      jumpi\n        /* \"Objectron/OperatorFilterRegistry.sol\":14912:14922  registrant */\n      dup4\n        /* \"Objectron/OperatorFilterRegistry.sol\":14898:14923  NotRegistered(registrant) */\n      mload(0x40)\n      0xbfc6c33700000000000000000000000000000000000000000000000000000000\n      dup2\n      mstore\n      0x04\n      add\n      tag_445\n      swap2\n      swap1\n      tag_55\n      jump\t// in\n    tag_445:\n      mload(0x40)\n      dup1\n      swap2\n      sub\n      swap1\n      revert\n        /* \"Objectron/OperatorFilterRegistry.sol\":14845:14934  if (registration == address(0)) {... */\n    tag_444:\n        /* \"Objectron/OperatorFilterRegistry.sol\":14963:14978  newSubscription */\n      dup3\n        /* \"Objectron/OperatorFilterRegistry.sol\":14947:14978  registration == newSubscription */\n      0xffffffffffffffffffffffffffffffffffffffff\n      and\n        /* \"Objectron/OperatorFilterRegistry.sol\":14947:14959  registration */\n      dup2\n        /* \"Objectron/OperatorFilterRegistry.sol\":14947:14978  registration == newSubscription */\n      0xffffffffffffffffffffffffffffffffffffffff\n      and\n      sub\n        /* \"Objectron/OperatorFilterRegistry.sol\":14943:15046  if (registration == newSubscription) {... */\n      tag_446\n      jumpi\n        /* \"Objectron/OperatorFilterRegistry.sol\":15019:15034  newSubscription */\n      dup3\n        /* \"Objectron/OperatorFilterRegistry.sol\":15001:15035  AlreadySubscribed(newSubscription) */\n      mload(0x40)\n      0x73a4164900000000000000000000000000000000000000000000000000000000\n      dup2\n      mstore\n      0x04\n      add\n      tag_447\n      swap2\n      swap1\n      tag_55\n      jump\t// in\n    tag_447:\n      mload(0x40)\n      dup1\n      swap2\n      sub\n      swap1\n      revert\n        /* \"Objectron/OperatorFilterRegistry.sol\":14943:15046  if (registration == newSubscription) {... */\n    tag_446:\n        /* \"Objectron/OperatorFilterRegistry.sol\":15055:15090  address newSubscriptionRegistration */\n      0x00\n        /* \"Objectron/OperatorFilterRegistry.sol\":15093:15107  _registrations */\n      0x02\n        /* \"Objectron/OperatorFilterRegistry.sol\":15093:15124  _registrations[newSubscription] */\n      0x00\n        /* \"Objectron/OperatorFilterRegistry.sol\":15108:15123  newSubscription */\n      dup6\n        /* \"Objectron/OperatorFilterRegistry.sol\":15093:15124  _registrations[newSubscription] */\n      0xffffffffffffffffffffffffffffffffffffffff\n      and\n      0xffffffffffffffffffffffffffffffffffffffff\n      and\n      dup2\n      mstore\n      0x20\n      add\n      swap1\n      dup2\n      mstore\n      0x20\n      add\n      0x00\n      keccak256\n      0x00\n      swap1\n      sload\n      swap1\n      0x0100\n      exp\n      swap1\n      div\n      0xffffffffffffffffffffffffffffffffffffffff\n      and\n        /* \"Objectron/OperatorFilterRegistry.sol\":15055:15124  address newSubscriptionRegistration = _registrations[newSubscription] */\n      swap1\n      pop\n        /* \"Objectron/OperatorFilterRegistry.sol\":15177:15178  0 */\n      0x00\n        /* \"Objectron/OperatorFilterRegistry.sol\":15138:15179  newSubscriptionRegistration == address(0) */\n      0xffffffffffffffffffffffffffffffffffffffff\n      and\n        /* \"Objectron/OperatorFilterRegistry.sol\":15138:15165  newSubscriptionRegistration */\n      dup2\n        /* \"Objectron/OperatorFilterRegistry.sol\":15138:15179  newSubscriptionRegistration == address(0) */\n      0xffffffffffffffffffffffffffffffffffffffff\n      and\n      sub\n        /* \"Objectron/OperatorFilterRegistry.sol\":15134:15243  if (newSubscriptionRegistration == address(0)) {... */\n      tag_448\n      jumpi\n        /* \"Objectron/OperatorFilterRegistry.sol\":15216:15231  newSubscription */\n      dup4\n        /* \"Objectron/OperatorFilterRegistry.sol\":15202:15232  NotRegistered(newSubscription) */\n      mload(0x40)\n      0xbfc6c33700000000000000000000000000000000000000000000000000000000\n      dup2\n      mstore\n      0x04\n      add\n      tag_449\n      swap2\n      swap1\n      tag_55\n      jump\t// in\n    tag_449:\n      mload(0x40)\n      dup1\n      swap2\n      sub\n      swap1\n      revert\n        /* \"Objectron/OperatorFilterRegistry.sol\":15134:15243  if (newSubscriptionRegistration == address(0)) {... */\n    tag_448:\n        /* \"Objectron/OperatorFilterRegistry.sol\":15287:15302  newSubscription */\n      dup4\n        /* \"Objectron/OperatorFilterRegistry.sol\":15256:15302  newSubscriptionRegistration != newSubscription */\n      0xffffffffffffffffffffffffffffffffffffffff\n      and\n        /* \"Objectron/OperatorFilterRegistry.sol\":15256:15283  newSubscriptionRegistration */\n      dup2\n        /* \"Objectron/OperatorFilterRegistry.sol\":15256:15302  newSubscriptionRegistration != newSubscription */\n      0xffffffffffffffffffffffffffffffffffffffff\n      and\n      eq\n        /* \"Objectron/OperatorFilterRegistry.sol\":15252:15396  if (newSubscriptionRegistration != newSubscription) {... */\n      tag_450\n      jumpi\n        /* \"Objectron/OperatorFilterRegistry.sol\":15369:15384  newSubscription */\n      dup4\n        /* \"Objectron/OperatorFilterRegistry.sol\":15325:15385  CannotSubscribeToRegistrantWithSubscription(newSubscription) */\n      mload(0x40)\n      0x768e549c00000000000000000000000000000000000000000000000000000000\n      dup2\n      mstore\n      0x04\n      add\n      tag_451\n      swap2\n      swap1\n      tag_55\n      jump\t// in\n    tag_451:\n      mload(0x40)\n      dup1\n      swap2\n      sub\n      swap1\n      revert\n        /* \"Objectron/OperatorFilterRegistry.sol\":15252:15396  if (newSubscriptionRegistration != newSubscription) {... */\n    tag_450:\n        /* \"Objectron/OperatorFilterRegistry.sol\":15426:15436  registrant */\n      dup5\n        /* \"Objectron/OperatorFilterRegistry.sol\":15410:15436  registration != registrant */\n      0xffffffffffffffffffffffffffffffffffffffff\n      and\n        /* \"Objectron/OperatorFilterRegistry.sol\":15410:15422  registration */\n      dup3\n        /* \"Objectron/OperatorFilterRegistry.sol\":15410:15436  registration != registrant */\n      0xffffffffffffffffffffffffffffffffffffffff\n      and\n      eq\n        /* \"Objectron/OperatorFilterRegistry.sol\":15406:15579  if (registration != registrant) {... */\n      tag_452\n      jumpi\n        /* \"Objectron/OperatorFilterRegistry.sol\":15452:15497  _subscribers[registration].remove(registrant) */\n      tag_453\n        /* \"Objectron/OperatorFilterRegistry.sol\":15486:15496  registrant */\n      dup6\n        /* \"Objectron/OperatorFilterRegistry.sol\":15452:15464  _subscribers */\n      0x03\n        /* \"Objectron/OperatorFilterRegistry.sol\":15452:15478  _subscribers[registration] */\n      0x00\n        /* \"Objectron/OperatorFilterRegistry.sol\":15465:15477  registration */\n      dup6\n        /* \"Objectron/OperatorFilterRegistry.sol\":15452:15478  _subscribers[registration] */\n      0xffffffffffffffffffffffffffffffffffffffff\n      and\n      0xffffffffffffffffffffffffffffffffffffffff\n      and\n      dup2\n      mstore\n      0x20\n      add\n      swap1\n      dup2\n      mstore\n      0x20\n      add\n      0x00\n      keccak256\n        /* \"Objectron/OperatorFilterRegistry.sol\":15452:15485  _subscribers[registration].remove */\n      tag_221\n      swap1\n        /* \"Objectron/OperatorFilterRegistry.sol\":15452:15497  _subscribers[registration].remove(registrant) */\n      swap2\n      swap1\n      0xffffffff\n      and\n      jump\t// in\n    tag_453:\n      pop\n        /* \"Objectron/OperatorFilterRegistry.sol\":15562:15567  false */\n      0x00\n        /* \"Objectron/OperatorFilterRegistry.sol\":15516:15568  SubscriptionUpdated(registrant, registration, false) */\n      iszero\n      iszero\n        /* \"Objectron/OperatorFilterRegistry.sol\":15548:15560  registration */\n      dup3\n        /* \"Objectron/OperatorFilterRegistry.sol\":15516:15568  SubscriptionUpdated(registrant, registration, false) */\n      0xffffffffffffffffffffffffffffffffffffffff\n      and\n        /* \"Objectron/OperatorFilterRegistry.sol\":15536:15546  registrant */\n      dup7\n        /* \"Objectron/OperatorFilterRegistry.sol\":15516:15568  SubscriptionUpdated(registrant, registration, false) */\n      0xffffffffffffffffffffffffffffffffffffffff\n      and\n      0x38c54977604f1a5c0a3604cbbecd0153c81e3131799ead95755e8bb5d5b9e8\n      mload(0x40)\n      mload(0x40)\n      dup1\n      swap2\n      sub\n      swap1\n      log4\n        /* \"Objectron/OperatorFilterRegistry.sol\":15406:15579  if (registration != registrant) {... */\n    tag_452:\n        /* \"Objectron/OperatorFilterRegistry.sol\":15617:15632  newSubscription */\n      dup4\n        /* \"Objectron/OperatorFilterRegistry.sol\":15588:15602  _registrations */\n      0x02\n        /* \"Objectron/OperatorFilterRegistry.sol\":15588:15614  _registrations[registrant] */\n      0x00\n        /* \"Objectron/OperatorFilterRegistry.sol\":15603:15613  registrant */\n      dup8\n        /* \"Objectron/OperatorFilterRegistry.sol\":15588:15614  _registrations[registrant] */\n      0xffffffffffffffffffffffffffffffffffffffff\n      and\n      0xffffffffffffffffffffffffffffffffffffffff\n      and\n      dup2\n      mstore\n      0x20\n      add\n      swap1\n      dup2\n      mstore\n      0x20\n      add\n      0x00\n      keccak256\n      0x00\n        /* \"Objectron/OperatorFilterRegistry.sol\":15588:15632  _registrations[registrant] = newSubscription */\n      0x0100\n      exp\n      dup2\n      sload\n      dup2\n      0xffffffffffffffffffffffffffffffffffffffff\n      mul\n      not\n      and\n      swap1\n      dup4\n      0xffffffffffffffffffffffffffffffffffffffff\n      and\n      mul\n      or\n      swap1\n      sstore\n      pop\n        /* \"Objectron/OperatorFilterRegistry.sol\":15642:15687  _subscribers[newSubscription].add(registrant) */\n      tag_454\n        /* \"Objectron/OperatorFilterRegistry.sol\":15676:15686  registrant */\n      dup6\n        /* \"Objectron/OperatorFilterRegistry.sol\":15642:15654  _subscribers */\n      0x03\n        /* \"Objectron/OperatorFilterRegistry.sol\":15642:15671  _subscribers[newSubscription] */\n      0x00\n        /* \"Objectron/OperatorFilterRegistry.sol\":15655:15670  newSubscription */\n      dup8\n        /* \"Objectron/OperatorFilterRegistry.sol\":15642:15671  _subscribers[newSubscription] */\n      0xffffffffffffffffffffffffffffffffffffffff\n      and\n      0xffffffffffffffffffffffffffffffffffffffff\n      and\n      dup2\n      mstore\n      0x20\n      add\n      swap1\n      dup2\n      mstore\n      0x20\n      add\n      0x00\n      keccak256\n        /* \"Objectron/OperatorFilterRegistry.sol\":15642:15675  _subscribers[newSubscription].add */\n      tag_333\n      swap1\n        /* \"Objectron/OperatorFilterRegistry.sol\":15642:15687  _subscribers[newSubscription].add(registrant) */\n      swap2\n      swap1\n      0xffffffff\n      and\n      jump\t// in\n    tag_454:\n      pop\n        /* \"Objectron/OperatorFilterRegistry.sol\":15751:15755  true */\n      0x01\n        /* \"Objectron/OperatorFilterRegistry.sol\":15702:15756  SubscriptionUpdated(registrant, newSubscription, true) */\n      iszero\n      iszero\n        /* \"Objectron/OperatorFilterRegistry.sol\":15734:15749  newSubscription */\n      dup5\n        /* \"Objectron/OperatorFilterRegistry.sol\":15702:15756  SubscriptionUpdated(registrant, newSubscription, true) */\n      0xffffffffffffffffffffffffffffffffffffffff\n      and\n        /* \"Objectron/OperatorFilterRegistry.sol\":15722:15732  registrant */\n      dup7\n        /* \"Objectron/OperatorFilterRegistry.sol\":15702:15756  SubscriptionUpdated(registrant, newSubscription, true) */\n      0xffffffffffffffffffffffffffffffffffffffff\n      and\n      0x38c54977604f1a5c0a3604cbbecd0153c81e3131799ead95755e8bb5d5b9e8\n      mload(0x40)\n      mload(0x40)\n      dup1\n      swap2\n      sub\n      swap1\n      log4\n        /* \"Objectron/OperatorFilterRegistry.sol\":14571:15763  {... */\n      pop\n      pop\n        /* \"Objectron/OperatorFilterRegistry.sol\":14467:15763  function subscribe(address registrant, address newSubscription) external onlyAddressOrOwner(registrant) {... */\n      pop\n      pop\n      pop\n      jump\t// out\n        /* \"Objectron/OperatorFilterRegistry.sol\":23724:23821  function codeHashOf(address a) external view returns (bytes32) {... */\n    tag_111:\n        /* \"Objectron/OperatorFilterRegistry.sol\":23778:23785  bytes32 */\n      0x00\n        /* \"Objectron/OperatorFilterRegistry.sol\":23804:23805  a */\n      dup2\n        /* \"Objectron/OperatorFilterRegistry.sol\":23804:23814  a.codehash */\n      0xffffffffffffffffffffffffffffffffffffffff\n      and\n      extcodehash\n        /* \"Objectron/OperatorFilterRegistry.sol\":23797:23814  return a.codehash */\n      swap1\n      pop\n        /* \"Objectron/OperatorFilterRegistry.sol\":23724:23821  function codeHashOf(address a) external view returns (bytes32) {... */\n      swap2\n      swap1\n      pop\n      jump\t// out\n        /* \"Objectron/OperatorFilterRegistry.sol\":21373:21508  function isRegistered(address registrant) external view returns (bool) {... */\n    tag_115:\n        /* \"Objectron/OperatorFilterRegistry.sol\":21438:21442  bool */\n      0x00\n        /* \"Objectron/OperatorFilterRegistry.sol\":21499:21500  0 */\n      dup1\n        /* \"Objectron/OperatorFilterRegistry.sol\":21461:21501  _registrations[registrant] != address(0) */\n      0xffffffffffffffffffffffffffffffffffffffff\n      and\n        /* \"Objectron/OperatorFilterRegistry.sol\":21461:21475  _registrations */\n      0x02\n        /* \"Objectron/OperatorFilterRegistry.sol\":21461:21487  _registrations[registrant] */\n      0x00\n        /* \"Objectron/OperatorFilterRegistry.sol\":21476:21486  registrant */\n      dup5\n        /* \"Objectron/OperatorFilterRegistry.sol\":21461:21487  _registrations[registrant] */\n      0xffffffffffffffffffffffffffffffffffffffff\n      and\n      0xffffffffffffffffffffffffffffffffffffffff\n      and\n      dup2\n      mstore\n      0x20\n      add\n      swap1\n      dup2\n      mstore\n      0x20\n      add\n      0x00\n      keccak256\n      0x00\n      swap1\n      sload\n      swap1\n      0x0100\n      exp\n      swap1\n      div\n      0xffffffffffffffffffffffffffffffffffffffff\n      and\n        /* \"Objectron/OperatorFilterRegistry.sol\":21461:21501  _registrations[registrant] != address(0) */\n      0xffffffffffffffffffffffffffffffffffffffff\n      and\n      eq\n      iszero\n        /* \"Objectron/OperatorFilterRegistry.sol\":21454:21501  return _registrations[registrant] != address(0) */\n      swap1\n      pop\n        /* \"Objectron/OperatorFilterRegistry.sol\":21373:21508  function isRegistered(address registrant) external view returns (bool) {... */\n      swap2\n      swap1\n      pop\n      jump\t// out\n        /* \"Objectron/OperatorFilterRegistry.sol\":21623:21947  function filteredOperators(address registrant) external view returns (address[] memory) {... */\n    tag_119:\n        /* \"Objectron/OperatorFilterRegistry.sol\":21693:21709  address[] memory */\n      0x60\n        /* \"Objectron/OperatorFilterRegistry.sol\":21721:21741  address registration */\n      0x00\n        /* \"Objectron/OperatorFilterRegistry.sol\":21744:21758  _registrations */\n      0x02\n        /* \"Objectron/OperatorFilterRegistry.sol\":21744:21770  _registrations[registrant] */\n      0x00\n        /* \"Objectron/OperatorFilterRegistry.sol\":21759:21769  registrant */\n      dup5\n        /* \"Objectron/OperatorFilterRegistry.sol\":21744:21770  _registrations[registrant] */\n      0xffffffffffffffffffffffffffffffffffffffff\n      and\n      0xffffffffffffffffffffffffffffffffffffffff\n      and\n      dup2\n      mstore\n      0x20\n      add\n      swap1\n      dup2\n      mstore\n      0x20\n      add\n      0x00\n      keccak256\n      0x00\n      swap1\n      sload\n      swap1\n      0x0100\n      exp\n      swap1\n      div\n      0xffffffffffffffffffffffffffffffffffffffff\n      and\n        /* \"Objectron/OperatorFilterRegistry.sol\":21721:21770  address registration = _registrations[registrant] */\n      swap1\n      pop\n        /* \"Objectron/OperatorFilterRegistry.sol\":21800:21810  registrant */\n      dup3\n        /* \"Objectron/OperatorFilterRegistry.sol\":21784:21810  registration != registrant */\n      0xffffffffffffffffffffffffffffffffffffffff\n      and\n        /* \"Objectron/OperatorFilterRegistry.sol\":21784:21796  registration */\n      dup2\n        /* \"Objectron/OperatorFilterRegistry.sol\":21784:21810  registration != registrant */\n      0xffffffffffffffffffffffffffffffffffffffff\n      and\n      eq\n        /* \"Objectron/OperatorFilterRegistry.sol\":21780:21885  if (registration != registrant) {... */\n      tag_458\n      jumpi\n        /* \"Objectron/OperatorFilterRegistry.sol\":21833:21874  _filteredOperators[registration].values() */\n      tag_459\n        /* \"Objectron/OperatorFilterRegistry.sol\":21833:21851  _filteredOperators */\n      0x00\n        /* \"Objectron/OperatorFilterRegistry.sol\":21833:21865  _filteredOperators[registration] */\n      dup1\n        /* \"Objectron/OperatorFilterRegistry.sol\":21852:21864  registration */\n      dup4\n        /* \"Objectron/OperatorFilterRegistry.sol\":21833:21865  _filteredOperators[registration] */\n      0xffffffffffffffffffffffffffffffffffffffff\n      and\n      0xffffffffffffffffffffffffffffffffffffffff\n      and\n      dup2\n      mstore\n      0x20\n      add\n      swap1\n      dup2\n      mstore\n      0x20\n      add\n      0x00\n      keccak256\n        /* \"Objectron/OperatorFilterRegistry.sol\":21833:21872  _filteredOperators[registration].values */\n      tag_273\n        /* \"Objectron/OperatorFilterRegistry.sol\":21833:21874  _filteredOperators[registration].values() */\n      jump\t// in\n    tag_459:\n        /* \"Objectron/OperatorFilterRegistry.sol\":21826:21874  return _filteredOperators[registration].values() */\n      swap2\n      pop\n      pop\n      jump(tag_457)\n        /* \"Objectron/OperatorFilterRegistry.sol\":21780:21885  if (registration != registrant) {... */\n    tag_458:\n        /* \"Objectron/OperatorFilterRegistry.sol\":21901:21940  _filteredOperators[registrant].values() */\n      tag_460\n        /* \"Objectron/OperatorFilterRegistry.sol\":21901:21919  _filteredOperators */\n      0x00\n        /* \"Objectron/OperatorFilterRegistry.sol\":21901:21931  _filteredOperators[registrant] */\n      dup1\n        /* \"Objectron/OperatorFilterRegistry.sol\":21920:21930  registrant */\n      dup6\n        /* \"Objectron/OperatorFilterRegistry.sol\":21901:21931  _filteredOperators[registrant] */\n      0xffffffffffffffffffffffffffffffffffffffff\n      and\n      0xffffffffffffffffffffffffffffffffffffffff\n      and\n      dup2\n      mstore\n      0x20\n      add\n      swap1\n      dup2\n      mstore\n      0x20\n      add\n      0x00\n      keccak256\n        /* \"Objectron/OperatorFilterRegistry.sol\":21901:21938  _filteredOperators[registrant].values */\n      tag_273\n        /* \"Objectron/OperatorFilterRegistry.sol\":21901:21940  _filteredOperators[registrant].values() */\n      jump\t// in\n    tag_460:\n        /* \"Objectron/OperatorFilterRegistry.sol\":21894:21940  return _filteredOperators[registrant].values() */\n      swap2\n      pop\n      pop\n        /* \"Objectron/OperatorFilterRegistry.sol\":21623:21947  function filteredOperators(address registrant) external view returns (address[] memory) {... */\n    tag_457:\n      swap2\n      swap1\n      pop\n      jump\t// out\n        /* \"Objectron/OperatorFilterRegistry.sol\":2863:3755  function isOperatorAllowed(address registrant, address operator) external view returns (bool) {... */\n    tag_123:\n        /* \"Objectron/OperatorFilterRegistry.sol\":2951:2955  bool */\n      0x00\n        /* \"Objectron/OperatorFilterRegistry.sol\":2967:2987  address registration */\n      dup1\n        /* \"Objectron/OperatorFilterRegistry.sol\":2990:3004  _registrations */\n      0x02\n        /* \"Objectron/OperatorFilterRegistry.sol\":2990:3016  _registrations[registrant] */\n      0x00\n        /* \"Objectron/OperatorFilterRegistry.sol\":3005:3015  registrant */\n      dup6\n        /* \"Objectron/OperatorFilterRegistry.sol\":2990:3016  _registrations[registrant] */\n      0xffffffffffffffffffffffffffffffffffffffff\n      and\n      0xffffffffffffffffffffffffffffffffffffffff\n      and\n      dup2\n      mstore\n      0x20\n      add\n      swap1\n      dup2\n      mstore\n      0x20\n      add\n      0x00\n      keccak256\n      0x00\n      swap1\n      sload\n      swap1\n      0x0100\n      exp\n      swap1\n      div\n      0xffffffffffffffffffffffffffffffffffffffff\n      and\n        /* \"Objectron/OperatorFilterRegistry.sol\":2967:3016  address registration = _registrations[registrant] */\n      swap1\n      pop\n        /* \"Objectron/OperatorFilterRegistry.sol\":3054:3055  0 */\n      0x00\n        /* \"Objectron/OperatorFilterRegistry.sol\":3030:3056  registration != address(0) */\n      0xffffffffffffffffffffffffffffffffffffffff\n      and\n        /* \"Objectron/OperatorFilterRegistry.sol\":3030:3042  registration */\n      dup2\n        /* \"Objectron/OperatorFilterRegistry.sol\":3030:3056  registration != address(0) */\n      0xffffffffffffffffffffffffffffffffffffffff\n      and\n      eq\n        /* \"Objectron/OperatorFilterRegistry.sol\":3026:3728  if (registration != address(0)) {... */\n      tag_462\n      jumpi\n        /* \"Objectron/OperatorFilterRegistry.sol\":3072:3125  EnumerableSet.AddressSet storage filteredOperatorsRef */\n      0x00\n        /* \"Objectron/OperatorFilterRegistry.sol\":3139:3193  EnumerableSet.Bytes32Set storage filteredCodeHashesRef */\n      dup1\n        /* \"Objectron/OperatorFilterRegistry.sol\":3231:3249  _filteredOperators */\n      0x00\n        /* \"Objectron/OperatorFilterRegistry.sol\":3231:3263  _filteredOperators[registration] */\n      dup1\n        /* \"Objectron/OperatorFilterRegistry.sol\":3250:3262  registration */\n      dup5\n        /* \"Objectron/OperatorFilterRegistry.sol\":3231:3263  _filteredOperators[registration] */\n      0xffffffffffffffffffffffffffffffffffffffff\n      and\n      0xffffffffffffffffffffffffffffffffffffffff\n      and\n      dup2\n      mstore\n      0x20\n      add\n      swap1\n      dup2\n      mstore\n      0x20\n      add\n      0x00\n      keccak256\n        /* \"Objectron/OperatorFilterRegistry.sol\":3208:3263  filteredOperatorsRef = _filteredOperators[registration] */\n      swap2\n      pop\n        /* \"Objectron/OperatorFilterRegistry.sol\":3301:3320  _filteredCodeHashes */\n      0x01\n        /* \"Objectron/OperatorFilterRegistry.sol\":3301:3334  _filteredCodeHashes[registration] */\n      0x00\n        /* \"Objectron/OperatorFilterRegistry.sol\":3321:3333  registration */\n      dup5\n        /* \"Objectron/OperatorFilterRegistry.sol\":3301:3334  _filteredCodeHashes[registration] */\n      0xffffffffffffffffffffffffffffffffffffffff\n      and\n      0xffffffffffffffffffffffffffffffffffffffff\n      and\n      dup2\n      mstore\n      0x20\n      add\n      swap1\n      dup2\n      mstore\n      0x20\n      add\n      0x00\n      keccak256\n        /* \"Objectron/OperatorFilterRegistry.sol\":3277:3334  filteredCodeHashesRef = _filteredCodeHashes[registration] */\n      swap1\n      pop\n        /* \"Objectron/OperatorFilterRegistry.sol\":3353:3392  filteredOperatorsRef.contains(operator) */\n      tag_463\n        /* \"Objectron/OperatorFilterRegistry.sol\":3383:3391  operator */\n      dup6\n        /* \"Objectron/OperatorFilterRegistry.sol\":3353:3373  filteredOperatorsRef */\n      dup4\n        /* \"Objectron/OperatorFilterRegistry.sol\":3353:3382  filteredOperatorsRef.contains */\n      tag_464\n      swap1\n        /* \"Objectron/OperatorFilterRegistry.sol\":3353:3392  filteredOperatorsRef.contains(operator) */\n      swap2\n      swap1\n      0xffffffff\n      and\n      jump\t// in\n    tag_463:\n        /* \"Objectron/OperatorFilterRegistry.sol\":3349:3459  if (filteredOperatorsRef.contains(operator)) {... */\n      iszero\n      tag_465\n      jumpi\n        /* \"Objectron/OperatorFilterRegistry.sol\":3435:3443  operator */\n      dup5\n        /* \"Objectron/OperatorFilterRegistry.sol\":3419:3444  AddressFiltered(operator) */\n      mload(0x40)\n      0xa8cf495d00000000000000000000000000000000000000000000000000000000\n      dup2\n      mstore\n      0x04\n      add\n      tag_466\n      swap2\n      swap1\n      tag_55\n      jump\t// in\n    tag_466:\n      mload(0x40)\n      dup1\n      swap2\n      sub\n      swap1\n      revert\n        /* \"Objectron/OperatorFilterRegistry.sol\":3349:3459  if (filteredOperatorsRef.contains(operator)) {... */\n    tag_465:\n        /* \"Objectron/OperatorFilterRegistry.sol\":3499:3500  0 */\n      0x00\n        /* \"Objectron/OperatorFilterRegistry.sol\":3476:3484  operator */\n      dup6\n        /* \"Objectron/OperatorFilterRegistry.sol\":3476:3496  operator.code.length */\n      0xffffffffffffffffffffffffffffffffffffffff\n      and\n      extcodesize\n        /* \"Objectron/OperatorFilterRegistry.sol\":3476:3500  operator.code.length > 0 */\n      gt\n        /* \"Objectron/OperatorFilterRegistry.sol\":3472:3718  if (operator.code.length > 0) {... */\n      iszero\n      tag_467\n      jumpi\n        /* \"Objectron/OperatorFilterRegistry.sol\":3520:3536  bytes32 codeHash */\n      0x00\n        /* \"Objectron/OperatorFilterRegistry.sol\":3539:3547  operator */\n      dup6\n        /* \"Objectron/OperatorFilterRegistry.sol\":3539:3556  operator.codehash */\n      0xffffffffffffffffffffffffffffffffffffffff\n      and\n      extcodehash\n        /* \"Objectron/OperatorFilterRegistry.sol\":3520:3556  bytes32 codeHash = operator.codehash */\n      swap1\n      pop\n        /* \"Objectron/OperatorFilterRegistry.sol\":3578:3618  filteredCodeHashesRef.contains(codeHash) */\n      tag_468\n        /* \"Objectron/OperatorFilterRegistry.sol\":3609:3617  codeHash */\n      dup2\n        /* \"Objectron/OperatorFilterRegistry.sol\":3578:3599  filteredCodeHashesRef */\n      dup4\n        /* \"Objectron/OperatorFilterRegistry.sol\":3578:3608  filteredCodeHashesRef.contains */\n      tag_277\n      swap1\n        /* \"Objectron/OperatorFilterRegistry.sol\":3578:3618  filteredCodeHashesRef.contains(codeHash) */\n      swap2\n      swap1\n      0xffffffff\n      and\n      jump\t// in\n    tag_468:\n        /* \"Objectron/OperatorFilterRegistry.sol\":3574:3704  if (filteredCodeHashesRef.contains(codeHash)) {... */\n      iszero\n      tag_469\n      jumpi\n        /* \"Objectron/OperatorFilterRegistry.sol\":3666:3674  operator */\n      dup6\n        /* \"Objectron/OperatorFilterRegistry.sol\":3676:3684  codeHash */\n      dup2\n        /* \"Objectron/OperatorFilterRegistry.sol\":3649:3685  CodeHashFiltered(operator, codeHash) */\n      mload(0x40)\n      0x5f3853a900000000000000000000000000000000000000000000000000000000\n      dup2\n      mstore\n      0x04\n      add\n      tag_470\n      swap3\n      swap2\n      swap1\n      tag_471\n      jump\t// in\n    tag_470:\n      mload(0x40)\n      dup1\n      swap2\n      sub\n      swap1\n      revert\n        /* \"Objectron/OperatorFilterRegistry.sol\":3574:3704  if (filteredCodeHashesRef.contains(codeHash)) {... */\n    tag_469:\n        /* \"Objectron/OperatorFilterRegistry.sol\":3502:3718  {... */\n      pop\n        /* \"Objectron/OperatorFilterRegistry.sol\":3472:3718  if (operator.code.length > 0) {... */\n    tag_467:\n        /* \"Objectron/OperatorFilterRegistry.sol\":3058:3728  {... */\n      pop\n      pop\n        /* \"Objectron/OperatorFilterRegistry.sol\":3026:3728  if (registration != address(0)) {... */\n    tag_462:\n        /* \"Objectron/OperatorFilterRegistry.sol\":3744:3748  true */\n      0x01\n        /* \"Objectron/OperatorFilterRegistry.sol\":3737:3748  return true */\n      swap2\n      pop\n      pop\n        /* \"Objectron/OperatorFilterRegistry.sol\":2863:3755  function isOperatorAllowed(address registrant, address operator) external view returns (bool) {... */\n      swap3\n      swap2\n      pop\n      pop\n      jump\t// out\n        /* \"Objectron/OperatorFilterRegistry.sol\":19922:20273  function isOperatorFiltered(address registrant, address operator) external view returns (bool) {... */\n    tag_127:\n        /* \"Objectron/OperatorFilterRegistry.sol\":20011:20015  bool */\n      0x00\n        /* \"Objectron/OperatorFilterRegistry.sol\":20027:20047  address registration */\n      dup1\n        /* \"Objectron/OperatorFilterRegistry.sol\":20050:20064  _registrations */\n      0x02\n        /* \"Objectron/OperatorFilterRegistry.sol\":20050:20076  _registrations[registrant] */\n      0x00\n        /* \"Objectron/OperatorFilterRegistry.sol\":20065:20075  registrant */\n      dup6\n        /* \"Objectron/OperatorFilterRegistry.sol\":20050:20076  _registrations[registrant] */\n      0xffffffffffffffffffffffffffffffffffffffff\n      and\n      0xffffffffffffffffffffffffffffffffffffffff\n      and\n      dup2\n      mstore\n      0x20\n      add\n      swap1\n      dup2\n      mstore\n      0x20\n      add\n      0x00\n      keccak256\n      0x00\n      swap1\n      sload\n      swap1\n      0x0100\n      exp\n      swap1\n      div\n      0xffffffffffffffffffffffffffffffffffffffff\n      and\n        /* \"Objectron/OperatorFilterRegistry.sol\":20027:20076  address registration = _registrations[registrant] */\n      swap1\n      pop\n        /* \"Objectron/OperatorFilterRegistry.sol\":20106:20116  registrant */\n      dup4\n        /* \"Objectron/OperatorFilterRegistry.sol\":20090:20116  registration != registrant */\n      0xffffffffffffffffffffffffffffffffffffffff\n      and\n        /* \"Objectron/OperatorFilterRegistry.sol\":20090:20102  registration */\n      dup2\n        /* \"Objectron/OperatorFilterRegistry.sol\":20090:20116  registration != registrant */\n      0xffffffffffffffffffffffffffffffffffffffff\n      and\n      eq\n        /* \"Objectron/OperatorFilterRegistry.sol\":20086:20201  if (registration != registrant) {... */\n      tag_473\n      jumpi\n        /* \"Objectron/OperatorFilterRegistry.sol\":20139:20190  _filteredOperators[registration].contains(operator) */\n      tag_474\n        /* \"Objectron/OperatorFilterRegistry.sol\":20181:20189  operator */\n      dup4\n        /* \"Objectron/OperatorFilterRegistry.sol\":20139:20157  _filteredOperators */\n      0x00\n        /* \"Objectron/OperatorFilterRegistry.sol\":20139:20171  _filteredOperators[registration] */\n      dup1\n        /* \"Objectron/OperatorFilterRegistry.sol\":20158:20170  registration */\n      dup5\n        /* \"Objectron/OperatorFilterRegistry.sol\":20139:20171  _filteredOperators[registration] */\n      0xffffffffffffffffffffffffffffffffffffffff\n      and\n      0xffffffffffffffffffffffffffffffffffffffff\n      and\n      dup2\n      mstore\n      0x20\n      add\n      swap1\n      dup2\n      mstore\n      0x20\n      add\n      0x00\n      keccak256\n        /* \"Objectron/OperatorFilterRegistry.sol\":20139:20180  _filteredOperators[registration].contains */\n      tag_464\n      swap1\n        /* \"Objectron/OperatorFilterRegistry.sol\":20139:20190  _filteredOperators[registration].contains(operator) */\n      swap2\n      swap1\n      0xffffffff\n      and\n      jump\t// in\n    tag_474:\n        /* \"Objectron/OperatorFilterRegistry.sol\":20132:20190  return _filteredOperators[registration].contains(operator) */\n      swap2\n      pop\n      pop\n      jump(tag_472)\n        /* \"Objectron/OperatorFilterRegistry.sol\":20086:20201  if (registration != registrant) {... */\n    tag_473:\n        /* \"Objectron/OperatorFilterRegistry.sol\":20217:20266  _filteredOperators[registrant].contains(operator) */\n      tag_475\n        /* \"Objectron/OperatorFilterRegistry.sol\":20257:20265  operator */\n      dup4\n        /* \"Objectron/OperatorFilterRegistry.sol\":20217:20235  _filteredOperators */\n      0x00\n        /* \"Objectron/OperatorFilterRegistry.sol\":20217:20247  _filteredOperators[registrant] */\n      dup1\n        /* \"Objectron/OperatorFilterRegistry.sol\":20236:20246  registrant */\n      dup8\n        /* \"Objectron/OperatorFilterRegistry.sol\":20217:20247  _filteredOperators[registrant] */\n      0xffffffffffffffffffffffffffffffffffffffff\n      and\n      0xffffffffffffffffffffffffffffffffffffffff\n      and\n      dup2\n      mstore\n      0x20\n      add\n      swap1\n      dup2\n      mstore\n      0x20\n      add\n      0x00\n      keccak256\n        /* \"Objectron/OperatorFilterRegistry.sol\":20217:20256  _filteredOperators[registrant].contains */\n      tag_464\n      swap1\n        /* \"Objectron/OperatorFilterRegistry.sol\":20217:20266  _filteredOperators[registrant].contains(operator) */\n      swap2\n      swap1\n      0xffffffff\n      and\n      jump\t// in\n    tag_475:\n        /* \"Objectron/OperatorFilterRegistry.sol\":20210:20266  return _filteredOperators[registrant].contains(operator) */\n      swap2\n      pop\n      pop\n        /* \"Objectron/OperatorFilterRegistry.sol\":19922:20273  function isOperatorFiltered(address registrant, address operator) external view returns (bool) {... */\n    tag_472:\n      swap3\n      swap2\n      pop\n      pop\n      jump\t// out\n        /* \"@openzeppelin/contracts/utils/structs/EnumerableSet.sol\":6202:6331  function remove(Bytes32Set storage set, bytes32 value) internal returns (bool) {... */\n    tag_157:\n        /* \"@openzeppelin/contracts/utils/structs/EnumerableSet.sol\":6275:6279  bool */\n      0x00\n        /* \"@openzeppelin/contracts/utils/structs/EnumerableSet.sol\":6298:6324  _remove(set._inner, value) */\n      tag_477\n        /* \"@openzeppelin/contracts/utils/structs/EnumerableSet.sol\":6306:6309  set */\n      dup4\n        /* \"@openzeppelin/contracts/utils/structs/EnumerableSet.sol\":6306:6316  set._inner */\n      0x00\n      add\n        /* \"@openzeppelin/contracts/utils/structs/EnumerableSet.sol\":6318:6323  value */\n      dup4\n        /* \"@openzeppelin/contracts/utils/structs/EnumerableSet.sol\":6298:6305  _remove */\n      tag_478\n        /* \"@openzeppelin/contracts/utils/structs/EnumerableSet.sol\":6298:6324  _remove(set._inner, value) */\n      jump\t// in\n    tag_477:\n        /* \"@openzeppelin/contracts/utils/structs/EnumerableSet.sol\":6291:6324  return _remove(set._inner, value) */\n      swap1\n      pop\n        /* \"@openzeppelin/contracts/utils/structs/EnumerableSet.sol\":6202:6331  function remove(Bytes32Set storage set, bytes32 value) internal returns (bool) {... */\n      swap3\n      swap2\n      pop\n      pop\n      jump\t// out\n        /* \"@openzeppelin/contracts/utils/structs/EnumerableSet.sol\":5911:6034  function add(Bytes32Set storage set, bytes32 value) internal returns (bool) {... */\n    tag_168:\n        /* \"@openzeppelin/contracts/utils/structs/EnumerableSet.sol\":5981:5985  bool */\n      0x00\n        /* \"@openzeppelin/contracts/utils/structs/EnumerableSet.sol\":6004:6027  _add(set._inner, value) */\n      tag_480\n        /* \"@openzeppelin/contracts/utils/structs/EnumerableSet.sol\":6009:6012  set */\n      dup4\n        /* \"@openzeppelin/contracts/utils/structs/EnumerableSet.sol\":6009:6019  set._inner */\n      0x00\n      add\n        /* \"@openzeppelin/contracts/utils/structs/EnumerableSet.sol\":6021:6026  value */\n      dup4\n        /* \"@openzeppelin/contracts/utils/structs/EnumerableSet.sol\":6004:6008  _add */\n      tag_481\n        /* \"@openzeppelin/contracts/utils/structs/EnumerableSet.sol\":6004:6027  _add(set._inner, value) */\n      jump\t// in\n    tag_480:\n        /* \"@openzeppelin/contracts/utils/structs/EnumerableSet.sol\":5997:6027  return _add(set._inner, value) */\n      swap1\n      pop\n        /* \"@openzeppelin/contracts/utils/structs/EnumerableSet.sol\":5911:6034  function add(Bytes32Set storage set, bytes32 value) internal returns (bool) {... */\n      swap3\n      swap2\n      pop\n      pop\n      jump\t// out\n        /* \"Objectron/OperatorFilterRegistry.sol\":17487:18655  function _copyEntries(address registrant, address registrantToCopy) private {... */\n    tag_196:\n        /* \"Objectron/OperatorFilterRegistry.sol\":17573:17626  EnumerableSet.AddressSet storage filteredOperatorsRef */\n      0x00\n        /* \"Objectron/OperatorFilterRegistry.sol\":17629:17647  _filteredOperators */\n      dup1\n        /* \"Objectron/OperatorFilterRegistry.sol\":17629:17665  _filteredOperators[registrantToCopy] */\n      0x00\n        /* \"Objectron/OperatorFilterRegistry.sol\":17648:17664  registrantToCopy */\n      dup4\n        /* \"Objectron/OperatorFilterRegistry.sol\":17629:17665  _filteredOperators[registrantToCopy] */\n      0xffffffffffffffffffffffffffffffffffffffff\n      and\n      0xffffffffffffffffffffffffffffffffffffffff\n      and\n      dup2\n      mstore\n      0x20\n      add\n      swap1\n      dup2\n      mstore\n      0x20\n      add\n      0x00\n      keccak256\n        /* \"Objectron/OperatorFilterRegistry.sol\":17573:17665  EnumerableSet.AddressSet storage filteredOperatorsRef = _filteredOperators[registrantToCopy] */\n      swap1\n      pop\n        /* \"Objectron/OperatorFilterRegistry.sol\":17675:17729  EnumerableSet.Bytes32Set storage filteredCodeHashesRef */\n      0x00\n        /* \"Objectron/OperatorFilterRegistry.sol\":17732:17751  _filteredCodeHashes */\n      0x01\n        /* \"Objectron/OperatorFilterRegistry.sol\":17732:17769  _filteredCodeHashes[registrantToCopy] */\n      0x00\n        /* \"Objectron/OperatorFilterRegistry.sol\":17752:17768  registrantToCopy */\n      dup5\n        /* \"Objectron/OperatorFilterRegistry.sol\":17732:17769  _filteredCodeHashes[registrantToCopy] */\n      0xffffffffffffffffffffffffffffffffffffffff\n      and\n      0xffffffffffffffffffffffffffffffffffffffff\n      and\n      dup2\n      mstore\n      0x20\n      add\n      swap1\n      dup2\n      mstore\n      0x20\n      add\n      0x00\n      keccak256\n        /* \"Objectron/OperatorFilterRegistry.sol\":17675:17769  EnumerableSet.Bytes32Set storage filteredCodeHashesRef = _filteredCodeHashes[registrantToCopy] */\n      swap1\n      pop\n        /* \"Objectron/OperatorFilterRegistry.sol\":17779:17810  uint256 filteredOperatorsLength */\n      0x00\n        /* \"Objectron/OperatorFilterRegistry.sol\":17813:17842  filteredOperatorsRef.length() */\n      tag_483\n        /* \"Objectron/OperatorFilterRegistry.sol\":17813:17833  filteredOperatorsRef */\n      dup4\n        /* \"Objectron/OperatorFilterRegistry.sol\":17813:17840  filteredOperatorsRef.length */\n      tag_484\n        /* \"Objectron/OperatorFilterRegistry.sol\":17813:17842  filteredOperatorsRef.length() */\n      jump\t// in\n    tag_483:\n        /* \"Objectron/OperatorFilterRegistry.sol\":17779:17842  uint256 filteredOperatorsLength = filteredOperatorsRef.length() */\n      swap1\n      pop\n        /* \"Objectron/OperatorFilterRegistry.sol\":17852:17884  uint256 filteredCodeHashesLength */\n      0x00\n        /* \"Objectron/OperatorFilterRegistry.sol\":17887:17917  filteredCodeHashesRef.length() */\n      tag_485\n        /* \"Objectron/OperatorFilterRegistry.sol\":17887:17908  filteredCodeHashesRef */\n      dup4\n        /* \"Objectron/OperatorFilterRegistry.sol\":17887:17915  filteredCodeHashesRef.length */\n      tag_486\n        /* \"Objectron/OperatorFilterRegistry.sol\":17887:17917  filteredCodeHashesRef.length() */\n      jump\t// in\n    tag_485:\n        /* \"Objectron/OperatorFilterRegistry.sol\":17852:17917  uint256 filteredCodeHashesLength = filteredCodeHashesRef.length() */\n      swap1\n      pop\n        /* \"Objectron/OperatorFilterRegistry.sol\":17932:17941  uint256 i */\n      0x00\n        /* \"Objectron/OperatorFilterRegistry.sol\":17927:18282  for (uint256 i = 0; i < filteredOperatorsLength;) {... */\n    tag_487:\n        /* \"Objectron/OperatorFilterRegistry.sol\":17951:17974  filteredOperatorsLength */\n      dup3\n        /* \"Objectron/OperatorFilterRegistry.sol\":17947:17948  i */\n      dup2\n        /* \"Objectron/OperatorFilterRegistry.sol\":17947:17974  i < filteredOperatorsLength */\n      lt\n        /* \"Objectron/OperatorFilterRegistry.sol\":17927:18282  for (uint256 i = 0; i < filteredOperatorsLength;) {... */\n      iszero\n      tag_488\n      jumpi\n        /* \"Objectron/OperatorFilterRegistry.sol\":17991:18007  address operator */\n      0x00\n        /* \"Objectron/OperatorFilterRegistry.sol\":18010:18036  filteredOperatorsRef.at(i) */\n      tag_490\n        /* \"Objectron/OperatorFilterRegistry.sol\":18034:18035  i */\n      dup3\n        /* \"Objectron/OperatorFilterRegistry.sol\":18010:18030  filteredOperatorsRef */\n      dup8\n        /* \"Objectron/OperatorFilterRegistry.sol\":18010:18033  filteredOperatorsRef.at */\n      tag_251\n      swap1\n        /* \"Objectron/OperatorFilterRegistry.sol\":18010:18036  filteredOperatorsRef.at(i) */\n      swap2\n      swap1\n      0xffffffff\n      and\n      jump\t// in\n    tag_490:\n        /* \"Objectron/OperatorFilterRegistry.sol\":17991:18036  address operator = filteredOperatorsRef.at(i) */\n      swap1\n      pop\n        /* \"Objectron/OperatorFilterRegistry.sol\":18050:18060  bool added */\n      0x00\n        /* \"Objectron/OperatorFilterRegistry.sol\":18063:18107  _filteredOperators[registrant].add(operator) */\n      tag_491\n        /* \"Objectron/OperatorFilterRegistry.sol\":18098:18106  operator */\n      dup3\n        /* \"Objectron/OperatorFilterRegistry.sol\":18063:18081  _filteredOperators */\n      0x00\n        /* \"Objectron/OperatorFilterRegistry.sol\":18063:18093  _filteredOperators[registrant] */\n      dup1\n        /* \"Objectron/OperatorFilterRegistry.sol\":18082:18092  registrant */\n      dup13\n        /* \"Objectron/OperatorFilterRegistry.sol\":18063:18093  _filteredOperators[registrant] */\n      0xffffffffffffffffffffffffffffffffffffffff\n      and\n      0xffffffffffffffffffffffffffffffffffffffff\n      and\n      dup2\n      mstore\n      0x20\n      add\n      swap1\n      dup2\n      mstore\n      0x20\n      add\n      0x00\n      keccak256\n        /* \"Objectron/OperatorFilterRegistry.sol\":18063:18097  _filteredOperators[registrant].add */\n      tag_333\n      swap1\n        /* \"Objectron/OperatorFilterRegistry.sol\":18063:18107  _filteredOperators[registrant].add(operator) */\n      swap2\n      swap1\n      0xffffffff\n      and\n      jump\t// in\n    tag_491:\n        /* \"Objectron/OperatorFilterRegistry.sol\":18050:18107  bool added = _filteredOperators[registrant].add(operator) */\n      swap1\n      pop\n        /* \"Objectron/OperatorFilterRegistry.sol\":18125:18130  added */\n      dup1\n        /* \"Objectron/OperatorFilterRegistry.sol\":18121:18213  if (added) {... */\n      iszero\n      tag_492\n      jumpi\n        /* \"Objectron/OperatorFilterRegistry.sol\":18193:18197  true */\n      0x01\n        /* \"Objectron/OperatorFilterRegistry.sol\":18155:18198  OperatorUpdated(registrant, operator, true) */\n      iszero\n      iszero\n        /* \"Objectron/OperatorFilterRegistry.sol\":18183:18191  operator */\n      dup3\n        /* \"Objectron/OperatorFilterRegistry.sol\":18155:18198  OperatorUpdated(registrant, operator, true) */\n      0xffffffffffffffffffffffffffffffffffffffff\n      and\n        /* \"Objectron/OperatorFilterRegistry.sol\":18171:18181  registrant */\n      dup11\n        /* \"Objectron/OperatorFilterRegistry.sol\":18155:18198  OperatorUpdated(registrant, operator, true) */\n      0xffffffffffffffffffffffffffffffffffffffff\n      and\n      0x2738289d9deecdc30eb8ffc42876633caecca1ffa166e4efa89f408e17373a1a\n      mload(0x40)\n      mload(0x40)\n      dup1\n      swap2\n      sub\n      swap1\n      log4\n        /* \"Objectron/OperatorFilterRegistry.sol\":18121:18213  if (added) {... */\n    tag_492:\n        /* \"Objectron/OperatorFilterRegistry.sol\":18254:18257  ++i */\n      dup3\n      0x01\n      add\n      swap3\n      pop\n        /* \"Objectron/OperatorFilterRegistry.sol\":17977:18282  {... */\n      pop\n      pop\n        /* \"Objectron/OperatorFilterRegistry.sol\":17927:18282  for (uint256 i = 0; i < filteredOperatorsLength;) {... */\n      jump(tag_487)\n    tag_488:\n      pop\n        /* \"Objectron/OperatorFilterRegistry.sol\":18296:18305  uint256 i */\n      0x00\n        /* \"Objectron/OperatorFilterRegistry.sol\":18291:18649  for (uint256 i = 0; i < filteredCodeHashesLength;) {... */\n    tag_493:\n        /* \"Objectron/OperatorFilterRegistry.sol\":18315:18339  filteredCodeHashesLength */\n      dup2\n        /* \"Objectron/OperatorFilterRegistry.sol\":18311:18312  i */\n      dup2\n        /* \"Objectron/OperatorFilterRegistry.sol\":18311:18339  i < filteredCodeHashesLength */\n      lt\n        /* \"Objectron/OperatorFilterRegistry.sol\":18291:18649  for (uint256 i = 0; i < filteredCodeHashesLength;) {... */\n      iszero\n      tag_494\n      jumpi\n        /* \"Objectron/OperatorFilterRegistry.sol\":18356:18372  bytes32 codehash */\n      0x00\n        /* \"Objectron/OperatorFilterRegistry.sol\":18375:18402  filteredCodeHashesRef.at(i) */\n      tag_496\n        /* \"Objectron/OperatorFilterRegistry.sol\":18400:18401  i */\n      dup3\n        /* \"Objectron/OperatorFilterRegistry.sol\":18375:18396  filteredCodeHashesRef */\n      dup7\n        /* \"Objectron/OperatorFilterRegistry.sol\":18375:18399  filteredCodeHashesRef.at */\n      tag_425\n      swap1\n        /* \"Objectron/OperatorFilterRegistry.sol\":18375:18402  filteredCodeHashesRef.at(i) */\n      swap2\n      swap1\n      0xffffffff\n      and\n      jump\t// in\n    tag_496:\n        /* \"Objectron/OperatorFilterRegistry.sol\":18356:18402  bytes32 codehash = filteredCodeHashesRef.at(i) */\n      swap1\n      pop\n        /* \"Objectron/OperatorFilterRegistry.sol\":18416:18426  bool added */\n      0x00\n        /* \"Objectron/OperatorFilterRegistry.sol\":18429:18474  _filteredCodeHashes[registrant].add(codehash) */\n      tag_497\n        /* \"Objectron/OperatorFilterRegistry.sol\":18465:18473  codehash */\n      dup3\n        /* \"Objectron/OperatorFilterRegistry.sol\":18429:18448  _filteredCodeHashes */\n      0x01\n        /* \"Objectron/OperatorFilterRegistry.sol\":18429:18460  _filteredCodeHashes[registrant] */\n      0x00\n        /* \"Objectron/OperatorFilterRegistry.sol\":18449:18459  registrant */\n      dup13\n        /* \"Objectron/OperatorFilterRegistry.sol\":18429:18460  _filteredCodeHashes[registrant] */\n      0xffffffffffffffffffffffffffffffffffffffff\n      and\n      0xffffffffffffffffffffffffffffffffffffffff\n      and\n      dup2\n      mstore\n      0x20\n      add\n      swap1\n      dup2\n      mstore\n      0x20\n      add\n      0x00\n      keccak256\n        /* \"Objectron/OperatorFilterRegistry.sol\":18429:18464  _filteredCodeHashes[registrant].add */\n      tag_168\n      swap1\n        /* \"Objectron/OperatorFilterRegistry.sol\":18429:18474  _filteredCodeHashes[registrant].add(codehash) */\n      swap2\n      swap1\n      0xffffffff\n      and\n      jump\t// in\n    tag_497:\n        /* \"Objectron/OperatorFilterRegistry.sol\":18416:18474  bool added = _filteredCodeHashes[registrant].add(codehash) */\n      swap1\n      pop\n        /* \"Objectron/OperatorFilterRegistry.sol\":18492:18497  added */\n      dup1\n        /* \"Objectron/OperatorFilterRegistry.sol\":18488:18580  if (added) {... */\n      iszero\n      tag_498\n      jumpi\n        /* \"Objectron/OperatorFilterRegistry.sol\":18560:18564  true */\n      0x01\n        /* \"Objectron/OperatorFilterRegistry.sol\":18522:18565  CodeHashUpdated(registrant, codehash, true) */\n      iszero\n      iszero\n        /* \"Objectron/OperatorFilterRegistry.sol\":18550:18558  codehash */\n      dup3\n        /* \"Objectron/OperatorFilterRegistry.sol\":18538:18548  registrant */\n      dup11\n        /* \"Objectron/OperatorFilterRegistry.sol\":18522:18565  CodeHashUpdated(registrant, codehash, true) */\n      0xffffffffffffffffffffffffffffffffffffffff\n      and\n      0xb8036058bafea884aabc446ca15619fd86f5464a4ad96f64164ad6f77444354d\n      mload(0x40)\n      mload(0x40)\n      dup1\n      swap2\n      sub\n      swap1\n      log4\n        /* \"Objectron/OperatorFilterRegistry.sol\":18488:18580  if (added) {... */\n    tag_498:\n        /* \"Objectron/OperatorFilterRegistry.sol\":18621:18624  ++i */\n      dup3\n      0x01\n      add\n      swap3\n      pop\n        /* \"Objectron/OperatorFilterRegistry.sol\":18342:18649  {... */\n      pop\n      pop\n        /* \"Objectron/OperatorFilterRegistry.sol\":18291:18649  for (uint256 i = 0; i < filteredCodeHashesLength;) {... */\n      jump(tag_493)\n    tag_494:\n      pop\n        /* \"Objectron/OperatorFilterRegistry.sol\":17563:18655  {... */\n      pop\n      pop\n      pop\n      pop\n        /* \"Objectron/OperatorFilterRegistry.sol\":17487:18655  function _copyEntries(address registrant, address registrantToCopy) private {... */\n      pop\n      pop\n      jump\t// out\n        /* \"@openzeppelin/contracts/utils/structs/EnumerableSet.sol\":7757:8057  function values(Bytes32Set storage set) internal view returns (bytes32[] memory) {... */\n    tag_200:\n        /* \"@openzeppelin/contracts/utils/structs/EnumerableSet.sol\":7820:7836  bytes32[] memory */\n      0x60\n        /* \"@openzeppelin/contracts/utils/structs/EnumerableSet.sol\":7848:7870  bytes32[] memory store */\n      0x00\n        /* \"@openzeppelin/contracts/utils/structs/EnumerableSet.sol\":7873:7892  _values(set._inner) */\n      tag_500\n        /* \"@openzeppelin/contracts/utils/structs/EnumerableSet.sol\":7881:7884  set */\n      dup4\n        /* \"@openzeppelin/contracts/utils/structs/EnumerableSet.sol\":7881:7891  set._inner */\n      0x00\n      add\n        /* \"@openzeppelin/contracts/utils/structs/EnumerableSet.sol\":7873:7880  _values */\n      tag_501\n        /* \"@openzeppelin/contracts/utils/structs/EnumerableSet.sol\":7873:7892  _values(set._inner) */\n      jump\t// in\n    tag_500:\n        /* \"@openzeppelin/contracts/utils/structs/EnumerableSet.sol\":7848:7892  bytes32[] memory store = _values(set._inner) */\n      swap1\n      pop\n        /* \"@openzeppelin/contracts/utils/structs/EnumerableSet.sol\":7902:7925  bytes32[] memory result */\n      0x60\n        /* \"@openzeppelin/contracts/utils/structs/EnumerableSet.sol\":8012:8017  store */\n      dup2\n        /* \"@openzeppelin/contracts/utils/structs/EnumerableSet.sol\":8002:8017  result := store */\n      swap1\n      pop\n        /* \"@openzeppelin/contracts/utils/structs/EnumerableSet.sol\":8044:8050  result */\n      dup1\n        /* \"@openzeppelin/contracts/utils/structs/EnumerableSet.sol\":8037:8050  return result */\n      swap3\n      pop\n      pop\n      pop\n        /* \"@openzeppelin/contracts/utils/structs/EnumerableSet.sol\":7757:8057  function values(Bytes32Set storage set) internal view returns (bytes32[] memory) {... */\n      swap2\n      swap1\n      pop\n      jump\t// out\n        /* \"@openzeppelin/contracts/utils/structs/EnumerableSet.sol\":8615:8771  function remove(AddressSet storage set, address value) internal returns (bool) {... */\n    tag_221:\n        /* \"@openzeppelin/contracts/utils/structs/EnumerableSet.sol\":8688:8692  bool */\n      0x00\n        /* \"@openzeppelin/contracts/utils/structs/EnumerableSet.sol\":8711:8764  _remove(set._inner, bytes32(uint256(uint160(value)))) */\n      tag_503\n        /* \"@openzeppelin/contracts/utils/structs/EnumerableSet.sol\":8719:8722  set */\n      dup4\n        /* \"@openzeppelin/contracts/utils/structs/EnumerableSet.sol\":8719:8729  set._inner */\n      0x00\n      add\n        /* \"@openzeppelin/contracts/utils/structs/EnumerableSet.sol\":8755:8760  value */\n      dup4\n        /* \"@openzeppelin/contracts/utils/structs/EnumerableSet.sol\":8739:8762  uint256(uint160(value)) */\n      0xffffffffffffffffffffffffffffffffffffffff\n      and\n        /* \"@openzeppelin/contracts/utils/structs/EnumerableSet.sol\":8731:8763  bytes32(uint256(uint160(value))) */\n      0x00\n      shl\n        /* \"@openzeppelin/contracts/utils/structs/EnumerableSet.sol\":8711:8718  _remove */\n      tag_478\n        /* \"@openzeppelin/contracts/utils/structs/EnumerableSet.sol\":8711:8764  _remove(set._inner, bytes32(uint256(uint160(value)))) */\n      jump\t// in\n    tag_503:\n        /* \"@openzeppelin/contracts/utils/structs/EnumerableSet.sol\":8704:8764  return _remove(set._inner, bytes32(uint256(uint160(value)))) */\n      swap1\n      pop\n        /* \"@openzeppelin/contracts/utils/structs/EnumerableSet.sol\":8615:8771  function remove(AddressSet storage set, address value) internal returns (bool) {... */\n      swap3\n      swap2\n      pop\n      pop\n      jump\t// out\n        /* \"@openzeppelin/contracts/utils/structs/EnumerableSet.sol\":9555:9711  function at(AddressSet storage set, uint256 index) internal view returns (address) {... */\n    tag_251:\n        /* \"@openzeppelin/contracts/utils/structs/EnumerableSet.sol\":9629:9636  address */\n      0x00\n        /* \"@openzeppelin/contracts/utils/structs/EnumerableSet.sol\":9679:9701  _at(set._inner, index) */\n      tag_505\n        /* \"@openzeppelin/contracts/utils/structs/EnumerableSet.sol\":9683:9686  set */\n      dup4\n        /* \"@openzeppelin/contracts/utils/structs/EnumerableSet.sol\":9683:9693  set._inner */\n      0x00\n      add\n        /* \"@openzeppelin/contracts/utils/structs/EnumerableSet.sol\":9695:9700  index */\n      dup4\n        /* \"@openzeppelin/contracts/utils/structs/EnumerableSet.sol\":9679:9682  _at */\n      tag_506\n        /* \"@openzeppelin/contracts/utils/structs/EnumerableSet.sol\":9679:9701  _at(set._inner, index) */\n      jump\t// in\n    tag_505:\n        /* \"@openzeppelin/contracts/utils/structs/EnumerableSet.sol\":9671:9702  uint256(_at(set._inner, index)) */\n      0x00\n      shr\n        /* \"@openzeppelin/contracts/utils/structs/EnumerableSet.sol\":9648:9704  return address(uint160(uint256(_at(set._inner, index)))) */\n      swap1\n      pop\n        /* \"@openzeppelin/contracts/utils/structs/EnumerableSet.sol\":9555:9711  function at(AddressSet storage set, uint256 index) internal view returns (address) {... */\n      swap3\n      swap2\n      pop\n      pop\n      jump\t// out\n        /* \"@openzeppelin/contracts/utils/structs/EnumerableSet.sol\":10251:10551  function values(AddressSet storage set) internal view returns (address[] memory) {... */\n    tag_273:\n        /* \"@openzeppelin/contracts/utils/structs/EnumerableSet.sol\":10314:10330  address[] memory */\n      0x60\n        /* \"@openzeppelin/contracts/utils/structs/EnumerableSet.sol\":10342:10364  bytes32[] memory store */\n      0x00\n        /* \"@openzeppelin/contracts/utils/structs/EnumerableSet.sol\":10367:10386  _values(set._inner) */\n      tag_508\n        /* \"@openzeppelin/contracts/utils/structs/EnumerableSet.sol\":10375:10378  set */\n      dup4\n        /* \"@openzeppelin/contracts/utils/structs/EnumerableSet.sol\":10375:10385  set._inner */\n      0x00\n      add\n        /* \"@openzeppelin/contracts/utils/structs/EnumerableSet.sol\":10367:10374  _values */\n      tag_501\n        /* \"@openzeppelin/contracts/utils/structs/EnumerableSet.sol\":10367:10386  _values(set._inner) */\n      jump\t// in\n    tag_508:\n        /* \"@openzeppelin/contracts/utils/structs/EnumerableSet.sol\":10342:10386  bytes32[] memory store = _values(set._inner) */\n      swap1\n      pop\n        /* \"@openzeppelin/contracts/utils/structs/EnumerableSet.sol\":10396:10419  address[] memory result */\n      0x60\n        /* \"@openzeppelin/contracts/utils/structs/EnumerableSet.sol\":10506:10511  store */\n      dup2\n        /* \"@openzeppelin/contracts/utils/structs/EnumerableSet.sol\":10496:10511  result := store */\n      swap1\n      pop\n        /* \"@openzeppelin/contracts/utils/structs/EnumerableSet.sol\":10538:10544  result */\n      dup1\n        /* \"@openzeppelin/contracts/utils/structs/EnumerableSet.sol\":10531:10544  return result */\n      swap3\n      pop\n      pop\n      pop\n        /* \"@openzeppelin/contracts/utils/structs/EnumerableSet.sol\":10251:10551  function values(AddressSet storage set) internal view returns (address[] memory) {... */\n      swap2\n      swap1\n      pop\n      jump\t// out\n        /* \"@openzeppelin/contracts/utils/structs/EnumerableSet.sol\":6412:6550  function contains(Bytes32Set storage set, bytes32 value) internal view returns (bool) {... */\n    tag_277:\n        /* \"@openzeppelin/contracts/utils/structs/EnumerableSet.sol\":6492:6496  bool */\n      0x00\n        /* \"@openzeppelin/contracts/utils/structs/EnumerableSet.sol\":6515:6543  _contains(set._inner, value) */\n      tag_510\n        /* \"@openzeppelin/contracts/utils/structs/EnumerableSet.sol\":6525:6528  set */\n      dup4\n        /* \"@openzeppelin/contracts/utils/structs/EnumerableSet.sol\":6525:6535  set._inner */\n      0x00\n      add\n        /* \"@openzeppelin/contracts/utils/structs/EnumerableSet.sol\":6537:6542  value */\n      dup4\n        /* \"@openzeppelin/contracts/utils/structs/EnumerableSet.sol\":6515:6524  _contains */\n      tag_511\n        /* \"@openzeppelin/contracts/utils/structs/EnumerableSet.sol\":6515:6543  _contains(set._inner, value) */\n      jump\t// in\n    tag_510:\n        /* \"@openzeppelin/contracts/utils/structs/EnumerableSet.sol\":6508:6543  return _contains(set._inner, value) */\n      swap1\n      pop\n        /* \"@openzeppelin/contracts/utils/structs/EnumerableSet.sol\":6412:6550  function contains(Bytes32Set storage set, bytes32 value) internal view returns (bool) {... */\n      swap3\n      swap2\n      pop\n      pop\n      jump\t// out\n        /* \"@openzeppelin/contracts/utils/structs/EnumerableSet.sol\":8297:8447  function add(AddressSet storage set, address value) internal returns (bool) {... */\n    tag_333:\n        /* \"@openzeppelin/contracts/utils/structs/EnumerableSet.sol\":8367:8371  bool */\n      0x00\n        /* \"@openzeppelin/contracts/utils/structs/EnumerableSet.sol\":8390:8440  _add(set._inner, bytes32(uint256(uint160(value)))) */\n      tag_513\n        /* \"@openzeppelin/contracts/utils/structs/EnumerableSet.sol\":8395:8398  set */\n      dup4\n        /* \"@openzeppelin/contracts/utils/structs/EnumerableSet.sol\":8395:8405  set._inner */\n      0x00\n      add\n        /* \"@openzeppelin/contracts/utils/structs/EnumerableSet.sol\":8431:8436  value */\n      dup4\n        /* \"@openzeppelin/contracts/utils/structs/EnumerableSet.sol\":8415:8438  uint256(uint160(value)) */\n      0xffffffffffffffffffffffffffffffffffffffff\n      and\n        /* \"@openzeppelin/contracts/utils/structs/EnumerableSet.sol\":8407:8439  bytes32(uint256(uint160(value))) */\n      0x00\n      shl\n        /* \"@openzeppelin/contracts/utils/structs/EnumerableSet.sol\":8390:8394  _add */\n      tag_481\n        /* \"@openzeppelin/contracts/utils/structs/EnumerableSet.sol\":8390:8440  _add(set._inner, bytes32(uint256(uint160(value)))) */\n      jump\t// in\n    tag_513:\n        /* \"@openzeppelin/contracts/utils/structs/EnumerableSet.sol\":8383:8440  return _add(set._inner, bytes32(uint256(uint160(value)))) */\n      swap1\n      pop\n        /* \"@openzeppelin/contracts/utils/structs/EnumerableSet.sol\":8297:8447  function add(AddressSet storage set, address value) internal returns (bool) {... */\n      swap3\n      swap2\n      pop\n      pop\n      jump\t// out\n        /* \"@openzeppelin/contracts/utils/structs/EnumerableSet.sol\":7088:7217  function at(Bytes32Set storage set, uint256 index) internal view returns (bytes32) {... */\n    tag_425:\n        /* \"@openzeppelin/contracts/utils/structs/EnumerableSet.sol\":7162:7169  bytes32 */\n      0x00\n        /* \"@openzeppelin/contracts/utils/structs/EnumerableSet.sol\":7188:7210  _at(set._inner, index) */\n      tag_515\n        /* \"@openzeppelin/contracts/utils/structs/EnumerableSet.sol\":7192:7195  set */\n      dup4\n        /* \"@openzeppelin/contracts/utils/structs/EnumerableSet.sol\":7192:7202  set._inner */\n      0x00\n      add\n        /* \"@openzeppelin/contracts/utils/structs/EnumerableSet.sol\":7204:7209  index */\n      dup4\n        /* \"@openzeppelin/contracts/utils/structs/EnumerableSet.sol\":7188:7191  _at */\n      tag_506\n        /* \"@openzeppelin/contracts/utils/structs/EnumerableSet.sol\":7188:7210  _at(set._inner, index) */\n      jump\t// in\n    tag_515:\n        /* \"@openzeppelin/contracts/utils/structs/EnumerableSet.sol\":7181:7210  return _at(set._inner, index) */\n      swap1\n      pop\n        /* \"@openzeppelin/contracts/utils/structs/EnumerableSet.sol\":7088:7217  function at(Bytes32Set storage set, uint256 index) internal view returns (bytes32) {... */\n      swap3\n      swap2\n      pop\n      pop\n      jump\t// out\n        /* \"@openzeppelin/contracts/utils/structs/EnumerableSet.sol\":8852:9017  function contains(AddressSet storage set, address value) internal view returns (bool) {... */\n    tag_464:\n        /* \"@openzeppelin/contracts/utils/structs/EnumerableSet.sol\":8932:8936  bool */\n      0x00\n        /* \"@openzeppelin/contracts/utils/structs/EnumerableSet.sol\":8955:9010  _contains(set._inner, bytes32(uint256(uint160(value)))) */\n      tag_517\n        /* \"@openzeppelin/contracts/utils/structs/EnumerableSet.sol\":8965:8968  set */\n      dup4\n        /* \"@openzeppelin/contracts/utils/structs/EnumerableSet.sol\":8965:8975  set._inner */\n      0x00\n      add\n        /* \"@openzeppelin/contracts/utils/structs/EnumerableSet.sol\":9001:9006  value */\n      dup4\n        /* \"@openzeppelin/contracts/utils/structs/EnumerableSet.sol\":8985:9008  uint256(uint160(value)) */\n      0xffffffffffffffffffffffffffffffffffffffff\n      and\n        /* \"@openzeppelin/contracts/utils/structs/EnumerableSet.sol\":8977:9009  bytes32(uint256(uint160(value))) */\n      0x00\n      shl\n        /* \"@openzeppelin/contracts/utils/structs/EnumerableSet.sol\":8955:8964  _contains */\n      tag_511\n        /* \"@openzeppelin/contracts/utils/structs/EnumerableSet.sol\":8955:9010  _contains(set._inner, bytes32(uint256(uint160(value)))) */\n      jump\t// in\n    tag_517:\n        /* \"@openzeppelin/contracts/utils/structs/EnumerableSet.sol\":8948:9010  return _contains(set._inner, bytes32(uint256(uint160(value)))) */\n      swap1\n      pop\n        /* \"@openzeppelin/contracts/utils/structs/EnumerableSet.sol\":8852:9017  function contains(AddressSet storage set, address value) internal view returns (bool) {... */\n      swap3\n      swap2\n      pop\n      pop\n      jump\t// out\n        /* \"@openzeppelin/contracts/utils/structs/EnumerableSet.sol\":2778:4166  function _remove(Set storage set, bytes32 value) private returns (bool) {... */\n    tag_478:\n        /* \"@openzeppelin/contracts/utils/structs/EnumerableSet.sol\":2844:2848  bool */\n      0x00\n        /* \"@openzeppelin/contracts/utils/structs/EnumerableSet.sol\":2960:2978  uint256 valueIndex */\n      dup1\n        /* \"@openzeppelin/contracts/utils/structs/EnumerableSet.sol\":2981:2984  set */\n      dup4\n        /* \"@openzeppelin/contracts/utils/structs/EnumerableSet.sol\":2981:2993  set._indexes */\n      0x01\n      add\n        /* \"@openzeppelin/contracts/utils/structs/EnumerableSet.sol\":2981:3000  set._indexes[value] */\n      0x00\n        /* \"@openzeppelin/contracts/utils/structs/EnumerableSet.sol\":2994:2999  value */\n      dup5\n        /* \"@openzeppelin/contracts/utils/structs/EnumerableSet.sol\":2981:3000  set._indexes[value] */\n      dup2\n      mstore\n      0x20\n      add\n      swap1\n      dup2\n      mstore\n      0x20\n      add\n      0x00\n      keccak256\n      sload\n        /* \"@openzeppelin/contracts/utils/structs/EnumerableSet.sol\":2960:3000  uint256 valueIndex = set._indexes[value] */\n      swap1\n      pop\n        /* \"@openzeppelin/contracts/utils/structs/EnumerableSet.sol\":3029:3030  0 */\n      0x00\n        /* \"@openzeppelin/contracts/utils/structs/EnumerableSet.sol\":3015:3025  valueIndex */\n      dup2\n        /* \"@openzeppelin/contracts/utils/structs/EnumerableSet.sol\":3015:3030  valueIndex != 0 */\n      eq\n        /* \"@openzeppelin/contracts/utils/structs/EnumerableSet.sol\":3011:4160  if (valueIndex != 0) {... */\n      tag_519\n      jumpi\n        /* \"@openzeppelin/contracts/utils/structs/EnumerableSet.sol\":3384:3405  uint256 toDeleteIndex */\n      0x00\n        /* \"@openzeppelin/contracts/utils/structs/EnumerableSet.sol\":3421:3422  1 */\n      0x01\n        /* \"@openzeppelin/contracts/utils/structs/EnumerableSet.sol\":3408:3418  valueIndex */\n      dup3\n        /* \"@openzeppelin/contracts/utils/structs/EnumerableSet.sol\":3408:3422  valueIndex - 1 */\n      tag_520\n      swap2\n      swap1\n      tag_521\n      jump\t// in\n    tag_520:\n        /* \"@openzeppelin/contracts/utils/structs/EnumerableSet.sol\":3384:3422  uint256 toDeleteIndex = valueIndex - 1 */\n      swap1\n      pop\n        /* \"@openzeppelin/contracts/utils/structs/EnumerableSet.sol\":3436:3453  uint256 lastIndex */\n      0x00\n        /* \"@openzeppelin/contracts/utils/structs/EnumerableSet.sol\":3477:3478  1 */\n      0x01\n        /* \"@openzeppelin/contracts/utils/structs/EnumerableSet.sol\":3456:3459  set */\n      dup7\n        /* \"@openzeppelin/contracts/utils/structs/EnumerableSet.sol\":3456:3467  set._values */\n      0x00\n      add\n        /* \"@openzeppelin/contracts/utils/structs/EnumerableSet.sol\":3456:3474  set._values.length */\n      dup1\n      sload\n      swap1\n      pop\n        /* \"@openzeppelin/contracts/utils/structs/EnumerableSet.sol\":3456:3478  set._values.length - 1 */\n      tag_522\n      swap2\n      swap1\n      tag_521\n      jump\t// in\n    tag_522:\n        /* \"@openzeppelin/contracts/utils/structs/EnumerableSet.sol\":3436:3478  uint256 lastIndex = set._values.length - 1 */\n      swap1\n      pop\n        /* \"@openzeppelin/contracts/utils/structs/EnumerableSet.sol\":3510:3523  toDeleteIndex */\n      dup2\n        /* \"@openzeppelin/contracts/utils/structs/EnumerableSet.sol\":3497:3506  lastIndex */\n      dup2\n        /* \"@openzeppelin/contracts/utils/structs/EnumerableSet.sol\":3497:3523  lastIndex != toDeleteIndex */\n      eq\n        /* \"@openzeppelin/contracts/utils/structs/EnumerableSet.sol\":3493:3891  if (lastIndex != toDeleteIndex) {... */\n      tag_523\n      jumpi\n        /* \"@openzeppelin/contracts/utils/structs/EnumerableSet.sol\":3543:3560  bytes32 lastValue */\n      0x00\n        /* \"@openzeppelin/contracts/utils/structs/EnumerableSet.sol\":3563:3566  set */\n      dup7\n        /* \"@openzeppelin/contracts/utils/structs/EnumerableSet.sol\":3563:3574  set._values */\n      0x00\n      add\n        /* \"@openzeppelin/contracts/utils/structs/EnumerableSet.sol\":3575:3584  lastIndex */\n      dup3\n        /* \"@openzeppelin/contracts/utils/structs/EnumerableSet.sol\":3563:3585  set._values[lastIndex] */\n      dup2\n      sload\n      dup2\n      lt\n      tag_524\n      jumpi\n      tag_525\n      tag_155\n      jump\t// in\n    tag_525:\n    tag_524:\n      swap1\n      0x00\n      mstore\n      keccak256(0x00, 0x20)\n      add\n      sload\n        /* \"@openzeppelin/contracts/utils/structs/EnumerableSet.sol\":3543:3585  bytes32 lastValue = set._values[lastIndex] */\n      swap1\n      pop\n        /* \"@openzeppelin/contracts/utils/structs/EnumerableSet.sol\":3714:3723  lastValue */\n      dup1\n        /* \"@openzeppelin/contracts/utils/structs/EnumerableSet.sol\":3685:3688  set */\n      dup8\n        /* \"@openzeppelin/contracts/utils/structs/EnumerableSet.sol\":3685:3696  set._values */\n      0x00\n      add\n        /* \"@openzeppelin/contracts/utils/structs/EnumerableSet.sol\":3697:3710  toDeleteIndex */\n      dup5\n        /* \"@openzeppelin/contracts/utils/structs/EnumerableSet.sol\":3685:3711  set._values[toDeleteIndex] */\n      dup2\n      sload\n      dup2\n      lt\n      tag_527\n      jumpi\n      tag_528\n      tag_155\n      jump\t// in\n    tag_528:\n    tag_527:\n      swap1\n      0x00\n      mstore\n      keccak256(0x00, 0x20)\n      add\n        /* \"@openzeppelin/contracts/utils/structs/EnumerableSet.sol\":3685:3723  set._values[toDeleteIndex] = lastValue */\n      dup2\n      swap1\n      sstore\n      pop\n        /* \"@openzeppelin/contracts/utils/structs/EnumerableSet.sol\":3823:3833  valueIndex */\n      dup4\n        /* \"@openzeppelin/contracts/utils/structs/EnumerableSet.sol\":3797:3800  set */\n      dup8\n        /* \"@openzeppelin/contracts/utils/structs/EnumerableSet.sol\":3797:3809  set._indexes */\n      0x01\n      add\n        /* \"@openzeppelin/contracts/utils/structs/EnumerableSet.sol\":3797:3820  set._indexes[lastValue] */\n      0x00\n        /* \"@openzeppelin/contracts/utils/structs/EnumerableSet.sol\":3810:3819  lastValue */\n      dup4\n        /* \"@openzeppelin/contracts/utils/structs/EnumerableSet.sol\":3797:3820  set._indexes[lastValue] */\n      dup2\n      mstore\n      0x20\n      add\n      swap1\n      dup2\n      mstore\n      0x20\n      add\n      0x00\n      keccak256\n        /* \"@openzeppelin/contracts/utils/structs/EnumerableSet.sol\":3797:3833  set._indexes[lastValue] = valueIndex */\n      dup2\n      swap1\n      sstore\n      pop\n        /* \"@openzeppelin/contracts/utils/structs/EnumerableSet.sol\":3525:3891  {... */\n      pop\n        /* \"@openzeppelin/contracts/utils/structs/EnumerableSet.sol\":3493:3891  if (lastIndex != toDeleteIndex) {... */\n    tag_523:\n        /* \"@openzeppelin/contracts/utils/structs/EnumerableSet.sol\":3969:3972  set */\n      dup6\n        /* \"@openzeppelin/contracts/utils/structs/EnumerableSet.sol\":3969:3980  set._values */\n      0x00\n      add\n        /* \"@openzeppelin/contracts/utils/structs/EnumerableSet.sol\":3969:3986  set._values.pop() */\n      dup1\n      sload\n      dup1\n      tag_530\n      jumpi\n      tag_531\n      tag_532\n      jump\t// in\n    tag_531:\n    tag_530:\n      0x01\n      swap1\n      sub\n      dup2\n      dup2\n      swap1\n      0x00\n      mstore\n      keccak256(0x00, 0x20)\n      add\n      0x00\n      swap1\n      sstore\n      swap1\n      sstore\n        /* \"@openzeppelin/contracts/utils/structs/EnumerableSet.sol\":4061:4064  set */\n      dup6\n        /* \"@openzeppelin/contracts/utils/structs/EnumerableSet.sol\":4061:4073  set._indexes */\n      0x01\n      add\n        /* \"@openzeppelin/contracts/utils/structs/EnumerableSet.sol\":4061:4080  set._indexes[value] */\n      0x00\n        /* \"@openzeppelin/contracts/utils/structs/EnumerableSet.sol\":4074:4079  value */\n      dup7\n        /* \"@openzeppelin/contracts/utils/structs/EnumerableSet.sol\":4061:4080  set._indexes[value] */\n      dup2\n      mstore\n      0x20\n      add\n      swap1\n      dup2\n      mstore\n      0x20\n      add\n      0x00\n      keccak256\n        /* \"@openzeppelin/contracts/utils/structs/EnumerableSet.sol\":4054:4080  delete set._indexes[value] */\n      0x00\n      swap1\n      sstore\n        /* \"@openzeppelin/contracts/utils/structs/EnumerableSet.sol\":4102:4106  true */\n      0x01\n        /* \"@openzeppelin/contracts/utils/structs/EnumerableSet.sol\":4095:4106  return true */\n      swap4\n      pop\n      pop\n      pop\n      pop\n      jump(tag_518)\n        /* \"@openzeppelin/contracts/utils/structs/EnumerableSet.sol\":3011:4160  if (valueIndex != 0) {... */\n    tag_519:\n        /* \"@openzeppelin/contracts/utils/structs/EnumerableSet.sol\":4144:4149  false */\n      0x00\n        /* \"@openzeppelin/contracts/utils/structs/EnumerableSet.sol\":4137:4149  return false */\n      swap2\n      pop\n      pop\n        /* \"@openzeppelin/contracts/utils/structs/EnumerableSet.sol\":2778:4166  function _remove(Set storage set, bytes32 value) private returns (bool) {... */\n    tag_518:\n      swap3\n      swap2\n      pop\n      pop\n      jump\t// out\n        /* \"@openzeppelin/contracts/utils/structs/EnumerableSet.sol\":2206:2610  function _add(Set storage set, bytes32 value) private returns (bool) {... */\n    tag_481:\n        /* \"@openzeppelin/contracts/utils/structs/EnumerableSet.sol\":2269:2273  bool */\n      0x00\n        /* \"@openzeppelin/contracts/utils/structs/EnumerableSet.sol\":2290:2311  _contains(set, value) */\n      tag_536\n        /* \"@openzeppelin/contracts/utils/structs/EnumerableSet.sol\":2300:2303  set */\n      dup4\n        /* \"@openzeppelin/contracts/utils/structs/EnumerableSet.sol\":2305:2310  value */\n      dup4\n        /* \"@openzeppelin/contracts/utils/structs/EnumerableSet.sol\":2290:2299  _contains */\n      tag_511\n        /* \"@openzeppelin/contracts/utils/structs/EnumerableSet.sol\":2290:2311  _contains(set, value) */\n      jump\t// in\n    tag_536:\n        /* \"@openzeppelin/contracts/utils/structs/EnumerableSet.sol\":2285:2604  if (!_contains(set, value)) {... */\n      tag_537\n      jumpi\n        /* \"@openzeppelin/contracts/utils/structs/EnumerableSet.sol\":2327:2330  set */\n      dup3\n        /* \"@openzeppelin/contracts/utils/structs/EnumerableSet.sol\":2327:2338  set._values */\n      0x00\n      add\n        /* \"@openzeppelin/contracts/utils/structs/EnumerableSet.sol\":2344:2349  value */\n      dup3\n        /* \"@openzeppelin/contracts/utils/structs/EnumerableSet.sol\":2327:2350  set._values.push(value) */\n      swap1\n      dup1\n      0x01\n      dup2\n      sload\n      add\n      dup1\n      dup3\n      sstore\n      dup1\n      swap2\n      pop\n      pop\n      0x01\n      swap1\n      sub\n      swap1\n      0x00\n      mstore\n      keccak256(0x00, 0x20)\n      add\n      0x00\n      swap1\n      swap2\n      swap1\n      swap2\n      swap1\n      swap2\n      pop\n      sstore\n        /* \"@openzeppelin/contracts/utils/structs/EnumerableSet.sol\":2507:2510  set */\n      dup3\n        /* \"@openzeppelin/contracts/utils/structs/EnumerableSet.sol\":2507:2518  set._values */\n      0x00\n      add\n        /* \"@openzeppelin/contracts/utils/structs/EnumerableSet.sol\":2507:2525  set._values.length */\n      dup1\n      sload\n      swap1\n      pop\n        /* \"@openzeppelin/contracts/utils/structs/EnumerableSet.sol\":2485:2488  set */\n      dup4\n        /* \"@openzeppelin/contracts/utils/structs/EnumerableSet.sol\":2485:2497  set._indexes */\n      0x01\n      add\n        /* \"@openzeppelin/contracts/utils/structs/EnumerableSet.sol\":2485:2504  set._indexes[value] */\n      0x00\n        /* \"@openzeppelin/contracts/utils/structs/EnumerableSet.sol\":2498:2503  value */\n      dup5\n        /* \"@openzeppelin/contracts/utils/structs/EnumerableSet.sol\":2485:2504  set._indexes[value] */\n      dup2\n      mstore\n      0x20\n      add\n      swap1\n      dup2\n      mstore\n      0x20\n      add\n      0x00\n      keccak256\n        /* \"@openzeppelin/contracts/utils/structs/EnumerableSet.sol\":2485:2525  set._indexes[value] = set._values.length */\n      dup2\n      swap1\n      sstore\n      pop\n        /* \"@openzeppelin/contracts/utils/structs/EnumerableSet.sol\":2546:2550  true */\n      0x01\n        /* \"@openzeppelin/contracts/utils/structs/EnumerableSet.sol\":2539:2550  return true */\n      swap1\n      pop\n      jump(tag_535)\n        /* \"@openzeppelin/contracts/utils/structs/EnumerableSet.sol\":2285:2604  if (!_contains(set, value)) {... */\n    tag_537:\n        /* \"@openzeppelin/contracts/utils/structs/EnumerableSet.sol\":2588:2593  false */\n      0x00\n        /* \"@openzeppelin/contracts/utils/structs/EnumerableSet.sol\":2581:2593  return false */\n      swap1\n      pop\n        /* \"@openzeppelin/contracts/utils/structs/EnumerableSet.sol\":2206:2610  function _add(Set storage set, bytes32 value) private returns (bool) {... */\n    tag_535:\n      swap3\n      swap2\n      pop\n      pop\n      jump\t// out\n        /* \"@openzeppelin/contracts/utils/structs/EnumerableSet.sol\":9098:9213  function length(AddressSet storage set) internal view returns (uint256) {... */\n    tag_484:\n        /* \"@openzeppelin/contracts/utils/structs/EnumerableSet.sol\":9161:9168  uint256 */\n      0x00\n        /* \"@openzeppelin/contracts/utils/structs/EnumerableSet.sol\":9187:9206  _length(set._inner) */\n      tag_541\n        /* \"@openzeppelin/contracts/utils/structs/EnumerableSet.sol\":9195:9198  set */\n      dup3\n        /* \"@openzeppelin/contracts/utils/structs/EnumerableSet.sol\":9195:9205  set._inner */\n      0x00\n      add\n        /* \"@openzeppelin/contracts/utils/structs/EnumerableSet.sol\":9187:9194  _length */\n      tag_542\n        /* \"@openzeppelin/contracts/utils/structs/EnumerableSet.sol\":9187:9206  _length(set._inner) */\n      jump\t// in\n    tag_541:\n        /* \"@openzeppelin/contracts/utils/structs/EnumerableSet.sol\":9180:9206  return _length(set._inner) */\n      swap1\n      pop\n        /* \"@openzeppelin/contracts/utils/structs/EnumerableSet.sol\":9098:9213  function length(AddressSet storage set) internal view returns (uint256) {... */\n      swap2\n      swap1\n      pop\n      jump\t// out\n        /* \"@openzeppelin/contracts/utils/structs/EnumerableSet.sol\":6631:6746  function length(Bytes32Set storage set) internal view returns (uint256) {... */\n    tag_486:\n        /* \"@openzeppelin/contracts/utils/structs/EnumerableSet.sol\":6694:6701  uint256 */\n      0x00\n        /* \"@openzeppelin/contracts/utils/structs/EnumerableSet.sol\":6720:6739  _length(set._inner) */\n      tag_544\n        /* \"@openzeppelin/contracts/utils/structs/EnumerableSet.sol\":6728:6731  set */\n      dup3\n        /* \"@openzeppelin/contracts/utils/structs/EnumerableSet.sol\":6728:6738  set._inner */\n      0x00\n      add\n        /* \"@openzeppelin/contracts/utils/structs/EnumerableSet.sol\":6720:6727  _length */\n      tag_542\n        /* \"@openzeppelin/contracts/utils/structs/EnumerableSet.sol\":6720:6739  _length(set._inner) */\n      jump\t// in\n    tag_544:\n        /* \"@openzeppelin/contracts/utils/structs/EnumerableSet.sol\":6713:6739  return _length(set._inner) */\n      swap1\n      pop\n        /* \"@openzeppelin/contracts/utils/structs/EnumerableSet.sol\":6631:6746  function length(Bytes32Set storage set) internal view returns (uint256) {... */\n      swap2\n      swap1\n      pop\n      jump\t// out\n        /* \"@openzeppelin/contracts/utils/structs/EnumerableSet.sol\":5562:5671  function _values(Set storage set) private view returns (bytes32[] memory) {... */\n    tag_501:\n        /* \"@openzeppelin/contracts/utils/structs/EnumerableSet.sol\":5618:5634  bytes32[] memory */\n      0x60\n        /* \"@openzeppelin/contracts/utils/structs/EnumerableSet.sol\":5653:5656  set */\n      dup2\n        /* \"@openzeppelin/contracts/utils/structs/EnumerableSet.sol\":5653:5664  set._values */\n      0x00\n      add\n        /* \"@openzeppelin/contracts/utils/structs/EnumerableSet.sol\":5646:5664  return set._values */\n      dup1\n      sload\n      dup1\n      0x20\n      mul\n      0x20\n      add\n      mload(0x40)\n      swap1\n      dup2\n      add\n      0x40\n      mstore\n      dup1\n      swap3\n      swap2\n      swap1\n      dup2\n      dup2\n      mstore\n      0x20\n      add\n      dup3\n      dup1\n      sload\n      dup1\n      iszero\n      tag_546\n      jumpi\n      0x20\n      mul\n      dup3\n      add\n      swap2\n      swap1\n      0x00\n      mstore\n      keccak256(0x00, 0x20)\n      swap1\n    tag_547:\n      dup2\n      sload\n      dup2\n      mstore\n      0x20\n      add\n      swap1\n      0x01\n      add\n      swap1\n      dup1\n      dup4\n      gt\n      tag_547\n      jumpi\n    tag_546:\n      pop\n      pop\n      pop\n      pop\n      pop\n      swap1\n      pop\n        /* \"@openzeppelin/contracts/utils/structs/EnumerableSet.sol\":5562:5671  function _values(Set storage set) private view returns (bytes32[] memory) {... */\n      swap2\n      swap1\n      pop\n      jump\t// out\n        /* \"@openzeppelin/contracts/utils/structs/EnumerableSet.sol\":4904:5022  function _at(Set storage set, uint256 index) private view returns (bytes32) {... */\n    tag_506:\n        /* \"@openzeppelin/contracts/utils/structs/EnumerableSet.sol\":4971:4978  bytes32 */\n      0x00\n        /* \"@openzeppelin/contracts/utils/structs/EnumerableSet.sol\":4997:5000  set */\n      dup3\n        /* \"@openzeppelin/contracts/utils/structs/EnumerableSet.sol\":4997:5008  set._values */\n      0x00\n      add\n        /* \"@openzeppelin/contracts/utils/structs/EnumerableSet.sol\":5009:5014  index */\n      dup3\n        /* \"@openzeppelin/contracts/utils/structs/EnumerableSet.sol\":4997:5015  set._values[index] */\n      dup2\n      sload\n      dup2\n      lt\n      tag_549\n      jumpi\n      tag_550\n      tag_155\n      jump\t// in\n    tag_550:\n    tag_549:\n      swap1\n      0x00\n      mstore\n      keccak256(0x00, 0x20)\n      add\n      sload\n        /* \"@openzeppelin/contracts/utils/structs/EnumerableSet.sol\":4990:5015  return set._values[index] */\n      swap1\n      pop\n        /* \"@openzeppelin/contracts/utils/structs/EnumerableSet.sol\":4904:5022  function _at(Set storage set, uint256 index) private view returns (bytes32) {... */\n      swap3\n      swap2\n      pop\n      pop\n      jump\t// out\n        /* \"@openzeppelin/contracts/utils/structs/EnumerableSet.sol\":4247:4374  function _contains(Set storage set, bytes32 value) private view returns (bool) {... */\n    tag_511:\n        /* \"@openzeppelin/contracts/utils/structs/EnumerableSet.sol\":4320:4324  bool */\n      0x00\n        /* \"@openzeppelin/contracts/utils/structs/EnumerableSet.sol\":4366:4367  0 */\n      dup1\n        /* \"@openzeppelin/contracts/utils/structs/EnumerableSet.sol\":4343:4346  set */\n      dup4\n        /* \"@openzeppelin/contracts/utils/structs/EnumerableSet.sol\":4343:4355  set._indexes */\n      0x01\n      add\n        /* \"@openzeppelin/contracts/utils/structs/EnumerableSet.sol\":4343:4362  set._indexes[value] */\n      0x00\n        /* \"@openzeppelin/contracts/utils/structs/EnumerableSet.sol\":4356:4361  value */\n      dup5\n        /* \"@openzeppelin/contracts/utils/structs/EnumerableSet.sol\":4343:4362  set._indexes[value] */\n      dup2\n      mstore\n      0x20\n      add\n      swap1\n      dup2\n      mstore\n      0x20\n      add\n      0x00\n      keccak256\n      sload\n        /* \"@openzeppelin/contracts/utils/structs/EnumerableSet.sol\":4343:4367  set._indexes[value] != 0 */\n      eq\n      iszero\n        /* \"@openzeppelin/contracts/utils/structs/EnumerableSet.sol\":4336:4367  return set._indexes[value] != 0 */\n      swap1\n      pop\n        /* \"@openzeppelin/contracts/utils/structs/EnumerableSet.sol\":4247:4374  function _contains(Set storage set, bytes32 value) private view returns (bool) {... */\n      swap3\n      swap2\n      pop\n      pop\n      jump\t// out\n        /* \"@openzeppelin/contracts/utils/structs/EnumerableSet.sol\":4455:4562  function _length(Set storage set) private view returns (uint256) {... */\n    tag_542:\n        /* \"@openzeppelin/contracts/utils/structs/EnumerableSet.sol\":4511:4518  uint256 */\n      0x00\n        /* \"@openzeppelin/contracts/utils/structs/EnumerableSet.sol\":4537:4540  set */\n      dup2\n        /* \"@openzeppelin/contracts/utils/structs/EnumerableSet.sol\":4537:4548  set._values */\n      0x00\n      add\n        /* \"@openzeppelin/contracts/utils/structs/EnumerableSet.sol\":4537:4555  set._values.length */\n      dup1\n      sload\n      swap1\n      pop\n        /* \"@openzeppelin/contracts/utils/structs/EnumerableSet.sol\":4530:4555  return set._values.length */\n      swap1\n      pop\n        /* \"@openzeppelin/contracts/utils/structs/EnumerableSet.sol\":4455:4562  function _length(Set storage set) private view returns (uint256) {... */\n      swap2\n      swap1\n      pop\n      jump\t// out\n        /* \"#utility.yul\":88:205   */\n    tag_555:\n        /* \"#utility.yul\":197:198   */\n      0x00\n        /* \"#utility.yul\":194:195   */\n      dup1\n        /* \"#utility.yul\":187:199   */\n      revert\n        /* \"#utility.yul\":211:328   */\n    tag_556:\n        /* \"#utility.yul\":320:321   */\n      0x00\n        /* \"#utility.yul\":317:318   */\n      dup1\n        /* \"#utility.yul\":310:322   */\n      revert\n        /* \"#utility.yul\":334:460   */\n    tag_557:\n        /* \"#utility.yul\":371:378   */\n      0x00\n        /* \"#utility.yul\":411:453   */\n      0xffffffffffffffffffffffffffffffffffffffff\n        /* \"#utility.yul\":404:409   */\n      dup3\n        /* \"#utility.yul\":400:454   */\n      and\n        /* \"#utility.yul\":389:454   */\n      swap1\n      pop\n        /* \"#utility.yul\":334:460   */\n      swap2\n      swap1\n      pop\n      jump\t// out\n        /* \"#utility.yul\":466:562   */\n    tag_558:\n        /* \"#utility.yul\":503:510   */\n      0x00\n        /* \"#utility.yul\":532:556   */\n      tag_607\n        /* \"#utility.yul\":550:555   */\n      dup3\n        /* \"#utility.yul\":532:556   */\n      tag_557\n      jump\t// in\n    tag_607:\n        /* \"#utility.yul\":521:556   */\n      swap1\n      pop\n        /* \"#utility.yul\":466:562   */\n      swap2\n      swap1\n      pop\n      jump\t// out\n        /* \"#utility.yul\":568:690   */\n    tag_559:\n        /* \"#utility.yul\":641:665   */\n      tag_609\n        /* \"#utility.yul\":659:664   */\n      dup2\n        /* \"#utility.yul\":641:665   */\n      tag_558\n      jump\t// in\n    tag_609:\n        /* \"#utility.yul\":634:639   */\n      dup2\n        /* \"#utility.yul\":631:666   */\n      eq\n        /* \"#utility.yul\":621:684   */\n      tag_610\n      jumpi\n        /* \"#utility.yul\":680:681   */\n      0x00\n        /* \"#utility.yul\":677:678   */\n      dup1\n        /* \"#utility.yul\":670:682   */\n      revert\n        /* \"#utility.yul\":621:684   */\n    tag_610:\n        /* \"#utility.yul\":568:690   */\n      pop\n      jump\t// out\n        /* \"#utility.yul\":696:835   */\n    tag_560:\n        /* \"#utility.yul\":742:747   */\n      0x00\n        /* \"#utility.yul\":780:786   */\n      dup2\n        /* \"#utility.yul\":767:787   */\n      calldataload\n        /* \"#utility.yul\":758:787   */\n      swap1\n      pop\n        /* \"#utility.yul\":796:829   */\n      tag_612\n        /* \"#utility.yul\":823:828   */\n      dup2\n        /* \"#utility.yul\":796:829   */\n      tag_559\n      jump\t// in\n    tag_612:\n        /* \"#utility.yul\":696:835   */\n      swap3\n      swap2\n      pop\n      pop\n      jump\t// out\n        /* \"#utility.yul\":841:958   */\n    tag_561:\n        /* \"#utility.yul\":950:951   */\n      0x00\n        /* \"#utility.yul\":947:948   */\n      dup1\n        /* \"#utility.yul\":940:952   */\n      revert\n        /* \"#utility.yul\":964:1081   */\n    tag_562:\n        /* \"#utility.yul\":1073:1074   */\n      0x00\n        /* \"#utility.yul\":1070:1071   */\n      dup1\n        /* \"#utility.yul\":1063:1075   */\n      revert\n        /* \"#utility.yul\":1087:1204   */\n    tag_563:\n        /* \"#utility.yul\":1196:1197   */\n      0x00\n        /* \"#utility.yul\":1193:1194   */\n      dup1\n        /* \"#utility.yul\":1186:1198   */\n      revert\n        /* \"#utility.yul\":1227:1795   */\n    tag_564:\n        /* \"#utility.yul\":1300:1308   */\n      0x00\n        /* \"#utility.yul\":1310:1316   */\n      dup1\n        /* \"#utility.yul\":1360:1363   */\n      dup4\n        /* \"#utility.yul\":1353:1357   */\n      0x1f\n        /* \"#utility.yul\":1345:1351   */\n      dup5\n        /* \"#utility.yul\":1341:1358   */\n      add\n        /* \"#utility.yul\":1337:1364   */\n      slt\n        /* \"#utility.yul\":1327:1449   */\n      tag_617\n      jumpi\n        /* \"#utility.yul\":1368:1447   */\n      tag_618\n      tag_561\n      jump\t// in\n    tag_618:\n        /* \"#utility.yul\":1327:1449   */\n    tag_617:\n        /* \"#utility.yul\":1481:1487   */\n      dup3\n        /* \"#utility.yul\":1468:1488   */\n      calldataload\n        /* \"#utility.yul\":1458:1488   */\n      swap1\n      pop\n        /* \"#utility.yul\":1511:1529   */\n      0xffffffffffffffff\n        /* \"#utility.yul\":1503:1509   */\n      dup2\n        /* \"#utility.yul\":1500:1530   */\n      gt\n        /* \"#utility.yul\":1497:1614   */\n      iszero\n      tag_619\n      jumpi\n        /* \"#utility.yul\":1533:1612   */\n      tag_620\n      tag_562\n      jump\t// in\n    tag_620:\n        /* \"#utility.yul\":1497:1614   */\n    tag_619:\n        /* \"#utility.yul\":1647:1651   */\n      0x20\n        /* \"#utility.yul\":1639:1645   */\n      dup4\n        /* \"#utility.yul\":1635:1652   */\n      add\n        /* \"#utility.yul\":1623:1652   */\n      swap2\n      pop\n        /* \"#utility.yul\":1701:1704   */\n      dup4\n        /* \"#utility.yul\":1693:1697   */\n      0x20\n        /* \"#utility.yul\":1685:1691   */\n      dup3\n        /* \"#utility.yul\":1681:1698   */\n      mul\n        /* \"#utility.yul\":1671:1679   */\n      dup4\n        /* \"#utility.yul\":1667:1699   */\n      add\n        /* \"#utility.yul\":1664:1705   */\n      gt\n        /* \"#utility.yul\":1661:1789   */\n      iszero\n      tag_621\n      jumpi\n        /* \"#utility.yul\":1708:1787   */\n      tag_622\n      tag_563\n      jump\t// in\n    tag_622:\n        /* \"#utility.yul\":1661:1789   */\n    tag_621:\n        /* \"#utility.yul\":1227:1795   */\n      swap3\n      pop\n      swap3\n      swap1\n      pop\n      jump\t// out\n        /* \"#utility.yul\":1801:1891   */\n    tag_565:\n        /* \"#utility.yul\":1835:1842   */\n      0x00\n        /* \"#utility.yul\":1878:1883   */\n      dup2\n        /* \"#utility.yul\":1871:1884   */\n      iszero\n        /* \"#utility.yul\":1864:1885   */\n      iszero\n        /* \"#utility.yul\":1853:1885   */\n      swap1\n      pop\n        /* \"#utility.yul\":1801:1891   */\n      swap2\n      swap1\n      pop\n      jump\t// out\n        /* \"#utility.yul\":1897:2013   */\n    tag_566:\n        /* \"#utility.yul\":1967:1988   */\n      tag_625\n        /* \"#utility.yul\":1982:1987   */\n      dup2\n        /* \"#utility.yul\":1967:1988   */\n      tag_565\n      jump\t// in\n    tag_625:\n        /* \"#utility.yul\":1960:1965   */\n      dup2\n        /* \"#utility.yul\":1957:1989   */\n      eq\n        /* \"#utility.yul\":1947:2007   */\n      tag_626\n      jumpi\n        /* \"#utility.yul\":2003:2004   */\n      0x00\n        /* \"#utility.yul\":2000:2001   */\n      dup1\n        /* \"#utility.yul\":1993:2005   */\n      revert\n        /* \"#utility.yul\":1947:2007   */\n    tag_626:\n        /* \"#utility.yul\":1897:2013   */\n      pop\n      jump\t// out\n        /* \"#utility.yul\":2019:2152   */\n    tag_567:\n        /* \"#utility.yul\":2062:2067   */\n      0x00\n        /* \"#utility.yul\":2100:2106   */\n      dup2\n        /* \"#utility.yul\":2087:2107   */\n      calldataload\n        /* \"#utility.yul\":2078:2107   */\n      swap1\n      pop\n        /* \"#utility.yul\":2116:2146   */\n      tag_628\n        /* \"#utility.yul\":2140:2145   */\n      dup2\n        /* \"#utility.yul\":2116:2146   */\n      tag_566\n      jump\t// in\n    tag_628:\n        /* \"#utility.yul\":2019:2152   */\n      swap3\n      swap2\n      pop\n      pop\n      jump\t// out\n        /* \"#utility.yul\":2158:3001   */\n    tag_32:\n        /* \"#utility.yul\":2259:2265   */\n      0x00\n        /* \"#utility.yul\":2267:2273   */\n      dup1\n        /* \"#utility.yul\":2275:2281   */\n      0x00\n        /* \"#utility.yul\":2283:2289   */\n      dup1\n        /* \"#utility.yul\":2332:2334   */\n      0x60\n        /* \"#utility.yul\":2320:2329   */\n      dup6\n        /* \"#utility.yul\":2311:2318   */\n      dup8\n        /* \"#utility.yul\":2307:2330   */\n      sub\n        /* \"#utility.yul\":2303:2335   */\n      slt\n        /* \"#utility.yul\":2300:2419   */\n      iszero\n      tag_630\n      jumpi\n        /* \"#utility.yul\":2338:2417   */\n      tag_631\n      tag_555\n      jump\t// in\n    tag_631:\n        /* \"#utility.yul\":2300:2419   */\n    tag_630:\n        /* \"#utility.yul\":2458:2459   */\n      0x00\n        /* \"#utility.yul\":2483:2536   */\n      tag_632\n        /* \"#utility.yul\":2528:2535   */\n      dup8\n        /* \"#utility.yul\":2519:2525   */\n      dup3\n        /* \"#utility.yul\":2508:2517   */\n      dup9\n        /* \"#utility.yul\":2504:2526   */\n      add\n        /* \"#utility.yul\":2483:2536   */\n      tag_560\n      jump\t// in\n    tag_632:\n        /* \"#utility.yul\":2473:2536   */\n      swap5\n      pop\n        /* \"#utility.yul\":2429:2546   */\n      pop\n        /* \"#utility.yul\":2613:2615   */\n      0x20\n        /* \"#utility.yul\":2602:2611   */\n      dup6\n        /* \"#utility.yul\":2598:2616   */\n      add\n        /* \"#utility.yul\":2585:2617   */\n      calldataload\n        /* \"#utility.yul\":2644:2662   */\n      0xffffffffffffffff\n        /* \"#utility.yul\":2636:2642   */\n      dup2\n        /* \"#utility.yul\":2633:2663   */\n      gt\n        /* \"#utility.yul\":2630:2747   */\n      iszero\n      tag_633\n      jumpi\n        /* \"#utility.yul\":2666:2745   */\n      tag_634\n      tag_556\n      jump\t// in\n    tag_634:\n        /* \"#utility.yul\":2630:2747   */\n    tag_633:\n        /* \"#utility.yul\":2779:2859   */\n      tag_635\n        /* \"#utility.yul\":2851:2858   */\n      dup8\n        /* \"#utility.yul\":2842:2848   */\n      dup3\n        /* \"#utility.yul\":2831:2840   */\n      dup9\n        /* \"#utility.yul\":2827:2849   */\n      add\n        /* \"#utility.yul\":2779:2859   */\n      tag_564\n      jump\t// in\n    tag_635:\n        /* \"#utility.yul\":2761:2859   */\n      swap4\n      pop\n      swap4\n      pop\n        /* \"#utility.yul\":2556:2869   */\n      pop\n        /* \"#utility.yul\":2908:2910   */\n      0x40\n        /* \"#utility.yul\":2934:2984   */\n      tag_636\n        /* \"#utility.yul\":2976:2983   */\n      dup8\n        /* \"#utility.yul\":2967:2973   */\n      dup3\n        /* \"#utility.yul\":2956:2965   */\n      dup9\n        /* \"#utility.yul\":2952:2974   */\n      add\n        /* \"#utility.yul\":2934:2984   */\n      tag_567\n      jump\t// in\n    tag_636:\n        /* \"#utility.yul\":2924:2984   */\n      swap2\n      pop\n        /* \"#utility.yul\":2879:2994   */\n      pop\n        /* \"#utility.yul\":2158:3001   */\n      swap3\n      swap6\n      swap2\n      swap5\n      pop\n      swap3\n      pop\n      jump\t// out\n        /* \"#utility.yul\":3007:3481   */\n    tag_36:\n        /* \"#utility.yul\":3075:3081   */\n      0x00\n        /* \"#utility.yul\":3083:3089   */\n      dup1\n        /* \"#utility.yul\":3132:3134   */\n      0x40\n        /* \"#utility.yul\":3120:3129   */\n      dup4\n        /* \"#utility.yul\":3111:3118   */\n      dup6\n        /* \"#utility.yul\":3107:3130   */\n      sub\n        /* \"#utility.yul\":3103:3135   */\n      slt\n        /* \"#utility.yul\":3100:3219   */\n      iszero\n      tag_638\n      jumpi\n        /* \"#utility.yul\":3138:3217   */\n      tag_639\n      tag_555\n      jump\t// in\n    tag_639:\n        /* \"#utility.yul\":3100:3219   */\n    tag_638:\n        /* \"#utility.yul\":3258:3259   */\n      0x00\n        /* \"#utility.yul\":3283:3336   */\n      tag_640\n        /* \"#utility.yul\":3328:3335   */\n      dup6\n        /* \"#utility.yul\":3319:3325   */\n      dup3\n        /* \"#utility.yul\":3308:3317   */\n      dup7\n        /* \"#utility.yul\":3304:3326   */\n      add\n        /* \"#utility.yul\":3283:3336   */\n      tag_560\n      jump\t// in\n    tag_640:\n        /* \"#utility.yul\":3273:3336   */\n      swap3\n      pop\n        /* \"#utility.yul\":3229:3346   */\n      pop\n        /* \"#utility.yul\":3385:3387   */\n      0x20\n        /* \"#utility.yul\":3411:3464   */\n      tag_641\n        /* \"#utility.yul\":3456:3463   */\n      dup6\n        /* \"#utility.yul\":3447:3453   */\n      dup3\n        /* \"#utility.yul\":3436:3445   */\n      dup7\n        /* \"#utility.yul\":3432:3454   */\n      add\n        /* \"#utility.yul\":3411:3464   */\n      tag_560\n      jump\t// in\n    tag_641:\n        /* \"#utility.yul\":3401:3464   */\n      swap2\n      pop\n        /* \"#utility.yul\":3356:3474   */\n      pop\n        /* \"#utility.yul\":3007:3481   */\n      swap3\n      pop\n      swap3\n      swap1\n      pop\n      jump\t// out\n        /* \"#utility.yul\":3487:3816   */\n    tag_40:\n        /* \"#utility.yul\":3546:3552   */\n      0x00\n        /* \"#utility.yul\":3595:3597   */\n      0x20\n        /* \"#utility.yul\":3583:3592   */\n      dup3\n        /* \"#utility.yul\":3574:3581   */\n      dup5\n        /* \"#utility.yul\":3570:3593   */\n      sub\n        /* \"#utility.yul\":3566:3598   */\n      slt\n        /* \"#utility.yul\":3563:3682   */\n      iszero\n      tag_643\n      jumpi\n        /* \"#utility.yul\":3601:3680   */\n      tag_644\n      tag_555\n      jump\t// in\n    tag_644:\n        /* \"#utility.yul\":3563:3682   */\n    tag_643:\n        /* \"#utility.yul\":3721:3722   */\n      0x00\n        /* \"#utility.yul\":3746:3799   */\n      tag_645\n        /* \"#utility.yul\":3791:3798   */\n      dup5\n        /* \"#utility.yul\":3782:3788   */\n      dup3\n        /* \"#utility.yul\":3771:3780   */\n      dup6\n        /* \"#utility.yul\":3767:3789   */\n      add\n        /* \"#utility.yul\":3746:3799   */\n      tag_560\n      jump\t// in\n    tag_645:\n        /* \"#utility.yul\":3736:3799   */\n      swap2\n      pop\n        /* \"#utility.yul\":3692:3809   */\n      pop\n        /* \"#utility.yul\":3487:3816   */\n      swap3\n      swap2\n      pop\n      pop\n      jump\t// out\n        /* \"#utility.yul\":3822:3936   */\n    tag_568:\n        /* \"#utility.yul\":3889:3895   */\n      0x00\n        /* \"#utility.yul\":3923:3928   */\n      dup2\n        /* \"#utility.yul\":3917:3929   */\n      mload\n        /* \"#utility.yul\":3907:3929   */\n      swap1\n      pop\n        /* \"#utility.yul\":3822:3936   */\n      swap2\n      swap1\n      pop\n      jump\t// out\n        /* \"#utility.yul\":3942:4126   */\n    tag_569:\n        /* \"#utility.yul\":4041:4052   */\n      0x00\n        /* \"#utility.yul\":4075:4081   */\n      dup3\n        /* \"#utility.yul\":4070:4073   */\n      dup3\n        /* \"#utility.yul\":4063:4082   */\n      mstore\n        /* \"#utility.yul\":4115:4119   */\n      0x20\n        /* \"#utility.yul\":4110:4113   */\n      dup3\n        /* \"#utility.yul\":4106:4120   */\n      add\n        /* \"#utility.yul\":4091:4120   */\n      swap1\n      pop\n        /* \"#utility.yul\":3942:4126   */\n      swap3\n      swap2\n      pop\n      pop\n      jump\t// out\n        /* \"#utility.yul\":4132:4264   */\n    tag_570:\n        /* \"#utility.yul\":4199:4203   */\n      0x00\n        /* \"#utility.yul\":4222:4225   */\n      dup2\n        /* \"#utility.yul\":4214:4225   */\n      swap1\n      pop\n        /* \"#utility.yul\":4252:4256   */\n      0x20\n        /* \"#utility.yul\":4247:4250   */\n      dup3\n        /* \"#utility.yul\":4243:4257   */\n      add\n        /* \"#utility.yul\":4235:4257   */\n      swap1\n      pop\n        /* \"#utility.yul\":4132:4264   */\n      swap2\n      swap1\n      pop\n      jump\t// out\n        /* \"#utility.yul\":4270:4347   */\n    tag_571:\n        /* \"#utility.yul\":4307:4314   */\n      0x00\n        /* \"#utility.yul\":4336:4341   */\n      dup2\n        /* \"#utility.yul\":4325:4341   */\n      swap1\n      pop\n        /* \"#utility.yul\":4270:4347   */\n      swap2\n      swap1\n      pop\n      jump\t// out\n        /* \"#utility.yul\":4353:4461   */\n    tag_572:\n        /* \"#utility.yul\":4430:4454   */\n      tag_651\n        /* \"#utility.yul\":4448:4453   */\n      dup2\n        /* \"#utility.yul\":4430:4454   */\n      tag_571\n      jump\t// in\n    tag_651:\n        /* \"#utility.yul\":4425:4428   */\n      dup3\n        /* \"#utility.yul\":4418:4455   */\n      mstore\n        /* \"#utility.yul\":4353:4461   */\n      pop\n      pop\n      jump\t// out\n        /* \"#utility.yul\":4467:4646   */\n    tag_573:\n        /* \"#utility.yul\":4536:4546   */\n      0x00\n        /* \"#utility.yul\":4557:4603   */\n      tag_653\n        /* \"#utility.yul\":4599:4602   */\n      dup4\n        /* \"#utility.yul\":4591:4597   */\n      dup4\n        /* \"#utility.yul\":4557:4603   */\n      tag_572\n      jump\t// in\n    tag_653:\n        /* \"#utility.yul\":4635:4639   */\n      0x20\n        /* \"#utility.yul\":4630:4633   */\n      dup4\n        /* \"#utility.yul\":4626:4640   */\n      add\n        /* \"#utility.yul\":4612:4640   */\n      swap1\n      pop\n        /* \"#utility.yul\":4467:4646   */\n      swap3\n      swap2\n      pop\n      pop\n      jump\t// out\n        /* \"#utility.yul\":4652:4765   */\n    tag_574:\n        /* \"#utility.yul\":4722:4726   */\n      0x00\n        /* \"#utility.yul\":4754:4758   */\n      0x20\n        /* \"#utility.yul\":4749:4752   */\n      dup3\n        /* \"#utility.yul\":4745:4759   */\n      add\n        /* \"#utility.yul\":4737:4759   */\n      swap1\n      pop\n        /* \"#utility.yul\":4652:4765   */\n      swap2\n      swap1\n      pop\n      jump\t// out\n        /* \"#utility.yul\":4801:5533   */\n    tag_575:\n        /* \"#utility.yul\":4920:4923   */\n      0x00\n        /* \"#utility.yul\":4949:5003   */\n      tag_656\n        /* \"#utility.yul\":4997:5002   */\n      dup3\n        /* \"#utility.yul\":4949:5003   */\n      tag_568\n      jump\t// in\n    tag_656:\n        /* \"#utility.yul\":5019:5105   */\n      tag_657\n        /* \"#utility.yul\":5098:5104   */\n      dup2\n        /* \"#utility.yul\":5093:5096   */\n      dup6\n        /* \"#utility.yul\":5019:5105   */\n      tag_569\n      jump\t// in\n    tag_657:\n        /* \"#utility.yul\":5012:5105   */\n      swap4\n      pop\n        /* \"#utility.yul\":5129:5185   */\n      tag_658\n        /* \"#utility.yul\":5179:5184   */\n      dup4\n        /* \"#utility.yul\":5129:5185   */\n      tag_570\n      jump\t// in\n    tag_658:\n        /* \"#utility.yul\":5208:5215   */\n      dup1\n        /* \"#utility.yul\":5239:5240   */\n      0x00\n        /* \"#utility.yul\":5224:5508   */\n    tag_659:\n        /* \"#utility.yul\":5249:5255   */\n      dup4\n        /* \"#utility.yul\":5246:5247   */\n      dup2\n        /* \"#utility.yul\":5243:5256   */\n      lt\n        /* \"#utility.yul\":5224:5508   */\n      iszero\n      tag_661\n      jumpi\n        /* \"#utility.yul\":5325:5331   */\n      dup2\n        /* \"#utility.yul\":5319:5332   */\n      mload\n        /* \"#utility.yul\":5352:5415   */\n      tag_662\n        /* \"#utility.yul\":5411:5414   */\n      dup9\n        /* \"#utility.yul\":5396:5409   */\n      dup3\n        /* \"#utility.yul\":5352:5415   */\n      tag_573\n      jump\t// in\n    tag_662:\n        /* \"#utility.yul\":5345:5415   */\n      swap8\n      pop\n        /* \"#utility.yul\":5438:5498   */\n      tag_663\n        /* \"#utility.yul\":5491:5497   */\n      dup4\n        /* \"#utility.yul\":5438:5498   */\n      tag_574\n      jump\t// in\n    tag_663:\n        /* \"#utility.yul\":5428:5498   */\n      swap3\n      pop\n        /* \"#utility.yul\":5284:5508   */\n      pop\n        /* \"#utility.yul\":5271:5272   */\n      0x01\n        /* \"#utility.yul\":5268:5269   */\n      dup2\n        /* \"#utility.yul\":5264:5273   */\n      add\n        /* \"#utility.yul\":5259:5273   */\n      swap1\n      pop\n        /* \"#utility.yul\":5224:5508   */\n      jump(tag_659)\n    tag_661:\n        /* \"#utility.yul\":5228:5242   */\n      pop\n        /* \"#utility.yul\":5524:5527   */\n      dup6\n        /* \"#utility.yul\":5517:5527   */\n      swap4\n      pop\n        /* \"#utility.yul\":4925:5533   */\n      pop\n      pop\n      pop\n        /* \"#utility.yul\":4801:5533   */\n      swap3\n      swap2\n      pop\n      pop\n      jump\t// out\n        /* \"#utility.yul\":5539:5912   */\n    tag_43:\n        /* \"#utility.yul\":5682:5686   */\n      0x00\n        /* \"#utility.yul\":5720:5722   */\n      0x20\n        /* \"#utility.yul\":5709:5718   */\n      dup3\n        /* \"#utility.yul\":5705:5723   */\n      add\n        /* \"#utility.yul\":5697:5723   */\n      swap1\n      pop\n        /* \"#utility.yul\":5769:5778   */\n      dup2\n        /* \"#utility.yul\":5763:5767   */\n      dup2\n        /* \"#utility.yul\":5759:5779   */\n      sub\n        /* \"#utility.yul\":5755:5756   */\n      0x00\n        /* \"#utility.yul\":5744:5753   */\n      dup4\n        /* \"#utility.yul\":5740:5757   */\n      add\n        /* \"#utility.yul\":5733:5780   */\n      mstore\n        /* \"#utility.yul\":5797:5905   */\n      tag_665\n        /* \"#utility.yul\":5900:5904   */\n      dup2\n        /* \"#utility.yul\":5891:5897   */\n      dup5\n        /* \"#utility.yul\":5797:5905   */\n      tag_575\n      jump\t// in\n    tag_665:\n        /* \"#utility.yul\":5789:5905   */\n      swap1\n      pop\n        /* \"#utility.yul\":5539:5912   */\n      swap3\n      swap2\n      pop\n      pop\n      jump\t// out\n        /* \"#utility.yul\":5918:6386   */\n    tag_49:\n        /* \"#utility.yul\":5983:5989   */\n      0x00\n        /* \"#utility.yul\":5991:5997   */\n      dup1\n        /* \"#utility.yul\":6040:6042   */\n      0x40\n        /* \"#utility.yul\":6028:6037   */\n      dup4\n        /* \"#utility.yul\":6019:6026   */\n      dup6\n        /* \"#utility.yul\":6015:6038   */\n      sub\n        /* \"#utility.yul\":6011:6043   */\n      slt\n        /* \"#utility.yul\":6008:6127   */\n      iszero\n      tag_667\n      jumpi\n        /* \"#utility.yul\":6046:6125   */\n      tag_668\n      tag_555\n      jump\t// in\n    tag_668:\n        /* \"#utility.yul\":6008:6127   */\n    tag_667:\n        /* \"#utility.yul\":6166:6167   */\n      0x00\n        /* \"#utility.yul\":6191:6244   */\n      tag_669\n        /* \"#utility.yul\":6236:6243   */\n      dup6\n        /* \"#utility.yul\":6227:6233   */\n      dup3\n        /* \"#utility.yul\":6216:6225   */\n      dup7\n        /* \"#utility.yul\":6212:6234   */\n      add\n        /* \"#utility.yul\":6191:6244   */\n      tag_560\n      jump\t// in\n    tag_669:\n        /* \"#utility.yul\":6181:6244   */\n      swap3\n      pop\n        /* \"#utility.yul\":6137:6254   */\n      pop\n        /* \"#utility.yul\":6293:6295   */\n      0x20\n        /* \"#utility.yul\":6319:6369   */\n      tag_670\n        /* \"#utility.yul\":6361:6368   */\n      dup6\n        /* \"#utility.yul\":6352:6358   */\n      dup3\n        /* \"#utility.yul\":6341:6350   */\n      dup7\n        /* \"#utility.yul\":6337:6359   */\n      add\n        /* \"#utility.yul\":6319:6369   */\n      tag_567\n      jump\t// in\n    tag_670:\n        /* \"#utility.yul\":6309:6369   */\n      swap2\n      pop\n        /* \"#utility.yul\":6264:6379   */\n      pop\n        /* \"#utility.yul\":5918:6386   */\n      swap3\n      pop\n      swap3\n      swap1\n      pop\n      jump\t// out\n        /* \"#utility.yul\":6392:6510   */\n    tag_576:\n        /* \"#utility.yul\":6479:6503   */\n      tag_672\n        /* \"#utility.yul\":6497:6502   */\n      dup2\n        /* \"#utility.yul\":6479:6503   */\n      tag_558\n      jump\t// in\n    tag_672:\n        /* \"#utility.yul\":6474:6477   */\n      dup3\n        /* \"#utility.yul\":6467:6504   */\n      mstore\n        /* \"#utility.yul\":6392:6510   */\n      pop\n      pop\n      jump\t// out\n        /* \"#utility.yul\":6516:6738   */\n    tag_55:\n        /* \"#utility.yul\":6609:6613   */\n      0x00\n        /* \"#utility.yul\":6647:6649   */\n      0x20\n        /* \"#utility.yul\":6636:6645   */\n      dup3\n        /* \"#utility.yul\":6632:6650   */\n      add\n        /* \"#utility.yul\":6624:6650   */\n      swap1\n      pop\n        /* \"#utility.yul\":6660:6731   */\n      tag_674\n        /* \"#utility.yul\":6728:6729   */\n      0x00\n        /* \"#utility.yul\":6717:6726   */\n      dup4\n        /* \"#utility.yul\":6713:6730   */\n      add\n        /* \"#utility.yul\":6704:6710   */\n      dup5\n        /* \"#utility.yul\":6660:6731   */\n      tag_576\n      jump\t// in\n    tag_674:\n        /* \"#utility.yul\":6516:6738   */\n      swap3\n      swap2\n      pop\n      pop\n      jump\t// out\n        /* \"#utility.yul\":6744:6821   */\n    tag_577:\n        /* \"#utility.yul\":6781:6788   */\n      0x00\n        /* \"#utility.yul\":6810:6815   */\n      dup2\n        /* \"#utility.yul\":6799:6815   */\n      swap1\n      pop\n        /* \"#utility.yul\":6744:6821   */\n      swap2\n      swap1\n      pop\n      jump\t// out\n        /* \"#utility.yul\":6827:6949   */\n    tag_578:\n        /* \"#utility.yul\":6900:6924   */\n      tag_677\n        /* \"#utility.yul\":6918:6923   */\n      dup2\n        /* \"#utility.yul\":6900:6924   */\n      tag_577\n      jump\t// in\n    tag_677:\n        /* \"#utility.yul\":6893:6898   */\n      dup2\n        /* \"#utility.yul\":6890:6925   */\n      eq\n        /* \"#utility.yul\":6880:6943   */\n      tag_678\n      jumpi\n        /* \"#utility.yul\":6939:6940   */\n      0x00\n        /* \"#utility.yul\":6936:6937   */\n      dup1\n        /* \"#utility.yul\":6929:6941   */\n      revert\n        /* \"#utility.yul\":6880:6943   */\n    tag_678:\n        /* \"#utility.yul\":6827:6949   */\n      pop\n      jump\t// out\n        /* \"#utility.yul\":6955:7094   */\n    tag_579:\n        /* \"#utility.yul\":7001:7006   */\n      0x00\n        /* \"#utility.yul\":7039:7045   */\n      dup2\n        /* \"#utility.yul\":7026:7046   */\n      calldataload\n        /* \"#utility.yul\":7017:7046   */\n      swap1\n      pop\n        /* \"#utility.yul\":7055:7088   */\n      tag_680\n        /* \"#utility.yul\":7082:7087   */\n      dup2\n        /* \"#utility.yul\":7055:7088   */\n      tag_578\n      jump\t// in\n    tag_680:\n        /* \"#utility.yul\":6955:7094   */\n      swap3\n      swap2\n      pop\n      pop\n      jump\t// out\n        /* \"#utility.yul\":7100:7574   */\n    tag_58:\n        /* \"#utility.yul\":7168:7174   */\n      0x00\n        /* \"#utility.yul\":7176:7182   */\n      dup1\n        /* \"#utility.yul\":7225:7227   */\n      0x40\n        /* \"#utility.yul\":7213:7222   */\n      dup4\n        /* \"#utility.yul\":7204:7211   */\n      dup6\n        /* \"#utility.yul\":7200:7223   */\n      sub\n        /* \"#utility.yul\":7196:7228   */\n      slt\n        /* \"#utility.yul\":7193:7312   */\n      iszero\n      tag_682\n      jumpi\n        /* \"#utility.yul\":7231:7310   */\n      tag_683\n      tag_555\n      jump\t// in\n    tag_683:\n        /* \"#utility.yul\":7193:7312   */\n    tag_682:\n        /* \"#utility.yul\":7351:7352   */\n      0x00\n        /* \"#utility.yul\":7376:7429   */\n      tag_684\n        /* \"#utility.yul\":7421:7428   */\n      dup6\n        /* \"#utility.yul\":7412:7418   */\n      dup3\n        /* \"#utility.yul\":7401:7410   */\n      dup7\n        /* \"#utility.yul\":7397:7419   */\n      add\n        /* \"#utility.yul\":7376:7429   */\n      tag_560\n      jump\t// in\n    tag_684:\n        /* \"#utility.yul\":7366:7429   */\n      swap3\n      pop\n        /* \"#utility.yul\":7322:7439   */\n      pop\n        /* \"#utility.yul\":7478:7480   */\n      0x20\n        /* \"#utility.yul\":7504:7557   */\n      tag_685\n        /* \"#utility.yul\":7549:7556   */\n      dup6\n        /* \"#utility.yul\":7540:7546   */\n      dup3\n        /* \"#utility.yul\":7529:7538   */\n      dup7\n        /* \"#utility.yul\":7525:7547   */\n      add\n        /* \"#utility.yul\":7504:7557   */\n      tag_579\n      jump\t// in\n    tag_685:\n        /* \"#utility.yul\":7494:7557   */\n      swap2\n      pop\n        /* \"#utility.yul\":7449:7567   */\n      pop\n        /* \"#utility.yul\":7100:7574   */\n      swap3\n      pop\n      swap3\n      swap1\n      pop\n      jump\t// out\n        /* \"#utility.yul\":7580:7694   */\n    tag_580:\n        /* \"#utility.yul\":7647:7653   */\n      0x00\n        /* \"#utility.yul\":7681:7686   */\n      dup2\n        /* \"#utility.yul\":7675:7687   */\n      mload\n        /* \"#utility.yul\":7665:7687   */\n      swap1\n      pop\n        /* \"#utility.yul\":7580:7694   */\n      swap2\n      swap1\n      pop\n      jump\t// out\n        /* \"#utility.yul\":7700:7884   */\n    tag_581:\n        /* \"#utility.yul\":7799:7810   */\n      0x00\n        /* \"#utility.yul\":7833:7839   */\n      dup3\n        /* \"#utility.yul\":7828:7831   */\n      dup3\n        /* \"#utility.yul\":7821:7840   */\n      mstore\n        /* \"#utility.yul\":7873:7877   */\n      0x20\n        /* \"#utility.yul\":7868:7871   */\n      dup3\n        /* \"#utility.yul\":7864:7878   */\n      add\n        /* \"#utility.yul\":7849:7878   */\n      swap1\n      pop\n        /* \"#utility.yul\":7700:7884   */\n      swap3\n      swap2\n      pop\n      pop\n      jump\t// out\n        /* \"#utility.yul\":7890:8022   */\n    tag_582:\n        /* \"#utility.yul\":7957:7961   */\n      0x00\n        /* \"#utility.yul\":7980:7983   */\n      dup2\n        /* \"#utility.yul\":7972:7983   */\n      swap1\n      pop\n        /* \"#utility.yul\":8010:8014   */\n      0x20\n        /* \"#utility.yul\":8005:8008   */\n      dup3\n        /* \"#utility.yul\":8001:8015   */\n      add\n        /* \"#utility.yul\":7993:8015   */\n      swap1\n      pop\n        /* \"#utility.yul\":7890:8022   */\n      swap2\n      swap1\n      pop\n      jump\t// out\n        /* \"#utility.yul\":8028:8136   */\n    tag_583:\n        /* \"#utility.yul\":8105:8129   */\n      tag_690\n        /* \"#utility.yul\":8123:8128   */\n      dup2\n        /* \"#utility.yul\":8105:8129   */\n      tag_558\n      jump\t// in\n    tag_690:\n        /* \"#utility.yul\":8100:8103   */\n      dup3\n        /* \"#utility.yul\":8093:8130   */\n      mstore\n        /* \"#utility.yul\":8028:8136   */\n      pop\n      pop\n      jump\t// out\n        /* \"#utility.yul\":8142:8321   */\n    tag_584:\n        /* \"#utility.yul\":8211:8221   */\n      0x00\n        /* \"#utility.yul\":8232:8278   */\n      tag_692\n        /* \"#utility.yul\":8274:8277   */\n      dup4\n        /* \"#utility.yul\":8266:8272   */\n      dup4\n        /* \"#utility.yul\":8232:8278   */\n      tag_583\n      jump\t// in\n    tag_692:\n        /* \"#utility.yul\":8310:8314   */\n      0x20\n        /* \"#utility.yul\":8305:8308   */\n      dup4\n        /* \"#utility.yul\":8301:8315   */\n      add\n        /* \"#utility.yul\":8287:8315   */\n      swap1\n      pop\n        /* \"#utility.yul\":8142:8321   */\n      swap3\n      swap2\n      pop\n      pop\n      jump\t// out\n        /* \"#utility.yul\":8327:8440   */\n    tag_585:\n        /* \"#utility.yul\":8397:8401   */\n      0x00\n        /* \"#utility.yul\":8429:8433   */\n      0x20\n        /* \"#utility.yul\":8424:8427   */\n      dup3\n        /* \"#utility.yul\":8420:8434   */\n      add\n        /* \"#utility.yul\":8412:8434   */\n      swap1\n      pop\n        /* \"#utility.yul\":8327:8440   */\n      swap2\n      swap1\n      pop\n      jump\t// out\n        /* \"#utility.yul\":8476:9208   */\n    tag_586:\n        /* \"#utility.yul\":8595:8598   */\n      0x00\n        /* \"#utility.yul\":8624:8678   */\n      tag_695\n        /* \"#utility.yul\":8672:8677   */\n      dup3\n        /* \"#utility.yul\":8624:8678   */\n      tag_580\n      jump\t// in\n    tag_695:\n        /* \"#utility.yul\":8694:8780   */\n      tag_696\n        /* \"#utility.yul\":8773:8779   */\n      dup2\n        /* \"#utility.yul\":8768:8771   */\n      dup6\n        /* \"#utility.yul\":8694:8780   */\n      tag_581\n      jump\t// in\n    tag_696:\n        /* \"#utility.yul\":8687:8780   */\n      swap4\n      pop\n        /* \"#utility.yul\":8804:8860   */\n      tag_697\n        /* \"#utility.yul\":8854:8859   */\n      dup4\n        /* \"#utility.yul\":8804:8860   */\n      tag_582\n      jump\t// in\n    tag_697:\n        /* \"#utility.yul\":8883:8890   */\n      dup1\n        /* \"#utility.yul\":8914:8915   */\n      0x00\n        /* \"#utility.yul\":8899:9183   */\n    tag_698:\n        /* \"#utility.yul\":8924:8930   */\n      dup4\n        /* \"#utility.yul\":8921:8922   */\n      dup2\n        /* \"#utility.yul\":8918:8931   */\n      lt\n        /* \"#utility.yul\":8899:9183   */\n      iszero\n      tag_700\n      jumpi\n        /* \"#utility.yul\":9000:9006   */\n      dup2\n        /* \"#utility.yul\":8994:9007   */\n      mload\n        /* \"#utility.yul\":9027:9090   */\n      tag_701\n        /* \"#utility.yul\":9086:9089   */\n      dup9\n        /* \"#utility.yul\":9071:9084   */\n      dup3\n        /* \"#utility.yul\":9027:9090   */\n      tag_584\n      jump\t// in\n    tag_701:\n        /* \"#utility.yul\":9020:9090   */\n      swap8\n      pop\n        /* \"#utility.yul\":9113:9173   */\n      tag_702\n        /* \"#utility.yul\":9166:9172   */\n      dup4\n        /* \"#utility.yul\":9113:9173   */\n      tag_585\n      jump\t// in\n    tag_702:\n        /* \"#utility.yul\":9103:9173   */\n      swap3\n      pop\n        /* \"#utility.yul\":8959:9183   */\n      pop\n        /* \"#utility.yul\":8946:8947   */\n      0x01\n        /* \"#utility.yul\":8943:8944   */\n      dup2\n        /* \"#utility.yul\":8939:8948   */\n      add\n        /* \"#utility.yul\":8934:8948   */\n      swap1\n      pop\n        /* \"#utility.yul\":8899:9183   */\n      jump(tag_698)\n    tag_700:\n        /* \"#utility.yul\":8903:8917   */\n      pop\n        /* \"#utility.yul\":9199:9202   */\n      dup6\n        /* \"#utility.yul\":9192:9202   */\n      swap4\n      pop\n        /* \"#utility.yul\":8600:9208   */\n      pop\n      pop\n      pop\n        /* \"#utility.yul\":8476:9208   */\n      swap3\n      swap2\n      pop\n      pop\n      jump\t// out\n        /* \"#utility.yul\":9214:9587   */\n    tag_72:\n        /* \"#utility.yul\":9357:9361   */\n      0x00\n        /* \"#utility.yul\":9395:9397   */\n      0x20\n        /* \"#utility.yul\":9384:9393   */\n      dup3\n        /* \"#utility.yul\":9380:9398   */\n      add\n        /* \"#utility.yul\":9372:9398   */\n      swap1\n      pop\n        /* \"#utility.yul\":9444:9453   */\n      dup2\n        /* \"#utility.yul\":9438:9442   */\n      dup2\n        /* \"#utility.yul\":9434:9454   */\n      sub\n        /* \"#utility.yul\":9430:9431   */\n      0x00\n        /* \"#utility.yul\":9419:9428   */\n      dup4\n        /* \"#utility.yul\":9415:9432   */\n      add\n        /* \"#utility.yul\":9408:9455   */\n      mstore\n        /* \"#utility.yul\":9472:9580   */\n      tag_704\n        /* \"#utility.yul\":9575:9579   */\n      dup2\n        /* \"#utility.yul\":9566:9572   */\n      dup5\n        /* \"#utility.yul\":9472:9580   */\n      tag_586\n      jump\t// in\n    tag_704:\n        /* \"#utility.yul\":9464:9580   */\n      swap1\n      pop\n        /* \"#utility.yul\":9214:9587   */\n      swap3\n      swap2\n      pop\n      pop\n      jump\t// out\n        /* \"#utility.yul\":9593:9702   */\n    tag_587:\n        /* \"#utility.yul\":9674:9695   */\n      tag_706\n        /* \"#utility.yul\":9689:9694   */\n      dup2\n        /* \"#utility.yul\":9674:9695   */\n      tag_565\n      jump\t// in\n    tag_706:\n        /* \"#utility.yul\":9669:9672   */\n      dup3\n        /* \"#utility.yul\":9662:9696   */\n      mstore\n        /* \"#utility.yul\":9593:9702   */\n      pop\n      pop\n      jump\t// out\n        /* \"#utility.yul\":9708:9918   */\n    tag_77:\n        /* \"#utility.yul\":9795:9799   */\n      0x00\n        /* \"#utility.yul\":9833:9835   */\n      0x20\n        /* \"#utility.yul\":9822:9831   */\n      dup3\n        /* \"#utility.yul\":9818:9836   */\n      add\n        /* \"#utility.yul\":9810:9836   */\n      swap1\n      pop\n        /* \"#utility.yul\":9846:9911   */\n      tag_708\n        /* \"#utility.yul\":9908:9909   */\n      0x00\n        /* \"#utility.yul\":9897:9906   */\n      dup4\n        /* \"#utility.yul\":9893:9910   */\n      add\n        /* \"#utility.yul\":9884:9890   */\n      dup5\n        /* \"#utility.yul\":9846:9911   */\n      tag_587\n      jump\t// in\n    tag_708:\n        /* \"#utility.yul\":9708:9918   */\n      swap3\n      swap2\n      pop\n      pop\n      jump\t// out\n        /* \"#utility.yul\":9924:10046   */\n    tag_588:\n        /* \"#utility.yul\":9997:10021   */\n      tag_710\n        /* \"#utility.yul\":10015:10020   */\n      dup2\n        /* \"#utility.yul\":9997:10021   */\n      tag_571\n      jump\t// in\n    tag_710:\n        /* \"#utility.yul\":9990:9995   */\n      dup2\n        /* \"#utility.yul\":9987:10022   */\n      eq\n        /* \"#utility.yul\":9977:10040   */\n      tag_711\n      jumpi\n        /* \"#utility.yul\":10036:10037   */\n      0x00\n        /* \"#utility.yul\":10033:10034   */\n      dup1\n        /* \"#utility.yul\":10026:10038   */\n      revert\n        /* \"#utility.yul\":9977:10040   */\n    tag_711:\n        /* \"#utility.yul\":9924:10046   */\n      pop\n      jump\t// out\n        /* \"#utility.yul\":10052:10191   */\n    tag_589:\n        /* \"#utility.yul\":10098:10103   */\n      0x00\n        /* \"#utility.yul\":10136:10142   */\n      dup2\n        /* \"#utility.yul\":10123:10143   */\n      calldataload\n        /* \"#utility.yul\":10114:10143   */\n      swap1\n      pop\n        /* \"#utility.yul\":10152:10185   */\n      tag_713\n        /* \"#utility.yul\":10179:10184   */\n      dup2\n        /* \"#utility.yul\":10152:10185   */\n      tag_588\n      jump\t// in\n    tag_713:\n        /* \"#utility.yul\":10052:10191   */\n      swap3\n      swap2\n      pop\n      pop\n      jump\t// out\n        /* \"#utility.yul\":10197:10671   */\n    tag_80:\n        /* \"#utility.yul\":10265:10271   */\n      0x00\n        /* \"#utility.yul\":10273:10279   */\n      dup1\n        /* \"#utility.yul\":10322:10324   */\n      0x40\n        /* \"#utility.yul\":10310:10319   */\n      dup4\n        /* \"#utility.yul\":10301:10308   */\n      dup6\n        /* \"#utility.yul\":10297:10320   */\n      sub\n        /* \"#utility.yul\":10293:10325   */\n      slt\n        /* \"#utility.yul\":10290:10409   */\n      iszero\n      tag_715\n      jumpi\n        /* \"#utility.yul\":10328:10407   */\n      tag_716\n      tag_555\n      jump\t// in\n    tag_716:\n        /* \"#utility.yul\":10290:10409   */\n    tag_715:\n        /* \"#utility.yul\":10448:10449   */\n      0x00\n        /* \"#utility.yul\":10473:10526   */\n      tag_717\n        /* \"#utility.yul\":10518:10525   */\n      dup6\n        /* \"#utility.yul\":10509:10515   */\n      dup3\n        /* \"#utility.yul\":10498:10507   */\n      dup7\n        /* \"#utility.yul\":10494:10516   */\n      add\n        /* \"#utility.yul\":10473:10526   */\n      tag_560\n      jump\t// in\n    tag_717:\n        /* \"#utility.yul\":10463:10526   */\n      swap3\n      pop\n        /* \"#utility.yul\":10419:10536   */\n      pop\n        /* \"#utility.yul\":10575:10577   */\n      0x20\n        /* \"#utility.yul\":10601:10654   */\n      tag_718\n        /* \"#utility.yul\":10646:10653   */\n      dup6\n        /* \"#utility.yul\":10637:10643   */\n      dup3\n        /* \"#utility.yul\":10626:10635   */\n      dup7\n        /* \"#utility.yul\":10622:10644   */\n      add\n        /* \"#utility.yul\":10601:10654   */\n      tag_589\n      jump\t// in\n    tag_718:\n        /* \"#utility.yul\":10591:10654   */\n      swap2\n      pop\n        /* \"#utility.yul\":10546:10664   */\n      pop\n        /* \"#utility.yul\":10197:10671   */\n      swap3\n      pop\n      swap3\n      swap1\n      pop\n      jump\t// out\n        /* \"#utility.yul\":10677:11290   */\n    tag_85:\n        /* \"#utility.yul\":10751:10757   */\n      0x00\n        /* \"#utility.yul\":10759:10765   */\n      dup1\n        /* \"#utility.yul\":10767:10773   */\n      0x00\n        /* \"#utility.yul\":10816:10818   */\n      0x60\n        /* \"#utility.yul\":10804:10813   */\n      dup5\n        /* \"#utility.yul\":10795:10802   */\n      dup7\n        /* \"#utility.yul\":10791:10814   */\n      sub\n        /* \"#utility.yul\":10787:10819   */\n      slt\n        /* \"#utility.yul\":10784:10903   */\n      iszero\n      tag_720\n      jumpi\n        /* \"#utility.yul\":10822:10901   */\n      tag_721\n      tag_555\n      jump\t// in\n    tag_721:\n        /* \"#utility.yul\":10784:10903   */\n    tag_720:\n        /* \"#utility.yul\":10942:10943   */\n      0x00\n        /* \"#utility.yul\":10967:11020   */\n      tag_722\n        /* \"#utility.yul\":11012:11019   */\n      dup7\n        /* \"#utility.yul\":11003:11009   */\n      dup3\n        /* \"#utility.yul\":10992:11001   */\n      dup8\n        /* \"#utility.yul\":10988:11010   */\n      add\n        /* \"#utility.yul\":10967:11020   */\n      tag_560\n      jump\t// in\n    tag_722:\n        /* \"#utility.yul\":10957:11020   */\n      swap4\n      pop\n        /* \"#utility.yul\":10913:11030   */\n      pop\n        /* \"#utility.yul\":11069:11071   */\n      0x20\n        /* \"#utility.yul\":11095:11148   */\n      tag_723\n        /* \"#utility.yul\":11140:11147   */\n      dup7\n        /* \"#utility.yul\":11131:11137   */\n      dup3\n        /* \"#utility.yul\":11120:11129   */\n      dup8\n        /* \"#utility.yul\":11116:11138   */\n      add\n        /* \"#utility.yul\":11095:11148   */\n      tag_589\n      jump\t// in\n    tag_723:\n        /* \"#utility.yul\":11085:11148   */\n      swap3\n      pop\n        /* \"#utility.yul\":11040:11158   */\n      pop\n        /* \"#utility.yul\":11197:11199   */\n      0x40\n        /* \"#utility.yul\":11223:11273   */\n      tag_724\n        /* \"#utility.yul\":11265:11272   */\n      dup7\n        /* \"#utility.yul\":11256:11262   */\n      dup3\n        /* \"#utility.yul\":11245:11254   */\n      dup8\n        /* \"#utility.yul\":11241:11263   */\n      add\n        /* \"#utility.yul\":11223:11273   */\n      tag_567\n      jump\t// in\n    tag_724:\n        /* \"#utility.yul\":11213:11273   */\n      swap2\n      pop\n        /* \"#utility.yul\":11168:11283   */\n      pop\n        /* \"#utility.yul\":10677:11290   */\n      swap3\n      pop\n      swap3\n      pop\n      swap3\n      jump\t// out\n        /* \"#utility.yul\":11313:11881   */\n    tag_590:\n        /* \"#utility.yul\":11386:11394   */\n      0x00\n        /* \"#utility.yul\":11396:11402   */\n      dup1\n        /* \"#utility.yul\":11446:11449   */\n      dup4\n        /* \"#utility.yul\":11439:11443   */\n      0x1f\n        /* \"#utility.yul\":11431:11437   */\n      dup5\n        /* \"#utility.yul\":11427:11444   */\n      add\n        /* \"#utility.yul\":11423:11450   */\n      slt\n        /* \"#utility.yul\":11413:11535   */\n      tag_726\n      jumpi\n        /* \"#utility.yul\":11454:11533   */\n      tag_727\n      tag_561\n      jump\t// in\n    tag_727:\n        /* \"#utility.yul\":11413:11535   */\n    tag_726:\n        /* \"#utility.yul\":11567:11573   */\n      dup3\n        /* \"#utility.yul\":11554:11574   */\n      calldataload\n        /* \"#utility.yul\":11544:11574   */\n      swap1\n      pop\n        /* \"#utility.yul\":11597:11615   */\n      0xffffffffffffffff\n        /* \"#utility.yul\":11589:11595   */\n      dup2\n        /* \"#utility.yul\":11586:11616   */\n      gt\n        /* \"#utility.yul\":11583:11700   */\n      iszero\n      tag_728\n      jumpi\n        /* \"#utility.yul\":11619:11698   */\n      tag_729\n      tag_562\n      jump\t// in\n    tag_729:\n        /* \"#utility.yul\":11583:11700   */\n    tag_728:\n        /* \"#utility.yul\":11733:11737   */\n      0x20\n        /* \"#utility.yul\":11725:11731   */\n      dup4\n        /* \"#utility.yul\":11721:11738   */\n      add\n        /* \"#utility.yul\":11709:11738   */\n      swap2\n      pop\n        /* \"#utility.yul\":11787:11790   */\n      dup4\n        /* \"#utility.yul\":11779:11783   */\n      0x20\n        /* \"#utility.yul\":11771:11777   */\n      dup3\n        /* \"#utility.yul\":11767:11784   */\n      mul\n        /* \"#utility.yul\":11757:11765   */\n      dup4\n        /* \"#utility.yul\":11753:11785   */\n      add\n        /* \"#utility.yul\":11750:11791   */\n      gt\n        /* \"#utility.yul\":11747:11875   */\n      iszero\n      tag_730\n      jumpi\n        /* \"#utility.yul\":11794:11873   */\n      tag_731\n      tag_563\n      jump\t// in\n    tag_731:\n        /* \"#utility.yul\":11747:11875   */\n    tag_730:\n        /* \"#utility.yul\":11313:11881   */\n      swap3\n      pop\n      swap3\n      swap1\n      pop\n      jump\t// out\n        /* \"#utility.yul\":11887:12730   */\n    tag_95:\n        /* \"#utility.yul\":11988:11994   */\n      0x00\n        /* \"#utility.yul\":11996:12002   */\n      dup1\n        /* \"#utility.yul\":12004:12010   */\n      0x00\n        /* \"#utility.yul\":12012:12018   */\n      dup1\n        /* \"#utility.yul\":12061:12063   */\n      0x60\n        /* \"#utility.yul\":12049:12058   */\n      dup6\n        /* \"#utility.yul\":12040:12047   */\n      dup8\n        /* \"#utility.yul\":12036:12059   */\n      sub\n        /* \"#utility.yul\":12032:12064   */\n      slt\n        /* \"#utility.yul\":12029:12148   */\n      iszero\n      tag_733\n      jumpi\n        /* \"#utility.yul\":12067:12146   */\n      tag_734\n      tag_555\n      jump\t// in\n    tag_734:\n        /* \"#utility.yul\":12029:12148   */\n    tag_733:\n        /* \"#utility.yul\":12187:12188   */\n      0x00\n        /* \"#utility.yul\":12212:12265   */\n      tag_735\n        /* \"#utility.yul\":12257:12264   */\n      dup8\n        /* \"#utility.yul\":12248:12254   */\n      dup3\n        /* \"#utility.yul\":12237:12246   */\n      dup9\n        /* \"#utility.yul\":12233:12255   */\n      add\n        /* \"#utility.yul\":12212:12265   */\n      tag_560\n      jump\t// in\n    tag_735:\n        /* \"#utility.yul\":12202:12265   */\n      swap5\n      pop\n        /* \"#utility.yul\":12158:12275   */\n      pop\n        /* \"#utility.yul\":12342:12344   */\n      0x20\n        /* \"#utility.yul\":12331:12340   */\n      dup6\n        /* \"#utility.yul\":12327:12345   */\n      add\n        /* \"#utility.yul\":12314:12346   */\n      calldataload\n        /* \"#utility.yul\":12373:12391   */\n      0xffffffffffffffff\n        /* \"#utility.yul\":12365:12371   */\n      dup2\n        /* \"#utility.yul\":12362:12392   */\n      gt\n        /* \"#utility.yul\":12359:12476   */\n      iszero\n      tag_736\n      jumpi\n        /* \"#utility.yul\":12395:12474   */\n      tag_737\n      tag_556\n      jump\t// in\n    tag_737:\n        /* \"#utility.yul\":12359:12476   */\n    tag_736:\n        /* \"#utility.yul\":12508:12588   */\n      tag_738\n        /* \"#utility.yul\":12580:12587   */\n      dup8\n        /* \"#utility.yul\":12571:12577   */\n      dup3\n        /* \"#utility.yul\":12560:12569   */\n      dup9\n        /* \"#utility.yul\":12556:12578   */\n      add\n        /* \"#utility.yul\":12508:12588   */\n      tag_590\n      jump\t// in\n    tag_738:\n        /* \"#utility.yul\":12490:12588   */\n      swap4\n      pop\n      swap4\n      pop\n        /* \"#utility.yul\":12285:12598   */\n      pop\n        /* \"#utility.yul\":12637:12639   */\n      0x40\n        /* \"#utility.yul\":12663:12713   */\n      tag_739\n        /* \"#utility.yul\":12705:12712   */\n      dup8\n        /* \"#utility.yul\":12696:12702   */\n      dup3\n        /* \"#utility.yul\":12685:12694   */\n      dup9\n        /* \"#utility.yul\":12681:12703   */\n      add\n        /* \"#utility.yul\":12663:12713   */\n      tag_567\n      jump\t// in\n    tag_739:\n        /* \"#utility.yul\":12653:12713   */\n      swap2\n      pop\n        /* \"#utility.yul\":12608:12723   */\n      pop\n        /* \"#utility.yul\":11887:12730   */\n      swap3\n      swap6\n      swap2\n      swap5\n      pop\n      swap3\n      pop\n      jump\t// out\n        /* \"#utility.yul\":12736:13349   */\n    tag_99:\n        /* \"#utility.yul\":12810:12816   */\n      0x00\n        /* \"#utility.yul\":12818:12824   */\n      dup1\n        /* \"#utility.yul\":12826:12832   */\n      0x00\n        /* \"#utility.yul\":12875:12877   */\n      0x60\n        /* \"#utility.yul\":12863:12872   */\n      dup5\n        /* \"#utility.yul\":12854:12861   */\n      dup7\n        /* \"#utility.yul\":12850:12873   */\n      sub\n        /* \"#utility.yul\":12846:12878   */\n      slt\n        /* \"#utility.yul\":12843:12962   */\n      iszero\n      tag_741\n      jumpi\n        /* \"#utility.yul\":12881:12960   */\n      tag_742\n      tag_555\n      jump\t// in\n    tag_742:\n        /* \"#utility.yul\":12843:12962   */\n    tag_741:\n        /* \"#utility.yul\":13001:13002   */\n      0x00\n        /* \"#utility.yul\":13026:13079   */\n      tag_743\n        /* \"#utility.yul\":13071:13078   */\n      dup7\n        /* \"#utility.yul\":13062:13068   */\n      dup3\n        /* \"#utility.yul\":13051:13060   */\n      dup8\n        /* \"#utility.yul\":13047:13069   */\n      add\n        /* \"#utility.yul\":13026:13079   */\n      tag_560\n      jump\t// in\n    tag_743:\n        /* \"#utility.yul\":13016:13079   */\n      swap4\n      pop\n        /* \"#utility.yul\":12972:13089   */\n      pop\n        /* \"#utility.yul\":13128:13130   */\n      0x20\n        /* \"#utility.yul\":13154:13207   */\n      tag_744\n        /* \"#utility.yul\":13199:13206   */\n      dup7\n        /* \"#utility.yul\":13190:13196   */\n      dup3\n        /* \"#utility.yul\":13179:13188   */\n      dup8\n        /* \"#utility.yul\":13175:13197   */\n      add\n        /* \"#utility.yul\":13154:13207   */\n      tag_560\n      jump\t// in\n    tag_744:\n        /* \"#utility.yul\":13144:13207   */\n      swap3\n      pop\n        /* \"#utility.yul\":13099:13217   */\n      pop\n        /* \"#utility.yul\":13256:13258   */\n      0x40\n        /* \"#utility.yul\":13282:13332   */\n      tag_745\n        /* \"#utility.yul\":13324:13331   */\n      dup7\n        /* \"#utility.yul\":13315:13321   */\n      dup3\n        /* \"#utility.yul\":13304:13313   */\n      dup8\n        /* \"#utility.yul\":13300:13322   */\n      add\n        /* \"#utility.yul\":13282:13332   */\n      tag_567\n      jump\t// in\n    tag_745:\n        /* \"#utility.yul\":13272:13332   */\n      swap2\n      pop\n        /* \"#utility.yul\":13227:13342   */\n      pop\n        /* \"#utility.yul\":12736:13349   */\n      swap3\n      pop\n      swap3\n      pop\n      swap3\n      jump\t// out\n        /* \"#utility.yul\":13355:13473   */\n    tag_591:\n        /* \"#utility.yul\":13442:13466   */\n      tag_747\n        /* \"#utility.yul\":13460:13465   */\n      dup2\n        /* \"#utility.yul\":13442:13466   */\n      tag_571\n      jump\t// in\n    tag_747:\n        /* \"#utility.yul\":13437:13440   */\n      dup3\n        /* \"#utility.yul\":13430:13467   */\n      mstore\n        /* \"#utility.yul\":13355:13473   */\n      pop\n      pop\n      jump\t// out\n        /* \"#utility.yul\":13479:13701   */\n    tag_105:\n        /* \"#utility.yul\":13572:13576   */\n      0x00\n        /* \"#utility.yul\":13610:13612   */\n      0x20\n        /* \"#utility.yul\":13599:13608   */\n      dup3\n        /* \"#utility.yul\":13595:13613   */\n      add\n        /* \"#utility.yul\":13587:13613   */\n      swap1\n      pop\n        /* \"#utility.yul\":13623:13694   */\n      tag_749\n        /* \"#utility.yul\":13691:13692   */\n      0x00\n        /* \"#utility.yul\":13680:13689   */\n      dup4\n        /* \"#utility.yul\":13676:13693   */\n      add\n        /* \"#utility.yul\":13667:13673   */\n      dup5\n        /* \"#utility.yul\":13623:13694   */\n      tag_591\n      jump\t// in\n    tag_749:\n        /* \"#utility.yul\":13479:13701   */\n      swap3\n      swap2\n      pop\n      pop\n      jump\t// out\n        /* \"#utility.yul\":13707:13850   */\n    tag_592:\n        /* \"#utility.yul\":13764:13769   */\n      0x00\n        /* \"#utility.yul\":13795:13801   */\n      dup2\n        /* \"#utility.yul\":13789:13802   */\n      mload\n        /* \"#utility.yul\":13780:13802   */\n      swap1\n      pop\n        /* \"#utility.yul\":13811:13844   */\n      tag_751\n        /* \"#utility.yul\":13838:13843   */\n      dup2\n        /* \"#utility.yul\":13811:13844   */\n      tag_559\n      jump\t// in\n    tag_751:\n        /* \"#utility.yul\":13707:13850   */\n      swap3\n      swap2\n      pop\n      pop\n      jump\t// out\n        /* \"#utility.yul\":13856:14207   */\n    tag_133:\n        /* \"#utility.yul\":13926:13932   */\n      0x00\n        /* \"#utility.yul\":13975:13977   */\n      0x20\n        /* \"#utility.yul\":13963:13972   */\n      dup3\n        /* \"#utility.yul\":13954:13961   */\n      dup5\n        /* \"#utility.yul\":13950:13973   */\n      sub\n        /* \"#utility.yul\":13946:13978   */\n      slt\n        /* \"#utility.yul\":13943:14062   */\n      iszero\n      tag_753\n      jumpi\n        /* \"#utility.yul\":13981:14060   */\n      tag_754\n      tag_555\n      jump\t// in\n    tag_754:\n        /* \"#utility.yul\":13943:14062   */\n    tag_753:\n        /* \"#utility.yul\":14101:14102   */\n      0x00\n        /* \"#utility.yul\":14126:14190   */\n      tag_755\n        /* \"#utility.yul\":14182:14189   */\n      dup5\n        /* \"#utility.yul\":14173:14179   */\n      dup3\n        /* \"#utility.yul\":14162:14171   */\n      dup6\n        /* \"#utility.yul\":14158:14180   */\n      add\n        /* \"#utility.yul\":14126:14190   */\n      tag_592\n      jump\t// in\n    tag_755:\n        /* \"#utility.yul\":14116:14190   */\n      swap2\n      pop\n        /* \"#utility.yul\":14072:14200   */\n      pop\n        /* \"#utility.yul\":13856:14207   */\n      swap3\n      swap2\n      pop\n      pop\n      jump\t// out\n        /* \"#utility.yul\":14213:14393   */\n    tag_155:\n        /* \"#utility.yul\":14261:14338   */\n      0x4e487b7100000000000000000000000000000000000000000000000000000000\n        /* \"#utility.yul\":14258:14259   */\n      0x00\n        /* \"#utility.yul\":14251:14339   */\n      mstore\n        /* \"#utility.yul\":14358:14362   */\n      0x32\n        /* \"#utility.yul\":14355:14356   */\n      0x04\n        /* \"#utility.yul\":14348:14363   */\n      mstore\n        /* \"#utility.yul\":14382:14386   */\n      0x24\n        /* \"#utility.yul\":14379:14380   */\n      0x00\n        /* \"#utility.yul\":14372:14387   */\n      revert\n        /* \"#utility.yul\":14399:14516   */\n    tag_593:\n        /* \"#utility.yul\":14508:14509   */\n      0x00\n        /* \"#utility.yul\":14505:14506   */\n      dup1\n        /* \"#utility.yul\":14498:14510   */\n      revert\n        /* \"#utility.yul\":14522:14676   */\n    tag_594:\n        /* \"#utility.yul\":14606:14612   */\n      dup3\n        /* \"#utility.yul\":14601:14604   */\n      dup2\n        /* \"#utility.yul\":14596:14599   */\n      dup4\n        /* \"#utility.yul\":14583:14613   */\n      calldatacopy\n        /* \"#utility.yul\":14668:14669   */\n      0x00\n        /* \"#utility.yul\":14659:14665   */\n      dup4\n        /* \"#utility.yul\":14654:14657   */\n      dup4\n        /* \"#utility.yul\":14650:14666   */\n      add\n        /* \"#utility.yul\":14643:14670   */\n      mstore\n        /* \"#utility.yul\":14522:14676   */\n      pop\n      pop\n      pop\n      jump\t// out\n        /* \"#utility.yul\":14712:15249   */\n    tag_595:\n        /* \"#utility.yul\":14840:14843   */\n      0x00\n        /* \"#utility.yul\":14861:14947   */\n      tag_760\n        /* \"#utility.yul\":14940:14946   */\n      dup4\n        /* \"#utility.yul\":14935:14938   */\n      dup6\n        /* \"#utility.yul\":14861:14947   */\n      tag_569\n      jump\t// in\n    tag_760:\n        /* \"#utility.yul\":14854:14947   */\n      swap4\n      pop\n        /* \"#utility.yul\":14971:15037   */\n      0x07ffffffffffffffffffffffffffffffffffffffffffffffffffffffffffffff\n        /* \"#utility.yul\":14963:14969   */\n      dup4\n        /* \"#utility.yul\":14960:15038   */\n      gt\n        /* \"#utility.yul\":14957:15122   */\n      iszero\n      tag_761\n      jumpi\n        /* \"#utility.yul\":15041:15120   */\n      tag_762\n      tag_593\n      jump\t// in\n    tag_762:\n        /* \"#utility.yul\":14957:15122   */\n    tag_761:\n        /* \"#utility.yul\":15153:15157   */\n      0x20\n        /* \"#utility.yul\":15145:15151   */\n      dup4\n        /* \"#utility.yul\":15141:15158   */\n      mul\n        /* \"#utility.yul\":15131:15158   */\n      swap3\n      pop\n        /* \"#utility.yul\":15168:15211   */\n      tag_763\n        /* \"#utility.yul\":15204:15210   */\n      dup4\n        /* \"#utility.yul\":15199:15202   */\n      dup6\n        /* \"#utility.yul\":15192:15197   */\n      dup5\n        /* \"#utility.yul\":15168:15211   */\n      tag_594\n      jump\t// in\n    tag_763:\n        /* \"#utility.yul\":15236:15242   */\n      dup3\n        /* \"#utility.yul\":15231:15234   */\n      dup5\n        /* \"#utility.yul\":15227:15243   */\n      add\n        /* \"#utility.yul\":15220:15243   */\n      swap1\n      pop\n        /* \"#utility.yul\":14712:15249   */\n      swap4\n      swap3\n      pop\n      pop\n      pop\n      jump\t// out\n        /* \"#utility.yul\":15255:15648   */\n    tag_172:\n        /* \"#utility.yul\":15408:15412   */\n      0x00\n        /* \"#utility.yul\":15446:15448   */\n      0x20\n        /* \"#utility.yul\":15435:15444   */\n      dup3\n        /* \"#utility.yul\":15431:15449   */\n      add\n        /* \"#utility.yul\":15423:15449   */\n      swap1\n      pop\n        /* \"#utility.yul\":15495:15504   */\n      dup2\n        /* \"#utility.yul\":15489:15493   */\n      dup2\n        /* \"#utility.yul\":15485:15505   */\n      sub\n        /* \"#utility.yul\":15481:15482   */\n      0x00\n        /* \"#utility.yul\":15470:15479   */\n      dup4\n        /* \"#utility.yul\":15466:15483   */\n      add\n        /* \"#utility.yul\":15459:15506   */\n      mstore\n        /* \"#utility.yul\":15523:15641   */\n      tag_765\n        /* \"#utility.yul\":15636:15640   */\n      dup2\n        /* \"#utility.yul\":15627:15633   */\n      dup5\n        /* \"#utility.yul\":15619:15625   */\n      dup7\n        /* \"#utility.yul\":15523:15641   */\n      tag_595\n      jump\t// in\n    tag_765:\n        /* \"#utility.yul\":15515:15641   */\n      swap1\n      pop\n        /* \"#utility.yul\":15255:15648   */\n      swap4\n      swap3\n      pop\n      pop\n      pop\n      jump\t// out\n        /* \"#utility.yul\":15654:15756   */\n    tag_596:\n        /* \"#utility.yul\":15723:15727   */\n      0x00\n        /* \"#utility.yul\":15746:15749   */\n      dup2\n        /* \"#utility.yul\":15738:15749   */\n      swap1\n      pop\n        /* \"#utility.yul\":15654:15756   */\n      swap2\n      swap1\n      pop\n      jump\t// out\n        /* \"#utility.yul\":15762:15884   */\n    tag_597:\n        /* \"#utility.yul\":15814:15819   */\n      0x00\n        /* \"#utility.yul\":15839:15878   */\n      tag_768\n        /* \"#utility.yul\":15874:15876   */\n      0x20\n        /* \"#utility.yul\":15869:15872   */\n      dup5\n        /* \"#utility.yul\":15865:15877   */\n      add\n        /* \"#utility.yul\":15860:15863   */\n      dup5\n        /* \"#utility.yul\":15839:15878   */\n      tag_560\n      jump\t// in\n    tag_768:\n        /* \"#utility.yul\":15830:15878   */\n      swap1\n      pop\n        /* \"#utility.yul\":15762:15884   */\n      swap3\n      swap2\n      pop\n      pop\n      jump\t// out\n        /* \"#utility.yul\":15890:16005   */\n    tag_598:\n        /* \"#utility.yul\":15962:15966   */\n      0x00\n        /* \"#utility.yul\":15994:15998   */\n      0x20\n        /* \"#utility.yul\":15989:15992   */\n      dup3\n        /* \"#utility.yul\":15985:15999   */\n      add\n        /* \"#utility.yul\":15977:15999   */\n      swap1\n      pop\n        /* \"#utility.yul\":15890:16005   */\n      swap2\n      swap1\n      pop\n      jump\t// out\n        /* \"#utility.yul\":16041:16740   */\n    tag_599:\n        /* \"#utility.yul\":16170:16173   */\n      0x00\n        /* \"#utility.yul\":16193:16279   */\n      tag_771\n        /* \"#utility.yul\":16272:16278   */\n      dup4\n        /* \"#utility.yul\":16267:16270   */\n      dup6\n        /* \"#utility.yul\":16193:16279   */\n      tag_581\n      jump\t// in\n    tag_771:\n        /* \"#utility.yul\":16186:16279   */\n      swap4\n      pop\n        /* \"#utility.yul\":16303:16361   */\n      tag_772\n        /* \"#utility.yul\":16355:16360   */\n      dup3\n        /* \"#utility.yul\":16303:16361   */\n      tag_596\n      jump\t// in\n    tag_772:\n        /* \"#utility.yul\":16384:16391   */\n      dup1\n        /* \"#utility.yul\":16415:16416   */\n      0x00\n        /* \"#utility.yul\":16400:16715   */\n    tag_773:\n        /* \"#utility.yul\":16425:16431   */\n      dup6\n        /* \"#utility.yul\":16422:16423   */\n      dup2\n        /* \"#utility.yul\":16419:16432   */\n      lt\n        /* \"#utility.yul\":16400:16715   */\n      iszero\n      tag_775\n      jumpi\n        /* \"#utility.yul\":16495:16537   */\n      tag_776\n        /* \"#utility.yul\":16530:16536   */\n      dup3\n        /* \"#utility.yul\":16521:16528   */\n      dup5\n        /* \"#utility.yul\":16495:16537   */\n      tag_597\n      jump\t// in\n    tag_776:\n        /* \"#utility.yul\":16557:16620   */\n      tag_777\n        /* \"#utility.yul\":16616:16619   */\n      dup9\n        /* \"#utility.yul\":16601:16614   */\n      dup3\n        /* \"#utility.yul\":16557:16620   */\n      tag_584\n      jump\t// in\n    tag_777:\n        /* \"#utility.yul\":16550:16620   */\n      swap8\n      pop\n        /* \"#utility.yul\":16643:16705   */\n      tag_778\n        /* \"#utility.yul\":16698:16704   */\n      dup4\n        /* \"#utility.yul\":16643:16705   */\n      tag_598\n      jump\t// in\n    tag_778:\n        /* \"#utility.yul\":16633:16705   */\n      swap3\n      pop\n        /* \"#utility.yul\":16460:16715   */\n      pop\n        /* \"#utility.yul\":16447:16448   */\n      0x01\n        /* \"#utility.yul\":16444:16445   */\n      dup2\n        /* \"#utility.yul\":16440:16449   */\n      add\n        /* \"#utility.yul\":16435:16449   */\n      swap1\n      pop\n        /* \"#utility.yul\":16400:16715   */\n      jump(tag_773)\n    tag_775:\n        /* \"#utility.yul\":16404:16418   */\n      pop\n        /* \"#utility.yul\":16731:16734   */\n      dup6\n        /* \"#utility.yul\":16724:16734   */\n      swap3\n      pop\n        /* \"#utility.yul\":16175:16740   */\n      pop\n      pop\n        /* \"#utility.yul\":16041:16740   */\n      swap4\n      swap3\n      pop\n      pop\n      pop\n      jump\t// out\n        /* \"#utility.yul\":16746:17139   */\n    tag_394:\n        /* \"#utility.yul\":16899:16903   */\n      0x00\n        /* \"#utility.yul\":16937:16939   */\n      0x20\n        /* \"#utility.yul\":16926:16935   */\n      dup3\n        /* \"#utility.yul\":16922:16940   */\n      add\n        /* \"#utility.yul\":16914:16940   */\n      swap1\n      pop\n        /* \"#utility.yul\":16986:16995   */\n      dup2\n        /* \"#utility.yul\":16980:16984   */\n      dup2\n        /* \"#utility.yul\":16976:16996   */\n      sub\n        /* \"#utility.yul\":16972:16973   */\n      0x00\n        /* \"#utility.yul\":16961:16970   */\n      dup4\n        /* \"#utility.yul\":16957:16974   */\n      add\n        /* \"#utility.yul\":16950:16997   */\n      mstore\n        /* \"#utility.yul\":17014:17132   */\n      tag_780\n        /* \"#utility.yul\":17127:17131   */\n      dup2\n        /* \"#utility.yul\":17118:17124   */\n      dup5\n        /* \"#utility.yul\":17110:17116   */\n      dup7\n        /* \"#utility.yul\":17014:17132   */\n      tag_599\n      jump\t// in\n    tag_780:\n        /* \"#utility.yul\":17006:17132   */\n      swap1\n      pop\n        /* \"#utility.yul\":16746:17139   */\n      swap4\n      swap3\n      pop\n      pop\n      pop\n      jump\t// out\n        /* \"#utility.yul\":17145:17477   */\n    tag_471:\n        /* \"#utility.yul\":17266:17270   */\n      0x00\n        /* \"#utility.yul\":17304:17306   */\n      0x40\n        /* \"#utility.yul\":17293:17302   */\n      dup3\n        /* \"#utility.yul\":17289:17307   */\n      add\n        /* \"#utility.yul\":17281:17307   */\n      swap1\n      pop\n        /* \"#utility.yul\":17317:17388   */\n      tag_782\n        /* \"#utility.yul\":17385:17386   */\n      0x00\n        /* \"#utility.yul\":17374:17383   */\n      dup4\n        /* \"#utility.yul\":17370:17387   */\n      add\n        /* \"#utility.yul\":17361:17367   */\n      dup6\n        /* \"#utility.yul\":17317:17388   */\n      tag_576\n      jump\t// in\n    tag_782:\n        /* \"#utility.yul\":17398:17470   */\n      tag_783\n        /* \"#utility.yul\":17466:17468   */\n      0x20\n        /* \"#utility.yul\":17455:17464   */\n      dup4\n        /* \"#utility.yul\":17451:17469   */\n      add\n        /* \"#utility.yul\":17442:17448   */\n      dup5\n        /* \"#utility.yul\":17398:17470   */\n      tag_591\n      jump\t// in\n    tag_783:\n        /* \"#utility.yul\":17145:17477   */\n      swap4\n      swap3\n      pop\n      pop\n      pop\n      jump\t// out\n        /* \"#utility.yul\":17483:17663   */\n    tag_600:\n        /* \"#utility.yul\":17531:17608   */\n      0x4e487b7100000000000000000000000000000000000000000000000000000000\n        /* \"#utility.yul\":17528:17529   */\n      0x00\n        /* \"#utility.yul\":17521:17609   */\n      mstore\n        /* \"#utility.yul\":17628:17632   */\n      0x11\n        /* \"#utility.yul\":17625:17626   */\n      0x04\n        /* \"#utility.yul\":17618:17633   */\n      mstore\n        /* \"#utility.yul\":17652:17656   */\n      0x24\n        /* \"#utility.yul\":17649:17650   */\n      0x00\n        /* \"#utility.yul\":17642:17657   */\n      revert\n        /* \"#utility.yul\":17669:17860   */\n    tag_521:\n        /* \"#utility.yul\":17709:17713   */\n      0x00\n        /* \"#utility.yul\":17729:17749   */\n      tag_786\n        /* \"#utility.yul\":17747:17748   */\n      dup3\n        /* \"#utility.yul\":17729:17749   */\n      tag_577\n      jump\t// in\n    tag_786:\n        /* \"#utility.yul\":17724:17749   */\n      swap2\n      pop\n        /* \"#utility.yul\":17763:17783   */\n      tag_787\n        /* \"#utility.yul\":17781:17782   */\n      dup4\n        /* \"#utility.yul\":17763:17783   */\n      tag_577\n      jump\t// in\n    tag_787:\n        /* \"#utility.yul\":17758:17783   */\n      swap3\n      pop\n        /* \"#utility.yul\":17802:17803   */\n      dup3\n        /* \"#utility.yul\":17799:17800   */\n      dup3\n        /* \"#utility.yul\":17796:17804   */\n      lt\n        /* \"#utility.yul\":17793:17827   */\n      iszero\n      tag_788\n      jumpi\n        /* \"#utility.yul\":17807:17825   */\n      tag_789\n      tag_600\n      jump\t// in\n    tag_789:\n        /* \"#utility.yul\":17793:17827   */\n    tag_788:\n        /* \"#utility.yul\":17852:17853   */\n      dup3\n        /* \"#utility.yul\":17849:17850   */\n      dup3\n        /* \"#utility.yul\":17845:17854   */\n      sub\n        /* \"#utility.yul\":17837:17854   */\n      swap1\n      pop\n        /* \"#utility.yul\":17669:17860   */\n      swap3\n      swap2\n      pop\n      pop\n      jump\t// out\n        /* \"#utility.yul\":17866:18046   */\n    tag_532:\n        /* \"#utility.yul\":17914:17991   */\n      0x4e487b7100000000000000000000000000000000000000000000000000000000\n        /* \"#utility.yul\":17911:17912   */\n      0x00\n        /* \"#utility.yul\":17904:17992   */\n      mstore\n        /* \"#utility.yul\":18011:18015   */\n      0x31\n        /* \"#utility.yul\":18008:18009   */\n      0x04\n        /* \"#utility.yul\":18001:18016   */\n      mstore\n        /* \"#utility.yul\":18035:18039   */\n      0x24\n        /* \"#utility.yul\":18032:18033   */\n      0x00\n        /* \"#utility.yul\":18025:18040   */\n      revert\n\n    auxdata: 0xa264697066735822122039117d9a8a120440646b2d90d7c7d1c422e4c5af06c81c7da63040d14fa96b8864736f6c634300080d0033\n}\n",
				"bytecode": {
					"linkReferences": {},
					"object": "608060405234801561001057600080fd5b506153f0806100206000396000f3fe608060405234801561001057600080fd5b50600436106101585760003560e01c8063712fc00b116100c3578063b314d4141161007c578063b314d414146103f5578063bbd652c714610411578063c3c5a54714610441578063c430880514610471578063c6171134146104a1578063e4aecb54146104d157610158565b8063712fc00b146103395780637d3e3dbe14610355578063a0af290314610371578063a14584c11461038d578063a2f367ab146103a9578063a6529eb5146103c557610158565b80633f1cc5fa116101155780633f1cc5fa1461022d5780634420e4861461025d57806355940e51146102795780635745ae28146102a95780635eae3173146102d95780636af0c3151461030957610158565b8063063298b61461015d5780631e06b4b41461017957806322fa2762146101955780632ec2c246146101c557806334a0dc10146101e15780633c5030bb146101fd575b600080fd5b61017760048036038101906101729190614b90565b610501565b005b610193600480360381019061018e9190614c04565b6109ee565b005b6101af60048036038101906101aa9190614c44565b610dfa565b6040516101bc9190614d39565b60405180910390f35b6101df60048036038101906101da9190614c44565b610f32565b005b6101fb60048036038101906101f69190614d5b565b611331565b005b61021760048036038101906102129190614c44565b61172b565b6040516102249190614daa565b60405180910390f35b61024760048036038101906102429190614dfb565b61183d565b6040516102549190614daa565b60405180910390f35b61027760048036038101906102729190614c44565b611987565b005b610293600480360381019061028e9190614dfb565b611c91565b6040516102a09190614daa565b60405180910390f35b6102c360048036038101906102be9190614c44565b611cec565b6040516102d09190614ef9565b60405180910390f35b6102f360048036038101906102ee9190614c04565b611d3c565b6040516103009190614f2a565b60405180910390f35b610323600480360381019061031e9190614f71565b611ea6565b6040516103309190614f2a565b60405180910390f35b610353600480360381019061034e9190614fb1565b611ff2565b005b61036f600480360381019061036a9190614c04565b61245d565b005b61038b60048036038101906103869190614c04565b6129c8565b005b6103a760048036038101906103a2919061505a565b612e1e565b005b6103c360048036038101906103be91906150ce565b6132cd565b005b6103df60048036038101906103da9190614dfb565b6136f4565b6040516103ec9190615130565b60405180910390f35b61040f600480360381019061040a9190614c04565b613840565b005b61042b60048036038101906104269190614c44565b613f28565b6040516104389190615130565b60405180910390f35b61045b60048036038101906104569190614c44565b613f49565b6040516104689190614f2a565b60405180910390f35b61048b60048036038101906104869190614c44565b613fe1565b6040516104989190614ef9565b60405180910390f35b6104bb60048036038101906104b69190614c04565b614117565b6040516104c89190614f2a565b60405180910390f35b6104eb60048036038101906104e69190614c04565b61432c565b6040516104f89190614f2a565b60405180910390f35b838073ffffffffffffffffffffffffffffffffffffffff163373ffffffffffffffffffffffffffffffffffffffff161461067d578073ffffffffffffffffffffffffffffffffffffffff16638da5cb5b6040518163ffffffff1660e01b8152600401602060405180830381865afa92505050801561059d57506040513d601f19601f8201168201806040525081019061059a9190615160565b60015b610616573d80600081146105cd576040519150601f19603f3d011682016040523d82523d6000602084013e6105d2565b606091505b50600081510361060e576040517fb2c1414000000000000000000000000000000000000000000000000000000000815260040160405180910390fd5b805181602001fd5b8073ffffffffffffffffffffffffffffffffffffffff163373ffffffffffffffffffffffffffffffffffffffff161461067b576040517ffcf5eff800000000000000000000000000000000000000000000000000000000815260040160405180910390fd5b505b6000600260008773ffffffffffffffffffffffffffffffffffffffff1673ffffffffffffffffffffffffffffffffffffffff16815260200190815260200160002060009054906101000a900473ffffffffffffffffffffffffffffffffffffffff169050600073ffffffffffffffffffffffffffffffffffffffff168173ffffffffffffffffffffffffffffffffffffffff160361075257856040517fbfc6c3370000000000000000000000000000000000000000000000000000000081526004016107499190614daa565b60405180910390fd5b8573ffffffffffffffffffffffffffffffffffffffff168173ffffffffffffffffffffffffffffffffffffffff16146107c257806040517f04af4d690000000000000000000000000000000000000000000000000000000081526004016107b99190614daa565b60405180910390fd5b6000600160008873ffffffffffffffffffffffffffffffffffffffff1673ffffffffffffffffffffffffffffffffffffffff16815260200190815260200160002090506000868690509050846108a75760005b818110156108a15760008888838181106108325761083161518d565b5b9050602002013590506000610850828661447690919063ffffffff16565b90508061089457816040517f478730a800000000000000000000000000000000000000000000000000000000815260040161088b9190615130565b60405180910390fd5b8260010192505050610815565b50610991565b60005b8181101561098f5760008888838181106108c7576108c661518d565b5b9050602002013590507fc5d2460186f7233c927e7db2dcc703c0e500b653ca82273b7bfad8045d85a4708103610929576040517ff575ead800000000000000000000000000000000000000000000000000000000815260040160405180910390fd5b600061093e828661448d90919063ffffffff16565b90508061098257816040517f186bea000000000000000000000000000000000000000000000000000000000081526004016109799190615130565b60405180910390fd5b82600101925050506108aa565b505b8415158873ffffffffffffffffffffffffffffffffffffffff167f34e9f70c5a16a4df2a396cf0cbc4735eb3c7fb6ae40aaa0b34be7720121d1b9689896040516109dc92919061522c565b60405180910390a35050505050505050565b818073ffffffffffffffffffffffffffffffffffffffff163373ffffffffffffffffffffffffffffffffffffffff1614610b6a578073ffffffffffffffffffffffffffffffffffffffff16638da5cb5b6040518163ffffffff1660e01b8152600401602060405180830381865afa925050508015610a8a57506040513d601f19601f82011682018060405250810190610a879190615160565b60015b610b03573d8060008114610aba576040519150601f19603f3d011682016040523d82523d6000602084013e610abf565b606091505b506000815103610afb576040517fb2c1414000000000000000000000000000000000000000000000000000000000815260040160405180910390fd5b805181602001fd5b8073ffffffffffffffffffffffffffffffffffffffff163373ffffffffffffffffffffffffffffffffffffffff1614610b68576040517ffcf5eff800000000000000000000000000000000000000000000000000000000815260040160405180910390fd5b505b8173ffffffffffffffffffffffffffffffffffffffff168373ffffffffffffffffffffffffffffffffffffffff1603610bcf576040517f1acab6b800000000000000000000000000000000000000000000000000000000815260040160405180910390fd5b6000600260008573ffffffffffffffffffffffffffffffffffffffff1673ffffffffffffffffffffffffffffffffffffffff16815260200190815260200160002060009054906101000a900473ffffffffffffffffffffffffffffffffffffffff169050600073ffffffffffffffffffffffffffffffffffffffff168173ffffffffffffffffffffffffffffffffffffffff1603610ca457836040517fbfc6c337000000000000000000000000000000000000000000000000000000008152600401610c9b9190614daa565b60405180910390fd5b8373ffffffffffffffffffffffffffffffffffffffff168173ffffffffffffffffffffffffffffffffffffffff1614610d1457806040517f04af4d69000000000000000000000000000000000000000000000000000000008152600401610d0b9190614daa565b60405180910390fd5b6000600260008573ffffffffffffffffffffffffffffffffffffffff1673ffffffffffffffffffffffffffffffffffffffff16815260200190815260200160002060009054906101000a900473ffffffffffffffffffffffffffffffffffffffff169050600073ffffffffffffffffffffffffffffffffffffffff168173ffffffffffffffffffffffffffffffffffffffff1603610de957836040517fbfc6c337000000000000000000000000000000000000000000000000000000008152600401610de09190614daa565b60405180910390fd5b610df385856144a4565b5050505050565b60606000600260008473ffffffffffffffffffffffffffffffffffffffff1673ffffffffffffffffffffffffffffffffffffffff16815260200190815260200160002060009054906101000a900473ffffffffffffffffffffffffffffffffffffffff1690508273ffffffffffffffffffffffffffffffffffffffff168173ffffffffffffffffffffffffffffffffffffffff1614610ee257610eda600160008373ffffffffffffffffffffffffffffffffffffffff1673ffffffffffffffffffffffffffffffffffffffff168152602001908152602001600020614708565b915050610f2d565b610f29600160008573ffffffffffffffffffffffffffffffffffffffff1673ffffffffffffffffffffffffffffffffffffffff168152602001908152602001600020614708565b9150505b919050565b808073ffffffffffffffffffffffffffffffffffffffff163373ffffffffffffffffffffffffffffffffffffffff16146110ae578073ffffffffffffffffffffffffffffffffffffffff16638da5cb5b6040518163ffffffff1660e01b8152600401602060405180830381865afa925050508015610fce57506040513d601f19601f82011682018060405250810190610fcb9190615160565b60015b611047573d8060008114610ffe576040519150601f19603f3d011682016040523d82523d6000602084013e611003565b606091505b50600081510361103f576040517fb2c1414000000000000000000000000000000000000000000000000000000000815260040160405180910390fd5b805181602001fd5b8073ffffffffffffffffffffffffffffffffffffffff163373ffffffffffffffffffffffffffffffffffffffff16146110ac576040517ffcf5eff800000000000000000000000000000000000000000000000000000000815260040160405180910390fd5b505b6000600260008473ffffffffffffffffffffffffffffffffffffffff1673ffffffffffffffffffffffffffffffffffffffff16815260200190815260200160002060009054906101000a900473ffffffffffffffffffffffffffffffffffffffff169050600073ffffffffffffffffffffffffffffffffffffffff168173ffffffffffffffffffffffffffffffffffffffff160361118357826040517fbfc6c33700000000000000000000000000000000000000000000000000000000815260040161117a9190614daa565b60405180910390fd5b8273ffffffffffffffffffffffffffffffffffffffff168173ffffffffffffffffffffffffffffffffffffffff16146112665761120783600360008473ffffffffffffffffffffffffffffffffffffffff1673ffffffffffffffffffffffffffffffffffffffff16815260200190815260200160002061472990919063ffffffff16565b50600015158173ffffffffffffffffffffffffffffffffffffffff168473ffffffffffffffffffffffffffffffffffffffff167e38c54977604f1a5c0a3604cbbecd0153c81e3131799ead95755e8bb5d5b9e860405160405180910390a45b6000600260008573ffffffffffffffffffffffffffffffffffffffff1673ffffffffffffffffffffffffffffffffffffffff16815260200190815260200160002060006101000a81548173ffffffffffffffffffffffffffffffffffffffff021916908373ffffffffffffffffffffffffffffffffffffffff160217905550600015158373ffffffffffffffffffffffffffffffffffffffff167f86d03f430c7616021073d7a71766f632f1ce19f289aa989534d9f4732253eb5960405160405180910390a3505050565b818073ffffffffffffffffffffffffffffffffffffffff163373ffffffffffffffffffffffffffffffffffffffff16146114ad578073ffffffffffffffffffffffffffffffffffffffff16638da5cb5b6040518163ffffffff1660e01b8152600401602060405180830381865afa9250505080156113cd57506040513d601f19601f820116820180604052508101906113ca9190615160565b60015b611446573d80600081146113fd576040519150601f19603f3d011682016040523d82523d6000602084013e611402565b606091505b50600081510361143e576040517fb2c1414000000000000000000000000000000000000000000000000000000000815260040160405180910390fd5b805181602001fd5b8073ffffffffffffffffffffffffffffffffffffffff163373ffffffffffffffffffffffffffffffffffffffff16146114ab576040517ffcf5eff800000000000000000000000000000000000000000000000000000000815260040160405180910390fd5b505b6000600260008573ffffffffffffffffffffffffffffffffffffffff1673ffffffffffffffffffffffffffffffffffffffff16815260200190815260200160002060009054906101000a900473ffffffffffffffffffffffffffffffffffffffff169050600073ffffffffffffffffffffffffffffffffffffffff168173ffffffffffffffffffffffffffffffffffffffff160361158257836040517fbfc6c3370000000000000000000000000000000000000000000000000000000081526004016115799190614daa565b60405180910390fd5b8373ffffffffffffffffffffffffffffffffffffffff168173ffffffffffffffffffffffffffffffffffffffff16036115e7576040517f237e6c2800000000000000000000000000000000000000000000000000000000815260040160405180910390fd5b61163884600360008473ffffffffffffffffffffffffffffffffffffffff1673ffffffffffffffffffffffffffffffffffffffff16815260200190815260200160002061472990919063ffffffff16565b5083600260008673ffffffffffffffffffffffffffffffffffffffff1673ffffffffffffffffffffffffffffffffffffffff16815260200190815260200160002060006101000a81548173ffffffffffffffffffffffffffffffffffffffff021916908373ffffffffffffffffffffffffffffffffffffffff160217905550600015158173ffffffffffffffffffffffffffffffffffffffff168573ffffffffffffffffffffffffffffffffffffffff167e38c54977604f1a5c0a3604cbbecd0153c81e3131799ead95755e8bb5d5b9e860405160405180910390a482156117255761172484826144a4565b5b50505050565b6000600260008373ffffffffffffffffffffffffffffffffffffffff1673ffffffffffffffffffffffffffffffffffffffff16815260200190815260200160002060009054906101000a900473ffffffffffffffffffffffffffffffffffffffff169050600073ffffffffffffffffffffffffffffffffffffffff168173ffffffffffffffffffffffffffffffffffffffff160361180057816040517fbfc6c3370000000000000000000000000000000000000000000000000000000081526004016117f79190614daa565b60405180910390fd5b8173ffffffffffffffffffffffffffffffffffffffff168173ffffffffffffffffffffffffffffffffffffffff160361183857600090505b919050565b600080600260008573ffffffffffffffffffffffffffffffffffffffff1673ffffffffffffffffffffffffffffffffffffffff16815260200190815260200160002060009054906101000a900473ffffffffffffffffffffffffffffffffffffffff1690508373ffffffffffffffffffffffffffffffffffffffff168173ffffffffffffffffffffffffffffffffffffffff161461192d57611925836000808473ffffffffffffffffffffffffffffffffffffffff1673ffffffffffffffffffffffffffffffffffffffff16815260200190815260200160002061475990919063ffffffff16565b915050611981565b61197d836000808773ffffffffffffffffffffffffffffffffffffffff1673ffffffffffffffffffffffffffffffffffffffff16815260200190815260200160002061475990919063ffffffff16565b9150505b92915050565b808073ffffffffffffffffffffffffffffffffffffffff163373ffffffffffffffffffffffffffffffffffffffff1614611b03578073ffffffffffffffffffffffffffffffffffffffff16638da5cb5b6040518163ffffffff1660e01b8152600401602060405180830381865afa925050508015611a2357506040513d601f19601f82011682018060405250810190611a209190615160565b60015b611a9c573d8060008114611a53576040519150601f19603f3d011682016040523d82523d6000602084013e611a58565b606091505b506000815103611a94576040517fb2c1414000000000000000000000000000000000000000000000000000000000815260040160405180910390fd5b805181602001fd5b8073ffffffffffffffffffffffffffffffffffffffff163373ffffffffffffffffffffffffffffffffffffffff1614611b01576040517ffcf5eff800000000000000000000000000000000000000000000000000000000815260040160405180910390fd5b505b600073ffffffffffffffffffffffffffffffffffffffff16600260008473ffffffffffffffffffffffffffffffffffffffff1673ffffffffffffffffffffffffffffffffffffffff16815260200190815260200160002060009054906101000a900473ffffffffffffffffffffffffffffffffffffffff1673ffffffffffffffffffffffffffffffffffffffff1614611bc8576040517f3a81d6fc00000000000000000000000000000000000000000000000000000000815260040160405180910390fd5b81600260008473ffffffffffffffffffffffffffffffffffffffff1673ffffffffffffffffffffffffffffffffffffffff16815260200190815260200160002060006101000a81548173ffffffffffffffffffffffffffffffffffffffff021916908373ffffffffffffffffffffffffffffffffffffffff160217905550600115158273ffffffffffffffffffffffffffffffffffffffff167f86d03f430c7616021073d7a71766f632f1ce19f289aa989534d9f4732253eb5960405160405180910390a35050565b6000611ce482600360008673ffffffffffffffffffffffffffffffffffffffff1673ffffffffffffffffffffffffffffffffffffffff16815260200190815260200160002061475990919063ffffffff16565b905092915050565b6060611d35600360008473ffffffffffffffffffffffffffffffffffffffff1673ffffffffffffffffffffffffffffffffffffffff168152602001908152602001600020614773565b9050919050565b6000808273ffffffffffffffffffffffffffffffffffffffff163f90506000600260008673ffffffffffffffffffffffffffffffffffffffff1673ffffffffffffffffffffffffffffffffffffffff16815260200190815260200160002060009054906101000a900473ffffffffffffffffffffffffffffffffffffffff1690508473ffffffffffffffffffffffffffffffffffffffff168173ffffffffffffffffffffffffffffffffffffffff1614611e4a57611e4182600160008473ffffffffffffffffffffffffffffffffffffffff1673ffffffffffffffffffffffffffffffffffffffff16815260200190815260200160002061479490919063ffffffff16565b92505050611ea0565b611e9b82600160008873ffffffffffffffffffffffffffffffffffffffff1673ffffffffffffffffffffffffffffffffffffffff16815260200190815260200160002061479490919063ffffffff16565b925050505b92915050565b600080600260008573ffffffffffffffffffffffffffffffffffffffff1673ffffffffffffffffffffffffffffffffffffffff16815260200190815260200160002060009054906101000a900473ffffffffffffffffffffffffffffffffffffffff1690508373ffffffffffffffffffffffffffffffffffffffff168173ffffffffffffffffffffffffffffffffffffffff1614611f9757611f8f83600160008473ffffffffffffffffffffffffffffffffffffffff1673ffffffffffffffffffffffffffffffffffffffff16815260200190815260200160002061479490919063ffffffff16565b915050611fec565b611fe883600160008773ffffffffffffffffffffffffffffffffffffffff1673ffffffffffffffffffffffffffffffffffffffff16815260200190815260200160002061479490919063ffffffff16565b9150505b92915050565b828073ffffffffffffffffffffffffffffffffffffffff163373ffffffffffffffffffffffffffffffffffffffff161461216e578073ffffffffffffffffffffffffffffffffffffffff16638da5cb5b6040518163ffffffff1660e01b8152600401602060405180830381865afa92505050801561208e57506040513d601f19601f8201168201806040525081019061208b9190615160565b60015b612107573d80600081146120be576040519150601f19603f3d011682016040523d82523d6000602084013e6120c3565b606091505b5060008151036120ff576040517fb2c1414000000000000000000000000000000000000000000000000000000000815260040160405180910390fd5b805181602001fd5b8073ffffffffffffffffffffffffffffffffffffffff163373ffffffffffffffffffffffffffffffffffffffff161461216c576040517ffcf5eff800000000000000000000000000000000000000000000000000000000815260040160405180910390fd5b505b7fc5d2460186f7233c927e7db2dcc703c0e500b653ca82273b7bfad8045d85a47083036121c7576040517ff575ead800000000000000000000000000000000000000000000000000000000815260040160405180910390fd5b6000600260008673ffffffffffffffffffffffffffffffffffffffff1673ffffffffffffffffffffffffffffffffffffffff16815260200190815260200160002060009054906101000a900473ffffffffffffffffffffffffffffffffffffffff169050600073ffffffffffffffffffffffffffffffffffffffff168173ffffffffffffffffffffffffffffffffffffffff160361229c57846040517fbfc6c3370000000000000000000000000000000000000000000000000000000081526004016122939190614daa565b60405180910390fd5b8473ffffffffffffffffffffffffffffffffffffffff168173ffffffffffffffffffffffffffffffffffffffff161461230c57806040517f04af4d690000000000000000000000000000000000000000000000000000000081526004016123039190614daa565b60405180910390fd5b6000600160008773ffffffffffffffffffffffffffffffffffffffff1673ffffffffffffffffffffffffffffffffffffffff1681526020019081526020016000209050836123b3576000612369868361447690919063ffffffff16565b9050806123ad57856040517f478730a80000000000000000000000000000000000000000000000000000000081526004016123a49190615130565b60405180910390fd5b5061240e565b60006123c8868361448d90919063ffffffff16565b90508061240c57856040517f186bea000000000000000000000000000000000000000000000000000000000081526004016124039190615130565b60405180910390fd5b505b831515858773ffffffffffffffffffffffffffffffffffffffff167fb8036058bafea884aabc446ca15619fd86f5464a4ad96f64164ad6f77444354d60405160405180910390a4505050505050565b818073ffffffffffffffffffffffffffffffffffffffff163373ffffffffffffffffffffffffffffffffffffffff16146125d9578073ffffffffffffffffffffffffffffffffffffffff16638da5cb5b6040518163ffffffff1660e01b8152600401602060405180830381865afa9250505080156124f957506040513d601f19601f820116820180604052508101906124f69190615160565b60015b612572573d8060008114612529576040519150601f19603f3d011682016040523d82523d6000602084013e61252e565b606091505b50600081510361256a576040517fb2c1414000000000000000000000000000000000000000000000000000000000815260040160405180910390fd5b805181602001fd5b8073ffffffffffffffffffffffffffffffffffffffff163373ffffffffffffffffffffffffffffffffffffffff16146125d7576040517ffcf5eff800000000000000000000000000000000000000000000000000000000815260040160405180910390fd5b505b6000600260008573ffffffffffffffffffffffffffffffffffffffff1673ffffffffffffffffffffffffffffffffffffffff16815260200190815260200160002060009054906101000a900473ffffffffffffffffffffffffffffffffffffffff169050600073ffffffffffffffffffffffffffffffffffffffff168173ffffffffffffffffffffffffffffffffffffffff16146126a3576040517f3a81d6fc00000000000000000000000000000000000000000000000000000000815260040160405180910390fd5b8273ffffffffffffffffffffffffffffffffffffffff168473ffffffffffffffffffffffffffffffffffffffff1603612708576040517f347f118f00000000000000000000000000000000000000000000000000000000815260040160405180910390fd5b6000600260008573ffffffffffffffffffffffffffffffffffffffff1673ffffffffffffffffffffffffffffffffffffffff16815260200190815260200160002060009054906101000a900473ffffffffffffffffffffffffffffffffffffffff169050600073ffffffffffffffffffffffffffffffffffffffff168173ffffffffffffffffffffffffffffffffffffffff16036127dd57836040517fbfc6c3370000000000000000000000000000000000000000000000000000000081526004016127d49190614daa565b60405180910390fd5b8373ffffffffffffffffffffffffffffffffffffffff168173ffffffffffffffffffffffffffffffffffffffff161461284d57836040517f768e549c0000000000000000000000000000000000000000000000000000000081526004016128449190614daa565b60405180910390fd5b83600260008773ffffffffffffffffffffffffffffffffffffffff1673ffffffffffffffffffffffffffffffffffffffff16815260200190815260200160002060006101000a81548173ffffffffffffffffffffffffffffffffffffffff021916908373ffffffffffffffffffffffffffffffffffffffff16021790555061291c85600360008773ffffffffffffffffffffffffffffffffffffffff1673ffffffffffffffffffffffffffffffffffffffff1681526020019081526020016000206147ab90919063ffffffff16565b50600115158573ffffffffffffffffffffffffffffffffffffffff167f86d03f430c7616021073d7a71766f632f1ce19f289aa989534d9f4732253eb5960405160405180910390a3600115158473ffffffffffffffffffffffffffffffffffffffff168673ffffffffffffffffffffffffffffffffffffffff167e38c54977604f1a5c0a3604cbbecd0153c81e3131799ead95755e8bb5d5b9e860405160405180910390a45050505050565b818073ffffffffffffffffffffffffffffffffffffffff163373ffffffffffffffffffffffffffffffffffffffff1614612b44578073ffffffffffffffffffffffffffffffffffffffff16638da5cb5b6040518163ffffffff1660e01b8152600401602060405180830381865afa925050508015612a6457506040513d601f19601f82011682018060405250810190612a619190615160565b60015b612add573d8060008114612a94576040519150601f19603f3d011682016040523d82523d6000602084013e612a99565b606091505b506000815103612ad5576040517fb2c1414000000000000000000000000000000000000000000000000000000000815260040160405180910390fd5b805181602001fd5b8073ffffffffffffffffffffffffffffffffffffffff163373ffffffffffffffffffffffffffffffffffffffff1614612b42576040517ffcf5eff800000000000000000000000000000000000000000000000000000000815260040160405180910390fd5b505b8273ffffffffffffffffffffffffffffffffffffffff168273ffffffffffffffffffffffffffffffffffffffff1603612ba9576040517f1acab6b800000000000000000000000000000000000000000000000000000000815260040160405180910390fd5b6000600260008573ffffffffffffffffffffffffffffffffffffffff1673ffffffffffffffffffffffffffffffffffffffff16815260200190815260200160002060009054906101000a900473ffffffffffffffffffffffffffffffffffffffff169050600073ffffffffffffffffffffffffffffffffffffffff168173ffffffffffffffffffffffffffffffffffffffff1614612c73576040517f3a81d6fc00000000000000000000000000000000000000000000000000000000815260040160405180910390fd5b6000600260008573ffffffffffffffffffffffffffffffffffffffff1673ffffffffffffffffffffffffffffffffffffffff16815260200190815260200160002060009054906101000a900473ffffffffffffffffffffffffffffffffffffffff169050600073ffffffffffffffffffffffffffffffffffffffff168173ffffffffffffffffffffffffffffffffffffffff1603612d4857836040517fbfc6c337000000000000000000000000000000000000000000000000000000008152600401612d3f9190614daa565b60405180910390fd5b84600260008773ffffffffffffffffffffffffffffffffffffffff1673ffffffffffffffffffffffffffffffffffffffff16815260200190815260200160002060006101000a81548173ffffffffffffffffffffffffffffffffffffffff021916908373ffffffffffffffffffffffffffffffffffffffff160217905550600115158573ffffffffffffffffffffffffffffffffffffffff167f86d03f430c7616021073d7a71766f632f1ce19f289aa989534d9f4732253eb5960405160405180910390a3612e1785856144a4565b5050505050565b838073ffffffffffffffffffffffffffffffffffffffff163373ffffffffffffffffffffffffffffffffffffffff1614612f9a578073ffffffffffffffffffffffffffffffffffffffff16638da5cb5b6040518163ffffffff1660e01b8152600401602060405180830381865afa925050508015612eba57506040513d601f19601f82011682018060405250810190612eb79190615160565b60015b612f33573d8060008114612eea576040519150601f19603f3d011682016040523d82523d6000602084013e612eef565b606091505b506000815103612f2b576040517fb2c1414000000000000000000000000000000000000000000000000000000000815260040160405180910390fd5b805181602001fd5b8073ffffffffffffffffffffffffffffffffffffffff163373ffffffffffffffffffffffffffffffffffffffff1614612f98576040517ffcf5eff800000000000000000000000000000000000000000000000000000000815260040160405180910390fd5b505b6000600260008773ffffffffffffffffffffffffffffffffffffffff1673ffffffffffffffffffffffffffffffffffffffff16815260200190815260200160002060009054906101000a900473ffffffffffffffffffffffffffffffffffffffff169050600073ffffffffffffffffffffffffffffffffffffffff168173ffffffffffffffffffffffffffffffffffffffff160361306f57856040517fbfc6c3370000000000000000000000000000000000000000000000000000000081526004016130669190614daa565b60405180910390fd5b8573ffffffffffffffffffffffffffffffffffffffff168173ffffffffffffffffffffffffffffffffffffffff16146130df57806040517f04af4d690000000000000000000000000000000000000000000000000000000081526004016130d69190614daa565b60405180910390fd5b60008060008873ffffffffffffffffffffffffffffffffffffffff1673ffffffffffffffffffffffffffffffffffffffff16815260200190815260200160002090506000868690509050846131d15760005b818110156131cb57600088888381811061314e5761314d61518d565b5b90506020020160208101906131639190614c44565b9050600061317a828661472990919063ffffffff16565b9050806131be57816040517f45525c0e0000000000000000000000000000000000000000000000000000000081526004016131b59190614daa565b60405180910390fd5b8260010192505050613131565b50613270565b60005b8181101561326e5760008888838181106131f1576131f061518d565b5b90506020020160208101906132069190614c44565b9050600061321d82866147ab90919063ffffffff16565b90508061326157816040517f0bb442340000000000000000000000000000000000000000000000000000000081526004016132589190614daa565b60405180910390fd5b82600101925050506131d4565b505b8415158873ffffffffffffffffffffffffffffffffffffffff167f02b85afdacb82d5512c6f05566b3018677ffcbd7e5f75e498bc64081131cbd6c89896040516132bb9291906152db565b60405180910390a35050505050505050565b828073ffffffffffffffffffffffffffffffffffffffff163373ffffffffffffffffffffffffffffffffffffffff1614613449578073ffffffffffffffffffffffffffffffffffffffff16638da5cb5b6040518163ffffffff1660e01b8152600401602060405180830381865afa92505050801561336957506040513d601f19601f820116820180604052508101906133669190615160565b60015b6133e2573d8060008114613399576040519150601f19603f3d011682016040523d82523d6000602084013e61339e565b606091505b5060008151036133da576040517fb2c1414000000000000000000000000000000000000000000000000000000000815260040160405180910390fd5b805181602001fd5b8073ffffffffffffffffffffffffffffffffffffffff163373ffffffffffffffffffffffffffffffffffffffff1614613447576040517ffcf5eff800000000000000000000000000000000000000000000000000000000815260040160405180910390fd5b505b6000600260008673ffffffffffffffffffffffffffffffffffffffff1673ffffffffffffffffffffffffffffffffffffffff16815260200190815260200160002060009054906101000a900473ffffffffffffffffffffffffffffffffffffffff169050600073ffffffffffffffffffffffffffffffffffffffff168173ffffffffffffffffffffffffffffffffffffffff160361351e57846040517fbfc6c3370000000000000000000000000000000000000000000000000000000081526004016135159190614daa565b60405180910390fd5b8473ffffffffffffffffffffffffffffffffffffffff168173ffffffffffffffffffffffffffffffffffffffff161461358e57806040517f04af4d690000000000000000000000000000000000000000000000000000000081526004016135859190614daa565b60405180910390fd5b60008060008773ffffffffffffffffffffffffffffffffffffffff1673ffffffffffffffffffffffffffffffffffffffff1681526020019081526020016000209050836136345760006135ea868361472990919063ffffffff16565b90508061362e57856040517f45525c0e0000000000000000000000000000000000000000000000000000000081526004016136259190614daa565b60405180910390fd5b5061368f565b600061364986836147ab90919063ffffffff16565b90508061368d57856040517f0bb442340000000000000000000000000000000000000000000000000000000081526004016136849190614daa565b60405180910390fd5b505b8315158573ffffffffffffffffffffffffffffffffffffffff168773ffffffffffffffffffffffffffffffffffffffff167f2738289d9deecdc30eb8ffc42876633caecca1ffa166e4efa89f408e17373a1a60405160405180910390a4505050505050565b600080600260008573ffffffffffffffffffffffffffffffffffffffff1673ffffffffffffffffffffffffffffffffffffffff16815260200190815260200160002060009054906101000a900473ffffffffffffffffffffffffffffffffffffffff1690508373ffffffffffffffffffffffffffffffffffffffff168173ffffffffffffffffffffffffffffffffffffffff16146137e5576137dd83600160008473ffffffffffffffffffffffffffffffffffffffff1673ffffffffffffffffffffffffffffffffffffffff1681526020019081526020016000206147db90919063ffffffff16565b91505061383a565b61383683600160008773ffffffffffffffffffffffffffffffffffffffff1673ffffffffffffffffffffffffffffffffffffffff1681526020019081526020016000206147db90919063ffffffff16565b9150505b92915050565b818073ffffffffffffffffffffffffffffffffffffffff163373ffffffffffffffffffffffffffffffffffffffff16146139bc578073ffffffffffffffffffffffffffffffffffffffff16638da5cb5b6040518163ffffffff1660e01b8152600401602060405180830381865afa9250505080156138dc57506040513d601f19601f820116820180604052508101906138d99190615160565b60015b613955573d806000811461390c576040519150601f19603f3d011682016040523d82523d6000602084013e613911565b606091505b50600081510361394d576040517fb2c1414000000000000000000000000000000000000000000000000000000000815260040160405180910390fd5b805181602001fd5b8073ffffffffffffffffffffffffffffffffffffffff163373ffffffffffffffffffffffffffffffffffffffff16146139ba576040517ffcf5eff800000000000000000000000000000000000000000000000000000000815260040160405180910390fd5b505b8173ffffffffffffffffffffffffffffffffffffffff168373ffffffffffffffffffffffffffffffffffffffff1603613a21576040517f347f118f00000000000000000000000000000000000000000000000000000000815260040160405180910390fd5b600073ffffffffffffffffffffffffffffffffffffffff168273ffffffffffffffffffffffffffffffffffffffff1603613a87576040517fb05574d300000000000000000000000000000000000000000000000000000000815260040160405180910390fd5b6000600260008573ffffffffffffffffffffffffffffffffffffffff1673ffffffffffffffffffffffffffffffffffffffff16815260200190815260200160002060009054906101000a900473ffffffffffffffffffffffffffffffffffffffff169050600073ffffffffffffffffffffffffffffffffffffffff168173ffffffffffffffffffffffffffffffffffffffff1603613b5c57836040517fbfc6c337000000000000000000000000000000000000000000000000000000008152600401613b539190614daa565b60405180910390fd5b8273ffffffffffffffffffffffffffffffffffffffff168173ffffffffffffffffffffffffffffffffffffffff1603613bcc57826040517f73a41649000000000000000000000000000000000000000000000000000000008152600401613bc39190614daa565b60405180910390fd5b6000600260008573ffffffffffffffffffffffffffffffffffffffff1673ffffffffffffffffffffffffffffffffffffffff16815260200190815260200160002060009054906101000a900473ffffffffffffffffffffffffffffffffffffffff169050600073ffffffffffffffffffffffffffffffffffffffff168173ffffffffffffffffffffffffffffffffffffffff1603613ca157836040517fbfc6c337000000000000000000000000000000000000000000000000000000008152600401613c989190614daa565b60405180910390fd5b8373ffffffffffffffffffffffffffffffffffffffff168173ffffffffffffffffffffffffffffffffffffffff1614613d1157836040517f768e549c000000000000000000000000000000000000000000000000000000008152600401613d089190614daa565b60405180910390fd5b8473ffffffffffffffffffffffffffffffffffffffff168273ffffffffffffffffffffffffffffffffffffffff1614613df457613d9585600360008573ffffffffffffffffffffffffffffffffffffffff1673ffffffffffffffffffffffffffffffffffffffff16815260200190815260200160002061472990919063ffffffff16565b50600015158273ffffffffffffffffffffffffffffffffffffffff168673ffffffffffffffffffffffffffffffffffffffff167e38c54977604f1a5c0a3604cbbecd0153c81e3131799ead95755e8bb5d5b9e860405160405180910390a45b83600260008773ffffffffffffffffffffffffffffffffffffffff1673ffffffffffffffffffffffffffffffffffffffff16815260200190815260200160002060006101000a81548173ffffffffffffffffffffffffffffffffffffffff021916908373ffffffffffffffffffffffffffffffffffffffff160217905550613ec385600360008773ffffffffffffffffffffffffffffffffffffffff1673ffffffffffffffffffffffffffffffffffffffff1681526020019081526020016000206147ab90919063ffffffff16565b50600115158473ffffffffffffffffffffffffffffffffffffffff168673ffffffffffffffffffffffffffffffffffffffff167e38c54977604f1a5c0a3604cbbecd0153c81e3131799ead95755e8bb5d5b9e860405160405180910390a45050505050565b60008173ffffffffffffffffffffffffffffffffffffffff163f9050919050565b60008073ffffffffffffffffffffffffffffffffffffffff16600260008473ffffffffffffffffffffffffffffffffffffffff1673ffffffffffffffffffffffffffffffffffffffff16815260200190815260200160002060009054906101000a900473ffffffffffffffffffffffffffffffffffffffff1673ffffffffffffffffffffffffffffffffffffffff1614159050919050565b60606000600260008473ffffffffffffffffffffffffffffffffffffffff1673ffffffffffffffffffffffffffffffffffffffff16815260200190815260200160002060009054906101000a900473ffffffffffffffffffffffffffffffffffffffff1690508273ffffffffffffffffffffffffffffffffffffffff168173ffffffffffffffffffffffffffffffffffffffff16146140c8576140c06000808373ffffffffffffffffffffffffffffffffffffffff1673ffffffffffffffffffffffffffffffffffffffff168152602001908152602001600020614773565b915050614112565b61410e6000808573ffffffffffffffffffffffffffffffffffffffff1673ffffffffffffffffffffffffffffffffffffffff168152602001908152602001600020614773565b9150505b919050565b600080600260008573ffffffffffffffffffffffffffffffffffffffff1673ffffffffffffffffffffffffffffffffffffffff16815260200190815260200160002060009054906101000a900473ffffffffffffffffffffffffffffffffffffffff169050600073ffffffffffffffffffffffffffffffffffffffff168173ffffffffffffffffffffffffffffffffffffffff1614614321576000806000808473ffffffffffffffffffffffffffffffffffffffff1673ffffffffffffffffffffffffffffffffffffffff1681526020019081526020016000209150600160008473ffffffffffffffffffffffffffffffffffffffff1673ffffffffffffffffffffffffffffffffffffffff168152602001908152602001600020905061424785836147f290919063ffffffff16565b1561428957846040517fa8cf495d0000000000000000000000000000000000000000000000000000000081526004016142809190614daa565b60405180910390fd5b60008573ffffffffffffffffffffffffffffffffffffffff163b111561431e5760008573ffffffffffffffffffffffffffffffffffffffff163f90506142d8818361479490919063ffffffff16565b1561431c5785816040517f5f3853a90000000000000000000000000000000000000000000000000000000081526004016143139291906152ff565b60405180910390fd5b505b50505b600191505092915050565b600080600260008573ffffffffffffffffffffffffffffffffffffffff1673ffffffffffffffffffffffffffffffffffffffff16815260200190815260200160002060009054906101000a900473ffffffffffffffffffffffffffffffffffffffff1690508373ffffffffffffffffffffffffffffffffffffffff168173ffffffffffffffffffffffffffffffffffffffff161461441c57614414836000808473ffffffffffffffffffffffffffffffffffffffff1673ffffffffffffffffffffffffffffffffffffffff1681526020019081526020016000206147f290919063ffffffff16565b915050614470565b61446c836000808773ffffffffffffffffffffffffffffffffffffffff1673ffffffffffffffffffffffffffffffffffffffff1681526020019081526020016000206147f290919063ffffffff16565b9150505b92915050565b60006144858360000183614822565b905092915050565b600061449c8360000183614936565b905092915050565b60008060008373ffffffffffffffffffffffffffffffffffffffff1673ffffffffffffffffffffffffffffffffffffffff16815260200190815260200160002090506000600160008473ffffffffffffffffffffffffffffffffffffffff1673ffffffffffffffffffffffffffffffffffffffff16815260200190815260200160002090506000614534836149a6565b90506000614541836149bb565b905060005b8281101561462b576000614563828761475990919063ffffffff16565b905060006145b7826000808c73ffffffffffffffffffffffffffffffffffffffff1673ffffffffffffffffffffffffffffffffffffffff1681526020019081526020016000206147ab90919063ffffffff16565b9050801561461e57600115158273ffffffffffffffffffffffffffffffffffffffff168a73ffffffffffffffffffffffffffffffffffffffff167f2738289d9deecdc30eb8ffc42876633caecca1ffa166e4efa89f408e17373a1a60405160405180910390a45b8260010192505050614546565b5060005b818110156146ff57600061464c82866147db90919063ffffffff16565b905060006146a182600160008c73ffffffffffffffffffffffffffffffffffffffff1673ffffffffffffffffffffffffffffffffffffffff16815260200190815260200160002061448d90919063ffffffff16565b905080156146f25760011515828a73ffffffffffffffffffffffffffffffffffffffff167fb8036058bafea884aabc446ca15619fd86f5464a4ad96f64164ad6f77444354d60405160405180910390a45b826001019250505061462f565b50505050505050565b60606000614718836000016149d0565b905060608190508092505050919050565b6000614751836000018373ffffffffffffffffffffffffffffffffffffffff1660001b614822565b905092915050565b60006147688360000183614a2c565b60001c905092915050565b60606000614783836000016149d0565b905060608190508092505050919050565b60006147a38360000183614a57565b905092915050565b60006147d3836000018373ffffffffffffffffffffffffffffffffffffffff1660001b614936565b905092915050565b60006147ea8360000183614a2c565b905092915050565b600061481a836000018373ffffffffffffffffffffffffffffffffffffffff1660001b614a57565b905092915050565b6000808360010160008481526020019081526020016000205490506000811461492a5760006001826148549190615357565b905060006001866000018054905061486c9190615357565b90508181146148db57600086600001828154811061488d5761488c61518d565b5b90600052602060002001549050808760000184815481106148b1576148b061518d565b5b90600052602060002001819055508387600101600083815260200190815260200160002081905550505b856000018054806148ef576148ee61538b565b5b600190038181906000526020600020016000905590558560010160008681526020019081526020016000206000905560019350505050614930565b60009150505b92915050565b60006149428383614a57565b61499b5782600001829080600181540180825580915050600190039060005260206000200160009091909190915055826000018054905083600101600084815260200190815260200160002081905550600190506149a0565b600090505b92915050565b60006149b482600001614a7a565b9050919050565b60006149c982600001614a7a565b9050919050565b606081600001805480602002602001604051908101604052809291908181526020018280548015614a2057602002820191906000526020600020905b815481526020019060010190808311614a0c575b50505050509050919050565b6000826000018281548110614a4457614a4361518d565b5b9060005260206000200154905092915050565b600080836001016000848152602001908152602001600020541415905092915050565b600081600001805490509050919050565b600080fd5b600080fd5b600073ffffffffffffffffffffffffffffffffffffffff82169050919050565b6000614ac082614a95565b9050919050565b614ad081614ab5565b8114614adb57600080fd5b50565b600081359050614aed81614ac7565b92915050565b600080fd5b600080fd5b600080fd5b60008083601f840112614b1857614b17614af3565b5b8235905067ffffffffffffffff811115614b3557614b34614af8565b5b602083019150836020820283011115614b5157614b50614afd565b5b9250929050565b60008115159050919050565b614b6d81614b58565b8114614b7857600080fd5b50565b600081359050614b8a81614b64565b92915050565b60008060008060608587031215614baa57614ba9614a8b565b5b6000614bb887828801614ade565b945050602085013567ffffffffffffffff811115614bd957614bd8614a90565b5b614be587828801614b02565b93509350506040614bf887828801614b7b565b91505092959194509250565b60008060408385031215614c1b57614c1a614a8b565b5b6000614c2985828601614ade565b9250506020614c3a85828601614ade565b9150509250929050565b600060208284031215614c5a57614c59614a8b565b5b6000614c6884828501614ade565b91505092915050565b600081519050919050565b600082825260208201905092915050565b6000819050602082019050919050565b6000819050919050565b614cb081614c9d565b82525050565b6000614cc28383614ca7565b60208301905092915050565b6000602082019050919050565b6000614ce682614c71565b614cf08185614c7c565b9350614cfb83614c8d565b8060005b83811015614d2c578151614d138882614cb6565b9750614d1e83614cce565b925050600181019050614cff565b5085935050505092915050565b60006020820190508181036000830152614d538184614cdb565b905092915050565b60008060408385031215614d7257614d71614a8b565b5b6000614d8085828601614ade565b9250506020614d9185828601614b7b565b9150509250929050565b614da481614ab5565b82525050565b6000602082019050614dbf6000830184614d9b565b92915050565b6000819050919050565b614dd881614dc5565b8114614de357600080fd5b50565b600081359050614df581614dcf565b92915050565b60008060408385031215614e1257614e11614a8b565b5b6000614e2085828601614ade565b9250506020614e3185828601614de6565b9150509250929050565b600081519050919050565b600082825260208201905092915050565b6000819050602082019050919050565b614e7081614ab5565b82525050565b6000614e828383614e67565b60208301905092915050565b6000602082019050919050565b6000614ea682614e3b565b614eb08185614e46565b9350614ebb83614e57565b8060005b83811015614eec578151614ed38882614e76565b9750614ede83614e8e565b925050600181019050614ebf565b5085935050505092915050565b60006020820190508181036000830152614f138184614e9b565b905092915050565b614f2481614b58565b82525050565b6000602082019050614f3f6000830184614f1b565b92915050565b614f4e81614c9d565b8114614f5957600080fd5b50565b600081359050614f6b81614f45565b92915050565b60008060408385031215614f8857614f87614a8b565b5b6000614f9685828601614ade565b9250506020614fa785828601614f5c565b9150509250929050565b600080600060608486031215614fca57614fc9614a8b565b5b6000614fd886828701614ade565b9350506020614fe986828701614f5c565b9250506040614ffa86828701614b7b565b9150509250925092565b60008083601f84011261501a57615019614af3565b5b8235905067ffffffffffffffff81111561503757615036614af8565b5b60208301915083602082028301111561505357615052614afd565b5b9250929050565b6000806000806060858703121561507457615073614a8b565b5b600061508287828801614ade565b945050602085013567ffffffffffffffff8111156150a3576150a2614a90565b5b6150af87828801615004565b935093505060406150c287828801614b7b565b91505092959194509250565b6000806000606084860312156150e7576150e6614a8b565b5b60006150f586828701614ade565b935050602061510686828701614ade565b925050604061511786828701614b7b565b9150509250925092565b61512a81614c9d565b82525050565b60006020820190506151456000830184615121565b92915050565b60008151905061515a81614ac7565b92915050565b60006020828403121561517657615175614a8b565b5b60006151848482850161514b565b91505092915050565b7f4e487b7100000000000000000000000000000000000000000000000000000000600052603260045260246000fd5b600080fd5b82818337600083830152505050565b60006151dc8385614c7c565b93507f07ffffffffffffffffffffffffffffffffffffffffffffffffffffffffffffff83111561520f5761520e6151bc565b5b6020830292506152208385846151c1565b82840190509392505050565b600060208201905081810360008301526152478184866151d0565b90509392505050565b6000819050919050565b60006152696020840184614ade565b905092915050565b6000602082019050919050565b600061528a8385614e46565b935061529582615250565b8060005b858110156152ce576152ab828461525a565b6152b58882614e76565b97506152c083615271565b925050600181019050615299565b5085925050509392505050565b600060208201905081810360008301526152f681848661527e565b90509392505050565b60006040820190506153146000830185614d9b565b6153216020830184615121565b9392505050565b7f4e487b7100000000000000000000000000000000000000000000000000000000600052601160045260246000fd5b600061536282614dc5565b915061536d83614dc5565b9250828210156153805761537f615328565b5b828203905092915050565b7f4e487b7100000000000000000000000000000000000000000000000000000000600052603160045260246000fdfea264697066735822122039117d9a8a120440646b2d90d7c7d1c422e4c5af06c81c7da63040d14fa96b8864736f6c634300080d0033",
					"opcodes": "PUSH1 0x80 PUSH1 0x40 MSTORE CALLVALUE DUP1 ISZERO PUSH2 0x10 JUMPI PUSH1 0x0 DUP1 REVERT JUMPDEST POP PUSH2 0x53F0 DUP1 PUSH2 0x20 PUSH1 0x0 CODECOPY PUSH1 0x0 RETURN INVALID PUSH1 0x80 PUSH1 0x40 MSTORE CALLVALUE DUP1 ISZERO PUSH2 0x10 JUMPI PUSH1 0x0 DUP1 REVERT JUMPDEST POP PUSH1 0x4 CALLDATASIZE LT PUSH2 0x158 JUMPI PUSH1 0x0 CALLDATALOAD PUSH1 0xE0 SHR DUP1 PUSH4 0x712FC00B GT PUSH2 0xC3 JUMPI DUP1 PUSH4 0xB314D414 GT PUSH2 0x7C JUMPI DUP1 PUSH4 0xB314D414 EQ PUSH2 0x3F5 JUMPI DUP1 PUSH4 0xBBD652C7 EQ PUSH2 0x411 JUMPI DUP1 PUSH4 0xC3C5A547 EQ PUSH2 0x441 JUMPI DUP1 PUSH4 0xC4308805 EQ PUSH2 0x471 JUMPI DUP1 PUSH4 0xC6171134 EQ PUSH2 0x4A1 JUMPI DUP1 PUSH4 0xE4AECB54 EQ PUSH2 0x4D1 JUMPI PUSH2 0x158 JUMP JUMPDEST DUP1 PUSH4 0x712FC00B EQ PUSH2 0x339 JUMPI DUP1 PUSH4 0x7D3E3DBE EQ PUSH2 0x355 JUMPI DUP1 PUSH4 0xA0AF2903 EQ PUSH2 0x371 JUMPI DUP1 PUSH4 0xA14584C1 EQ PUSH2 0x38D JUMPI DUP1 PUSH4 0xA2F367AB EQ PUSH2 0x3A9 JUMPI DUP1 PUSH4 0xA6529EB5 EQ PUSH2 0x3C5 JUMPI PUSH2 0x158 JUMP JUMPDEST DUP1 PUSH4 0x3F1CC5FA GT PUSH2 0x115 JUMPI DUP1 PUSH4 0x3F1CC5FA EQ PUSH2 0x22D JUMPI DUP1 PUSH4 0x4420E486 EQ PUSH2 0x25D JUMPI DUP1 PUSH4 0x55940E51 EQ PUSH2 0x279 JUMPI DUP1 PUSH4 0x5745AE28 EQ PUSH2 0x2A9 JUMPI DUP1 PUSH4 0x5EAE3173 EQ PUSH2 0x2D9 JUMPI DUP1 PUSH4 0x6AF0C315 EQ PUSH2 0x309 JUMPI PUSH2 0x158 JUMP JUMPDEST DUP1 PUSH4 0x63298B6 EQ PUSH2 0x15D JUMPI DUP1 PUSH4 0x1E06B4B4 EQ PUSH2 0x179 JUMPI DUP1 PUSH4 0x22FA2762 EQ PUSH2 0x195 JUMPI DUP1 PUSH4 0x2EC2C246 EQ PUSH2 0x1C5 JUMPI DUP1 PUSH4 0x34A0DC10 EQ PUSH2 0x1E1 JUMPI DUP1 PUSH4 0x3C5030BB EQ PUSH2 0x1FD JUMPI JUMPDEST PUSH1 0x0 DUP1 REVERT JUMPDEST PUSH2 0x177 PUSH1 0x4 DUP1 CALLDATASIZE SUB DUP2 ADD SWAP1 PUSH2 0x172 SWAP2 SWAP1 PUSH2 0x4B90 JUMP JUMPDEST PUSH2 0x501 JUMP JUMPDEST STOP JUMPDEST PUSH2 0x193 PUSH1 0x4 DUP1 CALLDATASIZE SUB DUP2 ADD SWAP1 PUSH2 0x18E SWAP2 SWAP1 PUSH2 0x4C04 JUMP JUMPDEST PUSH2 0x9EE JUMP JUMPDEST STOP JUMPDEST PUSH2 0x1AF PUSH1 0x4 DUP1 CALLDATASIZE SUB DUP2 ADD SWAP1 PUSH2 0x1AA SWAP2 SWAP1 PUSH2 0x4C44 JUMP JUMPDEST PUSH2 0xDFA JUMP JUMPDEST PUSH1 0x40 MLOAD PUSH2 0x1BC SWAP2 SWAP1 PUSH2 0x4D39 JUMP JUMPDEST PUSH1 0x40 MLOAD DUP1 SWAP2 SUB SWAP1 RETURN JUMPDEST PUSH2 0x1DF PUSH1 0x4 DUP1 CALLDATASIZE SUB DUP2 ADD SWAP1 PUSH2 0x1DA SWAP2 SWAP1 PUSH2 0x4C44 JUMP JUMPDEST PUSH2 0xF32 JUMP JUMPDEST STOP JUMPDEST PUSH2 0x1FB PUSH1 0x4 DUP1 CALLDATASIZE SUB DUP2 ADD SWAP1 PUSH2 0x1F6 SWAP2 SWAP1 PUSH2 0x4D5B JUMP JUMPDEST PUSH2 0x1331 JUMP JUMPDEST STOP JUMPDEST PUSH2 0x217 PUSH1 0x4 DUP1 CALLDATASIZE SUB DUP2 ADD SWAP1 PUSH2 0x212 SWAP2 SWAP1 PUSH2 0x4C44 JUMP JUMPDEST PUSH2 0x172B JUMP JUMPDEST PUSH1 0x40 MLOAD PUSH2 0x224 SWAP2 SWAP1 PUSH2 0x4DAA JUMP JUMPDEST PUSH1 0x40 MLOAD DUP1 SWAP2 SUB SWAP1 RETURN JUMPDEST PUSH2 0x247 PUSH1 0x4 DUP1 CALLDATASIZE SUB DUP2 ADD SWAP1 PUSH2 0x242 SWAP2 SWAP1 PUSH2 0x4DFB JUMP JUMPDEST PUSH2 0x183D JUMP JUMPDEST PUSH1 0x40 MLOAD PUSH2 0x254 SWAP2 SWAP1 PUSH2 0x4DAA JUMP JUMPDEST PUSH1 0x40 MLOAD DUP1 SWAP2 SUB SWAP1 RETURN JUMPDEST PUSH2 0x277 PUSH1 0x4 DUP1 CALLDATASIZE SUB DUP2 ADD SWAP1 PUSH2 0x272 SWAP2 SWAP1 PUSH2 0x4C44 JUMP JUMPDEST PUSH2 0x1987 JUMP JUMPDEST STOP JUMPDEST PUSH2 0x293 PUSH1 0x4 DUP1 CALLDATASIZE SUB DUP2 ADD SWAP1 PUSH2 0x28E SWAP2 SWAP1 PUSH2 0x4DFB JUMP JUMPDEST PUSH2 0x1C91 JUMP JUMPDEST PUSH1 0x40 MLOAD PUSH2 0x2A0 SWAP2 SWAP1 PUSH2 0x4DAA JUMP JUMPDEST PUSH1 0x40 MLOAD DUP1 SWAP2 SUB SWAP1 RETURN JUMPDEST PUSH2 0x2C3 PUSH1 0x4 DUP1 CALLDATASIZE SUB DUP2 ADD SWAP1 PUSH2 0x2BE SWAP2 SWAP1 PUSH2 0x4C44 JUMP JUMPDEST PUSH2 0x1CEC JUMP JUMPDEST PUSH1 0x40 MLOAD PUSH2 0x2D0 SWAP2 SWAP1 PUSH2 0x4EF9 JUMP JUMPDEST PUSH1 0x40 MLOAD DUP1 SWAP2 SUB SWAP1 RETURN JUMPDEST PUSH2 0x2F3 PUSH1 0x4 DUP1 CALLDATASIZE SUB DUP2 ADD SWAP1 PUSH2 0x2EE SWAP2 SWAP1 PUSH2 0x4C04 JUMP JUMPDEST PUSH2 0x1D3C JUMP JUMPDEST PUSH1 0x40 MLOAD PUSH2 0x300 SWAP2 SWAP1 PUSH2 0x4F2A JUMP JUMPDEST PUSH1 0x40 MLOAD DUP1 SWAP2 SUB SWAP1 RETURN JUMPDEST PUSH2 0x323 PUSH1 0x4 DUP1 CALLDATASIZE SUB DUP2 ADD SWAP1 PUSH2 0x31E SWAP2 SWAP1 PUSH2 0x4F71 JUMP JUMPDEST PUSH2 0x1EA6 JUMP JUMPDEST PUSH1 0x40 MLOAD PUSH2 0x330 SWAP2 SWAP1 PUSH2 0x4F2A JUMP JUMPDEST PUSH1 0x40 MLOAD DUP1 SWAP2 SUB SWAP1 RETURN JUMPDEST PUSH2 0x353 PUSH1 0x4 DUP1 CALLDATASIZE SUB DUP2 ADD SWAP1 PUSH2 0x34E SWAP2 SWAP1 PUSH2 0x4FB1 JUMP JUMPDEST PUSH2 0x1FF2 JUMP JUMPDEST STOP JUMPDEST PUSH2 0x36F PUSH1 0x4 DUP1 CALLDATASIZE SUB DUP2 ADD SWAP1 PUSH2 0x36A SWAP2 SWAP1 PUSH2 0x4C04 JUMP JUMPDEST PUSH2 0x245D JUMP JUMPDEST STOP JUMPDEST PUSH2 0x38B PUSH1 0x4 DUP1 CALLDATASIZE SUB DUP2 ADD SWAP1 PUSH2 0x386 SWAP2 SWAP1 PUSH2 0x4C04 JUMP JUMPDEST PUSH2 0x29C8 JUMP JUMPDEST STOP JUMPDEST PUSH2 0x3A7 PUSH1 0x4 DUP1 CALLDATASIZE SUB DUP2 ADD SWAP1 PUSH2 0x3A2 SWAP2 SWAP1 PUSH2 0x505A JUMP JUMPDEST PUSH2 0x2E1E JUMP JUMPDEST STOP JUMPDEST PUSH2 0x3C3 PUSH1 0x4 DUP1 CALLDATASIZE SUB DUP2 ADD SWAP1 PUSH2 0x3BE SWAP2 SWAP1 PUSH2 0x50CE JUMP JUMPDEST PUSH2 0x32CD JUMP JUMPDEST STOP JUMPDEST PUSH2 0x3DF PUSH1 0x4 DUP1 CALLDATASIZE SUB DUP2 ADD SWAP1 PUSH2 0x3DA SWAP2 SWAP1 PUSH2 0x4DFB JUMP JUMPDEST PUSH2 0x36F4 JUMP JUMPDEST PUSH1 0x40 MLOAD PUSH2 0x3EC SWAP2 SWAP1 PUSH2 0x5130 JUMP JUMPDEST PUSH1 0x40 MLOAD DUP1 SWAP2 SUB SWAP1 RETURN JUMPDEST PUSH2 0x40F PUSH1 0x4 DUP1 CALLDATASIZE SUB DUP2 ADD SWAP1 PUSH2 0x40A SWAP2 SWAP1 PUSH2 0x4C04 JUMP JUMPDEST PUSH2 0x3840 JUMP JUMPDEST STOP JUMPDEST PUSH2 0x42B PUSH1 0x4 DUP1 CALLDATASIZE SUB DUP2 ADD SWAP1 PUSH2 0x426 SWAP2 SWAP1 PUSH2 0x4C44 JUMP JUMPDEST PUSH2 0x3F28 JUMP JUMPDEST PUSH1 0x40 MLOAD PUSH2 0x438 SWAP2 SWAP1 PUSH2 0x5130 JUMP JUMPDEST PUSH1 0x40 MLOAD DUP1 SWAP2 SUB SWAP1 RETURN JUMPDEST PUSH2 0x45B PUSH1 0x4 DUP1 CALLDATASIZE SUB DUP2 ADD SWAP1 PUSH2 0x456 SWAP2 SWAP1 PUSH2 0x4C44 JUMP JUMPDEST PUSH2 0x3F49 JUMP JUMPDEST PUSH1 0x40 MLOAD PUSH2 0x468 SWAP2 SWAP1 PUSH2 0x4F2A JUMP JUMPDEST PUSH1 0x40 MLOAD DUP1 SWAP2 SUB SWAP1 RETURN JUMPDEST PUSH2 0x48B PUSH1 0x4 DUP1 CALLDATASIZE SUB DUP2 ADD SWAP1 PUSH2 0x486 SWAP2 SWAP1 PUSH2 0x4C44 JUMP JUMPDEST PUSH2 0x3FE1 JUMP JUMPDEST PUSH1 0x40 MLOAD PUSH2 0x498 SWAP2 SWAP1 PUSH2 0x4EF9 JUMP JUMPDEST PUSH1 0x40 MLOAD DUP1 SWAP2 SUB SWAP1 RETURN JUMPDEST PUSH2 0x4BB PUSH1 0x4 DUP1 CALLDATASIZE SUB DUP2 ADD SWAP1 PUSH2 0x4B6 SWAP2 SWAP1 PUSH2 0x4C04 JUMP JUMPDEST PUSH2 0x4117 JUMP JUMPDEST PUSH1 0x40 MLOAD PUSH2 0x4C8 SWAP2 SWAP1 PUSH2 0x4F2A JUMP JUMPDEST PUSH1 0x40 MLOAD DUP1 SWAP2 SUB SWAP1 RETURN JUMPDEST PUSH2 0x4EB PUSH1 0x4 DUP1 CALLDATASIZE SUB DUP2 ADD SWAP1 PUSH2 0x4E6 SWAP2 SWAP1 PUSH2 0x4C04 JUMP JUMPDEST PUSH2 0x432C JUMP JUMPDEST PUSH1 0x40 MLOAD PUSH2 0x4F8 SWAP2 SWAP1 PUSH2 0x4F2A JUMP JUMPDEST PUSH1 0x40 MLOAD DUP1 SWAP2 SUB SWAP1 RETURN JUMPDEST DUP4 DUP1 PUSH20 0xFFFFFFFFFFFFFFFFFFFFFFFFFFFFFFFFFFFFFFFF AND CALLER PUSH20 0xFFFFFFFFFFFFFFFFFFFFFFFFFFFFFFFFFFFFFFFF AND EQ PUSH2 0x67D JUMPI DUP1 PUSH20 0xFFFFFFFFFFFFFFFFFFFFFFFFFFFFFFFFFFFFFFFF AND PUSH4 0x8DA5CB5B PUSH1 0x40 MLOAD DUP2 PUSH4 0xFFFFFFFF AND PUSH1 0xE0 SHL DUP2 MSTORE PUSH1 0x4 ADD PUSH1 0x20 PUSH1 0x40 MLOAD DUP1 DUP4 SUB DUP2 DUP7 GAS STATICCALL SWAP3 POP POP POP DUP1 ISZERO PUSH2 0x59D JUMPI POP PUSH1 0x40 MLOAD RETURNDATASIZE PUSH1 0x1F NOT PUSH1 0x1F DUP3 ADD AND DUP3 ADD DUP1 PUSH1 0x40 MSTORE POP DUP2 ADD SWAP1 PUSH2 0x59A SWAP2 SWAP1 PUSH2 0x5160 JUMP JUMPDEST PUSH1 0x1 JUMPDEST PUSH2 0x616 JUMPI RETURNDATASIZE DUP1 PUSH1 0x0 DUP2 EQ PUSH2 0x5CD JUMPI PUSH1 0x40 MLOAD SWAP2 POP PUSH1 0x1F NOT PUSH1 0x3F RETURNDATASIZE ADD AND DUP3 ADD PUSH1 0x40 MSTORE RETURNDATASIZE DUP3 MSTORE RETURNDATASIZE PUSH1 0x0 PUSH1 0x20 DUP5 ADD RETURNDATACOPY PUSH2 0x5D2 JUMP JUMPDEST PUSH1 0x60 SWAP2 POP JUMPDEST POP PUSH1 0x0 DUP2 MLOAD SUB PUSH2 0x60E JUMPI PUSH1 0x40 MLOAD PUSH32 0xB2C1414000000000000000000000000000000000000000000000000000000000 DUP2 MSTORE PUSH1 0x4 ADD PUSH1 0x40 MLOAD DUP1 SWAP2 SUB SWAP1 REVERT JUMPDEST DUP1 MLOAD DUP2 PUSH1 0x20 ADD REVERT JUMPDEST DUP1 PUSH20 0xFFFFFFFFFFFFFFFFFFFFFFFFFFFFFFFFFFFFFFFF AND CALLER PUSH20 0xFFFFFFFFFFFFFFFFFFFFFFFFFFFFFFFFFFFFFFFF AND EQ PUSH2 0x67B JUMPI PUSH1 0x40 MLOAD PUSH32 0xFCF5EFF800000000000000000000000000000000000000000000000000000000 DUP2 MSTORE PUSH1 0x4 ADD PUSH1 0x40 MLOAD DUP1 SWAP2 SUB SWAP1 REVERT JUMPDEST POP JUMPDEST PUSH1 0x0 PUSH1 0x2 PUSH1 0x0 DUP8 PUSH20 0xFFFFFFFFFFFFFFFFFFFFFFFFFFFFFFFFFFFFFFFF AND PUSH20 0xFFFFFFFFFFFFFFFFFFFFFFFFFFFFFFFFFFFFFFFF AND DUP2 MSTORE PUSH1 0x20 ADD SWAP1 DUP2 MSTORE PUSH1 0x20 ADD PUSH1 0x0 KECCAK256 PUSH1 0x0 SWAP1 SLOAD SWAP1 PUSH2 0x100 EXP SWAP1 DIV PUSH20 0xFFFFFFFFFFFFFFFFFFFFFFFFFFFFFFFFFFFFFFFF AND SWAP1 POP PUSH1 0x0 PUSH20 0xFFFFFFFFFFFFFFFFFFFFFFFFFFFFFFFFFFFFFFFF AND DUP2 PUSH20 0xFFFFFFFFFFFFFFFFFFFFFFFFFFFFFFFFFFFFFFFF AND SUB PUSH2 0x752 JUMPI DUP6 PUSH1 0x40 MLOAD PUSH32 0xBFC6C33700000000000000000000000000000000000000000000000000000000 DUP2 MSTORE PUSH1 0x4 ADD PUSH2 0x749 SWAP2 SWAP1 PUSH2 0x4DAA JUMP JUMPDEST PUSH1 0x40 MLOAD DUP1 SWAP2 SUB SWAP1 REVERT JUMPDEST DUP6 PUSH20 0xFFFFFFFFFFFFFFFFFFFFFFFFFFFFFFFFFFFFFFFF AND DUP2 PUSH20 0xFFFFFFFFFFFFFFFFFFFFFFFFFFFFFFFFFFFFFFFF AND EQ PUSH2 0x7C2 JUMPI DUP1 PUSH1 0x40 MLOAD PUSH32 0x4AF4D6900000000000000000000000000000000000000000000000000000000 DUP2 MSTORE PUSH1 0x4 ADD PUSH2 0x7B9 SWAP2 SWAP1 PUSH2 0x4DAA JUMP JUMPDEST PUSH1 0x40 MLOAD DUP1 SWAP2 SUB SWAP1 REVERT JUMPDEST PUSH1 0x0 PUSH1 0x1 PUSH1 0x0 DUP9 PUSH20 0xFFFFFFFFFFFFFFFFFFFFFFFFFFFFFFFFFFFFFFFF AND PUSH20 0xFFFFFFFFFFFFFFFFFFFFFFFFFFFFFFFFFFFFFFFF AND DUP2 MSTORE PUSH1 0x20 ADD SWAP1 DUP2 MSTORE PUSH1 0x20 ADD PUSH1 0x0 KECCAK256 SWAP1 POP PUSH1 0x0 DUP7 DUP7 SWAP1 POP SWAP1 POP DUP5 PUSH2 0x8A7 JUMPI PUSH1 0x0 JUMPDEST DUP2 DUP2 LT ISZERO PUSH2 0x8A1 JUMPI PUSH1 0x0 DUP9 DUP9 DUP4 DUP2 DUP2 LT PUSH2 0x832 JUMPI PUSH2 0x831 PUSH2 0x518D JUMP JUMPDEST JUMPDEST SWAP1 POP PUSH1 0x20 MUL ADD CALLDATALOAD SWAP1 POP PUSH1 0x0 PUSH2 0x850 DUP3 DUP7 PUSH2 0x4476 SWAP1 SWAP2 SWAP1 PUSH4 0xFFFFFFFF AND JUMP JUMPDEST SWAP1 POP DUP1 PUSH2 0x894 JUMPI DUP2 PUSH1 0x40 MLOAD PUSH32 0x478730A800000000000000000000000000000000000000000000000000000000 DUP2 MSTORE PUSH1 0x4 ADD PUSH2 0x88B SWAP2 SWAP1 PUSH2 0x5130 JUMP JUMPDEST PUSH1 0x40 MLOAD DUP1 SWAP2 SUB SWAP1 REVERT JUMPDEST DUP3 PUSH1 0x1 ADD SWAP3 POP POP POP PUSH2 0x815 JUMP JUMPDEST POP PUSH2 0x991 JUMP JUMPDEST PUSH1 0x0 JUMPDEST DUP2 DUP2 LT ISZERO PUSH2 0x98F JUMPI PUSH1 0x0 DUP9 DUP9 DUP4 DUP2 DUP2 LT PUSH2 0x8C7 JUMPI PUSH2 0x8C6 PUSH2 0x518D JUMP JUMPDEST JUMPDEST SWAP1 POP PUSH1 0x20 MUL ADD CALLDATALOAD SWAP1 POP PUSH32 0xC5D2460186F7233C927E7DB2DCC703C0E500B653CA82273B7BFAD8045D85A470 DUP2 SUB PUSH2 0x929 JUMPI PUSH1 0x40 MLOAD PUSH32 0xF575EAD800000000000000000000000000000000000000000000000000000000 DUP2 MSTORE PUSH1 0x4 ADD PUSH1 0x40 MLOAD DUP1 SWAP2 SUB SWAP1 REVERT JUMPDEST PUSH1 0x0 PUSH2 0x93E DUP3 DUP7 PUSH2 0x448D SWAP1 SWAP2 SWAP1 PUSH4 0xFFFFFFFF AND JUMP JUMPDEST SWAP1 POP DUP1 PUSH2 0x982 JUMPI DUP2 PUSH1 0x40 MLOAD PUSH32 0x186BEA0000000000000000000000000000000000000000000000000000000000 DUP2 MSTORE PUSH1 0x4 ADD PUSH2 0x979 SWAP2 SWAP1 PUSH2 0x5130 JUMP JUMPDEST PUSH1 0x40 MLOAD DUP1 SWAP2 SUB SWAP1 REVERT JUMPDEST DUP3 PUSH1 0x1 ADD SWAP3 POP POP POP PUSH2 0x8AA JUMP JUMPDEST POP JUMPDEST DUP5 ISZERO ISZERO DUP9 PUSH20 0xFFFFFFFFFFFFFFFFFFFFFFFFFFFFFFFFFFFFFFFF AND PUSH32 0x34E9F70C5A16A4DF2A396CF0CBC4735EB3C7FB6AE40AAA0B34BE7720121D1B96 DUP10 DUP10 PUSH1 0x40 MLOAD PUSH2 0x9DC SWAP3 SWAP2 SWAP1 PUSH2 0x522C JUMP JUMPDEST PUSH1 0x40 MLOAD DUP1 SWAP2 SUB SWAP1 LOG3 POP POP POP POP POP POP POP POP JUMP JUMPDEST DUP2 DUP1 PUSH20 0xFFFFFFFFFFFFFFFFFFFFFFFFFFFFFFFFFFFFFFFF AND CALLER PUSH20 0xFFFFFFFFFFFFFFFFFFFFFFFFFFFFFFFFFFFFFFFF AND EQ PUSH2 0xB6A JUMPI DUP1 PUSH20 0xFFFFFFFFFFFFFFFFFFFFFFFFFFFFFFFFFFFFFFFF AND PUSH4 0x8DA5CB5B PUSH1 0x40 MLOAD DUP2 PUSH4 0xFFFFFFFF AND PUSH1 0xE0 SHL DUP2 MSTORE PUSH1 0x4 ADD PUSH1 0x20 PUSH1 0x40 MLOAD DUP1 DUP4 SUB DUP2 DUP7 GAS STATICCALL SWAP3 POP POP POP DUP1 ISZERO PUSH2 0xA8A JUMPI POP PUSH1 0x40 MLOAD RETURNDATASIZE PUSH1 0x1F NOT PUSH1 0x1F DUP3 ADD AND DUP3 ADD DUP1 PUSH1 0x40 MSTORE POP DUP2 ADD SWAP1 PUSH2 0xA87 SWAP2 SWAP1 PUSH2 0x5160 JUMP JUMPDEST PUSH1 0x1 JUMPDEST PUSH2 0xB03 JUMPI RETURNDATASIZE DUP1 PUSH1 0x0 DUP2 EQ PUSH2 0xABA JUMPI PUSH1 0x40 MLOAD SWAP2 POP PUSH1 0x1F NOT PUSH1 0x3F RETURNDATASIZE ADD AND DUP3 ADD PUSH1 0x40 MSTORE RETURNDATASIZE DUP3 MSTORE RETURNDATASIZE PUSH1 0x0 PUSH1 0x20 DUP5 ADD RETURNDATACOPY PUSH2 0xABF JUMP JUMPDEST PUSH1 0x60 SWAP2 POP JUMPDEST POP PUSH1 0x0 DUP2 MLOAD SUB PUSH2 0xAFB JUMPI PUSH1 0x40 MLOAD PUSH32 0xB2C1414000000000000000000000000000000000000000000000000000000000 DUP2 MSTORE PUSH1 0x4 ADD PUSH1 0x40 MLOAD DUP1 SWAP2 SUB SWAP1 REVERT JUMPDEST DUP1 MLOAD DUP2 PUSH1 0x20 ADD REVERT JUMPDEST DUP1 PUSH20 0xFFFFFFFFFFFFFFFFFFFFFFFFFFFFFFFFFFFFFFFF AND CALLER PUSH20 0xFFFFFFFFFFFFFFFFFFFFFFFFFFFFFFFFFFFFFFFF AND EQ PUSH2 0xB68 JUMPI PUSH1 0x40 MLOAD PUSH32 0xFCF5EFF800000000000000000000000000000000000000000000000000000000 DUP2 MSTORE PUSH1 0x4 ADD PUSH1 0x40 MLOAD DUP1 SWAP2 SUB SWAP1 REVERT JUMPDEST POP JUMPDEST DUP2 PUSH20 0xFFFFFFFFFFFFFFFFFFFFFFFFFFFFFFFFFFFFFFFF AND DUP4 PUSH20 0xFFFFFFFFFFFFFFFFFFFFFFFFFFFFFFFFFFFFFFFF AND SUB PUSH2 0xBCF JUMPI PUSH1 0x40 MLOAD PUSH32 0x1ACAB6B800000000000000000000000000000000000000000000000000000000 DUP2 MSTORE PUSH1 0x4 ADD PUSH1 0x40 MLOAD DUP1 SWAP2 SUB SWAP1 REVERT JUMPDEST PUSH1 0x0 PUSH1 0x2 PUSH1 0x0 DUP6 PUSH20 0xFFFFFFFFFFFFFFFFFFFFFFFFFFFFFFFFFFFFFFFF AND PUSH20 0xFFFFFFFFFFFFFFFFFFFFFFFFFFFFFFFFFFFFFFFF AND DUP2 MSTORE PUSH1 0x20 ADD SWAP1 DUP2 MSTORE PUSH1 0x20 ADD PUSH1 0x0 KECCAK256 PUSH1 0x0 SWAP1 SLOAD SWAP1 PUSH2 0x100 EXP SWAP1 DIV PUSH20 0xFFFFFFFFFFFFFFFFFFFFFFFFFFFFFFFFFFFFFFFF AND SWAP1 POP PUSH1 0x0 PUSH20 0xFFFFFFFFFFFFFFFFFFFFFFFFFFFFFFFFFFFFFFFF AND DUP2 PUSH20 0xFFFFFFFFFFFFFFFFFFFFFFFFFFFFFFFFFFFFFFFF AND SUB PUSH2 0xCA4 JUMPI DUP4 PUSH1 0x40 MLOAD PUSH32 0xBFC6C33700000000000000000000000000000000000000000000000000000000 DUP2 MSTORE PUSH1 0x4 ADD PUSH2 0xC9B SWAP2 SWAP1 PUSH2 0x4DAA JUMP JUMPDEST PUSH1 0x40 MLOAD DUP1 SWAP2 SUB SWAP1 REVERT JUMPDEST DUP4 PUSH20 0xFFFFFFFFFFFFFFFFFFFFFFFFFFFFFFFFFFFFFFFF AND DUP2 PUSH20 0xFFFFFFFFFFFFFFFFFFFFFFFFFFFFFFFFFFFFFFFF AND EQ PUSH2 0xD14 JUMPI DUP1 PUSH1 0x40 MLOAD PUSH32 0x4AF4D6900000000000000000000000000000000000000000000000000000000 DUP2 MSTORE PUSH1 0x4 ADD PUSH2 0xD0B SWAP2 SWAP1 PUSH2 0x4DAA JUMP JUMPDEST PUSH1 0x40 MLOAD DUP1 SWAP2 SUB SWAP1 REVERT JUMPDEST PUSH1 0x0 PUSH1 0x2 PUSH1 0x0 DUP6 PUSH20 0xFFFFFFFFFFFFFFFFFFFFFFFFFFFFFFFFFFFFFFFF AND PUSH20 0xFFFFFFFFFFFFFFFFFFFFFFFFFFFFFFFFFFFFFFFF AND DUP2 MSTORE PUSH1 0x20 ADD SWAP1 DUP2 MSTORE PUSH1 0x20 ADD PUSH1 0x0 KECCAK256 PUSH1 0x0 SWAP1 SLOAD SWAP1 PUSH2 0x100 EXP SWAP1 DIV PUSH20 0xFFFFFFFFFFFFFFFFFFFFFFFFFFFFFFFFFFFFFFFF AND SWAP1 POP PUSH1 0x0 PUSH20 0xFFFFFFFFFFFFFFFFFFFFFFFFFFFFFFFFFFFFFFFF AND DUP2 PUSH20 0xFFFFFFFFFFFFFFFFFFFFFFFFFFFFFFFFFFFFFFFF AND SUB PUSH2 0xDE9 JUMPI DUP4 PUSH1 0x40 MLOAD PUSH32 0xBFC6C33700000000000000000000000000000000000000000000000000000000 DUP2 MSTORE PUSH1 0x4 ADD PUSH2 0xDE0 SWAP2 SWAP1 PUSH2 0x4DAA JUMP JUMPDEST PUSH1 0x40 MLOAD DUP1 SWAP2 SUB SWAP1 REVERT JUMPDEST PUSH2 0xDF3 DUP6 DUP6 PUSH2 0x44A4 JUMP JUMPDEST POP POP POP POP POP JUMP JUMPDEST PUSH1 0x60 PUSH1 0x0 PUSH1 0x2 PUSH1 0x0 DUP5 PUSH20 0xFFFFFFFFFFFFFFFFFFFFFFFFFFFFFFFFFFFFFFFF AND PUSH20 0xFFFFFFFFFFFFFFFFFFFFFFFFFFFFFFFFFFFFFFFF AND DUP2 MSTORE PUSH1 0x20 ADD SWAP1 DUP2 MSTORE PUSH1 0x20 ADD PUSH1 0x0 KECCAK256 PUSH1 0x0 SWAP1 SLOAD SWAP1 PUSH2 0x100 EXP SWAP1 DIV PUSH20 0xFFFFFFFFFFFFFFFFFFFFFFFFFFFFFFFFFFFFFFFF AND SWAP1 POP DUP3 PUSH20 0xFFFFFFFFFFFFFFFFFFFFFFFFFFFFFFFFFFFFFFFF AND DUP2 PUSH20 0xFFFFFFFFFFFFFFFFFFFFFFFFFFFFFFFFFFFFFFFF AND EQ PUSH2 0xEE2 JUMPI PUSH2 0xEDA PUSH1 0x1 PUSH1 0x0 DUP4 PUSH20 0xFFFFFFFFFFFFFFFFFFFFFFFFFFFFFFFFFFFFFFFF AND PUSH20 0xFFFFFFFFFFFFFFFFFFFFFFFFFFFFFFFFFFFFFFFF AND DUP2 MSTORE PUSH1 0x20 ADD SWAP1 DUP2 MSTORE PUSH1 0x20 ADD PUSH1 0x0 KECCAK256 PUSH2 0x4708 JUMP JUMPDEST SWAP2 POP POP PUSH2 0xF2D JUMP JUMPDEST PUSH2 0xF29 PUSH1 0x1 PUSH1 0x0 DUP6 PUSH20 0xFFFFFFFFFFFFFFFFFFFFFFFFFFFFFFFFFFFFFFFF AND PUSH20 0xFFFFFFFFFFFFFFFFFFFFFFFFFFFFFFFFFFFFFFFF AND DUP2 MSTORE PUSH1 0x20 ADD SWAP1 DUP2 MSTORE PUSH1 0x20 ADD PUSH1 0x0 KECCAK256 PUSH2 0x4708 JUMP JUMPDEST SWAP2 POP POP JUMPDEST SWAP2 SWAP1 POP JUMP JUMPDEST DUP1 DUP1 PUSH20 0xFFFFFFFFFFFFFFFFFFFFFFFFFFFFFFFFFFFFFFFF AND CALLER PUSH20 0xFFFFFFFFFFFFFFFFFFFFFFFFFFFFFFFFFFFFFFFF AND EQ PUSH2 0x10AE JUMPI DUP1 PUSH20 0xFFFFFFFFFFFFFFFFFFFFFFFFFFFFFFFFFFFFFFFF AND PUSH4 0x8DA5CB5B PUSH1 0x40 MLOAD DUP2 PUSH4 0xFFFFFFFF AND PUSH1 0xE0 SHL DUP2 MSTORE PUSH1 0x4 ADD PUSH1 0x20 PUSH1 0x40 MLOAD DUP1 DUP4 SUB DUP2 DUP7 GAS STATICCALL SWAP3 POP POP POP DUP1 ISZERO PUSH2 0xFCE JUMPI POP PUSH1 0x40 MLOAD RETURNDATASIZE PUSH1 0x1F NOT PUSH1 0x1F DUP3 ADD AND DUP3 ADD DUP1 PUSH1 0x40 MSTORE POP DUP2 ADD SWAP1 PUSH2 0xFCB SWAP2 SWAP1 PUSH2 0x5160 JUMP JUMPDEST PUSH1 0x1 JUMPDEST PUSH2 0x1047 JUMPI RETURNDATASIZE DUP1 PUSH1 0x0 DUP2 EQ PUSH2 0xFFE JUMPI PUSH1 0x40 MLOAD SWAP2 POP PUSH1 0x1F NOT PUSH1 0x3F RETURNDATASIZE ADD AND DUP3 ADD PUSH1 0x40 MSTORE RETURNDATASIZE DUP3 MSTORE RETURNDATASIZE PUSH1 0x0 PUSH1 0x20 DUP5 ADD RETURNDATACOPY PUSH2 0x1003 JUMP JUMPDEST PUSH1 0x60 SWAP2 POP JUMPDEST POP PUSH1 0x0 DUP2 MLOAD SUB PUSH2 0x103F JUMPI PUSH1 0x40 MLOAD PUSH32 0xB2C1414000000000000000000000000000000000000000000000000000000000 DUP2 MSTORE PUSH1 0x4 ADD PUSH1 0x40 MLOAD DUP1 SWAP2 SUB SWAP1 REVERT JUMPDEST DUP1 MLOAD DUP2 PUSH1 0x20 ADD REVERT JUMPDEST DUP1 PUSH20 0xFFFFFFFFFFFFFFFFFFFFFFFFFFFFFFFFFFFFFFFF AND CALLER PUSH20 0xFFFFFFFFFFFFFFFFFFFFFFFFFFFFFFFFFFFFFFFF AND EQ PUSH2 0x10AC JUMPI PUSH1 0x40 MLOAD PUSH32 0xFCF5EFF800000000000000000000000000000000000000000000000000000000 DUP2 MSTORE PUSH1 0x4 ADD PUSH1 0x40 MLOAD DUP1 SWAP2 SUB SWAP1 REVERT JUMPDEST POP JUMPDEST PUSH1 0x0 PUSH1 0x2 PUSH1 0x0 DUP5 PUSH20 0xFFFFFFFFFFFFFFFFFFFFFFFFFFFFFFFFFFFFFFFF AND PUSH20 0xFFFFFFFFFFFFFFFFFFFFFFFFFFFFFFFFFFFFFFFF AND DUP2 MSTORE PUSH1 0x20 ADD SWAP1 DUP2 MSTORE PUSH1 0x20 ADD PUSH1 0x0 KECCAK256 PUSH1 0x0 SWAP1 SLOAD SWAP1 PUSH2 0x100 EXP SWAP1 DIV PUSH20 0xFFFFFFFFFFFFFFFFFFFFFFFFFFFFFFFFFFFFFFFF AND SWAP1 POP PUSH1 0x0 PUSH20 0xFFFFFFFFFFFFFFFFFFFFFFFFFFFFFFFFFFFFFFFF AND DUP2 PUSH20 0xFFFFFFFFFFFFFFFFFFFFFFFFFFFFFFFFFFFFFFFF AND SUB PUSH2 0x1183 JUMPI DUP3 PUSH1 0x40 MLOAD PUSH32 0xBFC6C33700000000000000000000000000000000000000000000000000000000 DUP2 MSTORE PUSH1 0x4 ADD PUSH2 0x117A SWAP2 SWAP1 PUSH2 0x4DAA JUMP JUMPDEST PUSH1 0x40 MLOAD DUP1 SWAP2 SUB SWAP1 REVERT JUMPDEST DUP3 PUSH20 0xFFFFFFFFFFFFFFFFFFFFFFFFFFFFFFFFFFFFFFFF AND DUP2 PUSH20 0xFFFFFFFFFFFFFFFFFFFFFFFFFFFFFFFFFFFFFFFF AND EQ PUSH2 0x1266 JUMPI PUSH2 0x1207 DUP4 PUSH1 0x3 PUSH1 0x0 DUP5 PUSH20 0xFFFFFFFFFFFFFFFFFFFFFFFFFFFFFFFFFFFFFFFF AND PUSH20 0xFFFFFFFFFFFFFFFFFFFFFFFFFFFFFFFFFFFFFFFF AND DUP2 MSTORE PUSH1 0x20 ADD SWAP1 DUP2 MSTORE PUSH1 0x20 ADD PUSH1 0x0 KECCAK256 PUSH2 0x4729 SWAP1 SWAP2 SWAP1 PUSH4 0xFFFFFFFF AND JUMP JUMPDEST POP PUSH1 0x0 ISZERO ISZERO DUP2 PUSH20 0xFFFFFFFFFFFFFFFFFFFFFFFFFFFFFFFFFFFFFFFF AND DUP5 PUSH20 0xFFFFFFFFFFFFFFFFFFFFFFFFFFFFFFFFFFFFFFFF AND PUSH31 0x38C54977604F1A5C0A3604CBBECD0153C81E3131799EAD95755E8BB5D5B9E8 PUSH1 0x40 MLOAD PUSH1 0x40 MLOAD DUP1 SWAP2 SUB SWAP1 LOG4 JUMPDEST PUSH1 0x0 PUSH1 0x2 PUSH1 0x0 DUP6 PUSH20 0xFFFFFFFFFFFFFFFFFFFFFFFFFFFFFFFFFFFFFFFF AND PUSH20 0xFFFFFFFFFFFFFFFFFFFFFFFFFFFFFFFFFFFFFFFF AND DUP2 MSTORE PUSH1 0x20 ADD SWAP1 DUP2 MSTORE PUSH1 0x20 ADD PUSH1 0x0 KECCAK256 PUSH1 0x0 PUSH2 0x100 EXP DUP2 SLOAD DUP2 PUSH20 0xFFFFFFFFFFFFFFFFFFFFFFFFFFFFFFFFFFFFFFFF MUL NOT AND SWAP1 DUP4 PUSH20 0xFFFFFFFFFFFFFFFFFFFFFFFFFFFFFFFFFFFFFFFF AND MUL OR SWAP1 SSTORE POP PUSH1 0x0 ISZERO ISZERO DUP4 PUSH20 0xFFFFFFFFFFFFFFFFFFFFFFFFFFFFFFFFFFFFFFFF AND PUSH32 0x86D03F430C7616021073D7A71766F632F1CE19F289AA989534D9F4732253EB59 PUSH1 0x40 MLOAD PUSH1 0x40 MLOAD DUP1 SWAP2 SUB SWAP1 LOG3 POP POP POP JUMP JUMPDEST DUP2 DUP1 PUSH20 0xFFFFFFFFFFFFFFFFFFFFFFFFFFFFFFFFFFFFFFFF AND CALLER PUSH20 0xFFFFFFFFFFFFFFFFFFFFFFFFFFFFFFFFFFFFFFFF AND EQ PUSH2 0x14AD JUMPI DUP1 PUSH20 0xFFFFFFFFFFFFFFFFFFFFFFFFFFFFFFFFFFFFFFFF AND PUSH4 0x8DA5CB5B PUSH1 0x40 MLOAD DUP2 PUSH4 0xFFFFFFFF AND PUSH1 0xE0 SHL DUP2 MSTORE PUSH1 0x4 ADD PUSH1 0x20 PUSH1 0x40 MLOAD DUP1 DUP4 SUB DUP2 DUP7 GAS STATICCALL SWAP3 POP POP POP DUP1 ISZERO PUSH2 0x13CD JUMPI POP PUSH1 0x40 MLOAD RETURNDATASIZE PUSH1 0x1F NOT PUSH1 0x1F DUP3 ADD AND DUP3 ADD DUP1 PUSH1 0x40 MSTORE POP DUP2 ADD SWAP1 PUSH2 0x13CA SWAP2 SWAP1 PUSH2 0x5160 JUMP JUMPDEST PUSH1 0x1 JUMPDEST PUSH2 0x1446 JUMPI RETURNDATASIZE DUP1 PUSH1 0x0 DUP2 EQ PUSH2 0x13FD JUMPI PUSH1 0x40 MLOAD SWAP2 POP PUSH1 0x1F NOT PUSH1 0x3F RETURNDATASIZE ADD AND DUP3 ADD PUSH1 0x40 MSTORE RETURNDATASIZE DUP3 MSTORE RETURNDATASIZE PUSH1 0x0 PUSH1 0x20 DUP5 ADD RETURNDATACOPY PUSH2 0x1402 JUMP JUMPDEST PUSH1 0x60 SWAP2 POP JUMPDEST POP PUSH1 0x0 DUP2 MLOAD SUB PUSH2 0x143E JUMPI PUSH1 0x40 MLOAD PUSH32 0xB2C1414000000000000000000000000000000000000000000000000000000000 DUP2 MSTORE PUSH1 0x4 ADD PUSH1 0x40 MLOAD DUP1 SWAP2 SUB SWAP1 REVERT JUMPDEST DUP1 MLOAD DUP2 PUSH1 0x20 ADD REVERT JUMPDEST DUP1 PUSH20 0xFFFFFFFFFFFFFFFFFFFFFFFFFFFFFFFFFFFFFFFF AND CALLER PUSH20 0xFFFFFFFFFFFFFFFFFFFFFFFFFFFFFFFFFFFFFFFF AND EQ PUSH2 0x14AB JUMPI PUSH1 0x40 MLOAD PUSH32 0xFCF5EFF800000000000000000000000000000000000000000000000000000000 DUP2 MSTORE PUSH1 0x4 ADD PUSH1 0x40 MLOAD DUP1 SWAP2 SUB SWAP1 REVERT JUMPDEST POP JUMPDEST PUSH1 0x0 PUSH1 0x2 PUSH1 0x0 DUP6 PUSH20 0xFFFFFFFFFFFFFFFFFFFFFFFFFFFFFFFFFFFFFFFF AND PUSH20 0xFFFFFFFFFFFFFFFFFFFFFFFFFFFFFFFFFFFFFFFF AND DUP2 MSTORE PUSH1 0x20 ADD SWAP1 DUP2 MSTORE PUSH1 0x20 ADD PUSH1 0x0 KECCAK256 PUSH1 0x0 SWAP1 SLOAD SWAP1 PUSH2 0x100 EXP SWAP1 DIV PUSH20 0xFFFFFFFFFFFFFFFFFFFFFFFFFFFFFFFFFFFFFFFF AND SWAP1 POP PUSH1 0x0 PUSH20 0xFFFFFFFFFFFFFFFFFFFFFFFFFFFFFFFFFFFFFFFF AND DUP2 PUSH20 0xFFFFFFFFFFFFFFFFFFFFFFFFFFFFFFFFFFFFFFFF AND SUB PUSH2 0x1582 JUMPI DUP4 PUSH1 0x40 MLOAD PUSH32 0xBFC6C33700000000000000000000000000000000000000000000000000000000 DUP2 MSTORE PUSH1 0x4 ADD PUSH2 0x1579 SWAP2 SWAP1 PUSH2 0x4DAA JUMP JUMPDEST PUSH1 0x40 MLOAD DUP1 SWAP2 SUB SWAP1 REVERT JUMPDEST DUP4 PUSH20 0xFFFFFFFFFFFFFFFFFFFFFFFFFFFFFFFFFFFFFFFF AND DUP2 PUSH20 0xFFFFFFFFFFFFFFFFFFFFFFFFFFFFFFFFFFFFFFFF AND SUB PUSH2 0x15E7 JUMPI PUSH1 0x40 MLOAD PUSH32 0x237E6C2800000000000000000000000000000000000000000000000000000000 DUP2 MSTORE PUSH1 0x4 ADD PUSH1 0x40 MLOAD DUP1 SWAP2 SUB SWAP1 REVERT JUMPDEST PUSH2 0x1638 DUP5 PUSH1 0x3 PUSH1 0x0 DUP5 PUSH20 0xFFFFFFFFFFFFFFFFFFFFFFFFFFFFFFFFFFFFFFFF AND PUSH20 0xFFFFFFFFFFFFFFFFFFFFFFFFFFFFFFFFFFFFFFFF AND DUP2 MSTORE PUSH1 0x20 ADD SWAP1 DUP2 MSTORE PUSH1 0x20 ADD PUSH1 0x0 KECCAK256 PUSH2 0x4729 SWAP1 SWAP2 SWAP1 PUSH4 0xFFFFFFFF AND JUMP JUMPDEST POP DUP4 PUSH1 0x2 PUSH1 0x0 DUP7 PUSH20 0xFFFFFFFFFFFFFFFFFFFFFFFFFFFFFFFFFFFFFFFF AND PUSH20 0xFFFFFFFFFFFFFFFFFFFFFFFFFFFFFFFFFFFFFFFF AND DUP2 MSTORE PUSH1 0x20 ADD SWAP1 DUP2 MSTORE PUSH1 0x20 ADD PUSH1 0x0 KECCAK256 PUSH1 0x0 PUSH2 0x100 EXP DUP2 SLOAD DUP2 PUSH20 0xFFFFFFFFFFFFFFFFFFFFFFFFFFFFFFFFFFFFFFFF MUL NOT AND SWAP1 DUP4 PUSH20 0xFFFFFFFFFFFFFFFFFFFFFFFFFFFFFFFFFFFFFFFF AND MUL OR SWAP1 SSTORE POP PUSH1 0x0 ISZERO ISZERO DUP2 PUSH20 0xFFFFFFFFFFFFFFFFFFFFFFFFFFFFFFFFFFFFFFFF AND DUP6 PUSH20 0xFFFFFFFFFFFFFFFFFFFFFFFFFFFFFFFFFFFFFFFF AND PUSH31 0x38C54977604F1A5C0A3604CBBECD0153C81E3131799EAD95755E8BB5D5B9E8 PUSH1 0x40 MLOAD PUSH1 0x40 MLOAD DUP1 SWAP2 SUB SWAP1 LOG4 DUP3 ISZERO PUSH2 0x1725 JUMPI PUSH2 0x1724 DUP5 DUP3 PUSH2 0x44A4 JUMP JUMPDEST JUMPDEST POP POP POP POP JUMP JUMPDEST PUSH1 0x0 PUSH1 0x2 PUSH1 0x0 DUP4 PUSH20 0xFFFFFFFFFFFFFFFFFFFFFFFFFFFFFFFFFFFFFFFF AND PUSH20 0xFFFFFFFFFFFFFFFFFFFFFFFFFFFFFFFFFFFFFFFF AND DUP2 MSTORE PUSH1 0x20 ADD SWAP1 DUP2 MSTORE PUSH1 0x20 ADD PUSH1 0x0 KECCAK256 PUSH1 0x0 SWAP1 SLOAD SWAP1 PUSH2 0x100 EXP SWAP1 DIV PUSH20 0xFFFFFFFFFFFFFFFFFFFFFFFFFFFFFFFFFFFFFFFF AND SWAP1 POP PUSH1 0x0 PUSH20 0xFFFFFFFFFFFFFFFFFFFFFFFFFFFFFFFFFFFFFFFF AND DUP2 PUSH20 0xFFFFFFFFFFFFFFFFFFFFFFFFFFFFFFFFFFFFFFFF AND SUB PUSH2 0x1800 JUMPI DUP2 PUSH1 0x40 MLOAD PUSH32 0xBFC6C33700000000000000000000000000000000000000000000000000000000 DUP2 MSTORE PUSH1 0x4 ADD PUSH2 0x17F7 SWAP2 SWAP1 PUSH2 0x4DAA JUMP JUMPDEST PUSH1 0x40 MLOAD DUP1 SWAP2 SUB SWAP1 REVERT JUMPDEST DUP2 PUSH20 0xFFFFFFFFFFFFFFFFFFFFFFFFFFFFFFFFFFFFFFFF AND DUP2 PUSH20 0xFFFFFFFFFFFFFFFFFFFFFFFFFFFFFFFFFFFFFFFF AND SUB PUSH2 0x1838 JUMPI PUSH1 0x0 SWAP1 POP JUMPDEST SWAP2 SWAP1 POP JUMP JUMPDEST PUSH1 0x0 DUP1 PUSH1 0x2 PUSH1 0x0 DUP6 PUSH20 0xFFFFFFFFFFFFFFFFFFFFFFFFFFFFFFFFFFFFFFFF AND PUSH20 0xFFFFFFFFFFFFFFFFFFFFFFFFFFFFFFFFFFFFFFFF AND DUP2 MSTORE PUSH1 0x20 ADD SWAP1 DUP2 MSTORE PUSH1 0x20 ADD PUSH1 0x0 KECCAK256 PUSH1 0x0 SWAP1 SLOAD SWAP1 PUSH2 0x100 EXP SWAP1 DIV PUSH20 0xFFFFFFFFFFFFFFFFFFFFFFFFFFFFFFFFFFFFFFFF AND SWAP1 POP DUP4 PUSH20 0xFFFFFFFFFFFFFFFFFFFFFFFFFFFFFFFFFFFFFFFF AND DUP2 PUSH20 0xFFFFFFFFFFFFFFFFFFFFFFFFFFFFFFFFFFFFFFFF AND EQ PUSH2 0x192D JUMPI PUSH2 0x1925 DUP4 PUSH1 0x0 DUP1 DUP5 PUSH20 0xFFFFFFFFFFFFFFFFFFFFFFFFFFFFFFFFFFFFFFFF AND PUSH20 0xFFFFFFFFFFFFFFFFFFFFFFFFFFFFFFFFFFFFFFFF AND DUP2 MSTORE PUSH1 0x20 ADD SWAP1 DUP2 MSTORE PUSH1 0x20 ADD PUSH1 0x0 KECCAK256 PUSH2 0x4759 SWAP1 SWAP2 SWAP1 PUSH4 0xFFFFFFFF AND JUMP JUMPDEST SWAP2 POP POP PUSH2 0x1981 JUMP JUMPDEST PUSH2 0x197D DUP4 PUSH1 0x0 DUP1 DUP8 PUSH20 0xFFFFFFFFFFFFFFFFFFFFFFFFFFFFFFFFFFFFFFFF AND PUSH20 0xFFFFFFFFFFFFFFFFFFFFFFFFFFFFFFFFFFFFFFFF AND DUP2 MSTORE PUSH1 0x20 ADD SWAP1 DUP2 MSTORE PUSH1 0x20 ADD PUSH1 0x0 KECCAK256 PUSH2 0x4759 SWAP1 SWAP2 SWAP1 PUSH4 0xFFFFFFFF AND JUMP JUMPDEST SWAP2 POP POP JUMPDEST SWAP3 SWAP2 POP POP JUMP JUMPDEST DUP1 DUP1 PUSH20 0xFFFFFFFFFFFFFFFFFFFFFFFFFFFFFFFFFFFFFFFF AND CALLER PUSH20 0xFFFFFFFFFFFFFFFFFFFFFFFFFFFFFFFFFFFFFFFF AND EQ PUSH2 0x1B03 JUMPI DUP1 PUSH20 0xFFFFFFFFFFFFFFFFFFFFFFFFFFFFFFFFFFFFFFFF AND PUSH4 0x8DA5CB5B PUSH1 0x40 MLOAD DUP2 PUSH4 0xFFFFFFFF AND PUSH1 0xE0 SHL DUP2 MSTORE PUSH1 0x4 ADD PUSH1 0x20 PUSH1 0x40 MLOAD DUP1 DUP4 SUB DUP2 DUP7 GAS STATICCALL SWAP3 POP POP POP DUP1 ISZERO PUSH2 0x1A23 JUMPI POP PUSH1 0x40 MLOAD RETURNDATASIZE PUSH1 0x1F NOT PUSH1 0x1F DUP3 ADD AND DUP3 ADD DUP1 PUSH1 0x40 MSTORE POP DUP2 ADD SWAP1 PUSH2 0x1A20 SWAP2 SWAP1 PUSH2 0x5160 JUMP JUMPDEST PUSH1 0x1 JUMPDEST PUSH2 0x1A9C JUMPI RETURNDATASIZE DUP1 PUSH1 0x0 DUP2 EQ PUSH2 0x1A53 JUMPI PUSH1 0x40 MLOAD SWAP2 POP PUSH1 0x1F NOT PUSH1 0x3F RETURNDATASIZE ADD AND DUP3 ADD PUSH1 0x40 MSTORE RETURNDATASIZE DUP3 MSTORE RETURNDATASIZE PUSH1 0x0 PUSH1 0x20 DUP5 ADD RETURNDATACOPY PUSH2 0x1A58 JUMP JUMPDEST PUSH1 0x60 SWAP2 POP JUMPDEST POP PUSH1 0x0 DUP2 MLOAD SUB PUSH2 0x1A94 JUMPI PUSH1 0x40 MLOAD PUSH32 0xB2C1414000000000000000000000000000000000000000000000000000000000 DUP2 MSTORE PUSH1 0x4 ADD PUSH1 0x40 MLOAD DUP1 SWAP2 SUB SWAP1 REVERT JUMPDEST DUP1 MLOAD DUP2 PUSH1 0x20 ADD REVERT JUMPDEST DUP1 PUSH20 0xFFFFFFFFFFFFFFFFFFFFFFFFFFFFFFFFFFFFFFFF AND CALLER PUSH20 0xFFFFFFFFFFFFFFFFFFFFFFFFFFFFFFFFFFFFFFFF AND EQ PUSH2 0x1B01 JUMPI PUSH1 0x40 MLOAD PUSH32 0xFCF5EFF800000000000000000000000000000000000000000000000000000000 DUP2 MSTORE PUSH1 0x4 ADD PUSH1 0x40 MLOAD DUP1 SWAP2 SUB SWAP1 REVERT JUMPDEST POP JUMPDEST PUSH1 0x0 PUSH20 0xFFFFFFFFFFFFFFFFFFFFFFFFFFFFFFFFFFFFFFFF AND PUSH1 0x2 PUSH1 0x0 DUP5 PUSH20 0xFFFFFFFFFFFFFFFFFFFFFFFFFFFFFFFFFFFFFFFF AND PUSH20 0xFFFFFFFFFFFFFFFFFFFFFFFFFFFFFFFFFFFFFFFF AND DUP2 MSTORE PUSH1 0x20 ADD SWAP1 DUP2 MSTORE PUSH1 0x20 ADD PUSH1 0x0 KECCAK256 PUSH1 0x0 SWAP1 SLOAD SWAP1 PUSH2 0x100 EXP SWAP1 DIV PUSH20 0xFFFFFFFFFFFFFFFFFFFFFFFFFFFFFFFFFFFFFFFF AND PUSH20 0xFFFFFFFFFFFFFFFFFFFFFFFFFFFFFFFFFFFFFFFF AND EQ PUSH2 0x1BC8 JUMPI PUSH1 0x40 MLOAD PUSH32 0x3A81D6FC00000000000000000000000000000000000000000000000000000000 DUP2 MSTORE PUSH1 0x4 ADD PUSH1 0x40 MLOAD DUP1 SWAP2 SUB SWAP1 REVERT JUMPDEST DUP2 PUSH1 0x2 PUSH1 0x0 DUP5 PUSH20 0xFFFFFFFFFFFFFFFFFFFFFFFFFFFFFFFFFFFFFFFF AND PUSH20 0xFFFFFFFFFFFFFFFFFFFFFFFFFFFFFFFFFFFFFFFF AND DUP2 MSTORE PUSH1 0x20 ADD SWAP1 DUP2 MSTORE PUSH1 0x20 ADD PUSH1 0x0 KECCAK256 PUSH1 0x0 PUSH2 0x100 EXP DUP2 SLOAD DUP2 PUSH20 0xFFFFFFFFFFFFFFFFFFFFFFFFFFFFFFFFFFFFFFFF MUL NOT AND SWAP1 DUP4 PUSH20 0xFFFFFFFFFFFFFFFFFFFFFFFFFFFFFFFFFFFFFFFF AND MUL OR SWAP1 SSTORE POP PUSH1 0x1 ISZERO ISZERO DUP3 PUSH20 0xFFFFFFFFFFFFFFFFFFFFFFFFFFFFFFFFFFFFFFFF AND PUSH32 0x86D03F430C7616021073D7A71766F632F1CE19F289AA989534D9F4732253EB59 PUSH1 0x40 MLOAD PUSH1 0x40 MLOAD DUP1 SWAP2 SUB SWAP1 LOG3 POP POP JUMP JUMPDEST PUSH1 0x0 PUSH2 0x1CE4 DUP3 PUSH1 0x3 PUSH1 0x0 DUP7 PUSH20 0xFFFFFFFFFFFFFFFFFFFFFFFFFFFFFFFFFFFFFFFF AND PUSH20 0xFFFFFFFFFFFFFFFFFFFFFFFFFFFFFFFFFFFFFFFF AND DUP2 MSTORE PUSH1 0x20 ADD SWAP1 DUP2 MSTORE PUSH1 0x20 ADD PUSH1 0x0 KECCAK256 PUSH2 0x4759 SWAP1 SWAP2 SWAP1 PUSH4 0xFFFFFFFF AND JUMP JUMPDEST SWAP1 POP SWAP3 SWAP2 POP POP JUMP JUMPDEST PUSH1 0x60 PUSH2 0x1D35 PUSH1 0x3 PUSH1 0x0 DUP5 PUSH20 0xFFFFFFFFFFFFFFFFFFFFFFFFFFFFFFFFFFFFFFFF AND PUSH20 0xFFFFFFFFFFFFFFFFFFFFFFFFFFFFFFFFFFFFFFFF AND DUP2 MSTORE PUSH1 0x20 ADD SWAP1 DUP2 MSTORE PUSH1 0x20 ADD PUSH1 0x0 KECCAK256 PUSH2 0x4773 JUMP JUMPDEST SWAP1 POP SWAP2 SWAP1 POP JUMP JUMPDEST PUSH1 0x0 DUP1 DUP3 PUSH20 0xFFFFFFFFFFFFFFFFFFFFFFFFFFFFFFFFFFFFFFFF AND EXTCODEHASH SWAP1 POP PUSH1 0x0 PUSH1 0x2 PUSH1 0x0 DUP7 PUSH20 0xFFFFFFFFFFFFFFFFFFFFFFFFFFFFFFFFFFFFFFFF AND PUSH20 0xFFFFFFFFFFFFFFFFFFFFFFFFFFFFFFFFFFFFFFFF AND DUP2 MSTORE PUSH1 0x20 ADD SWAP1 DUP2 MSTORE PUSH1 0x20 ADD PUSH1 0x0 KECCAK256 PUSH1 0x0 SWAP1 SLOAD SWAP1 PUSH2 0x100 EXP SWAP1 DIV PUSH20 0xFFFFFFFFFFFFFFFFFFFFFFFFFFFFFFFFFFFFFFFF AND SWAP1 POP DUP5 PUSH20 0xFFFFFFFFFFFFFFFFFFFFFFFFFFFFFFFFFFFFFFFF AND DUP2 PUSH20 0xFFFFFFFFFFFFFFFFFFFFFFFFFFFFFFFFFFFFFFFF AND EQ PUSH2 0x1E4A JUMPI PUSH2 0x1E41 DUP3 PUSH1 0x1 PUSH1 0x0 DUP5 PUSH20 0xFFFFFFFFFFFFFFFFFFFFFFFFFFFFFFFFFFFFFFFF AND PUSH20 0xFFFFFFFFFFFFFFFFFFFFFFFFFFFFFFFFFFFFFFFF AND DUP2 MSTORE PUSH1 0x20 ADD SWAP1 DUP2 MSTORE PUSH1 0x20 ADD PUSH1 0x0 KECCAK256 PUSH2 0x4794 SWAP1 SWAP2 SWAP1 PUSH4 0xFFFFFFFF AND JUMP JUMPDEST SWAP3 POP POP POP PUSH2 0x1EA0 JUMP JUMPDEST PUSH2 0x1E9B DUP3 PUSH1 0x1 PUSH1 0x0 DUP9 PUSH20 0xFFFFFFFFFFFFFFFFFFFFFFFFFFFFFFFFFFFFFFFF AND PUSH20 0xFFFFFFFFFFFFFFFFFFFFFFFFFFFFFFFFFFFFFFFF AND DUP2 MSTORE PUSH1 0x20 ADD SWAP1 DUP2 MSTORE PUSH1 0x20 ADD PUSH1 0x0 KECCAK256 PUSH2 0x4794 SWAP1 SWAP2 SWAP1 PUSH4 0xFFFFFFFF AND JUMP JUMPDEST SWAP3 POP POP POP JUMPDEST SWAP3 SWAP2 POP POP JUMP JUMPDEST PUSH1 0x0 DUP1 PUSH1 0x2 PUSH1 0x0 DUP6 PUSH20 0xFFFFFFFFFFFFFFFFFFFFFFFFFFFFFFFFFFFFFFFF AND PUSH20 0xFFFFFFFFFFFFFFFFFFFFFFFFFFFFFFFFFFFFFFFF AND DUP2 MSTORE PUSH1 0x20 ADD SWAP1 DUP2 MSTORE PUSH1 0x20 ADD PUSH1 0x0 KECCAK256 PUSH1 0x0 SWAP1 SLOAD SWAP1 PUSH2 0x100 EXP SWAP1 DIV PUSH20 0xFFFFFFFFFFFFFFFFFFFFFFFFFFFFFFFFFFFFFFFF AND SWAP1 POP DUP4 PUSH20 0xFFFFFFFFFFFFFFFFFFFFFFFFFFFFFFFFFFFFFFFF AND DUP2 PUSH20 0xFFFFFFFFFFFFFFFFFFFFFFFFFFFFFFFFFFFFFFFF AND EQ PUSH2 0x1F97 JUMPI PUSH2 0x1F8F DUP4 PUSH1 0x1 PUSH1 0x0 DUP5 PUSH20 0xFFFFFFFFFFFFFFFFFFFFFFFFFFFFFFFFFFFFFFFF AND PUSH20 0xFFFFFFFFFFFFFFFFFFFFFFFFFFFFFFFFFFFFFFFF AND DUP2 MSTORE PUSH1 0x20 ADD SWAP1 DUP2 MSTORE PUSH1 0x20 ADD PUSH1 0x0 KECCAK256 PUSH2 0x4794 SWAP1 SWAP2 SWAP1 PUSH4 0xFFFFFFFF AND JUMP JUMPDEST SWAP2 POP POP PUSH2 0x1FEC JUMP JUMPDEST PUSH2 0x1FE8 DUP4 PUSH1 0x1 PUSH1 0x0 DUP8 PUSH20 0xFFFFFFFFFFFFFFFFFFFFFFFFFFFFFFFFFFFFFFFF AND PUSH20 0xFFFFFFFFFFFFFFFFFFFFFFFFFFFFFFFFFFFFFFFF AND DUP2 MSTORE PUSH1 0x20 ADD SWAP1 DUP2 MSTORE PUSH1 0x20 ADD PUSH1 0x0 KECCAK256 PUSH2 0x4794 SWAP1 SWAP2 SWAP1 PUSH4 0xFFFFFFFF AND JUMP JUMPDEST SWAP2 POP POP JUMPDEST SWAP3 SWAP2 POP POP JUMP JUMPDEST DUP3 DUP1 PUSH20 0xFFFFFFFFFFFFFFFFFFFFFFFFFFFFFFFFFFFFFFFF AND CALLER PUSH20 0xFFFFFFFFFFFFFFFFFFFFFFFFFFFFFFFFFFFFFFFF AND EQ PUSH2 0x216E JUMPI DUP1 PUSH20 0xFFFFFFFFFFFFFFFFFFFFFFFFFFFFFFFFFFFFFFFF AND PUSH4 0x8DA5CB5B PUSH1 0x40 MLOAD DUP2 PUSH4 0xFFFFFFFF AND PUSH1 0xE0 SHL DUP2 MSTORE PUSH1 0x4 ADD PUSH1 0x20 PUSH1 0x40 MLOAD DUP1 DUP4 SUB DUP2 DUP7 GAS STATICCALL SWAP3 POP POP POP DUP1 ISZERO PUSH2 0x208E JUMPI POP PUSH1 0x40 MLOAD RETURNDATASIZE PUSH1 0x1F NOT PUSH1 0x1F DUP3 ADD AND DUP3 ADD DUP1 PUSH1 0x40 MSTORE POP DUP2 ADD SWAP1 PUSH2 0x208B SWAP2 SWAP1 PUSH2 0x5160 JUMP JUMPDEST PUSH1 0x1 JUMPDEST PUSH2 0x2107 JUMPI RETURNDATASIZE DUP1 PUSH1 0x0 DUP2 EQ PUSH2 0x20BE JUMPI PUSH1 0x40 MLOAD SWAP2 POP PUSH1 0x1F NOT PUSH1 0x3F RETURNDATASIZE ADD AND DUP3 ADD PUSH1 0x40 MSTORE RETURNDATASIZE DUP3 MSTORE RETURNDATASIZE PUSH1 0x0 PUSH1 0x20 DUP5 ADD RETURNDATACOPY PUSH2 0x20C3 JUMP JUMPDEST PUSH1 0x60 SWAP2 POP JUMPDEST POP PUSH1 0x0 DUP2 MLOAD SUB PUSH2 0x20FF JUMPI PUSH1 0x40 MLOAD PUSH32 0xB2C1414000000000000000000000000000000000000000000000000000000000 DUP2 MSTORE PUSH1 0x4 ADD PUSH1 0x40 MLOAD DUP1 SWAP2 SUB SWAP1 REVERT JUMPDEST DUP1 MLOAD DUP2 PUSH1 0x20 ADD REVERT JUMPDEST DUP1 PUSH20 0xFFFFFFFFFFFFFFFFFFFFFFFFFFFFFFFFFFFFFFFF AND CALLER PUSH20 0xFFFFFFFFFFFFFFFFFFFFFFFFFFFFFFFFFFFFFFFF AND EQ PUSH2 0x216C JUMPI PUSH1 0x40 MLOAD PUSH32 0xFCF5EFF800000000000000000000000000000000000000000000000000000000 DUP2 MSTORE PUSH1 0x4 ADD PUSH1 0x40 MLOAD DUP1 SWAP2 SUB SWAP1 REVERT JUMPDEST POP JUMPDEST PUSH32 0xC5D2460186F7233C927E7DB2DCC703C0E500B653CA82273B7BFAD8045D85A470 DUP4 SUB PUSH2 0x21C7 JUMPI PUSH1 0x40 MLOAD PUSH32 0xF575EAD800000000000000000000000000000000000000000000000000000000 DUP2 MSTORE PUSH1 0x4 ADD PUSH1 0x40 MLOAD DUP1 SWAP2 SUB SWAP1 REVERT JUMPDEST PUSH1 0x0 PUSH1 0x2 PUSH1 0x0 DUP7 PUSH20 0xFFFFFFFFFFFFFFFFFFFFFFFFFFFFFFFFFFFFFFFF AND PUSH20 0xFFFFFFFFFFFFFFFFFFFFFFFFFFFFFFFFFFFFFFFF AND DUP2 MSTORE PUSH1 0x20 ADD SWAP1 DUP2 MSTORE PUSH1 0x20 ADD PUSH1 0x0 KECCAK256 PUSH1 0x0 SWAP1 SLOAD SWAP1 PUSH2 0x100 EXP SWAP1 DIV PUSH20 0xFFFFFFFFFFFFFFFFFFFFFFFFFFFFFFFFFFFFFFFF AND SWAP1 POP PUSH1 0x0 PUSH20 0xFFFFFFFFFFFFFFFFFFFFFFFFFFFFFFFFFFFFFFFF AND DUP2 PUSH20 0xFFFFFFFFFFFFFFFFFFFFFFFFFFFFFFFFFFFFFFFF AND SUB PUSH2 0x229C JUMPI DUP5 PUSH1 0x40 MLOAD PUSH32 0xBFC6C33700000000000000000000000000000000000000000000000000000000 DUP2 MSTORE PUSH1 0x4 ADD PUSH2 0x2293 SWAP2 SWAP1 PUSH2 0x4DAA JUMP JUMPDEST PUSH1 0x40 MLOAD DUP1 SWAP2 SUB SWAP1 REVERT JUMPDEST DUP5 PUSH20 0xFFFFFFFFFFFFFFFFFFFFFFFFFFFFFFFFFFFFFFFF AND DUP2 PUSH20 0xFFFFFFFFFFFFFFFFFFFFFFFFFFFFFFFFFFFFFFFF AND EQ PUSH2 0x230C JUMPI DUP1 PUSH1 0x40 MLOAD PUSH32 0x4AF4D6900000000000000000000000000000000000000000000000000000000 DUP2 MSTORE PUSH1 0x4 ADD PUSH2 0x2303 SWAP2 SWAP1 PUSH2 0x4DAA JUMP JUMPDEST PUSH1 0x40 MLOAD DUP1 SWAP2 SUB SWAP1 REVERT JUMPDEST PUSH1 0x0 PUSH1 0x1 PUSH1 0x0 DUP8 PUSH20 0xFFFFFFFFFFFFFFFFFFFFFFFFFFFFFFFFFFFFFFFF AND PUSH20 0xFFFFFFFFFFFFFFFFFFFFFFFFFFFFFFFFFFFFFFFF AND DUP2 MSTORE PUSH1 0x20 ADD SWAP1 DUP2 MSTORE PUSH1 0x20 ADD PUSH1 0x0 KECCAK256 SWAP1 POP DUP4 PUSH2 0x23B3 JUMPI PUSH1 0x0 PUSH2 0x2369 DUP7 DUP4 PUSH2 0x4476 SWAP1 SWAP2 SWAP1 PUSH4 0xFFFFFFFF AND JUMP JUMPDEST SWAP1 POP DUP1 PUSH2 0x23AD JUMPI DUP6 PUSH1 0x40 MLOAD PUSH32 0x478730A800000000000000000000000000000000000000000000000000000000 DUP2 MSTORE PUSH1 0x4 ADD PUSH2 0x23A4 SWAP2 SWAP1 PUSH2 0x5130 JUMP JUMPDEST PUSH1 0x40 MLOAD DUP1 SWAP2 SUB SWAP1 REVERT JUMPDEST POP PUSH2 0x240E JUMP JUMPDEST PUSH1 0x0 PUSH2 0x23C8 DUP7 DUP4 PUSH2 0x448D SWAP1 SWAP2 SWAP1 PUSH4 0xFFFFFFFF AND JUMP JUMPDEST SWAP1 POP DUP1 PUSH2 0x240C JUMPI DUP6 PUSH1 0x40 MLOAD PUSH32 0x186BEA0000000000000000000000000000000000000000000000000000000000 DUP2 MSTORE PUSH1 0x4 ADD PUSH2 0x2403 SWAP2 SWAP1 PUSH2 0x5130 JUMP JUMPDEST PUSH1 0x40 MLOAD DUP1 SWAP2 SUB SWAP1 REVERT JUMPDEST POP JUMPDEST DUP4 ISZERO ISZERO DUP6 DUP8 PUSH20 0xFFFFFFFFFFFFFFFFFFFFFFFFFFFFFFFFFFFFFFFF AND PUSH32 0xB8036058BAFEA884AABC446CA15619FD86F5464A4AD96F64164AD6F77444354D PUSH1 0x40 MLOAD PUSH1 0x40 MLOAD DUP1 SWAP2 SUB SWAP1 LOG4 POP POP POP POP POP POP JUMP JUMPDEST DUP2 DUP1 PUSH20 0xFFFFFFFFFFFFFFFFFFFFFFFFFFFFFFFFFFFFFFFF AND CALLER PUSH20 0xFFFFFFFFFFFFFFFFFFFFFFFFFFFFFFFFFFFFFFFF AND EQ PUSH2 0x25D9 JUMPI DUP1 PUSH20 0xFFFFFFFFFFFFFFFFFFFFFFFFFFFFFFFFFFFFFFFF AND PUSH4 0x8DA5CB5B PUSH1 0x40 MLOAD DUP2 PUSH4 0xFFFFFFFF AND PUSH1 0xE0 SHL DUP2 MSTORE PUSH1 0x4 ADD PUSH1 0x20 PUSH1 0x40 MLOAD DUP1 DUP4 SUB DUP2 DUP7 GAS STATICCALL SWAP3 POP POP POP DUP1 ISZERO PUSH2 0x24F9 JUMPI POP PUSH1 0x40 MLOAD RETURNDATASIZE PUSH1 0x1F NOT PUSH1 0x1F DUP3 ADD AND DUP3 ADD DUP1 PUSH1 0x40 MSTORE POP DUP2 ADD SWAP1 PUSH2 0x24F6 SWAP2 SWAP1 PUSH2 0x5160 JUMP JUMPDEST PUSH1 0x1 JUMPDEST PUSH2 0x2572 JUMPI RETURNDATASIZE DUP1 PUSH1 0x0 DUP2 EQ PUSH2 0x2529 JUMPI PUSH1 0x40 MLOAD SWAP2 POP PUSH1 0x1F NOT PUSH1 0x3F RETURNDATASIZE ADD AND DUP3 ADD PUSH1 0x40 MSTORE RETURNDATASIZE DUP3 MSTORE RETURNDATASIZE PUSH1 0x0 PUSH1 0x20 DUP5 ADD RETURNDATACOPY PUSH2 0x252E JUMP JUMPDEST PUSH1 0x60 SWAP2 POP JUMPDEST POP PUSH1 0x0 DUP2 MLOAD SUB PUSH2 0x256A JUMPI PUSH1 0x40 MLOAD PUSH32 0xB2C1414000000000000000000000000000000000000000000000000000000000 DUP2 MSTORE PUSH1 0x4 ADD PUSH1 0x40 MLOAD DUP1 SWAP2 SUB SWAP1 REVERT JUMPDEST DUP1 MLOAD DUP2 PUSH1 0x20 ADD REVERT JUMPDEST DUP1 PUSH20 0xFFFFFFFFFFFFFFFFFFFFFFFFFFFFFFFFFFFFFFFF AND CALLER PUSH20 0xFFFFFFFFFFFFFFFFFFFFFFFFFFFFFFFFFFFFFFFF AND EQ PUSH2 0x25D7 JUMPI PUSH1 0x40 MLOAD PUSH32 0xFCF5EFF800000000000000000000000000000000000000000000000000000000 DUP2 MSTORE PUSH1 0x4 ADD PUSH1 0x40 MLOAD DUP1 SWAP2 SUB SWAP1 REVERT JUMPDEST POP JUMPDEST PUSH1 0x0 PUSH1 0x2 PUSH1 0x0 DUP6 PUSH20 0xFFFFFFFFFFFFFFFFFFFFFFFFFFFFFFFFFFFFFFFF AND PUSH20 0xFFFFFFFFFFFFFFFFFFFFFFFFFFFFFFFFFFFFFFFF AND DUP2 MSTORE PUSH1 0x20 ADD SWAP1 DUP2 MSTORE PUSH1 0x20 ADD PUSH1 0x0 KECCAK256 PUSH1 0x0 SWAP1 SLOAD SWAP1 PUSH2 0x100 EXP SWAP1 DIV PUSH20 0xFFFFFFFFFFFFFFFFFFFFFFFFFFFFFFFFFFFFFFFF AND SWAP1 POP PUSH1 0x0 PUSH20 0xFFFFFFFFFFFFFFFFFFFFFFFFFFFFFFFFFFFFFFFF AND DUP2 PUSH20 0xFFFFFFFFFFFFFFFFFFFFFFFFFFFFFFFFFFFFFFFF AND EQ PUSH2 0x26A3 JUMPI PUSH1 0x40 MLOAD PUSH32 0x3A81D6FC00000000000000000000000000000000000000000000000000000000 DUP2 MSTORE PUSH1 0x4 ADD PUSH1 0x40 MLOAD DUP1 SWAP2 SUB SWAP1 REVERT JUMPDEST DUP3 PUSH20 0xFFFFFFFFFFFFFFFFFFFFFFFFFFFFFFFFFFFFFFFF AND DUP5 PUSH20 0xFFFFFFFFFFFFFFFFFFFFFFFFFFFFFFFFFFFFFFFF AND SUB PUSH2 0x2708 JUMPI PUSH1 0x40 MLOAD PUSH32 0x347F118F00000000000000000000000000000000000000000000000000000000 DUP2 MSTORE PUSH1 0x4 ADD PUSH1 0x40 MLOAD DUP1 SWAP2 SUB SWAP1 REVERT JUMPDEST PUSH1 0x0 PUSH1 0x2 PUSH1 0x0 DUP6 PUSH20 0xFFFFFFFFFFFFFFFFFFFFFFFFFFFFFFFFFFFFFFFF AND PUSH20 0xFFFFFFFFFFFFFFFFFFFFFFFFFFFFFFFFFFFFFFFF AND DUP2 MSTORE PUSH1 0x20 ADD SWAP1 DUP2 MSTORE PUSH1 0x20 ADD PUSH1 0x0 KECCAK256 PUSH1 0x0 SWAP1 SLOAD SWAP1 PUSH2 0x100 EXP SWAP1 DIV PUSH20 0xFFFFFFFFFFFFFFFFFFFFFFFFFFFFFFFFFFFFFFFF AND SWAP1 POP PUSH1 0x0 PUSH20 0xFFFFFFFFFFFFFFFFFFFFFFFFFFFFFFFFFFFFFFFF AND DUP2 PUSH20 0xFFFFFFFFFFFFFFFFFFFFFFFFFFFFFFFFFFFFFFFF AND SUB PUSH2 0x27DD JUMPI DUP4 PUSH1 0x40 MLOAD PUSH32 0xBFC6C33700000000000000000000000000000000000000000000000000000000 DUP2 MSTORE PUSH1 0x4 ADD PUSH2 0x27D4 SWAP2 SWAP1 PUSH2 0x4DAA JUMP JUMPDEST PUSH1 0x40 MLOAD DUP1 SWAP2 SUB SWAP1 REVERT JUMPDEST DUP4 PUSH20 0xFFFFFFFFFFFFFFFFFFFFFFFFFFFFFFFFFFFFFFFF AND DUP2 PUSH20 0xFFFFFFFFFFFFFFFFFFFFFFFFFFFFFFFFFFFFFFFF AND EQ PUSH2 0x284D JUMPI DUP4 PUSH1 0x40 MLOAD PUSH32 0x768E549C00000000000000000000000000000000000000000000000000000000 DUP2 MSTORE PUSH1 0x4 ADD PUSH2 0x2844 SWAP2 SWAP1 PUSH2 0x4DAA JUMP JUMPDEST PUSH1 0x40 MLOAD DUP1 SWAP2 SUB SWAP1 REVERT JUMPDEST DUP4 PUSH1 0x2 PUSH1 0x0 DUP8 PUSH20 0xFFFFFFFFFFFFFFFFFFFFFFFFFFFFFFFFFFFFFFFF AND PUSH20 0xFFFFFFFFFFFFFFFFFFFFFFFFFFFFFFFFFFFFFFFF AND DUP2 MSTORE PUSH1 0x20 ADD SWAP1 DUP2 MSTORE PUSH1 0x20 ADD PUSH1 0x0 KECCAK256 PUSH1 0x0 PUSH2 0x100 EXP DUP2 SLOAD DUP2 PUSH20 0xFFFFFFFFFFFFFFFFFFFFFFFFFFFFFFFFFFFFFFFF MUL NOT AND SWAP1 DUP4 PUSH20 0xFFFFFFFFFFFFFFFFFFFFFFFFFFFFFFFFFFFFFFFF AND MUL OR SWAP1 SSTORE POP PUSH2 0x291C DUP6 PUSH1 0x3 PUSH1 0x0 DUP8 PUSH20 0xFFFFFFFFFFFFFFFFFFFFFFFFFFFFFFFFFFFFFFFF AND PUSH20 0xFFFFFFFFFFFFFFFFFFFFFFFFFFFFFFFFFFFFFFFF AND DUP2 MSTORE PUSH1 0x20 ADD SWAP1 DUP2 MSTORE PUSH1 0x20 ADD PUSH1 0x0 KECCAK256 PUSH2 0x47AB SWAP1 SWAP2 SWAP1 PUSH4 0xFFFFFFFF AND JUMP JUMPDEST POP PUSH1 0x1 ISZERO ISZERO DUP6 PUSH20 0xFFFFFFFFFFFFFFFFFFFFFFFFFFFFFFFFFFFFFFFF AND PUSH32 0x86D03F430C7616021073D7A71766F632F1CE19F289AA989534D9F4732253EB59 PUSH1 0x40 MLOAD PUSH1 0x40 MLOAD DUP1 SWAP2 SUB SWAP1 LOG3 PUSH1 0x1 ISZERO ISZERO DUP5 PUSH20 0xFFFFFFFFFFFFFFFFFFFFFFFFFFFFFFFFFFFFFFFF AND DUP7 PUSH20 0xFFFFFFFFFFFFFFFFFFFFFFFFFFFFFFFFFFFFFFFF AND PUSH31 0x38C54977604F1A5C0A3604CBBECD0153C81E3131799EAD95755E8BB5D5B9E8 PUSH1 0x40 MLOAD PUSH1 0x40 MLOAD DUP1 SWAP2 SUB SWAP1 LOG4 POP POP POP POP POP JUMP JUMPDEST DUP2 DUP1 PUSH20 0xFFFFFFFFFFFFFFFFFFFFFFFFFFFFFFFFFFFFFFFF AND CALLER PUSH20 0xFFFFFFFFFFFFFFFFFFFFFFFFFFFFFFFFFFFFFFFF AND EQ PUSH2 0x2B44 JUMPI DUP1 PUSH20 0xFFFFFFFFFFFFFFFFFFFFFFFFFFFFFFFFFFFFFFFF AND PUSH4 0x8DA5CB5B PUSH1 0x40 MLOAD DUP2 PUSH4 0xFFFFFFFF AND PUSH1 0xE0 SHL DUP2 MSTORE PUSH1 0x4 ADD PUSH1 0x20 PUSH1 0x40 MLOAD DUP1 DUP4 SUB DUP2 DUP7 GAS STATICCALL SWAP3 POP POP POP DUP1 ISZERO PUSH2 0x2A64 JUMPI POP PUSH1 0x40 MLOAD RETURNDATASIZE PUSH1 0x1F NOT PUSH1 0x1F DUP3 ADD AND DUP3 ADD DUP1 PUSH1 0x40 MSTORE POP DUP2 ADD SWAP1 PUSH2 0x2A61 SWAP2 SWAP1 PUSH2 0x5160 JUMP JUMPDEST PUSH1 0x1 JUMPDEST PUSH2 0x2ADD JUMPI RETURNDATASIZE DUP1 PUSH1 0x0 DUP2 EQ PUSH2 0x2A94 JUMPI PUSH1 0x40 MLOAD SWAP2 POP PUSH1 0x1F NOT PUSH1 0x3F RETURNDATASIZE ADD AND DUP3 ADD PUSH1 0x40 MSTORE RETURNDATASIZE DUP3 MSTORE RETURNDATASIZE PUSH1 0x0 PUSH1 0x20 DUP5 ADD RETURNDATACOPY PUSH2 0x2A99 JUMP JUMPDEST PUSH1 0x60 SWAP2 POP JUMPDEST POP PUSH1 0x0 DUP2 MLOAD SUB PUSH2 0x2AD5 JUMPI PUSH1 0x40 MLOAD PUSH32 0xB2C1414000000000000000000000000000000000000000000000000000000000 DUP2 MSTORE PUSH1 0x4 ADD PUSH1 0x40 MLOAD DUP1 SWAP2 SUB SWAP1 REVERT JUMPDEST DUP1 MLOAD DUP2 PUSH1 0x20 ADD REVERT JUMPDEST DUP1 PUSH20 0xFFFFFFFFFFFFFFFFFFFFFFFFFFFFFFFFFFFFFFFF AND CALLER PUSH20 0xFFFFFFFFFFFFFFFFFFFFFFFFFFFFFFFFFFFFFFFF AND EQ PUSH2 0x2B42 JUMPI PUSH1 0x40 MLOAD PUSH32 0xFCF5EFF800000000000000000000000000000000000000000000000000000000 DUP2 MSTORE PUSH1 0x4 ADD PUSH1 0x40 MLOAD DUP1 SWAP2 SUB SWAP1 REVERT JUMPDEST POP JUMPDEST DUP3 PUSH20 0xFFFFFFFFFFFFFFFFFFFFFFFFFFFFFFFFFFFFFFFF AND DUP3 PUSH20 0xFFFFFFFFFFFFFFFFFFFFFFFFFFFFFFFFFFFFFFFF AND SUB PUSH2 0x2BA9 JUMPI PUSH1 0x40 MLOAD PUSH32 0x1ACAB6B800000000000000000000000000000000000000000000000000000000 DUP2 MSTORE PUSH1 0x4 ADD PUSH1 0x40 MLOAD DUP1 SWAP2 SUB SWAP1 REVERT JUMPDEST PUSH1 0x0 PUSH1 0x2 PUSH1 0x0 DUP6 PUSH20 0xFFFFFFFFFFFFFFFFFFFFFFFFFFFFFFFFFFFFFFFF AND PUSH20 0xFFFFFFFFFFFFFFFFFFFFFFFFFFFFFFFFFFFFFFFF AND DUP2 MSTORE PUSH1 0x20 ADD SWAP1 DUP2 MSTORE PUSH1 0x20 ADD PUSH1 0x0 KECCAK256 PUSH1 0x0 SWAP1 SLOAD SWAP1 PUSH2 0x100 EXP SWAP1 DIV PUSH20 0xFFFFFFFFFFFFFFFFFFFFFFFFFFFFFFFFFFFFFFFF AND SWAP1 POP PUSH1 0x0 PUSH20 0xFFFFFFFFFFFFFFFFFFFFFFFFFFFFFFFFFFFFFFFF AND DUP2 PUSH20 0xFFFFFFFFFFFFFFFFFFFFFFFFFFFFFFFFFFFFFFFF AND EQ PUSH2 0x2C73 JUMPI PUSH1 0x40 MLOAD PUSH32 0x3A81D6FC00000000000000000000000000000000000000000000000000000000 DUP2 MSTORE PUSH1 0x4 ADD PUSH1 0x40 MLOAD DUP1 SWAP2 SUB SWAP1 REVERT JUMPDEST PUSH1 0x0 PUSH1 0x2 PUSH1 0x0 DUP6 PUSH20 0xFFFFFFFFFFFFFFFFFFFFFFFFFFFFFFFFFFFFFFFF AND PUSH20 0xFFFFFFFFFFFFFFFFFFFFFFFFFFFFFFFFFFFFFFFF AND DUP2 MSTORE PUSH1 0x20 ADD SWAP1 DUP2 MSTORE PUSH1 0x20 ADD PUSH1 0x0 KECCAK256 PUSH1 0x0 SWAP1 SLOAD SWAP1 PUSH2 0x100 EXP SWAP1 DIV PUSH20 0xFFFFFFFFFFFFFFFFFFFFFFFFFFFFFFFFFFFFFFFF AND SWAP1 POP PUSH1 0x0 PUSH20 0xFFFFFFFFFFFFFFFFFFFFFFFFFFFFFFFFFFFFFFFF AND DUP2 PUSH20 0xFFFFFFFFFFFFFFFFFFFFFFFFFFFFFFFFFFFFFFFF AND SUB PUSH2 0x2D48 JUMPI DUP4 PUSH1 0x40 MLOAD PUSH32 0xBFC6C33700000000000000000000000000000000000000000000000000000000 DUP2 MSTORE PUSH1 0x4 ADD PUSH2 0x2D3F SWAP2 SWAP1 PUSH2 0x4DAA JUMP JUMPDEST PUSH1 0x40 MLOAD DUP1 SWAP2 SUB SWAP1 REVERT JUMPDEST DUP5 PUSH1 0x2 PUSH1 0x0 DUP8 PUSH20 0xFFFFFFFFFFFFFFFFFFFFFFFFFFFFFFFFFFFFFFFF AND PUSH20 0xFFFFFFFFFFFFFFFFFFFFFFFFFFFFFFFFFFFFFFFF AND DUP2 MSTORE PUSH1 0x20 ADD SWAP1 DUP2 MSTORE PUSH1 0x20 ADD PUSH1 0x0 KECCAK256 PUSH1 0x0 PUSH2 0x100 EXP DUP2 SLOAD DUP2 PUSH20 0xFFFFFFFFFFFFFFFFFFFFFFFFFFFFFFFFFFFFFFFF MUL NOT AND SWAP1 DUP4 PUSH20 0xFFFFFFFFFFFFFFFFFFFFFFFFFFFFFFFFFFFFFFFF AND MUL OR SWAP1 SSTORE POP PUSH1 0x1 ISZERO ISZERO DUP6 PUSH20 0xFFFFFFFFFFFFFFFFFFFFFFFFFFFFFFFFFFFFFFFF AND PUSH32 0x86D03F430C7616021073D7A71766F632F1CE19F289AA989534D9F4732253EB59 PUSH1 0x40 MLOAD PUSH1 0x40 MLOAD DUP1 SWAP2 SUB SWAP1 LOG3 PUSH2 0x2E17 DUP6 DUP6 PUSH2 0x44A4 JUMP JUMPDEST POP POP POP POP POP JUMP JUMPDEST DUP4 DUP1 PUSH20 0xFFFFFFFFFFFFFFFFFFFFFFFFFFFFFFFFFFFFFFFF AND CALLER PUSH20 0xFFFFFFFFFFFFFFFFFFFFFFFFFFFFFFFFFFFFFFFF AND EQ PUSH2 0x2F9A JUMPI DUP1 PUSH20 0xFFFFFFFFFFFFFFFFFFFFFFFFFFFFFFFFFFFFFFFF AND PUSH4 0x8DA5CB5B PUSH1 0x40 MLOAD DUP2 PUSH4 0xFFFFFFFF AND PUSH1 0xE0 SHL DUP2 MSTORE PUSH1 0x4 ADD PUSH1 0x20 PUSH1 0x40 MLOAD DUP1 DUP4 SUB DUP2 DUP7 GAS STATICCALL SWAP3 POP POP POP DUP1 ISZERO PUSH2 0x2EBA JUMPI POP PUSH1 0x40 MLOAD RETURNDATASIZE PUSH1 0x1F NOT PUSH1 0x1F DUP3 ADD AND DUP3 ADD DUP1 PUSH1 0x40 MSTORE POP DUP2 ADD SWAP1 PUSH2 0x2EB7 SWAP2 SWAP1 PUSH2 0x5160 JUMP JUMPDEST PUSH1 0x1 JUMPDEST PUSH2 0x2F33 JUMPI RETURNDATASIZE DUP1 PUSH1 0x0 DUP2 EQ PUSH2 0x2EEA JUMPI PUSH1 0x40 MLOAD SWAP2 POP PUSH1 0x1F NOT PUSH1 0x3F RETURNDATASIZE ADD AND DUP3 ADD PUSH1 0x40 MSTORE RETURNDATASIZE DUP3 MSTORE RETURNDATASIZE PUSH1 0x0 PUSH1 0x20 DUP5 ADD RETURNDATACOPY PUSH2 0x2EEF JUMP JUMPDEST PUSH1 0x60 SWAP2 POP JUMPDEST POP PUSH1 0x0 DUP2 MLOAD SUB PUSH2 0x2F2B JUMPI PUSH1 0x40 MLOAD PUSH32 0xB2C1414000000000000000000000000000000000000000000000000000000000 DUP2 MSTORE PUSH1 0x4 ADD PUSH1 0x40 MLOAD DUP1 SWAP2 SUB SWAP1 REVERT JUMPDEST DUP1 MLOAD DUP2 PUSH1 0x20 ADD REVERT JUMPDEST DUP1 PUSH20 0xFFFFFFFFFFFFFFFFFFFFFFFFFFFFFFFFFFFFFFFF AND CALLER PUSH20 0xFFFFFFFFFFFFFFFFFFFFFFFFFFFFFFFFFFFFFFFF AND EQ PUSH2 0x2F98 JUMPI PUSH1 0x40 MLOAD PUSH32 0xFCF5EFF800000000000000000000000000000000000000000000000000000000 DUP2 MSTORE PUSH1 0x4 ADD PUSH1 0x40 MLOAD DUP1 SWAP2 SUB SWAP1 REVERT JUMPDEST POP JUMPDEST PUSH1 0x0 PUSH1 0x2 PUSH1 0x0 DUP8 PUSH20 0xFFFFFFFFFFFFFFFFFFFFFFFFFFFFFFFFFFFFFFFF AND PUSH20 0xFFFFFFFFFFFFFFFFFFFFFFFFFFFFFFFFFFFFFFFF AND DUP2 MSTORE PUSH1 0x20 ADD SWAP1 DUP2 MSTORE PUSH1 0x20 ADD PUSH1 0x0 KECCAK256 PUSH1 0x0 SWAP1 SLOAD SWAP1 PUSH2 0x100 EXP SWAP1 DIV PUSH20 0xFFFFFFFFFFFFFFFFFFFFFFFFFFFFFFFFFFFFFFFF AND SWAP1 POP PUSH1 0x0 PUSH20 0xFFFFFFFFFFFFFFFFFFFFFFFFFFFFFFFFFFFFFFFF AND DUP2 PUSH20 0xFFFFFFFFFFFFFFFFFFFFFFFFFFFFFFFFFFFFFFFF AND SUB PUSH2 0x306F JUMPI DUP6 PUSH1 0x40 MLOAD PUSH32 0xBFC6C33700000000000000000000000000000000000000000000000000000000 DUP2 MSTORE PUSH1 0x4 ADD PUSH2 0x3066 SWAP2 SWAP1 PUSH2 0x4DAA JUMP JUMPDEST PUSH1 0x40 MLOAD DUP1 SWAP2 SUB SWAP1 REVERT JUMPDEST DUP6 PUSH20 0xFFFFFFFFFFFFFFFFFFFFFFFFFFFFFFFFFFFFFFFF AND DUP2 PUSH20 0xFFFFFFFFFFFFFFFFFFFFFFFFFFFFFFFFFFFFFFFF AND EQ PUSH2 0x30DF JUMPI DUP1 PUSH1 0x40 MLOAD PUSH32 0x4AF4D6900000000000000000000000000000000000000000000000000000000 DUP2 MSTORE PUSH1 0x4 ADD PUSH2 0x30D6 SWAP2 SWAP1 PUSH2 0x4DAA JUMP JUMPDEST PUSH1 0x40 MLOAD DUP1 SWAP2 SUB SWAP1 REVERT JUMPDEST PUSH1 0x0 DUP1 PUSH1 0x0 DUP9 PUSH20 0xFFFFFFFFFFFFFFFFFFFFFFFFFFFFFFFFFFFFFFFF AND PUSH20 0xFFFFFFFFFFFFFFFFFFFFFFFFFFFFFFFFFFFFFFFF AND DUP2 MSTORE PUSH1 0x20 ADD SWAP1 DUP2 MSTORE PUSH1 0x20 ADD PUSH1 0x0 KECCAK256 SWAP1 POP PUSH1 0x0 DUP7 DUP7 SWAP1 POP SWAP1 POP DUP5 PUSH2 0x31D1 JUMPI PUSH1 0x0 JUMPDEST DUP2 DUP2 LT ISZERO PUSH2 0x31CB JUMPI PUSH1 0x0 DUP9 DUP9 DUP4 DUP2 DUP2 LT PUSH2 0x314E JUMPI PUSH2 0x314D PUSH2 0x518D JUMP JUMPDEST JUMPDEST SWAP1 POP PUSH1 0x20 MUL ADD PUSH1 0x20 DUP2 ADD SWAP1 PUSH2 0x3163 SWAP2 SWAP1 PUSH2 0x4C44 JUMP JUMPDEST SWAP1 POP PUSH1 0x0 PUSH2 0x317A DUP3 DUP7 PUSH2 0x4729 SWAP1 SWAP2 SWAP1 PUSH4 0xFFFFFFFF AND JUMP JUMPDEST SWAP1 POP DUP1 PUSH2 0x31BE JUMPI DUP2 PUSH1 0x40 MLOAD PUSH32 0x45525C0E00000000000000000000000000000000000000000000000000000000 DUP2 MSTORE PUSH1 0x4 ADD PUSH2 0x31B5 SWAP2 SWAP1 PUSH2 0x4DAA JUMP JUMPDEST PUSH1 0x40 MLOAD DUP1 SWAP2 SUB SWAP1 REVERT JUMPDEST DUP3 PUSH1 0x1 ADD SWAP3 POP POP POP PUSH2 0x3131 JUMP JUMPDEST POP PUSH2 0x3270 JUMP JUMPDEST PUSH1 0x0 JUMPDEST DUP2 DUP2 LT ISZERO PUSH2 0x326E JUMPI PUSH1 0x0 DUP9 DUP9 DUP4 DUP2 DUP2 LT PUSH2 0x31F1 JUMPI PUSH2 0x31F0 PUSH2 0x518D JUMP JUMPDEST JUMPDEST SWAP1 POP PUSH1 0x20 MUL ADD PUSH1 0x20 DUP2 ADD SWAP1 PUSH2 0x3206 SWAP2 SWAP1 PUSH2 0x4C44 JUMP JUMPDEST SWAP1 POP PUSH1 0x0 PUSH2 0x321D DUP3 DUP7 PUSH2 0x47AB SWAP1 SWAP2 SWAP1 PUSH4 0xFFFFFFFF AND JUMP JUMPDEST SWAP1 POP DUP1 PUSH2 0x3261 JUMPI DUP2 PUSH1 0x40 MLOAD PUSH32 0xBB4423400000000000000000000000000000000000000000000000000000000 DUP2 MSTORE PUSH1 0x4 ADD PUSH2 0x3258 SWAP2 SWAP1 PUSH2 0x4DAA JUMP JUMPDEST PUSH1 0x40 MLOAD DUP1 SWAP2 SUB SWAP1 REVERT JUMPDEST DUP3 PUSH1 0x1 ADD SWAP3 POP POP POP PUSH2 0x31D4 JUMP JUMPDEST POP JUMPDEST DUP5 ISZERO ISZERO DUP9 PUSH20 0xFFFFFFFFFFFFFFFFFFFFFFFFFFFFFFFFFFFFFFFF AND PUSH32 0x2B85AFDACB82D5512C6F05566B3018677FFCBD7E5F75E498BC64081131CBD6C DUP10 DUP10 PUSH1 0x40 MLOAD PUSH2 0x32BB SWAP3 SWAP2 SWAP1 PUSH2 0x52DB JUMP JUMPDEST PUSH1 0x40 MLOAD DUP1 SWAP2 SUB SWAP1 LOG3 POP POP POP POP POP POP POP POP JUMP JUMPDEST DUP3 DUP1 PUSH20 0xFFFFFFFFFFFFFFFFFFFFFFFFFFFFFFFFFFFFFFFF AND CALLER PUSH20 0xFFFFFFFFFFFFFFFFFFFFFFFFFFFFFFFFFFFFFFFF AND EQ PUSH2 0x3449 JUMPI DUP1 PUSH20 0xFFFFFFFFFFFFFFFFFFFFFFFFFFFFFFFFFFFFFFFF AND PUSH4 0x8DA5CB5B PUSH1 0x40 MLOAD DUP2 PUSH4 0xFFFFFFFF AND PUSH1 0xE0 SHL DUP2 MSTORE PUSH1 0x4 ADD PUSH1 0x20 PUSH1 0x40 MLOAD DUP1 DUP4 SUB DUP2 DUP7 GAS STATICCALL SWAP3 POP POP POP DUP1 ISZERO PUSH2 0x3369 JUMPI POP PUSH1 0x40 MLOAD RETURNDATASIZE PUSH1 0x1F NOT PUSH1 0x1F DUP3 ADD AND DUP3 ADD DUP1 PUSH1 0x40 MSTORE POP DUP2 ADD SWAP1 PUSH2 0x3366 SWAP2 SWAP1 PUSH2 0x5160 JUMP JUMPDEST PUSH1 0x1 JUMPDEST PUSH2 0x33E2 JUMPI RETURNDATASIZE DUP1 PUSH1 0x0 DUP2 EQ PUSH2 0x3399 JUMPI PUSH1 0x40 MLOAD SWAP2 POP PUSH1 0x1F NOT PUSH1 0x3F RETURNDATASIZE ADD AND DUP3 ADD PUSH1 0x40 MSTORE RETURNDATASIZE DUP3 MSTORE RETURNDATASIZE PUSH1 0x0 PUSH1 0x20 DUP5 ADD RETURNDATACOPY PUSH2 0x339E JUMP JUMPDEST PUSH1 0x60 SWAP2 POP JUMPDEST POP PUSH1 0x0 DUP2 MLOAD SUB PUSH2 0x33DA JUMPI PUSH1 0x40 MLOAD PUSH32 0xB2C1414000000000000000000000000000000000000000000000000000000000 DUP2 MSTORE PUSH1 0x4 ADD PUSH1 0x40 MLOAD DUP1 SWAP2 SUB SWAP1 REVERT JUMPDEST DUP1 MLOAD DUP2 PUSH1 0x20 ADD REVERT JUMPDEST DUP1 PUSH20 0xFFFFFFFFFFFFFFFFFFFFFFFFFFFFFFFFFFFFFFFF AND CALLER PUSH20 0xFFFFFFFFFFFFFFFFFFFFFFFFFFFFFFFFFFFFFFFF AND EQ PUSH2 0x3447 JUMPI PUSH1 0x40 MLOAD PUSH32 0xFCF5EFF800000000000000000000000000000000000000000000000000000000 DUP2 MSTORE PUSH1 0x4 ADD PUSH1 0x40 MLOAD DUP1 SWAP2 SUB SWAP1 REVERT JUMPDEST POP JUMPDEST PUSH1 0x0 PUSH1 0x2 PUSH1 0x0 DUP7 PUSH20 0xFFFFFFFFFFFFFFFFFFFFFFFFFFFFFFFFFFFFFFFF AND PUSH20 0xFFFFFFFFFFFFFFFFFFFFFFFFFFFFFFFFFFFFFFFF AND DUP2 MSTORE PUSH1 0x20 ADD SWAP1 DUP2 MSTORE PUSH1 0x20 ADD PUSH1 0x0 KECCAK256 PUSH1 0x0 SWAP1 SLOAD SWAP1 PUSH2 0x100 EXP SWAP1 DIV PUSH20 0xFFFFFFFFFFFFFFFFFFFFFFFFFFFFFFFFFFFFFFFF AND SWAP1 POP PUSH1 0x0 PUSH20 0xFFFFFFFFFFFFFFFFFFFFFFFFFFFFFFFFFFFFFFFF AND DUP2 PUSH20 0xFFFFFFFFFFFFFFFFFFFFFFFFFFFFFFFFFFFFFFFF AND SUB PUSH2 0x351E JUMPI DUP5 PUSH1 0x40 MLOAD PUSH32 0xBFC6C33700000000000000000000000000000000000000000000000000000000 DUP2 MSTORE PUSH1 0x4 ADD PUSH2 0x3515 SWAP2 SWAP1 PUSH2 0x4DAA JUMP JUMPDEST PUSH1 0x40 MLOAD DUP1 SWAP2 SUB SWAP1 REVERT JUMPDEST DUP5 PUSH20 0xFFFFFFFFFFFFFFFFFFFFFFFFFFFFFFFFFFFFFFFF AND DUP2 PUSH20 0xFFFFFFFFFFFFFFFFFFFFFFFFFFFFFFFFFFFFFFFF AND EQ PUSH2 0x358E JUMPI DUP1 PUSH1 0x40 MLOAD PUSH32 0x4AF4D6900000000000000000000000000000000000000000000000000000000 DUP2 MSTORE PUSH1 0x4 ADD PUSH2 0x3585 SWAP2 SWAP1 PUSH2 0x4DAA JUMP JUMPDEST PUSH1 0x40 MLOAD DUP1 SWAP2 SUB SWAP1 REVERT JUMPDEST PUSH1 0x0 DUP1 PUSH1 0x0 DUP8 PUSH20 0xFFFFFFFFFFFFFFFFFFFFFFFFFFFFFFFFFFFFFFFF AND PUSH20 0xFFFFFFFFFFFFFFFFFFFFFFFFFFFFFFFFFFFFFFFF AND DUP2 MSTORE PUSH1 0x20 ADD SWAP1 DUP2 MSTORE PUSH1 0x20 ADD PUSH1 0x0 KECCAK256 SWAP1 POP DUP4 PUSH2 0x3634 JUMPI PUSH1 0x0 PUSH2 0x35EA DUP7 DUP4 PUSH2 0x4729 SWAP1 SWAP2 SWAP1 PUSH4 0xFFFFFFFF AND JUMP JUMPDEST SWAP1 POP DUP1 PUSH2 0x362E JUMPI DUP6 PUSH1 0x40 MLOAD PUSH32 0x45525C0E00000000000000000000000000000000000000000000000000000000 DUP2 MSTORE PUSH1 0x4 ADD PUSH2 0x3625 SWAP2 SWAP1 PUSH2 0x4DAA JUMP JUMPDEST PUSH1 0x40 MLOAD DUP1 SWAP2 SUB SWAP1 REVERT JUMPDEST POP PUSH2 0x368F JUMP JUMPDEST PUSH1 0x0 PUSH2 0x3649 DUP7 DUP4 PUSH2 0x47AB SWAP1 SWAP2 SWAP1 PUSH4 0xFFFFFFFF AND JUMP JUMPDEST SWAP1 POP DUP1 PUSH2 0x368D JUMPI DUP6 PUSH1 0x40 MLOAD PUSH32 0xBB4423400000000000000000000000000000000000000000000000000000000 DUP2 MSTORE PUSH1 0x4 ADD PUSH2 0x3684 SWAP2 SWAP1 PUSH2 0x4DAA JUMP JUMPDEST PUSH1 0x40 MLOAD DUP1 SWAP2 SUB SWAP1 REVERT JUMPDEST POP JUMPDEST DUP4 ISZERO ISZERO DUP6 PUSH20 0xFFFFFFFFFFFFFFFFFFFFFFFFFFFFFFFFFFFFFFFF AND DUP8 PUSH20 0xFFFFFFFFFFFFFFFFFFFFFFFFFFFFFFFFFFFFFFFF AND PUSH32 0x2738289D9DEECDC30EB8FFC42876633CAECCA1FFA166E4EFA89F408E17373A1A PUSH1 0x40 MLOAD PUSH1 0x40 MLOAD DUP1 SWAP2 SUB SWAP1 LOG4 POP POP POP POP POP POP JUMP JUMPDEST PUSH1 0x0 DUP1 PUSH1 0x2 PUSH1 0x0 DUP6 PUSH20 0xFFFFFFFFFFFFFFFFFFFFFFFFFFFFFFFFFFFFFFFF AND PUSH20 0xFFFFFFFFFFFFFFFFFFFFFFFFFFFFFFFFFFFFFFFF AND DUP2 MSTORE PUSH1 0x20 ADD SWAP1 DUP2 MSTORE PUSH1 0x20 ADD PUSH1 0x0 KECCAK256 PUSH1 0x0 SWAP1 SLOAD SWAP1 PUSH2 0x100 EXP SWAP1 DIV PUSH20 0xFFFFFFFFFFFFFFFFFFFFFFFFFFFFFFFFFFFFFFFF AND SWAP1 POP DUP4 PUSH20 0xFFFFFFFFFFFFFFFFFFFFFFFFFFFFFFFFFFFFFFFF AND DUP2 PUSH20 0xFFFFFFFFFFFFFFFFFFFFFFFFFFFFFFFFFFFFFFFF AND EQ PUSH2 0x37E5 JUMPI PUSH2 0x37DD DUP4 PUSH1 0x1 PUSH1 0x0 DUP5 PUSH20 0xFFFFFFFFFFFFFFFFFFFFFFFFFFFFFFFFFFFFFFFF AND PUSH20 0xFFFFFFFFFFFFFFFFFFFFFFFFFFFFFFFFFFFFFFFF AND DUP2 MSTORE PUSH1 0x20 ADD SWAP1 DUP2 MSTORE PUSH1 0x20 ADD PUSH1 0x0 KECCAK256 PUSH2 0x47DB SWAP1 SWAP2 SWAP1 PUSH4 0xFFFFFFFF AND JUMP JUMPDEST SWAP2 POP POP PUSH2 0x383A JUMP JUMPDEST PUSH2 0x3836 DUP4 PUSH1 0x1 PUSH1 0x0 DUP8 PUSH20 0xFFFFFFFFFFFFFFFFFFFFFFFFFFFFFFFFFFFFFFFF AND PUSH20 0xFFFFFFFFFFFFFFFFFFFFFFFFFFFFFFFFFFFFFFFF AND DUP2 MSTORE PUSH1 0x20 ADD SWAP1 DUP2 MSTORE PUSH1 0x20 ADD PUSH1 0x0 KECCAK256 PUSH2 0x47DB SWAP1 SWAP2 SWAP1 PUSH4 0xFFFFFFFF AND JUMP JUMPDEST SWAP2 POP POP JUMPDEST SWAP3 SWAP2 POP POP JUMP JUMPDEST DUP2 DUP1 PUSH20 0xFFFFFFFFFFFFFFFFFFFFFFFFFFFFFFFFFFFFFFFF AND CALLER PUSH20 0xFFFFFFFFFFFFFFFFFFFFFFFFFFFFFFFFFFFFFFFF AND EQ PUSH2 0x39BC JUMPI DUP1 PUSH20 0xFFFFFFFFFFFFFFFFFFFFFFFFFFFFFFFFFFFFFFFF AND PUSH4 0x8DA5CB5B PUSH1 0x40 MLOAD DUP2 PUSH4 0xFFFFFFFF AND PUSH1 0xE0 SHL DUP2 MSTORE PUSH1 0x4 ADD PUSH1 0x20 PUSH1 0x40 MLOAD DUP1 DUP4 SUB DUP2 DUP7 GAS STATICCALL SWAP3 POP POP POP DUP1 ISZERO PUSH2 0x38DC JUMPI POP PUSH1 0x40 MLOAD RETURNDATASIZE PUSH1 0x1F NOT PUSH1 0x1F DUP3 ADD AND DUP3 ADD DUP1 PUSH1 0x40 MSTORE POP DUP2 ADD SWAP1 PUSH2 0x38D9 SWAP2 SWAP1 PUSH2 0x5160 JUMP JUMPDEST PUSH1 0x1 JUMPDEST PUSH2 0x3955 JUMPI RETURNDATASIZE DUP1 PUSH1 0x0 DUP2 EQ PUSH2 0x390C JUMPI PUSH1 0x40 MLOAD SWAP2 POP PUSH1 0x1F NOT PUSH1 0x3F RETURNDATASIZE ADD AND DUP3 ADD PUSH1 0x40 MSTORE RETURNDATASIZE DUP3 MSTORE RETURNDATASIZE PUSH1 0x0 PUSH1 0x20 DUP5 ADD RETURNDATACOPY PUSH2 0x3911 JUMP JUMPDEST PUSH1 0x60 SWAP2 POP JUMPDEST POP PUSH1 0x0 DUP2 MLOAD SUB PUSH2 0x394D JUMPI PUSH1 0x40 MLOAD PUSH32 0xB2C1414000000000000000000000000000000000000000000000000000000000 DUP2 MSTORE PUSH1 0x4 ADD PUSH1 0x40 MLOAD DUP1 SWAP2 SUB SWAP1 REVERT JUMPDEST DUP1 MLOAD DUP2 PUSH1 0x20 ADD REVERT JUMPDEST DUP1 PUSH20 0xFFFFFFFFFFFFFFFFFFFFFFFFFFFFFFFFFFFFFFFF AND CALLER PUSH20 0xFFFFFFFFFFFFFFFFFFFFFFFFFFFFFFFFFFFFFFFF AND EQ PUSH2 0x39BA JUMPI PUSH1 0x40 MLOAD PUSH32 0xFCF5EFF800000000000000000000000000000000000000000000000000000000 DUP2 MSTORE PUSH1 0x4 ADD PUSH1 0x40 MLOAD DUP1 SWAP2 SUB SWAP1 REVERT JUMPDEST POP JUMPDEST DUP2 PUSH20 0xFFFFFFFFFFFFFFFFFFFFFFFFFFFFFFFFFFFFFFFF AND DUP4 PUSH20 0xFFFFFFFFFFFFFFFFFFFFFFFFFFFFFFFFFFFFFFFF AND SUB PUSH2 0x3A21 JUMPI PUSH1 0x40 MLOAD PUSH32 0x347F118F00000000000000000000000000000000000000000000000000000000 DUP2 MSTORE PUSH1 0x4 ADD PUSH1 0x40 MLOAD DUP1 SWAP2 SUB SWAP1 REVERT JUMPDEST PUSH1 0x0 PUSH20 0xFFFFFFFFFFFFFFFFFFFFFFFFFFFFFFFFFFFFFFFF AND DUP3 PUSH20 0xFFFFFFFFFFFFFFFFFFFFFFFFFFFFFFFFFFFFFFFF AND SUB PUSH2 0x3A87 JUMPI PUSH1 0x40 MLOAD PUSH32 0xB05574D300000000000000000000000000000000000000000000000000000000 DUP2 MSTORE PUSH1 0x4 ADD PUSH1 0x40 MLOAD DUP1 SWAP2 SUB SWAP1 REVERT JUMPDEST PUSH1 0x0 PUSH1 0x2 PUSH1 0x0 DUP6 PUSH20 0xFFFFFFFFFFFFFFFFFFFFFFFFFFFFFFFFFFFFFFFF AND PUSH20 0xFFFFFFFFFFFFFFFFFFFFFFFFFFFFFFFFFFFFFFFF AND DUP2 MSTORE PUSH1 0x20 ADD SWAP1 DUP2 MSTORE PUSH1 0x20 ADD PUSH1 0x0 KECCAK256 PUSH1 0x0 SWAP1 SLOAD SWAP1 PUSH2 0x100 EXP SWAP1 DIV PUSH20 0xFFFFFFFFFFFFFFFFFFFFFFFFFFFFFFFFFFFFFFFF AND SWAP1 POP PUSH1 0x0 PUSH20 0xFFFFFFFFFFFFFFFFFFFFFFFFFFFFFFFFFFFFFFFF AND DUP2 PUSH20 0xFFFFFFFFFFFFFFFFFFFFFFFFFFFFFFFFFFFFFFFF AND SUB PUSH2 0x3B5C JUMPI DUP4 PUSH1 0x40 MLOAD PUSH32 0xBFC6C33700000000000000000000000000000000000000000000000000000000 DUP2 MSTORE PUSH1 0x4 ADD PUSH2 0x3B53 SWAP2 SWAP1 PUSH2 0x4DAA JUMP JUMPDEST PUSH1 0x40 MLOAD DUP1 SWAP2 SUB SWAP1 REVERT JUMPDEST DUP3 PUSH20 0xFFFFFFFFFFFFFFFFFFFFFFFFFFFFFFFFFFFFFFFF AND DUP2 PUSH20 0xFFFFFFFFFFFFFFFFFFFFFFFFFFFFFFFFFFFFFFFF AND SUB PUSH2 0x3BCC JUMPI DUP3 PUSH1 0x40 MLOAD PUSH32 0x73A4164900000000000000000000000000000000000000000000000000000000 DUP2 MSTORE PUSH1 0x4 ADD PUSH2 0x3BC3 SWAP2 SWAP1 PUSH2 0x4DAA JUMP JUMPDEST PUSH1 0x40 MLOAD DUP1 SWAP2 SUB SWAP1 REVERT JUMPDEST PUSH1 0x0 PUSH1 0x2 PUSH1 0x0 DUP6 PUSH20 0xFFFFFFFFFFFFFFFFFFFFFFFFFFFFFFFFFFFFFFFF AND PUSH20 0xFFFFFFFFFFFFFFFFFFFFFFFFFFFFFFFFFFFFFFFF AND DUP2 MSTORE PUSH1 0x20 ADD SWAP1 DUP2 MSTORE PUSH1 0x20 ADD PUSH1 0x0 KECCAK256 PUSH1 0x0 SWAP1 SLOAD SWAP1 PUSH2 0x100 EXP SWAP1 DIV PUSH20 0xFFFFFFFFFFFFFFFFFFFFFFFFFFFFFFFFFFFFFFFF AND SWAP1 POP PUSH1 0x0 PUSH20 0xFFFFFFFFFFFFFFFFFFFFFFFFFFFFFFFFFFFFFFFF AND DUP2 PUSH20 0xFFFFFFFFFFFFFFFFFFFFFFFFFFFFFFFFFFFFFFFF AND SUB PUSH2 0x3CA1 JUMPI DUP4 PUSH1 0x40 MLOAD PUSH32 0xBFC6C33700000000000000000000000000000000000000000000000000000000 DUP2 MSTORE PUSH1 0x4 ADD PUSH2 0x3C98 SWAP2 SWAP1 PUSH2 0x4DAA JUMP JUMPDEST PUSH1 0x40 MLOAD DUP1 SWAP2 SUB SWAP1 REVERT JUMPDEST DUP4 PUSH20 0xFFFFFFFFFFFFFFFFFFFFFFFFFFFFFFFFFFFFFFFF AND DUP2 PUSH20 0xFFFFFFFFFFFFFFFFFFFFFFFFFFFFFFFFFFFFFFFF AND EQ PUSH2 0x3D11 JUMPI DUP4 PUSH1 0x40 MLOAD PUSH32 0x768E549C00000000000000000000000000000000000000000000000000000000 DUP2 MSTORE PUSH1 0x4 ADD PUSH2 0x3D08 SWAP2 SWAP1 PUSH2 0x4DAA JUMP JUMPDEST PUSH1 0x40 MLOAD DUP1 SWAP2 SUB SWAP1 REVERT JUMPDEST DUP5 PUSH20 0xFFFFFFFFFFFFFFFFFFFFFFFFFFFFFFFFFFFFFFFF AND DUP3 PUSH20 0xFFFFFFFFFFFFFFFFFFFFFFFFFFFFFFFFFFFFFFFF AND EQ PUSH2 0x3DF4 JUMPI PUSH2 0x3D95 DUP6 PUSH1 0x3 PUSH1 0x0 DUP6 PUSH20 0xFFFFFFFFFFFFFFFFFFFFFFFFFFFFFFFFFFFFFFFF AND PUSH20 0xFFFFFFFFFFFFFFFFFFFFFFFFFFFFFFFFFFFFFFFF AND DUP2 MSTORE PUSH1 0x20 ADD SWAP1 DUP2 MSTORE PUSH1 0x20 ADD PUSH1 0x0 KECCAK256 PUSH2 0x4729 SWAP1 SWAP2 SWAP1 PUSH4 0xFFFFFFFF AND JUMP JUMPDEST POP PUSH1 0x0 ISZERO ISZERO DUP3 PUSH20 0xFFFFFFFFFFFFFFFFFFFFFFFFFFFFFFFFFFFFFFFF AND DUP7 PUSH20 0xFFFFFFFFFFFFFFFFFFFFFFFFFFFFFFFFFFFFFFFF AND PUSH31 0x38C54977604F1A5C0A3604CBBECD0153C81E3131799EAD95755E8BB5D5B9E8 PUSH1 0x40 MLOAD PUSH1 0x40 MLOAD DUP1 SWAP2 SUB SWAP1 LOG4 JUMPDEST DUP4 PUSH1 0x2 PUSH1 0x0 DUP8 PUSH20 0xFFFFFFFFFFFFFFFFFFFFFFFFFFFFFFFFFFFFFFFF AND PUSH20 0xFFFFFFFFFFFFFFFFFFFFFFFFFFFFFFFFFFFFFFFF AND DUP2 MSTORE PUSH1 0x20 ADD SWAP1 DUP2 MSTORE PUSH1 0x20 ADD PUSH1 0x0 KECCAK256 PUSH1 0x0 PUSH2 0x100 EXP DUP2 SLOAD DUP2 PUSH20 0xFFFFFFFFFFFFFFFFFFFFFFFFFFFFFFFFFFFFFFFF MUL NOT AND SWAP1 DUP4 PUSH20 0xFFFFFFFFFFFFFFFFFFFFFFFFFFFFFFFFFFFFFFFF AND MUL OR SWAP1 SSTORE POP PUSH2 0x3EC3 DUP6 PUSH1 0x3 PUSH1 0x0 DUP8 PUSH20 0xFFFFFFFFFFFFFFFFFFFFFFFFFFFFFFFFFFFFFFFF AND PUSH20 0xFFFFFFFFFFFFFFFFFFFFFFFFFFFFFFFFFFFFFFFF AND DUP2 MSTORE PUSH1 0x20 ADD SWAP1 DUP2 MSTORE PUSH1 0x20 ADD PUSH1 0x0 KECCAK256 PUSH2 0x47AB SWAP1 SWAP2 SWAP1 PUSH4 0xFFFFFFFF AND JUMP JUMPDEST POP PUSH1 0x1 ISZERO ISZERO DUP5 PUSH20 0xFFFFFFFFFFFFFFFFFFFFFFFFFFFFFFFFFFFFFFFF AND DUP7 PUSH20 0xFFFFFFFFFFFFFFFFFFFFFFFFFFFFFFFFFFFFFFFF AND PUSH31 0x38C54977604F1A5C0A3604CBBECD0153C81E3131799EAD95755E8BB5D5B9E8 PUSH1 0x40 MLOAD PUSH1 0x40 MLOAD DUP1 SWAP2 SUB SWAP1 LOG4 POP POP POP POP POP JUMP JUMPDEST PUSH1 0x0 DUP2 PUSH20 0xFFFFFFFFFFFFFFFFFFFFFFFFFFFFFFFFFFFFFFFF AND EXTCODEHASH SWAP1 POP SWAP2 SWAP1 POP JUMP JUMPDEST PUSH1 0x0 DUP1 PUSH20 0xFFFFFFFFFFFFFFFFFFFFFFFFFFFFFFFFFFFFFFFF AND PUSH1 0x2 PUSH1 0x0 DUP5 PUSH20 0xFFFFFFFFFFFFFFFFFFFFFFFFFFFFFFFFFFFFFFFF AND PUSH20 0xFFFFFFFFFFFFFFFFFFFFFFFFFFFFFFFFFFFFFFFF AND DUP2 MSTORE PUSH1 0x20 ADD SWAP1 DUP2 MSTORE PUSH1 0x20 ADD PUSH1 0x0 KECCAK256 PUSH1 0x0 SWAP1 SLOAD SWAP1 PUSH2 0x100 EXP SWAP1 DIV PUSH20 0xFFFFFFFFFFFFFFFFFFFFFFFFFFFFFFFFFFFFFFFF AND PUSH20 0xFFFFFFFFFFFFFFFFFFFFFFFFFFFFFFFFFFFFFFFF AND EQ ISZERO SWAP1 POP SWAP2 SWAP1 POP JUMP JUMPDEST PUSH1 0x60 PUSH1 0x0 PUSH1 0x2 PUSH1 0x0 DUP5 PUSH20 0xFFFFFFFFFFFFFFFFFFFFFFFFFFFFFFFFFFFFFFFF AND PUSH20 0xFFFFFFFFFFFFFFFFFFFFFFFFFFFFFFFFFFFFFFFF AND DUP2 MSTORE PUSH1 0x20 ADD SWAP1 DUP2 MSTORE PUSH1 0x20 ADD PUSH1 0x0 KECCAK256 PUSH1 0x0 SWAP1 SLOAD SWAP1 PUSH2 0x100 EXP SWAP1 DIV PUSH20 0xFFFFFFFFFFFFFFFFFFFFFFFFFFFFFFFFFFFFFFFF AND SWAP1 POP DUP3 PUSH20 0xFFFFFFFFFFFFFFFFFFFFFFFFFFFFFFFFFFFFFFFF AND DUP2 PUSH20 0xFFFFFFFFFFFFFFFFFFFFFFFFFFFFFFFFFFFFFFFF AND EQ PUSH2 0x40C8 JUMPI PUSH2 0x40C0 PUSH1 0x0 DUP1 DUP4 PUSH20 0xFFFFFFFFFFFFFFFFFFFFFFFFFFFFFFFFFFFFFFFF AND PUSH20 0xFFFFFFFFFFFFFFFFFFFFFFFFFFFFFFFFFFFFFFFF AND DUP2 MSTORE PUSH1 0x20 ADD SWAP1 DUP2 MSTORE PUSH1 0x20 ADD PUSH1 0x0 KECCAK256 PUSH2 0x4773 JUMP JUMPDEST SWAP2 POP POP PUSH2 0x4112 JUMP JUMPDEST PUSH2 0x410E PUSH1 0x0 DUP1 DUP6 PUSH20 0xFFFFFFFFFFFFFFFFFFFFFFFFFFFFFFFFFFFFFFFF AND PUSH20 0xFFFFFFFFFFFFFFFFFFFFFFFFFFFFFFFFFFFFFFFF AND DUP2 MSTORE PUSH1 0x20 ADD SWAP1 DUP2 MSTORE PUSH1 0x20 ADD PUSH1 0x0 KECCAK256 PUSH2 0x4773 JUMP JUMPDEST SWAP2 POP POP JUMPDEST SWAP2 SWAP1 POP JUMP JUMPDEST PUSH1 0x0 DUP1 PUSH1 0x2 PUSH1 0x0 DUP6 PUSH20 0xFFFFFFFFFFFFFFFFFFFFFFFFFFFFFFFFFFFFFFFF AND PUSH20 0xFFFFFFFFFFFFFFFFFFFFFFFFFFFFFFFFFFFFFFFF AND DUP2 MSTORE PUSH1 0x20 ADD SWAP1 DUP2 MSTORE PUSH1 0x20 ADD PUSH1 0x0 KECCAK256 PUSH1 0x0 SWAP1 SLOAD SWAP1 PUSH2 0x100 EXP SWAP1 DIV PUSH20 0xFFFFFFFFFFFFFFFFFFFFFFFFFFFFFFFFFFFFFFFF AND SWAP1 POP PUSH1 0x0 PUSH20 0xFFFFFFFFFFFFFFFFFFFFFFFFFFFFFFFFFFFFFFFF AND DUP2 PUSH20 0xFFFFFFFFFFFFFFFFFFFFFFFFFFFFFFFFFFFFFFFF AND EQ PUSH2 0x4321 JUMPI PUSH1 0x0 DUP1 PUSH1 0x0 DUP1 DUP5 PUSH20 0xFFFFFFFFFFFFFFFFFFFFFFFFFFFFFFFFFFFFFFFF AND PUSH20 0xFFFFFFFFFFFFFFFFFFFFFFFFFFFFFFFFFFFFFFFF AND DUP2 MSTORE PUSH1 0x20 ADD SWAP1 DUP2 MSTORE PUSH1 0x20 ADD PUSH1 0x0 KECCAK256 SWAP2 POP PUSH1 0x1 PUSH1 0x0 DUP5 PUSH20 0xFFFFFFFFFFFFFFFFFFFFFFFFFFFFFFFFFFFFFFFF AND PUSH20 0xFFFFFFFFFFFFFFFFFFFFFFFFFFFFFFFFFFFFFFFF AND DUP2 MSTORE PUSH1 0x20 ADD SWAP1 DUP2 MSTORE PUSH1 0x20 ADD PUSH1 0x0 KECCAK256 SWAP1 POP PUSH2 0x4247 DUP6 DUP4 PUSH2 0x47F2 SWAP1 SWAP2 SWAP1 PUSH4 0xFFFFFFFF AND JUMP JUMPDEST ISZERO PUSH2 0x4289 JUMPI DUP5 PUSH1 0x40 MLOAD PUSH32 0xA8CF495D00000000000000000000000000000000000000000000000000000000 DUP2 MSTORE PUSH1 0x4 ADD PUSH2 0x4280 SWAP2 SWAP1 PUSH2 0x4DAA JUMP JUMPDEST PUSH1 0x40 MLOAD DUP1 SWAP2 SUB SWAP1 REVERT JUMPDEST PUSH1 0x0 DUP6 PUSH20 0xFFFFFFFFFFFFFFFFFFFFFFFFFFFFFFFFFFFFFFFF AND EXTCODESIZE GT ISZERO PUSH2 0x431E JUMPI PUSH1 0x0 DUP6 PUSH20 0xFFFFFFFFFFFFFFFFFFFFFFFFFFFFFFFFFFFFFFFF AND EXTCODEHASH SWAP1 POP PUSH2 0x42D8 DUP2 DUP4 PUSH2 0x4794 SWAP1 SWAP2 SWAP1 PUSH4 0xFFFFFFFF AND JUMP JUMPDEST ISZERO PUSH2 0x431C JUMPI DUP6 DUP2 PUSH1 0x40 MLOAD PUSH32 0x5F3853A900000000000000000000000000000000000000000000000000000000 DUP2 MSTORE PUSH1 0x4 ADD PUSH2 0x4313 SWAP3 SWAP2 SWAP1 PUSH2 0x52FF JUMP JUMPDEST PUSH1 0x40 MLOAD DUP1 SWAP2 SUB SWAP1 REVERT JUMPDEST POP JUMPDEST POP POP JUMPDEST PUSH1 0x1 SWAP2 POP POP SWAP3 SWAP2 POP POP JUMP JUMPDEST PUSH1 0x0 DUP1 PUSH1 0x2 PUSH1 0x0 DUP6 PUSH20 0xFFFFFFFFFFFFFFFFFFFFFFFFFFFFFFFFFFFFFFFF AND PUSH20 0xFFFFFFFFFFFFFFFFFFFFFFFFFFFFFFFFFFFFFFFF AND DUP2 MSTORE PUSH1 0x20 ADD SWAP1 DUP2 MSTORE PUSH1 0x20 ADD PUSH1 0x0 KECCAK256 PUSH1 0x0 SWAP1 SLOAD SWAP1 PUSH2 0x100 EXP SWAP1 DIV PUSH20 0xFFFFFFFFFFFFFFFFFFFFFFFFFFFFFFFFFFFFFFFF AND SWAP1 POP DUP4 PUSH20 0xFFFFFFFFFFFFFFFFFFFFFFFFFFFFFFFFFFFFFFFF AND DUP2 PUSH20 0xFFFFFFFFFFFFFFFFFFFFFFFFFFFFFFFFFFFFFFFF AND EQ PUSH2 0x441C JUMPI PUSH2 0x4414 DUP4 PUSH1 0x0 DUP1 DUP5 PUSH20 0xFFFFFFFFFFFFFFFFFFFFFFFFFFFFFFFFFFFFFFFF AND PUSH20 0xFFFFFFFFFFFFFFFFFFFFFFFFFFFFFFFFFFFFFFFF AND DUP2 MSTORE PUSH1 0x20 ADD SWAP1 DUP2 MSTORE PUSH1 0x20 ADD PUSH1 0x0 KECCAK256 PUSH2 0x47F2 SWAP1 SWAP2 SWAP1 PUSH4 0xFFFFFFFF AND JUMP JUMPDEST SWAP2 POP POP PUSH2 0x4470 JUMP JUMPDEST PUSH2 0x446C DUP4 PUSH1 0x0 DUP1 DUP8 PUSH20 0xFFFFFFFFFFFFFFFFFFFFFFFFFFFFFFFFFFFFFFFF AND PUSH20 0xFFFFFFFFFFFFFFFFFFFFFFFFFFFFFFFFFFFFFFFF AND DUP2 MSTORE PUSH1 0x20 ADD SWAP1 DUP2 MSTORE PUSH1 0x20 ADD PUSH1 0x0 KECCAK256 PUSH2 0x47F2 SWAP1 SWAP2 SWAP1 PUSH4 0xFFFFFFFF AND JUMP JUMPDEST SWAP2 POP POP JUMPDEST SWAP3 SWAP2 POP POP JUMP JUMPDEST PUSH1 0x0 PUSH2 0x4485 DUP4 PUSH1 0x0 ADD DUP4 PUSH2 0x4822 JUMP JUMPDEST SWAP1 POP SWAP3 SWAP2 POP POP JUMP JUMPDEST PUSH1 0x0 PUSH2 0x449C DUP4 PUSH1 0x0 ADD DUP4 PUSH2 0x4936 JUMP JUMPDEST SWAP1 POP SWAP3 SWAP2 POP POP JUMP JUMPDEST PUSH1 0x0 DUP1 PUSH1 0x0 DUP4 PUSH20 0xFFFFFFFFFFFFFFFFFFFFFFFFFFFFFFFFFFFFFFFF AND PUSH20 0xFFFFFFFFFFFFFFFFFFFFFFFFFFFFFFFFFFFFFFFF AND DUP2 MSTORE PUSH1 0x20 ADD SWAP1 DUP2 MSTORE PUSH1 0x20 ADD PUSH1 0x0 KECCAK256 SWAP1 POP PUSH1 0x0 PUSH1 0x1 PUSH1 0x0 DUP5 PUSH20 0xFFFFFFFFFFFFFFFFFFFFFFFFFFFFFFFFFFFFFFFF AND PUSH20 0xFFFFFFFFFFFFFFFFFFFFFFFFFFFFFFFFFFFFFFFF AND DUP2 MSTORE PUSH1 0x20 ADD SWAP1 DUP2 MSTORE PUSH1 0x20 ADD PUSH1 0x0 KECCAK256 SWAP1 POP PUSH1 0x0 PUSH2 0x4534 DUP4 PUSH2 0x49A6 JUMP JUMPDEST SWAP1 POP PUSH1 0x0 PUSH2 0x4541 DUP4 PUSH2 0x49BB JUMP JUMPDEST SWAP1 POP PUSH1 0x0 JUMPDEST DUP3 DUP2 LT ISZERO PUSH2 0x462B JUMPI PUSH1 0x0 PUSH2 0x4563 DUP3 DUP8 PUSH2 0x4759 SWAP1 SWAP2 SWAP1 PUSH4 0xFFFFFFFF AND JUMP JUMPDEST SWAP1 POP PUSH1 0x0 PUSH2 0x45B7 DUP3 PUSH1 0x0 DUP1 DUP13 PUSH20 0xFFFFFFFFFFFFFFFFFFFFFFFFFFFFFFFFFFFFFFFF AND PUSH20 0xFFFFFFFFFFFFFFFFFFFFFFFFFFFFFFFFFFFFFFFF AND DUP2 MSTORE PUSH1 0x20 ADD SWAP1 DUP2 MSTORE PUSH1 0x20 ADD PUSH1 0x0 KECCAK256 PUSH2 0x47AB SWAP1 SWAP2 SWAP1 PUSH4 0xFFFFFFFF AND JUMP JUMPDEST SWAP1 POP DUP1 ISZERO PUSH2 0x461E JUMPI PUSH1 0x1 ISZERO ISZERO DUP3 PUSH20 0xFFFFFFFFFFFFFFFFFFFFFFFFFFFFFFFFFFFFFFFF AND DUP11 PUSH20 0xFFFFFFFFFFFFFFFFFFFFFFFFFFFFFFFFFFFFFFFF AND PUSH32 0x2738289D9DEECDC30EB8FFC42876633CAECCA1FFA166E4EFA89F408E17373A1A PUSH1 0x40 MLOAD PUSH1 0x40 MLOAD DUP1 SWAP2 SUB SWAP1 LOG4 JUMPDEST DUP3 PUSH1 0x1 ADD SWAP3 POP POP POP PUSH2 0x4546 JUMP JUMPDEST POP PUSH1 0x0 JUMPDEST DUP2 DUP2 LT ISZERO PUSH2 0x46FF JUMPI PUSH1 0x0 PUSH2 0x464C DUP3 DUP7 PUSH2 0x47DB SWAP1 SWAP2 SWAP1 PUSH4 0xFFFFFFFF AND JUMP JUMPDEST SWAP1 POP PUSH1 0x0 PUSH2 0x46A1 DUP3 PUSH1 0x1 PUSH1 0x0 DUP13 PUSH20 0xFFFFFFFFFFFFFFFFFFFFFFFFFFFFFFFFFFFFFFFF AND PUSH20 0xFFFFFFFFFFFFFFFFFFFFFFFFFFFFFFFFFFFFFFFF AND DUP2 MSTORE PUSH1 0x20 ADD SWAP1 DUP2 MSTORE PUSH1 0x20 ADD PUSH1 0x0 KECCAK256 PUSH2 0x448D SWAP1 SWAP2 SWAP1 PUSH4 0xFFFFFFFF AND JUMP JUMPDEST SWAP1 POP DUP1 ISZERO PUSH2 0x46F2 JUMPI PUSH1 0x1 ISZERO ISZERO DUP3 DUP11 PUSH20 0xFFFFFFFFFFFFFFFFFFFFFFFFFFFFFFFFFFFFFFFF AND PUSH32 0xB8036058BAFEA884AABC446CA15619FD86F5464A4AD96F64164AD6F77444354D PUSH1 0x40 MLOAD PUSH1 0x40 MLOAD DUP1 SWAP2 SUB SWAP1 LOG4 JUMPDEST DUP3 PUSH1 0x1 ADD SWAP3 POP POP POP PUSH2 0x462F JUMP JUMPDEST POP POP POP POP POP POP POP JUMP JUMPDEST PUSH1 0x60 PUSH1 0x0 PUSH2 0x4718 DUP4 PUSH1 0x0 ADD PUSH2 0x49D0 JUMP JUMPDEST SWAP1 POP PUSH1 0x60 DUP2 SWAP1 POP DUP1 SWAP3 POP POP POP SWAP2 SWAP1 POP JUMP JUMPDEST PUSH1 0x0 PUSH2 0x4751 DUP4 PUSH1 0x0 ADD DUP4 PUSH20 0xFFFFFFFFFFFFFFFFFFFFFFFFFFFFFFFFFFFFFFFF AND PUSH1 0x0 SHL PUSH2 0x4822 JUMP JUMPDEST SWAP1 POP SWAP3 SWAP2 POP POP JUMP JUMPDEST PUSH1 0x0 PUSH2 0x4768 DUP4 PUSH1 0x0 ADD DUP4 PUSH2 0x4A2C JUMP JUMPDEST PUSH1 0x0 SHR SWAP1 POP SWAP3 SWAP2 POP POP JUMP JUMPDEST PUSH1 0x60 PUSH1 0x0 PUSH2 0x4783 DUP4 PUSH1 0x0 ADD PUSH2 0x49D0 JUMP JUMPDEST SWAP1 POP PUSH1 0x60 DUP2 SWAP1 POP DUP1 SWAP3 POP POP POP SWAP2 SWAP1 POP JUMP JUMPDEST PUSH1 0x0 PUSH2 0x47A3 DUP4 PUSH1 0x0 ADD DUP4 PUSH2 0x4A57 JUMP JUMPDEST SWAP1 POP SWAP3 SWAP2 POP POP JUMP JUMPDEST PUSH1 0x0 PUSH2 0x47D3 DUP4 PUSH1 0x0 ADD DUP4 PUSH20 0xFFFFFFFFFFFFFFFFFFFFFFFFFFFFFFFFFFFFFFFF AND PUSH1 0x0 SHL PUSH2 0x4936 JUMP JUMPDEST SWAP1 POP SWAP3 SWAP2 POP POP JUMP JUMPDEST PUSH1 0x0 PUSH2 0x47EA DUP4 PUSH1 0x0 ADD DUP4 PUSH2 0x4A2C JUMP JUMPDEST SWAP1 POP SWAP3 SWAP2 POP POP JUMP JUMPDEST PUSH1 0x0 PUSH2 0x481A DUP4 PUSH1 0x0 ADD DUP4 PUSH20 0xFFFFFFFFFFFFFFFFFFFFFFFFFFFFFFFFFFFFFFFF AND PUSH1 0x0 SHL PUSH2 0x4A57 JUMP JUMPDEST SWAP1 POP SWAP3 SWAP2 POP POP JUMP JUMPDEST PUSH1 0x0 DUP1 DUP4 PUSH1 0x1 ADD PUSH1 0x0 DUP5 DUP2 MSTORE PUSH1 0x20 ADD SWAP1 DUP2 MSTORE PUSH1 0x20 ADD PUSH1 0x0 KECCAK256 SLOAD SWAP1 POP PUSH1 0x0 DUP2 EQ PUSH2 0x492A JUMPI PUSH1 0x0 PUSH1 0x1 DUP3 PUSH2 0x4854 SWAP2 SWAP1 PUSH2 0x5357 JUMP JUMPDEST SWAP1 POP PUSH1 0x0 PUSH1 0x1 DUP7 PUSH1 0x0 ADD DUP1 SLOAD SWAP1 POP PUSH2 0x486C SWAP2 SWAP1 PUSH2 0x5357 JUMP JUMPDEST SWAP1 POP DUP2 DUP2 EQ PUSH2 0x48DB JUMPI PUSH1 0x0 DUP7 PUSH1 0x0 ADD DUP3 DUP2 SLOAD DUP2 LT PUSH2 0x488D JUMPI PUSH2 0x488C PUSH2 0x518D JUMP JUMPDEST JUMPDEST SWAP1 PUSH1 0x0 MSTORE PUSH1 0x20 PUSH1 0x0 KECCAK256 ADD SLOAD SWAP1 POP DUP1 DUP8 PUSH1 0x0 ADD DUP5 DUP2 SLOAD DUP2 LT PUSH2 0x48B1 JUMPI PUSH2 0x48B0 PUSH2 0x518D JUMP JUMPDEST JUMPDEST SWAP1 PUSH1 0x0 MSTORE PUSH1 0x20 PUSH1 0x0 KECCAK256 ADD DUP2 SWAP1 SSTORE POP DUP4 DUP8 PUSH1 0x1 ADD PUSH1 0x0 DUP4 DUP2 MSTORE PUSH1 0x20 ADD SWAP1 DUP2 MSTORE PUSH1 0x20 ADD PUSH1 0x0 KECCAK256 DUP2 SWAP1 SSTORE POP POP JUMPDEST DUP6 PUSH1 0x0 ADD DUP1 SLOAD DUP1 PUSH2 0x48EF JUMPI PUSH2 0x48EE PUSH2 0x538B JUMP JUMPDEST JUMPDEST PUSH1 0x1 SWAP1 SUB DUP2 DUP2 SWAP1 PUSH1 0x0 MSTORE PUSH1 0x20 PUSH1 0x0 KECCAK256 ADD PUSH1 0x0 SWAP1 SSTORE SWAP1 SSTORE DUP6 PUSH1 0x1 ADD PUSH1 0x0 DUP7 DUP2 MSTORE PUSH1 0x20 ADD SWAP1 DUP2 MSTORE PUSH1 0x20 ADD PUSH1 0x0 KECCAK256 PUSH1 0x0 SWAP1 SSTORE PUSH1 0x1 SWAP4 POP POP POP POP PUSH2 0x4930 JUMP JUMPDEST PUSH1 0x0 SWAP2 POP POP JUMPDEST SWAP3 SWAP2 POP POP JUMP JUMPDEST PUSH1 0x0 PUSH2 0x4942 DUP4 DUP4 PUSH2 0x4A57 JUMP JUMPDEST PUSH2 0x499B JUMPI DUP3 PUSH1 0x0 ADD DUP3 SWAP1 DUP1 PUSH1 0x1 DUP2 SLOAD ADD DUP1 DUP3 SSTORE DUP1 SWAP2 POP POP PUSH1 0x1 SWAP1 SUB SWAP1 PUSH1 0x0 MSTORE PUSH1 0x20 PUSH1 0x0 KECCAK256 ADD PUSH1 0x0 SWAP1 SWAP2 SWAP1 SWAP2 SWAP1 SWAP2 POP SSTORE DUP3 PUSH1 0x0 ADD DUP1 SLOAD SWAP1 POP DUP4 PUSH1 0x1 ADD PUSH1 0x0 DUP5 DUP2 MSTORE PUSH1 0x20 ADD SWAP1 DUP2 MSTORE PUSH1 0x20 ADD PUSH1 0x0 KECCAK256 DUP2 SWAP1 SSTORE POP PUSH1 0x1 SWAP1 POP PUSH2 0x49A0 JUMP JUMPDEST PUSH1 0x0 SWAP1 POP JUMPDEST SWAP3 SWAP2 POP POP JUMP JUMPDEST PUSH1 0x0 PUSH2 0x49B4 DUP3 PUSH1 0x0 ADD PUSH2 0x4A7A JUMP JUMPDEST SWAP1 POP SWAP2 SWAP1 POP JUMP JUMPDEST PUSH1 0x0 PUSH2 0x49C9 DUP3 PUSH1 0x0 ADD PUSH2 0x4A7A JUMP JUMPDEST SWAP1 POP SWAP2 SWAP1 POP JUMP JUMPDEST PUSH1 0x60 DUP2 PUSH1 0x0 ADD DUP1 SLOAD DUP1 PUSH1 0x20 MUL PUSH1 0x20 ADD PUSH1 0x40 MLOAD SWAP1 DUP2 ADD PUSH1 0x40 MSTORE DUP1 SWAP3 SWAP2 SWAP1 DUP2 DUP2 MSTORE PUSH1 0x20 ADD DUP3 DUP1 SLOAD DUP1 ISZERO PUSH2 0x4A20 JUMPI PUSH1 0x20 MUL DUP3 ADD SWAP2 SWAP1 PUSH1 0x0 MSTORE PUSH1 0x20 PUSH1 0x0 KECCAK256 SWAP1 JUMPDEST DUP2 SLOAD DUP2 MSTORE PUSH1 0x20 ADD SWAP1 PUSH1 0x1 ADD SWAP1 DUP1 DUP4 GT PUSH2 0x4A0C JUMPI JUMPDEST POP POP POP POP POP SWAP1 POP SWAP2 SWAP1 POP JUMP JUMPDEST PUSH1 0x0 DUP3 PUSH1 0x0 ADD DUP3 DUP2 SLOAD DUP2 LT PUSH2 0x4A44 JUMPI PUSH2 0x4A43 PUSH2 0x518D JUMP JUMPDEST JUMPDEST SWAP1 PUSH1 0x0 MSTORE PUSH1 0x20 PUSH1 0x0 KECCAK256 ADD SLOAD SWAP1 POP SWAP3 SWAP2 POP POP JUMP JUMPDEST PUSH1 0x0 DUP1 DUP4 PUSH1 0x1 ADD PUSH1 0x0 DUP5 DUP2 MSTORE PUSH1 0x20 ADD SWAP1 DUP2 MSTORE PUSH1 0x20 ADD PUSH1 0x0 KECCAK256 SLOAD EQ ISZERO SWAP1 POP SWAP3 SWAP2 POP POP JUMP JUMPDEST PUSH1 0x0 DUP2 PUSH1 0x0 ADD DUP1 SLOAD SWAP1 POP SWAP1 POP SWAP2 SWAP1 POP JUMP JUMPDEST PUSH1 0x0 DUP1 REVERT JUMPDEST PUSH1 0x0 DUP1 REVERT JUMPDEST PUSH1 0x0 PUSH20 0xFFFFFFFFFFFFFFFFFFFFFFFFFFFFFFFFFFFFFFFF DUP3 AND SWAP1 POP SWAP2 SWAP1 POP JUMP JUMPDEST PUSH1 0x0 PUSH2 0x4AC0 DUP3 PUSH2 0x4A95 JUMP JUMPDEST SWAP1 POP SWAP2 SWAP1 POP JUMP JUMPDEST PUSH2 0x4AD0 DUP2 PUSH2 0x4AB5 JUMP JUMPDEST DUP2 EQ PUSH2 0x4ADB JUMPI PUSH1 0x0 DUP1 REVERT JUMPDEST POP JUMP JUMPDEST PUSH1 0x0 DUP2 CALLDATALOAD SWAP1 POP PUSH2 0x4AED DUP2 PUSH2 0x4AC7 JUMP JUMPDEST SWAP3 SWAP2 POP POP JUMP JUMPDEST PUSH1 0x0 DUP1 REVERT JUMPDEST PUSH1 0x0 DUP1 REVERT JUMPDEST PUSH1 0x0 DUP1 REVERT JUMPDEST PUSH1 0x0 DUP1 DUP4 PUSH1 0x1F DUP5 ADD SLT PUSH2 0x4B18 JUMPI PUSH2 0x4B17 PUSH2 0x4AF3 JUMP JUMPDEST JUMPDEST DUP3 CALLDATALOAD SWAP1 POP PUSH8 0xFFFFFFFFFFFFFFFF DUP2 GT ISZERO PUSH2 0x4B35 JUMPI PUSH2 0x4B34 PUSH2 0x4AF8 JUMP JUMPDEST JUMPDEST PUSH1 0x20 DUP4 ADD SWAP2 POP DUP4 PUSH1 0x20 DUP3 MUL DUP4 ADD GT ISZERO PUSH2 0x4B51 JUMPI PUSH2 0x4B50 PUSH2 0x4AFD JUMP JUMPDEST JUMPDEST SWAP3 POP SWAP3 SWAP1 POP JUMP JUMPDEST PUSH1 0x0 DUP2 ISZERO ISZERO SWAP1 POP SWAP2 SWAP1 POP JUMP JUMPDEST PUSH2 0x4B6D DUP2 PUSH2 0x4B58 JUMP JUMPDEST DUP2 EQ PUSH2 0x4B78 JUMPI PUSH1 0x0 DUP1 REVERT JUMPDEST POP JUMP JUMPDEST PUSH1 0x0 DUP2 CALLDATALOAD SWAP1 POP PUSH2 0x4B8A DUP2 PUSH2 0x4B64 JUMP JUMPDEST SWAP3 SWAP2 POP POP JUMP JUMPDEST PUSH1 0x0 DUP1 PUSH1 0x0 DUP1 PUSH1 0x60 DUP6 DUP8 SUB SLT ISZERO PUSH2 0x4BAA JUMPI PUSH2 0x4BA9 PUSH2 0x4A8B JUMP JUMPDEST JUMPDEST PUSH1 0x0 PUSH2 0x4BB8 DUP8 DUP3 DUP9 ADD PUSH2 0x4ADE JUMP JUMPDEST SWAP5 POP POP PUSH1 0x20 DUP6 ADD CALLDATALOAD PUSH8 0xFFFFFFFFFFFFFFFF DUP2 GT ISZERO PUSH2 0x4BD9 JUMPI PUSH2 0x4BD8 PUSH2 0x4A90 JUMP JUMPDEST JUMPDEST PUSH2 0x4BE5 DUP8 DUP3 DUP9 ADD PUSH2 0x4B02 JUMP JUMPDEST SWAP4 POP SWAP4 POP POP PUSH1 0x40 PUSH2 0x4BF8 DUP8 DUP3 DUP9 ADD PUSH2 0x4B7B JUMP JUMPDEST SWAP2 POP POP SWAP3 SWAP6 SWAP2 SWAP5 POP SWAP3 POP JUMP JUMPDEST PUSH1 0x0 DUP1 PUSH1 0x40 DUP4 DUP6 SUB SLT ISZERO PUSH2 0x4C1B JUMPI PUSH2 0x4C1A PUSH2 0x4A8B JUMP JUMPDEST JUMPDEST PUSH1 0x0 PUSH2 0x4C29 DUP6 DUP3 DUP7 ADD PUSH2 0x4ADE JUMP JUMPDEST SWAP3 POP POP PUSH1 0x20 PUSH2 0x4C3A DUP6 DUP3 DUP7 ADD PUSH2 0x4ADE JUMP JUMPDEST SWAP2 POP POP SWAP3 POP SWAP3 SWAP1 POP JUMP JUMPDEST PUSH1 0x0 PUSH1 0x20 DUP3 DUP5 SUB SLT ISZERO PUSH2 0x4C5A JUMPI PUSH2 0x4C59 PUSH2 0x4A8B JUMP JUMPDEST JUMPDEST PUSH1 0x0 PUSH2 0x4C68 DUP5 DUP3 DUP6 ADD PUSH2 0x4ADE JUMP JUMPDEST SWAP2 POP POP SWAP3 SWAP2 POP POP JUMP JUMPDEST PUSH1 0x0 DUP2 MLOAD SWAP1 POP SWAP2 SWAP1 POP JUMP JUMPDEST PUSH1 0x0 DUP3 DUP3 MSTORE PUSH1 0x20 DUP3 ADD SWAP1 POP SWAP3 SWAP2 POP POP JUMP JUMPDEST PUSH1 0x0 DUP2 SWAP1 POP PUSH1 0x20 DUP3 ADD SWAP1 POP SWAP2 SWAP1 POP JUMP JUMPDEST PUSH1 0x0 DUP2 SWAP1 POP SWAP2 SWAP1 POP JUMP JUMPDEST PUSH2 0x4CB0 DUP2 PUSH2 0x4C9D JUMP JUMPDEST DUP3 MSTORE POP POP JUMP JUMPDEST PUSH1 0x0 PUSH2 0x4CC2 DUP4 DUP4 PUSH2 0x4CA7 JUMP JUMPDEST PUSH1 0x20 DUP4 ADD SWAP1 POP SWAP3 SWAP2 POP POP JUMP JUMPDEST PUSH1 0x0 PUSH1 0x20 DUP3 ADD SWAP1 POP SWAP2 SWAP1 POP JUMP JUMPDEST PUSH1 0x0 PUSH2 0x4CE6 DUP3 PUSH2 0x4C71 JUMP JUMPDEST PUSH2 0x4CF0 DUP2 DUP6 PUSH2 0x4C7C JUMP JUMPDEST SWAP4 POP PUSH2 0x4CFB DUP4 PUSH2 0x4C8D JUMP JUMPDEST DUP1 PUSH1 0x0 JUMPDEST DUP4 DUP2 LT ISZERO PUSH2 0x4D2C JUMPI DUP2 MLOAD PUSH2 0x4D13 DUP9 DUP3 PUSH2 0x4CB6 JUMP JUMPDEST SWAP8 POP PUSH2 0x4D1E DUP4 PUSH2 0x4CCE JUMP JUMPDEST SWAP3 POP POP PUSH1 0x1 DUP2 ADD SWAP1 POP PUSH2 0x4CFF JUMP JUMPDEST POP DUP6 SWAP4 POP POP POP POP SWAP3 SWAP2 POP POP JUMP JUMPDEST PUSH1 0x0 PUSH1 0x20 DUP3 ADD SWAP1 POP DUP2 DUP2 SUB PUSH1 0x0 DUP4 ADD MSTORE PUSH2 0x4D53 DUP2 DUP5 PUSH2 0x4CDB JUMP JUMPDEST SWAP1 POP SWAP3 SWAP2 POP POP JUMP JUMPDEST PUSH1 0x0 DUP1 PUSH1 0x40 DUP4 DUP6 SUB SLT ISZERO PUSH2 0x4D72 JUMPI PUSH2 0x4D71 PUSH2 0x4A8B JUMP JUMPDEST JUMPDEST PUSH1 0x0 PUSH2 0x4D80 DUP6 DUP3 DUP7 ADD PUSH2 0x4ADE JUMP JUMPDEST SWAP3 POP POP PUSH1 0x20 PUSH2 0x4D91 DUP6 DUP3 DUP7 ADD PUSH2 0x4B7B JUMP JUMPDEST SWAP2 POP POP SWAP3 POP SWAP3 SWAP1 POP JUMP JUMPDEST PUSH2 0x4DA4 DUP2 PUSH2 0x4AB5 JUMP JUMPDEST DUP3 MSTORE POP POP JUMP JUMPDEST PUSH1 0x0 PUSH1 0x20 DUP3 ADD SWAP1 POP PUSH2 0x4DBF PUSH1 0x0 DUP4 ADD DUP5 PUSH2 0x4D9B JUMP JUMPDEST SWAP3 SWAP2 POP POP JUMP JUMPDEST PUSH1 0x0 DUP2 SWAP1 POP SWAP2 SWAP1 POP JUMP JUMPDEST PUSH2 0x4DD8 DUP2 PUSH2 0x4DC5 JUMP JUMPDEST DUP2 EQ PUSH2 0x4DE3 JUMPI PUSH1 0x0 DUP1 REVERT JUMPDEST POP JUMP JUMPDEST PUSH1 0x0 DUP2 CALLDATALOAD SWAP1 POP PUSH2 0x4DF5 DUP2 PUSH2 0x4DCF JUMP JUMPDEST SWAP3 SWAP2 POP POP JUMP JUMPDEST PUSH1 0x0 DUP1 PUSH1 0x40 DUP4 DUP6 SUB SLT ISZERO PUSH2 0x4E12 JUMPI PUSH2 0x4E11 PUSH2 0x4A8B JUMP JUMPDEST JUMPDEST PUSH1 0x0 PUSH2 0x4E20 DUP6 DUP3 DUP7 ADD PUSH2 0x4ADE JUMP JUMPDEST SWAP3 POP POP PUSH1 0x20 PUSH2 0x4E31 DUP6 DUP3 DUP7 ADD PUSH2 0x4DE6 JUMP JUMPDEST SWAP2 POP POP SWAP3 POP SWAP3 SWAP1 POP JUMP JUMPDEST PUSH1 0x0 DUP2 MLOAD SWAP1 POP SWAP2 SWAP1 POP JUMP JUMPDEST PUSH1 0x0 DUP3 DUP3 MSTORE PUSH1 0x20 DUP3 ADD SWAP1 POP SWAP3 SWAP2 POP POP JUMP JUMPDEST PUSH1 0x0 DUP2 SWAP1 POP PUSH1 0x20 DUP3 ADD SWAP1 POP SWAP2 SWAP1 POP JUMP JUMPDEST PUSH2 0x4E70 DUP2 PUSH2 0x4AB5 JUMP JUMPDEST DUP3 MSTORE POP POP JUMP JUMPDEST PUSH1 0x0 PUSH2 0x4E82 DUP4 DUP4 PUSH2 0x4E67 JUMP JUMPDEST PUSH1 0x20 DUP4 ADD SWAP1 POP SWAP3 SWAP2 POP POP JUMP JUMPDEST PUSH1 0x0 PUSH1 0x20 DUP3 ADD SWAP1 POP SWAP2 SWAP1 POP JUMP JUMPDEST PUSH1 0x0 PUSH2 0x4EA6 DUP3 PUSH2 0x4E3B JUMP JUMPDEST PUSH2 0x4EB0 DUP2 DUP6 PUSH2 0x4E46 JUMP JUMPDEST SWAP4 POP PUSH2 0x4EBB DUP4 PUSH2 0x4E57 JUMP JUMPDEST DUP1 PUSH1 0x0 JUMPDEST DUP4 DUP2 LT ISZERO PUSH2 0x4EEC JUMPI DUP2 MLOAD PUSH2 0x4ED3 DUP9 DUP3 PUSH2 0x4E76 JUMP JUMPDEST SWAP8 POP PUSH2 0x4EDE DUP4 PUSH2 0x4E8E JUMP JUMPDEST SWAP3 POP POP PUSH1 0x1 DUP2 ADD SWAP1 POP PUSH2 0x4EBF JUMP JUMPDEST POP DUP6 SWAP4 POP POP POP POP SWAP3 SWAP2 POP POP JUMP JUMPDEST PUSH1 0x0 PUSH1 0x20 DUP3 ADD SWAP1 POP DUP2 DUP2 SUB PUSH1 0x0 DUP4 ADD MSTORE PUSH2 0x4F13 DUP2 DUP5 PUSH2 0x4E9B JUMP JUMPDEST SWAP1 POP SWAP3 SWAP2 POP POP JUMP JUMPDEST PUSH2 0x4F24 DUP2 PUSH2 0x4B58 JUMP JUMPDEST DUP3 MSTORE POP POP JUMP JUMPDEST PUSH1 0x0 PUSH1 0x20 DUP3 ADD SWAP1 POP PUSH2 0x4F3F PUSH1 0x0 DUP4 ADD DUP5 PUSH2 0x4F1B JUMP JUMPDEST SWAP3 SWAP2 POP POP JUMP JUMPDEST PUSH2 0x4F4E DUP2 PUSH2 0x4C9D JUMP JUMPDEST DUP2 EQ PUSH2 0x4F59 JUMPI PUSH1 0x0 DUP1 REVERT JUMPDEST POP JUMP JUMPDEST PUSH1 0x0 DUP2 CALLDATALOAD SWAP1 POP PUSH2 0x4F6B DUP2 PUSH2 0x4F45 JUMP JUMPDEST SWAP3 SWAP2 POP POP JUMP JUMPDEST PUSH1 0x0 DUP1 PUSH1 0x40 DUP4 DUP6 SUB SLT ISZERO PUSH2 0x4F88 JUMPI PUSH2 0x4F87 PUSH2 0x4A8B JUMP JUMPDEST JUMPDEST PUSH1 0x0 PUSH2 0x4F96 DUP6 DUP3 DUP7 ADD PUSH2 0x4ADE JUMP JUMPDEST SWAP3 POP POP PUSH1 0x20 PUSH2 0x4FA7 DUP6 DUP3 DUP7 ADD PUSH2 0x4F5C JUMP JUMPDEST SWAP2 POP POP SWAP3 POP SWAP3 SWAP1 POP JUMP JUMPDEST PUSH1 0x0 DUP1 PUSH1 0x0 PUSH1 0x60 DUP5 DUP7 SUB SLT ISZERO PUSH2 0x4FCA JUMPI PUSH2 0x4FC9 PUSH2 0x4A8B JUMP JUMPDEST JUMPDEST PUSH1 0x0 PUSH2 0x4FD8 DUP7 DUP3 DUP8 ADD PUSH2 0x4ADE JUMP JUMPDEST SWAP4 POP POP PUSH1 0x20 PUSH2 0x4FE9 DUP7 DUP3 DUP8 ADD PUSH2 0x4F5C JUMP JUMPDEST SWAP3 POP POP PUSH1 0x40 PUSH2 0x4FFA DUP7 DUP3 DUP8 ADD PUSH2 0x4B7B JUMP JUMPDEST SWAP2 POP POP SWAP3 POP SWAP3 POP SWAP3 JUMP JUMPDEST PUSH1 0x0 DUP1 DUP4 PUSH1 0x1F DUP5 ADD SLT PUSH2 0x501A JUMPI PUSH2 0x5019 PUSH2 0x4AF3 JUMP JUMPDEST JUMPDEST DUP3 CALLDATALOAD SWAP1 POP PUSH8 0xFFFFFFFFFFFFFFFF DUP2 GT ISZERO PUSH2 0x5037 JUMPI PUSH2 0x5036 PUSH2 0x4AF8 JUMP JUMPDEST JUMPDEST PUSH1 0x20 DUP4 ADD SWAP2 POP DUP4 PUSH1 0x20 DUP3 MUL DUP4 ADD GT ISZERO PUSH2 0x5053 JUMPI PUSH2 0x5052 PUSH2 0x4AFD JUMP JUMPDEST JUMPDEST SWAP3 POP SWAP3 SWAP1 POP JUMP JUMPDEST PUSH1 0x0 DUP1 PUSH1 0x0 DUP1 PUSH1 0x60 DUP6 DUP8 SUB SLT ISZERO PUSH2 0x5074 JUMPI PUSH2 0x5073 PUSH2 0x4A8B JUMP JUMPDEST JUMPDEST PUSH1 0x0 PUSH2 0x5082 DUP8 DUP3 DUP9 ADD PUSH2 0x4ADE JUMP JUMPDEST SWAP5 POP POP PUSH1 0x20 DUP6 ADD CALLDATALOAD PUSH8 0xFFFFFFFFFFFFFFFF DUP2 GT ISZERO PUSH2 0x50A3 JUMPI PUSH2 0x50A2 PUSH2 0x4A90 JUMP JUMPDEST JUMPDEST PUSH2 0x50AF DUP8 DUP3 DUP9 ADD PUSH2 0x5004 JUMP JUMPDEST SWAP4 POP SWAP4 POP POP PUSH1 0x40 PUSH2 0x50C2 DUP8 DUP3 DUP9 ADD PUSH2 0x4B7B JUMP JUMPDEST SWAP2 POP POP SWAP3 SWAP6 SWAP2 SWAP5 POP SWAP3 POP JUMP JUMPDEST PUSH1 0x0 DUP1 PUSH1 0x0 PUSH1 0x60 DUP5 DUP7 SUB SLT ISZERO PUSH2 0x50E7 JUMPI PUSH2 0x50E6 PUSH2 0x4A8B JUMP JUMPDEST JUMPDEST PUSH1 0x0 PUSH2 0x50F5 DUP7 DUP3 DUP8 ADD PUSH2 0x4ADE JUMP JUMPDEST SWAP4 POP POP PUSH1 0x20 PUSH2 0x5106 DUP7 DUP3 DUP8 ADD PUSH2 0x4ADE JUMP JUMPDEST SWAP3 POP POP PUSH1 0x40 PUSH2 0x5117 DUP7 DUP3 DUP8 ADD PUSH2 0x4B7B JUMP JUMPDEST SWAP2 POP POP SWAP3 POP SWAP3 POP SWAP3 JUMP JUMPDEST PUSH2 0x512A DUP2 PUSH2 0x4C9D JUMP JUMPDEST DUP3 MSTORE POP POP JUMP JUMPDEST PUSH1 0x0 PUSH1 0x20 DUP3 ADD SWAP1 POP PUSH2 0x5145 PUSH1 0x0 DUP4 ADD DUP5 PUSH2 0x5121 JUMP JUMPDEST SWAP3 SWAP2 POP POP JUMP JUMPDEST PUSH1 0x0 DUP2 MLOAD SWAP1 POP PUSH2 0x515A DUP2 PUSH2 0x4AC7 JUMP JUMPDEST SWAP3 SWAP2 POP POP JUMP JUMPDEST PUSH1 0x0 PUSH1 0x20 DUP3 DUP5 SUB SLT ISZERO PUSH2 0x5176 JUMPI PUSH2 0x5175 PUSH2 0x4A8B JUMP JUMPDEST JUMPDEST PUSH1 0x0 PUSH2 0x5184 DUP5 DUP3 DUP6 ADD PUSH2 0x514B JUMP JUMPDEST SWAP2 POP POP SWAP3 SWAP2 POP POP JUMP JUMPDEST PUSH32 0x4E487B7100000000000000000000000000000000000000000000000000000000 PUSH1 0x0 MSTORE PUSH1 0x32 PUSH1 0x4 MSTORE PUSH1 0x24 PUSH1 0x0 REVERT JUMPDEST PUSH1 0x0 DUP1 REVERT JUMPDEST DUP3 DUP2 DUP4 CALLDATACOPY PUSH1 0x0 DUP4 DUP4 ADD MSTORE POP POP POP JUMP JUMPDEST PUSH1 0x0 PUSH2 0x51DC DUP4 DUP6 PUSH2 0x4C7C JUMP JUMPDEST SWAP4 POP PUSH32 0x7FFFFFFFFFFFFFFFFFFFFFFFFFFFFFFFFFFFFFFFFFFFFFFFFFFFFFFFFFFFFFF DUP4 GT ISZERO PUSH2 0x520F JUMPI PUSH2 0x520E PUSH2 0x51BC JUMP JUMPDEST JUMPDEST PUSH1 0x20 DUP4 MUL SWAP3 POP PUSH2 0x5220 DUP4 DUP6 DUP5 PUSH2 0x51C1 JUMP JUMPDEST DUP3 DUP5 ADD SWAP1 POP SWAP4 SWAP3 POP POP POP JUMP JUMPDEST PUSH1 0x0 PUSH1 0x20 DUP3 ADD SWAP1 POP DUP2 DUP2 SUB PUSH1 0x0 DUP4 ADD MSTORE PUSH2 0x5247 DUP2 DUP5 DUP7 PUSH2 0x51D0 JUMP JUMPDEST SWAP1 POP SWAP4 SWAP3 POP POP POP JUMP JUMPDEST PUSH1 0x0 DUP2 SWAP1 POP SWAP2 SWAP1 POP JUMP JUMPDEST PUSH1 0x0 PUSH2 0x5269 PUSH1 0x20 DUP5 ADD DUP5 PUSH2 0x4ADE JUMP JUMPDEST SWAP1 POP SWAP3 SWAP2 POP POP JUMP JUMPDEST PUSH1 0x0 PUSH1 0x20 DUP3 ADD SWAP1 POP SWAP2 SWAP1 POP JUMP JUMPDEST PUSH1 0x0 PUSH2 0x528A DUP4 DUP6 PUSH2 0x4E46 JUMP JUMPDEST SWAP4 POP PUSH2 0x5295 DUP3 PUSH2 0x5250 JUMP JUMPDEST DUP1 PUSH1 0x0 JUMPDEST DUP6 DUP2 LT ISZERO PUSH2 0x52CE JUMPI PUSH2 0x52AB DUP3 DUP5 PUSH2 0x525A JUMP JUMPDEST PUSH2 0x52B5 DUP9 DUP3 PUSH2 0x4E76 JUMP JUMPDEST SWAP8 POP PUSH2 0x52C0 DUP4 PUSH2 0x5271 JUMP JUMPDEST SWAP3 POP POP PUSH1 0x1 DUP2 ADD SWAP1 POP PUSH2 0x5299 JUMP JUMPDEST POP DUP6 SWAP3 POP POP POP SWAP4 SWAP3 POP POP POP JUMP JUMPDEST PUSH1 0x0 PUSH1 0x20 DUP3 ADD SWAP1 POP DUP2 DUP2 SUB PUSH1 0x0 DUP4 ADD MSTORE PUSH2 0x52F6 DUP2 DUP5 DUP7 PUSH2 0x527E JUMP JUMPDEST SWAP1 POP SWAP4 SWAP3 POP POP POP JUMP JUMPDEST PUSH1 0x0 PUSH1 0x40 DUP3 ADD SWAP1 POP PUSH2 0x5314 PUSH1 0x0 DUP4 ADD DUP6 PUSH2 0x4D9B JUMP JUMPDEST PUSH2 0x5321 PUSH1 0x20 DUP4 ADD DUP5 PUSH2 0x5121 JUMP JUMPDEST SWAP4 SWAP3 POP POP POP JUMP JUMPDEST PUSH32 0x4E487B7100000000000000000000000000000000000000000000000000000000 PUSH1 0x0 MSTORE PUSH1 0x11 PUSH1 0x4 MSTORE PUSH1 0x24 PUSH1 0x0 REVERT JUMPDEST PUSH1 0x0 PUSH2 0x5362 DUP3 PUSH2 0x4DC5 JUMP JUMPDEST SWAP2 POP PUSH2 0x536D DUP4 PUSH2 0x4DC5 JUMP JUMPDEST SWAP3 POP DUP3 DUP3 LT ISZERO PUSH2 0x5380 JUMPI PUSH2 0x537F PUSH2 0x5328 JUMP JUMPDEST JUMPDEST DUP3 DUP3 SUB SWAP1 POP SWAP3 SWAP2 POP POP JUMP JUMPDEST PUSH32 0x4E487B7100000000000000000000000000000000000000000000000000000000 PUSH1 0x0 MSTORE PUSH1 0x31 PUSH1 0x4 MSTORE PUSH1 0x24 PUSH1 0x0 REVERT INVALID LOG2 PUSH5 0x6970667358 0x22 SLT KECCAK256 CODECOPY GT PUSH30 0x9A8A120440646B2D90D7C7D1C422E4C5AF06C81C7DA63040D14FA96B8864 PUSH20 0x6F6C634300080D00330000000000000000000000 "
				},
				"gasEstimates": {
					"creation": {
						"codeDepositCost": "4297600",
						"executionCost": "4965",
						"totalCost": "4302565"
					},
					"external": {
						"codeHashOf(address)": "3301",
						"copyEntriesOf(address,address)": "infinite",
						"filteredCodeHashAt(address,uint256)": "infinite",
						"filteredCodeHashes(address)": "infinite",
						"filteredOperatorAt(address,uint256)": "infinite",
						"filteredOperators(address)": "infinite",
						"isCodeHashFiltered(address,bytes32)": "infinite",
						"isCodeHashOfFiltered(address,address)": "infinite",
						"isOperatorAllowed(address,address)": "infinite",
						"isOperatorFiltered(address,address)": "infinite",
						"isRegistered(address)": "2970",
						"register(address)": "infinite",
						"registerAndCopyEntries(address,address)": "infinite",
						"registerAndSubscribe(address,address)": "infinite",
						"subscribe(address,address)": "infinite",
						"subscriberAt(address,uint256)": "infinite",
						"subscribers(address)": "infinite",
						"subscriptionOf(address)": "infinite",
						"unregister(address)": "infinite",
						"unsubscribe(address,bool)": "infinite",
						"updateCodeHash(address,bytes32,bool)": "infinite",
						"updateCodeHashes(address,bytes32[],bool)": "infinite",
						"updateOperator(address,address,bool)": "infinite",
						"updateOperators(address,address[],bool)": "infinite"
					},
					"internal": {
						"_copyEntries(address,address)": "infinite"
					}
				},
				"methodIdentifiers": {
					"codeHashOf(address)": "bbd652c7",
					"copyEntriesOf(address,address)": "1e06b4b4",
					"filteredCodeHashAt(address,uint256)": "a6529eb5",
					"filteredCodeHashes(address)": "22fa2762",
					"filteredOperatorAt(address,uint256)": "3f1cc5fa",
					"filteredOperators(address)": "c4308805",
					"isCodeHashFiltered(address,bytes32)": "6af0c315",
					"isCodeHashOfFiltered(address,address)": "5eae3173",
					"isOperatorAllowed(address,address)": "c6171134",
					"isOperatorFiltered(address,address)": "e4aecb54",
					"isRegistered(address)": "c3c5a547",
					"register(address)": "4420e486",
					"registerAndCopyEntries(address,address)": "a0af2903",
					"registerAndSubscribe(address,address)": "7d3e3dbe",
					"subscribe(address,address)": "b314d414",
					"subscriberAt(address,uint256)": "55940e51",
					"subscribers(address)": "5745ae28",
					"subscriptionOf(address)": "3c5030bb",
					"unregister(address)": "2ec2c246",
					"unsubscribe(address,bool)": "34a0dc10",
					"updateCodeHash(address,bytes32,bool)": "712fc00b",
					"updateCodeHashes(address,bytes32[],bool)": "063298b6",
					"updateOperator(address,address,bool)": "a2f367ab",
					"updateOperators(address,address[],bool)": "a14584c1"
				}
			},
			"storageLayout": {
				"storage": [
					{
						"astId": 999,
						"contract": "Objectron/OperatorFilterRegistry.sol:OperatorFilterRegistry",
						"label": "_filteredOperators",
						"offset": 0,
						"slot": "0",
						"type": "t_mapping(t_address,t_struct(AddressSet)460_storage)"
					},
					{
						"astId": 1004,
						"contract": "Objectron/OperatorFilterRegistry.sol:OperatorFilterRegistry",
						"label": "_filteredCodeHashes",
						"offset": 0,
						"slot": "1",
						"type": "t_mapping(t_address,t_struct(Bytes32Set)339_storage)"
					},
					{
						"astId": 1008,
						"contract": "Objectron/OperatorFilterRegistry.sol:OperatorFilterRegistry",
						"label": "_registrations",
						"offset": 0,
						"slot": "2",
						"type": "t_mapping(t_address,t_address)"
					},
					{
						"astId": 1013,
						"contract": "Objectron/OperatorFilterRegistry.sol:OperatorFilterRegistry",
						"label": "_subscribers",
						"offset": 0,
						"slot": "3",
						"type": "t_mapping(t_address,t_struct(AddressSet)460_storage)"
					}
				],
				"types": {
					"t_address": {
						"encoding": "inplace",
						"label": "address",
						"numberOfBytes": "20"
					},
					"t_array(t_bytes32)dyn_storage": {
						"base": "t_bytes32",
						"encoding": "dynamic_array",
						"label": "bytes32[]",
						"numberOfBytes": "32"
					},
					"t_bytes32": {
						"encoding": "inplace",
						"label": "bytes32",
						"numberOfBytes": "32"
					},
					"t_mapping(t_address,t_address)": {
						"encoding": "mapping",
						"key": "t_address",
						"label": "mapping(address => address)",
						"numberOfBytes": "32",
						"value": "t_address"
					},
					"t_mapping(t_address,t_struct(AddressSet)460_storage)": {
						"encoding": "mapping",
						"key": "t_address",
						"label": "mapping(address => struct EnumerableSet.AddressSet)",
						"numberOfBytes": "32",
						"value": "t_struct(AddressSet)460_storage"
					},
					"t_mapping(t_address,t_struct(Bytes32Set)339_storage)": {
						"encoding": "mapping",
						"key": "t_address",
						"label": "mapping(address => struct EnumerableSet.Bytes32Set)",
						"numberOfBytes": "32",
						"value": "t_struct(Bytes32Set)339_storage"
					},
					"t_mapping(t_bytes32,t_uint256)": {
						"encoding": "mapping",
						"key": "t_bytes32",
						"label": "mapping(bytes32 => uint256)",
						"numberOfBytes": "32",
						"value": "t_uint256"
					},
					"t_struct(AddressSet)460_storage": {
						"encoding": "inplace",
						"label": "struct EnumerableSet.AddressSet",
						"members": [
							{
								"astId": 459,
								"contract": "Objectron/OperatorFilterRegistry.sol:OperatorFilterRegistry",
								"label": "_inner",
								"offset": 0,
								"slot": "0",
								"type": "t_struct(Set)145_storage"
							}
						],
						"numberOfBytes": "64"
					},
					"t_struct(Bytes32Set)339_storage": {
						"encoding": "inplace",
						"label": "struct EnumerableSet.Bytes32Set",
						"members": [
							{
								"astId": 338,
								"contract": "Objectron/OperatorFilterRegistry.sol:OperatorFilterRegistry",
								"label": "_inner",
								"offset": 0,
								"slot": "0",
								"type": "t_struct(Set)145_storage"
							}
						],
						"numberOfBytes": "64"
					},
					"t_struct(Set)145_storage": {
						"encoding": "inplace",
						"label": "struct EnumerableSet.Set",
						"members": [
							{
								"astId": 140,
								"contract": "Objectron/OperatorFilterRegistry.sol:OperatorFilterRegistry",
								"label": "_values",
								"offset": 0,
								"slot": "0",
								"type": "t_array(t_bytes32)dyn_storage"
							},
							{
								"astId": 144,
								"contract": "Objectron/OperatorFilterRegistry.sol:OperatorFilterRegistry",
								"label": "_indexes",
								"offset": 0,
								"slot": "1",
								"type": "t_mapping(t_bytes32,t_uint256)"
							}
						],
						"numberOfBytes": "64"
					},
					"t_uint256": {
						"encoding": "inplace",
						"label": "uint256",
						"numberOfBytes": "32"
					}
				}
			},
			"userdoc": {
				"errors": {
					"AddressAlreadyFiltered(address)": [
						{
							"notice": "Emitted when trying to add an address that is already filtered."
						}
					],
					"AddressFiltered(address)": [
						{
							"notice": "Emitted when an address is filtered."
						}
					],
					"AddressNotFiltered(address)": [
						{
							"notice": "Emitted when trying to remove an address that is not filtered."
						}
					],
					"AlreadyRegistered()": [
						{
							"notice": "Emitted when the registrant is already registered."
						}
					],
					"AlreadySubscribed(address)": [
						{
							"notice": "Emitted when the registrant is already subscribed."
						}
					],
					"CannotCopyFromSelf()": [
						{
							"notice": "Emitted when trying to copy a registration from itself."
						}
					],
					"CannotFilterEOAs()": [
						{
							"notice": "Emitted when trying to register an address that has no code."
						}
					],
					"CannotSubscribeToRegistrantWithSubscription(address)": [
						{
							"notice": "Emited when trying to register to a registrant with a subscription."
						}
					],
					"CannotSubscribeToSelf()": [
						{
							"notice": "Emitted when trying to subscribe to itself."
						}
					],
					"CannotSubscribeToZeroAddress()": [
						{
							"notice": "Emitted when trying to subscribe to the zero address."
						}
					],
					"CannotUpdateWhileSubscribed(address)": [
						{
							"notice": "Emitted when trying to update a registration where the registrant is already subscribed."
						}
					],
					"CodeHashAlreadyFiltered(bytes32)": [
						{
							"notice": "Emitted when trying to add a codehash that is already filtered."
						}
					],
					"CodeHashFiltered(address,bytes32)": [
						{
							"notice": "Emitted when a codeHash is filtered."
						}
					],
					"CodeHashNotFiltered(bytes32)": [
						{
							"notice": "Emitted when trying to remove a codehash that is not filtered."
						}
					],
					"NotOwnable()": [
						{
							"notice": "Emitted when trying to register and the contract is not ownable (EIP-173 \"owner()\")"
						}
					],
					"NotRegistered(address)": [
						{
							"notice": "Emitted when the registrant is not registered."
						}
					],
					"NotSubscribed()": [
						{
							"notice": "Emitted when the registrant is not subscribed."
						}
					],
					"OnlyAddressOrOwner()": [
						{
							"notice": "Emitted when the caller is not the address or EIP-173 \"owner()\""
						}
					]
				},
				"events": {
					"CodeHashUpdated(address,bytes32,bool)": {
						"notice": "Emitted when a codeHash is updated."
					},
					"CodeHashesUpdated(address,bytes32[],bool)": {
						"notice": "Emitted when multiple codeHashes are updated."
					},
					"OperatorUpdated(address,address,bool)": {
						"notice": "Emitted when an operator is updated."
					},
					"OperatorsUpdated(address,address[],bool)": {
						"notice": "Emitted when multiple operators are updated."
					},
					"RegistrationUpdated(address,bool)": {
						"notice": "Emitted when a registration is updated."
					},
					"SubscriptionUpdated(address,address,bool)": {
						"notice": "Emitted when a subscription is updated."
					}
				},
				"kind": "user",
				"methods": {
					"copyEntriesOf(address,address)": {
						"notice": "Copy filtered operators and codeHashes from a different registrantToCopy to addr."
					},
					"filteredCodeHashAt(address,uint256)": {
						"notice": "Returns the filtered codeHash at the given index of the list of filtered codeHashes for a given address or         its subscription.         Note that order is not guaranteed as updates are made."
					},
					"filteredCodeHashes(address)": {
						"notice": "Returns the set of filtered codeHashes for a given address or its subscription.         Note that order is not guaranteed as updates are made."
					},
					"filteredOperatorAt(address,uint256)": {
						"notice": "Returns the filtered operator at the given index of the set of filtered operators for a given address or         its subscription.         Note that order is not guaranteed as updates are made."
					},
					"filteredOperators(address)": {
						"notice": "Returns a list of filtered operators for a given address or its subscription."
					},
					"isCodeHashFiltered(address,bytes32)": {
						"notice": "Returns true if a codeHash is filtered by a given address or its subscription."
					},
					"isCodeHashOfFiltered(address,address)": {
						"notice": "Returns true if the hash of an address's code is filtered by a given address or its subscription."
					},
					"isOperatorAllowed(address,address)": {
						"notice": "Returns true if operator is not filtered for a given token, either by address or codeHash. Also returns         true if supplied registrant address is not registered.         Note that this method will *revert* if an operator or its codehash is filtered with an error that is         more informational than a false boolean, so smart contracts that query this method for informational         purposes will need to wrap in a try/catch or perform a low-level staticcall in order to handle the case         that an operator is filtered."
					},
					"isOperatorFiltered(address,address)": {
						"notice": "Returns true if operator is filtered by a given address or its subscription."
					},
					"isRegistered(address)": {
						"notice": "Returns true if an address has registered"
					},
					"register(address)": {
						"notice": "Registers an address with the registry. May be called by address itself or by EIP-173 owner."
					},
					"registerAndCopyEntries(address,address)": {
						"notice": "Registers an address with the registry and copies the filtered operators and codeHashes from another         address without subscribing."
					},
					"registerAndSubscribe(address,address)": {
						"notice": "Registers an address with the registry and \"subscribes\" to another address's filtered operators and codeHashes."
					},
					"subscribe(address,address)": {
						"notice": "Subscribe an address to another registrant's filtered operators and codeHashes. Will remove previous         subscription if present.         Note that accounts with subscriptions may go on to subscribe to other accounts - in this case,         subscriptions will not be forwarded. Instead the former subscription's existing entries will still be         used."
					},
					"subscriberAt(address,uint256)": {
						"notice": "Get the subscriber at a given index in the set of addresses subscribed to a given registrant.         Note that order is not guaranteed as updates are made."
					},
					"subscribers(address)": {
						"notice": "Get the set of addresses subscribed to a given registrant.         Note that order is not guaranteed as updates are made."
					},
					"subscriptionOf(address)": {
						"notice": "Get the subscription address of a given registrant, if any."
					},
					"unregister(address)": {
						"notice": "Unregisters an address with the registry and removes its subscription. May be called by address itself or by EIP-173 owner.         Note that this does not remove any filtered addresses or codeHashes.         Also note that any subscriptions to this registrant will still be active and follow the existing filtered addresses and codehashes."
					},
					"unsubscribe(address,bool)": {
						"notice": "Unsubscribe an address from its current subscribed registrant, and optionally copy its filtered operators and codeHashes."
					},
					"updateCodeHash(address,bytes32,bool)": {
						"notice": "Update a codeHash for a registered address - when filtered is true, the codeHash is filtered.         Note that this will allow adding the bytes32(0) codehash, which could result in unexpected behavior,         since calling `isCodeHashFiltered` will return true for bytes32(0), which is the codeHash of any         un-initialized account. Since un-initialized accounts have no code, the registry will not validate         that an un-initalized account's codeHash is not filtered. By the time an account is able to         act as an operator (an account is initialized or a smart contract exclusively in the context of its         constructor),  it will have a codeHash of EOA_CODEHASH, which cannot be filtered."
					},
					"updateCodeHashes(address,bytes32[],bool)": {
						"notice": "Update multiple codeHashes for a registered address - when filtered is true, the codeHashes will be filtered. Reverts on duplicates.         Note that this will allow adding the bytes32(0) codehash, which could result in unexpected behavior,         since calling `isCodeHashFiltered` will return true for bytes32(0), which is the codeHash of any         un-initialized account. Since un-initialized accounts have no code, the registry will not validate         that an un-initalized account's codeHash is not filtered. By the time an account is able to         act as an operator (an account is initialized or a smart contract exclusively in the context of its         constructor),  it will have a codeHash of EOA_CODEHASH, which cannot be filtered."
					},
					"updateOperator(address,address,bool)": {
						"notice": "Update an operator address for a registered address - when filtered is true, the operator is filtered."
					},
					"updateOperators(address,address[],bool)": {
						"notice": "Update multiple operators for a registered address - when filtered is true, the operators will be filtered. Reverts on duplicates."
					}
				},
				"notice": "Borrows heavily from the QQL BlacklistOperatorFilter contract:         https://github.com/qql-art/contracts/blob/main/contracts/BlacklistOperatorFilter.solThis contracts allows tokens or token owners to register specific addresses or codeHashes that may be *       restricted according to the isOperatorAllowed function.",
				"version": 1
			}
		}
	}
}