{
	"data": {
		"bytecode": {
			"linkReferences": {},
			"object": "6080604052604051806020016040528060008152506003908162000024919062001029565b503480156200003257600080fd5b50733cc6cdda760b79bafa08df41ecfa224f810dceb66001604051806020016040528060008152506200006b816200030f60201b60201c565b506200008c620000806200032460201b60201c565b6200032c60201b60201c565b60006daaeb6d7670e522a718067333cd4e73ffffffffffffffffffffffffffffffffffffffff163b11156200028157801562000147576daaeb6d7670e522a718067333cd4e73ffffffffffffffffffffffffffffffffffffffff16637d3e3dbe30846040518363ffffffff1660e01b81526004016200010d92919062001155565b600060405180830381600087803b1580156200012857600080fd5b505af11580156200013d573d6000803e3d6000fd5b5050505062000280565b600073ffffffffffffffffffffffffffffffffffffffff168273ffffffffffffffffffffffffffffffffffffffff161462000201576daaeb6d7670e522a718067333cd4e73ffffffffffffffffffffffffffffffffffffffff1663a0af290330846040518363ffffffff1660e01b8152600401620001c792919062001155565b600060405180830381600087803b158015620001e257600080fd5b505af1158015620001f7573d6000803e3d6000fd5b505050506200027f565b6daaeb6d7670e522a718067333cd4e73ffffffffffffffffffffffffffffffffffffffff16634420e486306040518263ffffffff1660e01b81526004016200024a919062001182565b600060405180830381600087803b1580156200026557600080fd5b505af11580156200027a573d6000803e3d6000fd5b505050505b5b5b505062000297336103e8620003f260201b60201c565b620002c16040518060600160405280603681526020016200533c603691396200059560201b60201c565b6200030960016040518060400160405280600681526020017f312e6a736f6e0000000000000000000000000000000000000000000000000000815250620005aa60201b60201c565b62001a3a565b806002908162000320919062001029565b5050565b600033905090565b6000600560009054906101000a900473ffffffffffffffffffffffffffffffffffffffff16905081600560006101000a81548173ffffffffffffffffffffffffffffffffffffffff021916908373ffffffffffffffffffffffffffffffffffffffff1602179055508173ffffffffffffffffffffffffffffffffffffffff168173ffffffffffffffffffffffffffffffffffffffff167f8be0079c531659141344cd1fd0a4f28419497f9722a3daafe3b4186f6b6457e060405160405180910390a35050565b620004026200064b60201b60201c565b6bffffffffffffffffffffffff16816bffffffffffffffffffffffff16111562000463576040517f08c379a00000000000000000000000000000000000000000000000000000000081526004016200045a9062001226565b60405180910390fd5b600073ffffffffffffffffffffffffffffffffffffffff168273ffffffffffffffffffffffffffffffffffffffff1603620004d5576040517f08c379a0000000000000000000000000000000000000000000000000000000008152600401620004cc9062001298565b60405180910390fd5b60405180604001604052808373ffffffffffffffffffffffffffffffffffffffff168152602001826bffffffffffffffffffffffff16815250600660008201518160000160006101000a81548173ffffffffffffffffffffffffffffffffffffffff021916908373ffffffffffffffffffffffffffffffffffffffff16021790555060208201518160000160146101000a8154816bffffffffffffffffffffffff02191690836bffffffffffffffffffffffff1602179055509050505050565b8060039081620005a6919062001029565b5050565b620005ba6200065560201b60201c565b6000620005cd83620006e660201b60201c565b511462000611576040517f08c379a000000000000000000000000000000000000000000000000000000000815260040162000608906200130a565b60405180910390fd5b620006353383600160405180602001604052806000815250620007e460201b60201c565b620006478282620009cb60201b60201c565b5050565b6000612710905090565b620006656200032460201b60201c565b73ffffffffffffffffffffffffffffffffffffffff166200068b62000a3c60201b60201c565b73ffffffffffffffffffffffffffffffffffffffff1614620006e4576040517f08c379a0000000000000000000000000000000000000000000000000000000008152600401620006db906200137c565b60405180910390fd5b565b606060006004600084815260200190815260200160002080546200070a9062000e18565b80601f0160208091040260200160405190810160405280929190818152602001828054620007389062000e18565b8015620007895780601f106200075d5761010080835404028352916020019162000789565b820191906000526020600020905b8154815290600101906020018083116200076b57829003601f168201915b505050505090506000815111620007b657620007b08362000a6660201b62000a821760201c565b620007dc565b600381604051602001620007cc9291906200149b565b6040516020818303038152906040525b915050919050565b600073ffffffffffffffffffffffffffffffffffffffff168473ffffffffffffffffffffffffffffffffffffffff160362000856576040517f08c379a00000000000000000000000000000000000000000000000000000000081526004016200084d9062001539565b60405180910390fd5b6000620008686200032460201b60201c565b905060006200087d8562000b0260201b60201c565b90506000620008928562000b0260201b60201c565b9050620008ab8360008985858962000b8360201b60201c565b8460008088815260200190815260200160002060008973ffffffffffffffffffffffffffffffffffffffff1673ffffffffffffffffffffffffffffffffffffffff16815260200190815260200160002060008282546200090c91906200158a565b925050819055508673ffffffffffffffffffffffffffffffffffffffff16600073ffffffffffffffffffffffffffffffffffffffff168473ffffffffffffffffffffffffffffffffffffffff167fc3d58168c5ae7397731d063d5bbf3d657854427343f4c083240f7aacaa2d0f6289896040516200098c929190620015d6565b60405180910390a4620009ab8360008985858962000b8b60201b60201c565b620009c28360008989898962000b9360201b60201c565b50505050505050565b80600460008481526020019081526020016000209081620009ed919062001029565b50817f6bb7ff708619ba0610cba295a58592e0451dee2622938c8755667688daf3529b62000a2184620006e660201b60201c565b60405162000a30919062001655565b60405180910390a25050565b6000600560009054906101000a900473ffffffffffffffffffffffffffffffffffffffff16905090565b60606002805462000a779062000e18565b80601f016020809104026020016040519081016040528092919081815260200182805462000aa59062000e18565b801562000af65780601f1062000aca5761010080835404028352916020019162000af6565b820191906000526020600020905b81548152906001019060200180831162000ad857829003601f168201915b50505050509050919050565b60606000600167ffffffffffffffff81111562000b245762000b2362000dba565b5b60405190808252806020026020018201604052801562000b535781602001602082028036833780820191505090505b509050828160008151811062000b6e5762000b6d62001679565b5b60200260200101818152505080915050919050565b505050505050565b505050505050565b62000bbf8473ffffffffffffffffffffffffffffffffffffffff1662000d8c60201b62000b161760201c565b1562000d84578373ffffffffffffffffffffffffffffffffffffffff1663f23a6e6187878686866040518663ffffffff1660e01b815260040162000c0895949392919062001705565b6020604051808303816000875af192505050801562000c4757506040513d601f19601f8201168201806040525081019062000c449190620017d5565b60015b62000cf85762000c5662001814565b806308c379a00362000cb9575062000c6d6200186f565b8062000c7a575062000cbb565b806040517f08c379a000000000000000000000000000000000000000000000000000000000815260040162000cb0919062001655565b60405180910390fd5b505b6040517f08c379a000000000000000000000000000000000000000000000000000000000815260040162000cef9062001980565b60405180910390fd5b63f23a6e6160e01b7bffffffffffffffffffffffffffffffffffffffffffffffffffffffff1916817bffffffffffffffffffffffffffffffffffffffffffffffffffffffff19161462000d82576040517f08c379a000000000000000000000000000000000000000000000000000000000815260040162000d799062001a18565b60405180910390fd5b505b505050505050565b6000808273ffffffffffffffffffffffffffffffffffffffff163b119050919050565b600081519050919050565b7f4e487b7100000000000000000000000000000000000000000000000000000000600052604160045260246000fd5b7f4e487b7100000000000000000000000000000000000000000000000000000000600052602260045260246000fd5b6000600282049050600182168062000e3157607f821691505b60208210810362000e475762000e4662000de9565b5b50919050565b60008190508160005260206000209050919050565b60006020601f8301049050919050565b600082821b905092915050565b60006008830262000eb17fffffffffffffffffffffffffffffffffffffffffffffffffffffffffffffffff8262000e72565b62000ebd868362000e72565b95508019841693508086168417925050509392505050565b6000819050919050565b6000819050919050565b600062000f0a62000f0462000efe8462000ed5565b62000edf565b62000ed5565b9050919050565b6000819050919050565b62000f268362000ee9565b62000f3e62000f358262000f11565b84845462000e7f565b825550505050565b600090565b62000f5562000f46565b62000f6281848462000f1b565b505050565b5b8181101562000f8a5762000f7e60008262000f4b565b60018101905062000f68565b5050565b601f82111562000fd95762000fa38162000e4d565b62000fae8462000e62565b8101602085101562000fbe578190505b62000fd662000fcd8562000e62565b83018262000f67565b50505b505050565b600082821c905092915050565b600062000ffe6000198460080262000fde565b1980831691505092915050565b600062001019838362000feb565b9150826002028217905092915050565b620010348262000daf565b67ffffffffffffffff81111562001050576200104f62000dba565b5b6200105c825462000e18565b6200106982828562000f8e565b600060209050601f831160018114620010a157600084156200108c578287015190505b6200109885826200100b565b86555062001108565b601f198416620010b18662000e4d565b60005b82811015620010db57848901518255600182019150602085019450602081019050620010b4565b86831015620010fb5784890151620010f7601f89168262000feb565b8355505b6001600288020188555050505b505050505050565b600073ffffffffffffffffffffffffffffffffffffffff82169050919050565b60006200113d8262001110565b9050919050565b6200114f8162001130565b82525050565b60006040820190506200116c600083018562001144565b6200117b602083018462001144565b9392505050565b600060208201905062001199600083018462001144565b92915050565b600082825260208201905092915050565b7f455243323938313a20726f79616c7479206665652077696c6c2065786365656460008201527f2073616c65507269636500000000000000000000000000000000000000000000602082015250565b60006200120e602a836200119f565b91506200121b82620011b0565b604082019050919050565b600060208201905081810360008301526200124181620011ff565b9050919050565b7f455243323938313a20696e76616c696420726563656976657200000000000000600082015250565b6000620012806019836200119f565b91506200128d8262001248565b602082019050919050565b60006020820190508181036000830152620012b38162001271565b9050919050565b7f4e465420616c7265616479206578697374730000000000000000000000000000600082015250565b6000620012f26012836200119f565b9150620012ff82620012ba565b602082019050919050565b600060208201905081810360008301526200132581620012e3565b9050919050565b7f4f776e61626c653a2063616c6c6572206973206e6f7420746865206f776e6572600082015250565b6000620013646020836200119f565b915062001371826200132c565b602082019050919050565b60006020820190508181036000830152620013978162001355565b9050919050565b600081905092915050565b60008154620013b88162000e18565b620013c481866200139e565b94506001821660008114620013e25760018114620013f8576200142f565b60ff19831686528115158202860193506200142f565b620014038562000e4d565b60005b83811015620014275781548189015260018201915060208101905062001406565b838801955050505b50505092915050565b60005b83811015620014585780820151818401526020810190506200143b565b60008484015250505050565b6000620014718262000daf565b6200147d81856200139e565b93506200148f81856020860162001438565b80840191505092915050565b6000620014a98285620013a9565b9150620014b7828462001464565b91508190509392505050565b7f455243313135353a206d696e7420746f20746865207a65726f2061646472657360008201527f7300000000000000000000000000000000000000000000000000000000000000602082015250565b6000620015216021836200119f565b91506200152e82620014c3565b604082019050919050565b60006020820190508181036000830152620015548162001512565b9050919050565b7f4e487b7100000000000000000000000000000000000000000000000000000000600052601160045260246000fd5b6000620015978262000ed5565b9150620015a48362000ed5565b9250828201905080821115620015bf57620015be6200155b565b5b92915050565b620015d08162000ed5565b82525050565b6000604082019050620015ed6000830185620015c5565b620015fc6020830184620015c5565b9392505050565b6000601f19601f8301169050919050565b6000620016218262000daf565b6200162d81856200119f565b93506200163f81856020860162001438565b6200164a8162001603565b840191505092915050565b6000602082019050818103600083015262001671818462001614565b905092915050565b7f4e487b7100000000000000000000000000000000000000000000000000000000600052603260045260246000fd5b600081519050919050565b600082825260208201905092915050565b6000620016d182620016a8565b620016dd8185620016b3565b9350620016ef81856020860162001438565b620016fa8162001603565b840191505092915050565b600060a0820190506200171c600083018862001144565b6200172b602083018762001144565b6200173a6040830186620015c5565b620017496060830185620015c5565b81810360808301526200175d8184620016c4565b90509695505050505050565b6000604051905090565b600080fd5b60007fffffffff0000000000000000000000000000000000000000000000000000000082169050919050565b620017af8162001778565b8114620017bb57600080fd5b50565b600081519050620017cf81620017a4565b92915050565b600060208284031215620017ee57620017ed62001773565b5b6000620017fe84828501620017be565b91505092915050565b60008160e01c9050919050565b600060033d1115620018365760046000803e6200183360005162001807565b90505b90565b620018448262001603565b810181811067ffffffffffffffff8211171562001866576200186562000dba565b5b80604052505050565b600060443d1062001907576200188462001769565b60043d036004823e80513d602482011167ffffffffffffffff82111715620018ae57505062001907565b808201805167ffffffffffffffff811115620018ce575050505062001907565b80602083010160043d038501811115620018ed57505050505062001907565b620018fe8260200185018662001839565b82955050505050505b90565b7f455243313135353a207472616e7366657220746f206e6f6e2d4552433131353560008201527f526563656976657220696d706c656d656e746572000000000000000000000000602082015250565b6000620019686034836200119f565b915062001975826200190a565b604082019050919050565b600060208201905081810360008301526200199b8162001959565b9050919050565b7f455243313135353a204552433131353552656365697665722072656a6563746560008201527f6420746f6b656e73000000000000000000000000000000000000000000000000602082015250565b600062001a006028836200119f565b915062001a0d82620019a2565b604082019050919050565b6000602082019050818103600083015262001a3381620019f1565b9050919050565b6138f28062001a4a6000396000f3fe608060405234801561001057600080fd5b50600436106100f45760003560e01c80634e1273f411610097578063a22cb46511610066578063a22cb46514610284578063e985e9c5146102a0578063f242432a146102d0578063f2fde38b146102ec576100f4565b80634e1273f41461021057806355f804b314610240578063715018a61461025c5780638da5cb5b14610266576100f4565b80632a55205a116100d35780632a55205a146101895780632cda9103146101ba5780632eb2c2d6146101d657806341f43434146101f2576100f4565b8062fdd58e146100f957806301ffc9a7146101295780630e89341c14610159575b600080fd5b610113600480360381019061010e9190611eda565b610308565b6040516101209190611f29565b60405180910390f35b610143600480360381019061013e9190611f9c565b6103d0565b6040516101509190611fe4565b60405180910390f35b610173600480360381019061016e9190611fff565b6103e2565b60405161018091906120bc565b60405180910390f35b6101a3600480360381019061019e91906120de565b6104c7565b6040516101b192919061212d565b60405180910390f35b6101d460048036038101906101cf919061228b565b6106b1565b005b6101f060048036038101906101eb9190612450565b61072f565b005b6101fa610782565b604051610207919061257e565b60405180910390f35b61022a6004803603810190610225919061265c565b610794565b6040516102379190612792565b60405180910390f35b61025a600480360381019061025591906127b4565b6108ad565b005b6102646108c1565b005b61026e6108d5565b60405161027b91906127fd565b60405180910390f35b61029e60048036038101906102999190612844565b6108ff565b005b6102ba60048036038101906102b59190612884565b610918565b6040516102c79190611fe4565b60405180910390f35b6102ea60048036038101906102e591906128c4565b6109ac565b005b6103066004803603810190610301919061295b565b6109ff565b005b60008073ffffffffffffffffffffffffffffffffffffffff168373ffffffffffffffffffffffffffffffffffffffff1603610378576040517f08c379a000000000000000000000000000000000000000000000000000000000815260040161036f906129fa565b60405180910390fd5b60008083815260200190815260200160002060008473ffffffffffffffffffffffffffffffffffffffff1673ffffffffffffffffffffffffffffffffffffffff16815260200190815260200160002054905092915050565b60006103db82610b39565b9050919050565b6060600060046000848152602001908152602001600020805461040490612a49565b80601f016020809104026020016040519081016040528092919081815260200182805461043090612a49565b801561047d5780601f106104525761010080835404028352916020019161047d565b820191906000526020600020905b81548152906001019060200180831161046057829003601f168201915b50505050509050600081511161049b5761049683610a82565b6104bf565b6003816040516020016104af929190612b4e565b6040516020818303038152906040525b915050919050565b6000806000600760008681526020019081526020016000206040518060400160405290816000820160009054906101000a900473ffffffffffffffffffffffffffffffffffffffff1673ffffffffffffffffffffffffffffffffffffffff1673ffffffffffffffffffffffffffffffffffffffff1681526020016000820160149054906101000a90046bffffffffffffffffffffffff166bffffffffffffffffffffffff166bffffffffffffffffffffffff16815250509050600073ffffffffffffffffffffffffffffffffffffffff16816000015173ffffffffffffffffffffffffffffffffffffffff160361065c5760066040518060400160405290816000820160009054906101000a900473ffffffffffffffffffffffffffffffffffffffff1673ffffffffffffffffffffffffffffffffffffffff1673ffffffffffffffffffffffffffffffffffffffff1681526020016000820160149054906101000a90046bffffffffffffffffffffffff166bffffffffffffffffffffffff166bffffffffffffffffffffffff168152505090505b6000610666610bb3565b6bffffffffffffffffffffffff1682602001516bffffffffffffffffffffffff16866106929190612ba1565b61069c9190612c12565b90508160000151819350935050509250929050565b6106b9610bbd565b60006106c4836103e2565b5114610705576040517f08c379a00000000000000000000000000000000000000000000000000000000081526004016106fc90612c8f565b60405180910390fd5b6107213383600160405180602001604052806000815250610c3b565b61072b8282610deb565b5050565b843373ffffffffffffffffffffffffffffffffffffffff168173ffffffffffffffffffffffffffffffffffffffff161461076d5761076c33610e50565b5b61077a8686868686610f4d565b505050505050565b6daaeb6d7670e522a718067333cd4e81565b606081518351146107da576040517f08c379a00000000000000000000000000000000000000000000000000000000081526004016107d190612d21565b60405180910390fd5b6000835167ffffffffffffffff8111156107f7576107f6612160565b5b6040519080825280602002602001820160405280156108255781602001602082028036833780820191505090505b50905060005b84518110156108a25761087285828151811061084a57610849612d41565b5b602002602001015185838151811061086557610864612d41565b5b6020026020010151610308565b82828151811061088557610884612d41565b5b6020026020010181815250508061089b90612d70565b905061082b565b508091505092915050565b6108b5610bbd565b6108be81610fee565b50565b6108c9610bbd565b6108d36000611001565b565b6000600560009054906101000a900473ffffffffffffffffffffffffffffffffffffffff16905090565b8161090981610e50565b61091383836110c7565b505050565b6000600160008473ffffffffffffffffffffffffffffffffffffffff1673ffffffffffffffffffffffffffffffffffffffff16815260200190815260200160002060008373ffffffffffffffffffffffffffffffffffffffff1673ffffffffffffffffffffffffffffffffffffffff16815260200190815260200160002060009054906101000a900460ff16905092915050565b843373ffffffffffffffffffffffffffffffffffffffff168173ffffffffffffffffffffffffffffffffffffffff16146109ea576109e933610e50565b5b6109f786868686866110dd565b505050505050565b610a07610bbd565b600073ffffffffffffffffffffffffffffffffffffffff168173ffffffffffffffffffffffffffffffffffffffff1603610a76576040517f08c379a0000000000000000000000000000000000000000000000000000000008152600401610a6d90612e2a565b60405180910390fd5b610a7f81611001565b50565b606060028054610a9190612a49565b80601f0160208091040260200160405190810160405280929190818152602001828054610abd90612a49565b8015610b0a5780601f10610adf57610100808354040283529160200191610b0a565b820191906000526020600020905b815481529060010190602001808311610aed57829003601f168201915b50505050509050919050565b6000808273ffffffffffffffffffffffffffffffffffffffff163b119050919050565b60007f2a55205a000000000000000000000000000000000000000000000000000000007bffffffffffffffffffffffffffffffffffffffffffffffffffffffff1916827bffffffffffffffffffffffffffffffffffffffffffffffffffffffff19161480610bac5750610bab8261117e565b5b9050919050565b6000612710905090565b610bc5611260565b73ffffffffffffffffffffffffffffffffffffffff16610be36108d5565b73ffffffffffffffffffffffffffffffffffffffff1614610c39576040517f08c379a0000000000000000000000000000000000000000000000000000000008152600401610c3090612e96565b60405180910390fd5b565b600073ffffffffffffffffffffffffffffffffffffffff168473ffffffffffffffffffffffffffffffffffffffff1603610caa576040517f08c379a0000000000000000000000000000000000000000000000000000000008152600401610ca190612f28565b60405180910390fd5b6000610cb4611260565b90506000610cc185611268565b90506000610cce85611268565b9050610cdf836000898585896112e2565b8460008088815260200190815260200160002060008973ffffffffffffffffffffffffffffffffffffffff1673ffffffffffffffffffffffffffffffffffffffff1681526020019081526020016000206000828254610d3e9190612f48565b925050819055508673ffffffffffffffffffffffffffffffffffffffff16600073ffffffffffffffffffffffffffffffffffffffff168473ffffffffffffffffffffffffffffffffffffffff167fc3d58168c5ae7397731d063d5bbf3d657854427343f4c083240f7aacaa2d0f628989604051610dbc929190612f7c565b60405180910390a4610dd3836000898585896112ea565b610de2836000898989896112f2565b50505050505050565b80600460008481526020019081526020016000209081610e0b9190613132565b50817f6bb7ff708619ba0610cba295a58592e0451dee2622938c8755667688daf3529b610e37846103e2565b604051610e4491906120bc565b60405180910390a25050565b60006daaeb6d7670e522a718067333cd4e73ffffffffffffffffffffffffffffffffffffffff163b1115610f4a576daaeb6d7670e522a718067333cd4e73ffffffffffffffffffffffffffffffffffffffff1663c617113430836040518363ffffffff1660e01b8152600401610ec7929190613204565b602060405180830381865afa158015610ee4573d6000803e3d6000fd5b505050506040513d601f19601f82011682018060405250810190610f089190613242565b610f4957806040517fede71dcc000000000000000000000000000000000000000000000000000000008152600401610f4091906127fd565b60405180910390fd5b5b50565b610f55611260565b73ffffffffffffffffffffffffffffffffffffffff168573ffffffffffffffffffffffffffffffffffffffff161480610f9b5750610f9a85610f95611260565b610918565b5b610fda576040517f08c379a0000000000000000000000000000000000000000000000000000000008152600401610fd1906132e1565b60405180910390fd5b610fe785858585856114c9565b5050505050565b8060039081610ffd9190613132565b5050565b6000600560009054906101000a900473ffffffffffffffffffffffffffffffffffffffff16905081600560006101000a81548173ffffffffffffffffffffffffffffffffffffffff021916908373ffffffffffffffffffffffffffffffffffffffff1602179055508173ffffffffffffffffffffffffffffffffffffffff168173ffffffffffffffffffffffffffffffffffffffff167f8be0079c531659141344cd1fd0a4f28419497f9722a3daafe3b4186f6b6457e060405160405180910390a35050565b6110d96110d2611260565b83836117ea565b5050565b6110e5611260565b73ffffffffffffffffffffffffffffffffffffffff168573ffffffffffffffffffffffffffffffffffffffff16148061112b575061112a85611125611260565b610918565b5b61116a576040517f08c379a0000000000000000000000000000000000000000000000000000000008152600401611161906132e1565b60405180910390fd5b6111778585858585611956565b5050505050565b60007fd9b67a26000000000000000000000000000000000000000000000000000000007bffffffffffffffffffffffffffffffffffffffffffffffffffffffff1916827bffffffffffffffffffffffffffffffffffffffffffffffffffffffff1916148061124957507f0e89341c000000000000000000000000000000000000000000000000000000007bffffffffffffffffffffffffffffffffffffffffffffffffffffffff1916827bffffffffffffffffffffffffffffffffffffffffffffffffffffffff1916145b80611259575061125882611bf1565b5b9050919050565b600033905090565b60606000600167ffffffffffffffff81111561128757611286612160565b5b6040519080825280602002602001820160405280156112b55781602001602082028036833780820191505090505b50905082816000815181106112cd576112cc612d41565b5b60200260200101818152505080915050919050565b505050505050565b505050505050565b6113118473ffffffffffffffffffffffffffffffffffffffff16610b16565b156114c1578373ffffffffffffffffffffffffffffffffffffffff1663f23a6e6187878686866040518663ffffffff1660e01b8152600401611357959493929190613356565b6020604051808303816000875af192505050801561139357506040513d601f19601f8201168201806040525081019061139091906133c5565b60015b6114385761139f6133ff565b806308c379a0036113fb57506113b3613421565b806113be57506113fd565b806040517f08c379a00000000000000000000000000000000000000000000000000000000081526004016113f291906120bc565b60405180910390fd5b505b6040517f08c379a000000000000000000000000000000000000000000000000000000000815260040161142f90613523565b60405180910390fd5b63f23a6e6160e01b7bffffffffffffffffffffffffffffffffffffffffffffffffffffffff1916817bffffffffffffffffffffffffffffffffffffffffffffffffffffffff1916146114bf576040517f08c379a00000000000000000000000000000000000000000000000000000000081526004016114b6906135b5565b60405180910390fd5b505b505050505050565b815183511461150d576040517f08c379a000000000000000000000000000000000000000000000000000000000815260040161150490613647565b60405180910390fd5b600073ffffffffffffffffffffffffffffffffffffffff168473ffffffffffffffffffffffffffffffffffffffff160361157c576040517f08c379a0000000000000000000000000000000000000000000000000000000008152600401611573906136d9565b60405180910390fd5b6000611586611260565b90506115968187878787876112e2565b60005b84518110156117475760008582815181106115b7576115b6612d41565b5b6020026020010151905060008583815181106115d6576115d5612d41565b5b60200260200101519050600080600084815260200190815260200160002060008b73ffffffffffffffffffffffffffffffffffffffff1673ffffffffffffffffffffffffffffffffffffffff16815260200190815260200160002054905081811015611677576040517f08c379a000000000000000000000000000000000000000000000000000000000815260040161166e9061376b565b60405180910390fd5b81810360008085815260200190815260200160002060008c73ffffffffffffffffffffffffffffffffffffffff1673ffffffffffffffffffffffffffffffffffffffff168152602001908152602001600020819055508160008085815260200190815260200160002060008b73ffffffffffffffffffffffffffffffffffffffff1673ffffffffffffffffffffffffffffffffffffffff168152602001908152602001600020600082825461172c9190612f48565b925050819055505050508061174090612d70565b9050611599565b508473ffffffffffffffffffffffffffffffffffffffff168673ffffffffffffffffffffffffffffffffffffffff168273ffffffffffffffffffffffffffffffffffffffff167f4a39dc06d4c0dbc64b70af90fd698a233a518aa5d07e595d983b8c0526c8f7fb87876040516117be92919061378b565b60405180910390a46117d48187878787876112ea565b6117e2818787878787611c5b565b505050505050565b8173ffffffffffffffffffffffffffffffffffffffff168373ffffffffffffffffffffffffffffffffffffffff1603611858576040517f08c379a000000000000000000000000000000000000000000000000000000000815260040161184f90613834565b60405180910390fd5b80600160008573ffffffffffffffffffffffffffffffffffffffff1673ffffffffffffffffffffffffffffffffffffffff16815260200190815260200160002060008473ffffffffffffffffffffffffffffffffffffffff1673ffffffffffffffffffffffffffffffffffffffff16815260200190815260200160002060006101000a81548160ff0219169083151502179055508173ffffffffffffffffffffffffffffffffffffffff168373ffffffffffffffffffffffffffffffffffffffff167f17307eab39ab6107e8899845ad3d59bd9653f200f220920489ca2b5937696c31836040516119499190611fe4565b60405180910390a3505050565b600073ffffffffffffffffffffffffffffffffffffffff168473ffffffffffffffffffffffffffffffffffffffff16036119c5576040517f08c379a00000000000000000000000000000000000000000000000000000000081526004016119bc906136d9565b60405180910390fd5b60006119cf611260565b905060006119dc85611268565b905060006119e985611268565b90506119f98389898585896112e2565b600080600088815260200190815260200160002060008a73ffffffffffffffffffffffffffffffffffffffff1673ffffffffffffffffffffffffffffffffffffffff16815260200190815260200160002054905085811015611a90576040517f08c379a0000000000000000000000000000000000000000000000000000000008152600401611a879061376b565b60405180910390fd5b85810360008089815260200190815260200160002060008b73ffffffffffffffffffffffffffffffffffffffff1673ffffffffffffffffffffffffffffffffffffffff168152602001908152602001600020819055508560008089815260200190815260200160002060008a73ffffffffffffffffffffffffffffffffffffffff1673ffffffffffffffffffffffffffffffffffffffff1681526020019081526020016000206000828254611b459190612f48565b925050819055508773ffffffffffffffffffffffffffffffffffffffff168973ffffffffffffffffffffffffffffffffffffffff168573ffffffffffffffffffffffffffffffffffffffff167fc3d58168c5ae7397731d063d5bbf3d657854427343f4c083240f7aacaa2d0f628a8a604051611bc2929190612f7c565b60405180910390a4611bd8848a8a86868a6112ea565b611be6848a8a8a8a8a6112f2565b505050505050505050565b60007f01ffc9a7000000000000000000000000000000000000000000000000000000007bffffffffffffffffffffffffffffffffffffffffffffffffffffffff1916827bffffffffffffffffffffffffffffffffffffffffffffffffffffffff1916149050919050565b611c7a8473ffffffffffffffffffffffffffffffffffffffff16610b16565b15611e2a578373ffffffffffffffffffffffffffffffffffffffff1663bc197c8187878686866040518663ffffffff1660e01b8152600401611cc0959493929190613854565b6020604051808303816000875af1925050508015611cfc57506040513d601f19601f82011682018060405250810190611cf991906133c5565b60015b611da157611d086133ff565b806308c379a003611d645750611d1c613421565b80611d275750611d66565b806040517f08c379a0000000000000000000000000000000000000000000000000000000008152600401611d5b91906120bc565b60405180910390fd5b505b6040517f08c379a0000000000000000000000000000000000000000000000000000000008152600401611d9890613523565b60405180910390fd5b63bc197c8160e01b7bffffffffffffffffffffffffffffffffffffffffffffffffffffffff1916817bffffffffffffffffffffffffffffffffffffffffffffffffffffffff191614611e28576040517f08c379a0000000000000000000000000000000000000000000000000000000008152600401611e1f906135b5565b60405180910390fd5b505b505050505050565b6000604051905090565b600080fd5b600080fd5b600073ffffffffffffffffffffffffffffffffffffffff82169050919050565b6000611e7182611e46565b9050919050565b611e8181611e66565b8114611e8c57600080fd5b50565b600081359050611e9e81611e78565b92915050565b6000819050919050565b611eb781611ea4565b8114611ec257600080fd5b50565b600081359050611ed481611eae565b92915050565b60008060408385031215611ef157611ef0611e3c565b5b6000611eff85828601611e8f565b9250506020611f1085828601611ec5565b9150509250929050565b611f2381611ea4565b82525050565b6000602082019050611f3e6000830184611f1a565b92915050565b60007fffffffff0000000000000000000000000000000000000000000000000000000082169050919050565b611f7981611f44565b8114611f8457600080fd5b50565b600081359050611f9681611f70565b92915050565b600060208284031215611fb257611fb1611e3c565b5b6000611fc084828501611f87565b91505092915050565b60008115159050919050565b611fde81611fc9565b82525050565b6000602082019050611ff96000830184611fd5565b92915050565b60006020828403121561201557612014611e3c565b5b600061202384828501611ec5565b91505092915050565b600081519050919050565b600082825260208201905092915050565b60005b8381101561206657808201518184015260208101905061204b565b60008484015250505050565b6000601f19601f8301169050919050565b600061208e8261202c565b6120988185612037565b93506120a8818560208601612048565b6120b181612072565b840191505092915050565b600060208201905081810360008301526120d68184612083565b905092915050565b600080604083850312156120f5576120f4611e3c565b5b600061210385828601611ec5565b925050602061211485828601611ec5565b9150509250929050565b61212781611e66565b82525050565b6000604082019050612142600083018561211e565b61214f6020830184611f1a565b9392505050565b600080fd5b600080fd5b7f4e487b7100000000000000000000000000000000000000000000000000000000600052604160045260246000fd5b61219882612072565b810181811067ffffffffffffffff821117156121b7576121b6612160565b5b80604052505050565b60006121ca611e32565b90506121d6828261218f565b919050565b600067ffffffffffffffff8211156121f6576121f5612160565b5b6121ff82612072565b9050602081019050919050565b82818337600083830152505050565b600061222e612229846121db565b6121c0565b90508281526020810184848401111561224a5761224961215b565b5b61225584828561220c565b509392505050565b600082601f83011261227257612271612156565b5b813561228284826020860161221b565b91505092915050565b600080604083850312156122a2576122a1611e3c565b5b60006122b085828601611ec5565b925050602083013567ffffffffffffffff8111156122d1576122d0611e41565b5b6122dd8582860161225d565b9150509250929050565b600067ffffffffffffffff82111561230257612301612160565b5b602082029050602081019050919050565b600080fd5b600061232b612326846122e7565b6121c0565b9050808382526020820190506020840283018581111561234e5761234d612313565b5b835b8181101561237757806123638882611ec5565b845260208401935050602081019050612350565b5050509392505050565b600082601f83011261239657612395612156565b5b81356123a6848260208601612318565b91505092915050565b600067ffffffffffffffff8211156123ca576123c9612160565b5b6123d382612072565b9050602081019050919050565b60006123f36123ee846123af565b6121c0565b90508281526020810184848401111561240f5761240e61215b565b5b61241a84828561220c565b509392505050565b600082601f83011261243757612436612156565b5b81356124478482602086016123e0565b91505092915050565b600080600080600060a0868803121561246c5761246b611e3c565b5b600061247a88828901611e8f565b955050602061248b88828901611e8f565b945050604086013567ffffffffffffffff8111156124ac576124ab611e41565b5b6124b888828901612381565b935050606086013567ffffffffffffffff8111156124d9576124d8611e41565b5b6124e588828901612381565b925050608086013567ffffffffffffffff81111561250657612505611e41565b5b61251288828901612422565b9150509295509295909350565b6000819050919050565b600061254461253f61253a84611e46565b61251f565b611e46565b9050919050565b600061255682612529565b9050919050565b60006125688261254b565b9050919050565b6125788161255d565b82525050565b6000602082019050612593600083018461256f565b92915050565b600067ffffffffffffffff8211156125b4576125b3612160565b5b602082029050602081019050919050565b60006125d86125d384612599565b6121c0565b905080838252602082019050602084028301858111156125fb576125fa612313565b5b835b8181101561262457806126108882611e8f565b8452602084019350506020810190506125fd565b5050509392505050565b600082601f83011261264357612642612156565b5b81356126538482602086016125c5565b91505092915050565b6000806040838503121561267357612672611e3c565b5b600083013567ffffffffffffffff81111561269157612690611e41565b5b61269d8582860161262e565b925050602083013567ffffffffffffffff8111156126be576126bd611e41565b5b6126ca85828601612381565b9150509250929050565b600081519050919050565b600082825260208201905092915050565b6000819050602082019050919050565b61270981611ea4565b82525050565b600061271b8383612700565b60208301905092915050565b6000602082019050919050565b600061273f826126d4565b61274981856126df565b9350612754836126f0565b8060005b8381101561278557815161276c888261270f565b975061277783612727565b925050600181019050612758565b5085935050505092915050565b600060208201905081810360008301526127ac8184612734565b905092915050565b6000602082840312156127ca576127c9611e3c565b5b600082013567ffffffffffffffff8111156127e8576127e7611e41565b5b6127f48482850161225d565b91505092915050565b6000602082019050612812600083018461211e565b92915050565b61282181611fc9565b811461282c57600080fd5b50565b60008135905061283e81612818565b92915050565b6000806040838503121561285b5761285a611e3c565b5b600061286985828601611e8f565b925050602061287a8582860161282f565b9150509250929050565b6000806040838503121561289b5761289a611e3c565b5b60006128a985828601611e8f565b92505060206128ba85828601611e8f565b9150509250929050565b600080600080600060a086880312156128e0576128df611e3c565b5b60006128ee88828901611e8f565b95505060206128ff88828901611e8f565b945050604061291088828901611ec5565b935050606061292188828901611ec5565b925050608086013567ffffffffffffffff81111561294257612941611e41565b5b61294e88828901612422565b9150509295509295909350565b60006020828403121561297157612970611e3c565b5b600061297f84828501611e8f565b91505092915050565b7f455243313135353a2061646472657373207a65726f206973206e6f742061207660008201527f616c6964206f776e657200000000000000000000000000000000000000000000602082015250565b60006129e4602a83612037565b91506129ef82612988565b604082019050919050565b60006020820190508181036000830152612a13816129d7565b9050919050565b7f4e487b7100000000000000000000000000000000000000000000000000000000600052602260045260246000fd5b60006002820490506001821680612a6157607f821691505b602082108103612a7457612a73612a1a565b5b50919050565b600081905092915050565b60008190508160005260206000209050919050565b60008154612aa781612a49565b612ab18186612a7a565b94506001821660008114612acc5760018114612ae157612b14565b60ff1983168652811515820286019350612b14565b612aea85612a85565b60005b83811015612b0c57815481890152600182019150602081019050612aed565b838801955050505b50505092915050565b6000612b288261202c565b612b328185612a7a565b9350612b42818560208601612048565b80840191505092915050565b6000612b5a8285612a9a565b9150612b668284612b1d565b91508190509392505050565b7f4e487b7100000000000000000000000000000000000000000000000000000000600052601160045260246000fd5b6000612bac82611ea4565b9150612bb783611ea4565b9250828202612bc581611ea4565b91508282048414831517612bdc57612bdb612b72565b5b5092915050565b7f4e487b7100000000000000000000000000000000000000000000000000000000600052601260045260246000fd5b6000612c1d82611ea4565b9150612c2883611ea4565b925082612c3857612c37612be3565b5b828204905092915050565b7f4e465420616c7265616479206578697374730000000000000000000000000000600082015250565b6000612c79601283612037565b9150612c8482612c43565b602082019050919050565b60006020820190508181036000830152612ca881612c6c565b9050919050565b7f455243313135353a206163636f756e747320616e6420696473206c656e67746860008201527f206d69736d617463680000000000000000000000000000000000000000000000602082015250565b6000612d0b602983612037565b9150612d1682612caf565b604082019050919050565b60006020820190508181036000830152612d3a81612cfe565b9050919050565b7f4e487b7100000000000000000000000000000000000000000000000000000000600052603260045260246000fd5b6000612d7b82611ea4565b91507fffffffffffffffffffffffffffffffffffffffffffffffffffffffffffffffff8203612dad57612dac612b72565b5b600182019050919050565b7f4f776e61626c653a206e6577206f776e657220697320746865207a65726f206160008201527f6464726573730000000000000000000000000000000000000000000000000000602082015250565b6000612e14602683612037565b9150612e1f82612db8565b604082019050919050565b60006020820190508181036000830152612e4381612e07565b9050919050565b7f4f776e61626c653a2063616c6c6572206973206e6f7420746865206f776e6572600082015250565b6000612e80602083612037565b9150612e8b82612e4a565b602082019050919050565b60006020820190508181036000830152612eaf81612e73565b9050919050565b7f455243313135353a206d696e7420746f20746865207a65726f2061646472657360008201527f7300000000000000000000000000000000000000000000000000000000000000602082015250565b6000612f12602183612037565b9150612f1d82612eb6565b604082019050919050565b60006020820190508181036000830152612f4181612f05565b9050919050565b6000612f5382611ea4565b9150612f5e83611ea4565b9250828201905080821115612f7657612f75612b72565b5b92915050565b6000604082019050612f916000830185611f1a565b612f9e6020830184611f1a565b9392505050565b60006020601f8301049050919050565b600082821b905092915050565b600060088302612ff27fffffffffffffffffffffffffffffffffffffffffffffffffffffffffffffffff82612fb5565b612ffc8683612fb5565b95508019841693508086168417925050509392505050565b600061302f61302a61302584611ea4565b61251f565b611ea4565b9050919050565b6000819050919050565b61304983613014565b61305d61305582613036565b848454612fc2565b825550505050565b600090565b613072613065565b61307d818484613040565b505050565b5b818110156130a15761309660008261306a565b600181019050613083565b5050565b601f8211156130e6576130b781612a85565b6130c084612fa5565b810160208510156130cf578190505b6130e36130db85612fa5565b830182613082565b50505b505050565b600082821c905092915050565b6000613109600019846008026130eb565b1980831691505092915050565b600061312283836130f8565b9150826002028217905092915050565b61313b8261202c565b67ffffffffffffffff81111561315457613153612160565b5b61315e8254612a49565b6131698282856130a5565b600060209050601f83116001811461319c576000841561318a578287015190505b6131948582613116565b8655506131fc565b601f1984166131aa86612a85565b60005b828110156131d2578489015182556001820191506020850194506020810190506131ad565b868310156131ef57848901516131eb601f8916826130f8565b8355505b6001600288020188555050505b505050505050565b6000604082019050613219600083018561211e565b613226602083018461211e565b9392505050565b60008151905061323c81612818565b92915050565b60006020828403121561325857613257611e3c565b5b60006132668482850161322d565b91505092915050565b7f455243313135353a2063616c6c6572206973206e6f7420746f6b656e206f776e60008201527f6572206f7220617070726f766564000000000000000000000000000000000000602082015250565b60006132cb602e83612037565b91506132d68261326f565b604082019050919050565b600060208201905081810360008301526132fa816132be565b9050919050565b600081519050919050565b600082825260208201905092915050565b600061332882613301565b613332818561330c565b9350613342818560208601612048565b61334b81612072565b840191505092915050565b600060a08201905061336b600083018861211e565b613378602083018761211e565b6133856040830186611f1a565b6133926060830185611f1a565b81810360808301526133a4818461331d565b90509695505050505050565b6000815190506133bf81611f70565b92915050565b6000602082840312156133db576133da611e3c565b5b60006133e9848285016133b0565b91505092915050565b60008160e01c9050919050565b600060033d111561341e5760046000803e61341b6000516133f2565b90505b90565b600060443d106134ae57613433611e32565b60043d036004823e80513d602482011167ffffffffffffffff8211171561345b5750506134ae565b808201805167ffffffffffffffff81111561347957505050506134ae565b80602083010160043d0385018111156134965750505050506134ae565b6134a58260200185018661218f565b82955050505050505b90565b7f455243313135353a207472616e7366657220746f206e6f6e2d4552433131353560008201527f526563656976657220696d706c656d656e746572000000000000000000000000602082015250565b600061350d603483612037565b9150613518826134b1565b604082019050919050565b6000602082019050818103600083015261353c81613500565b9050919050565b7f455243313135353a204552433131353552656365697665722072656a6563746560008201527f6420746f6b656e73000000000000000000000000000000000000000000000000602082015250565b600061359f602883612037565b91506135aa82613543565b604082019050919050565b600060208201905081810360008301526135ce81613592565b9050919050565b7f455243313135353a2069647320616e6420616d6f756e7473206c656e6774682060008201527f6d69736d61746368000000000000000000000000000000000000000000000000602082015250565b6000613631602883612037565b915061363c826135d5565b604082019050919050565b6000602082019050818103600083015261366081613624565b9050919050565b7f455243313135353a207472616e7366657220746f20746865207a65726f20616460008201527f6472657373000000000000000000000000000000000000000000000000000000602082015250565b60006136c3602583612037565b91506136ce82613667565b604082019050919050565b600060208201905081810360008301526136f2816136b6565b9050919050565b7f455243313135353a20696e73756666696369656e742062616c616e636520666f60008201527f72207472616e7366657200000000000000000000000000000000000000000000602082015250565b6000613755602a83612037565b9150613760826136f9565b604082019050919050565b6000602082019050818103600083015261378481613748565b9050919050565b600060408201905081810360008301526137a58185612734565b905081810360208301526137b98184612734565b90509392505050565b7f455243313135353a2073657474696e6720617070726f76616c2073746174757360008201527f20666f722073656c660000000000000000000000000000000000000000000000602082015250565b600061381e602983612037565b9150613829826137c2565b604082019050919050565b6000602082019050818103600083015261384d81613811565b9050919050565b600060a082019050613869600083018861211e565b613876602083018761211e565b81810360408301526138888186612734565b9050818103606083015261389c8185612734565b905081810360808301526138b0818461331d565b9050969550505050505056fea2646970667358221220a723bbcb0127a6640e6006643cb2c852200aac08c139b837d18a6530fef70af964736f6c63430008110033697066733a2f2f516d526f517459454d36776b45586d4c39504766377177574852384a727a63326f424e37736e54676646416a46422f",
			"opcodes": "PUSH1 0x80 PUSH1 0x40 MSTORE PUSH1 0x40 MLOAD DUP1 PUSH1 0x20 ADD PUSH1 0x40 MSTORE DUP1 PUSH1 0x0 DUP2 MSTORE POP PUSH1 0x3 SWAP1 DUP2 PUSH3 0x24 SWAP2 SWAP1 PUSH3 0x1029 JUMP JUMPDEST POP CALLVALUE DUP1 ISZERO PUSH3 0x32 JUMPI PUSH1 0x0 DUP1 REVERT JUMPDEST POP PUSH20 0x3CC6CDDA760B79BAFA08DF41ECFA224F810DCEB6 PUSH1 0x1 PUSH1 0x40 MLOAD DUP1 PUSH1 0x20 ADD PUSH1 0x40 MSTORE DUP1 PUSH1 0x0 DUP2 MSTORE POP PUSH3 0x6B DUP2 PUSH3 0x30F PUSH1 0x20 SHL PUSH1 0x20 SHR JUMP JUMPDEST POP PUSH3 0x8C PUSH3 0x80 PUSH3 0x324 PUSH1 0x20 SHL PUSH1 0x20 SHR JUMP JUMPDEST PUSH3 0x32C PUSH1 0x20 SHL PUSH1 0x20 SHR JUMP JUMPDEST PUSH1 0x0 PUSH14 0xAAEB6D7670E522A718067333CD4E PUSH20 0xFFFFFFFFFFFFFFFFFFFFFFFFFFFFFFFFFFFFFFFF AND EXTCODESIZE GT ISZERO PUSH3 0x281 JUMPI DUP1 ISZERO PUSH3 0x147 JUMPI PUSH14 0xAAEB6D7670E522A718067333CD4E PUSH20 0xFFFFFFFFFFFFFFFFFFFFFFFFFFFFFFFFFFFFFFFF AND PUSH4 0x7D3E3DBE ADDRESS DUP5 PUSH1 0x40 MLOAD DUP4 PUSH4 0xFFFFFFFF AND PUSH1 0xE0 SHL DUP2 MSTORE PUSH1 0x4 ADD PUSH3 0x10D SWAP3 SWAP2 SWAP1 PUSH3 0x1155 JUMP JUMPDEST PUSH1 0x0 PUSH1 0x40 MLOAD DUP1 DUP4 SUB DUP2 PUSH1 0x0 DUP8 DUP1 EXTCODESIZE ISZERO DUP1 ISZERO PUSH3 0x128 JUMPI PUSH1 0x0 DUP1 REVERT JUMPDEST POP GAS CALL ISZERO DUP1 ISZERO PUSH3 0x13D JUMPI RETURNDATASIZE PUSH1 0x0 DUP1 RETURNDATACOPY RETURNDATASIZE PUSH1 0x0 REVERT JUMPDEST POP POP POP POP PUSH3 0x280 JUMP JUMPDEST PUSH1 0x0 PUSH20 0xFFFFFFFFFFFFFFFFFFFFFFFFFFFFFFFFFFFFFFFF AND DUP3 PUSH20 0xFFFFFFFFFFFFFFFFFFFFFFFFFFFFFFFFFFFFFFFF AND EQ PUSH3 0x201 JUMPI PUSH14 0xAAEB6D7670E522A718067333CD4E PUSH20 0xFFFFFFFFFFFFFFFFFFFFFFFFFFFFFFFFFFFFFFFF AND PUSH4 0xA0AF2903 ADDRESS DUP5 PUSH1 0x40 MLOAD DUP4 PUSH4 0xFFFFFFFF AND PUSH1 0xE0 SHL DUP2 MSTORE PUSH1 0x4 ADD PUSH3 0x1C7 SWAP3 SWAP2 SWAP1 PUSH3 0x1155 JUMP JUMPDEST PUSH1 0x0 PUSH1 0x40 MLOAD DUP1 DUP4 SUB DUP2 PUSH1 0x0 DUP8 DUP1 EXTCODESIZE ISZERO DUP1 ISZERO PUSH3 0x1E2 JUMPI PUSH1 0x0 DUP1 REVERT JUMPDEST POP GAS CALL ISZERO DUP1 ISZERO PUSH3 0x1F7 JUMPI RETURNDATASIZE PUSH1 0x0 DUP1 RETURNDATACOPY RETURNDATASIZE PUSH1 0x0 REVERT JUMPDEST POP POP POP POP PUSH3 0x27F JUMP JUMPDEST PUSH14 0xAAEB6D7670E522A718067333CD4E PUSH20 0xFFFFFFFFFFFFFFFFFFFFFFFFFFFFFFFFFFFFFFFF AND PUSH4 0x4420E486 ADDRESS PUSH1 0x40 MLOAD DUP3 PUSH4 0xFFFFFFFF AND PUSH1 0xE0 SHL DUP2 MSTORE PUSH1 0x4 ADD PUSH3 0x24A SWAP2 SWAP1 PUSH3 0x1182 JUMP JUMPDEST PUSH1 0x0 PUSH1 0x40 MLOAD DUP1 DUP4 SUB DUP2 PUSH1 0x0 DUP8 DUP1 EXTCODESIZE ISZERO DUP1 ISZERO PUSH3 0x265 JUMPI PUSH1 0x0 DUP1 REVERT JUMPDEST POP GAS CALL ISZERO DUP1 ISZERO PUSH3 0x27A JUMPI RETURNDATASIZE PUSH1 0x0 DUP1 RETURNDATACOPY RETURNDATASIZE PUSH1 0x0 REVERT JUMPDEST POP POP POP POP JUMPDEST JUMPDEST JUMPDEST POP POP PUSH3 0x297 CALLER PUSH2 0x3E8 PUSH3 0x3F2 PUSH1 0x20 SHL PUSH1 0x20 SHR JUMP JUMPDEST PUSH3 0x2C1 PUSH1 0x40 MLOAD DUP1 PUSH1 0x60 ADD PUSH1 0x40 MSTORE DUP1 PUSH1 0x36 DUP2 MSTORE PUSH1 0x20 ADD PUSH3 0x533C PUSH1 0x36 SWAP2 CODECOPY PUSH3 0x595 PUSH1 0x20 SHL PUSH1 0x20 SHR JUMP JUMPDEST PUSH3 0x309 PUSH1 0x1 PUSH1 0x40 MLOAD DUP1 PUSH1 0x40 ADD PUSH1 0x40 MSTORE DUP1 PUSH1 0x6 DUP2 MSTORE PUSH1 0x20 ADD PUSH32 0x312E6A736F6E0000000000000000000000000000000000000000000000000000 DUP2 MSTORE POP PUSH3 0x5AA PUSH1 0x20 SHL PUSH1 0x20 SHR JUMP JUMPDEST PUSH3 0x1A3A JUMP JUMPDEST DUP1 PUSH1 0x2 SWAP1 DUP2 PUSH3 0x320 SWAP2 SWAP1 PUSH3 0x1029 JUMP JUMPDEST POP POP JUMP JUMPDEST PUSH1 0x0 CALLER SWAP1 POP SWAP1 JUMP JUMPDEST PUSH1 0x0 PUSH1 0x5 PUSH1 0x0 SWAP1 SLOAD SWAP1 PUSH2 0x100 EXP SWAP1 DIV PUSH20 0xFFFFFFFFFFFFFFFFFFFFFFFFFFFFFFFFFFFFFFFF AND SWAP1 POP DUP2 PUSH1 0x5 PUSH1 0x0 PUSH2 0x100 EXP DUP2 SLOAD DUP2 PUSH20 0xFFFFFFFFFFFFFFFFFFFFFFFFFFFFFFFFFFFFFFFF MUL NOT AND SWAP1 DUP4 PUSH20 0xFFFFFFFFFFFFFFFFFFFFFFFFFFFFFFFFFFFFFFFF AND MUL OR SWAP1 SSTORE POP DUP2 PUSH20 0xFFFFFFFFFFFFFFFFFFFFFFFFFFFFFFFFFFFFFFFF AND DUP2 PUSH20 0xFFFFFFFFFFFFFFFFFFFFFFFFFFFFFFFFFFFFFFFF AND PUSH32 0x8BE0079C531659141344CD1FD0A4F28419497F9722A3DAAFE3B4186F6B6457E0 PUSH1 0x40 MLOAD PUSH1 0x40 MLOAD DUP1 SWAP2 SUB SWAP1 LOG3 POP POP JUMP JUMPDEST PUSH3 0x402 PUSH3 0x64B PUSH1 0x20 SHL PUSH1 0x20 SHR JUMP JUMPDEST PUSH12 0xFFFFFFFFFFFFFFFFFFFFFFFF AND DUP2 PUSH12 0xFFFFFFFFFFFFFFFFFFFFFFFF AND GT ISZERO PUSH3 0x463 JUMPI PUSH1 0x40 MLOAD PUSH32 0x8C379A000000000000000000000000000000000000000000000000000000000 DUP2 MSTORE PUSH1 0x4 ADD PUSH3 0x45A SWAP1 PUSH3 0x1226 JUMP JUMPDEST PUSH1 0x40 MLOAD DUP1 SWAP2 SUB SWAP1 REVERT JUMPDEST PUSH1 0x0 PUSH20 0xFFFFFFFFFFFFFFFFFFFFFFFFFFFFFFFFFFFFFFFF AND DUP3 PUSH20 0xFFFFFFFFFFFFFFFFFFFFFFFFFFFFFFFFFFFFFFFF AND SUB PUSH3 0x4D5 JUMPI PUSH1 0x40 MLOAD PUSH32 0x8C379A000000000000000000000000000000000000000000000000000000000 DUP2 MSTORE PUSH1 0x4 ADD PUSH3 0x4CC SWAP1 PUSH3 0x1298 JUMP JUMPDEST PUSH1 0x40 MLOAD DUP1 SWAP2 SUB SWAP1 REVERT JUMPDEST PUSH1 0x40 MLOAD DUP1 PUSH1 0x40 ADD PUSH1 0x40 MSTORE DUP1 DUP4 PUSH20 0xFFFFFFFFFFFFFFFFFFFFFFFFFFFFFFFFFFFFFFFF AND DUP2 MSTORE PUSH1 0x20 ADD DUP3 PUSH12 0xFFFFFFFFFFFFFFFFFFFFFFFF AND DUP2 MSTORE POP PUSH1 0x6 PUSH1 0x0 DUP3 ADD MLOAD DUP2 PUSH1 0x0 ADD PUSH1 0x0 PUSH2 0x100 EXP DUP2 SLOAD DUP2 PUSH20 0xFFFFFFFFFFFFFFFFFFFFFFFFFFFFFFFFFFFFFFFF MUL NOT AND SWAP1 DUP4 PUSH20 0xFFFFFFFFFFFFFFFFFFFFFFFFFFFFFFFFFFFFFFFF AND MUL OR SWAP1 SSTORE POP PUSH1 0x20 DUP3 ADD MLOAD DUP2 PUSH1 0x0 ADD PUSH1 0x14 PUSH2 0x100 EXP DUP2 SLOAD DUP2 PUSH12 0xFFFFFFFFFFFFFFFFFFFFFFFF MUL NOT AND SWAP1 DUP4 PUSH12 0xFFFFFFFFFFFFFFFFFFFFFFFF AND MUL OR SWAP1 SSTORE POP SWAP1 POP POP POP POP JUMP JUMPDEST DUP1 PUSH1 0x3 SWAP1 DUP2 PUSH3 0x5A6 SWAP2 SWAP1 PUSH3 0x1029 JUMP JUMPDEST POP POP JUMP JUMPDEST PUSH3 0x5BA PUSH3 0x655 PUSH1 0x20 SHL PUSH1 0x20 SHR JUMP JUMPDEST PUSH1 0x0 PUSH3 0x5CD DUP4 PUSH3 0x6E6 PUSH1 0x20 SHL PUSH1 0x20 SHR JUMP JUMPDEST MLOAD EQ PUSH3 0x611 JUMPI PUSH1 0x40 MLOAD PUSH32 0x8C379A000000000000000000000000000000000000000000000000000000000 DUP2 MSTORE PUSH1 0x4 ADD PUSH3 0x608 SWAP1 PUSH3 0x130A JUMP JUMPDEST PUSH1 0x40 MLOAD DUP1 SWAP2 SUB SWAP1 REVERT JUMPDEST PUSH3 0x635 CALLER DUP4 PUSH1 0x1 PUSH1 0x40 MLOAD DUP1 PUSH1 0x20 ADD PUSH1 0x40 MSTORE DUP1 PUSH1 0x0 DUP2 MSTORE POP PUSH3 0x7E4 PUSH1 0x20 SHL PUSH1 0x20 SHR JUMP JUMPDEST PUSH3 0x647 DUP3 DUP3 PUSH3 0x9CB PUSH1 0x20 SHL PUSH1 0x20 SHR JUMP JUMPDEST POP POP JUMP JUMPDEST PUSH1 0x0 PUSH2 0x2710 SWAP1 POP SWAP1 JUMP JUMPDEST PUSH3 0x665 PUSH3 0x324 PUSH1 0x20 SHL PUSH1 0x20 SHR JUMP JUMPDEST PUSH20 0xFFFFFFFFFFFFFFFFFFFFFFFFFFFFFFFFFFFFFFFF AND PUSH3 0x68B PUSH3 0xA3C PUSH1 0x20 SHL PUSH1 0x20 SHR JUMP JUMPDEST PUSH20 0xFFFFFFFFFFFFFFFFFFFFFFFFFFFFFFFFFFFFFFFF AND EQ PUSH3 0x6E4 JUMPI PUSH1 0x40 MLOAD PUSH32 0x8C379A000000000000000000000000000000000000000000000000000000000 DUP2 MSTORE PUSH1 0x4 ADD PUSH3 0x6DB SWAP1 PUSH3 0x137C JUMP JUMPDEST PUSH1 0x40 MLOAD DUP1 SWAP2 SUB SWAP1 REVERT JUMPDEST JUMP JUMPDEST PUSH1 0x60 PUSH1 0x0 PUSH1 0x4 PUSH1 0x0 DUP5 DUP2 MSTORE PUSH1 0x20 ADD SWAP1 DUP2 MSTORE PUSH1 0x20 ADD PUSH1 0x0 KECCAK256 DUP1 SLOAD PUSH3 0x70A SWAP1 PUSH3 0xE18 JUMP JUMPDEST DUP1 PUSH1 0x1F ADD PUSH1 0x20 DUP1 SWAP2 DIV MUL PUSH1 0x20 ADD PUSH1 0x40 MLOAD SWAP1 DUP2 ADD PUSH1 0x40 MSTORE DUP1 SWAP3 SWAP2 SWAP1 DUP2 DUP2 MSTORE PUSH1 0x20 ADD DUP3 DUP1 SLOAD PUSH3 0x738 SWAP1 PUSH3 0xE18 JUMP JUMPDEST DUP1 ISZERO PUSH3 0x789 JUMPI DUP1 PUSH1 0x1F LT PUSH3 0x75D JUMPI PUSH2 0x100 DUP1 DUP4 SLOAD DIV MUL DUP4 MSTORE SWAP2 PUSH1 0x20 ADD SWAP2 PUSH3 0x789 JUMP JUMPDEST DUP3 ADD SWAP2 SWAP1 PUSH1 0x0 MSTORE PUSH1 0x20 PUSH1 0x0 KECCAK256 SWAP1 JUMPDEST DUP2 SLOAD DUP2 MSTORE SWAP1 PUSH1 0x1 ADD SWAP1 PUSH1 0x20 ADD DUP1 DUP4 GT PUSH3 0x76B JUMPI DUP3 SWAP1 SUB PUSH1 0x1F AND DUP3 ADD SWAP2 JUMPDEST POP POP POP POP POP SWAP1 POP PUSH1 0x0 DUP2 MLOAD GT PUSH3 0x7B6 JUMPI PUSH3 0x7B0 DUP4 PUSH3 0xA66 PUSH1 0x20 SHL PUSH3 0xA82 OR PUSH1 0x20 SHR JUMP JUMPDEST PUSH3 0x7DC JUMP JUMPDEST PUSH1 0x3 DUP2 PUSH1 0x40 MLOAD PUSH1 0x20 ADD PUSH3 0x7CC SWAP3 SWAP2 SWAP1 PUSH3 0x149B JUMP JUMPDEST PUSH1 0x40 MLOAD PUSH1 0x20 DUP2 DUP4 SUB SUB DUP2 MSTORE SWAP1 PUSH1 0x40 MSTORE JUMPDEST SWAP2 POP POP SWAP2 SWAP1 POP JUMP JUMPDEST PUSH1 0x0 PUSH20 0xFFFFFFFFFFFFFFFFFFFFFFFFFFFFFFFFFFFFFFFF AND DUP5 PUSH20 0xFFFFFFFFFFFFFFFFFFFFFFFFFFFFFFFFFFFFFFFF AND SUB PUSH3 0x856 JUMPI PUSH1 0x40 MLOAD PUSH32 0x8C379A000000000000000000000000000000000000000000000000000000000 DUP2 MSTORE PUSH1 0x4 ADD PUSH3 0x84D SWAP1 PUSH3 0x1539 JUMP JUMPDEST PUSH1 0x40 MLOAD DUP1 SWAP2 SUB SWAP1 REVERT JUMPDEST PUSH1 0x0 PUSH3 0x868 PUSH3 0x324 PUSH1 0x20 SHL PUSH1 0x20 SHR JUMP JUMPDEST SWAP1 POP PUSH1 0x0 PUSH3 0x87D DUP6 PUSH3 0xB02 PUSH1 0x20 SHL PUSH1 0x20 SHR JUMP JUMPDEST SWAP1 POP PUSH1 0x0 PUSH3 0x892 DUP6 PUSH3 0xB02 PUSH1 0x20 SHL PUSH1 0x20 SHR JUMP JUMPDEST SWAP1 POP PUSH3 0x8AB DUP4 PUSH1 0x0 DUP10 DUP6 DUP6 DUP10 PUSH3 0xB83 PUSH1 0x20 SHL PUSH1 0x20 SHR JUMP JUMPDEST DUP5 PUSH1 0x0 DUP1 DUP9 DUP2 MSTORE PUSH1 0x20 ADD SWAP1 DUP2 MSTORE PUSH1 0x20 ADD PUSH1 0x0 KECCAK256 PUSH1 0x0 DUP10 PUSH20 0xFFFFFFFFFFFFFFFFFFFFFFFFFFFFFFFFFFFFFFFF AND PUSH20 0xFFFFFFFFFFFFFFFFFFFFFFFFFFFFFFFFFFFFFFFF AND DUP2 MSTORE PUSH1 0x20 ADD SWAP1 DUP2 MSTORE PUSH1 0x20 ADD PUSH1 0x0 KECCAK256 PUSH1 0x0 DUP3 DUP3 SLOAD PUSH3 0x90C SWAP2 SWAP1 PUSH3 0x158A JUMP JUMPDEST SWAP3 POP POP DUP2 SWAP1 SSTORE POP DUP7 PUSH20 0xFFFFFFFFFFFFFFFFFFFFFFFFFFFFFFFFFFFFFFFF AND PUSH1 0x0 PUSH20 0xFFFFFFFFFFFFFFFFFFFFFFFFFFFFFFFFFFFFFFFF AND DUP5 PUSH20 0xFFFFFFFFFFFFFFFFFFFFFFFFFFFFFFFFFFFFFFFF AND PUSH32 0xC3D58168C5AE7397731D063D5BBF3D657854427343F4C083240F7AACAA2D0F62 DUP10 DUP10 PUSH1 0x40 MLOAD PUSH3 0x98C SWAP3 SWAP2 SWAP1 PUSH3 0x15D6 JUMP JUMPDEST PUSH1 0x40 MLOAD DUP1 SWAP2 SUB SWAP1 LOG4 PUSH3 0x9AB DUP4 PUSH1 0x0 DUP10 DUP6 DUP6 DUP10 PUSH3 0xB8B PUSH1 0x20 SHL PUSH1 0x20 SHR JUMP JUMPDEST PUSH3 0x9C2 DUP4 PUSH1 0x0 DUP10 DUP10 DUP10 DUP10 PUSH3 0xB93 PUSH1 0x20 SHL PUSH1 0x20 SHR JUMP JUMPDEST POP POP POP POP POP POP POP JUMP JUMPDEST DUP1 PUSH1 0x4 PUSH1 0x0 DUP5 DUP2 MSTORE PUSH1 0x20 ADD SWAP1 DUP2 MSTORE PUSH1 0x20 ADD PUSH1 0x0 KECCAK256 SWAP1 DUP2 PUSH3 0x9ED SWAP2 SWAP1 PUSH3 0x1029 JUMP JUMPDEST POP DUP2 PUSH32 0x6BB7FF708619BA0610CBA295A58592E0451DEE2622938C8755667688DAF3529B PUSH3 0xA21 DUP5 PUSH3 0x6E6 PUSH1 0x20 SHL PUSH1 0x20 SHR JUMP JUMPDEST PUSH1 0x40 MLOAD PUSH3 0xA30 SWAP2 SWAP1 PUSH3 0x1655 JUMP JUMPDEST PUSH1 0x40 MLOAD DUP1 SWAP2 SUB SWAP1 LOG2 POP POP JUMP JUMPDEST PUSH1 0x0 PUSH1 0x5 PUSH1 0x0 SWAP1 SLOAD SWAP1 PUSH2 0x100 EXP SWAP1 DIV PUSH20 0xFFFFFFFFFFFFFFFFFFFFFFFFFFFFFFFFFFFFFFFF AND SWAP1 POP SWAP1 JUMP JUMPDEST PUSH1 0x60 PUSH1 0x2 DUP1 SLOAD PUSH3 0xA77 SWAP1 PUSH3 0xE18 JUMP JUMPDEST DUP1 PUSH1 0x1F ADD PUSH1 0x20 DUP1 SWAP2 DIV MUL PUSH1 0x20 ADD PUSH1 0x40 MLOAD SWAP1 DUP2 ADD PUSH1 0x40 MSTORE DUP1 SWAP3 SWAP2 SWAP1 DUP2 DUP2 MSTORE PUSH1 0x20 ADD DUP3 DUP1 SLOAD PUSH3 0xAA5 SWAP1 PUSH3 0xE18 JUMP JUMPDEST DUP1 ISZERO PUSH3 0xAF6 JUMPI DUP1 PUSH1 0x1F LT PUSH3 0xACA JUMPI PUSH2 0x100 DUP1 DUP4 SLOAD DIV MUL DUP4 MSTORE SWAP2 PUSH1 0x20 ADD SWAP2 PUSH3 0xAF6 JUMP JUMPDEST DUP3 ADD SWAP2 SWAP1 PUSH1 0x0 MSTORE PUSH1 0x20 PUSH1 0x0 KECCAK256 SWAP1 JUMPDEST DUP2 SLOAD DUP2 MSTORE SWAP1 PUSH1 0x1 ADD SWAP1 PUSH1 0x20 ADD DUP1 DUP4 GT PUSH3 0xAD8 JUMPI DUP3 SWAP1 SUB PUSH1 0x1F AND DUP3 ADD SWAP2 JUMPDEST POP POP POP POP POP SWAP1 POP SWAP2 SWAP1 POP JUMP JUMPDEST PUSH1 0x60 PUSH1 0x0 PUSH1 0x1 PUSH8 0xFFFFFFFFFFFFFFFF DUP2 GT ISZERO PUSH3 0xB24 JUMPI PUSH3 0xB23 PUSH3 0xDBA JUMP JUMPDEST JUMPDEST PUSH1 0x40 MLOAD SWAP1 DUP1 DUP3 MSTORE DUP1 PUSH1 0x20 MUL PUSH1 0x20 ADD DUP3 ADD PUSH1 0x40 MSTORE DUP1 ISZERO PUSH3 0xB53 JUMPI DUP2 PUSH1 0x20 ADD PUSH1 0x20 DUP3 MUL DUP1 CALLDATASIZE DUP4 CALLDATACOPY DUP1 DUP3 ADD SWAP2 POP POP SWAP1 POP JUMPDEST POP SWAP1 POP DUP3 DUP2 PUSH1 0x0 DUP2 MLOAD DUP2 LT PUSH3 0xB6E JUMPI PUSH3 0xB6D PUSH3 0x1679 JUMP JUMPDEST JUMPDEST PUSH1 0x20 MUL PUSH1 0x20 ADD ADD DUP2 DUP2 MSTORE POP POP DUP1 SWAP2 POP POP SWAP2 SWAP1 POP JUMP JUMPDEST POP POP POP POP POP POP JUMP JUMPDEST POP POP POP POP POP POP JUMP JUMPDEST PUSH3 0xBBF DUP5 PUSH20 0xFFFFFFFFFFFFFFFFFFFFFFFFFFFFFFFFFFFFFFFF AND PUSH3 0xD8C PUSH1 0x20 SHL PUSH3 0xB16 OR PUSH1 0x20 SHR JUMP JUMPDEST ISZERO PUSH3 0xD84 JUMPI DUP4 PUSH20 0xFFFFFFFFFFFFFFFFFFFFFFFFFFFFFFFFFFFFFFFF AND PUSH4 0xF23A6E61 DUP8 DUP8 DUP7 DUP7 DUP7 PUSH1 0x40 MLOAD DUP7 PUSH4 0xFFFFFFFF AND PUSH1 0xE0 SHL DUP2 MSTORE PUSH1 0x4 ADD PUSH3 0xC08 SWAP6 SWAP5 SWAP4 SWAP3 SWAP2 SWAP1 PUSH3 0x1705 JUMP JUMPDEST PUSH1 0x20 PUSH1 0x40 MLOAD DUP1 DUP4 SUB DUP2 PUSH1 0x0 DUP8 GAS CALL SWAP3 POP POP POP DUP1 ISZERO PUSH3 0xC47 JUMPI POP PUSH1 0x40 MLOAD RETURNDATASIZE PUSH1 0x1F NOT PUSH1 0x1F DUP3 ADD AND DUP3 ADD DUP1 PUSH1 0x40 MSTORE POP DUP2 ADD SWAP1 PUSH3 0xC44 SWAP2 SWAP1 PUSH3 0x17D5 JUMP JUMPDEST PUSH1 0x1 JUMPDEST PUSH3 0xCF8 JUMPI PUSH3 0xC56 PUSH3 0x1814 JUMP JUMPDEST DUP1 PUSH4 0x8C379A0 SUB PUSH3 0xCB9 JUMPI POP PUSH3 0xC6D PUSH3 0x186F JUMP JUMPDEST DUP1 PUSH3 0xC7A JUMPI POP PUSH3 0xCBB JUMP JUMPDEST DUP1 PUSH1 0x40 MLOAD PUSH32 0x8C379A000000000000000000000000000000000000000000000000000000000 DUP2 MSTORE PUSH1 0x4 ADD PUSH3 0xCB0 SWAP2 SWAP1 PUSH3 0x1655 JUMP JUMPDEST PUSH1 0x40 MLOAD DUP1 SWAP2 SUB SWAP1 REVERT JUMPDEST POP JUMPDEST PUSH1 0x40 MLOAD PUSH32 0x8C379A000000000000000000000000000000000000000000000000000000000 DUP2 MSTORE PUSH1 0x4 ADD PUSH3 0xCEF SWAP1 PUSH3 0x1980 JUMP JUMPDEST PUSH1 0x40 MLOAD DUP1 SWAP2 SUB SWAP1 REVERT JUMPDEST PUSH4 0xF23A6E61 PUSH1 0xE0 SHL PUSH28 0xFFFFFFFFFFFFFFFFFFFFFFFFFFFFFFFFFFFFFFFFFFFFFFFFFFFFFFFF NOT AND DUP2 PUSH28 0xFFFFFFFFFFFFFFFFFFFFFFFFFFFFFFFFFFFFFFFFFFFFFFFFFFFFFFFF NOT AND EQ PUSH3 0xD82 JUMPI PUSH1 0x40 MLOAD PUSH32 0x8C379A000000000000000000000000000000000000000000000000000000000 DUP2 MSTORE PUSH1 0x4 ADD PUSH3 0xD79 SWAP1 PUSH3 0x1A18 JUMP JUMPDEST PUSH1 0x40 MLOAD DUP1 SWAP2 SUB SWAP1 REVERT JUMPDEST POP JUMPDEST POP POP POP POP POP POP JUMP JUMPDEST PUSH1 0x0 DUP1 DUP3 PUSH20 0xFFFFFFFFFFFFFFFFFFFFFFFFFFFFFFFFFFFFFFFF AND EXTCODESIZE GT SWAP1 POP SWAP2 SWAP1 POP JUMP JUMPDEST PUSH1 0x0 DUP2 MLOAD SWAP1 POP SWAP2 SWAP1 POP JUMP JUMPDEST PUSH32 0x4E487B7100000000000000000000000000000000000000000000000000000000 PUSH1 0x0 MSTORE PUSH1 0x41 PUSH1 0x4 MSTORE PUSH1 0x24 PUSH1 0x0 REVERT JUMPDEST PUSH32 0x4E487B7100000000000000000000000000000000000000000000000000000000 PUSH1 0x0 MSTORE PUSH1 0x22 PUSH1 0x4 MSTORE PUSH1 0x24 PUSH1 0x0 REVERT JUMPDEST PUSH1 0x0 PUSH1 0x2 DUP3 DIV SWAP1 POP PUSH1 0x1 DUP3 AND DUP1 PUSH3 0xE31 JUMPI PUSH1 0x7F DUP3 AND SWAP2 POP JUMPDEST PUSH1 0x20 DUP3 LT DUP2 SUB PUSH3 0xE47 JUMPI PUSH3 0xE46 PUSH3 0xDE9 JUMP JUMPDEST JUMPDEST POP SWAP2 SWAP1 POP JUMP JUMPDEST PUSH1 0x0 DUP2 SWAP1 POP DUP2 PUSH1 0x0 MSTORE PUSH1 0x20 PUSH1 0x0 KECCAK256 SWAP1 POP SWAP2 SWAP1 POP JUMP JUMPDEST PUSH1 0x0 PUSH1 0x20 PUSH1 0x1F DUP4 ADD DIV SWAP1 POP SWAP2 SWAP1 POP JUMP JUMPDEST PUSH1 0x0 DUP3 DUP3 SHL SWAP1 POP SWAP3 SWAP2 POP POP JUMP JUMPDEST PUSH1 0x0 PUSH1 0x8 DUP4 MUL PUSH3 0xEB1 PUSH32 0xFFFFFFFFFFFFFFFFFFFFFFFFFFFFFFFFFFFFFFFFFFFFFFFFFFFFFFFFFFFFFFFF DUP3 PUSH3 0xE72 JUMP JUMPDEST PUSH3 0xEBD DUP7 DUP4 PUSH3 0xE72 JUMP JUMPDEST SWAP6 POP DUP1 NOT DUP5 AND SWAP4 POP DUP1 DUP7 AND DUP5 OR SWAP3 POP POP POP SWAP4 SWAP3 POP POP POP JUMP JUMPDEST PUSH1 0x0 DUP2 SWAP1 POP SWAP2 SWAP1 POP JUMP JUMPDEST PUSH1 0x0 DUP2 SWAP1 POP SWAP2 SWAP1 POP JUMP JUMPDEST PUSH1 0x0 PUSH3 0xF0A PUSH3 0xF04 PUSH3 0xEFE DUP5 PUSH3 0xED5 JUMP JUMPDEST PUSH3 0xEDF JUMP JUMPDEST PUSH3 0xED5 JUMP JUMPDEST SWAP1 POP SWAP2 SWAP1 POP JUMP JUMPDEST PUSH1 0x0 DUP2 SWAP1 POP SWAP2 SWAP1 POP JUMP JUMPDEST PUSH3 0xF26 DUP4 PUSH3 0xEE9 JUMP JUMPDEST PUSH3 0xF3E PUSH3 0xF35 DUP3 PUSH3 0xF11 JUMP JUMPDEST DUP5 DUP5 SLOAD PUSH3 0xE7F JUMP JUMPDEST DUP3 SSTORE POP POP POP POP JUMP JUMPDEST PUSH1 0x0 SWAP1 JUMP JUMPDEST PUSH3 0xF55 PUSH3 0xF46 JUMP JUMPDEST PUSH3 0xF62 DUP2 DUP5 DUP5 PUSH3 0xF1B JUMP JUMPDEST POP POP POP JUMP JUMPDEST JUMPDEST DUP2 DUP2 LT ISZERO PUSH3 0xF8A JUMPI PUSH3 0xF7E PUSH1 0x0 DUP3 PUSH3 0xF4B JUMP JUMPDEST PUSH1 0x1 DUP2 ADD SWAP1 POP PUSH3 0xF68 JUMP JUMPDEST POP POP JUMP JUMPDEST PUSH1 0x1F DUP3 GT ISZERO PUSH3 0xFD9 JUMPI PUSH3 0xFA3 DUP2 PUSH3 0xE4D JUMP JUMPDEST PUSH3 0xFAE DUP5 PUSH3 0xE62 JUMP JUMPDEST DUP2 ADD PUSH1 0x20 DUP6 LT ISZERO PUSH3 0xFBE JUMPI DUP2 SWAP1 POP JUMPDEST PUSH3 0xFD6 PUSH3 0xFCD DUP6 PUSH3 0xE62 JUMP JUMPDEST DUP4 ADD DUP3 PUSH3 0xF67 JUMP JUMPDEST POP POP JUMPDEST POP POP POP JUMP JUMPDEST PUSH1 0x0 DUP3 DUP3 SHR SWAP1 POP SWAP3 SWAP2 POP POP JUMP JUMPDEST PUSH1 0x0 PUSH3 0xFFE PUSH1 0x0 NOT DUP5 PUSH1 0x8 MUL PUSH3 0xFDE JUMP JUMPDEST NOT DUP1 DUP4 AND SWAP2 POP POP SWAP3 SWAP2 POP POP JUMP JUMPDEST PUSH1 0x0 PUSH3 0x1019 DUP4 DUP4 PUSH3 0xFEB JUMP JUMPDEST SWAP2 POP DUP3 PUSH1 0x2 MUL DUP3 OR SWAP1 POP SWAP3 SWAP2 POP POP JUMP JUMPDEST PUSH3 0x1034 DUP3 PUSH3 0xDAF JUMP JUMPDEST PUSH8 0xFFFFFFFFFFFFFFFF DUP2 GT ISZERO PUSH3 0x1050 JUMPI PUSH3 0x104F PUSH3 0xDBA JUMP JUMPDEST JUMPDEST PUSH3 0x105C DUP3 SLOAD PUSH3 0xE18 JUMP JUMPDEST PUSH3 0x1069 DUP3 DUP3 DUP6 PUSH3 0xF8E JUMP JUMPDEST PUSH1 0x0 PUSH1 0x20 SWAP1 POP PUSH1 0x1F DUP4 GT PUSH1 0x1 DUP2 EQ PUSH3 0x10A1 JUMPI PUSH1 0x0 DUP5 ISZERO PUSH3 0x108C JUMPI DUP3 DUP8 ADD MLOAD SWAP1 POP JUMPDEST PUSH3 0x1098 DUP6 DUP3 PUSH3 0x100B JUMP JUMPDEST DUP7 SSTORE POP PUSH3 0x1108 JUMP JUMPDEST PUSH1 0x1F NOT DUP5 AND PUSH3 0x10B1 DUP7 PUSH3 0xE4D JUMP JUMPDEST PUSH1 0x0 JUMPDEST DUP3 DUP2 LT ISZERO PUSH3 0x10DB JUMPI DUP5 DUP10 ADD MLOAD DUP3 SSTORE PUSH1 0x1 DUP3 ADD SWAP2 POP PUSH1 0x20 DUP6 ADD SWAP5 POP PUSH1 0x20 DUP2 ADD SWAP1 POP PUSH3 0x10B4 JUMP JUMPDEST DUP7 DUP4 LT ISZERO PUSH3 0x10FB JUMPI DUP5 DUP10 ADD MLOAD PUSH3 0x10F7 PUSH1 0x1F DUP10 AND DUP3 PUSH3 0xFEB JUMP JUMPDEST DUP4 SSTORE POP JUMPDEST PUSH1 0x1 PUSH1 0x2 DUP9 MUL ADD DUP9 SSTORE POP POP POP JUMPDEST POP POP POP POP POP POP JUMP JUMPDEST PUSH1 0x0 PUSH20 0xFFFFFFFFFFFFFFFFFFFFFFFFFFFFFFFFFFFFFFFF DUP3 AND SWAP1 POP SWAP2 SWAP1 POP JUMP JUMPDEST PUSH1 0x0 PUSH3 0x113D DUP3 PUSH3 0x1110 JUMP JUMPDEST SWAP1 POP SWAP2 SWAP1 POP JUMP JUMPDEST PUSH3 0x114F DUP2 PUSH3 0x1130 JUMP JUMPDEST DUP3 MSTORE POP POP JUMP JUMPDEST PUSH1 0x0 PUSH1 0x40 DUP3 ADD SWAP1 POP PUSH3 0x116C PUSH1 0x0 DUP4 ADD DUP6 PUSH3 0x1144 JUMP JUMPDEST PUSH3 0x117B PUSH1 0x20 DUP4 ADD DUP5 PUSH3 0x1144 JUMP JUMPDEST SWAP4 SWAP3 POP POP POP JUMP JUMPDEST PUSH1 0x0 PUSH1 0x20 DUP3 ADD SWAP1 POP PUSH3 0x1199 PUSH1 0x0 DUP4 ADD DUP5 PUSH3 0x1144 JUMP JUMPDEST SWAP3 SWAP2 POP POP JUMP JUMPDEST PUSH1 0x0 DUP3 DUP3 MSTORE PUSH1 0x20 DUP3 ADD SWAP1 POP SWAP3 SWAP2 POP POP JUMP JUMPDEST PUSH32 0x455243323938313A20726F79616C7479206665652077696C6C20657863656564 PUSH1 0x0 DUP3 ADD MSTORE PUSH32 0x2073616C65507269636500000000000000000000000000000000000000000000 PUSH1 0x20 DUP3 ADD MSTORE POP JUMP JUMPDEST PUSH1 0x0 PUSH3 0x120E PUSH1 0x2A DUP4 PUSH3 0x119F JUMP JUMPDEST SWAP2 POP PUSH3 0x121B DUP3 PUSH3 0x11B0 JUMP JUMPDEST PUSH1 0x40 DUP3 ADD SWAP1 POP SWAP2 SWAP1 POP JUMP JUMPDEST PUSH1 0x0 PUSH1 0x20 DUP3 ADD SWAP1 POP DUP2 DUP2 SUB PUSH1 0x0 DUP4 ADD MSTORE PUSH3 0x1241 DUP2 PUSH3 0x11FF JUMP JUMPDEST SWAP1 POP SWAP2 SWAP1 POP JUMP JUMPDEST PUSH32 0x455243323938313A20696E76616C696420726563656976657200000000000000 PUSH1 0x0 DUP3 ADD MSTORE POP JUMP JUMPDEST PUSH1 0x0 PUSH3 0x1280 PUSH1 0x19 DUP4 PUSH3 0x119F JUMP JUMPDEST SWAP2 POP PUSH3 0x128D DUP3 PUSH3 0x1248 JUMP JUMPDEST PUSH1 0x20 DUP3 ADD SWAP1 POP SWAP2 SWAP1 POP JUMP JUMPDEST PUSH1 0x0 PUSH1 0x20 DUP3 ADD SWAP1 POP DUP2 DUP2 SUB PUSH1 0x0 DUP4 ADD MSTORE PUSH3 0x12B3 DUP2 PUSH3 0x1271 JUMP JUMPDEST SWAP1 POP SWAP2 SWAP1 POP JUMP JUMPDEST PUSH32 0x4E465420616C7265616479206578697374730000000000000000000000000000 PUSH1 0x0 DUP3 ADD MSTORE POP JUMP JUMPDEST PUSH1 0x0 PUSH3 0x12F2 PUSH1 0x12 DUP4 PUSH3 0x119F JUMP JUMPDEST SWAP2 POP PUSH3 0x12FF DUP3 PUSH3 0x12BA JUMP JUMPDEST PUSH1 0x20 DUP3 ADD SWAP1 POP SWAP2 SWAP1 POP JUMP JUMPDEST PUSH1 0x0 PUSH1 0x20 DUP3 ADD SWAP1 POP DUP2 DUP2 SUB PUSH1 0x0 DUP4 ADD MSTORE PUSH3 0x1325 DUP2 PUSH3 0x12E3 JUMP JUMPDEST SWAP1 POP SWAP2 SWAP1 POP JUMP JUMPDEST PUSH32 0x4F776E61626C653A2063616C6C6572206973206E6F7420746865206F776E6572 PUSH1 0x0 DUP3 ADD MSTORE POP JUMP JUMPDEST PUSH1 0x0 PUSH3 0x1364 PUSH1 0x20 DUP4 PUSH3 0x119F JUMP JUMPDEST SWAP2 POP PUSH3 0x1371 DUP3 PUSH3 0x132C JUMP JUMPDEST PUSH1 0x20 DUP3 ADD SWAP1 POP SWAP2 SWAP1 POP JUMP JUMPDEST PUSH1 0x0 PUSH1 0x20 DUP3 ADD SWAP1 POP DUP2 DUP2 SUB PUSH1 0x0 DUP4 ADD MSTORE PUSH3 0x1397 DUP2 PUSH3 0x1355 JUMP JUMPDEST SWAP1 POP SWAP2 SWAP1 POP JUMP JUMPDEST PUSH1 0x0 DUP2 SWAP1 POP SWAP3 SWAP2 POP POP JUMP JUMPDEST PUSH1 0x0 DUP2 SLOAD PUSH3 0x13B8 DUP2 PUSH3 0xE18 JUMP JUMPDEST PUSH3 0x13C4 DUP2 DUP7 PUSH3 0x139E JUMP JUMPDEST SWAP5 POP PUSH1 0x1 DUP3 AND PUSH1 0x0 DUP2 EQ PUSH3 0x13E2 JUMPI PUSH1 0x1 DUP2 EQ PUSH3 0x13F8 JUMPI PUSH3 0x142F JUMP JUMPDEST PUSH1 0xFF NOT DUP4 AND DUP7 MSTORE DUP2 ISZERO ISZERO DUP3 MUL DUP7 ADD SWAP4 POP PUSH3 0x142F JUMP JUMPDEST PUSH3 0x1403 DUP6 PUSH3 0xE4D JUMP JUMPDEST PUSH1 0x0 JUMPDEST DUP4 DUP2 LT ISZERO PUSH3 0x1427 JUMPI DUP2 SLOAD DUP2 DUP10 ADD MSTORE PUSH1 0x1 DUP3 ADD SWAP2 POP PUSH1 0x20 DUP2 ADD SWAP1 POP PUSH3 0x1406 JUMP JUMPDEST DUP4 DUP9 ADD SWAP6 POP POP POP JUMPDEST POP POP POP SWAP3 SWAP2 POP POP JUMP JUMPDEST PUSH1 0x0 JUMPDEST DUP4 DUP2 LT ISZERO PUSH3 0x1458 JUMPI DUP1 DUP3 ADD MLOAD DUP2 DUP5 ADD MSTORE PUSH1 0x20 DUP2 ADD SWAP1 POP PUSH3 0x143B JUMP JUMPDEST PUSH1 0x0 DUP5 DUP5 ADD MSTORE POP POP POP POP JUMP JUMPDEST PUSH1 0x0 PUSH3 0x1471 DUP3 PUSH3 0xDAF JUMP JUMPDEST PUSH3 0x147D DUP2 DUP6 PUSH3 0x139E JUMP JUMPDEST SWAP4 POP PUSH3 0x148F DUP2 DUP6 PUSH1 0x20 DUP7 ADD PUSH3 0x1438 JUMP JUMPDEST DUP1 DUP5 ADD SWAP2 POP POP SWAP3 SWAP2 POP POP JUMP JUMPDEST PUSH1 0x0 PUSH3 0x14A9 DUP3 DUP6 PUSH3 0x13A9 JUMP JUMPDEST SWAP2 POP PUSH3 0x14B7 DUP3 DUP5 PUSH3 0x1464 JUMP JUMPDEST SWAP2 POP DUP2 SWAP1 POP SWAP4 SWAP3 POP POP POP JUMP JUMPDEST PUSH32 0x455243313135353A206D696E7420746F20746865207A65726F20616464726573 PUSH1 0x0 DUP3 ADD MSTORE PUSH32 0x7300000000000000000000000000000000000000000000000000000000000000 PUSH1 0x20 DUP3 ADD MSTORE POP JUMP JUMPDEST PUSH1 0x0 PUSH3 0x1521 PUSH1 0x21 DUP4 PUSH3 0x119F JUMP JUMPDEST SWAP2 POP PUSH3 0x152E DUP3 PUSH3 0x14C3 JUMP JUMPDEST PUSH1 0x40 DUP3 ADD SWAP1 POP SWAP2 SWAP1 POP JUMP JUMPDEST PUSH1 0x0 PUSH1 0x20 DUP3 ADD SWAP1 POP DUP2 DUP2 SUB PUSH1 0x0 DUP4 ADD MSTORE PUSH3 0x1554 DUP2 PUSH3 0x1512 JUMP JUMPDEST SWAP1 POP SWAP2 SWAP1 POP JUMP JUMPDEST PUSH32 0x4E487B7100000000000000000000000000000000000000000000000000000000 PUSH1 0x0 MSTORE PUSH1 0x11 PUSH1 0x4 MSTORE PUSH1 0x24 PUSH1 0x0 REVERT JUMPDEST PUSH1 0x0 PUSH3 0x1597 DUP3 PUSH3 0xED5 JUMP JUMPDEST SWAP2 POP PUSH3 0x15A4 DUP4 PUSH3 0xED5 JUMP JUMPDEST SWAP3 POP DUP3 DUP3 ADD SWAP1 POP DUP1 DUP3 GT ISZERO PUSH3 0x15BF JUMPI PUSH3 0x15BE PUSH3 0x155B JUMP JUMPDEST JUMPDEST SWAP3 SWAP2 POP POP JUMP JUMPDEST PUSH3 0x15D0 DUP2 PUSH3 0xED5 JUMP JUMPDEST DUP3 MSTORE POP POP JUMP JUMPDEST PUSH1 0x0 PUSH1 0x40 DUP3 ADD SWAP1 POP PUSH3 0x15ED PUSH1 0x0 DUP4 ADD DUP6 PUSH3 0x15C5 JUMP JUMPDEST PUSH3 0x15FC PUSH1 0x20 DUP4 ADD DUP5 PUSH3 0x15C5 JUMP JUMPDEST SWAP4 SWAP3 POP POP POP JUMP JUMPDEST PUSH1 0x0 PUSH1 0x1F NOT PUSH1 0x1F DUP4 ADD AND SWAP1 POP SWAP2 SWAP1 POP JUMP JUMPDEST PUSH1 0x0 PUSH3 0x1621 DUP3 PUSH3 0xDAF JUMP JUMPDEST PUSH3 0x162D DUP2 DUP6 PUSH3 0x119F JUMP JUMPDEST SWAP4 POP PUSH3 0x163F DUP2 DUP6 PUSH1 0x20 DUP7 ADD PUSH3 0x1438 JUMP JUMPDEST PUSH3 0x164A DUP2 PUSH3 0x1603 JUMP JUMPDEST DUP5 ADD SWAP2 POP POP SWAP3 SWAP2 POP POP JUMP JUMPDEST PUSH1 0x0 PUSH1 0x20 DUP3 ADD SWAP1 POP DUP2 DUP2 SUB PUSH1 0x0 DUP4 ADD MSTORE PUSH3 0x1671 DUP2 DUP5 PUSH3 0x1614 JUMP JUMPDEST SWAP1 POP SWAP3 SWAP2 POP POP JUMP JUMPDEST PUSH32 0x4E487B7100000000000000000000000000000000000000000000000000000000 PUSH1 0x0 MSTORE PUSH1 0x32 PUSH1 0x4 MSTORE PUSH1 0x24 PUSH1 0x0 REVERT JUMPDEST PUSH1 0x0 DUP2 MLOAD SWAP1 POP SWAP2 SWAP1 POP JUMP JUMPDEST PUSH1 0x0 DUP3 DUP3 MSTORE PUSH1 0x20 DUP3 ADD SWAP1 POP SWAP3 SWAP2 POP POP JUMP JUMPDEST PUSH1 0x0 PUSH3 0x16D1 DUP3 PUSH3 0x16A8 JUMP JUMPDEST PUSH3 0x16DD DUP2 DUP6 PUSH3 0x16B3 JUMP JUMPDEST SWAP4 POP PUSH3 0x16EF DUP2 DUP6 PUSH1 0x20 DUP7 ADD PUSH3 0x1438 JUMP JUMPDEST PUSH3 0x16FA DUP2 PUSH3 0x1603 JUMP JUMPDEST DUP5 ADD SWAP2 POP POP SWAP3 SWAP2 POP POP JUMP JUMPDEST PUSH1 0x0 PUSH1 0xA0 DUP3 ADD SWAP1 POP PUSH3 0x171C PUSH1 0x0 DUP4 ADD DUP9 PUSH3 0x1144 JUMP JUMPDEST PUSH3 0x172B PUSH1 0x20 DUP4 ADD DUP8 PUSH3 0x1144 JUMP JUMPDEST PUSH3 0x173A PUSH1 0x40 DUP4 ADD DUP7 PUSH3 0x15C5 JUMP JUMPDEST PUSH3 0x1749 PUSH1 0x60 DUP4 ADD DUP6 PUSH3 0x15C5 JUMP JUMPDEST DUP2 DUP2 SUB PUSH1 0x80 DUP4 ADD MSTORE PUSH3 0x175D DUP2 DUP5 PUSH3 0x16C4 JUMP JUMPDEST SWAP1 POP SWAP7 SWAP6 POP POP POP POP POP POP JUMP JUMPDEST PUSH1 0x0 PUSH1 0x40 MLOAD SWAP1 POP SWAP1 JUMP JUMPDEST PUSH1 0x0 DUP1 REVERT JUMPDEST PUSH1 0x0 PUSH32 0xFFFFFFFF00000000000000000000000000000000000000000000000000000000 DUP3 AND SWAP1 POP SWAP2 SWAP1 POP JUMP JUMPDEST PUSH3 0x17AF DUP2 PUSH3 0x1778 JUMP JUMPDEST DUP2 EQ PUSH3 0x17BB JUMPI PUSH1 0x0 DUP1 REVERT JUMPDEST POP JUMP JUMPDEST PUSH1 0x0 DUP2 MLOAD SWAP1 POP PUSH3 0x17CF DUP2 PUSH3 0x17A4 JUMP JUMPDEST SWAP3 SWAP2 POP POP JUMP JUMPDEST PUSH1 0x0 PUSH1 0x20 DUP3 DUP5 SUB SLT ISZERO PUSH3 0x17EE JUMPI PUSH3 0x17ED PUSH3 0x1773 JUMP JUMPDEST JUMPDEST PUSH1 0x0 PUSH3 0x17FE DUP5 DUP3 DUP6 ADD PUSH3 0x17BE JUMP JUMPDEST SWAP2 POP POP SWAP3 SWAP2 POP POP JUMP JUMPDEST PUSH1 0x0 DUP2 PUSH1 0xE0 SHR SWAP1 POP SWAP2 SWAP1 POP JUMP JUMPDEST PUSH1 0x0 PUSH1 0x3 RETURNDATASIZE GT ISZERO PUSH3 0x1836 JUMPI PUSH1 0x4 PUSH1 0x0 DUP1 RETURNDATACOPY PUSH3 0x1833 PUSH1 0x0 MLOAD PUSH3 0x1807 JUMP JUMPDEST SWAP1 POP JUMPDEST SWAP1 JUMP JUMPDEST PUSH3 0x1844 DUP3 PUSH3 0x1603 JUMP JUMPDEST DUP2 ADD DUP2 DUP2 LT PUSH8 0xFFFFFFFFFFFFFFFF DUP3 GT OR ISZERO PUSH3 0x1866 JUMPI PUSH3 0x1865 PUSH3 0xDBA JUMP JUMPDEST JUMPDEST DUP1 PUSH1 0x40 MSTORE POP POP POP JUMP JUMPDEST PUSH1 0x0 PUSH1 0x44 RETURNDATASIZE LT PUSH3 0x1907 JUMPI PUSH3 0x1884 PUSH3 0x1769 JUMP JUMPDEST PUSH1 0x4 RETURNDATASIZE SUB PUSH1 0x4 DUP3 RETURNDATACOPY DUP1 MLOAD RETURNDATASIZE PUSH1 0x24 DUP3 ADD GT PUSH8 0xFFFFFFFFFFFFFFFF DUP3 GT OR ISZERO PUSH3 0x18AE JUMPI POP POP PUSH3 0x1907 JUMP JUMPDEST DUP1 DUP3 ADD DUP1 MLOAD PUSH8 0xFFFFFFFFFFFFFFFF DUP2 GT ISZERO PUSH3 0x18CE JUMPI POP POP POP POP PUSH3 0x1907 JUMP JUMPDEST DUP1 PUSH1 0x20 DUP4 ADD ADD PUSH1 0x4 RETURNDATASIZE SUB DUP6 ADD DUP2 GT ISZERO PUSH3 0x18ED JUMPI POP POP POP POP POP PUSH3 0x1907 JUMP JUMPDEST PUSH3 0x18FE DUP3 PUSH1 0x20 ADD DUP6 ADD DUP7 PUSH3 0x1839 JUMP JUMPDEST DUP3 SWAP6 POP POP POP POP POP POP JUMPDEST SWAP1 JUMP JUMPDEST PUSH32 0x455243313135353A207472616E7366657220746F206E6F6E2D45524331313535 PUSH1 0x0 DUP3 ADD MSTORE PUSH32 0x526563656976657220696D706C656D656E746572000000000000000000000000 PUSH1 0x20 DUP3 ADD MSTORE POP JUMP JUMPDEST PUSH1 0x0 PUSH3 0x1968 PUSH1 0x34 DUP4 PUSH3 0x119F JUMP JUMPDEST SWAP2 POP PUSH3 0x1975 DUP3 PUSH3 0x190A JUMP JUMPDEST PUSH1 0x40 DUP3 ADD SWAP1 POP SWAP2 SWAP1 POP JUMP JUMPDEST PUSH1 0x0 PUSH1 0x20 DUP3 ADD SWAP1 POP DUP2 DUP2 SUB PUSH1 0x0 DUP4 ADD MSTORE PUSH3 0x199B DUP2 PUSH3 0x1959 JUMP JUMPDEST SWAP1 POP SWAP2 SWAP1 POP JUMP JUMPDEST PUSH32 0x455243313135353A204552433131353552656365697665722072656A65637465 PUSH1 0x0 DUP3 ADD MSTORE PUSH32 0x6420746F6B656E73000000000000000000000000000000000000000000000000 PUSH1 0x20 DUP3 ADD MSTORE POP JUMP JUMPDEST PUSH1 0x0 PUSH3 0x1A00 PUSH1 0x28 DUP4 PUSH3 0x119F JUMP JUMPDEST SWAP2 POP PUSH3 0x1A0D DUP3 PUSH3 0x19A2 JUMP JUMPDEST PUSH1 0x40 DUP3 ADD SWAP1 POP SWAP2 SWAP1 POP JUMP JUMPDEST PUSH1 0x0 PUSH1 0x20 DUP3 ADD SWAP1 POP DUP2 DUP2 SUB PUSH1 0x0 DUP4 ADD MSTORE PUSH3 0x1A33 DUP2 PUSH3 0x19F1 JUMP JUMPDEST SWAP1 POP SWAP2 SWAP1 POP JUMP JUMPDEST PUSH2 0x38F2 DUP1 PUSH3 0x1A4A PUSH1 0x0 CODECOPY PUSH1 0x0 RETURN INVALID PUSH1 0x80 PUSH1 0x40 MSTORE CALLVALUE DUP1 ISZERO PUSH2 0x10 JUMPI PUSH1 0x0 DUP1 REVERT JUMPDEST POP PUSH1 0x4 CALLDATASIZE LT PUSH2 0xF4 JUMPI PUSH1 0x0 CALLDATALOAD PUSH1 0xE0 SHR DUP1 PUSH4 0x4E1273F4 GT PUSH2 0x97 JUMPI DUP1 PUSH4 0xA22CB465 GT PUSH2 0x66 JUMPI DUP1 PUSH4 0xA22CB465 EQ PUSH2 0x284 JUMPI DUP1 PUSH4 0xE985E9C5 EQ PUSH2 0x2A0 JUMPI DUP1 PUSH4 0xF242432A EQ PUSH2 0x2D0 JUMPI DUP1 PUSH4 0xF2FDE38B EQ PUSH2 0x2EC JUMPI PUSH2 0xF4 JUMP JUMPDEST DUP1 PUSH4 0x4E1273F4 EQ PUSH2 0x210 JUMPI DUP1 PUSH4 0x55F804B3 EQ PUSH2 0x240 JUMPI DUP1 PUSH4 0x715018A6 EQ PUSH2 0x25C JUMPI DUP1 PUSH4 0x8DA5CB5B EQ PUSH2 0x266 JUMPI PUSH2 0xF4 JUMP JUMPDEST DUP1 PUSH4 0x2A55205A GT PUSH2 0xD3 JUMPI DUP1 PUSH4 0x2A55205A EQ PUSH2 0x189 JUMPI DUP1 PUSH4 0x2CDA9103 EQ PUSH2 0x1BA JUMPI DUP1 PUSH4 0x2EB2C2D6 EQ PUSH2 0x1D6 JUMPI DUP1 PUSH4 0x41F43434 EQ PUSH2 0x1F2 JUMPI PUSH2 0xF4 JUMP JUMPDEST DUP1 PUSH3 0xFDD58E EQ PUSH2 0xF9 JUMPI DUP1 PUSH4 0x1FFC9A7 EQ PUSH2 0x129 JUMPI DUP1 PUSH4 0xE89341C EQ PUSH2 0x159 JUMPI JUMPDEST PUSH1 0x0 DUP1 REVERT JUMPDEST PUSH2 0x113 PUSH1 0x4 DUP1 CALLDATASIZE SUB DUP2 ADD SWAP1 PUSH2 0x10E SWAP2 SWAP1 PUSH2 0x1EDA JUMP JUMPDEST PUSH2 0x308 JUMP JUMPDEST PUSH1 0x40 MLOAD PUSH2 0x120 SWAP2 SWAP1 PUSH2 0x1F29 JUMP JUMPDEST PUSH1 0x40 MLOAD DUP1 SWAP2 SUB SWAP1 RETURN JUMPDEST PUSH2 0x143 PUSH1 0x4 DUP1 CALLDATASIZE SUB DUP2 ADD SWAP1 PUSH2 0x13E SWAP2 SWAP1 PUSH2 0x1F9C JUMP JUMPDEST PUSH2 0x3D0 JUMP JUMPDEST PUSH1 0x40 MLOAD PUSH2 0x150 SWAP2 SWAP1 PUSH2 0x1FE4 JUMP JUMPDEST PUSH1 0x40 MLOAD DUP1 SWAP2 SUB SWAP1 RETURN JUMPDEST PUSH2 0x173 PUSH1 0x4 DUP1 CALLDATASIZE SUB DUP2 ADD SWAP1 PUSH2 0x16E SWAP2 SWAP1 PUSH2 0x1FFF JUMP JUMPDEST PUSH2 0x3E2 JUMP JUMPDEST PUSH1 0x40 MLOAD PUSH2 0x180 SWAP2 SWAP1 PUSH2 0x20BC JUMP JUMPDEST PUSH1 0x40 MLOAD DUP1 SWAP2 SUB SWAP1 RETURN JUMPDEST PUSH2 0x1A3 PUSH1 0x4 DUP1 CALLDATASIZE SUB DUP2 ADD SWAP1 PUSH2 0x19E SWAP2 SWAP1 PUSH2 0x20DE JUMP JUMPDEST PUSH2 0x4C7 JUMP JUMPDEST PUSH1 0x40 MLOAD PUSH2 0x1B1 SWAP3 SWAP2 SWAP1 PUSH2 0x212D JUMP JUMPDEST PUSH1 0x40 MLOAD DUP1 SWAP2 SUB SWAP1 RETURN JUMPDEST PUSH2 0x1D4 PUSH1 0x4 DUP1 CALLDATASIZE SUB DUP2 ADD SWAP1 PUSH2 0x1CF SWAP2 SWAP1 PUSH2 0x228B JUMP JUMPDEST PUSH2 0x6B1 JUMP JUMPDEST STOP JUMPDEST PUSH2 0x1F0 PUSH1 0x4 DUP1 CALLDATASIZE SUB DUP2 ADD SWAP1 PUSH2 0x1EB SWAP2 SWAP1 PUSH2 0x2450 JUMP JUMPDEST PUSH2 0x72F JUMP JUMPDEST STOP JUMPDEST PUSH2 0x1FA PUSH2 0x782 JUMP JUMPDEST PUSH1 0x40 MLOAD PUSH2 0x207 SWAP2 SWAP1 PUSH2 0x257E JUMP JUMPDEST PUSH1 0x40 MLOAD DUP1 SWAP2 SUB SWAP1 RETURN JUMPDEST PUSH2 0x22A PUSH1 0x4 DUP1 CALLDATASIZE SUB DUP2 ADD SWAP1 PUSH2 0x225 SWAP2 SWAP1 PUSH2 0x265C JUMP JUMPDEST PUSH2 0x794 JUMP JUMPDEST PUSH1 0x40 MLOAD PUSH2 0x237 SWAP2 SWAP1 PUSH2 0x2792 JUMP JUMPDEST PUSH1 0x40 MLOAD DUP1 SWAP2 SUB SWAP1 RETURN JUMPDEST PUSH2 0x25A PUSH1 0x4 DUP1 CALLDATASIZE SUB DUP2 ADD SWAP1 PUSH2 0x255 SWAP2 SWAP1 PUSH2 0x27B4 JUMP JUMPDEST PUSH2 0x8AD JUMP JUMPDEST STOP JUMPDEST PUSH2 0x264 PUSH2 0x8C1 JUMP JUMPDEST STOP JUMPDEST PUSH2 0x26E PUSH2 0x8D5 JUMP JUMPDEST PUSH1 0x40 MLOAD PUSH2 0x27B SWAP2 SWAP1 PUSH2 0x27FD JUMP JUMPDEST PUSH1 0x40 MLOAD DUP1 SWAP2 SUB SWAP1 RETURN JUMPDEST PUSH2 0x29E PUSH1 0x4 DUP1 CALLDATASIZE SUB DUP2 ADD SWAP1 PUSH2 0x299 SWAP2 SWAP1 PUSH2 0x2844 JUMP JUMPDEST PUSH2 0x8FF JUMP JUMPDEST STOP JUMPDEST PUSH2 0x2BA PUSH1 0x4 DUP1 CALLDATASIZE SUB DUP2 ADD SWAP1 PUSH2 0x2B5 SWAP2 SWAP1 PUSH2 0x2884 JUMP JUMPDEST PUSH2 0x918 JUMP JUMPDEST PUSH1 0x40 MLOAD PUSH2 0x2C7 SWAP2 SWAP1 PUSH2 0x1FE4 JUMP JUMPDEST PUSH1 0x40 MLOAD DUP1 SWAP2 SUB SWAP1 RETURN JUMPDEST PUSH2 0x2EA PUSH1 0x4 DUP1 CALLDATASIZE SUB DUP2 ADD SWAP1 PUSH2 0x2E5 SWAP2 SWAP1 PUSH2 0x28C4 JUMP JUMPDEST PUSH2 0x9AC JUMP JUMPDEST STOP JUMPDEST PUSH2 0x306 PUSH1 0x4 DUP1 CALLDATASIZE SUB DUP2 ADD SWAP1 PUSH2 0x301 SWAP2 SWAP1 PUSH2 0x295B JUMP JUMPDEST PUSH2 0x9FF JUMP JUMPDEST STOP JUMPDEST PUSH1 0x0 DUP1 PUSH20 0xFFFFFFFFFFFFFFFFFFFFFFFFFFFFFFFFFFFFFFFF AND DUP4 PUSH20 0xFFFFFFFFFFFFFFFFFFFFFFFFFFFFFFFFFFFFFFFF AND SUB PUSH2 0x378 JUMPI PUSH1 0x40 MLOAD PUSH32 0x8C379A000000000000000000000000000000000000000000000000000000000 DUP2 MSTORE PUSH1 0x4 ADD PUSH2 0x36F SWAP1 PUSH2 0x29FA JUMP JUMPDEST PUSH1 0x40 MLOAD DUP1 SWAP2 SUB SWAP1 REVERT JUMPDEST PUSH1 0x0 DUP1 DUP4 DUP2 MSTORE PUSH1 0x20 ADD SWAP1 DUP2 MSTORE PUSH1 0x20 ADD PUSH1 0x0 KECCAK256 PUSH1 0x0 DUP5 PUSH20 0xFFFFFFFFFFFFFFFFFFFFFFFFFFFFFFFFFFFFFFFF AND PUSH20 0xFFFFFFFFFFFFFFFFFFFFFFFFFFFFFFFFFFFFFFFF AND DUP2 MSTORE PUSH1 0x20 ADD SWAP1 DUP2 MSTORE PUSH1 0x20 ADD PUSH1 0x0 KECCAK256 SLOAD SWAP1 POP SWAP3 SWAP2 POP POP JUMP JUMPDEST PUSH1 0x0 PUSH2 0x3DB DUP3 PUSH2 0xB39 JUMP JUMPDEST SWAP1 POP SWAP2 SWAP1 POP JUMP JUMPDEST PUSH1 0x60 PUSH1 0x0 PUSH1 0x4 PUSH1 0x0 DUP5 DUP2 MSTORE PUSH1 0x20 ADD SWAP1 DUP2 MSTORE PUSH1 0x20 ADD PUSH1 0x0 KECCAK256 DUP1 SLOAD PUSH2 0x404 SWAP1 PUSH2 0x2A49 JUMP JUMPDEST DUP1 PUSH1 0x1F ADD PUSH1 0x20 DUP1 SWAP2 DIV MUL PUSH1 0x20 ADD PUSH1 0x40 MLOAD SWAP1 DUP2 ADD PUSH1 0x40 MSTORE DUP1 SWAP3 SWAP2 SWAP1 DUP2 DUP2 MSTORE PUSH1 0x20 ADD DUP3 DUP1 SLOAD PUSH2 0x430 SWAP1 PUSH2 0x2A49 JUMP JUMPDEST DUP1 ISZERO PUSH2 0x47D JUMPI DUP1 PUSH1 0x1F LT PUSH2 0x452 JUMPI PUSH2 0x100 DUP1 DUP4 SLOAD DIV MUL DUP4 MSTORE SWAP2 PUSH1 0x20 ADD SWAP2 PUSH2 0x47D JUMP JUMPDEST DUP3 ADD SWAP2 SWAP1 PUSH1 0x0 MSTORE PUSH1 0x20 PUSH1 0x0 KECCAK256 SWAP1 JUMPDEST DUP2 SLOAD DUP2 MSTORE SWAP1 PUSH1 0x1 ADD SWAP1 PUSH1 0x20 ADD DUP1 DUP4 GT PUSH2 0x460 JUMPI DUP3 SWAP1 SUB PUSH1 0x1F AND DUP3 ADD SWAP2 JUMPDEST POP POP POP POP POP SWAP1 POP PUSH1 0x0 DUP2 MLOAD GT PUSH2 0x49B JUMPI PUSH2 0x496 DUP4 PUSH2 0xA82 JUMP JUMPDEST PUSH2 0x4BF JUMP JUMPDEST PUSH1 0x3 DUP2 PUSH1 0x40 MLOAD PUSH1 0x20 ADD PUSH2 0x4AF SWAP3 SWAP2 SWAP1 PUSH2 0x2B4E JUMP JUMPDEST PUSH1 0x40 MLOAD PUSH1 0x20 DUP2 DUP4 SUB SUB DUP2 MSTORE SWAP1 PUSH1 0x40 MSTORE JUMPDEST SWAP2 POP POP SWAP2 SWAP1 POP JUMP JUMPDEST PUSH1 0x0 DUP1 PUSH1 0x0 PUSH1 0x7 PUSH1 0x0 DUP7 DUP2 MSTORE PUSH1 0x20 ADD SWAP1 DUP2 MSTORE PUSH1 0x20 ADD PUSH1 0x0 KECCAK256 PUSH1 0x40 MLOAD DUP1 PUSH1 0x40 ADD PUSH1 0x40 MSTORE SWAP1 DUP2 PUSH1 0x0 DUP3 ADD PUSH1 0x0 SWAP1 SLOAD SWAP1 PUSH2 0x100 EXP SWAP1 DIV PUSH20 0xFFFFFFFFFFFFFFFFFFFFFFFFFFFFFFFFFFFFFFFF AND PUSH20 0xFFFFFFFFFFFFFFFFFFFFFFFFFFFFFFFFFFFFFFFF AND PUSH20 0xFFFFFFFFFFFFFFFFFFFFFFFFFFFFFFFFFFFFFFFF AND DUP2 MSTORE PUSH1 0x20 ADD PUSH1 0x0 DUP3 ADD PUSH1 0x14 SWAP1 SLOAD SWAP1 PUSH2 0x100 EXP SWAP1 DIV PUSH12 0xFFFFFFFFFFFFFFFFFFFFFFFF AND PUSH12 0xFFFFFFFFFFFFFFFFFFFFFFFF AND PUSH12 0xFFFFFFFFFFFFFFFFFFFFFFFF AND DUP2 MSTORE POP POP SWAP1 POP PUSH1 0x0 PUSH20 0xFFFFFFFFFFFFFFFFFFFFFFFFFFFFFFFFFFFFFFFF AND DUP2 PUSH1 0x0 ADD MLOAD PUSH20 0xFFFFFFFFFFFFFFFFFFFFFFFFFFFFFFFFFFFFFFFF AND SUB PUSH2 0x65C JUMPI PUSH1 0x6 PUSH1 0x40 MLOAD DUP1 PUSH1 0x40 ADD PUSH1 0x40 MSTORE SWAP1 DUP2 PUSH1 0x0 DUP3 ADD PUSH1 0x0 SWAP1 SLOAD SWAP1 PUSH2 0x100 EXP SWAP1 DIV PUSH20 0xFFFFFFFFFFFFFFFFFFFFFFFFFFFFFFFFFFFFFFFF AND PUSH20 0xFFFFFFFFFFFFFFFFFFFFFFFFFFFFFFFFFFFFFFFF AND PUSH20 0xFFFFFFFFFFFFFFFFFFFFFFFFFFFFFFFFFFFFFFFF AND DUP2 MSTORE PUSH1 0x20 ADD PUSH1 0x0 DUP3 ADD PUSH1 0x14 SWAP1 SLOAD SWAP1 PUSH2 0x100 EXP SWAP1 DIV PUSH12 0xFFFFFFFFFFFFFFFFFFFFFFFF AND PUSH12 0xFFFFFFFFFFFFFFFFFFFFFFFF AND PUSH12 0xFFFFFFFFFFFFFFFFFFFFFFFF AND DUP2 MSTORE POP POP SWAP1 POP JUMPDEST PUSH1 0x0 PUSH2 0x666 PUSH2 0xBB3 JUMP JUMPDEST PUSH12 0xFFFFFFFFFFFFFFFFFFFFFFFF AND DUP3 PUSH1 0x20 ADD MLOAD PUSH12 0xFFFFFFFFFFFFFFFFFFFFFFFF AND DUP7 PUSH2 0x692 SWAP2 SWAP1 PUSH2 0x2BA1 JUMP JUMPDEST PUSH2 0x69C SWAP2 SWAP1 PUSH2 0x2C12 JUMP JUMPDEST SWAP1 POP DUP2 PUSH1 0x0 ADD MLOAD DUP2 SWAP4 POP SWAP4 POP POP POP SWAP3 POP SWAP3 SWAP1 POP JUMP JUMPDEST PUSH2 0x6B9 PUSH2 0xBBD JUMP JUMPDEST PUSH1 0x0 PUSH2 0x6C4 DUP4 PUSH2 0x3E2 JUMP JUMPDEST MLOAD EQ PUSH2 0x705 JUMPI PUSH1 0x40 MLOAD PUSH32 0x8C379A000000000000000000000000000000000000000000000000000000000 DUP2 MSTORE PUSH1 0x4 ADD PUSH2 0x6FC SWAP1 PUSH2 0x2C8F JUMP JUMPDEST PUSH1 0x40 MLOAD DUP1 SWAP2 SUB SWAP1 REVERT JUMPDEST PUSH2 0x721 CALLER DUP4 PUSH1 0x1 PUSH1 0x40 MLOAD DUP1 PUSH1 0x20 ADD PUSH1 0x40 MSTORE DUP1 PUSH1 0x0 DUP2 MSTORE POP PUSH2 0xC3B JUMP JUMPDEST PUSH2 0x72B DUP3 DUP3 PUSH2 0xDEB JUMP JUMPDEST POP POP JUMP JUMPDEST DUP5 CALLER PUSH20 0xFFFFFFFFFFFFFFFFFFFFFFFFFFFFFFFFFFFFFFFF AND DUP2 PUSH20 0xFFFFFFFFFFFFFFFFFFFFFFFFFFFFFFFFFFFFFFFF AND EQ PUSH2 0x76D JUMPI PUSH2 0x76C CALLER PUSH2 0xE50 JUMP JUMPDEST JUMPDEST PUSH2 0x77A DUP7 DUP7 DUP7 DUP7 DUP7 PUSH2 0xF4D JUMP JUMPDEST POP POP POP POP POP POP JUMP JUMPDEST PUSH14 0xAAEB6D7670E522A718067333CD4E DUP2 JUMP JUMPDEST PUSH1 0x60 DUP2 MLOAD DUP4 MLOAD EQ PUSH2 0x7DA JUMPI PUSH1 0x40 MLOAD PUSH32 0x8C379A000000000000000000000000000000000000000000000000000000000 DUP2 MSTORE PUSH1 0x4 ADD PUSH2 0x7D1 SWAP1 PUSH2 0x2D21 JUMP JUMPDEST PUSH1 0x40 MLOAD DUP1 SWAP2 SUB SWAP1 REVERT JUMPDEST PUSH1 0x0 DUP4 MLOAD PUSH8 0xFFFFFFFFFFFFFFFF DUP2 GT ISZERO PUSH2 0x7F7 JUMPI PUSH2 0x7F6 PUSH2 0x2160 JUMP JUMPDEST JUMPDEST PUSH1 0x40 MLOAD SWAP1 DUP1 DUP3 MSTORE DUP1 PUSH1 0x20 MUL PUSH1 0x20 ADD DUP3 ADD PUSH1 0x40 MSTORE DUP1 ISZERO PUSH2 0x825 JUMPI DUP2 PUSH1 0x20 ADD PUSH1 0x20 DUP3 MUL DUP1 CALLDATASIZE DUP4 CALLDATACOPY DUP1 DUP3 ADD SWAP2 POP POP SWAP1 POP JUMPDEST POP SWAP1 POP PUSH1 0x0 JUMPDEST DUP5 MLOAD DUP2 LT ISZERO PUSH2 0x8A2 JUMPI PUSH2 0x872 DUP6 DUP3 DUP2 MLOAD DUP2 LT PUSH2 0x84A JUMPI PUSH2 0x849 PUSH2 0x2D41 JUMP JUMPDEST JUMPDEST PUSH1 0x20 MUL PUSH1 0x20 ADD ADD MLOAD DUP6 DUP4 DUP2 MLOAD DUP2 LT PUSH2 0x865 JUMPI PUSH2 0x864 PUSH2 0x2D41 JUMP JUMPDEST JUMPDEST PUSH1 0x20 MUL PUSH1 0x20 ADD ADD MLOAD PUSH2 0x308 JUMP JUMPDEST DUP3 DUP3 DUP2 MLOAD DUP2 LT PUSH2 0x885 JUMPI PUSH2 0x884 PUSH2 0x2D41 JUMP JUMPDEST JUMPDEST PUSH1 0x20 MUL PUSH1 0x20 ADD ADD DUP2 DUP2 MSTORE POP POP DUP1 PUSH2 0x89B SWAP1 PUSH2 0x2D70 JUMP JUMPDEST SWAP1 POP PUSH2 0x82B JUMP JUMPDEST POP DUP1 SWAP2 POP POP SWAP3 SWAP2 POP POP JUMP JUMPDEST PUSH2 0x8B5 PUSH2 0xBBD JUMP JUMPDEST PUSH2 0x8BE DUP2 PUSH2 0xFEE JUMP JUMPDEST POP JUMP JUMPDEST PUSH2 0x8C9 PUSH2 0xBBD JUMP JUMPDEST PUSH2 0x8D3 PUSH1 0x0 PUSH2 0x1001 JUMP JUMPDEST JUMP JUMPDEST PUSH1 0x0 PUSH1 0x5 PUSH1 0x0 SWAP1 SLOAD SWAP1 PUSH2 0x100 EXP SWAP1 DIV PUSH20 0xFFFFFFFFFFFFFFFFFFFFFFFFFFFFFFFFFFFFFFFF AND SWAP1 POP SWAP1 JUMP JUMPDEST DUP2 PUSH2 0x909 DUP2 PUSH2 0xE50 JUMP JUMPDEST PUSH2 0x913 DUP4 DUP4 PUSH2 0x10C7 JUMP JUMPDEST POP POP POP JUMP JUMPDEST PUSH1 0x0 PUSH1 0x1 PUSH1 0x0 DUP5 PUSH20 0xFFFFFFFFFFFFFFFFFFFFFFFFFFFFFFFFFFFFFFFF AND PUSH20 0xFFFFFFFFFFFFFFFFFFFFFFFFFFFFFFFFFFFFFFFF AND DUP2 MSTORE PUSH1 0x20 ADD SWAP1 DUP2 MSTORE PUSH1 0x20 ADD PUSH1 0x0 KECCAK256 PUSH1 0x0 DUP4 PUSH20 0xFFFFFFFFFFFFFFFFFFFFFFFFFFFFFFFFFFFFFFFF AND PUSH20 0xFFFFFFFFFFFFFFFFFFFFFFFFFFFFFFFFFFFFFFFF AND DUP2 MSTORE PUSH1 0x20 ADD SWAP1 DUP2 MSTORE PUSH1 0x20 ADD PUSH1 0x0 KECCAK256 PUSH1 0x0 SWAP1 SLOAD SWAP1 PUSH2 0x100 EXP SWAP1 DIV PUSH1 0xFF AND SWAP1 POP SWAP3 SWAP2 POP POP JUMP JUMPDEST DUP5 CALLER PUSH20 0xFFFFFFFFFFFFFFFFFFFFFFFFFFFFFFFFFFFFFFFF AND DUP2 PUSH20 0xFFFFFFFFFFFFFFFFFFFFFFFFFFFFFFFFFFFFFFFF AND EQ PUSH2 0x9EA JUMPI PUSH2 0x9E9 CALLER PUSH2 0xE50 JUMP JUMPDEST JUMPDEST PUSH2 0x9F7 DUP7 DUP7 DUP7 DUP7 DUP7 PUSH2 0x10DD JUMP JUMPDEST POP POP POP POP POP POP JUMP JUMPDEST PUSH2 0xA07 PUSH2 0xBBD JUMP JUMPDEST PUSH1 0x0 PUSH20 0xFFFFFFFFFFFFFFFFFFFFFFFFFFFFFFFFFFFFFFFF AND DUP2 PUSH20 0xFFFFFFFFFFFFFFFFFFFFFFFFFFFFFFFFFFFFFFFF AND SUB PUSH2 0xA76 JUMPI PUSH1 0x40 MLOAD PUSH32 0x8C379A000000000000000000000000000000000000000000000000000000000 DUP2 MSTORE PUSH1 0x4 ADD PUSH2 0xA6D SWAP1 PUSH2 0x2E2A JUMP JUMPDEST PUSH1 0x40 MLOAD DUP1 SWAP2 SUB SWAP1 REVERT JUMPDEST PUSH2 0xA7F DUP2 PUSH2 0x1001 JUMP JUMPDEST POP JUMP JUMPDEST PUSH1 0x60 PUSH1 0x2 DUP1 SLOAD PUSH2 0xA91 SWAP1 PUSH2 0x2A49 JUMP JUMPDEST DUP1 PUSH1 0x1F ADD PUSH1 0x20 DUP1 SWAP2 DIV MUL PUSH1 0x20 ADD PUSH1 0x40 MLOAD SWAP1 DUP2 ADD PUSH1 0x40 MSTORE DUP1 SWAP3 SWAP2 SWAP1 DUP2 DUP2 MSTORE PUSH1 0x20 ADD DUP3 DUP1 SLOAD PUSH2 0xABD SWAP1 PUSH2 0x2A49 JUMP JUMPDEST DUP1 ISZERO PUSH2 0xB0A JUMPI DUP1 PUSH1 0x1F LT PUSH2 0xADF JUMPI PUSH2 0x100 DUP1 DUP4 SLOAD DIV MUL DUP4 MSTORE SWAP2 PUSH1 0x20 ADD SWAP2 PUSH2 0xB0A JUMP JUMPDEST DUP3 ADD SWAP2 SWAP1 PUSH1 0x0 MSTORE PUSH1 0x20 PUSH1 0x0 KECCAK256 SWAP1 JUMPDEST DUP2 SLOAD DUP2 MSTORE SWAP1 PUSH1 0x1 ADD SWAP1 PUSH1 0x20 ADD DUP1 DUP4 GT PUSH2 0xAED JUMPI DUP3 SWAP1 SUB PUSH1 0x1F AND DUP3 ADD SWAP2 JUMPDEST POP POP POP POP POP SWAP1 POP SWAP2 SWAP1 POP JUMP JUMPDEST PUSH1 0x0 DUP1 DUP3 PUSH20 0xFFFFFFFFFFFFFFFFFFFFFFFFFFFFFFFFFFFFFFFF AND EXTCODESIZE GT SWAP1 POP SWAP2 SWAP1 POP JUMP JUMPDEST PUSH1 0x0 PUSH32 0x2A55205A00000000000000000000000000000000000000000000000000000000 PUSH28 0xFFFFFFFFFFFFFFFFFFFFFFFFFFFFFFFFFFFFFFFFFFFFFFFFFFFFFFFF NOT AND DUP3 PUSH28 0xFFFFFFFFFFFFFFFFFFFFFFFFFFFFFFFFFFFFFFFFFFFFFFFFFFFFFFFF NOT AND EQ DUP1 PUSH2 0xBAC JUMPI POP PUSH2 0xBAB DUP3 PUSH2 0x117E JUMP JUMPDEST JUMPDEST SWAP1 POP SWAP2 SWAP1 POP JUMP JUMPDEST PUSH1 0x0 PUSH2 0x2710 SWAP1 POP SWAP1 JUMP JUMPDEST PUSH2 0xBC5 PUSH2 0x1260 JUMP JUMPDEST PUSH20 0xFFFFFFFFFFFFFFFFFFFFFFFFFFFFFFFFFFFFFFFF AND PUSH2 0xBE3 PUSH2 0x8D5 JUMP JUMPDEST PUSH20 0xFFFFFFFFFFFFFFFFFFFFFFFFFFFFFFFFFFFFFFFF AND EQ PUSH2 0xC39 JUMPI PUSH1 0x40 MLOAD PUSH32 0x8C379A000000000000000000000000000000000000000000000000000000000 DUP2 MSTORE PUSH1 0x4 ADD PUSH2 0xC30 SWAP1 PUSH2 0x2E96 JUMP JUMPDEST PUSH1 0x40 MLOAD DUP1 SWAP2 SUB SWAP1 REVERT JUMPDEST JUMP JUMPDEST PUSH1 0x0 PUSH20 0xFFFFFFFFFFFFFFFFFFFFFFFFFFFFFFFFFFFFFFFF AND DUP5 PUSH20 0xFFFFFFFFFFFFFFFFFFFFFFFFFFFFFFFFFFFFFFFF AND SUB PUSH2 0xCAA JUMPI PUSH1 0x40 MLOAD PUSH32 0x8C379A000000000000000000000000000000000000000000000000000000000 DUP2 MSTORE PUSH1 0x4 ADD PUSH2 0xCA1 SWAP1 PUSH2 0x2F28 JUMP JUMPDEST PUSH1 0x40 MLOAD DUP1 SWAP2 SUB SWAP1 REVERT JUMPDEST PUSH1 0x0 PUSH2 0xCB4 PUSH2 0x1260 JUMP JUMPDEST SWAP1 POP PUSH1 0x0 PUSH2 0xCC1 DUP6 PUSH2 0x1268 JUMP JUMPDEST SWAP1 POP PUSH1 0x0 PUSH2 0xCCE DUP6 PUSH2 0x1268 JUMP JUMPDEST SWAP1 POP PUSH2 0xCDF DUP4 PUSH1 0x0 DUP10 DUP6 DUP6 DUP10 PUSH2 0x12E2 JUMP JUMPDEST DUP5 PUSH1 0x0 DUP1 DUP9 DUP2 MSTORE PUSH1 0x20 ADD SWAP1 DUP2 MSTORE PUSH1 0x20 ADD PUSH1 0x0 KECCAK256 PUSH1 0x0 DUP10 PUSH20 0xFFFFFFFFFFFFFFFFFFFFFFFFFFFFFFFFFFFFFFFF AND PUSH20 0xFFFFFFFFFFFFFFFFFFFFFFFFFFFFFFFFFFFFFFFF AND DUP2 MSTORE PUSH1 0x20 ADD SWAP1 DUP2 MSTORE PUSH1 0x20 ADD PUSH1 0x0 KECCAK256 PUSH1 0x0 DUP3 DUP3 SLOAD PUSH2 0xD3E SWAP2 SWAP1 PUSH2 0x2F48 JUMP JUMPDEST SWAP3 POP POP DUP2 SWAP1 SSTORE POP DUP7 PUSH20 0xFFFFFFFFFFFFFFFFFFFFFFFFFFFFFFFFFFFFFFFF AND PUSH1 0x0 PUSH20 0xFFFFFFFFFFFFFFFFFFFFFFFFFFFFFFFFFFFFFFFF AND DUP5 PUSH20 0xFFFFFFFFFFFFFFFFFFFFFFFFFFFFFFFFFFFFFFFF AND PUSH32 0xC3D58168C5AE7397731D063D5BBF3D657854427343F4C083240F7AACAA2D0F62 DUP10 DUP10 PUSH1 0x40 MLOAD PUSH2 0xDBC SWAP3 SWAP2 SWAP1 PUSH2 0x2F7C JUMP JUMPDEST PUSH1 0x40 MLOAD DUP1 SWAP2 SUB SWAP1 LOG4 PUSH2 0xDD3 DUP4 PUSH1 0x0 DUP10 DUP6 DUP6 DUP10 PUSH2 0x12EA JUMP JUMPDEST PUSH2 0xDE2 DUP4 PUSH1 0x0 DUP10 DUP10 DUP10 DUP10 PUSH2 0x12F2 JUMP JUMPDEST POP POP POP POP POP POP POP JUMP JUMPDEST DUP1 PUSH1 0x4 PUSH1 0x0 DUP5 DUP2 MSTORE PUSH1 0x20 ADD SWAP1 DUP2 MSTORE PUSH1 0x20 ADD PUSH1 0x0 KECCAK256 SWAP1 DUP2 PUSH2 0xE0B SWAP2 SWAP1 PUSH2 0x3132 JUMP JUMPDEST POP DUP2 PUSH32 0x6BB7FF708619BA0610CBA295A58592E0451DEE2622938C8755667688DAF3529B PUSH2 0xE37 DUP5 PUSH2 0x3E2 JUMP JUMPDEST PUSH1 0x40 MLOAD PUSH2 0xE44 SWAP2 SWAP1 PUSH2 0x20BC JUMP JUMPDEST PUSH1 0x40 MLOAD DUP1 SWAP2 SUB SWAP1 LOG2 POP POP JUMP JUMPDEST PUSH1 0x0 PUSH14 0xAAEB6D7670E522A718067333CD4E PUSH20 0xFFFFFFFFFFFFFFFFFFFFFFFFFFFFFFFFFFFFFFFF AND EXTCODESIZE GT ISZERO PUSH2 0xF4A JUMPI PUSH14 0xAAEB6D7670E522A718067333CD4E PUSH20 0xFFFFFFFFFFFFFFFFFFFFFFFFFFFFFFFFFFFFFFFF AND PUSH4 0xC6171134 ADDRESS DUP4 PUSH1 0x40 MLOAD DUP4 PUSH4 0xFFFFFFFF AND PUSH1 0xE0 SHL DUP2 MSTORE PUSH1 0x4 ADD PUSH2 0xEC7 SWAP3 SWAP2 SWAP1 PUSH2 0x3204 JUMP JUMPDEST PUSH1 0x20 PUSH1 0x40 MLOAD DUP1 DUP4 SUB DUP2 DUP7 GAS STATICCALL ISZERO DUP1 ISZERO PUSH2 0xEE4 JUMPI RETURNDATASIZE PUSH1 0x0 DUP1 RETURNDATACOPY RETURNDATASIZE PUSH1 0x0 REVERT JUMPDEST POP POP POP POP PUSH1 0x40 MLOAD RETURNDATASIZE PUSH1 0x1F NOT PUSH1 0x1F DUP3 ADD AND DUP3 ADD DUP1 PUSH1 0x40 MSTORE POP DUP2 ADD SWAP1 PUSH2 0xF08 SWAP2 SWAP1 PUSH2 0x3242 JUMP JUMPDEST PUSH2 0xF49 JUMPI DUP1 PUSH1 0x40 MLOAD PUSH32 0xEDE71DCC00000000000000000000000000000000000000000000000000000000 DUP2 MSTORE PUSH1 0x4 ADD PUSH2 0xF40 SWAP2 SWAP1 PUSH2 0x27FD JUMP JUMPDEST PUSH1 0x40 MLOAD DUP1 SWAP2 SUB SWAP1 REVERT JUMPDEST JUMPDEST POP JUMP JUMPDEST PUSH2 0xF55 PUSH2 0x1260 JUMP JUMPDEST PUSH20 0xFFFFFFFFFFFFFFFFFFFFFFFFFFFFFFFFFFFFFFFF AND DUP6 PUSH20 0xFFFFFFFFFFFFFFFFFFFFFFFFFFFFFFFFFFFFFFFF AND EQ DUP1 PUSH2 0xF9B JUMPI POP PUSH2 0xF9A DUP6 PUSH2 0xF95 PUSH2 0x1260 JUMP JUMPDEST PUSH2 0x918 JUMP JUMPDEST JUMPDEST PUSH2 0xFDA JUMPI PUSH1 0x40 MLOAD PUSH32 0x8C379A000000000000000000000000000000000000000000000000000000000 DUP2 MSTORE PUSH1 0x4 ADD PUSH2 0xFD1 SWAP1 PUSH2 0x32E1 JUMP JUMPDEST PUSH1 0x40 MLOAD DUP1 SWAP2 SUB SWAP1 REVERT JUMPDEST PUSH2 0xFE7 DUP6 DUP6 DUP6 DUP6 DUP6 PUSH2 0x14C9 JUMP JUMPDEST POP POP POP POP POP JUMP JUMPDEST DUP1 PUSH1 0x3 SWAP1 DUP2 PUSH2 0xFFD SWAP2 SWAP1 PUSH2 0x3132 JUMP JUMPDEST POP POP JUMP JUMPDEST PUSH1 0x0 PUSH1 0x5 PUSH1 0x0 SWAP1 SLOAD SWAP1 PUSH2 0x100 EXP SWAP1 DIV PUSH20 0xFFFFFFFFFFFFFFFFFFFFFFFFFFFFFFFFFFFFFFFF AND SWAP1 POP DUP2 PUSH1 0x5 PUSH1 0x0 PUSH2 0x100 EXP DUP2 SLOAD DUP2 PUSH20 0xFFFFFFFFFFFFFFFFFFFFFFFFFFFFFFFFFFFFFFFF MUL NOT AND SWAP1 DUP4 PUSH20 0xFFFFFFFFFFFFFFFFFFFFFFFFFFFFFFFFFFFFFFFF AND MUL OR SWAP1 SSTORE POP DUP2 PUSH20 0xFFFFFFFFFFFFFFFFFFFFFFFFFFFFFFFFFFFFFFFF AND DUP2 PUSH20 0xFFFFFFFFFFFFFFFFFFFFFFFFFFFFFFFFFFFFFFFF AND PUSH32 0x8BE0079C531659141344CD1FD0A4F28419497F9722A3DAAFE3B4186F6B6457E0 PUSH1 0x40 MLOAD PUSH1 0x40 MLOAD DUP1 SWAP2 SUB SWAP1 LOG3 POP POP JUMP JUMPDEST PUSH2 0x10D9 PUSH2 0x10D2 PUSH2 0x1260 JUMP JUMPDEST DUP4 DUP4 PUSH2 0x17EA JUMP JUMPDEST POP POP JUMP JUMPDEST PUSH2 0x10E5 PUSH2 0x1260 JUMP JUMPDEST PUSH20 0xFFFFFFFFFFFFFFFFFFFFFFFFFFFFFFFFFFFFFFFF AND DUP6 PUSH20 0xFFFFFFFFFFFFFFFFFFFFFFFFFFFFFFFFFFFFFFFF AND EQ DUP1 PUSH2 0x112B JUMPI POP PUSH2 0x112A DUP6 PUSH2 0x1125 PUSH2 0x1260 JUMP JUMPDEST PUSH2 0x918 JUMP JUMPDEST JUMPDEST PUSH2 0x116A JUMPI PUSH1 0x40 MLOAD PUSH32 0x8C379A000000000000000000000000000000000000000000000000000000000 DUP2 MSTORE PUSH1 0x4 ADD PUSH2 0x1161 SWAP1 PUSH2 0x32E1 JUMP JUMPDEST PUSH1 0x40 MLOAD DUP1 SWAP2 SUB SWAP1 REVERT JUMPDEST PUSH2 0x1177 DUP6 DUP6 DUP6 DUP6 DUP6 PUSH2 0x1956 JUMP JUMPDEST POP POP POP POP POP JUMP JUMPDEST PUSH1 0x0 PUSH32 0xD9B67A2600000000000000000000000000000000000000000000000000000000 PUSH28 0xFFFFFFFFFFFFFFFFFFFFFFFFFFFFFFFFFFFFFFFFFFFFFFFFFFFFFFFF NOT AND DUP3 PUSH28 0xFFFFFFFFFFFFFFFFFFFFFFFFFFFFFFFFFFFFFFFFFFFFFFFFFFFFFFFF NOT AND EQ DUP1 PUSH2 0x1249 JUMPI POP PUSH32 0xE89341C00000000000000000000000000000000000000000000000000000000 PUSH28 0xFFFFFFFFFFFFFFFFFFFFFFFFFFFFFFFFFFFFFFFFFFFFFFFFFFFFFFFF NOT AND DUP3 PUSH28 0xFFFFFFFFFFFFFFFFFFFFFFFFFFFFFFFFFFFFFFFFFFFFFFFFFFFFFFFF NOT AND EQ JUMPDEST DUP1 PUSH2 0x1259 JUMPI POP PUSH2 0x1258 DUP3 PUSH2 0x1BF1 JUMP JUMPDEST JUMPDEST SWAP1 POP SWAP2 SWAP1 POP JUMP JUMPDEST PUSH1 0x0 CALLER SWAP1 POP SWAP1 JUMP JUMPDEST PUSH1 0x60 PUSH1 0x0 PUSH1 0x1 PUSH8 0xFFFFFFFFFFFFFFFF DUP2 GT ISZERO PUSH2 0x1287 JUMPI PUSH2 0x1286 PUSH2 0x2160 JUMP JUMPDEST JUMPDEST PUSH1 0x40 MLOAD SWAP1 DUP1 DUP3 MSTORE DUP1 PUSH1 0x20 MUL PUSH1 0x20 ADD DUP3 ADD PUSH1 0x40 MSTORE DUP1 ISZERO PUSH2 0x12B5 JUMPI DUP2 PUSH1 0x20 ADD PUSH1 0x20 DUP3 MUL DUP1 CALLDATASIZE DUP4 CALLDATACOPY DUP1 DUP3 ADD SWAP2 POP POP SWAP1 POP JUMPDEST POP SWAP1 POP DUP3 DUP2 PUSH1 0x0 DUP2 MLOAD DUP2 LT PUSH2 0x12CD JUMPI PUSH2 0x12CC PUSH2 0x2D41 JUMP JUMPDEST JUMPDEST PUSH1 0x20 MUL PUSH1 0x20 ADD ADD DUP2 DUP2 MSTORE POP POP DUP1 SWAP2 POP POP SWAP2 SWAP1 POP JUMP JUMPDEST POP POP POP POP POP POP JUMP JUMPDEST POP POP POP POP POP POP JUMP JUMPDEST PUSH2 0x1311 DUP5 PUSH20 0xFFFFFFFFFFFFFFFFFFFFFFFFFFFFFFFFFFFFFFFF AND PUSH2 0xB16 JUMP JUMPDEST ISZERO PUSH2 0x14C1 JUMPI DUP4 PUSH20 0xFFFFFFFFFFFFFFFFFFFFFFFFFFFFFFFFFFFFFFFF AND PUSH4 0xF23A6E61 DUP8 DUP8 DUP7 DUP7 DUP7 PUSH1 0x40 MLOAD DUP7 PUSH4 0xFFFFFFFF AND PUSH1 0xE0 SHL DUP2 MSTORE PUSH1 0x4 ADD PUSH2 0x1357 SWAP6 SWAP5 SWAP4 SWAP3 SWAP2 SWAP1 PUSH2 0x3356 JUMP JUMPDEST PUSH1 0x20 PUSH1 0x40 MLOAD DUP1 DUP4 SUB DUP2 PUSH1 0x0 DUP8 GAS CALL SWAP3 POP POP POP DUP1 ISZERO PUSH2 0x1393 JUMPI POP PUSH1 0x40 MLOAD RETURNDATASIZE PUSH1 0x1F NOT PUSH1 0x1F DUP3 ADD AND DUP3 ADD DUP1 PUSH1 0x40 MSTORE POP DUP2 ADD SWAP1 PUSH2 0x1390 SWAP2 SWAP1 PUSH2 0x33C5 JUMP JUMPDEST PUSH1 0x1 JUMPDEST PUSH2 0x1438 JUMPI PUSH2 0x139F PUSH2 0x33FF JUMP JUMPDEST DUP1 PUSH4 0x8C379A0 SUB PUSH2 0x13FB JUMPI POP PUSH2 0x13B3 PUSH2 0x3421 JUMP JUMPDEST DUP1 PUSH2 0x13BE JUMPI POP PUSH2 0x13FD JUMP JUMPDEST DUP1 PUSH1 0x40 MLOAD PUSH32 0x8C379A000000000000000000000000000000000000000000000000000000000 DUP2 MSTORE PUSH1 0x4 ADD PUSH2 0x13F2 SWAP2 SWAP1 PUSH2 0x20BC JUMP JUMPDEST PUSH1 0x40 MLOAD DUP1 SWAP2 SUB SWAP1 REVERT JUMPDEST POP JUMPDEST PUSH1 0x40 MLOAD PUSH32 0x8C379A000000000000000000000000000000000000000000000000000000000 DUP2 MSTORE PUSH1 0x4 ADD PUSH2 0x142F SWAP1 PUSH2 0x3523 JUMP JUMPDEST PUSH1 0x40 MLOAD DUP1 SWAP2 SUB SWAP1 REVERT JUMPDEST PUSH4 0xF23A6E61 PUSH1 0xE0 SHL PUSH28 0xFFFFFFFFFFFFFFFFFFFFFFFFFFFFFFFFFFFFFFFFFFFFFFFFFFFFFFFF NOT AND DUP2 PUSH28 0xFFFFFFFFFFFFFFFFFFFFFFFFFFFFFFFFFFFFFFFFFFFFFFFFFFFFFFFF NOT AND EQ PUSH2 0x14BF JUMPI PUSH1 0x40 MLOAD PUSH32 0x8C379A000000000000000000000000000000000000000000000000000000000 DUP2 MSTORE PUSH1 0x4 ADD PUSH2 0x14B6 SWAP1 PUSH2 0x35B5 JUMP JUMPDEST PUSH1 0x40 MLOAD DUP1 SWAP2 SUB SWAP1 REVERT JUMPDEST POP JUMPDEST POP POP POP POP POP POP JUMP JUMPDEST DUP2 MLOAD DUP4 MLOAD EQ PUSH2 0x150D JUMPI PUSH1 0x40 MLOAD PUSH32 0x8C379A000000000000000000000000000000000000000000000000000000000 DUP2 MSTORE PUSH1 0x4 ADD PUSH2 0x1504 SWAP1 PUSH2 0x3647 JUMP JUMPDEST PUSH1 0x40 MLOAD DUP1 SWAP2 SUB SWAP1 REVERT JUMPDEST PUSH1 0x0 PUSH20 0xFFFFFFFFFFFFFFFFFFFFFFFFFFFFFFFFFFFFFFFF AND DUP5 PUSH20 0xFFFFFFFFFFFFFFFFFFFFFFFFFFFFFFFFFFFFFFFF AND SUB PUSH2 0x157C JUMPI PUSH1 0x40 MLOAD PUSH32 0x8C379A000000000000000000000000000000000000000000000000000000000 DUP2 MSTORE PUSH1 0x4 ADD PUSH2 0x1573 SWAP1 PUSH2 0x36D9 JUMP JUMPDEST PUSH1 0x40 MLOAD DUP1 SWAP2 SUB SWAP1 REVERT JUMPDEST PUSH1 0x0 PUSH2 0x1586 PUSH2 0x1260 JUMP JUMPDEST SWAP1 POP PUSH2 0x1596 DUP2 DUP8 DUP8 DUP8 DUP8 DUP8 PUSH2 0x12E2 JUMP JUMPDEST PUSH1 0x0 JUMPDEST DUP5 MLOAD DUP2 LT ISZERO PUSH2 0x1747 JUMPI PUSH1 0x0 DUP6 DUP3 DUP2 MLOAD DUP2 LT PUSH2 0x15B7 JUMPI PUSH2 0x15B6 PUSH2 0x2D41 JUMP JUMPDEST JUMPDEST PUSH1 0x20 MUL PUSH1 0x20 ADD ADD MLOAD SWAP1 POP PUSH1 0x0 DUP6 DUP4 DUP2 MLOAD DUP2 LT PUSH2 0x15D6 JUMPI PUSH2 0x15D5 PUSH2 0x2D41 JUMP JUMPDEST JUMPDEST PUSH1 0x20 MUL PUSH1 0x20 ADD ADD MLOAD SWAP1 POP PUSH1 0x0 DUP1 PUSH1 0x0 DUP5 DUP2 MSTORE PUSH1 0x20 ADD SWAP1 DUP2 MSTORE PUSH1 0x20 ADD PUSH1 0x0 KECCAK256 PUSH1 0x0 DUP12 PUSH20 0xFFFFFFFFFFFFFFFFFFFFFFFFFFFFFFFFFFFFFFFF AND PUSH20 0xFFFFFFFFFFFFFFFFFFFFFFFFFFFFFFFFFFFFFFFF AND DUP2 MSTORE PUSH1 0x20 ADD SWAP1 DUP2 MSTORE PUSH1 0x20 ADD PUSH1 0x0 KECCAK256 SLOAD SWAP1 POP DUP2 DUP2 LT ISZERO PUSH2 0x1677 JUMPI PUSH1 0x40 MLOAD PUSH32 0x8C379A000000000000000000000000000000000000000000000000000000000 DUP2 MSTORE PUSH1 0x4 ADD PUSH2 0x166E SWAP1 PUSH2 0x376B JUMP JUMPDEST PUSH1 0x40 MLOAD DUP1 SWAP2 SUB SWAP1 REVERT JUMPDEST DUP2 DUP2 SUB PUSH1 0x0 DUP1 DUP6 DUP2 MSTORE PUSH1 0x20 ADD SWAP1 DUP2 MSTORE PUSH1 0x20 ADD PUSH1 0x0 KECCAK256 PUSH1 0x0 DUP13 PUSH20 0xFFFFFFFFFFFFFFFFFFFFFFFFFFFFFFFFFFFFFFFF AND PUSH20 0xFFFFFFFFFFFFFFFFFFFFFFFFFFFFFFFFFFFFFFFF AND DUP2 MSTORE PUSH1 0x20 ADD SWAP1 DUP2 MSTORE PUSH1 0x20 ADD PUSH1 0x0 KECCAK256 DUP2 SWAP1 SSTORE POP DUP2 PUSH1 0x0 DUP1 DUP6 DUP2 MSTORE PUSH1 0x20 ADD SWAP1 DUP2 MSTORE PUSH1 0x20 ADD PUSH1 0x0 KECCAK256 PUSH1 0x0 DUP12 PUSH20 0xFFFFFFFFFFFFFFFFFFFFFFFFFFFFFFFFFFFFFFFF AND PUSH20 0xFFFFFFFFFFFFFFFFFFFFFFFFFFFFFFFFFFFFFFFF AND DUP2 MSTORE PUSH1 0x20 ADD SWAP1 DUP2 MSTORE PUSH1 0x20 ADD PUSH1 0x0 KECCAK256 PUSH1 0x0 DUP3 DUP3 SLOAD PUSH2 0x172C SWAP2 SWAP1 PUSH2 0x2F48 JUMP JUMPDEST SWAP3 POP POP DUP2 SWAP1 SSTORE POP POP POP POP DUP1 PUSH2 0x1740 SWAP1 PUSH2 0x2D70 JUMP JUMPDEST SWAP1 POP PUSH2 0x1599 JUMP JUMPDEST POP DUP5 PUSH20 0xFFFFFFFFFFFFFFFFFFFFFFFFFFFFFFFFFFFFFFFF AND DUP7 PUSH20 0xFFFFFFFFFFFFFFFFFFFFFFFFFFFFFFFFFFFFFFFF AND DUP3 PUSH20 0xFFFFFFFFFFFFFFFFFFFFFFFFFFFFFFFFFFFFFFFF AND PUSH32 0x4A39DC06D4C0DBC64B70AF90FD698A233A518AA5D07E595D983B8C0526C8F7FB DUP8 DUP8 PUSH1 0x40 MLOAD PUSH2 0x17BE SWAP3 SWAP2 SWAP1 PUSH2 0x378B JUMP JUMPDEST PUSH1 0x40 MLOAD DUP1 SWAP2 SUB SWAP1 LOG4 PUSH2 0x17D4 DUP2 DUP8 DUP8 DUP8 DUP8 DUP8 PUSH2 0x12EA JUMP JUMPDEST PUSH2 0x17E2 DUP2 DUP8 DUP8 DUP8 DUP8 DUP8 PUSH2 0x1C5B JUMP JUMPDEST POP POP POP POP POP POP JUMP JUMPDEST DUP2 PUSH20 0xFFFFFFFFFFFFFFFFFFFFFFFFFFFFFFFFFFFFFFFF AND DUP4 PUSH20 0xFFFFFFFFFFFFFFFFFFFFFFFFFFFFFFFFFFFFFFFF AND SUB PUSH2 0x1858 JUMPI PUSH1 0x40 MLOAD PUSH32 0x8C379A000000000000000000000000000000000000000000000000000000000 DUP2 MSTORE PUSH1 0x4 ADD PUSH2 0x184F SWAP1 PUSH2 0x3834 JUMP JUMPDEST PUSH1 0x40 MLOAD DUP1 SWAP2 SUB SWAP1 REVERT JUMPDEST DUP1 PUSH1 0x1 PUSH1 0x0 DUP6 PUSH20 0xFFFFFFFFFFFFFFFFFFFFFFFFFFFFFFFFFFFFFFFF AND PUSH20 0xFFFFFFFFFFFFFFFFFFFFFFFFFFFFFFFFFFFFFFFF AND DUP2 MSTORE PUSH1 0x20 ADD SWAP1 DUP2 MSTORE PUSH1 0x20 ADD PUSH1 0x0 KECCAK256 PUSH1 0x0 DUP5 PUSH20 0xFFFFFFFFFFFFFFFFFFFFFFFFFFFFFFFFFFFFFFFF AND PUSH20 0xFFFFFFFFFFFFFFFFFFFFFFFFFFFFFFFFFFFFFFFF AND DUP2 MSTORE PUSH1 0x20 ADD SWAP1 DUP2 MSTORE PUSH1 0x20 ADD PUSH1 0x0 KECCAK256 PUSH1 0x0 PUSH2 0x100 EXP DUP2 SLOAD DUP2 PUSH1 0xFF MUL NOT AND SWAP1 DUP4 ISZERO ISZERO MUL OR SWAP1 SSTORE POP DUP2 PUSH20 0xFFFFFFFFFFFFFFFFFFFFFFFFFFFFFFFFFFFFFFFF AND DUP4 PUSH20 0xFFFFFFFFFFFFFFFFFFFFFFFFFFFFFFFFFFFFFFFF AND PUSH32 0x17307EAB39AB6107E8899845AD3D59BD9653F200F220920489CA2B5937696C31 DUP4 PUSH1 0x40 MLOAD PUSH2 0x1949 SWAP2 SWAP1 PUSH2 0x1FE4 JUMP JUMPDEST PUSH1 0x40 MLOAD DUP1 SWAP2 SUB SWAP1 LOG3 POP POP POP JUMP JUMPDEST PUSH1 0x0 PUSH20 0xFFFFFFFFFFFFFFFFFFFFFFFFFFFFFFFFFFFFFFFF AND DUP5 PUSH20 0xFFFFFFFFFFFFFFFFFFFFFFFFFFFFFFFFFFFFFFFF AND SUB PUSH2 0x19C5 JUMPI PUSH1 0x40 MLOAD PUSH32 0x8C379A000000000000000000000000000000000000000000000000000000000 DUP2 MSTORE PUSH1 0x4 ADD PUSH2 0x19BC SWAP1 PUSH2 0x36D9 JUMP JUMPDEST PUSH1 0x40 MLOAD DUP1 SWAP2 SUB SWAP1 REVERT JUMPDEST PUSH1 0x0 PUSH2 0x19CF PUSH2 0x1260 JUMP JUMPDEST SWAP1 POP PUSH1 0x0 PUSH2 0x19DC DUP6 PUSH2 0x1268 JUMP JUMPDEST SWAP1 POP PUSH1 0x0 PUSH2 0x19E9 DUP6 PUSH2 0x1268 JUMP JUMPDEST SWAP1 POP PUSH2 0x19F9 DUP4 DUP10 DUP10 DUP6 DUP6 DUP10 PUSH2 0x12E2 JUMP JUMPDEST PUSH1 0x0 DUP1 PUSH1 0x0 DUP9 DUP2 MSTORE PUSH1 0x20 ADD SWAP1 DUP2 MSTORE PUSH1 0x20 ADD PUSH1 0x0 KECCAK256 PUSH1 0x0 DUP11 PUSH20 0xFFFFFFFFFFFFFFFFFFFFFFFFFFFFFFFFFFFFFFFF AND PUSH20 0xFFFFFFFFFFFFFFFFFFFFFFFFFFFFFFFFFFFFFFFF AND DUP2 MSTORE PUSH1 0x20 ADD SWAP1 DUP2 MSTORE PUSH1 0x20 ADD PUSH1 0x0 KECCAK256 SLOAD SWAP1 POP DUP6 DUP2 LT ISZERO PUSH2 0x1A90 JUMPI PUSH1 0x40 MLOAD PUSH32 0x8C379A000000000000000000000000000000000000000000000000000000000 DUP2 MSTORE PUSH1 0x4 ADD PUSH2 0x1A87 SWAP1 PUSH2 0x376B JUMP JUMPDEST PUSH1 0x40 MLOAD DUP1 SWAP2 SUB SWAP1 REVERT JUMPDEST DUP6 DUP2 SUB PUSH1 0x0 DUP1 DUP10 DUP2 MSTORE PUSH1 0x20 ADD SWAP1 DUP2 MSTORE PUSH1 0x20 ADD PUSH1 0x0 KECCAK256 PUSH1 0x0 DUP12 PUSH20 0xFFFFFFFFFFFFFFFFFFFFFFFFFFFFFFFFFFFFFFFF AND PUSH20 0xFFFFFFFFFFFFFFFFFFFFFFFFFFFFFFFFFFFFFFFF AND DUP2 MSTORE PUSH1 0x20 ADD SWAP1 DUP2 MSTORE PUSH1 0x20 ADD PUSH1 0x0 KECCAK256 DUP2 SWAP1 SSTORE POP DUP6 PUSH1 0x0 DUP1 DUP10 DUP2 MSTORE PUSH1 0x20 ADD SWAP1 DUP2 MSTORE PUSH1 0x20 ADD PUSH1 0x0 KECCAK256 PUSH1 0x0 DUP11 PUSH20 0xFFFFFFFFFFFFFFFFFFFFFFFFFFFFFFFFFFFFFFFF AND PUSH20 0xFFFFFFFFFFFFFFFFFFFFFFFFFFFFFFFFFFFFFFFF AND DUP2 MSTORE PUSH1 0x20 ADD SWAP1 DUP2 MSTORE PUSH1 0x20 ADD PUSH1 0x0 KECCAK256 PUSH1 0x0 DUP3 DUP3 SLOAD PUSH2 0x1B45 SWAP2 SWAP1 PUSH2 0x2F48 JUMP JUMPDEST SWAP3 POP POP DUP2 SWAP1 SSTORE POP DUP8 PUSH20 0xFFFFFFFFFFFFFFFFFFFFFFFFFFFFFFFFFFFFFFFF AND DUP10 PUSH20 0xFFFFFFFFFFFFFFFFFFFFFFFFFFFFFFFFFFFFFFFF AND DUP6 PUSH20 0xFFFFFFFFFFFFFFFFFFFFFFFFFFFFFFFFFFFFFFFF AND PUSH32 0xC3D58168C5AE7397731D063D5BBF3D657854427343F4C083240F7AACAA2D0F62 DUP11 DUP11 PUSH1 0x40 MLOAD PUSH2 0x1BC2 SWAP3 SWAP2 SWAP1 PUSH2 0x2F7C JUMP JUMPDEST PUSH1 0x40 MLOAD DUP1 SWAP2 SUB SWAP1 LOG4 PUSH2 0x1BD8 DUP5 DUP11 DUP11 DUP7 DUP7 DUP11 PUSH2 0x12EA JUMP JUMPDEST PUSH2 0x1BE6 DUP5 DUP11 DUP11 DUP11 DUP11 DUP11 PUSH2 0x12F2 JUMP JUMPDEST POP POP POP POP POP POP POP POP POP JUMP JUMPDEST PUSH1 0x0 PUSH32 0x1FFC9A700000000000000000000000000000000000000000000000000000000 PUSH28 0xFFFFFFFFFFFFFFFFFFFFFFFFFFFFFFFFFFFFFFFFFFFFFFFFFFFFFFFF NOT AND DUP3 PUSH28 0xFFFFFFFFFFFFFFFFFFFFFFFFFFFFFFFFFFFFFFFFFFFFFFFFFFFFFFFF NOT AND EQ SWAP1 POP SWAP2 SWAP1 POP JUMP JUMPDEST PUSH2 0x1C7A DUP5 PUSH20 0xFFFFFFFFFFFFFFFFFFFFFFFFFFFFFFFFFFFFFFFF AND PUSH2 0xB16 JUMP JUMPDEST ISZERO PUSH2 0x1E2A JUMPI DUP4 PUSH20 0xFFFFFFFFFFFFFFFFFFFFFFFFFFFFFFFFFFFFFFFF AND PUSH4 0xBC197C81 DUP8 DUP8 DUP7 DUP7 DUP7 PUSH1 0x40 MLOAD DUP7 PUSH4 0xFFFFFFFF AND PUSH1 0xE0 SHL DUP2 MSTORE PUSH1 0x4 ADD PUSH2 0x1CC0 SWAP6 SWAP5 SWAP4 SWAP3 SWAP2 SWAP1 PUSH2 0x3854 JUMP JUMPDEST PUSH1 0x20 PUSH1 0x40 MLOAD DUP1 DUP4 SUB DUP2 PUSH1 0x0 DUP8 GAS CALL SWAP3 POP POP POP DUP1 ISZERO PUSH2 0x1CFC JUMPI POP PUSH1 0x40 MLOAD RETURNDATASIZE PUSH1 0x1F NOT PUSH1 0x1F DUP3 ADD AND DUP3 ADD DUP1 PUSH1 0x40 MSTORE POP DUP2 ADD SWAP1 PUSH2 0x1CF9 SWAP2 SWAP1 PUSH2 0x33C5 JUMP JUMPDEST PUSH1 0x1 JUMPDEST PUSH2 0x1DA1 JUMPI PUSH2 0x1D08 PUSH2 0x33FF JUMP JUMPDEST DUP1 PUSH4 0x8C379A0 SUB PUSH2 0x1D64 JUMPI POP PUSH2 0x1D1C PUSH2 0x3421 JUMP JUMPDEST DUP1 PUSH2 0x1D27 JUMPI POP PUSH2 0x1D66 JUMP JUMPDEST DUP1 PUSH1 0x40 MLOAD PUSH32 0x8C379A000000000000000000000000000000000000000000000000000000000 DUP2 MSTORE PUSH1 0x4 ADD PUSH2 0x1D5B SWAP2 SWAP1 PUSH2 0x20BC JUMP JUMPDEST PUSH1 0x40 MLOAD DUP1 SWAP2 SUB SWAP1 REVERT JUMPDEST POP JUMPDEST PUSH1 0x40 MLOAD PUSH32 0x8C379A000000000000000000000000000000000000000000000000000000000 DUP2 MSTORE PUSH1 0x4 ADD PUSH2 0x1D98 SWAP1 PUSH2 0x3523 JUMP JUMPDEST PUSH1 0x40 MLOAD DUP1 SWAP2 SUB SWAP1 REVERT JUMPDEST PUSH4 0xBC197C81 PUSH1 0xE0 SHL PUSH28 0xFFFFFFFFFFFFFFFFFFFFFFFFFFFFFFFFFFFFFFFFFFFFFFFFFFFFFFFF NOT AND DUP2 PUSH28 0xFFFFFFFFFFFFFFFFFFFFFFFFFFFFFFFFFFFFFFFFFFFFFFFFFFFFFFFF NOT AND EQ PUSH2 0x1E28 JUMPI PUSH1 0x40 MLOAD PUSH32 0x8C379A000000000000000000000000000000000000000000000000000000000 DUP2 MSTORE PUSH1 0x4 ADD PUSH2 0x1E1F SWAP1 PUSH2 0x35B5 JUMP JUMPDEST PUSH1 0x40 MLOAD DUP1 SWAP2 SUB SWAP1 REVERT JUMPDEST POP JUMPDEST POP POP POP POP POP POP JUMP JUMPDEST PUSH1 0x0 PUSH1 0x40 MLOAD SWAP1 POP SWAP1 JUMP JUMPDEST PUSH1 0x0 DUP1 REVERT JUMPDEST PUSH1 0x0 DUP1 REVERT JUMPDEST PUSH1 0x0 PUSH20 0xFFFFFFFFFFFFFFFFFFFFFFFFFFFFFFFFFFFFFFFF DUP3 AND SWAP1 POP SWAP2 SWAP1 POP JUMP JUMPDEST PUSH1 0x0 PUSH2 0x1E71 DUP3 PUSH2 0x1E46 JUMP JUMPDEST SWAP1 POP SWAP2 SWAP1 POP JUMP JUMPDEST PUSH2 0x1E81 DUP2 PUSH2 0x1E66 JUMP JUMPDEST DUP2 EQ PUSH2 0x1E8C JUMPI PUSH1 0x0 DUP1 REVERT JUMPDEST POP JUMP JUMPDEST PUSH1 0x0 DUP2 CALLDATALOAD SWAP1 POP PUSH2 0x1E9E DUP2 PUSH2 0x1E78 JUMP JUMPDEST SWAP3 SWAP2 POP POP JUMP JUMPDEST PUSH1 0x0 DUP2 SWAP1 POP SWAP2 SWAP1 POP JUMP JUMPDEST PUSH2 0x1EB7 DUP2 PUSH2 0x1EA4 JUMP JUMPDEST DUP2 EQ PUSH2 0x1EC2 JUMPI PUSH1 0x0 DUP1 REVERT JUMPDEST POP JUMP JUMPDEST PUSH1 0x0 DUP2 CALLDATALOAD SWAP1 POP PUSH2 0x1ED4 DUP2 PUSH2 0x1EAE JUMP JUMPDEST SWAP3 SWAP2 POP POP JUMP JUMPDEST PUSH1 0x0 DUP1 PUSH1 0x40 DUP4 DUP6 SUB SLT ISZERO PUSH2 0x1EF1 JUMPI PUSH2 0x1EF0 PUSH2 0x1E3C JUMP JUMPDEST JUMPDEST PUSH1 0x0 PUSH2 0x1EFF DUP6 DUP3 DUP7 ADD PUSH2 0x1E8F JUMP JUMPDEST SWAP3 POP POP PUSH1 0x20 PUSH2 0x1F10 DUP6 DUP3 DUP7 ADD PUSH2 0x1EC5 JUMP JUMPDEST SWAP2 POP POP SWAP3 POP SWAP3 SWAP1 POP JUMP JUMPDEST PUSH2 0x1F23 DUP2 PUSH2 0x1EA4 JUMP JUMPDEST DUP3 MSTORE POP POP JUMP JUMPDEST PUSH1 0x0 PUSH1 0x20 DUP3 ADD SWAP1 POP PUSH2 0x1F3E PUSH1 0x0 DUP4 ADD DUP5 PUSH2 0x1F1A JUMP JUMPDEST SWAP3 SWAP2 POP POP JUMP JUMPDEST PUSH1 0x0 PUSH32 0xFFFFFFFF00000000000000000000000000000000000000000000000000000000 DUP3 AND SWAP1 POP SWAP2 SWAP1 POP JUMP JUMPDEST PUSH2 0x1F79 DUP2 PUSH2 0x1F44 JUMP JUMPDEST DUP2 EQ PUSH2 0x1F84 JUMPI PUSH1 0x0 DUP1 REVERT JUMPDEST POP JUMP JUMPDEST PUSH1 0x0 DUP2 CALLDATALOAD SWAP1 POP PUSH2 0x1F96 DUP2 PUSH2 0x1F70 JUMP JUMPDEST SWAP3 SWAP2 POP POP JUMP JUMPDEST PUSH1 0x0 PUSH1 0x20 DUP3 DUP5 SUB SLT ISZERO PUSH2 0x1FB2 JUMPI PUSH2 0x1FB1 PUSH2 0x1E3C JUMP JUMPDEST JUMPDEST PUSH1 0x0 PUSH2 0x1FC0 DUP5 DUP3 DUP6 ADD PUSH2 0x1F87 JUMP JUMPDEST SWAP2 POP POP SWAP3 SWAP2 POP POP JUMP JUMPDEST PUSH1 0x0 DUP2 ISZERO ISZERO SWAP1 POP SWAP2 SWAP1 POP JUMP JUMPDEST PUSH2 0x1FDE DUP2 PUSH2 0x1FC9 JUMP JUMPDEST DUP3 MSTORE POP POP JUMP JUMPDEST PUSH1 0x0 PUSH1 0x20 DUP3 ADD SWAP1 POP PUSH2 0x1FF9 PUSH1 0x0 DUP4 ADD DUP5 PUSH2 0x1FD5 JUMP JUMPDEST SWAP3 SWAP2 POP POP JUMP JUMPDEST PUSH1 0x0 PUSH1 0x20 DUP3 DUP5 SUB SLT ISZERO PUSH2 0x2015 JUMPI PUSH2 0x2014 PUSH2 0x1E3C JUMP JUMPDEST JUMPDEST PUSH1 0x0 PUSH2 0x2023 DUP5 DUP3 DUP6 ADD PUSH2 0x1EC5 JUMP JUMPDEST SWAP2 POP POP SWAP3 SWAP2 POP POP JUMP JUMPDEST PUSH1 0x0 DUP2 MLOAD SWAP1 POP SWAP2 SWAP1 POP JUMP JUMPDEST PUSH1 0x0 DUP3 DUP3 MSTORE PUSH1 0x20 DUP3 ADD SWAP1 POP SWAP3 SWAP2 POP POP JUMP JUMPDEST PUSH1 0x0 JUMPDEST DUP4 DUP2 LT ISZERO PUSH2 0x2066 JUMPI DUP1 DUP3 ADD MLOAD DUP2 DUP5 ADD MSTORE PUSH1 0x20 DUP2 ADD SWAP1 POP PUSH2 0x204B JUMP JUMPDEST PUSH1 0x0 DUP5 DUP5 ADD MSTORE POP POP POP POP JUMP JUMPDEST PUSH1 0x0 PUSH1 0x1F NOT PUSH1 0x1F DUP4 ADD AND SWAP1 POP SWAP2 SWAP1 POP JUMP JUMPDEST PUSH1 0x0 PUSH2 0x208E DUP3 PUSH2 0x202C JUMP JUMPDEST PUSH2 0x2098 DUP2 DUP6 PUSH2 0x2037 JUMP JUMPDEST SWAP4 POP PUSH2 0x20A8 DUP2 DUP6 PUSH1 0x20 DUP7 ADD PUSH2 0x2048 JUMP JUMPDEST PUSH2 0x20B1 DUP2 PUSH2 0x2072 JUMP JUMPDEST DUP5 ADD SWAP2 POP POP SWAP3 SWAP2 POP POP JUMP JUMPDEST PUSH1 0x0 PUSH1 0x20 DUP3 ADD SWAP1 POP DUP2 DUP2 SUB PUSH1 0x0 DUP4 ADD MSTORE PUSH2 0x20D6 DUP2 DUP5 PUSH2 0x2083 JUMP JUMPDEST SWAP1 POP SWAP3 SWAP2 POP POP JUMP JUMPDEST PUSH1 0x0 DUP1 PUSH1 0x40 DUP4 DUP6 SUB SLT ISZERO PUSH2 0x20F5 JUMPI PUSH2 0x20F4 PUSH2 0x1E3C JUMP JUMPDEST JUMPDEST PUSH1 0x0 PUSH2 0x2103 DUP6 DUP3 DUP7 ADD PUSH2 0x1EC5 JUMP JUMPDEST SWAP3 POP POP PUSH1 0x20 PUSH2 0x2114 DUP6 DUP3 DUP7 ADD PUSH2 0x1EC5 JUMP JUMPDEST SWAP2 POP POP SWAP3 POP SWAP3 SWAP1 POP JUMP JUMPDEST PUSH2 0x2127 DUP2 PUSH2 0x1E66 JUMP JUMPDEST DUP3 MSTORE POP POP JUMP JUMPDEST PUSH1 0x0 PUSH1 0x40 DUP3 ADD SWAP1 POP PUSH2 0x2142 PUSH1 0x0 DUP4 ADD DUP6 PUSH2 0x211E JUMP JUMPDEST PUSH2 0x214F PUSH1 0x20 DUP4 ADD DUP5 PUSH2 0x1F1A JUMP JUMPDEST SWAP4 SWAP3 POP POP POP JUMP JUMPDEST PUSH1 0x0 DUP1 REVERT JUMPDEST PUSH1 0x0 DUP1 REVERT JUMPDEST PUSH32 0x4E487B7100000000000000000000000000000000000000000000000000000000 PUSH1 0x0 MSTORE PUSH1 0x41 PUSH1 0x4 MSTORE PUSH1 0x24 PUSH1 0x0 REVERT JUMPDEST PUSH2 0x2198 DUP3 PUSH2 0x2072 JUMP JUMPDEST DUP2 ADD DUP2 DUP2 LT PUSH8 0xFFFFFFFFFFFFFFFF DUP3 GT OR ISZERO PUSH2 0x21B7 JUMPI PUSH2 0x21B6 PUSH2 0x2160 JUMP JUMPDEST JUMPDEST DUP1 PUSH1 0x40 MSTORE POP POP POP JUMP JUMPDEST PUSH1 0x0 PUSH2 0x21CA PUSH2 0x1E32 JUMP JUMPDEST SWAP1 POP PUSH2 0x21D6 DUP3 DUP3 PUSH2 0x218F JUMP JUMPDEST SWAP2 SWAP1 POP JUMP JUMPDEST PUSH1 0x0 PUSH8 0xFFFFFFFFFFFFFFFF DUP3 GT ISZERO PUSH2 0x21F6 JUMPI PUSH2 0x21F5 PUSH2 0x2160 JUMP JUMPDEST JUMPDEST PUSH2 0x21FF DUP3 PUSH2 0x2072 JUMP JUMPDEST SWAP1 POP PUSH1 0x20 DUP2 ADD SWAP1 POP SWAP2 SWAP1 POP JUMP JUMPDEST DUP3 DUP2 DUP4 CALLDATACOPY PUSH1 0x0 DUP4 DUP4 ADD MSTORE POP POP POP JUMP JUMPDEST PUSH1 0x0 PUSH2 0x222E PUSH2 0x2229 DUP5 PUSH2 0x21DB JUMP JUMPDEST PUSH2 0x21C0 JUMP JUMPDEST SWAP1 POP DUP3 DUP2 MSTORE PUSH1 0x20 DUP2 ADD DUP5 DUP5 DUP5 ADD GT ISZERO PUSH2 0x224A JUMPI PUSH2 0x2249 PUSH2 0x215B JUMP JUMPDEST JUMPDEST PUSH2 0x2255 DUP5 DUP3 DUP6 PUSH2 0x220C JUMP JUMPDEST POP SWAP4 SWAP3 POP POP POP JUMP JUMPDEST PUSH1 0x0 DUP3 PUSH1 0x1F DUP4 ADD SLT PUSH2 0x2272 JUMPI PUSH2 0x2271 PUSH2 0x2156 JUMP JUMPDEST JUMPDEST DUP2 CALLDATALOAD PUSH2 0x2282 DUP5 DUP3 PUSH1 0x20 DUP7 ADD PUSH2 0x221B JUMP JUMPDEST SWAP2 POP POP SWAP3 SWAP2 POP POP JUMP JUMPDEST PUSH1 0x0 DUP1 PUSH1 0x40 DUP4 DUP6 SUB SLT ISZERO PUSH2 0x22A2 JUMPI PUSH2 0x22A1 PUSH2 0x1E3C JUMP JUMPDEST JUMPDEST PUSH1 0x0 PUSH2 0x22B0 DUP6 DUP3 DUP7 ADD PUSH2 0x1EC5 JUMP JUMPDEST SWAP3 POP POP PUSH1 0x20 DUP4 ADD CALLDATALOAD PUSH8 0xFFFFFFFFFFFFFFFF DUP2 GT ISZERO PUSH2 0x22D1 JUMPI PUSH2 0x22D0 PUSH2 0x1E41 JUMP JUMPDEST JUMPDEST PUSH2 0x22DD DUP6 DUP3 DUP7 ADD PUSH2 0x225D JUMP JUMPDEST SWAP2 POP POP SWAP3 POP SWAP3 SWAP1 POP JUMP JUMPDEST PUSH1 0x0 PUSH8 0xFFFFFFFFFFFFFFFF DUP3 GT ISZERO PUSH2 0x2302 JUMPI PUSH2 0x2301 PUSH2 0x2160 JUMP JUMPDEST JUMPDEST PUSH1 0x20 DUP3 MUL SWAP1 POP PUSH1 0x20 DUP2 ADD SWAP1 POP SWAP2 SWAP1 POP JUMP JUMPDEST PUSH1 0x0 DUP1 REVERT JUMPDEST PUSH1 0x0 PUSH2 0x232B PUSH2 0x2326 DUP5 PUSH2 0x22E7 JUMP JUMPDEST PUSH2 0x21C0 JUMP JUMPDEST SWAP1 POP DUP1 DUP4 DUP3 MSTORE PUSH1 0x20 DUP3 ADD SWAP1 POP PUSH1 0x20 DUP5 MUL DUP4 ADD DUP6 DUP2 GT ISZERO PUSH2 0x234E JUMPI PUSH2 0x234D PUSH2 0x2313 JUMP JUMPDEST JUMPDEST DUP4 JUMPDEST DUP2 DUP2 LT ISZERO PUSH2 0x2377 JUMPI DUP1 PUSH2 0x2363 DUP9 DUP3 PUSH2 0x1EC5 JUMP JUMPDEST DUP5 MSTORE PUSH1 0x20 DUP5 ADD SWAP4 POP POP PUSH1 0x20 DUP2 ADD SWAP1 POP PUSH2 0x2350 JUMP JUMPDEST POP POP POP SWAP4 SWAP3 POP POP POP JUMP JUMPDEST PUSH1 0x0 DUP3 PUSH1 0x1F DUP4 ADD SLT PUSH2 0x2396 JUMPI PUSH2 0x2395 PUSH2 0x2156 JUMP JUMPDEST JUMPDEST DUP2 CALLDATALOAD PUSH2 0x23A6 DUP5 DUP3 PUSH1 0x20 DUP7 ADD PUSH2 0x2318 JUMP JUMPDEST SWAP2 POP POP SWAP3 SWAP2 POP POP JUMP JUMPDEST PUSH1 0x0 PUSH8 0xFFFFFFFFFFFFFFFF DUP3 GT ISZERO PUSH2 0x23CA JUMPI PUSH2 0x23C9 PUSH2 0x2160 JUMP JUMPDEST JUMPDEST PUSH2 0x23D3 DUP3 PUSH2 0x2072 JUMP JUMPDEST SWAP1 POP PUSH1 0x20 DUP2 ADD SWAP1 POP SWAP2 SWAP1 POP JUMP JUMPDEST PUSH1 0x0 PUSH2 0x23F3 PUSH2 0x23EE DUP5 PUSH2 0x23AF JUMP JUMPDEST PUSH2 0x21C0 JUMP JUMPDEST SWAP1 POP DUP3 DUP2 MSTORE PUSH1 0x20 DUP2 ADD DUP5 DUP5 DUP5 ADD GT ISZERO PUSH2 0x240F JUMPI PUSH2 0x240E PUSH2 0x215B JUMP JUMPDEST JUMPDEST PUSH2 0x241A DUP5 DUP3 DUP6 PUSH2 0x220C JUMP JUMPDEST POP SWAP4 SWAP3 POP POP POP JUMP JUMPDEST PUSH1 0x0 DUP3 PUSH1 0x1F DUP4 ADD SLT PUSH2 0x2437 JUMPI PUSH2 0x2436 PUSH2 0x2156 JUMP JUMPDEST JUMPDEST DUP2 CALLDATALOAD PUSH2 0x2447 DUP5 DUP3 PUSH1 0x20 DUP7 ADD PUSH2 0x23E0 JUMP JUMPDEST SWAP2 POP POP SWAP3 SWAP2 POP POP JUMP JUMPDEST PUSH1 0x0 DUP1 PUSH1 0x0 DUP1 PUSH1 0x0 PUSH1 0xA0 DUP7 DUP9 SUB SLT ISZERO PUSH2 0x246C JUMPI PUSH2 0x246B PUSH2 0x1E3C JUMP JUMPDEST JUMPDEST PUSH1 0x0 PUSH2 0x247A DUP9 DUP3 DUP10 ADD PUSH2 0x1E8F JUMP JUMPDEST SWAP6 POP POP PUSH1 0x20 PUSH2 0x248B DUP9 DUP3 DUP10 ADD PUSH2 0x1E8F JUMP JUMPDEST SWAP5 POP POP PUSH1 0x40 DUP7 ADD CALLDATALOAD PUSH8 0xFFFFFFFFFFFFFFFF DUP2 GT ISZERO PUSH2 0x24AC JUMPI PUSH2 0x24AB PUSH2 0x1E41 JUMP JUMPDEST JUMPDEST PUSH2 0x24B8 DUP9 DUP3 DUP10 ADD PUSH2 0x2381 JUMP JUMPDEST SWAP4 POP POP PUSH1 0x60 DUP7 ADD CALLDATALOAD PUSH8 0xFFFFFFFFFFFFFFFF DUP2 GT ISZERO PUSH2 0x24D9 JUMPI PUSH2 0x24D8 PUSH2 0x1E41 JUMP JUMPDEST JUMPDEST PUSH2 0x24E5 DUP9 DUP3 DUP10 ADD PUSH2 0x2381 JUMP JUMPDEST SWAP3 POP POP PUSH1 0x80 DUP7 ADD CALLDATALOAD PUSH8 0xFFFFFFFFFFFFFFFF DUP2 GT ISZERO PUSH2 0x2506 JUMPI PUSH2 0x2505 PUSH2 0x1E41 JUMP JUMPDEST JUMPDEST PUSH2 0x2512 DUP9 DUP3 DUP10 ADD PUSH2 0x2422 JUMP JUMPDEST SWAP2 POP POP SWAP3 SWAP6 POP SWAP3 SWAP6 SWAP1 SWAP4 POP JUMP JUMPDEST PUSH1 0x0 DUP2 SWAP1 POP SWAP2 SWAP1 POP JUMP JUMPDEST PUSH1 0x0 PUSH2 0x2544 PUSH2 0x253F PUSH2 0x253A DUP5 PUSH2 0x1E46 JUMP JUMPDEST PUSH2 0x251F JUMP JUMPDEST PUSH2 0x1E46 JUMP JUMPDEST SWAP1 POP SWAP2 SWAP1 POP JUMP JUMPDEST PUSH1 0x0 PUSH2 0x2556 DUP3 PUSH2 0x2529 JUMP JUMPDEST SWAP1 POP SWAP2 SWAP1 POP JUMP JUMPDEST PUSH1 0x0 PUSH2 0x2568 DUP3 PUSH2 0x254B JUMP JUMPDEST SWAP1 POP SWAP2 SWAP1 POP JUMP JUMPDEST PUSH2 0x2578 DUP2 PUSH2 0x255D JUMP JUMPDEST DUP3 MSTORE POP POP JUMP JUMPDEST PUSH1 0x0 PUSH1 0x20 DUP3 ADD SWAP1 POP PUSH2 0x2593 PUSH1 0x0 DUP4 ADD DUP5 PUSH2 0x256F JUMP JUMPDEST SWAP3 SWAP2 POP POP JUMP JUMPDEST PUSH1 0x0 PUSH8 0xFFFFFFFFFFFFFFFF DUP3 GT ISZERO PUSH2 0x25B4 JUMPI PUSH2 0x25B3 PUSH2 0x2160 JUMP JUMPDEST JUMPDEST PUSH1 0x20 DUP3 MUL SWAP1 POP PUSH1 0x20 DUP2 ADD SWAP1 POP SWAP2 SWAP1 POP JUMP JUMPDEST PUSH1 0x0 PUSH2 0x25D8 PUSH2 0x25D3 DUP5 PUSH2 0x2599 JUMP JUMPDEST PUSH2 0x21C0 JUMP JUMPDEST SWAP1 POP DUP1 DUP4 DUP3 MSTORE PUSH1 0x20 DUP3 ADD SWAP1 POP PUSH1 0x20 DUP5 MUL DUP4 ADD DUP6 DUP2 GT ISZERO PUSH2 0x25FB JUMPI PUSH2 0x25FA PUSH2 0x2313 JUMP JUMPDEST JUMPDEST DUP4 JUMPDEST DUP2 DUP2 LT ISZERO PUSH2 0x2624 JUMPI DUP1 PUSH2 0x2610 DUP9 DUP3 PUSH2 0x1E8F JUMP JUMPDEST DUP5 MSTORE PUSH1 0x20 DUP5 ADD SWAP4 POP POP PUSH1 0x20 DUP2 ADD SWAP1 POP PUSH2 0x25FD JUMP JUMPDEST POP POP POP SWAP4 SWAP3 POP POP POP JUMP JUMPDEST PUSH1 0x0 DUP3 PUSH1 0x1F DUP4 ADD SLT PUSH2 0x2643 JUMPI PUSH2 0x2642 PUSH2 0x2156 JUMP JUMPDEST JUMPDEST DUP2 CALLDATALOAD PUSH2 0x2653 DUP5 DUP3 PUSH1 0x20 DUP7 ADD PUSH2 0x25C5 JUMP JUMPDEST SWAP2 POP POP SWAP3 SWAP2 POP POP JUMP JUMPDEST PUSH1 0x0 DUP1 PUSH1 0x40 DUP4 DUP6 SUB SLT ISZERO PUSH2 0x2673 JUMPI PUSH2 0x2672 PUSH2 0x1E3C JUMP JUMPDEST JUMPDEST PUSH1 0x0 DUP4 ADD CALLDATALOAD PUSH8 0xFFFFFFFFFFFFFFFF DUP2 GT ISZERO PUSH2 0x2691 JUMPI PUSH2 0x2690 PUSH2 0x1E41 JUMP JUMPDEST JUMPDEST PUSH2 0x269D DUP6 DUP3 DUP7 ADD PUSH2 0x262E JUMP JUMPDEST SWAP3 POP POP PUSH1 0x20 DUP4 ADD CALLDATALOAD PUSH8 0xFFFFFFFFFFFFFFFF DUP2 GT ISZERO PUSH2 0x26BE JUMPI PUSH2 0x26BD PUSH2 0x1E41 JUMP JUMPDEST JUMPDEST PUSH2 0x26CA DUP6 DUP3 DUP7 ADD PUSH2 0x2381 JUMP JUMPDEST SWAP2 POP POP SWAP3 POP SWAP3 SWAP1 POP JUMP JUMPDEST PUSH1 0x0 DUP2 MLOAD SWAP1 POP SWAP2 SWAP1 POP JUMP JUMPDEST PUSH1 0x0 DUP3 DUP3 MSTORE PUSH1 0x20 DUP3 ADD SWAP1 POP SWAP3 SWAP2 POP POP JUMP JUMPDEST PUSH1 0x0 DUP2 SWAP1 POP PUSH1 0x20 DUP3 ADD SWAP1 POP SWAP2 SWAP1 POP JUMP JUMPDEST PUSH2 0x2709 DUP2 PUSH2 0x1EA4 JUMP JUMPDEST DUP3 MSTORE POP POP JUMP JUMPDEST PUSH1 0x0 PUSH2 0x271B DUP4 DUP4 PUSH2 0x2700 JUMP JUMPDEST PUSH1 0x20 DUP4 ADD SWAP1 POP SWAP3 SWAP2 POP POP JUMP JUMPDEST PUSH1 0x0 PUSH1 0x20 DUP3 ADD SWAP1 POP SWAP2 SWAP1 POP JUMP JUMPDEST PUSH1 0x0 PUSH2 0x273F DUP3 PUSH2 0x26D4 JUMP JUMPDEST PUSH2 0x2749 DUP2 DUP6 PUSH2 0x26DF JUMP JUMPDEST SWAP4 POP PUSH2 0x2754 DUP4 PUSH2 0x26F0 JUMP JUMPDEST DUP1 PUSH1 0x0 JUMPDEST DUP4 DUP2 LT ISZERO PUSH2 0x2785 JUMPI DUP2 MLOAD PUSH2 0x276C DUP9 DUP3 PUSH2 0x270F JUMP JUMPDEST SWAP8 POP PUSH2 0x2777 DUP4 PUSH2 0x2727 JUMP JUMPDEST SWAP3 POP POP PUSH1 0x1 DUP2 ADD SWAP1 POP PUSH2 0x2758 JUMP JUMPDEST POP DUP6 SWAP4 POP POP POP POP SWAP3 SWAP2 POP POP JUMP JUMPDEST PUSH1 0x0 PUSH1 0x20 DUP3 ADD SWAP1 POP DUP2 DUP2 SUB PUSH1 0x0 DUP4 ADD MSTORE PUSH2 0x27AC DUP2 DUP5 PUSH2 0x2734 JUMP JUMPDEST SWAP1 POP SWAP3 SWAP2 POP POP JUMP JUMPDEST PUSH1 0x0 PUSH1 0x20 DUP3 DUP5 SUB SLT ISZERO PUSH2 0x27CA JUMPI PUSH2 0x27C9 PUSH2 0x1E3C JUMP JUMPDEST JUMPDEST PUSH1 0x0 DUP3 ADD CALLDATALOAD PUSH8 0xFFFFFFFFFFFFFFFF DUP2 GT ISZERO PUSH2 0x27E8 JUMPI PUSH2 0x27E7 PUSH2 0x1E41 JUMP JUMPDEST JUMPDEST PUSH2 0x27F4 DUP5 DUP3 DUP6 ADD PUSH2 0x225D JUMP JUMPDEST SWAP2 POP POP SWAP3 SWAP2 POP POP JUMP JUMPDEST PUSH1 0x0 PUSH1 0x20 DUP3 ADD SWAP1 POP PUSH2 0x2812 PUSH1 0x0 DUP4 ADD DUP5 PUSH2 0x211E JUMP JUMPDEST SWAP3 SWAP2 POP POP JUMP JUMPDEST PUSH2 0x2821 DUP2 PUSH2 0x1FC9 JUMP JUMPDEST DUP2 EQ PUSH2 0x282C JUMPI PUSH1 0x0 DUP1 REVERT JUMPDEST POP JUMP JUMPDEST PUSH1 0x0 DUP2 CALLDATALOAD SWAP1 POP PUSH2 0x283E DUP2 PUSH2 0x2818 JUMP JUMPDEST SWAP3 SWAP2 POP POP JUMP JUMPDEST PUSH1 0x0 DUP1 PUSH1 0x40 DUP4 DUP6 SUB SLT ISZERO PUSH2 0x285B JUMPI PUSH2 0x285A PUSH2 0x1E3C JUMP JUMPDEST JUMPDEST PUSH1 0x0 PUSH2 0x2869 DUP6 DUP3 DUP7 ADD PUSH2 0x1E8F JUMP JUMPDEST SWAP3 POP POP PUSH1 0x20 PUSH2 0x287A DUP6 DUP3 DUP7 ADD PUSH2 0x282F JUMP JUMPDEST SWAP2 POP POP SWAP3 POP SWAP3 SWAP1 POP JUMP JUMPDEST PUSH1 0x0 DUP1 PUSH1 0x40 DUP4 DUP6 SUB SLT ISZERO PUSH2 0x289B JUMPI PUSH2 0x289A PUSH2 0x1E3C JUMP JUMPDEST JUMPDEST PUSH1 0x0 PUSH2 0x28A9 DUP6 DUP3 DUP7 ADD PUSH2 0x1E8F JUMP JUMPDEST SWAP3 POP POP PUSH1 0x20 PUSH2 0x28BA DUP6 DUP3 DUP7 ADD PUSH2 0x1E8F JUMP JUMPDEST SWAP2 POP POP SWAP3 POP SWAP3 SWAP1 POP JUMP JUMPDEST PUSH1 0x0 DUP1 PUSH1 0x0 DUP1 PUSH1 0x0 PUSH1 0xA0 DUP7 DUP9 SUB SLT ISZERO PUSH2 0x28E0 JUMPI PUSH2 0x28DF PUSH2 0x1E3C JUMP JUMPDEST JUMPDEST PUSH1 0x0 PUSH2 0x28EE DUP9 DUP3 DUP10 ADD PUSH2 0x1E8F JUMP JUMPDEST SWAP6 POP POP PUSH1 0x20 PUSH2 0x28FF DUP9 DUP3 DUP10 ADD PUSH2 0x1E8F JUMP JUMPDEST SWAP5 POP POP PUSH1 0x40 PUSH2 0x2910 DUP9 DUP3 DUP10 ADD PUSH2 0x1EC5 JUMP JUMPDEST SWAP4 POP POP PUSH1 0x60 PUSH2 0x2921 DUP9 DUP3 DUP10 ADD PUSH2 0x1EC5 JUMP JUMPDEST SWAP3 POP POP PUSH1 0x80 DUP7 ADD CALLDATALOAD PUSH8 0xFFFFFFFFFFFFFFFF DUP2 GT ISZERO PUSH2 0x2942 JUMPI PUSH2 0x2941 PUSH2 0x1E41 JUMP JUMPDEST JUMPDEST PUSH2 0x294E DUP9 DUP3 DUP10 ADD PUSH2 0x2422 JUMP JUMPDEST SWAP2 POP POP SWAP3 SWAP6 POP SWAP3 SWAP6 SWAP1 SWAP4 POP JUMP JUMPDEST PUSH1 0x0 PUSH1 0x20 DUP3 DUP5 SUB SLT ISZERO PUSH2 0x2971 JUMPI PUSH2 0x2970 PUSH2 0x1E3C JUMP JUMPDEST JUMPDEST PUSH1 0x0 PUSH2 0x297F DUP5 DUP3 DUP6 ADD PUSH2 0x1E8F JUMP JUMPDEST SWAP2 POP POP SWAP3 SWAP2 POP POP JUMP JUMPDEST PUSH32 0x455243313135353A2061646472657373207A65726F206973206E6F7420612076 PUSH1 0x0 DUP3 ADD MSTORE PUSH32 0x616C6964206F776E657200000000000000000000000000000000000000000000 PUSH1 0x20 DUP3 ADD MSTORE POP JUMP JUMPDEST PUSH1 0x0 PUSH2 0x29E4 PUSH1 0x2A DUP4 PUSH2 0x2037 JUMP JUMPDEST SWAP2 POP PUSH2 0x29EF DUP3 PUSH2 0x2988 JUMP JUMPDEST PUSH1 0x40 DUP3 ADD SWAP1 POP SWAP2 SWAP1 POP JUMP JUMPDEST PUSH1 0x0 PUSH1 0x20 DUP3 ADD SWAP1 POP DUP2 DUP2 SUB PUSH1 0x0 DUP4 ADD MSTORE PUSH2 0x2A13 DUP2 PUSH2 0x29D7 JUMP JUMPDEST SWAP1 POP SWAP2 SWAP1 POP JUMP JUMPDEST PUSH32 0x4E487B7100000000000000000000000000000000000000000000000000000000 PUSH1 0x0 MSTORE PUSH1 0x22 PUSH1 0x4 MSTORE PUSH1 0x24 PUSH1 0x0 REVERT JUMPDEST PUSH1 0x0 PUSH1 0x2 DUP3 DIV SWAP1 POP PUSH1 0x1 DUP3 AND DUP1 PUSH2 0x2A61 JUMPI PUSH1 0x7F DUP3 AND SWAP2 POP JUMPDEST PUSH1 0x20 DUP3 LT DUP2 SUB PUSH2 0x2A74 JUMPI PUSH2 0x2A73 PUSH2 0x2A1A JUMP JUMPDEST JUMPDEST POP SWAP2 SWAP1 POP JUMP JUMPDEST PUSH1 0x0 DUP2 SWAP1 POP SWAP3 SWAP2 POP POP JUMP JUMPDEST PUSH1 0x0 DUP2 SWAP1 POP DUP2 PUSH1 0x0 MSTORE PUSH1 0x20 PUSH1 0x0 KECCAK256 SWAP1 POP SWAP2 SWAP1 POP JUMP JUMPDEST PUSH1 0x0 DUP2 SLOAD PUSH2 0x2AA7 DUP2 PUSH2 0x2A49 JUMP JUMPDEST PUSH2 0x2AB1 DUP2 DUP7 PUSH2 0x2A7A JUMP JUMPDEST SWAP5 POP PUSH1 0x1 DUP3 AND PUSH1 0x0 DUP2 EQ PUSH2 0x2ACC JUMPI PUSH1 0x1 DUP2 EQ PUSH2 0x2AE1 JUMPI PUSH2 0x2B14 JUMP JUMPDEST PUSH1 0xFF NOT DUP4 AND DUP7 MSTORE DUP2 ISZERO ISZERO DUP3 MUL DUP7 ADD SWAP4 POP PUSH2 0x2B14 JUMP JUMPDEST PUSH2 0x2AEA DUP6 PUSH2 0x2A85 JUMP JUMPDEST PUSH1 0x0 JUMPDEST DUP4 DUP2 LT ISZERO PUSH2 0x2B0C JUMPI DUP2 SLOAD DUP2 DUP10 ADD MSTORE PUSH1 0x1 DUP3 ADD SWAP2 POP PUSH1 0x20 DUP2 ADD SWAP1 POP PUSH2 0x2AED JUMP JUMPDEST DUP4 DUP9 ADD SWAP6 POP POP POP JUMPDEST POP POP POP SWAP3 SWAP2 POP POP JUMP JUMPDEST PUSH1 0x0 PUSH2 0x2B28 DUP3 PUSH2 0x202C JUMP JUMPDEST PUSH2 0x2B32 DUP2 DUP6 PUSH2 0x2A7A JUMP JUMPDEST SWAP4 POP PUSH2 0x2B42 DUP2 DUP6 PUSH1 0x20 DUP7 ADD PUSH2 0x2048 JUMP JUMPDEST DUP1 DUP5 ADD SWAP2 POP POP SWAP3 SWAP2 POP POP JUMP JUMPDEST PUSH1 0x0 PUSH2 0x2B5A DUP3 DUP6 PUSH2 0x2A9A JUMP JUMPDEST SWAP2 POP PUSH2 0x2B66 DUP3 DUP5 PUSH2 0x2B1D JUMP JUMPDEST SWAP2 POP DUP2 SWAP1 POP SWAP4 SWAP3 POP POP POP JUMP JUMPDEST PUSH32 0x4E487B7100000000000000000000000000000000000000000000000000000000 PUSH1 0x0 MSTORE PUSH1 0x11 PUSH1 0x4 MSTORE PUSH1 0x24 PUSH1 0x0 REVERT JUMPDEST PUSH1 0x0 PUSH2 0x2BAC DUP3 PUSH2 0x1EA4 JUMP JUMPDEST SWAP2 POP PUSH2 0x2BB7 DUP4 PUSH2 0x1EA4 JUMP JUMPDEST SWAP3 POP DUP3 DUP3 MUL PUSH2 0x2BC5 DUP2 PUSH2 0x1EA4 JUMP JUMPDEST SWAP2 POP DUP3 DUP3 DIV DUP5 EQ DUP4 ISZERO OR PUSH2 0x2BDC JUMPI PUSH2 0x2BDB PUSH2 0x2B72 JUMP JUMPDEST JUMPDEST POP SWAP3 SWAP2 POP POP JUMP JUMPDEST PUSH32 0x4E487B7100000000000000000000000000000000000000000000000000000000 PUSH1 0x0 MSTORE PUSH1 0x12 PUSH1 0x4 MSTORE PUSH1 0x24 PUSH1 0x0 REVERT JUMPDEST PUSH1 0x0 PUSH2 0x2C1D DUP3 PUSH2 0x1EA4 JUMP JUMPDEST SWAP2 POP PUSH2 0x2C28 DUP4 PUSH2 0x1EA4 JUMP JUMPDEST SWAP3 POP DUP3 PUSH2 0x2C38 JUMPI PUSH2 0x2C37 PUSH2 0x2BE3 JUMP JUMPDEST JUMPDEST DUP3 DUP3 DIV SWAP1 POP SWAP3 SWAP2 POP POP JUMP JUMPDEST PUSH32 0x4E465420616C7265616479206578697374730000000000000000000000000000 PUSH1 0x0 DUP3 ADD MSTORE POP JUMP JUMPDEST PUSH1 0x0 PUSH2 0x2C79 PUSH1 0x12 DUP4 PUSH2 0x2037 JUMP JUMPDEST SWAP2 POP PUSH2 0x2C84 DUP3 PUSH2 0x2C43 JUMP JUMPDEST PUSH1 0x20 DUP3 ADD SWAP1 POP SWAP2 SWAP1 POP JUMP JUMPDEST PUSH1 0x0 PUSH1 0x20 DUP3 ADD SWAP1 POP DUP2 DUP2 SUB PUSH1 0x0 DUP4 ADD MSTORE PUSH2 0x2CA8 DUP2 PUSH2 0x2C6C JUMP JUMPDEST SWAP1 POP SWAP2 SWAP1 POP JUMP JUMPDEST PUSH32 0x455243313135353A206163636F756E747320616E6420696473206C656E677468 PUSH1 0x0 DUP3 ADD MSTORE PUSH32 0x206D69736D617463680000000000000000000000000000000000000000000000 PUSH1 0x20 DUP3 ADD MSTORE POP JUMP JUMPDEST PUSH1 0x0 PUSH2 0x2D0B PUSH1 0x29 DUP4 PUSH2 0x2037 JUMP JUMPDEST SWAP2 POP PUSH2 0x2D16 DUP3 PUSH2 0x2CAF JUMP JUMPDEST PUSH1 0x40 DUP3 ADD SWAP1 POP SWAP2 SWAP1 POP JUMP JUMPDEST PUSH1 0x0 PUSH1 0x20 DUP3 ADD SWAP1 POP DUP2 DUP2 SUB PUSH1 0x0 DUP4 ADD MSTORE PUSH2 0x2D3A DUP2 PUSH2 0x2CFE JUMP JUMPDEST SWAP1 POP SWAP2 SWAP1 POP JUMP JUMPDEST PUSH32 0x4E487B7100000000000000000000000000000000000000000000000000000000 PUSH1 0x0 MSTORE PUSH1 0x32 PUSH1 0x4 MSTORE PUSH1 0x24 PUSH1 0x0 REVERT JUMPDEST PUSH1 0x0 PUSH2 0x2D7B DUP3 PUSH2 0x1EA4 JUMP JUMPDEST SWAP2 POP PUSH32 0xFFFFFFFFFFFFFFFFFFFFFFFFFFFFFFFFFFFFFFFFFFFFFFFFFFFFFFFFFFFFFFFF DUP3 SUB PUSH2 0x2DAD JUMPI PUSH2 0x2DAC PUSH2 0x2B72 JUMP JUMPDEST JUMPDEST PUSH1 0x1 DUP3 ADD SWAP1 POP SWAP2 SWAP1 POP JUMP JUMPDEST PUSH32 0x4F776E61626C653A206E6577206F776E657220697320746865207A65726F2061 PUSH1 0x0 DUP3 ADD MSTORE PUSH32 0x6464726573730000000000000000000000000000000000000000000000000000 PUSH1 0x20 DUP3 ADD MSTORE POP JUMP JUMPDEST PUSH1 0x0 PUSH2 0x2E14 PUSH1 0x26 DUP4 PUSH2 0x2037 JUMP JUMPDEST SWAP2 POP PUSH2 0x2E1F DUP3 PUSH2 0x2DB8 JUMP JUMPDEST PUSH1 0x40 DUP3 ADD SWAP1 POP SWAP2 SWAP1 POP JUMP JUMPDEST PUSH1 0x0 PUSH1 0x20 DUP3 ADD SWAP1 POP DUP2 DUP2 SUB PUSH1 0x0 DUP4 ADD MSTORE PUSH2 0x2E43 DUP2 PUSH2 0x2E07 JUMP JUMPDEST SWAP1 POP SWAP2 SWAP1 POP JUMP JUMPDEST PUSH32 0x4F776E61626C653A2063616C6C6572206973206E6F7420746865206F776E6572 PUSH1 0x0 DUP3 ADD MSTORE POP JUMP JUMPDEST PUSH1 0x0 PUSH2 0x2E80 PUSH1 0x20 DUP4 PUSH2 0x2037 JUMP JUMPDEST SWAP2 POP PUSH2 0x2E8B DUP3 PUSH2 0x2E4A JUMP JUMPDEST PUSH1 0x20 DUP3 ADD SWAP1 POP SWAP2 SWAP1 POP JUMP JUMPDEST PUSH1 0x0 PUSH1 0x20 DUP3 ADD SWAP1 POP DUP2 DUP2 SUB PUSH1 0x0 DUP4 ADD MSTORE PUSH2 0x2EAF DUP2 PUSH2 0x2E73 JUMP JUMPDEST SWAP1 POP SWAP2 SWAP1 POP JUMP JUMPDEST PUSH32 0x455243313135353A206D696E7420746F20746865207A65726F20616464726573 PUSH1 0x0 DUP3 ADD MSTORE PUSH32 0x7300000000000000000000000000000000000000000000000000000000000000 PUSH1 0x20 DUP3 ADD MSTORE POP JUMP JUMPDEST PUSH1 0x0 PUSH2 0x2F12 PUSH1 0x21 DUP4 PUSH2 0x2037 JUMP JUMPDEST SWAP2 POP PUSH2 0x2F1D DUP3 PUSH2 0x2EB6 JUMP JUMPDEST PUSH1 0x40 DUP3 ADD SWAP1 POP SWAP2 SWAP1 POP JUMP JUMPDEST PUSH1 0x0 PUSH1 0x20 DUP3 ADD SWAP1 POP DUP2 DUP2 SUB PUSH1 0x0 DUP4 ADD MSTORE PUSH2 0x2F41 DUP2 PUSH2 0x2F05 JUMP JUMPDEST SWAP1 POP SWAP2 SWAP1 POP JUMP JUMPDEST PUSH1 0x0 PUSH2 0x2F53 DUP3 PUSH2 0x1EA4 JUMP JUMPDEST SWAP2 POP PUSH2 0x2F5E DUP4 PUSH2 0x1EA4 JUMP JUMPDEST SWAP3 POP DUP3 DUP3 ADD SWAP1 POP DUP1 DUP3 GT ISZERO PUSH2 0x2F76 JUMPI PUSH2 0x2F75 PUSH2 0x2B72 JUMP JUMPDEST JUMPDEST SWAP3 SWAP2 POP POP JUMP JUMPDEST PUSH1 0x0 PUSH1 0x40 DUP3 ADD SWAP1 POP PUSH2 0x2F91 PUSH1 0x0 DUP4 ADD DUP6 PUSH2 0x1F1A JUMP JUMPDEST PUSH2 0x2F9E PUSH1 0x20 DUP4 ADD DUP5 PUSH2 0x1F1A JUMP JUMPDEST SWAP4 SWAP3 POP POP POP JUMP JUMPDEST PUSH1 0x0 PUSH1 0x20 PUSH1 0x1F DUP4 ADD DIV SWAP1 POP SWAP2 SWAP1 POP JUMP JUMPDEST PUSH1 0x0 DUP3 DUP3 SHL SWAP1 POP SWAP3 SWAP2 POP POP JUMP JUMPDEST PUSH1 0x0 PUSH1 0x8 DUP4 MUL PUSH2 0x2FF2 PUSH32 0xFFFFFFFFFFFFFFFFFFFFFFFFFFFFFFFFFFFFFFFFFFFFFFFFFFFFFFFFFFFFFFFF DUP3 PUSH2 0x2FB5 JUMP JUMPDEST PUSH2 0x2FFC DUP7 DUP4 PUSH2 0x2FB5 JUMP JUMPDEST SWAP6 POP DUP1 NOT DUP5 AND SWAP4 POP DUP1 DUP7 AND DUP5 OR SWAP3 POP POP POP SWAP4 SWAP3 POP POP POP JUMP JUMPDEST PUSH1 0x0 PUSH2 0x302F PUSH2 0x302A PUSH2 0x3025 DUP5 PUSH2 0x1EA4 JUMP JUMPDEST PUSH2 0x251F JUMP JUMPDEST PUSH2 0x1EA4 JUMP JUMPDEST SWAP1 POP SWAP2 SWAP1 POP JUMP JUMPDEST PUSH1 0x0 DUP2 SWAP1 POP SWAP2 SWAP1 POP JUMP JUMPDEST PUSH2 0x3049 DUP4 PUSH2 0x3014 JUMP JUMPDEST PUSH2 0x305D PUSH2 0x3055 DUP3 PUSH2 0x3036 JUMP JUMPDEST DUP5 DUP5 SLOAD PUSH2 0x2FC2 JUMP JUMPDEST DUP3 SSTORE POP POP POP POP JUMP JUMPDEST PUSH1 0x0 SWAP1 JUMP JUMPDEST PUSH2 0x3072 PUSH2 0x3065 JUMP JUMPDEST PUSH2 0x307D DUP2 DUP5 DUP5 PUSH2 0x3040 JUMP JUMPDEST POP POP POP JUMP JUMPDEST JUMPDEST DUP2 DUP2 LT ISZERO PUSH2 0x30A1 JUMPI PUSH2 0x3096 PUSH1 0x0 DUP3 PUSH2 0x306A JUMP JUMPDEST PUSH1 0x1 DUP2 ADD SWAP1 POP PUSH2 0x3083 JUMP JUMPDEST POP POP JUMP JUMPDEST PUSH1 0x1F DUP3 GT ISZERO PUSH2 0x30E6 JUMPI PUSH2 0x30B7 DUP2 PUSH2 0x2A85 JUMP JUMPDEST PUSH2 0x30C0 DUP5 PUSH2 0x2FA5 JUMP JUMPDEST DUP2 ADD PUSH1 0x20 DUP6 LT ISZERO PUSH2 0x30CF JUMPI DUP2 SWAP1 POP JUMPDEST PUSH2 0x30E3 PUSH2 0x30DB DUP6 PUSH2 0x2FA5 JUMP JUMPDEST DUP4 ADD DUP3 PUSH2 0x3082 JUMP JUMPDEST POP POP JUMPDEST POP POP POP JUMP JUMPDEST PUSH1 0x0 DUP3 DUP3 SHR SWAP1 POP SWAP3 SWAP2 POP POP JUMP JUMPDEST PUSH1 0x0 PUSH2 0x3109 PUSH1 0x0 NOT DUP5 PUSH1 0x8 MUL PUSH2 0x30EB JUMP JUMPDEST NOT DUP1 DUP4 AND SWAP2 POP POP SWAP3 SWAP2 POP POP JUMP JUMPDEST PUSH1 0x0 PUSH2 0x3122 DUP4 DUP4 PUSH2 0x30F8 JUMP JUMPDEST SWAP2 POP DUP3 PUSH1 0x2 MUL DUP3 OR SWAP1 POP SWAP3 SWAP2 POP POP JUMP JUMPDEST PUSH2 0x313B DUP3 PUSH2 0x202C JUMP JUMPDEST PUSH8 0xFFFFFFFFFFFFFFFF DUP2 GT ISZERO PUSH2 0x3154 JUMPI PUSH2 0x3153 PUSH2 0x2160 JUMP JUMPDEST JUMPDEST PUSH2 0x315E DUP3 SLOAD PUSH2 0x2A49 JUMP JUMPDEST PUSH2 0x3169 DUP3 DUP3 DUP6 PUSH2 0x30A5 JUMP JUMPDEST PUSH1 0x0 PUSH1 0x20 SWAP1 POP PUSH1 0x1F DUP4 GT PUSH1 0x1 DUP2 EQ PUSH2 0x319C JUMPI PUSH1 0x0 DUP5 ISZERO PUSH2 0x318A JUMPI DUP3 DUP8 ADD MLOAD SWAP1 POP JUMPDEST PUSH2 0x3194 DUP6 DUP3 PUSH2 0x3116 JUMP JUMPDEST DUP7 SSTORE POP PUSH2 0x31FC JUMP JUMPDEST PUSH1 0x1F NOT DUP5 AND PUSH2 0x31AA DUP7 PUSH2 0x2A85 JUMP JUMPDEST PUSH1 0x0 JUMPDEST DUP3 DUP2 LT ISZERO PUSH2 0x31D2 JUMPI DUP5 DUP10 ADD MLOAD DUP3 SSTORE PUSH1 0x1 DUP3 ADD SWAP2 POP PUSH1 0x20 DUP6 ADD SWAP5 POP PUSH1 0x20 DUP2 ADD SWAP1 POP PUSH2 0x31AD JUMP JUMPDEST DUP7 DUP4 LT ISZERO PUSH2 0x31EF JUMPI DUP5 DUP10 ADD MLOAD PUSH2 0x31EB PUSH1 0x1F DUP10 AND DUP3 PUSH2 0x30F8 JUMP JUMPDEST DUP4 SSTORE POP JUMPDEST PUSH1 0x1 PUSH1 0x2 DUP9 MUL ADD DUP9 SSTORE POP POP POP JUMPDEST POP POP POP POP POP POP JUMP JUMPDEST PUSH1 0x0 PUSH1 0x40 DUP3 ADD SWAP1 POP PUSH2 0x3219 PUSH1 0x0 DUP4 ADD DUP6 PUSH2 0x211E JUMP JUMPDEST PUSH2 0x3226 PUSH1 0x20 DUP4 ADD DUP5 PUSH2 0x211E JUMP JUMPDEST SWAP4 SWAP3 POP POP POP JUMP JUMPDEST PUSH1 0x0 DUP2 MLOAD SWAP1 POP PUSH2 0x323C DUP2 PUSH2 0x2818 JUMP JUMPDEST SWAP3 SWAP2 POP POP JUMP JUMPDEST PUSH1 0x0 PUSH1 0x20 DUP3 DUP5 SUB SLT ISZERO PUSH2 0x3258 JUMPI PUSH2 0x3257 PUSH2 0x1E3C JUMP JUMPDEST JUMPDEST PUSH1 0x0 PUSH2 0x3266 DUP5 DUP3 DUP6 ADD PUSH2 0x322D JUMP JUMPDEST SWAP2 POP POP SWAP3 SWAP2 POP POP JUMP JUMPDEST PUSH32 0x455243313135353A2063616C6C6572206973206E6F7420746F6B656E206F776E PUSH1 0x0 DUP3 ADD MSTORE PUSH32 0x6572206F7220617070726F766564000000000000000000000000000000000000 PUSH1 0x20 DUP3 ADD MSTORE POP JUMP JUMPDEST PUSH1 0x0 PUSH2 0x32CB PUSH1 0x2E DUP4 PUSH2 0x2037 JUMP JUMPDEST SWAP2 POP PUSH2 0x32D6 DUP3 PUSH2 0x326F JUMP JUMPDEST PUSH1 0x40 DUP3 ADD SWAP1 POP SWAP2 SWAP1 POP JUMP JUMPDEST PUSH1 0x0 PUSH1 0x20 DUP3 ADD SWAP1 POP DUP2 DUP2 SUB PUSH1 0x0 DUP4 ADD MSTORE PUSH2 0x32FA DUP2 PUSH2 0x32BE JUMP JUMPDEST SWAP1 POP SWAP2 SWAP1 POP JUMP JUMPDEST PUSH1 0x0 DUP2 MLOAD SWAP1 POP SWAP2 SWAP1 POP JUMP JUMPDEST PUSH1 0x0 DUP3 DUP3 MSTORE PUSH1 0x20 DUP3 ADD SWAP1 POP SWAP3 SWAP2 POP POP JUMP JUMPDEST PUSH1 0x0 PUSH2 0x3328 DUP3 PUSH2 0x3301 JUMP JUMPDEST PUSH2 0x3332 DUP2 DUP6 PUSH2 0x330C JUMP JUMPDEST SWAP4 POP PUSH2 0x3342 DUP2 DUP6 PUSH1 0x20 DUP7 ADD PUSH2 0x2048 JUMP JUMPDEST PUSH2 0x334B DUP2 PUSH2 0x2072 JUMP JUMPDEST DUP5 ADD SWAP2 POP POP SWAP3 SWAP2 POP POP JUMP JUMPDEST PUSH1 0x0 PUSH1 0xA0 DUP3 ADD SWAP1 POP PUSH2 0x336B PUSH1 0x0 DUP4 ADD DUP9 PUSH2 0x211E JUMP JUMPDEST PUSH2 0x3378 PUSH1 0x20 DUP4 ADD DUP8 PUSH2 0x211E JUMP JUMPDEST PUSH2 0x3385 PUSH1 0x40 DUP4 ADD DUP7 PUSH2 0x1F1A JUMP JUMPDEST PUSH2 0x3392 PUSH1 0x60 DUP4 ADD DUP6 PUSH2 0x1F1A JUMP JUMPDEST DUP2 DUP2 SUB PUSH1 0x80 DUP4 ADD MSTORE PUSH2 0x33A4 DUP2 DUP5 PUSH2 0x331D JUMP JUMPDEST SWAP1 POP SWAP7 SWAP6 POP POP POP POP POP POP JUMP JUMPDEST PUSH1 0x0 DUP2 MLOAD SWAP1 POP PUSH2 0x33BF DUP2 PUSH2 0x1F70 JUMP JUMPDEST SWAP3 SWAP2 POP POP JUMP JUMPDEST PUSH1 0x0 PUSH1 0x20 DUP3 DUP5 SUB SLT ISZERO PUSH2 0x33DB JUMPI PUSH2 0x33DA PUSH2 0x1E3C JUMP JUMPDEST JUMPDEST PUSH1 0x0 PUSH2 0x33E9 DUP5 DUP3 DUP6 ADD PUSH2 0x33B0 JUMP JUMPDEST SWAP2 POP POP SWAP3 SWAP2 POP POP JUMP JUMPDEST PUSH1 0x0 DUP2 PUSH1 0xE0 SHR SWAP1 POP SWAP2 SWAP1 POP JUMP JUMPDEST PUSH1 0x0 PUSH1 0x3 RETURNDATASIZE GT ISZERO PUSH2 0x341E JUMPI PUSH1 0x4 PUSH1 0x0 DUP1 RETURNDATACOPY PUSH2 0x341B PUSH1 0x0 MLOAD PUSH2 0x33F2 JUMP JUMPDEST SWAP1 POP JUMPDEST SWAP1 JUMP JUMPDEST PUSH1 0x0 PUSH1 0x44 RETURNDATASIZE LT PUSH2 0x34AE JUMPI PUSH2 0x3433 PUSH2 0x1E32 JUMP JUMPDEST PUSH1 0x4 RETURNDATASIZE SUB PUSH1 0x4 DUP3 RETURNDATACOPY DUP1 MLOAD RETURNDATASIZE PUSH1 0x24 DUP3 ADD GT PUSH8 0xFFFFFFFFFFFFFFFF DUP3 GT OR ISZERO PUSH2 0x345B JUMPI POP POP PUSH2 0x34AE JUMP JUMPDEST DUP1 DUP3 ADD DUP1 MLOAD PUSH8 0xFFFFFFFFFFFFFFFF DUP2 GT ISZERO PUSH2 0x3479 JUMPI POP POP POP POP PUSH2 0x34AE JUMP JUMPDEST DUP1 PUSH1 0x20 DUP4 ADD ADD PUSH1 0x4 RETURNDATASIZE SUB DUP6 ADD DUP2 GT ISZERO PUSH2 0x3496 JUMPI POP POP POP POP POP PUSH2 0x34AE JUMP JUMPDEST PUSH2 0x34A5 DUP3 PUSH1 0x20 ADD DUP6 ADD DUP7 PUSH2 0x218F JUMP JUMPDEST DUP3 SWAP6 POP POP POP POP POP POP JUMPDEST SWAP1 JUMP JUMPDEST PUSH32 0x455243313135353A207472616E7366657220746F206E6F6E2D45524331313535 PUSH1 0x0 DUP3 ADD MSTORE PUSH32 0x526563656976657220696D706C656D656E746572000000000000000000000000 PUSH1 0x20 DUP3 ADD MSTORE POP JUMP JUMPDEST PUSH1 0x0 PUSH2 0x350D PUSH1 0x34 DUP4 PUSH2 0x2037 JUMP JUMPDEST SWAP2 POP PUSH2 0x3518 DUP3 PUSH2 0x34B1 JUMP JUMPDEST PUSH1 0x40 DUP3 ADD SWAP1 POP SWAP2 SWAP1 POP JUMP JUMPDEST PUSH1 0x0 PUSH1 0x20 DUP3 ADD SWAP1 POP DUP2 DUP2 SUB PUSH1 0x0 DUP4 ADD MSTORE PUSH2 0x353C DUP2 PUSH2 0x3500 JUMP JUMPDEST SWAP1 POP SWAP2 SWAP1 POP JUMP JUMPDEST PUSH32 0x455243313135353A204552433131353552656365697665722072656A65637465 PUSH1 0x0 DUP3 ADD MSTORE PUSH32 0x6420746F6B656E73000000000000000000000000000000000000000000000000 PUSH1 0x20 DUP3 ADD MSTORE POP JUMP JUMPDEST PUSH1 0x0 PUSH2 0x359F PUSH1 0x28 DUP4 PUSH2 0x2037 JUMP JUMPDEST SWAP2 POP PUSH2 0x35AA DUP3 PUSH2 0x3543 JUMP JUMPDEST PUSH1 0x40 DUP3 ADD SWAP1 POP SWAP2 SWAP1 POP JUMP JUMPDEST PUSH1 0x0 PUSH1 0x20 DUP3 ADD SWAP1 POP DUP2 DUP2 SUB PUSH1 0x0 DUP4 ADD MSTORE PUSH2 0x35CE DUP2 PUSH2 0x3592 JUMP JUMPDEST SWAP1 POP SWAP2 SWAP1 POP JUMP JUMPDEST PUSH32 0x455243313135353A2069647320616E6420616D6F756E7473206C656E67746820 PUSH1 0x0 DUP3 ADD MSTORE PUSH32 0x6D69736D61746368000000000000000000000000000000000000000000000000 PUSH1 0x20 DUP3 ADD MSTORE POP JUMP JUMPDEST PUSH1 0x0 PUSH2 0x3631 PUSH1 0x28 DUP4 PUSH2 0x2037 JUMP JUMPDEST SWAP2 POP PUSH2 0x363C DUP3 PUSH2 0x35D5 JUMP JUMPDEST PUSH1 0x40 DUP3 ADD SWAP1 POP SWAP2 SWAP1 POP JUMP JUMPDEST PUSH1 0x0 PUSH1 0x20 DUP3 ADD SWAP1 POP DUP2 DUP2 SUB PUSH1 0x0 DUP4 ADD MSTORE PUSH2 0x3660 DUP2 PUSH2 0x3624 JUMP JUMPDEST SWAP1 POP SWAP2 SWAP1 POP JUMP JUMPDEST PUSH32 0x455243313135353A207472616E7366657220746F20746865207A65726F206164 PUSH1 0x0 DUP3 ADD MSTORE PUSH32 0x6472657373000000000000000000000000000000000000000000000000000000 PUSH1 0x20 DUP3 ADD MSTORE POP JUMP JUMPDEST PUSH1 0x0 PUSH2 0x36C3 PUSH1 0x25 DUP4 PUSH2 0x2037 JUMP JUMPDEST SWAP2 POP PUSH2 0x36CE DUP3 PUSH2 0x3667 JUMP JUMPDEST PUSH1 0x40 DUP3 ADD SWAP1 POP SWAP2 SWAP1 POP JUMP JUMPDEST PUSH1 0x0 PUSH1 0x20 DUP3 ADD SWAP1 POP DUP2 DUP2 SUB PUSH1 0x0 DUP4 ADD MSTORE PUSH2 0x36F2 DUP2 PUSH2 0x36B6 JUMP JUMPDEST SWAP1 POP SWAP2 SWAP1 POP JUMP JUMPDEST PUSH32 0x455243313135353A20696E73756666696369656E742062616C616E636520666F PUSH1 0x0 DUP3 ADD MSTORE PUSH32 0x72207472616E7366657200000000000000000000000000000000000000000000 PUSH1 0x20 DUP3 ADD MSTORE POP JUMP JUMPDEST PUSH1 0x0 PUSH2 0x3755 PUSH1 0x2A DUP4 PUSH2 0x2037 JUMP JUMPDEST SWAP2 POP PUSH2 0x3760 DUP3 PUSH2 0x36F9 JUMP JUMPDEST PUSH1 0x40 DUP3 ADD SWAP1 POP SWAP2 SWAP1 POP JUMP JUMPDEST PUSH1 0x0 PUSH1 0x20 DUP3 ADD SWAP1 POP DUP2 DUP2 SUB PUSH1 0x0 DUP4 ADD MSTORE PUSH2 0x3784 DUP2 PUSH2 0x3748 JUMP JUMPDEST SWAP1 POP SWAP2 SWAP1 POP JUMP JUMPDEST PUSH1 0x0 PUSH1 0x40 DUP3 ADD SWAP1 POP DUP2 DUP2 SUB PUSH1 0x0 DUP4 ADD MSTORE PUSH2 0x37A5 DUP2 DUP6 PUSH2 0x2734 JUMP JUMPDEST SWAP1 POP DUP2 DUP2 SUB PUSH1 0x20 DUP4 ADD MSTORE PUSH2 0x37B9 DUP2 DUP5 PUSH2 0x2734 JUMP JUMPDEST SWAP1 POP SWAP4 SWAP3 POP POP POP JUMP JUMPDEST PUSH32 0x455243313135353A2073657474696E6720617070726F76616C20737461747573 PUSH1 0x0 DUP3 ADD MSTORE PUSH32 0x20666F722073656C660000000000000000000000000000000000000000000000 PUSH1 0x20 DUP3 ADD MSTORE POP JUMP JUMPDEST PUSH1 0x0 PUSH2 0x381E PUSH1 0x29 DUP4 PUSH2 0x2037 JUMP JUMPDEST SWAP2 POP PUSH2 0x3829 DUP3 PUSH2 0x37C2 JUMP JUMPDEST PUSH1 0x40 DUP3 ADD SWAP1 POP SWAP2 SWAP1 POP JUMP JUMPDEST PUSH1 0x0 PUSH1 0x20 DUP3 ADD SWAP1 POP DUP2 DUP2 SUB PUSH1 0x0 DUP4 ADD MSTORE PUSH2 0x384D DUP2 PUSH2 0x3811 JUMP JUMPDEST SWAP1 POP SWAP2 SWAP1 POP JUMP JUMPDEST PUSH1 0x0 PUSH1 0xA0 DUP3 ADD SWAP1 POP PUSH2 0x3869 PUSH1 0x0 DUP4 ADD DUP9 PUSH2 0x211E JUMP JUMPDEST PUSH2 0x3876 PUSH1 0x20 DUP4 ADD DUP8 PUSH2 0x211E JUMP JUMPDEST DUP2 DUP2 SUB PUSH1 0x40 DUP4 ADD MSTORE PUSH2 0x3888 DUP2 DUP7 PUSH2 0x2734 JUMP JUMPDEST SWAP1 POP DUP2 DUP2 SUB PUSH1 0x60 DUP4 ADD MSTORE PUSH2 0x389C DUP2 DUP6 PUSH2 0x2734 JUMP JUMPDEST SWAP1 POP DUP2 DUP2 SUB PUSH1 0x80 DUP4 ADD MSTORE PUSH2 0x38B0 DUP2 DUP5 PUSH2 0x331D JUMP JUMPDEST SWAP1 POP SWAP7 SWAP6 POP POP POP POP POP POP JUMP INVALID LOG2 PUSH5 0x6970667358 0x22 SLT KECCAK256 0xA7 0x23 0xBB 0xCB ADD 0x27 0xA6 PUSH5 0xE6006643C 0xB2 0xC8 MSTORE KECCAK256 EXP 0xAC ADDMOD 0xC1 CODECOPY 0xB8 CALLDATACOPY 0xD1 DUP11 PUSH6 0x30FEF70AF964 PUSH20 0x6F6C63430008110033697066733A2F2F516D526F MLOAD PUSH21 0x59454D36776B45586D4C3950476637717757485238 0x4A PUSH19 0x7A63326F424E37736E54676646416A46422F00 "
		},
		"gasEstimates": {
			"creation": {
				"codeDepositCost": "2915600",
				"executionCost": "infinite",
				"totalCost": "infinite"
			},
			"external": {
				"OPERATOR_FILTER_REGISTRY()": "infinite",
				"balanceOf(address,uint256)": "infinite",
				"balanceOfBatch(address[],uint256[])": "infinite",
				"initializeNFT(uint256,string)": "infinite",
				"isApprovedForAll(address,address)": "infinite",
				"owner()": "2611",
				"renounceOwnership()": "30465",
				"royaltyInfo(uint256,uint256)": "infinite",
				"safeBatchTransferFrom(address,address,uint256[],uint256[],bytes)": "infinite",
				"safeTransferFrom(address,address,uint256,uint256,bytes)": "infinite",
				"setApprovalForAll(address,bool)": "infinite",
				"setBaseURI(string)": "infinite",
				"supportsInterface(bytes4)": "951",
				"transferOwnership(address)": "30832",
				"uri(uint256)": "infinite"
			}
		},
		"methodIdentifiers": {
			"OPERATOR_FILTER_REGISTRY()": "41f43434",
			"balanceOf(address,uint256)": "00fdd58e",
			"balanceOfBatch(address[],uint256[])": "4e1273f4",
			"initializeNFT(uint256,string)": "2cda9103",
			"isApprovedForAll(address,address)": "e985e9c5",
			"owner()": "8da5cb5b",
			"renounceOwnership()": "715018a6",
			"royaltyInfo(uint256,uint256)": "2a55205a",
			"safeBatchTransferFrom(address,address,uint256[],uint256[],bytes)": "2eb2c2d6",
			"safeTransferFrom(address,address,uint256,uint256,bytes)": "f242432a",
			"setApprovalForAll(address,bool)": "a22cb465",
			"setBaseURI(string)": "55f804b3",
			"supportsInterface(bytes4)": "01ffc9a7",
			"transferOwnership(address)": "f2fde38b",
			"uri(uint256)": "0e89341c"
		}
	},
	"abi": [
		{
			"inputs": [],
			"stateMutability": "nonpayable",
			"type": "constructor"
		},
		{
			"inputs": [
				{
					"internalType": "address",
					"name": "operator",
					"type": "address"
				}
			],
			"name": "OperatorNotAllowed",
			"type": "error"
		},
		{
			"anonymous": false,
			"inputs": [
				{
					"indexed": true,
					"internalType": "address",
					"name": "account",
					"type": "address"
				},
				{
					"indexed": true,
					"internalType": "address",
					"name": "operator",
					"type": "address"
				},
				{
					"indexed": false,
					"internalType": "bool",
					"name": "approved",
					"type": "bool"
				}
			],
			"name": "ApprovalForAll",
			"type": "event"
		},
		{
			"anonymous": false,
			"inputs": [
				{
					"indexed": true,
					"internalType": "address",
					"name": "previousOwner",
					"type": "address"
				},
				{
					"indexed": true,
					"internalType": "address",
					"name": "newOwner",
					"type": "address"
				}
			],
			"name": "OwnershipTransferred",
			"type": "event"
		},
		{
			"anonymous": false,
			"inputs": [
				{
					"indexed": true,
					"internalType": "address",
					"name": "operator",
					"type": "address"
				},
				{
					"indexed": true,
					"internalType": "address",
					"name": "from",
					"type": "address"
				},
				{
					"indexed": true,
					"internalType": "address",
					"name": "to",
					"type": "address"
				},
				{
					"indexed": false,
					"internalType": "uint256[]",
					"name": "ids",
					"type": "uint256[]"
				},
				{
					"indexed": false,
					"internalType": "uint256[]",
					"name": "values",
					"type": "uint256[]"
				}
			],
			"name": "TransferBatch",
			"type": "event"
		},
		{
			"anonymous": false,
			"inputs": [
				{
					"indexed": true,
					"internalType": "address",
					"name": "operator",
					"type": "address"
				},
				{
					"indexed": true,
					"internalType": "address",
					"name": "from",
					"type": "address"
				},
				{
					"indexed": true,
					"internalType": "address",
					"name": "to",
					"type": "address"
				},
				{
					"indexed": false,
					"internalType": "uint256",
					"name": "id",
					"type": "uint256"
				},
				{
					"indexed": false,
					"internalType": "uint256",
					"name": "value",
					"type": "uint256"
				}
			],
			"name": "TransferSingle",
			"type": "event"
		},
		{
			"anonymous": false,
			"inputs": [
				{
					"indexed": false,
					"internalType": "string",
					"name": "value",
					"type": "string"
				},
				{
					"indexed": true,
					"internalType": "uint256",
					"name": "id",
					"type": "uint256"
				}
			],
			"name": "URI",
			"type": "event"
		},
		{
			"inputs": [],
			"name": "OPERATOR_FILTER_REGISTRY",
			"outputs": [
				{
					"internalType": "contract IOperatorFilterRegistry",
					"name": "",
					"type": "address"
				}
			],
			"stateMutability": "view",
			"type": "function"
		},
		{
			"inputs": [
				{
					"internalType": "address",
					"name": "account",
					"type": "address"
				},
				{
					"internalType": "uint256",
					"name": "id",
					"type": "uint256"
				}
			],
			"name": "balanceOf",
			"outputs": [
				{
					"internalType": "uint256",
					"name": "",
					"type": "uint256"
				}
			],
			"stateMutability": "view",
			"type": "function"
		},
		{
			"inputs": [
				{
					"internalType": "address[]",
					"name": "accounts",
					"type": "address[]"
				},
				{
					"internalType": "uint256[]",
					"name": "ids",
					"type": "uint256[]"
				}
			],
			"name": "balanceOfBatch",
			"outputs": [
				{
					"internalType": "uint256[]",
					"name": "",
					"type": "uint256[]"
				}
			],
			"stateMutability": "view",
			"type": "function"
		},
		{
			"inputs": [
				{
					"internalType": "uint256",
					"name": "tokenId",
					"type": "uint256"
				},
				{
					"internalType": "string",
					"name": "_tokenURI",
					"type": "string"
				}
			],
			"name": "initializeNFT",
			"outputs": [],
			"stateMutability": "nonpayable",
			"type": "function"
		},
		{
			"inputs": [
				{
					"internalType": "address",
					"name": "account",
					"type": "address"
				},
				{
					"internalType": "address",
					"name": "operator",
					"type": "address"
				}
			],
			"name": "isApprovedForAll",
			"outputs": [
				{
					"internalType": "bool",
					"name": "",
					"type": "bool"
				}
			],
			"stateMutability": "view",
			"type": "function"
		},
		{
			"inputs": [],
			"name": "owner",
			"outputs": [
				{
					"internalType": "address",
					"name": "",
					"type": "address"
				}
			],
			"stateMutability": "view",
			"type": "function"
		},
		{
			"inputs": [],
			"name": "renounceOwnership",
			"outputs": [],
			"stateMutability": "nonpayable",
			"type": "function"
		},
		{
			"inputs": [
				{
					"internalType": "uint256",
					"name": "_tokenId",
					"type": "uint256"
				},
				{
					"internalType": "uint256",
					"name": "_salePrice",
					"type": "uint256"
				}
			],
			"name": "royaltyInfo",
			"outputs": [
				{
					"internalType": "address",
					"name": "",
					"type": "address"
				},
				{
					"internalType": "uint256",
					"name": "",
					"type": "uint256"
				}
			],
			"stateMutability": "view",
			"type": "function"
		},
		{
			"inputs": [
				{
					"internalType": "address",
					"name": "from",
					"type": "address"
				},
				{
					"internalType": "address",
					"name": "to",
					"type": "address"
				},
				{
					"internalType": "uint256[]",
					"name": "ids",
					"type": "uint256[]"
				},
				{
					"internalType": "uint256[]",
					"name": "amounts",
					"type": "uint256[]"
				},
				{
					"internalType": "bytes",
					"name": "data",
					"type": "bytes"
				}
			],
			"name": "safeBatchTransferFrom",
			"outputs": [],
			"stateMutability": "nonpayable",
			"type": "function"
		},
		{
			"inputs": [
				{
					"internalType": "address",
					"name": "from",
					"type": "address"
				},
				{
					"internalType": "address",
					"name": "to",
					"type": "address"
				},
				{
					"internalType": "uint256",
					"name": "tokenId",
					"type": "uint256"
				},
				{
					"internalType": "uint256",
					"name": "amount",
					"type": "uint256"
				},
				{
					"internalType": "bytes",
					"name": "data",
					"type": "bytes"
				}
			],
			"name": "safeTransferFrom",
			"outputs": [],
			"stateMutability": "nonpayable",
			"type": "function"
		},
		{
			"inputs": [
				{
					"internalType": "address",
					"name": "operator",
					"type": "address"
				},
				{
					"internalType": "bool",
					"name": "approved",
					"type": "bool"
				}
			],
			"name": "setApprovalForAll",
			"outputs": [],
			"stateMutability": "nonpayable",
			"type": "function"
		},
		{
			"inputs": [
				{
					"internalType": "string",
					"name": "uri_",
					"type": "string"
				}
			],
			"name": "setBaseURI",
			"outputs": [],
			"stateMutability": "nonpayable",
			"type": "function"
		},
		{
			"inputs": [
				{
					"internalType": "bytes4",
					"name": "interfaceId",
					"type": "bytes4"
				}
			],
			"name": "supportsInterface",
			"outputs": [
				{
					"internalType": "bool",
					"name": "",
					"type": "bool"
				}
			],
			"stateMutability": "view",
			"type": "function"
		},
		{
			"inputs": [
				{
					"internalType": "address",
					"name": "newOwner",
					"type": "address"
				}
			],
			"name": "transferOwnership",
			"outputs": [],
			"stateMutability": "nonpayable",
			"type": "function"
		},
		{
			"inputs": [
				{
					"internalType": "uint256",
					"name": "tokenId",
					"type": "uint256"
				}
			],
			"name": "uri",
			"outputs": [
				{
					"internalType": "string",
					"name": "",
					"type": "string"
				}
			],
			"stateMutability": "view",
			"type": "function"
		}
	]
}