{
	"data": {
		"bytecode": {
			"linkReferences": {},
			"object": "60806040526040518060200160405280600081525060039081620000249190620014b7565b506040518060400160405280600981526020017f30626a65637472306e0000000000000000000000000000000000000000000000815250600990816200006b9190620014b7565b506040518060400160405280600981526020017f30626a65637472306e0000000000000000000000000000000000000000000000815250600a9081620000b29190620014b7565b50348015620000c057600080fd5b50733cc6cdda760b79bafa08df41ecfa224f810dceb6600160405180602001604052806000815250620000f981620003ae60201b60201c565b506200011a6200010e620003c360201b60201c565b620003cb60201b60201c565b60006daaeb6d7670e522a718067333cd4e73ffffffffffffffffffffffffffffffffffffffff163b11156200030f578015620001d5576daaeb6d7670e522a718067333cd4e73ffffffffffffffffffffffffffffffffffffffff16637d3e3dbe30846040518363ffffffff1660e01b81526004016200019b929190620015e3565b600060405180830381600087803b158015620001b657600080fd5b505af1158015620001cb573d6000803e3d6000fd5b505050506200030e565b600073ffffffffffffffffffffffffffffffffffffffff168273ffffffffffffffffffffffffffffffffffffffff16146200028f576daaeb6d7670e522a718067333cd4e73ffffffffffffffffffffffffffffffffffffffff1663a0af290330846040518363ffffffff1660e01b815260040162000255929190620015e3565b600060405180830381600087803b1580156200027057600080fd5b505af115801562000285573d6000803e3d6000fd5b505050506200030d565b6daaeb6d7670e522a718067333cd4e73ffffffffffffffffffffffffffffffffffffffff16634420e486306040518263ffffffff1660e01b8152600401620002d8919062001610565b600060405180830381600087803b158015620002f357600080fd5b505af115801562000308573d6000803e3d6000fd5b505050505b5b5b505062000322336200049160201b60201c565b62000336336103e8620005dd60201b60201c565b6200036060405180606001604052806036815260200162007161603691396200078060201b60201c565b620003a860016040518060400160405280600681526020017f312e6a736f6e00000000000000000000000000000000000000000000000000008152506200079560201b60201c565b62002097565b8060029081620003bf9190620014b7565b5050565b600033905090565b6000600560009054906101000a900473ffffffffffffffffffffffffffffffffffffffff16905081600560006101000a81548173ffffffffffffffffffffffffffffffffffffffff021916908373ffffffffffffffffffffffffffffffffffffffff1602179055508173ffffffffffffffffffffffffffffffffffffffff168173ffffffffffffffffffffffffffffffffffffffff167f8be0079c531659141344cd1fd0a4f28419497f9722a3daafe3b4186f6b6457e060405160405180910390a35050565b600660008273ffffffffffffffffffffffffffffffffffffffff1673ffffffffffffffffffffffffffffffffffffffff16815260200190815260200160002060009054906101000a900460ff16156200051c620004f3620003c360201b60201c565b73ffffffffffffffffffffffffffffffffffffffff1660146200084660201b6200107c1760201c565b6040516020016200052e91906200173b565b6040516020818303038152906040529062000581576040517f08c379a0000000000000000000000000000000000000000000000000000000008152600401620005789190620017d1565b60405180910390fd5b506001600660008373ffffffffffffffffffffffffffffffffffffffff1673ffffffffffffffffffffffffffffffffffffffff16815260200190815260200160002060006101000a81548160ff02191690831515021790555050565b620005ed62000aa160201b60201c565b6bffffffffffffffffffffffff16816bffffffffffffffffffffffff1611156200064e576040517f08c379a000000000000000000000000000000000000000000000000000000000815260040162000645906200186b565b60405180910390fd5b600073ffffffffffffffffffffffffffffffffffffffff168273ffffffffffffffffffffffffffffffffffffffff1603620006c0576040517f08c379a0000000000000000000000000000000000000000000000000000000008152600401620006b790620018dd565b60405180910390fd5b60405180604001604052808373ffffffffffffffffffffffffffffffffffffffff168152602001826bffffffffffffffffffffffff16815250600760008201518160000160006101000a81548173ffffffffffffffffffffffffffffffffffffffff021916908373ffffffffffffffffffffffffffffffffffffffff16021790555060208201518160000160146101000a8154816bffffffffffffffffffffffff02191690836bffffffffffffffffffffffff1602179055509050505050565b8060039081620007919190620014b7565b5050565b620007b5620007a9620003c360201b60201c565b62000aab60201b60201c565b6000620007c88362000b9e60201b60201c565b51146200080c576040517f08c379a000000000000000000000000000000000000000000000000000000000815260040162000803906200194f565b60405180910390fd5b62000830338360016040518060200160405280600081525062000c9c60201b60201c565b62000842828262000e8360201b60201c565b5050565b6060600060028360026200085b9190620019a0565b620008679190620019eb565b67ffffffffffffffff81111562000883576200088262001248565b5b6040519080825280601f01601f191660200182016040528015620008b65781602001600182028036833780820191505090505b5090507f300000000000000000000000000000000000000000000000000000000000000081600081518110620008f157620008f062001a26565b5b60200101907effffffffffffffffffffffffffffffffffffffffffffffffffffffffffffff1916908160001a9053507f78000000000000000000000000000000000000000000000000000000000000008160018151811062000958576200095762001a26565b5b60200101907effffffffffffffffffffffffffffffffffffffffffffffffffffffffffffff1916908160001a905350600060018460026200099a9190620019a0565b620009a69190620019eb565b90505b600181111562000a50577f3031323334353637383961626364656600000000000000000000000000000000600f861660108110620009ec57620009eb62001a26565b5b1a60f81b82828151811062000a065762000a0562001a26565b5b60200101907effffffffffffffffffffffffffffffffffffffffffffffffffffffffffffff1916908160001a905350600485901c94508062000a489062001a55565b9050620009a9565b506000841462000a97576040517f08c379a000000000000000000000000000000000000000000000000000000000815260040162000a8e9062001ad3565b60405180910390fd5b8091505092915050565b6000612710905090565b600660008273ffffffffffffffffffffffffffffffffffffffff1673ffffffffffffffffffffffffffffffffffffffff16815260200190815260200160002060009054906101000a900460ff1662000b3562000b0c620003c360201b60201c565b73ffffffffffffffffffffffffffffffffffffffff1660146200084660201b6200107c1760201c565b60405160200162000b47919062001b45565b6040516020818303038152906040529062000b9a576040517f08c379a000000000000000000000000000000000000000000000000000000000815260040162000b919190620017d1565b60405180910390fd5b5050565b6060600060046000848152602001908152602001600020805462000bc290620012a6565b80601f016020809104026020016040519081016040528092919081815260200182805462000bf090620012a6565b801562000c415780601f1062000c155761010080835404028352916020019162000c41565b820191906000526020600020905b81548152906001019060200180831162000c2357829003601f168201915b50505050509050600081511162000c6e5762000c688362000ef460201b620012b81760201c565b62000c94565b60038160405160200162000c8492919062001c07565b6040516020818303038152906040525b915050919050565b600073ffffffffffffffffffffffffffffffffffffffff168473ffffffffffffffffffffffffffffffffffffffff160362000d0e576040517f08c379a000000000000000000000000000000000000000000000000000000000815260040162000d059062001ca5565b60405180910390fd5b600062000d20620003c360201b60201c565b9050600062000d358562000f9060201b60201c565b9050600062000d4a8562000f9060201b60201c565b905062000d63836000898585896200101160201b60201c565b8460008088815260200190815260200160002060008973ffffffffffffffffffffffffffffffffffffffff1673ffffffffffffffffffffffffffffffffffffffff168152602001908152602001600020600082825462000dc49190620019eb565b925050819055508673ffffffffffffffffffffffffffffffffffffffff16600073ffffffffffffffffffffffffffffffffffffffff168473ffffffffffffffffffffffffffffffffffffffff167fc3d58168c5ae7397731d063d5bbf3d657854427343f4c083240f7aacaa2d0f62898960405162000e4492919062001cd8565b60405180910390a462000e63836000898585896200101960201b60201c565b62000e7a836000898989896200102160201b60201c565b50505050505050565b8060046000848152602001908152602001600020908162000ea59190620014b7565b50817f6bb7ff708619ba0610cba295a58592e0451dee2622938c8755667688daf3529b62000ed98462000b9e60201b60201c565b60405162000ee89190620017d1565b60405180910390a25050565b60606002805462000f0590620012a6565b80601f016020809104026020016040519081016040528092919081815260200182805462000f3390620012a6565b801562000f845780601f1062000f585761010080835404028352916020019162000f84565b820191906000526020600020905b81548152906001019060200180831162000f6657829003601f168201915b50505050509050919050565b60606000600167ffffffffffffffff81111562000fb25762000fb162001248565b5b60405190808252806020026020018201604052801562000fe15781602001602082028036833780820191505090505b509050828160008151811062000ffc5762000ffb62001a26565b5b60200260200101818152505080915050919050565b505050505050565b505050505050565b6200104d8473ffffffffffffffffffffffffffffffffffffffff166200121a60201b6200134c1760201c565b1562001212578373ffffffffffffffffffffffffffffffffffffffff1663f23a6e6187878686866040518663ffffffff1660e01b81526004016200109695949392919062001d62565b6020604051808303816000875af1925050508015620010d557506040513d601f19601f82011682018060405250810190620010d2919062001e32565b60015b6200118657620010e462001e71565b806308c379a003620011475750620010fb62001ecc565b8062001108575062001149565b806040517f08c379a00000000000000000000000000000000000000000000000000000000081526004016200113e9190620017d1565b60405180910390fd5b505b6040517f08c379a00000000000000000000000000000000000000000000000000000000081526004016200117d9062001fdd565b60405180910390fd5b63f23a6e6160e01b7bffffffffffffffffffffffffffffffffffffffffffffffffffffffff1916817bffffffffffffffffffffffffffffffffffffffffffffffffffffffff19161462001210576040517f08c379a0000000000000000000000000000000000000000000000000000000008152600401620012079062002075565b60405180910390fd5b505b505050505050565b6000808273ffffffffffffffffffffffffffffffffffffffff163b119050919050565b600081519050919050565b7f4e487b7100000000000000000000000000000000000000000000000000000000600052604160045260246000fd5b7f4e487b7100000000000000000000000000000000000000000000000000000000600052602260045260246000fd5b60006002820490506001821680620012bf57607f821691505b602082108103620012d557620012d462001277565b5b50919050565b60008190508160005260206000209050919050565b60006020601f8301049050919050565b600082821b905092915050565b6000600883026200133f7fffffffffffffffffffffffffffffffffffffffffffffffffffffffffffffffff8262001300565b6200134b868362001300565b95508019841693508086168417925050509392505050565b6000819050919050565b6000819050919050565b600062001398620013926200138c8462001363565b6200136d565b62001363565b9050919050565b6000819050919050565b620013b48362001377565b620013cc620013c3826200139f565b8484546200130d565b825550505050565b600090565b620013e3620013d4565b620013f0818484620013a9565b505050565b5b8181101562001418576200140c600082620013d9565b600181019050620013f6565b5050565b601f82111562001467576200143181620012db565b6200143c84620012f0565b810160208510156200144c578190505b620014646200145b85620012f0565b830182620013f5565b50505b505050565b600082821c905092915050565b60006200148c600019846008026200146c565b1980831691505092915050565b6000620014a7838362001479565b9150826002028217905092915050565b620014c2826200123d565b67ffffffffffffffff811115620014de57620014dd62001248565b5b620014ea8254620012a6565b620014f78282856200141c565b600060209050601f8311600181146200152f57600084156200151a578287015190505b62001526858262001499565b86555062001596565b601f1984166200153f86620012db565b60005b82811015620015695784890151825560018201915060208501945060208101905062001542565b8683101562001589578489015162001585601f89168262001479565b8355505b6001600288020188555050505b505050505050565b600073ffffffffffffffffffffffffffffffffffffffff82169050919050565b6000620015cb826200159e565b9050919050565b620015dd81620015be565b82525050565b6000604082019050620015fa6000830185620015d2565b620016096020830184620015d2565b9392505050565b6000602082019050620016276000830184620015d2565b92915050565b600081905092915050565b7f6163636f756e7420000000000000000000000000000000000000000000000000600082015250565b6000620016706008836200162d565b91506200167d8262001638565b600882019050919050565b60005b83811015620016a85780820151818401526020810190506200168b565b60008484015250505050565b6000620016c1826200123d565b620016cd81856200162d565b9350620016df81856020860162001688565b80840191505092915050565b7f20697320616c72656164792068617320616e206f70657261746f7220726f6c65600082015250565b6000620017236020836200162d565b91506200173082620016eb565b602082019050919050565b6000620017488262001661565b9150620017568284620016b4565b9150620017638262001714565b915081905092915050565b600082825260208201905092915050565b6000601f19601f8301169050919050565b60006200179d826200123d565b620017a981856200176e565b9350620017bb81856020860162001688565b620017c6816200177f565b840191505092915050565b60006020820190508181036000830152620017ed818462001790565b905092915050565b7f455243323938313a20726f79616c7479206665652077696c6c2065786365656460008201527f2073616c65507269636500000000000000000000000000000000000000000000602082015250565b600062001853602a836200176e565b91506200186082620017f5565b604082019050919050565b60006020820190508181036000830152620018868162001844565b9050919050565b7f455243323938313a20696e76616c696420726563656976657200000000000000600082015250565b6000620018c56019836200176e565b9150620018d2826200188d565b602082019050919050565b60006020820190508181036000830152620018f881620018b6565b9050919050565b7f4e465420616c7265616479206578697374730000000000000000000000000000600082015250565b6000620019376012836200176e565b91506200194482620018ff565b602082019050919050565b600060208201905081810360008301526200196a8162001928565b9050919050565b7f4e487b7100000000000000000000000000000000000000000000000000000000600052601160045260246000fd5b6000620019ad8262001363565b9150620019ba8362001363565b9250828202620019ca8162001363565b91508282048414831517620019e457620019e362001971565b5b5092915050565b6000620019f88262001363565b915062001a058362001363565b925082820190508082111562001a205762001a1f62001971565b5b92915050565b7f4e487b7100000000000000000000000000000000000000000000000000000000600052603260045260246000fd5b600062001a628262001363565b91506000820362001a785762001a7762001971565b5b600182039050919050565b7f537472696e67733a20686578206c656e67746820696e73756666696369656e74600082015250565b600062001abb6020836200176e565b915062001ac88262001a83565b602082019050919050565b6000602082019050818103600083015262001aee8162001aac565b9050919050565b7f206973206e6f7420616e206f70657261746f7200000000000000000000000000600082015250565b600062001b2d6013836200162d565b915062001b3a8262001af5565b601382019050919050565b600062001b528262001661565b915062001b608284620016b4565b915062001b6d8262001b1e565b915081905092915050565b6000815462001b8781620012a6565b62001b9381866200162d565b9450600182166000811462001bb1576001811462001bc75762001bfe565b60ff198316865281151582028601935062001bfe565b62001bd285620012db565b60005b8381101562001bf65781548189015260018201915060208101905062001bd5565b838801955050505b50505092915050565b600062001c15828562001b78565b915062001c238284620016b4565b91508190509392505050565b7f455243313135353a206d696e7420746f20746865207a65726f2061646472657360008201527f7300000000000000000000000000000000000000000000000000000000000000602082015250565b600062001c8d6021836200176e565b915062001c9a8262001c2f565b604082019050919050565b6000602082019050818103600083015262001cc08162001c7e565b9050919050565b62001cd28162001363565b82525050565b600060408201905062001cef600083018562001cc7565b62001cfe602083018462001cc7565b9392505050565b600081519050919050565b600082825260208201905092915050565b600062001d2e8262001d05565b62001d3a818562001d10565b935062001d4c81856020860162001688565b62001d57816200177f565b840191505092915050565b600060a08201905062001d796000830188620015d2565b62001d886020830187620015d2565b62001d97604083018662001cc7565b62001da6606083018562001cc7565b818103608083015262001dba818462001d21565b90509695505050505050565b6000604051905090565b600080fd5b60007fffffffff0000000000000000000000000000000000000000000000000000000082169050919050565b62001e0c8162001dd5565b811462001e1857600080fd5b50565b60008151905062001e2c8162001e01565b92915050565b60006020828403121562001e4b5762001e4a62001dd0565b5b600062001e5b8482850162001e1b565b91505092915050565b60008160e01c9050919050565b600060033d111562001e935760046000803e62001e9060005162001e64565b90505b90565b62001ea1826200177f565b810181811067ffffffffffffffff8211171562001ec35762001ec262001248565b5b80604052505050565b600060443d1062001f645762001ee162001dc6565b60043d036004823e80513d602482011167ffffffffffffffff8211171562001f0b57505062001f64565b808201805167ffffffffffffffff81111562001f2b575050505062001f64565b80602083010160043d03850181111562001f4a57505050505062001f64565b62001f5b8260200185018662001e96565b82955050505050505b90565b7f455243313135353a207472616e7366657220746f206e6f6e2d4552433131353560008201527f526563656976657220696d706c656d656e746572000000000000000000000000602082015250565b600062001fc56034836200176e565b915062001fd28262001f67565b604082019050919050565b6000602082019050818103600083015262001ff88162001fb6565b9050919050565b7f455243313135353a204552433131353552656365697665722072656a6563746560008201527f6420746f6b656e73000000000000000000000000000000000000000000000000602082015250565b60006200205d6028836200176e565b91506200206a8262001fff565b604082019050919050565b6000602082019050818103600083015262002090816200204e565b9050919050565b6150ba80620020a76000396000f3fe608060405234801561001057600080fd5b50600436106101c35760003560e01c80635944c753116100f957806395d89b4111610097578063b219f7d711610071578063b219f7d7146104c5578063e985e9c5146104e1578063f242432a14610511578063f2fde38b1461052d576101c3565b806395d89b4114610481578063a22cb4651461049f578063aa1b103f146104bb576101c3565b8063872a2803116100d3578063872a28031461040f5780638a616bc01461042b5780638da5cb5b146104475780639324b42a14610465576101c3565b80635944c753146103b95780636d70f7ae146103d5578063715018a614610405576101c3565b806327ac0c58116101665780632eb2c2d6116101405780632eb2c2d61461033357806341f434341461034f5780634e1273f41461036d57806355f804b31461039d576101c3565b806327ac0c58146102ca5780632a55205a146102e65780632cda910314610317576101c3565b806306fdde03116101a257806306fdde03146102445780630e89341c14610262578063156e29f614610292578063162094c4146102ae576101c3565b8062fdd58e146101c857806301ffc9a7146101f857806304634d8d14610228575b600080fd5b6101e260048036038101906101dd9190612f8e565b610549565b6040516101ef9190612fdd565b60405180910390f35b610212600480360381019061020d9190613050565b610611565b60405161021f9190613098565b60405180910390f35b610242600480360381019061023d91906130f7565b610623565b005b61024c610639565b60405161025991906131c7565b60405180910390f35b61027c600480360381019061027791906131e9565b6106c7565b60405161028991906131c7565b60405180910390f35b6102ac60048036038101906102a79190613216565b6107ac565b005b6102c860048036038101906102c3919061339e565b610828565b005b6102e460048036038101906102df91906133fa565b610846565b005b61030060048036038101906102fb9190613427565b61085a565b60405161030e929190613476565b60405180910390f35b610331600480360381019061032c919061339e565b610a44565b005b61034d60048036038101906103489190613608565b610aca565b005b610357610b1d565b6040516103649190613736565b60405180910390f35b61038760048036038101906103829190613814565b610b2f565b604051610394919061394a565b60405180910390f35b6103b760048036038101906103b2919061396c565b610c48565b005b6103d360048036038101906103ce91906139b5565b610c64565b005b6103ef60048036038101906103ea91906133fa565b610c7c565b6040516103fc9190613098565b60405180910390f35b61040d610cd2565b005b61042960048036038101906104249190613a08565b610ce6565b005b610445600480360381019061044091906131e9565b610d6a565b005b61044f610d7e565b60405161045c9190613a93565b60405180910390f35b61047f600480360381019061047a9190613216565b610da8565b005b610489610dc8565b60405161049691906131c7565b60405180910390f35b6104b960048036038101906104b49190613ada565b610e56565b005b6104c3610eec565b005b6104df60048036038101906104da91906133fa565b610efe565b005b6104fb60048036038101906104f69190613b1a565b610f12565b6040516105089190613098565b60405180910390f35b61052b60048036038101906105269190613b5a565b610fa6565b005b610547600480360381019061054291906133fa565b610ff9565b005b60008073ffffffffffffffffffffffffffffffffffffffff168373ffffffffffffffffffffffffffffffffffffffff16036105b9576040517f08c379a00000000000000000000000000000000000000000000000000000000081526004016105b090613c63565b60405180910390fd5b60008083815260200190815260200160002060008473ffffffffffffffffffffffffffffffffffffffff1673ffffffffffffffffffffffffffffffffffffffff16815260200190815260200160002054905092915050565b600061061c8261136f565b9050919050565b61062b6113e9565b6106358282611467565b5050565b6009805461064690613cb2565b80601f016020809104026020016040519081016040528092919081815260200182805461067290613cb2565b80156106bf5780601f10610694576101008083540402835291602001916106bf565b820191906000526020600020905b8154815290600101906020018083116106a257829003601f168201915b505050505081565b606060006004600084815260200190815260200160002080546106e990613cb2565b80601f016020809104026020016040519081016040528092919081815260200182805461071590613cb2565b80156107625780601f1061073757610100808354040283529160200191610762565b820191906000526020600020905b81548152906001019060200180831161074557829003601f168201915b5050505050905060008151116107805761077b836112b8565b6107a4565b600381604051602001610794929190613db7565b6040516020818303038152906040525b915050919050565b6107bc6107b76115fc565b611604565b60006107c7836106c7565b5103610808576040517f08c379a00000000000000000000000000000000000000000000000000000000081526004016107ff90613e27565b60405180910390fd5b610823838383604051806020016040528060008152506116dd565b505050565b6108386108336115fc565b611604565b610842828261188d565b5050565b61084e6113e9565b610857816118f2565b50565b6000806000600860008681526020019081526020016000206040518060400160405290816000820160009054906101000a900473ffffffffffffffffffffffffffffffffffffffff1673ffffffffffffffffffffffffffffffffffffffff1673ffffffffffffffffffffffffffffffffffffffff1681526020016000820160149054906101000a90046bffffffffffffffffffffffff166bffffffffffffffffffffffff166bffffffffffffffffffffffff16815250509050600073ffffffffffffffffffffffffffffffffffffffff16816000015173ffffffffffffffffffffffffffffffffffffffff16036109ef5760076040518060400160405290816000820160009054906101000a900473ffffffffffffffffffffffffffffffffffffffff1673ffffffffffffffffffffffffffffffffffffffff1673ffffffffffffffffffffffffffffffffffffffff1681526020016000820160149054906101000a90046bffffffffffffffffffffffff166bffffffffffffffffffffffff166bffffffffffffffffffffffff168152505090505b60006109f9611a24565b6bffffffffffffffffffffffff1682602001516bffffffffffffffffffffffff1686610a259190613e76565b610a2f9190613ee7565b90508160000151819350935050509250929050565b610a54610a4f6115fc565b611604565b6000610a5f836106c7565b5114610aa0576040517f08c379a0000000000000000000000000000000000000000000000000000000008152600401610a9790613f64565b60405180910390fd5b610abc33836001604051806020016040528060008152506116dd565b610ac6828261188d565b5050565b843373ffffffffffffffffffffffffffffffffffffffff168173ffffffffffffffffffffffffffffffffffffffff1614610b0857610b0733611a2e565b5b610b158686868686611b2b565b505050505050565b6daaeb6d7670e522a718067333cd4e81565b60608151835114610b75576040517f08c379a0000000000000000000000000000000000000000000000000000000008152600401610b6c90613ff6565b60405180910390fd5b6000835167ffffffffffffffff811115610b9257610b91613273565b5b604051908082528060200260200182016040528015610bc05781602001602082028036833780820191505090505b50905060005b8451811015610c3d57610c0d858281518110610be557610be4614016565b5b6020026020010151858381518110610c0057610bff614016565b5b6020026020010151610549565b828281518110610c2057610c1f614016565b5b60200260200101818152505080610c3690614045565b9050610bc6565b508091505092915050565b610c58610c536115fc565b611604565b610c6181611bcc565b50565b610c6c6113e9565b610c77838383611bdf565b505050565b6000600660008373ffffffffffffffffffffffffffffffffffffffff1673ffffffffffffffffffffffffffffffffffffffff16815260200190815260200160002060009054906101000a900460ff169050919050565b610cda6113e9565b610ce46000611d86565b565b610cf6610cf16115fc565b611604565b60005b8351811015610d6457610d51848281518110610d1857610d17614016565b5b602002602001015184848481518110610d3457610d33614016565b5b6020026020010151604051806020016040528060008152506116dd565b8080610d5c90614045565b915050610cf9565b50505050565b610d726113e9565b610d7b81611e4c565b50565b6000600560009054906101000a900473ffffffffffffffffffffffffffffffffffffffff16905090565b610db8610db36115fc565b611604565b610dc3838383611eab565b505050565b600a8054610dd590613cb2565b80601f0160208091040260200160405190810160405280929190818152602001828054610e0190613cb2565b8015610e4e5780601f10610e2357610100808354040283529160200191610e4e565b820191906000526020600020905b815481529060010190602001808311610e3157829003601f168201915b505050505081565b81610e6081611a2e565b610e68610d7e565b73ffffffffffffffffffffffffffffffffffffffff168373ffffffffffffffffffffffffffffffffffffffff1614610ed5576040517f08c379a0000000000000000000000000000000000000000000000000000000008152600401610ecc906140ff565b60405180910390fd5b610ee7610ee06115fc565b84846120f1565b505050565b610ef46113e9565b610efc61225d565b565b610f066113e9565b610f0f816122aa565b50565b6000600160008473ffffffffffffffffffffffffffffffffffffffff1673ffffffffffffffffffffffffffffffffffffffff16815260200190815260200160002060008373ffffffffffffffffffffffffffffffffffffffff1673ffffffffffffffffffffffffffffffffffffffff16815260200190815260200160002060009054906101000a900460ff16905092915050565b843373ffffffffffffffffffffffffffffffffffffffff168173ffffffffffffffffffffffffffffffffffffffff1614610fe457610fe333611a2e565b5b610ff18686868686612305565b505050505050565b6110016113e9565b600073ffffffffffffffffffffffffffffffffffffffff168173ffffffffffffffffffffffffffffffffffffffff1603611070576040517f08c379a000000000000000000000000000000000000000000000000000000000815260040161106790614191565b60405180910390fd5b61107981611d86565b50565b60606000600283600261108f9190613e76565b61109991906141b1565b67ffffffffffffffff8111156110b2576110b1613273565b5b6040519080825280601f01601f1916602001820160405280156110e45781602001600182028036833780820191505090505b5090507f30000000000000000000000000000000000000000000000000000000000000008160008151811061111c5761111b614016565b5b60200101907effffffffffffffffffffffffffffffffffffffffffffffffffffffffffffff1916908160001a9053507f7800000000000000000000000000000000000000000000000000000000000000816001815181106111805761117f614016565b5b60200101907effffffffffffffffffffffffffffffffffffffffffffffffffffffffffffff1916908160001a905350600060018460026111c09190613e76565b6111ca91906141b1565b90505b600181111561126a577f3031323334353637383961626364656600000000000000000000000000000000600f86166010811061120c5761120b614016565b5b1a60f81b82828151811061122357611222614016565b5b60200101907effffffffffffffffffffffffffffffffffffffffffffffffffffffffffffff1916908160001a905350600485901c945080611263906141e5565b90506111cd565b50600084146112ae576040517f08c379a00000000000000000000000000000000000000000000000000000000081526004016112a59061425a565b60405180910390fd5b8091505092915050565b6060600280546112c790613cb2565b80601f01602080910402602001604051908101604052809291908181526020018280546112f390613cb2565b80156113405780601f1061131557610100808354040283529160200191611340565b820191906000526020600020905b81548152906001019060200180831161132357829003601f168201915b50505050509050919050565b6000808273ffffffffffffffffffffffffffffffffffffffff163b119050919050565b60007f2a55205a000000000000000000000000000000000000000000000000000000007bffffffffffffffffffffffffffffffffffffffffffffffffffffffff1916827bffffffffffffffffffffffffffffffffffffffffffffffffffffffff191614806113e257506113e1826123a6565b5b9050919050565b6113f16115fc565b73ffffffffffffffffffffffffffffffffffffffff1661140f610d7e565b73ffffffffffffffffffffffffffffffffffffffff1614611465576040517f08c379a000000000000000000000000000000000000000000000000000000000815260040161145c906142c6565b60405180910390fd5b565b61146f611a24565b6bffffffffffffffffffffffff16816bffffffffffffffffffffffff1611156114cd576040517f08c379a00000000000000000000000000000000000000000000000000000000081526004016114c490614358565b60405180910390fd5b600073ffffffffffffffffffffffffffffffffffffffff168273ffffffffffffffffffffffffffffffffffffffff160361153c576040517f08c379a0000000000000000000000000000000000000000000000000000000008152600401611533906143c4565b60405180910390fd5b60405180604001604052808373ffffffffffffffffffffffffffffffffffffffff168152602001826bffffffffffffffffffffffff16815250600760008201518160000160006101000a81548173ffffffffffffffffffffffffffffffffffffffff021916908373ffffffffffffffffffffffffffffffffffffffff16021790555060208201518160000160146101000a8154816bffffffffffffffffffffffff02191690836bffffffffffffffffffffffff1602179055509050505050565b600033905090565b600660008273ffffffffffffffffffffffffffffffffffffffff1673ffffffffffffffffffffffffffffffffffffffff16815260200190815260200160002060009054906101000a900460ff1661167961165c6115fc565b73ffffffffffffffffffffffffffffffffffffffff16601461107c565b604051602001611689919061447c565b604051602081830303815290604052906116d9576040517f08c379a00000000000000000000000000000000000000000000000000000000081526004016116d091906131c7565b60405180910390fd5b5050565b600073ffffffffffffffffffffffffffffffffffffffff168473ffffffffffffffffffffffffffffffffffffffff160361174c576040517f08c379a00000000000000000000000000000000000000000000000000000000081526004016117439061451b565b60405180910390fd5b60006117566115fc565b9050600061176385612488565b9050600061177085612488565b905061178183600089858589612502565b8460008088815260200190815260200160002060008973ffffffffffffffffffffffffffffffffffffffff1673ffffffffffffffffffffffffffffffffffffffff16815260200190815260200160002060008282546117e091906141b1565b925050819055508673ffffffffffffffffffffffffffffffffffffffff16600073ffffffffffffffffffffffffffffffffffffffff168473ffffffffffffffffffffffffffffffffffffffff167fc3d58168c5ae7397731d063d5bbf3d657854427343f4c083240f7aacaa2d0f62898960405161185e92919061453b565b60405180910390a46118758360008985858961250a565b61188483600089898989612512565b50505050505050565b806004600084815260200190815260200160002090816118ad91906146f1565b50817f6bb7ff708619ba0610cba295a58592e0451dee2622938c8755667688daf3529b6118d9846106c7565b6040516118e691906131c7565b60405180910390a25050565b600660008273ffffffffffffffffffffffffffffffffffffffff1673ffffffffffffffffffffffffffffffffffffffff16815260200190815260200160002060009054906101000a900460ff161561196861194b6115fc565b73ffffffffffffffffffffffffffffffffffffffff16601461107c565b604051602001611978919061480f565b604051602081830303815290604052906119c8576040517f08c379a00000000000000000000000000000000000000000000000000000000081526004016119bf91906131c7565b60405180910390fd5b506001600660008373ffffffffffffffffffffffffffffffffffffffff1673ffffffffffffffffffffffffffffffffffffffff16815260200190815260200160002060006101000a81548160ff02191690831515021790555050565b6000612710905090565b60006daaeb6d7670e522a718067333cd4e73ffffffffffffffffffffffffffffffffffffffff163b1115611b28576daaeb6d7670e522a718067333cd4e73ffffffffffffffffffffffffffffffffffffffff1663c617113430836040518363ffffffff1660e01b8152600401611aa592919061483c565b602060405180830381865afa158015611ac2573d6000803e3d6000fd5b505050506040513d601f19601f82011682018060405250810190611ae6919061487a565b611b2757806040517fede71dcc000000000000000000000000000000000000000000000000000000008152600401611b1e9190613a93565b60405180910390fd5b5b50565b611b336115fc565b73ffffffffffffffffffffffffffffffffffffffff168573ffffffffffffffffffffffffffffffffffffffff161480611b795750611b7885611b736115fc565b610f12565b5b611bb8576040517f08c379a0000000000000000000000000000000000000000000000000000000008152600401611baf90614919565b60405180910390fd5b611bc585858585856126e9565b5050505050565b8060039081611bdb91906146f1565b5050565b611be7611a24565b6bffffffffffffffffffffffff16816bffffffffffffffffffffffff161115611c45576040517f08c379a0000000000000000000000000000000000000000000000000000000008152600401611c3c90614358565b60405180910390fd5b600073ffffffffffffffffffffffffffffffffffffffff168273ffffffffffffffffffffffffffffffffffffffff1603611cb4576040517f08c379a0000000000000000000000000000000000000000000000000000000008152600401611cab90614985565b60405180910390fd5b60405180604001604052808373ffffffffffffffffffffffffffffffffffffffff168152602001826bffffffffffffffffffffffff168152506008600085815260200190815260200160002060008201518160000160006101000a81548173ffffffffffffffffffffffffffffffffffffffff021916908373ffffffffffffffffffffffffffffffffffffffff16021790555060208201518160000160146101000a8154816bffffffffffffffffffffffff02191690836bffffffffffffffffffffffff160217905550905050505050565b6000600560009054906101000a900473ffffffffffffffffffffffffffffffffffffffff16905081600560006101000a81548173ffffffffffffffffffffffffffffffffffffffff021916908373ffffffffffffffffffffffffffffffffffffffff1602179055508173ffffffffffffffffffffffffffffffffffffffff168173ffffffffffffffffffffffffffffffffffffffff167f8be0079c531659141344cd1fd0a4f28419497f9722a3daafe3b4186f6b6457e060405160405180910390a35050565b60086000828152602001908152602001600020600080820160006101000a81549073ffffffffffffffffffffffffffffffffffffffff02191690556000820160146101000a8154906bffffffffffffffffffffffff0219169055505050565b600073ffffffffffffffffffffffffffffffffffffffff168373ffffffffffffffffffffffffffffffffffffffff1603611f1a576040517f08c379a0000000000000000000000000000000000000000000000000000000008152600401611f1190614a17565b60405180910390fd5b6000611f246115fc565b90506000611f3184612488565b90506000611f3e84612488565b9050611f5e83876000858560405180602001604052806000815250612502565b600080600087815260200190815260200160002060008873ffffffffffffffffffffffffffffffffffffffff1673ffffffffffffffffffffffffffffffffffffffff16815260200190815260200160002054905084811015611ff5576040517f08c379a0000000000000000000000000000000000000000000000000000000008152600401611fec90614aa9565b60405180910390fd5b84810360008088815260200190815260200160002060008973ffffffffffffffffffffffffffffffffffffffff1673ffffffffffffffffffffffffffffffffffffffff16815260200190815260200160002081905550600073ffffffffffffffffffffffffffffffffffffffff168773ffffffffffffffffffffffffffffffffffffffff168573ffffffffffffffffffffffffffffffffffffffff167fc3d58168c5ae7397731d063d5bbf3d657854427343f4c083240f7aacaa2d0f6289896040516120c292919061453b565b60405180910390a46120e88488600086866040518060200160405280600081525061250a565b50505050505050565b8173ffffffffffffffffffffffffffffffffffffffff168373ffffffffffffffffffffffffffffffffffffffff160361215f576040517f08c379a000000000000000000000000000000000000000000000000000000000815260040161215690614b3b565b60405180910390fd5b80600160008573ffffffffffffffffffffffffffffffffffffffff1673ffffffffffffffffffffffffffffffffffffffff16815260200190815260200160002060008473ffffffffffffffffffffffffffffffffffffffff1673ffffffffffffffffffffffffffffffffffffffff16815260200190815260200160002060006101000a81548160ff0219169083151502179055508173ffffffffffffffffffffffffffffffffffffffff168373ffffffffffffffffffffffffffffffffffffffff167f17307eab39ab6107e8899845ad3d59bd9653f200f220920489ca2b5937696c31836040516122509190613098565b60405180910390a3505050565b6007600080820160006101000a81549073ffffffffffffffffffffffffffffffffffffffff02191690556000820160146101000a8154906bffffffffffffffffffffffff02191690555050565b6122b381611604565b600660008273ffffffffffffffffffffffffffffffffffffffff1673ffffffffffffffffffffffffffffffffffffffff16815260200190815260200160002060006101000a81549060ff021916905550565b61230d6115fc565b73ffffffffffffffffffffffffffffffffffffffff168573ffffffffffffffffffffffffffffffffffffffff16148061235357506123528561234d6115fc565b610f12565b5b612392576040517f08c379a000000000000000000000000000000000000000000000000000000000815260040161238990614919565b60405180910390fd5b61239f8585858585612a0a565b5050505050565b60007fd9b67a26000000000000000000000000000000000000000000000000000000007bffffffffffffffffffffffffffffffffffffffffffffffffffffffff1916827bffffffffffffffffffffffffffffffffffffffffffffffffffffffff1916148061247157507f0e89341c000000000000000000000000000000000000000000000000000000007bffffffffffffffffffffffffffffffffffffffffffffffffffffffff1916827bffffffffffffffffffffffffffffffffffffffffffffffffffffffff1916145b80612481575061248082612ca5565b5b9050919050565b60606000600167ffffffffffffffff8111156124a7576124a6613273565b5b6040519080825280602002602001820160405280156124d55781602001602082028036833780820191505090505b50905082816000815181106124ed576124ec614016565b5b60200260200101818152505080915050919050565b505050505050565b505050505050565b6125318473ffffffffffffffffffffffffffffffffffffffff1661134c565b156126e1578373ffffffffffffffffffffffffffffffffffffffff1663f23a6e6187878686866040518663ffffffff1660e01b8152600401612577959493929190614bb0565b6020604051808303816000875af19250505080156125b357506040513d601f19601f820116820180604052508101906125b09190614c1f565b60015b612658576125bf614c59565b806308c379a00361261b57506125d3614c7b565b806125de575061261d565b806040517f08c379a000000000000000000000000000000000000000000000000000000000815260040161261291906131c7565b60405180910390fd5b505b6040517f08c379a000000000000000000000000000000000000000000000000000000000815260040161264f90614d7d565b60405180910390fd5b63f23a6e6160e01b7bffffffffffffffffffffffffffffffffffffffffffffffffffffffff1916817bffffffffffffffffffffffffffffffffffffffffffffffffffffffff1916146126df576040517f08c379a00000000000000000000000000000000000000000000000000000000081526004016126d690614e0f565b60405180910390fd5b505b505050505050565b815183511461272d576040517f08c379a000000000000000000000000000000000000000000000000000000000815260040161272490614ea1565b60405180910390fd5b600073ffffffffffffffffffffffffffffffffffffffff168473ffffffffffffffffffffffffffffffffffffffff160361279c576040517f08c379a000000000000000000000000000000000000000000000000000000000815260040161279390614f33565b60405180910390fd5b60006127a66115fc565b90506127b6818787878787612502565b60005b84518110156129675760008582815181106127d7576127d6614016565b5b6020026020010151905060008583815181106127f6576127f5614016565b5b60200260200101519050600080600084815260200190815260200160002060008b73ffffffffffffffffffffffffffffffffffffffff1673ffffffffffffffffffffffffffffffffffffffff16815260200190815260200160002054905081811015612897576040517f08c379a000000000000000000000000000000000000000000000000000000000815260040161288e90614fc5565b60405180910390fd5b81810360008085815260200190815260200160002060008c73ffffffffffffffffffffffffffffffffffffffff1673ffffffffffffffffffffffffffffffffffffffff168152602001908152602001600020819055508160008085815260200190815260200160002060008b73ffffffffffffffffffffffffffffffffffffffff1673ffffffffffffffffffffffffffffffffffffffff168152602001908152602001600020600082825461294c91906141b1565b925050819055505050508061296090614045565b90506127b9565b508473ffffffffffffffffffffffffffffffffffffffff168673ffffffffffffffffffffffffffffffffffffffff168273ffffffffffffffffffffffffffffffffffffffff167f4a39dc06d4c0dbc64b70af90fd698a233a518aa5d07e595d983b8c0526c8f7fb87876040516129de929190614fe5565b60405180910390a46129f481878787878761250a565b612a02818787878787612d0f565b505050505050565b600073ffffffffffffffffffffffffffffffffffffffff168473ffffffffffffffffffffffffffffffffffffffff1603612a79576040517f08c379a0000000000000000000000000000000000000000000000000000000008152600401612a7090614f33565b60405180910390fd5b6000612a836115fc565b90506000612a9085612488565b90506000612a9d85612488565b9050612aad838989858589612502565b600080600088815260200190815260200160002060008a73ffffffffffffffffffffffffffffffffffffffff1673ffffffffffffffffffffffffffffffffffffffff16815260200190815260200160002054905085811015612b44576040517f08c379a0000000000000000000000000000000000000000000000000000000008152600401612b3b90614fc5565b60405180910390fd5b85810360008089815260200190815260200160002060008b73ffffffffffffffffffffffffffffffffffffffff1673ffffffffffffffffffffffffffffffffffffffff168152602001908152602001600020819055508560008089815260200190815260200160002060008a73ffffffffffffffffffffffffffffffffffffffff1673ffffffffffffffffffffffffffffffffffffffff1681526020019081526020016000206000828254612bf991906141b1565b925050819055508773ffffffffffffffffffffffffffffffffffffffff168973ffffffffffffffffffffffffffffffffffffffff168573ffffffffffffffffffffffffffffffffffffffff167fc3d58168c5ae7397731d063d5bbf3d657854427343f4c083240f7aacaa2d0f628a8a604051612c7692919061453b565b60405180910390a4612c8c848a8a86868a61250a565b612c9a848a8a8a8a8a612512565b505050505050505050565b60007f01ffc9a7000000000000000000000000000000000000000000000000000000007bffffffffffffffffffffffffffffffffffffffffffffffffffffffff1916827bffffffffffffffffffffffffffffffffffffffffffffffffffffffff1916149050919050565b612d2e8473ffffffffffffffffffffffffffffffffffffffff1661134c565b15612ede578373ffffffffffffffffffffffffffffffffffffffff1663bc197c8187878686866040518663ffffffff1660e01b8152600401612d7495949392919061501c565b6020604051808303816000875af1925050508015612db057506040513d601f19601f82011682018060405250810190612dad9190614c1f565b60015b612e5557612dbc614c59565b806308c379a003612e185750612dd0614c7b565b80612ddb5750612e1a565b806040517f08c379a0000000000000000000000000000000000000000000000000000000008152600401612e0f91906131c7565b60405180910390fd5b505b6040517f08c379a0000000000000000000000000000000000000000000000000000000008152600401612e4c90614d7d565b60405180910390fd5b63bc197c8160e01b7bffffffffffffffffffffffffffffffffffffffffffffffffffffffff1916817bffffffffffffffffffffffffffffffffffffffffffffffffffffffff191614612edc576040517f08c379a0000000000000000000000000000000000000000000000000000000008152600401612ed390614e0f565b60405180910390fd5b505b505050505050565b6000604051905090565b600080fd5b600080fd5b600073ffffffffffffffffffffffffffffffffffffffff82169050919050565b6000612f2582612efa565b9050919050565b612f3581612f1a565b8114612f4057600080fd5b50565b600081359050612f5281612f2c565b92915050565b6000819050919050565b612f6b81612f58565b8114612f7657600080fd5b50565b600081359050612f8881612f62565b92915050565b60008060408385031215612fa557612fa4612ef0565b5b6000612fb385828601612f43565b9250506020612fc485828601612f79565b9150509250929050565b612fd781612f58565b82525050565b6000602082019050612ff26000830184612fce565b92915050565b60007fffffffff0000000000000000000000000000000000000000000000000000000082169050919050565b61302d81612ff8565b811461303857600080fd5b50565b60008135905061304a81613024565b92915050565b60006020828403121561306657613065612ef0565b5b60006130748482850161303b565b91505092915050565b60008115159050919050565b6130928161307d565b82525050565b60006020820190506130ad6000830184613089565b92915050565b60006bffffffffffffffffffffffff82169050919050565b6130d4816130b3565b81146130df57600080fd5b50565b6000813590506130f1816130cb565b92915050565b6000806040838503121561310e5761310d612ef0565b5b600061311c85828601612f43565b925050602061312d858286016130e2565b9150509250929050565b600081519050919050565b600082825260208201905092915050565b60005b83811015613171578082015181840152602081019050613156565b60008484015250505050565b6000601f19601f8301169050919050565b600061319982613137565b6131a38185613142565b93506131b3818560208601613153565b6131bc8161317d565b840191505092915050565b600060208201905081810360008301526131e1818461318e565b905092915050565b6000602082840312156131ff576131fe612ef0565b5b600061320d84828501612f79565b91505092915050565b60008060006060848603121561322f5761322e612ef0565b5b600061323d86828701612f43565b935050602061324e86828701612f79565b925050604061325f86828701612f79565b9150509250925092565b600080fd5b600080fd5b7f4e487b7100000000000000000000000000000000000000000000000000000000600052604160045260246000fd5b6132ab8261317d565b810181811067ffffffffffffffff821117156132ca576132c9613273565b5b80604052505050565b60006132dd612ee6565b90506132e982826132a2565b919050565b600067ffffffffffffffff82111561330957613308613273565b5b6133128261317d565b9050602081019050919050565b82818337600083830152505050565b600061334161333c846132ee565b6132d3565b90508281526020810184848401111561335d5761335c61326e565b5b61336884828561331f565b509392505050565b600082601f83011261338557613384613269565b5b813561339584826020860161332e565b91505092915050565b600080604083850312156133b5576133b4612ef0565b5b60006133c385828601612f79565b925050602083013567ffffffffffffffff8111156133e4576133e3612ef5565b5b6133f085828601613370565b9150509250929050565b6000602082840312156134105761340f612ef0565b5b600061341e84828501612f43565b91505092915050565b6000806040838503121561343e5761343d612ef0565b5b600061344c85828601612f79565b925050602061345d85828601612f79565b9150509250929050565b61347081612f1a565b82525050565b600060408201905061348b6000830185613467565b6134986020830184612fce565b9392505050565b600067ffffffffffffffff8211156134ba576134b9613273565b5b602082029050602081019050919050565b600080fd5b60006134e36134de8461349f565b6132d3565b90508083825260208201905060208402830185811115613506576135056134cb565b5b835b8181101561352f578061351b8882612f79565b845260208401935050602081019050613508565b5050509392505050565b600082601f83011261354e5761354d613269565b5b813561355e8482602086016134d0565b91505092915050565b600067ffffffffffffffff82111561358257613581613273565b5b61358b8261317d565b9050602081019050919050565b60006135ab6135a684613567565b6132d3565b9050828152602081018484840111156135c7576135c661326e565b5b6135d284828561331f565b509392505050565b600082601f8301126135ef576135ee613269565b5b81356135ff848260208601613598565b91505092915050565b600080600080600060a0868803121561362457613623612ef0565b5b600061363288828901612f43565b955050602061364388828901612f43565b945050604086013567ffffffffffffffff81111561366457613663612ef5565b5b61367088828901613539565b935050606086013567ffffffffffffffff81111561369157613690612ef5565b5b61369d88828901613539565b925050608086013567ffffffffffffffff8111156136be576136bd612ef5565b5b6136ca888289016135da565b9150509295509295909350565b6000819050919050565b60006136fc6136f76136f284612efa565b6136d7565b612efa565b9050919050565b600061370e826136e1565b9050919050565b600061372082613703565b9050919050565b61373081613715565b82525050565b600060208201905061374b6000830184613727565b92915050565b600067ffffffffffffffff82111561376c5761376b613273565b5b602082029050602081019050919050565b600061379061378b84613751565b6132d3565b905080838252602082019050602084028301858111156137b3576137b26134cb565b5b835b818110156137dc57806137c88882612f43565b8452602084019350506020810190506137b5565b5050509392505050565b600082601f8301126137fb576137fa613269565b5b813561380b84826020860161377d565b91505092915050565b6000806040838503121561382b5761382a612ef0565b5b600083013567ffffffffffffffff81111561384957613848612ef5565b5b613855858286016137e6565b925050602083013567ffffffffffffffff81111561387657613875612ef5565b5b61388285828601613539565b9150509250929050565b600081519050919050565b600082825260208201905092915050565b6000819050602082019050919050565b6138c181612f58565b82525050565b60006138d383836138b8565b60208301905092915050565b6000602082019050919050565b60006138f78261388c565b6139018185613897565b935061390c836138a8565b8060005b8381101561393d57815161392488826138c7565b975061392f836138df565b925050600181019050613910565b5085935050505092915050565b6000602082019050818103600083015261396481846138ec565b905092915050565b60006020828403121561398257613981612ef0565b5b600082013567ffffffffffffffff8111156139a05761399f612ef5565b5b6139ac84828501613370565b91505092915050565b6000806000606084860312156139ce576139cd612ef0565b5b60006139dc86828701612f79565b93505060206139ed86828701612f43565b92505060406139fe868287016130e2565b9150509250925092565b600080600060608486031215613a2157613a20612ef0565b5b600084013567ffffffffffffffff811115613a3f57613a3e612ef5565b5b613a4b868287016137e6565b9350506020613a5c86828701612f79565b925050604084013567ffffffffffffffff811115613a7d57613a7c612ef5565b5b613a8986828701613539565b9150509250925092565b6000602082019050613aa86000830184613467565b92915050565b613ab78161307d565b8114613ac257600080fd5b50565b600081359050613ad481613aae565b92915050565b60008060408385031215613af157613af0612ef0565b5b6000613aff85828601612f43565b9250506020613b1085828601613ac5565b9150509250929050565b60008060408385031215613b3157613b30612ef0565b5b6000613b3f85828601612f43565b9250506020613b5085828601612f43565b9150509250929050565b600080600080600060a08688031215613b7657613b75612ef0565b5b6000613b8488828901612f43565b9550506020613b9588828901612f43565b9450506040613ba688828901612f79565b9350506060613bb788828901612f79565b925050608086013567ffffffffffffffff811115613bd857613bd7612ef5565b5b613be4888289016135da565b9150509295509295909350565b7f455243313135353a2061646472657373207a65726f206973206e6f742061207660008201527f616c6964206f776e657200000000000000000000000000000000000000000000602082015250565b6000613c4d602a83613142565b9150613c5882613bf1565b604082019050919050565b60006020820190508181036000830152613c7c81613c40565b9050919050565b7f4e487b7100000000000000000000000000000000000000000000000000000000600052602260045260246000fd5b60006002820490506001821680613cca57607f821691505b602082108103613cdd57613cdc613c83565b5b50919050565b600081905092915050565b60008190508160005260206000209050919050565b60008154613d1081613cb2565b613d1a8186613ce3565b94506001821660008114613d355760018114613d4a57613d7d565b60ff1983168652811515820286019350613d7d565b613d5385613cee565b60005b83811015613d7557815481890152600182019150602081019050613d56565b838801955050505b50505092915050565b6000613d9182613137565b613d9b8185613ce3565b9350613dab818560208601613153565b80840191505092915050565b6000613dc38285613d03565b9150613dcf8284613d86565b91508190509392505050565b7f4e6f7420696e697469616c697a65640000000000000000000000000000000000600082015250565b6000613e11600f83613142565b9150613e1c82613ddb565b602082019050919050565b60006020820190508181036000830152613e4081613e04565b9050919050565b7f4e487b7100000000000000000000000000000000000000000000000000000000600052601160045260246000fd5b6000613e8182612f58565b9150613e8c83612f58565b9250828202613e9a81612f58565b91508282048414831517613eb157613eb0613e47565b5b5092915050565b7f4e487b7100000000000000000000000000000000000000000000000000000000600052601260045260246000fd5b6000613ef282612f58565b9150613efd83612f58565b925082613f0d57613f0c613eb8565b5b828204905092915050565b7f4e465420616c7265616479206578697374730000000000000000000000000000600082015250565b6000613f4e601283613142565b9150613f5982613f18565b602082019050919050565b60006020820190508181036000830152613f7d81613f41565b9050919050565b7f455243313135353a206163636f756e747320616e6420696473206c656e67746860008201527f206d69736d617463680000000000000000000000000000000000000000000000602082015250565b6000613fe0602983613142565b9150613feb82613f84565b604082019050919050565b6000602082019050818103600083015261400f81613fd3565b9050919050565b7f4e487b7100000000000000000000000000000000000000000000000000000000600052603260045260246000fd5b600061405082612f58565b91507fffffffffffffffffffffffffffffffffffffffffffffffffffffffffffffffff820361408257614081613e47565b5b600182019050919050565b7f43616e6e6f7420617070726f76652c207472616e7366657272696e67206e6f7460008201527f20616c6c6f776564000000000000000000000000000000000000000000000000602082015250565b60006140e9602883613142565b91506140f48261408d565b604082019050919050565b60006020820190508181036000830152614118816140dc565b9050919050565b7f4f776e61626c653a206e6577206f776e657220697320746865207a65726f206160008201527f6464726573730000000000000000000000000000000000000000000000000000602082015250565b600061417b602683613142565b91506141868261411f565b604082019050919050565b600060208201905081810360008301526141aa8161416e565b9050919050565b60006141bc82612f58565b91506141c783612f58565b92508282019050808211156141df576141de613e47565b5b92915050565b60006141f082612f58565b91506000820361420357614202613e47565b5b600182039050919050565b7f537472696e67733a20686578206c656e67746820696e73756666696369656e74600082015250565b6000614244602083613142565b915061424f8261420e565b602082019050919050565b6000602082019050818103600083015261427381614237565b9050919050565b7f4f776e61626c653a2063616c6c6572206973206e6f7420746865206f776e6572600082015250565b60006142b0602083613142565b91506142bb8261427a565b602082019050919050565b600060208201905081810360008301526142df816142a3565b9050919050565b7f455243323938313a20726f79616c7479206665652077696c6c2065786365656460008201527f2073616c65507269636500000000000000000000000000000000000000000000602082015250565b6000614342602a83613142565b915061434d826142e6565b604082019050919050565b6000602082019050818103600083015261437181614335565b9050919050565b7f455243323938313a20696e76616c696420726563656976657200000000000000600082015250565b60006143ae601983613142565b91506143b982614378565b602082019050919050565b600060208201905081810360008301526143dd816143a1565b9050919050565b7f6163636f756e7420000000000000000000000000000000000000000000000000600082015250565b600061441a600883613ce3565b9150614425826143e4565b600882019050919050565b7f206973206e6f7420616e206f70657261746f7200000000000000000000000000600082015250565b6000614466601383613ce3565b915061447182614430565b601382019050919050565b60006144878261440d565b91506144938284613d86565b915061449e82614459565b915081905092915050565b7f455243313135353a206d696e7420746f20746865207a65726f2061646472657360008201527f7300000000000000000000000000000000000000000000000000000000000000602082015250565b6000614505602183613142565b9150614510826144a9565b604082019050919050565b60006020820190508181036000830152614534816144f8565b9050919050565b60006040820190506145506000830185612fce565b61455d6020830184612fce565b9392505050565b60006020601f8301049050919050565b600082821b905092915050565b6000600883026145b17fffffffffffffffffffffffffffffffffffffffffffffffffffffffffffffffff82614574565b6145bb8683614574565b95508019841693508086168417925050509392505050565b60006145ee6145e96145e484612f58565b6136d7565b612f58565b9050919050565b6000819050919050565b614608836145d3565b61461c614614826145f5565b848454614581565b825550505050565b600090565b614631614624565b61463c8184846145ff565b505050565b5b8181101561466057614655600082614629565b600181019050614642565b5050565b601f8211156146a55761467681613cee565b61467f84614564565b8101602085101561468e578190505b6146a261469a85614564565b830182614641565b50505b505050565b600082821c905092915050565b60006146c8600019846008026146aa565b1980831691505092915050565b60006146e183836146b7565b9150826002028217905092915050565b6146fa82613137565b67ffffffffffffffff81111561471357614712613273565b5b61471d8254613cb2565b614728828285614664565b600060209050601f83116001811461475b5760008415614749578287015190505b61475385826146d5565b8655506147bb565b601f19841661476986613cee565b60005b828110156147915784890151825560018201915060208501945060208101905061476c565b868310156147ae57848901516147aa601f8916826146b7565b8355505b6001600288020188555050505b505050505050565b7f20697320616c72656164792068617320616e206f70657261746f7220726f6c65600082015250565b60006147f9602083613ce3565b9150614804826147c3565b602082019050919050565b600061481a8261440d565b91506148268284613d86565b9150614831826147ec565b915081905092915050565b60006040820190506148516000830185613467565b61485e6020830184613467565b9392505050565b60008151905061487481613aae565b92915050565b6000602082840312156148905761488f612ef0565b5b600061489e84828501614865565b91505092915050565b7f455243313135353a2063616c6c6572206973206e6f7420746f6b656e206f776e60008201527f6572206f7220617070726f766564000000000000000000000000000000000000602082015250565b6000614903602e83613142565b915061490e826148a7565b604082019050919050565b60006020820190508181036000830152614932816148f6565b9050919050565b7f455243323938313a20496e76616c696420706172616d65746572730000000000600082015250565b600061496f601b83613142565b915061497a82614939565b602082019050919050565b6000602082019050818103600083015261499e81614962565b9050919050565b7f455243313135353a206275726e2066726f6d20746865207a65726f206164647260008201527f6573730000000000000000000000000000000000000000000000000000000000602082015250565b6000614a01602383613142565b9150614a0c826149a5565b604082019050919050565b60006020820190508181036000830152614a30816149f4565b9050919050565b7f455243313135353a206275726e20616d6f756e7420657863656564732062616c60008201527f616e636500000000000000000000000000000000000000000000000000000000602082015250565b6000614a93602483613142565b9150614a9e82614a37565b604082019050919050565b60006020820190508181036000830152614ac281614a86565b9050919050565b7f455243313135353a2073657474696e6720617070726f76616c2073746174757360008201527f20666f722073656c660000000000000000000000000000000000000000000000602082015250565b6000614b25602983613142565b9150614b3082614ac9565b604082019050919050565b60006020820190508181036000830152614b5481614b18565b9050919050565b600081519050919050565b600082825260208201905092915050565b6000614b8282614b5b565b614b8c8185614b66565b9350614b9c818560208601613153565b614ba58161317d565b840191505092915050565b600060a082019050614bc56000830188613467565b614bd26020830187613467565b614bdf6040830186612fce565b614bec6060830185612fce565b8181036080830152614bfe8184614b77565b90509695505050505050565b600081519050614c1981613024565b92915050565b600060208284031215614c3557614c34612ef0565b5b6000614c4384828501614c0a565b91505092915050565b60008160e01c9050919050565b600060033d1115614c785760046000803e614c75600051614c4c565b90505b90565b600060443d10614d0857614c8d612ee6565b60043d036004823e80513d602482011167ffffffffffffffff82111715614cb5575050614d08565b808201805167ffffffffffffffff811115614cd35750505050614d08565b80602083010160043d038501811115614cf0575050505050614d08565b614cff826020018501866132a2565b82955050505050505b90565b7f455243313135353a207472616e7366657220746f206e6f6e2d4552433131353560008201527f526563656976657220696d706c656d656e746572000000000000000000000000602082015250565b6000614d67603483613142565b9150614d7282614d0b565b604082019050919050565b60006020820190508181036000830152614d9681614d5a565b9050919050565b7f455243313135353a204552433131353552656365697665722072656a6563746560008201527f6420746f6b656e73000000000000000000000000000000000000000000000000602082015250565b6000614df9602883613142565b9150614e0482614d9d565b604082019050919050565b60006020820190508181036000830152614e2881614dec565b9050919050565b7f455243313135353a2069647320616e6420616d6f756e7473206c656e6774682060008201527f6d69736d61746368000000000000000000000000000000000000000000000000602082015250565b6000614e8b602883613142565b9150614e9682614e2f565b604082019050919050565b60006020820190508181036000830152614eba81614e7e565b9050919050565b7f455243313135353a207472616e7366657220746f20746865207a65726f20616460008201527f6472657373000000000000000000000000000000000000000000000000000000602082015250565b6000614f1d602583613142565b9150614f2882614ec1565b604082019050919050565b60006020820190508181036000830152614f4c81614f10565b9050919050565b7f455243313135353a20696e73756666696369656e742062616c616e636520666f60008201527f72207472616e7366657200000000000000000000000000000000000000000000602082015250565b6000614faf602a83613142565b9150614fba82614f53565b604082019050919050565b60006020820190508181036000830152614fde81614fa2565b9050919050565b60006040820190508181036000830152614fff81856138ec565b9050818103602083015261501381846138ec565b90509392505050565b600060a0820190506150316000830188613467565b61503e6020830187613467565b818103604083015261505081866138ec565b9050818103606083015261506481856138ec565b905081810360808301526150788184614b77565b9050969550505050505056fea2646970667358221220f98ea104c69b0375bcf167ee4c13c201604c458012c0f44f000e1818a45b75b464736f6c63430008110033697066733a2f2f516d586f6d4a6e69364b6665365979706857346a325970794c4a395357526232716f757a7a56524e4d3754744e332f",
			"opcodes": "PUSH1 0x80 PUSH1 0x40 MSTORE PUSH1 0x40 MLOAD DUP1 PUSH1 0x20 ADD PUSH1 0x40 MSTORE DUP1 PUSH1 0x0 DUP2 MSTORE POP PUSH1 0x3 SWAP1 DUP2 PUSH3 0x24 SWAP2 SWAP1 PUSH3 0x14B7 JUMP JUMPDEST POP PUSH1 0x40 MLOAD DUP1 PUSH1 0x40 ADD PUSH1 0x40 MSTORE DUP1 PUSH1 0x9 DUP2 MSTORE PUSH1 0x20 ADD PUSH32 0x30626A65637472306E0000000000000000000000000000000000000000000000 DUP2 MSTORE POP PUSH1 0x9 SWAP1 DUP2 PUSH3 0x6B SWAP2 SWAP1 PUSH3 0x14B7 JUMP JUMPDEST POP PUSH1 0x40 MLOAD DUP1 PUSH1 0x40 ADD PUSH1 0x40 MSTORE DUP1 PUSH1 0x9 DUP2 MSTORE PUSH1 0x20 ADD PUSH32 0x30626A65637472306E0000000000000000000000000000000000000000000000 DUP2 MSTORE POP PUSH1 0xA SWAP1 DUP2 PUSH3 0xB2 SWAP2 SWAP1 PUSH3 0x14B7 JUMP JUMPDEST POP CALLVALUE DUP1 ISZERO PUSH3 0xC0 JUMPI PUSH1 0x0 DUP1 REVERT JUMPDEST POP PUSH20 0x3CC6CDDA760B79BAFA08DF41ECFA224F810DCEB6 PUSH1 0x1 PUSH1 0x40 MLOAD DUP1 PUSH1 0x20 ADD PUSH1 0x40 MSTORE DUP1 PUSH1 0x0 DUP2 MSTORE POP PUSH3 0xF9 DUP2 PUSH3 0x3AE PUSH1 0x20 SHL PUSH1 0x20 SHR JUMP JUMPDEST POP PUSH3 0x11A PUSH3 0x10E PUSH3 0x3C3 PUSH1 0x20 SHL PUSH1 0x20 SHR JUMP JUMPDEST PUSH3 0x3CB PUSH1 0x20 SHL PUSH1 0x20 SHR JUMP JUMPDEST PUSH1 0x0 PUSH14 0xAAEB6D7670E522A718067333CD4E PUSH20 0xFFFFFFFFFFFFFFFFFFFFFFFFFFFFFFFFFFFFFFFF AND EXTCODESIZE GT ISZERO PUSH3 0x30F JUMPI DUP1 ISZERO PUSH3 0x1D5 JUMPI PUSH14 0xAAEB6D7670E522A718067333CD4E PUSH20 0xFFFFFFFFFFFFFFFFFFFFFFFFFFFFFFFFFFFFFFFF AND PUSH4 0x7D3E3DBE ADDRESS DUP5 PUSH1 0x40 MLOAD DUP4 PUSH4 0xFFFFFFFF AND PUSH1 0xE0 SHL DUP2 MSTORE PUSH1 0x4 ADD PUSH3 0x19B SWAP3 SWAP2 SWAP1 PUSH3 0x15E3 JUMP JUMPDEST PUSH1 0x0 PUSH1 0x40 MLOAD DUP1 DUP4 SUB DUP2 PUSH1 0x0 DUP8 DUP1 EXTCODESIZE ISZERO DUP1 ISZERO PUSH3 0x1B6 JUMPI PUSH1 0x0 DUP1 REVERT JUMPDEST POP GAS CALL ISZERO DUP1 ISZERO PUSH3 0x1CB JUMPI RETURNDATASIZE PUSH1 0x0 DUP1 RETURNDATACOPY RETURNDATASIZE PUSH1 0x0 REVERT JUMPDEST POP POP POP POP PUSH3 0x30E JUMP JUMPDEST PUSH1 0x0 PUSH20 0xFFFFFFFFFFFFFFFFFFFFFFFFFFFFFFFFFFFFFFFF AND DUP3 PUSH20 0xFFFFFFFFFFFFFFFFFFFFFFFFFFFFFFFFFFFFFFFF AND EQ PUSH3 0x28F JUMPI PUSH14 0xAAEB6D7670E522A718067333CD4E PUSH20 0xFFFFFFFFFFFFFFFFFFFFFFFFFFFFFFFFFFFFFFFF AND PUSH4 0xA0AF2903 ADDRESS DUP5 PUSH1 0x40 MLOAD DUP4 PUSH4 0xFFFFFFFF AND PUSH1 0xE0 SHL DUP2 MSTORE PUSH1 0x4 ADD PUSH3 0x255 SWAP3 SWAP2 SWAP1 PUSH3 0x15E3 JUMP JUMPDEST PUSH1 0x0 PUSH1 0x40 MLOAD DUP1 DUP4 SUB DUP2 PUSH1 0x0 DUP8 DUP1 EXTCODESIZE ISZERO DUP1 ISZERO PUSH3 0x270 JUMPI PUSH1 0x0 DUP1 REVERT JUMPDEST POP GAS CALL ISZERO DUP1 ISZERO PUSH3 0x285 JUMPI RETURNDATASIZE PUSH1 0x0 DUP1 RETURNDATACOPY RETURNDATASIZE PUSH1 0x0 REVERT JUMPDEST POP POP POP POP PUSH3 0x30D JUMP JUMPDEST PUSH14 0xAAEB6D7670E522A718067333CD4E PUSH20 0xFFFFFFFFFFFFFFFFFFFFFFFFFFFFFFFFFFFFFFFF AND PUSH4 0x4420E486 ADDRESS PUSH1 0x40 MLOAD DUP3 PUSH4 0xFFFFFFFF AND PUSH1 0xE0 SHL DUP2 MSTORE PUSH1 0x4 ADD PUSH3 0x2D8 SWAP2 SWAP1 PUSH3 0x1610 JUMP JUMPDEST PUSH1 0x0 PUSH1 0x40 MLOAD DUP1 DUP4 SUB DUP2 PUSH1 0x0 DUP8 DUP1 EXTCODESIZE ISZERO DUP1 ISZERO PUSH3 0x2F3 JUMPI PUSH1 0x0 DUP1 REVERT JUMPDEST POP GAS CALL ISZERO DUP1 ISZERO PUSH3 0x308 JUMPI RETURNDATASIZE PUSH1 0x0 DUP1 RETURNDATACOPY RETURNDATASIZE PUSH1 0x0 REVERT JUMPDEST POP POP POP POP JUMPDEST JUMPDEST JUMPDEST POP POP PUSH3 0x322 CALLER PUSH3 0x491 PUSH1 0x20 SHL PUSH1 0x20 SHR JUMP JUMPDEST PUSH3 0x336 CALLER PUSH2 0x3E8 PUSH3 0x5DD PUSH1 0x20 SHL PUSH1 0x20 SHR JUMP JUMPDEST PUSH3 0x360 PUSH1 0x40 MLOAD DUP1 PUSH1 0x60 ADD PUSH1 0x40 MSTORE DUP1 PUSH1 0x36 DUP2 MSTORE PUSH1 0x20 ADD PUSH3 0x7161 PUSH1 0x36 SWAP2 CODECOPY PUSH3 0x780 PUSH1 0x20 SHL PUSH1 0x20 SHR JUMP JUMPDEST PUSH3 0x3A8 PUSH1 0x1 PUSH1 0x40 MLOAD DUP1 PUSH1 0x40 ADD PUSH1 0x40 MSTORE DUP1 PUSH1 0x6 DUP2 MSTORE PUSH1 0x20 ADD PUSH32 0x312E6A736F6E0000000000000000000000000000000000000000000000000000 DUP2 MSTORE POP PUSH3 0x795 PUSH1 0x20 SHL PUSH1 0x20 SHR JUMP JUMPDEST PUSH3 0x2097 JUMP JUMPDEST DUP1 PUSH1 0x2 SWAP1 DUP2 PUSH3 0x3BF SWAP2 SWAP1 PUSH3 0x14B7 JUMP JUMPDEST POP POP JUMP JUMPDEST PUSH1 0x0 CALLER SWAP1 POP SWAP1 JUMP JUMPDEST PUSH1 0x0 PUSH1 0x5 PUSH1 0x0 SWAP1 SLOAD SWAP1 PUSH2 0x100 EXP SWAP1 DIV PUSH20 0xFFFFFFFFFFFFFFFFFFFFFFFFFFFFFFFFFFFFFFFF AND SWAP1 POP DUP2 PUSH1 0x5 PUSH1 0x0 PUSH2 0x100 EXP DUP2 SLOAD DUP2 PUSH20 0xFFFFFFFFFFFFFFFFFFFFFFFFFFFFFFFFFFFFFFFF MUL NOT AND SWAP1 DUP4 PUSH20 0xFFFFFFFFFFFFFFFFFFFFFFFFFFFFFFFFFFFFFFFF AND MUL OR SWAP1 SSTORE POP DUP2 PUSH20 0xFFFFFFFFFFFFFFFFFFFFFFFFFFFFFFFFFFFFFFFF AND DUP2 PUSH20 0xFFFFFFFFFFFFFFFFFFFFFFFFFFFFFFFFFFFFFFFF AND PUSH32 0x8BE0079C531659141344CD1FD0A4F28419497F9722A3DAAFE3B4186F6B6457E0 PUSH1 0x40 MLOAD PUSH1 0x40 MLOAD DUP1 SWAP2 SUB SWAP1 LOG3 POP POP JUMP JUMPDEST PUSH1 0x6 PUSH1 0x0 DUP3 PUSH20 0xFFFFFFFFFFFFFFFFFFFFFFFFFFFFFFFFFFFFFFFF AND PUSH20 0xFFFFFFFFFFFFFFFFFFFFFFFFFFFFFFFFFFFFFFFF AND DUP2 MSTORE PUSH1 0x20 ADD SWAP1 DUP2 MSTORE PUSH1 0x20 ADD PUSH1 0x0 KECCAK256 PUSH1 0x0 SWAP1 SLOAD SWAP1 PUSH2 0x100 EXP SWAP1 DIV PUSH1 0xFF AND ISZERO PUSH3 0x51C PUSH3 0x4F3 PUSH3 0x3C3 PUSH1 0x20 SHL PUSH1 0x20 SHR JUMP JUMPDEST PUSH20 0xFFFFFFFFFFFFFFFFFFFFFFFFFFFFFFFFFFFFFFFF AND PUSH1 0x14 PUSH3 0x846 PUSH1 0x20 SHL PUSH3 0x107C OR PUSH1 0x20 SHR JUMP JUMPDEST PUSH1 0x40 MLOAD PUSH1 0x20 ADD PUSH3 0x52E SWAP2 SWAP1 PUSH3 0x173B JUMP JUMPDEST PUSH1 0x40 MLOAD PUSH1 0x20 DUP2 DUP4 SUB SUB DUP2 MSTORE SWAP1 PUSH1 0x40 MSTORE SWAP1 PUSH3 0x581 JUMPI PUSH1 0x40 MLOAD PUSH32 0x8C379A000000000000000000000000000000000000000000000000000000000 DUP2 MSTORE PUSH1 0x4 ADD PUSH3 0x578 SWAP2 SWAP1 PUSH3 0x17D1 JUMP JUMPDEST PUSH1 0x40 MLOAD DUP1 SWAP2 SUB SWAP1 REVERT JUMPDEST POP PUSH1 0x1 PUSH1 0x6 PUSH1 0x0 DUP4 PUSH20 0xFFFFFFFFFFFFFFFFFFFFFFFFFFFFFFFFFFFFFFFF AND PUSH20 0xFFFFFFFFFFFFFFFFFFFFFFFFFFFFFFFFFFFFFFFF AND DUP2 MSTORE PUSH1 0x20 ADD SWAP1 DUP2 MSTORE PUSH1 0x20 ADD PUSH1 0x0 KECCAK256 PUSH1 0x0 PUSH2 0x100 EXP DUP2 SLOAD DUP2 PUSH1 0xFF MUL NOT AND SWAP1 DUP4 ISZERO ISZERO MUL OR SWAP1 SSTORE POP POP JUMP JUMPDEST PUSH3 0x5ED PUSH3 0xAA1 PUSH1 0x20 SHL PUSH1 0x20 SHR JUMP JUMPDEST PUSH12 0xFFFFFFFFFFFFFFFFFFFFFFFF AND DUP2 PUSH12 0xFFFFFFFFFFFFFFFFFFFFFFFF AND GT ISZERO PUSH3 0x64E JUMPI PUSH1 0x40 MLOAD PUSH32 0x8C379A000000000000000000000000000000000000000000000000000000000 DUP2 MSTORE PUSH1 0x4 ADD PUSH3 0x645 SWAP1 PUSH3 0x186B JUMP JUMPDEST PUSH1 0x40 MLOAD DUP1 SWAP2 SUB SWAP1 REVERT JUMPDEST PUSH1 0x0 PUSH20 0xFFFFFFFFFFFFFFFFFFFFFFFFFFFFFFFFFFFFFFFF AND DUP3 PUSH20 0xFFFFFFFFFFFFFFFFFFFFFFFFFFFFFFFFFFFFFFFF AND SUB PUSH3 0x6C0 JUMPI PUSH1 0x40 MLOAD PUSH32 0x8C379A000000000000000000000000000000000000000000000000000000000 DUP2 MSTORE PUSH1 0x4 ADD PUSH3 0x6B7 SWAP1 PUSH3 0x18DD JUMP JUMPDEST PUSH1 0x40 MLOAD DUP1 SWAP2 SUB SWAP1 REVERT JUMPDEST PUSH1 0x40 MLOAD DUP1 PUSH1 0x40 ADD PUSH1 0x40 MSTORE DUP1 DUP4 PUSH20 0xFFFFFFFFFFFFFFFFFFFFFFFFFFFFFFFFFFFFFFFF AND DUP2 MSTORE PUSH1 0x20 ADD DUP3 PUSH12 0xFFFFFFFFFFFFFFFFFFFFFFFF AND DUP2 MSTORE POP PUSH1 0x7 PUSH1 0x0 DUP3 ADD MLOAD DUP2 PUSH1 0x0 ADD PUSH1 0x0 PUSH2 0x100 EXP DUP2 SLOAD DUP2 PUSH20 0xFFFFFFFFFFFFFFFFFFFFFFFFFFFFFFFFFFFFFFFF MUL NOT AND SWAP1 DUP4 PUSH20 0xFFFFFFFFFFFFFFFFFFFFFFFFFFFFFFFFFFFFFFFF AND MUL OR SWAP1 SSTORE POP PUSH1 0x20 DUP3 ADD MLOAD DUP2 PUSH1 0x0 ADD PUSH1 0x14 PUSH2 0x100 EXP DUP2 SLOAD DUP2 PUSH12 0xFFFFFFFFFFFFFFFFFFFFFFFF MUL NOT AND SWAP1 DUP4 PUSH12 0xFFFFFFFFFFFFFFFFFFFFFFFF AND MUL OR SWAP1 SSTORE POP SWAP1 POP POP POP POP JUMP JUMPDEST DUP1 PUSH1 0x3 SWAP1 DUP2 PUSH3 0x791 SWAP2 SWAP1 PUSH3 0x14B7 JUMP JUMPDEST POP POP JUMP JUMPDEST PUSH3 0x7B5 PUSH3 0x7A9 PUSH3 0x3C3 PUSH1 0x20 SHL PUSH1 0x20 SHR JUMP JUMPDEST PUSH3 0xAAB PUSH1 0x20 SHL PUSH1 0x20 SHR JUMP JUMPDEST PUSH1 0x0 PUSH3 0x7C8 DUP4 PUSH3 0xB9E PUSH1 0x20 SHL PUSH1 0x20 SHR JUMP JUMPDEST MLOAD EQ PUSH3 0x80C JUMPI PUSH1 0x40 MLOAD PUSH32 0x8C379A000000000000000000000000000000000000000000000000000000000 DUP2 MSTORE PUSH1 0x4 ADD PUSH3 0x803 SWAP1 PUSH3 0x194F JUMP JUMPDEST PUSH1 0x40 MLOAD DUP1 SWAP2 SUB SWAP1 REVERT JUMPDEST PUSH3 0x830 CALLER DUP4 PUSH1 0x1 PUSH1 0x40 MLOAD DUP1 PUSH1 0x20 ADD PUSH1 0x40 MSTORE DUP1 PUSH1 0x0 DUP2 MSTORE POP PUSH3 0xC9C PUSH1 0x20 SHL PUSH1 0x20 SHR JUMP JUMPDEST PUSH3 0x842 DUP3 DUP3 PUSH3 0xE83 PUSH1 0x20 SHL PUSH1 0x20 SHR JUMP JUMPDEST POP POP JUMP JUMPDEST PUSH1 0x60 PUSH1 0x0 PUSH1 0x2 DUP4 PUSH1 0x2 PUSH3 0x85B SWAP2 SWAP1 PUSH3 0x19A0 JUMP JUMPDEST PUSH3 0x867 SWAP2 SWAP1 PUSH3 0x19EB JUMP JUMPDEST PUSH8 0xFFFFFFFFFFFFFFFF DUP2 GT ISZERO PUSH3 0x883 JUMPI PUSH3 0x882 PUSH3 0x1248 JUMP JUMPDEST JUMPDEST PUSH1 0x40 MLOAD SWAP1 DUP1 DUP3 MSTORE DUP1 PUSH1 0x1F ADD PUSH1 0x1F NOT AND PUSH1 0x20 ADD DUP3 ADD PUSH1 0x40 MSTORE DUP1 ISZERO PUSH3 0x8B6 JUMPI DUP2 PUSH1 0x20 ADD PUSH1 0x1 DUP3 MUL DUP1 CALLDATASIZE DUP4 CALLDATACOPY DUP1 DUP3 ADD SWAP2 POP POP SWAP1 POP JUMPDEST POP SWAP1 POP PUSH32 0x3000000000000000000000000000000000000000000000000000000000000000 DUP2 PUSH1 0x0 DUP2 MLOAD DUP2 LT PUSH3 0x8F1 JUMPI PUSH3 0x8F0 PUSH3 0x1A26 JUMP JUMPDEST JUMPDEST PUSH1 0x20 ADD ADD SWAP1 PUSH31 0xFFFFFFFFFFFFFFFFFFFFFFFFFFFFFFFFFFFFFFFFFFFFFFFFFFFFFFFFFFFFFF NOT AND SWAP1 DUP2 PUSH1 0x0 BYTE SWAP1 MSTORE8 POP PUSH32 0x7800000000000000000000000000000000000000000000000000000000000000 DUP2 PUSH1 0x1 DUP2 MLOAD DUP2 LT PUSH3 0x958 JUMPI PUSH3 0x957 PUSH3 0x1A26 JUMP JUMPDEST JUMPDEST PUSH1 0x20 ADD ADD SWAP1 PUSH31 0xFFFFFFFFFFFFFFFFFFFFFFFFFFFFFFFFFFFFFFFFFFFFFFFFFFFFFFFFFFFFFF NOT AND SWAP1 DUP2 PUSH1 0x0 BYTE SWAP1 MSTORE8 POP PUSH1 0x0 PUSH1 0x1 DUP5 PUSH1 0x2 PUSH3 0x99A SWAP2 SWAP1 PUSH3 0x19A0 JUMP JUMPDEST PUSH3 0x9A6 SWAP2 SWAP1 PUSH3 0x19EB JUMP JUMPDEST SWAP1 POP JUMPDEST PUSH1 0x1 DUP2 GT ISZERO PUSH3 0xA50 JUMPI PUSH32 0x3031323334353637383961626364656600000000000000000000000000000000 PUSH1 0xF DUP7 AND PUSH1 0x10 DUP2 LT PUSH3 0x9EC JUMPI PUSH3 0x9EB PUSH3 0x1A26 JUMP JUMPDEST JUMPDEST BYTE PUSH1 0xF8 SHL DUP3 DUP3 DUP2 MLOAD DUP2 LT PUSH3 0xA06 JUMPI PUSH3 0xA05 PUSH3 0x1A26 JUMP JUMPDEST JUMPDEST PUSH1 0x20 ADD ADD SWAP1 PUSH31 0xFFFFFFFFFFFFFFFFFFFFFFFFFFFFFFFFFFFFFFFFFFFFFFFFFFFFFFFFFFFFFF NOT AND SWAP1 DUP2 PUSH1 0x0 BYTE SWAP1 MSTORE8 POP PUSH1 0x4 DUP6 SWAP1 SHR SWAP5 POP DUP1 PUSH3 0xA48 SWAP1 PUSH3 0x1A55 JUMP JUMPDEST SWAP1 POP PUSH3 0x9A9 JUMP JUMPDEST POP PUSH1 0x0 DUP5 EQ PUSH3 0xA97 JUMPI PUSH1 0x40 MLOAD PUSH32 0x8C379A000000000000000000000000000000000000000000000000000000000 DUP2 MSTORE PUSH1 0x4 ADD PUSH3 0xA8E SWAP1 PUSH3 0x1AD3 JUMP JUMPDEST PUSH1 0x40 MLOAD DUP1 SWAP2 SUB SWAP1 REVERT JUMPDEST DUP1 SWAP2 POP POP SWAP3 SWAP2 POP POP JUMP JUMPDEST PUSH1 0x0 PUSH2 0x2710 SWAP1 POP SWAP1 JUMP JUMPDEST PUSH1 0x6 PUSH1 0x0 DUP3 PUSH20 0xFFFFFFFFFFFFFFFFFFFFFFFFFFFFFFFFFFFFFFFF AND PUSH20 0xFFFFFFFFFFFFFFFFFFFFFFFFFFFFFFFFFFFFFFFF AND DUP2 MSTORE PUSH1 0x20 ADD SWAP1 DUP2 MSTORE PUSH1 0x20 ADD PUSH1 0x0 KECCAK256 PUSH1 0x0 SWAP1 SLOAD SWAP1 PUSH2 0x100 EXP SWAP1 DIV PUSH1 0xFF AND PUSH3 0xB35 PUSH3 0xB0C PUSH3 0x3C3 PUSH1 0x20 SHL PUSH1 0x20 SHR JUMP JUMPDEST PUSH20 0xFFFFFFFFFFFFFFFFFFFFFFFFFFFFFFFFFFFFFFFF AND PUSH1 0x14 PUSH3 0x846 PUSH1 0x20 SHL PUSH3 0x107C OR PUSH1 0x20 SHR JUMP JUMPDEST PUSH1 0x40 MLOAD PUSH1 0x20 ADD PUSH3 0xB47 SWAP2 SWAP1 PUSH3 0x1B45 JUMP JUMPDEST PUSH1 0x40 MLOAD PUSH1 0x20 DUP2 DUP4 SUB SUB DUP2 MSTORE SWAP1 PUSH1 0x40 MSTORE SWAP1 PUSH3 0xB9A JUMPI PUSH1 0x40 MLOAD PUSH32 0x8C379A000000000000000000000000000000000000000000000000000000000 DUP2 MSTORE PUSH1 0x4 ADD PUSH3 0xB91 SWAP2 SWAP1 PUSH3 0x17D1 JUMP JUMPDEST PUSH1 0x40 MLOAD DUP1 SWAP2 SUB SWAP1 REVERT JUMPDEST POP POP JUMP JUMPDEST PUSH1 0x60 PUSH1 0x0 PUSH1 0x4 PUSH1 0x0 DUP5 DUP2 MSTORE PUSH1 0x20 ADD SWAP1 DUP2 MSTORE PUSH1 0x20 ADD PUSH1 0x0 KECCAK256 DUP1 SLOAD PUSH3 0xBC2 SWAP1 PUSH3 0x12A6 JUMP JUMPDEST DUP1 PUSH1 0x1F ADD PUSH1 0x20 DUP1 SWAP2 DIV MUL PUSH1 0x20 ADD PUSH1 0x40 MLOAD SWAP1 DUP2 ADD PUSH1 0x40 MSTORE DUP1 SWAP3 SWAP2 SWAP1 DUP2 DUP2 MSTORE PUSH1 0x20 ADD DUP3 DUP1 SLOAD PUSH3 0xBF0 SWAP1 PUSH3 0x12A6 JUMP JUMPDEST DUP1 ISZERO PUSH3 0xC41 JUMPI DUP1 PUSH1 0x1F LT PUSH3 0xC15 JUMPI PUSH2 0x100 DUP1 DUP4 SLOAD DIV MUL DUP4 MSTORE SWAP2 PUSH1 0x20 ADD SWAP2 PUSH3 0xC41 JUMP JUMPDEST DUP3 ADD SWAP2 SWAP1 PUSH1 0x0 MSTORE PUSH1 0x20 PUSH1 0x0 KECCAK256 SWAP1 JUMPDEST DUP2 SLOAD DUP2 MSTORE SWAP1 PUSH1 0x1 ADD SWAP1 PUSH1 0x20 ADD DUP1 DUP4 GT PUSH3 0xC23 JUMPI DUP3 SWAP1 SUB PUSH1 0x1F AND DUP3 ADD SWAP2 JUMPDEST POP POP POP POP POP SWAP1 POP PUSH1 0x0 DUP2 MLOAD GT PUSH3 0xC6E JUMPI PUSH3 0xC68 DUP4 PUSH3 0xEF4 PUSH1 0x20 SHL PUSH3 0x12B8 OR PUSH1 0x20 SHR JUMP JUMPDEST PUSH3 0xC94 JUMP JUMPDEST PUSH1 0x3 DUP2 PUSH1 0x40 MLOAD PUSH1 0x20 ADD PUSH3 0xC84 SWAP3 SWAP2 SWAP1 PUSH3 0x1C07 JUMP JUMPDEST PUSH1 0x40 MLOAD PUSH1 0x20 DUP2 DUP4 SUB SUB DUP2 MSTORE SWAP1 PUSH1 0x40 MSTORE JUMPDEST SWAP2 POP POP SWAP2 SWAP1 POP JUMP JUMPDEST PUSH1 0x0 PUSH20 0xFFFFFFFFFFFFFFFFFFFFFFFFFFFFFFFFFFFFFFFF AND DUP5 PUSH20 0xFFFFFFFFFFFFFFFFFFFFFFFFFFFFFFFFFFFFFFFF AND SUB PUSH3 0xD0E JUMPI PUSH1 0x40 MLOAD PUSH32 0x8C379A000000000000000000000000000000000000000000000000000000000 DUP2 MSTORE PUSH1 0x4 ADD PUSH3 0xD05 SWAP1 PUSH3 0x1CA5 JUMP JUMPDEST PUSH1 0x40 MLOAD DUP1 SWAP2 SUB SWAP1 REVERT JUMPDEST PUSH1 0x0 PUSH3 0xD20 PUSH3 0x3C3 PUSH1 0x20 SHL PUSH1 0x20 SHR JUMP JUMPDEST SWAP1 POP PUSH1 0x0 PUSH3 0xD35 DUP6 PUSH3 0xF90 PUSH1 0x20 SHL PUSH1 0x20 SHR JUMP JUMPDEST SWAP1 POP PUSH1 0x0 PUSH3 0xD4A DUP6 PUSH3 0xF90 PUSH1 0x20 SHL PUSH1 0x20 SHR JUMP JUMPDEST SWAP1 POP PUSH3 0xD63 DUP4 PUSH1 0x0 DUP10 DUP6 DUP6 DUP10 PUSH3 0x1011 PUSH1 0x20 SHL PUSH1 0x20 SHR JUMP JUMPDEST DUP5 PUSH1 0x0 DUP1 DUP9 DUP2 MSTORE PUSH1 0x20 ADD SWAP1 DUP2 MSTORE PUSH1 0x20 ADD PUSH1 0x0 KECCAK256 PUSH1 0x0 DUP10 PUSH20 0xFFFFFFFFFFFFFFFFFFFFFFFFFFFFFFFFFFFFFFFF AND PUSH20 0xFFFFFFFFFFFFFFFFFFFFFFFFFFFFFFFFFFFFFFFF AND DUP2 MSTORE PUSH1 0x20 ADD SWAP1 DUP2 MSTORE PUSH1 0x20 ADD PUSH1 0x0 KECCAK256 PUSH1 0x0 DUP3 DUP3 SLOAD PUSH3 0xDC4 SWAP2 SWAP1 PUSH3 0x19EB JUMP JUMPDEST SWAP3 POP POP DUP2 SWAP1 SSTORE POP DUP7 PUSH20 0xFFFFFFFFFFFFFFFFFFFFFFFFFFFFFFFFFFFFFFFF AND PUSH1 0x0 PUSH20 0xFFFFFFFFFFFFFFFFFFFFFFFFFFFFFFFFFFFFFFFF AND DUP5 PUSH20 0xFFFFFFFFFFFFFFFFFFFFFFFFFFFFFFFFFFFFFFFF AND PUSH32 0xC3D58168C5AE7397731D063D5BBF3D657854427343F4C083240F7AACAA2D0F62 DUP10 DUP10 PUSH1 0x40 MLOAD PUSH3 0xE44 SWAP3 SWAP2 SWAP1 PUSH3 0x1CD8 JUMP JUMPDEST PUSH1 0x40 MLOAD DUP1 SWAP2 SUB SWAP1 LOG4 PUSH3 0xE63 DUP4 PUSH1 0x0 DUP10 DUP6 DUP6 DUP10 PUSH3 0x1019 PUSH1 0x20 SHL PUSH1 0x20 SHR JUMP JUMPDEST PUSH3 0xE7A DUP4 PUSH1 0x0 DUP10 DUP10 DUP10 DUP10 PUSH3 0x1021 PUSH1 0x20 SHL PUSH1 0x20 SHR JUMP JUMPDEST POP POP POP POP POP POP POP JUMP JUMPDEST DUP1 PUSH1 0x4 PUSH1 0x0 DUP5 DUP2 MSTORE PUSH1 0x20 ADD SWAP1 DUP2 MSTORE PUSH1 0x20 ADD PUSH1 0x0 KECCAK256 SWAP1 DUP2 PUSH3 0xEA5 SWAP2 SWAP1 PUSH3 0x14B7 JUMP JUMPDEST POP DUP2 PUSH32 0x6BB7FF708619BA0610CBA295A58592E0451DEE2622938C8755667688DAF3529B PUSH3 0xED9 DUP5 PUSH3 0xB9E PUSH1 0x20 SHL PUSH1 0x20 SHR JUMP JUMPDEST PUSH1 0x40 MLOAD PUSH3 0xEE8 SWAP2 SWAP1 PUSH3 0x17D1 JUMP JUMPDEST PUSH1 0x40 MLOAD DUP1 SWAP2 SUB SWAP1 LOG2 POP POP JUMP JUMPDEST PUSH1 0x60 PUSH1 0x2 DUP1 SLOAD PUSH3 0xF05 SWAP1 PUSH3 0x12A6 JUMP JUMPDEST DUP1 PUSH1 0x1F ADD PUSH1 0x20 DUP1 SWAP2 DIV MUL PUSH1 0x20 ADD PUSH1 0x40 MLOAD SWAP1 DUP2 ADD PUSH1 0x40 MSTORE DUP1 SWAP3 SWAP2 SWAP1 DUP2 DUP2 MSTORE PUSH1 0x20 ADD DUP3 DUP1 SLOAD PUSH3 0xF33 SWAP1 PUSH3 0x12A6 JUMP JUMPDEST DUP1 ISZERO PUSH3 0xF84 JUMPI DUP1 PUSH1 0x1F LT PUSH3 0xF58 JUMPI PUSH2 0x100 DUP1 DUP4 SLOAD DIV MUL DUP4 MSTORE SWAP2 PUSH1 0x20 ADD SWAP2 PUSH3 0xF84 JUMP JUMPDEST DUP3 ADD SWAP2 SWAP1 PUSH1 0x0 MSTORE PUSH1 0x20 PUSH1 0x0 KECCAK256 SWAP1 JUMPDEST DUP2 SLOAD DUP2 MSTORE SWAP1 PUSH1 0x1 ADD SWAP1 PUSH1 0x20 ADD DUP1 DUP4 GT PUSH3 0xF66 JUMPI DUP3 SWAP1 SUB PUSH1 0x1F AND DUP3 ADD SWAP2 JUMPDEST POP POP POP POP POP SWAP1 POP SWAP2 SWAP1 POP JUMP JUMPDEST PUSH1 0x60 PUSH1 0x0 PUSH1 0x1 PUSH8 0xFFFFFFFFFFFFFFFF DUP2 GT ISZERO PUSH3 0xFB2 JUMPI PUSH3 0xFB1 PUSH3 0x1248 JUMP JUMPDEST JUMPDEST PUSH1 0x40 MLOAD SWAP1 DUP1 DUP3 MSTORE DUP1 PUSH1 0x20 MUL PUSH1 0x20 ADD DUP3 ADD PUSH1 0x40 MSTORE DUP1 ISZERO PUSH3 0xFE1 JUMPI DUP2 PUSH1 0x20 ADD PUSH1 0x20 DUP3 MUL DUP1 CALLDATASIZE DUP4 CALLDATACOPY DUP1 DUP3 ADD SWAP2 POP POP SWAP1 POP JUMPDEST POP SWAP1 POP DUP3 DUP2 PUSH1 0x0 DUP2 MLOAD DUP2 LT PUSH3 0xFFC JUMPI PUSH3 0xFFB PUSH3 0x1A26 JUMP JUMPDEST JUMPDEST PUSH1 0x20 MUL PUSH1 0x20 ADD ADD DUP2 DUP2 MSTORE POP POP DUP1 SWAP2 POP POP SWAP2 SWAP1 POP JUMP JUMPDEST POP POP POP POP POP POP JUMP JUMPDEST POP POP POP POP POP POP JUMP JUMPDEST PUSH3 0x104D DUP5 PUSH20 0xFFFFFFFFFFFFFFFFFFFFFFFFFFFFFFFFFFFFFFFF AND PUSH3 0x121A PUSH1 0x20 SHL PUSH3 0x134C OR PUSH1 0x20 SHR JUMP JUMPDEST ISZERO PUSH3 0x1212 JUMPI DUP4 PUSH20 0xFFFFFFFFFFFFFFFFFFFFFFFFFFFFFFFFFFFFFFFF AND PUSH4 0xF23A6E61 DUP8 DUP8 DUP7 DUP7 DUP7 PUSH1 0x40 MLOAD DUP7 PUSH4 0xFFFFFFFF AND PUSH1 0xE0 SHL DUP2 MSTORE PUSH1 0x4 ADD PUSH3 0x1096 SWAP6 SWAP5 SWAP4 SWAP3 SWAP2 SWAP1 PUSH3 0x1D62 JUMP JUMPDEST PUSH1 0x20 PUSH1 0x40 MLOAD DUP1 DUP4 SUB DUP2 PUSH1 0x0 DUP8 GAS CALL SWAP3 POP POP POP DUP1 ISZERO PUSH3 0x10D5 JUMPI POP PUSH1 0x40 MLOAD RETURNDATASIZE PUSH1 0x1F NOT PUSH1 0x1F DUP3 ADD AND DUP3 ADD DUP1 PUSH1 0x40 MSTORE POP DUP2 ADD SWAP1 PUSH3 0x10D2 SWAP2 SWAP1 PUSH3 0x1E32 JUMP JUMPDEST PUSH1 0x1 JUMPDEST PUSH3 0x1186 JUMPI PUSH3 0x10E4 PUSH3 0x1E71 JUMP JUMPDEST DUP1 PUSH4 0x8C379A0 SUB PUSH3 0x1147 JUMPI POP PUSH3 0x10FB PUSH3 0x1ECC JUMP JUMPDEST DUP1 PUSH3 0x1108 JUMPI POP PUSH3 0x1149 JUMP JUMPDEST DUP1 PUSH1 0x40 MLOAD PUSH32 0x8C379A000000000000000000000000000000000000000000000000000000000 DUP2 MSTORE PUSH1 0x4 ADD PUSH3 0x113E SWAP2 SWAP1 PUSH3 0x17D1 JUMP JUMPDEST PUSH1 0x40 MLOAD DUP1 SWAP2 SUB SWAP1 REVERT JUMPDEST POP JUMPDEST PUSH1 0x40 MLOAD PUSH32 0x8C379A000000000000000000000000000000000000000000000000000000000 DUP2 MSTORE PUSH1 0x4 ADD PUSH3 0x117D SWAP1 PUSH3 0x1FDD JUMP JUMPDEST PUSH1 0x40 MLOAD DUP1 SWAP2 SUB SWAP1 REVERT JUMPDEST PUSH4 0xF23A6E61 PUSH1 0xE0 SHL PUSH28 0xFFFFFFFFFFFFFFFFFFFFFFFFFFFFFFFFFFFFFFFFFFFFFFFFFFFFFFFF NOT AND DUP2 PUSH28 0xFFFFFFFFFFFFFFFFFFFFFFFFFFFFFFFFFFFFFFFFFFFFFFFFFFFFFFFF NOT AND EQ PUSH3 0x1210 JUMPI PUSH1 0x40 MLOAD PUSH32 0x8C379A000000000000000000000000000000000000000000000000000000000 DUP2 MSTORE PUSH1 0x4 ADD PUSH3 0x1207 SWAP1 PUSH3 0x2075 JUMP JUMPDEST PUSH1 0x40 MLOAD DUP1 SWAP2 SUB SWAP1 REVERT JUMPDEST POP JUMPDEST POP POP POP POP POP POP JUMP JUMPDEST PUSH1 0x0 DUP1 DUP3 PUSH20 0xFFFFFFFFFFFFFFFFFFFFFFFFFFFFFFFFFFFFFFFF AND EXTCODESIZE GT SWAP1 POP SWAP2 SWAP1 POP JUMP JUMPDEST PUSH1 0x0 DUP2 MLOAD SWAP1 POP SWAP2 SWAP1 POP JUMP JUMPDEST PUSH32 0x4E487B7100000000000000000000000000000000000000000000000000000000 PUSH1 0x0 MSTORE PUSH1 0x41 PUSH1 0x4 MSTORE PUSH1 0x24 PUSH1 0x0 REVERT JUMPDEST PUSH32 0x4E487B7100000000000000000000000000000000000000000000000000000000 PUSH1 0x0 MSTORE PUSH1 0x22 PUSH1 0x4 MSTORE PUSH1 0x24 PUSH1 0x0 REVERT JUMPDEST PUSH1 0x0 PUSH1 0x2 DUP3 DIV SWAP1 POP PUSH1 0x1 DUP3 AND DUP1 PUSH3 0x12BF JUMPI PUSH1 0x7F DUP3 AND SWAP2 POP JUMPDEST PUSH1 0x20 DUP3 LT DUP2 SUB PUSH3 0x12D5 JUMPI PUSH3 0x12D4 PUSH3 0x1277 JUMP JUMPDEST JUMPDEST POP SWAP2 SWAP1 POP JUMP JUMPDEST PUSH1 0x0 DUP2 SWAP1 POP DUP2 PUSH1 0x0 MSTORE PUSH1 0x20 PUSH1 0x0 KECCAK256 SWAP1 POP SWAP2 SWAP1 POP JUMP JUMPDEST PUSH1 0x0 PUSH1 0x20 PUSH1 0x1F DUP4 ADD DIV SWAP1 POP SWAP2 SWAP1 POP JUMP JUMPDEST PUSH1 0x0 DUP3 DUP3 SHL SWAP1 POP SWAP3 SWAP2 POP POP JUMP JUMPDEST PUSH1 0x0 PUSH1 0x8 DUP4 MUL PUSH3 0x133F PUSH32 0xFFFFFFFFFFFFFFFFFFFFFFFFFFFFFFFFFFFFFFFFFFFFFFFFFFFFFFFFFFFFFFFF DUP3 PUSH3 0x1300 JUMP JUMPDEST PUSH3 0x134B DUP7 DUP4 PUSH3 0x1300 JUMP JUMPDEST SWAP6 POP DUP1 NOT DUP5 AND SWAP4 POP DUP1 DUP7 AND DUP5 OR SWAP3 POP POP POP SWAP4 SWAP3 POP POP POP JUMP JUMPDEST PUSH1 0x0 DUP2 SWAP1 POP SWAP2 SWAP1 POP JUMP JUMPDEST PUSH1 0x0 DUP2 SWAP1 POP SWAP2 SWAP1 POP JUMP JUMPDEST PUSH1 0x0 PUSH3 0x1398 PUSH3 0x1392 PUSH3 0x138C DUP5 PUSH3 0x1363 JUMP JUMPDEST PUSH3 0x136D JUMP JUMPDEST PUSH3 0x1363 JUMP JUMPDEST SWAP1 POP SWAP2 SWAP1 POP JUMP JUMPDEST PUSH1 0x0 DUP2 SWAP1 POP SWAP2 SWAP1 POP JUMP JUMPDEST PUSH3 0x13B4 DUP4 PUSH3 0x1377 JUMP JUMPDEST PUSH3 0x13CC PUSH3 0x13C3 DUP3 PUSH3 0x139F JUMP JUMPDEST DUP5 DUP5 SLOAD PUSH3 0x130D JUMP JUMPDEST DUP3 SSTORE POP POP POP POP JUMP JUMPDEST PUSH1 0x0 SWAP1 JUMP JUMPDEST PUSH3 0x13E3 PUSH3 0x13D4 JUMP JUMPDEST PUSH3 0x13F0 DUP2 DUP5 DUP5 PUSH3 0x13A9 JUMP JUMPDEST POP POP POP JUMP JUMPDEST JUMPDEST DUP2 DUP2 LT ISZERO PUSH3 0x1418 JUMPI PUSH3 0x140C PUSH1 0x0 DUP3 PUSH3 0x13D9 JUMP JUMPDEST PUSH1 0x1 DUP2 ADD SWAP1 POP PUSH3 0x13F6 JUMP JUMPDEST POP POP JUMP JUMPDEST PUSH1 0x1F DUP3 GT ISZERO PUSH3 0x1467 JUMPI PUSH3 0x1431 DUP2 PUSH3 0x12DB JUMP JUMPDEST PUSH3 0x143C DUP5 PUSH3 0x12F0 JUMP JUMPDEST DUP2 ADD PUSH1 0x20 DUP6 LT ISZERO PUSH3 0x144C JUMPI DUP2 SWAP1 POP JUMPDEST PUSH3 0x1464 PUSH3 0x145B DUP6 PUSH3 0x12F0 JUMP JUMPDEST DUP4 ADD DUP3 PUSH3 0x13F5 JUMP JUMPDEST POP POP JUMPDEST POP POP POP JUMP JUMPDEST PUSH1 0x0 DUP3 DUP3 SHR SWAP1 POP SWAP3 SWAP2 POP POP JUMP JUMPDEST PUSH1 0x0 PUSH3 0x148C PUSH1 0x0 NOT DUP5 PUSH1 0x8 MUL PUSH3 0x146C JUMP JUMPDEST NOT DUP1 DUP4 AND SWAP2 POP POP SWAP3 SWAP2 POP POP JUMP JUMPDEST PUSH1 0x0 PUSH3 0x14A7 DUP4 DUP4 PUSH3 0x1479 JUMP JUMPDEST SWAP2 POP DUP3 PUSH1 0x2 MUL DUP3 OR SWAP1 POP SWAP3 SWAP2 POP POP JUMP JUMPDEST PUSH3 0x14C2 DUP3 PUSH3 0x123D JUMP JUMPDEST PUSH8 0xFFFFFFFFFFFFFFFF DUP2 GT ISZERO PUSH3 0x14DE JUMPI PUSH3 0x14DD PUSH3 0x1248 JUMP JUMPDEST JUMPDEST PUSH3 0x14EA DUP3 SLOAD PUSH3 0x12A6 JUMP JUMPDEST PUSH3 0x14F7 DUP3 DUP3 DUP6 PUSH3 0x141C JUMP JUMPDEST PUSH1 0x0 PUSH1 0x20 SWAP1 POP PUSH1 0x1F DUP4 GT PUSH1 0x1 DUP2 EQ PUSH3 0x152F JUMPI PUSH1 0x0 DUP5 ISZERO PUSH3 0x151A JUMPI DUP3 DUP8 ADD MLOAD SWAP1 POP JUMPDEST PUSH3 0x1526 DUP6 DUP3 PUSH3 0x1499 JUMP JUMPDEST DUP7 SSTORE POP PUSH3 0x1596 JUMP JUMPDEST PUSH1 0x1F NOT DUP5 AND PUSH3 0x153F DUP7 PUSH3 0x12DB JUMP JUMPDEST PUSH1 0x0 JUMPDEST DUP3 DUP2 LT ISZERO PUSH3 0x1569 JUMPI DUP5 DUP10 ADD MLOAD DUP3 SSTORE PUSH1 0x1 DUP3 ADD SWAP2 POP PUSH1 0x20 DUP6 ADD SWAP5 POP PUSH1 0x20 DUP2 ADD SWAP1 POP PUSH3 0x1542 JUMP JUMPDEST DUP7 DUP4 LT ISZERO PUSH3 0x1589 JUMPI DUP5 DUP10 ADD MLOAD PUSH3 0x1585 PUSH1 0x1F DUP10 AND DUP3 PUSH3 0x1479 JUMP JUMPDEST DUP4 SSTORE POP JUMPDEST PUSH1 0x1 PUSH1 0x2 DUP9 MUL ADD DUP9 SSTORE POP POP POP JUMPDEST POP POP POP POP POP POP JUMP JUMPDEST PUSH1 0x0 PUSH20 0xFFFFFFFFFFFFFFFFFFFFFFFFFFFFFFFFFFFFFFFF DUP3 AND SWAP1 POP SWAP2 SWAP1 POP JUMP JUMPDEST PUSH1 0x0 PUSH3 0x15CB DUP3 PUSH3 0x159E JUMP JUMPDEST SWAP1 POP SWAP2 SWAP1 POP JUMP JUMPDEST PUSH3 0x15DD DUP2 PUSH3 0x15BE JUMP JUMPDEST DUP3 MSTORE POP POP JUMP JUMPDEST PUSH1 0x0 PUSH1 0x40 DUP3 ADD SWAP1 POP PUSH3 0x15FA PUSH1 0x0 DUP4 ADD DUP6 PUSH3 0x15D2 JUMP JUMPDEST PUSH3 0x1609 PUSH1 0x20 DUP4 ADD DUP5 PUSH3 0x15D2 JUMP JUMPDEST SWAP4 SWAP3 POP POP POP JUMP JUMPDEST PUSH1 0x0 PUSH1 0x20 DUP3 ADD SWAP1 POP PUSH3 0x1627 PUSH1 0x0 DUP4 ADD DUP5 PUSH3 0x15D2 JUMP JUMPDEST SWAP3 SWAP2 POP POP JUMP JUMPDEST PUSH1 0x0 DUP2 SWAP1 POP SWAP3 SWAP2 POP POP JUMP JUMPDEST PUSH32 0x6163636F756E7420000000000000000000000000000000000000000000000000 PUSH1 0x0 DUP3 ADD MSTORE POP JUMP JUMPDEST PUSH1 0x0 PUSH3 0x1670 PUSH1 0x8 DUP4 PUSH3 0x162D JUMP JUMPDEST SWAP2 POP PUSH3 0x167D DUP3 PUSH3 0x1638 JUMP JUMPDEST PUSH1 0x8 DUP3 ADD SWAP1 POP SWAP2 SWAP1 POP JUMP JUMPDEST PUSH1 0x0 JUMPDEST DUP4 DUP2 LT ISZERO PUSH3 0x16A8 JUMPI DUP1 DUP3 ADD MLOAD DUP2 DUP5 ADD MSTORE PUSH1 0x20 DUP2 ADD SWAP1 POP PUSH3 0x168B JUMP JUMPDEST PUSH1 0x0 DUP5 DUP5 ADD MSTORE POP POP POP POP JUMP JUMPDEST PUSH1 0x0 PUSH3 0x16C1 DUP3 PUSH3 0x123D JUMP JUMPDEST PUSH3 0x16CD DUP2 DUP6 PUSH3 0x162D JUMP JUMPDEST SWAP4 POP PUSH3 0x16DF DUP2 DUP6 PUSH1 0x20 DUP7 ADD PUSH3 0x1688 JUMP JUMPDEST DUP1 DUP5 ADD SWAP2 POP POP SWAP3 SWAP2 POP POP JUMP JUMPDEST PUSH32 0x20697320616C72656164792068617320616E206F70657261746F7220726F6C65 PUSH1 0x0 DUP3 ADD MSTORE POP JUMP JUMPDEST PUSH1 0x0 PUSH3 0x1723 PUSH1 0x20 DUP4 PUSH3 0x162D JUMP JUMPDEST SWAP2 POP PUSH3 0x1730 DUP3 PUSH3 0x16EB JUMP JUMPDEST PUSH1 0x20 DUP3 ADD SWAP1 POP SWAP2 SWAP1 POP JUMP JUMPDEST PUSH1 0x0 PUSH3 0x1748 DUP3 PUSH3 0x1661 JUMP JUMPDEST SWAP2 POP PUSH3 0x1756 DUP3 DUP5 PUSH3 0x16B4 JUMP JUMPDEST SWAP2 POP PUSH3 0x1763 DUP3 PUSH3 0x1714 JUMP JUMPDEST SWAP2 POP DUP2 SWAP1 POP SWAP3 SWAP2 POP POP JUMP JUMPDEST PUSH1 0x0 DUP3 DUP3 MSTORE PUSH1 0x20 DUP3 ADD SWAP1 POP SWAP3 SWAP2 POP POP JUMP JUMPDEST PUSH1 0x0 PUSH1 0x1F NOT PUSH1 0x1F DUP4 ADD AND SWAP1 POP SWAP2 SWAP1 POP JUMP JUMPDEST PUSH1 0x0 PUSH3 0x179D DUP3 PUSH3 0x123D JUMP JUMPDEST PUSH3 0x17A9 DUP2 DUP6 PUSH3 0x176E JUMP JUMPDEST SWAP4 POP PUSH3 0x17BB DUP2 DUP6 PUSH1 0x20 DUP7 ADD PUSH3 0x1688 JUMP JUMPDEST PUSH3 0x17C6 DUP2 PUSH3 0x177F JUMP JUMPDEST DUP5 ADD SWAP2 POP POP SWAP3 SWAP2 POP POP JUMP JUMPDEST PUSH1 0x0 PUSH1 0x20 DUP3 ADD SWAP1 POP DUP2 DUP2 SUB PUSH1 0x0 DUP4 ADD MSTORE PUSH3 0x17ED DUP2 DUP5 PUSH3 0x1790 JUMP JUMPDEST SWAP1 POP SWAP3 SWAP2 POP POP JUMP JUMPDEST PUSH32 0x455243323938313A20726F79616C7479206665652077696C6C20657863656564 PUSH1 0x0 DUP3 ADD MSTORE PUSH32 0x2073616C65507269636500000000000000000000000000000000000000000000 PUSH1 0x20 DUP3 ADD MSTORE POP JUMP JUMPDEST PUSH1 0x0 PUSH3 0x1853 PUSH1 0x2A DUP4 PUSH3 0x176E JUMP JUMPDEST SWAP2 POP PUSH3 0x1860 DUP3 PUSH3 0x17F5 JUMP JUMPDEST PUSH1 0x40 DUP3 ADD SWAP1 POP SWAP2 SWAP1 POP JUMP JUMPDEST PUSH1 0x0 PUSH1 0x20 DUP3 ADD SWAP1 POP DUP2 DUP2 SUB PUSH1 0x0 DUP4 ADD MSTORE PUSH3 0x1886 DUP2 PUSH3 0x1844 JUMP JUMPDEST SWAP1 POP SWAP2 SWAP1 POP JUMP JUMPDEST PUSH32 0x455243323938313A20696E76616C696420726563656976657200000000000000 PUSH1 0x0 DUP3 ADD MSTORE POP JUMP JUMPDEST PUSH1 0x0 PUSH3 0x18C5 PUSH1 0x19 DUP4 PUSH3 0x176E JUMP JUMPDEST SWAP2 POP PUSH3 0x18D2 DUP3 PUSH3 0x188D JUMP JUMPDEST PUSH1 0x20 DUP3 ADD SWAP1 POP SWAP2 SWAP1 POP JUMP JUMPDEST PUSH1 0x0 PUSH1 0x20 DUP3 ADD SWAP1 POP DUP2 DUP2 SUB PUSH1 0x0 DUP4 ADD MSTORE PUSH3 0x18F8 DUP2 PUSH3 0x18B6 JUMP JUMPDEST SWAP1 POP SWAP2 SWAP1 POP JUMP JUMPDEST PUSH32 0x4E465420616C7265616479206578697374730000000000000000000000000000 PUSH1 0x0 DUP3 ADD MSTORE POP JUMP JUMPDEST PUSH1 0x0 PUSH3 0x1937 PUSH1 0x12 DUP4 PUSH3 0x176E JUMP JUMPDEST SWAP2 POP PUSH3 0x1944 DUP3 PUSH3 0x18FF JUMP JUMPDEST PUSH1 0x20 DUP3 ADD SWAP1 POP SWAP2 SWAP1 POP JUMP JUMPDEST PUSH1 0x0 PUSH1 0x20 DUP3 ADD SWAP1 POP DUP2 DUP2 SUB PUSH1 0x0 DUP4 ADD MSTORE PUSH3 0x196A DUP2 PUSH3 0x1928 JUMP JUMPDEST SWAP1 POP SWAP2 SWAP1 POP JUMP JUMPDEST PUSH32 0x4E487B7100000000000000000000000000000000000000000000000000000000 PUSH1 0x0 MSTORE PUSH1 0x11 PUSH1 0x4 MSTORE PUSH1 0x24 PUSH1 0x0 REVERT JUMPDEST PUSH1 0x0 PUSH3 0x19AD DUP3 PUSH3 0x1363 JUMP JUMPDEST SWAP2 POP PUSH3 0x19BA DUP4 PUSH3 0x1363 JUMP JUMPDEST SWAP3 POP DUP3 DUP3 MUL PUSH3 0x19CA DUP2 PUSH3 0x1363 JUMP JUMPDEST SWAP2 POP DUP3 DUP3 DIV DUP5 EQ DUP4 ISZERO OR PUSH3 0x19E4 JUMPI PUSH3 0x19E3 PUSH3 0x1971 JUMP JUMPDEST JUMPDEST POP SWAP3 SWAP2 POP POP JUMP JUMPDEST PUSH1 0x0 PUSH3 0x19F8 DUP3 PUSH3 0x1363 JUMP JUMPDEST SWAP2 POP PUSH3 0x1A05 DUP4 PUSH3 0x1363 JUMP JUMPDEST SWAP3 POP DUP3 DUP3 ADD SWAP1 POP DUP1 DUP3 GT ISZERO PUSH3 0x1A20 JUMPI PUSH3 0x1A1F PUSH3 0x1971 JUMP JUMPDEST JUMPDEST SWAP3 SWAP2 POP POP JUMP JUMPDEST PUSH32 0x4E487B7100000000000000000000000000000000000000000000000000000000 PUSH1 0x0 MSTORE PUSH1 0x32 PUSH1 0x4 MSTORE PUSH1 0x24 PUSH1 0x0 REVERT JUMPDEST PUSH1 0x0 PUSH3 0x1A62 DUP3 PUSH3 0x1363 JUMP JUMPDEST SWAP2 POP PUSH1 0x0 DUP3 SUB PUSH3 0x1A78 JUMPI PUSH3 0x1A77 PUSH3 0x1971 JUMP JUMPDEST JUMPDEST PUSH1 0x1 DUP3 SUB SWAP1 POP SWAP2 SWAP1 POP JUMP JUMPDEST PUSH32 0x537472696E67733A20686578206C656E67746820696E73756666696369656E74 PUSH1 0x0 DUP3 ADD MSTORE POP JUMP JUMPDEST PUSH1 0x0 PUSH3 0x1ABB PUSH1 0x20 DUP4 PUSH3 0x176E JUMP JUMPDEST SWAP2 POP PUSH3 0x1AC8 DUP3 PUSH3 0x1A83 JUMP JUMPDEST PUSH1 0x20 DUP3 ADD SWAP1 POP SWAP2 SWAP1 POP JUMP JUMPDEST PUSH1 0x0 PUSH1 0x20 DUP3 ADD SWAP1 POP DUP2 DUP2 SUB PUSH1 0x0 DUP4 ADD MSTORE PUSH3 0x1AEE DUP2 PUSH3 0x1AAC JUMP JUMPDEST SWAP1 POP SWAP2 SWAP1 POP JUMP JUMPDEST PUSH32 0x206973206E6F7420616E206F70657261746F7200000000000000000000000000 PUSH1 0x0 DUP3 ADD MSTORE POP JUMP JUMPDEST PUSH1 0x0 PUSH3 0x1B2D PUSH1 0x13 DUP4 PUSH3 0x162D JUMP JUMPDEST SWAP2 POP PUSH3 0x1B3A DUP3 PUSH3 0x1AF5 JUMP JUMPDEST PUSH1 0x13 DUP3 ADD SWAP1 POP SWAP2 SWAP1 POP JUMP JUMPDEST PUSH1 0x0 PUSH3 0x1B52 DUP3 PUSH3 0x1661 JUMP JUMPDEST SWAP2 POP PUSH3 0x1B60 DUP3 DUP5 PUSH3 0x16B4 JUMP JUMPDEST SWAP2 POP PUSH3 0x1B6D DUP3 PUSH3 0x1B1E JUMP JUMPDEST SWAP2 POP DUP2 SWAP1 POP SWAP3 SWAP2 POP POP JUMP JUMPDEST PUSH1 0x0 DUP2 SLOAD PUSH3 0x1B87 DUP2 PUSH3 0x12A6 JUMP JUMPDEST PUSH3 0x1B93 DUP2 DUP7 PUSH3 0x162D JUMP JUMPDEST SWAP5 POP PUSH1 0x1 DUP3 AND PUSH1 0x0 DUP2 EQ PUSH3 0x1BB1 JUMPI PUSH1 0x1 DUP2 EQ PUSH3 0x1BC7 JUMPI PUSH3 0x1BFE JUMP JUMPDEST PUSH1 0xFF NOT DUP4 AND DUP7 MSTORE DUP2 ISZERO ISZERO DUP3 MUL DUP7 ADD SWAP4 POP PUSH3 0x1BFE JUMP JUMPDEST PUSH3 0x1BD2 DUP6 PUSH3 0x12DB JUMP JUMPDEST PUSH1 0x0 JUMPDEST DUP4 DUP2 LT ISZERO PUSH3 0x1BF6 JUMPI DUP2 SLOAD DUP2 DUP10 ADD MSTORE PUSH1 0x1 DUP3 ADD SWAP2 POP PUSH1 0x20 DUP2 ADD SWAP1 POP PUSH3 0x1BD5 JUMP JUMPDEST DUP4 DUP9 ADD SWAP6 POP POP POP JUMPDEST POP POP POP SWAP3 SWAP2 POP POP JUMP JUMPDEST PUSH1 0x0 PUSH3 0x1C15 DUP3 DUP6 PUSH3 0x1B78 JUMP JUMPDEST SWAP2 POP PUSH3 0x1C23 DUP3 DUP5 PUSH3 0x16B4 JUMP JUMPDEST SWAP2 POP DUP2 SWAP1 POP SWAP4 SWAP3 POP POP POP JUMP JUMPDEST PUSH32 0x455243313135353A206D696E7420746F20746865207A65726F20616464726573 PUSH1 0x0 DUP3 ADD MSTORE PUSH32 0x7300000000000000000000000000000000000000000000000000000000000000 PUSH1 0x20 DUP3 ADD MSTORE POP JUMP JUMPDEST PUSH1 0x0 PUSH3 0x1C8D PUSH1 0x21 DUP4 PUSH3 0x176E JUMP JUMPDEST SWAP2 POP PUSH3 0x1C9A DUP3 PUSH3 0x1C2F JUMP JUMPDEST PUSH1 0x40 DUP3 ADD SWAP1 POP SWAP2 SWAP1 POP JUMP JUMPDEST PUSH1 0x0 PUSH1 0x20 DUP3 ADD SWAP1 POP DUP2 DUP2 SUB PUSH1 0x0 DUP4 ADD MSTORE PUSH3 0x1CC0 DUP2 PUSH3 0x1C7E JUMP JUMPDEST SWAP1 POP SWAP2 SWAP1 POP JUMP JUMPDEST PUSH3 0x1CD2 DUP2 PUSH3 0x1363 JUMP JUMPDEST DUP3 MSTORE POP POP JUMP JUMPDEST PUSH1 0x0 PUSH1 0x40 DUP3 ADD SWAP1 POP PUSH3 0x1CEF PUSH1 0x0 DUP4 ADD DUP6 PUSH3 0x1CC7 JUMP JUMPDEST PUSH3 0x1CFE PUSH1 0x20 DUP4 ADD DUP5 PUSH3 0x1CC7 JUMP JUMPDEST SWAP4 SWAP3 POP POP POP JUMP JUMPDEST PUSH1 0x0 DUP2 MLOAD SWAP1 POP SWAP2 SWAP1 POP JUMP JUMPDEST PUSH1 0x0 DUP3 DUP3 MSTORE PUSH1 0x20 DUP3 ADD SWAP1 POP SWAP3 SWAP2 POP POP JUMP JUMPDEST PUSH1 0x0 PUSH3 0x1D2E DUP3 PUSH3 0x1D05 JUMP JUMPDEST PUSH3 0x1D3A DUP2 DUP6 PUSH3 0x1D10 JUMP JUMPDEST SWAP4 POP PUSH3 0x1D4C DUP2 DUP6 PUSH1 0x20 DUP7 ADD PUSH3 0x1688 JUMP JUMPDEST PUSH3 0x1D57 DUP2 PUSH3 0x177F JUMP JUMPDEST DUP5 ADD SWAP2 POP POP SWAP3 SWAP2 POP POP JUMP JUMPDEST PUSH1 0x0 PUSH1 0xA0 DUP3 ADD SWAP1 POP PUSH3 0x1D79 PUSH1 0x0 DUP4 ADD DUP9 PUSH3 0x15D2 JUMP JUMPDEST PUSH3 0x1D88 PUSH1 0x20 DUP4 ADD DUP8 PUSH3 0x15D2 JUMP JUMPDEST PUSH3 0x1D97 PUSH1 0x40 DUP4 ADD DUP7 PUSH3 0x1CC7 JUMP JUMPDEST PUSH3 0x1DA6 PUSH1 0x60 DUP4 ADD DUP6 PUSH3 0x1CC7 JUMP JUMPDEST DUP2 DUP2 SUB PUSH1 0x80 DUP4 ADD MSTORE PUSH3 0x1DBA DUP2 DUP5 PUSH3 0x1D21 JUMP JUMPDEST SWAP1 POP SWAP7 SWAP6 POP POP POP POP POP POP JUMP JUMPDEST PUSH1 0x0 PUSH1 0x40 MLOAD SWAP1 POP SWAP1 JUMP JUMPDEST PUSH1 0x0 DUP1 REVERT JUMPDEST PUSH1 0x0 PUSH32 0xFFFFFFFF00000000000000000000000000000000000000000000000000000000 DUP3 AND SWAP1 POP SWAP2 SWAP1 POP JUMP JUMPDEST PUSH3 0x1E0C DUP2 PUSH3 0x1DD5 JUMP JUMPDEST DUP2 EQ PUSH3 0x1E18 JUMPI PUSH1 0x0 DUP1 REVERT JUMPDEST POP JUMP JUMPDEST PUSH1 0x0 DUP2 MLOAD SWAP1 POP PUSH3 0x1E2C DUP2 PUSH3 0x1E01 JUMP JUMPDEST SWAP3 SWAP2 POP POP JUMP JUMPDEST PUSH1 0x0 PUSH1 0x20 DUP3 DUP5 SUB SLT ISZERO PUSH3 0x1E4B JUMPI PUSH3 0x1E4A PUSH3 0x1DD0 JUMP JUMPDEST JUMPDEST PUSH1 0x0 PUSH3 0x1E5B DUP5 DUP3 DUP6 ADD PUSH3 0x1E1B JUMP JUMPDEST SWAP2 POP POP SWAP3 SWAP2 POP POP JUMP JUMPDEST PUSH1 0x0 DUP2 PUSH1 0xE0 SHR SWAP1 POP SWAP2 SWAP1 POP JUMP JUMPDEST PUSH1 0x0 PUSH1 0x3 RETURNDATASIZE GT ISZERO PUSH3 0x1E93 JUMPI PUSH1 0x4 PUSH1 0x0 DUP1 RETURNDATACOPY PUSH3 0x1E90 PUSH1 0x0 MLOAD PUSH3 0x1E64 JUMP JUMPDEST SWAP1 POP JUMPDEST SWAP1 JUMP JUMPDEST PUSH3 0x1EA1 DUP3 PUSH3 0x177F JUMP JUMPDEST DUP2 ADD DUP2 DUP2 LT PUSH8 0xFFFFFFFFFFFFFFFF DUP3 GT OR ISZERO PUSH3 0x1EC3 JUMPI PUSH3 0x1EC2 PUSH3 0x1248 JUMP JUMPDEST JUMPDEST DUP1 PUSH1 0x40 MSTORE POP POP POP JUMP JUMPDEST PUSH1 0x0 PUSH1 0x44 RETURNDATASIZE LT PUSH3 0x1F64 JUMPI PUSH3 0x1EE1 PUSH3 0x1DC6 JUMP JUMPDEST PUSH1 0x4 RETURNDATASIZE SUB PUSH1 0x4 DUP3 RETURNDATACOPY DUP1 MLOAD RETURNDATASIZE PUSH1 0x24 DUP3 ADD GT PUSH8 0xFFFFFFFFFFFFFFFF DUP3 GT OR ISZERO PUSH3 0x1F0B JUMPI POP POP PUSH3 0x1F64 JUMP JUMPDEST DUP1 DUP3 ADD DUP1 MLOAD PUSH8 0xFFFFFFFFFFFFFFFF DUP2 GT ISZERO PUSH3 0x1F2B JUMPI POP POP POP POP PUSH3 0x1F64 JUMP JUMPDEST DUP1 PUSH1 0x20 DUP4 ADD ADD PUSH1 0x4 RETURNDATASIZE SUB DUP6 ADD DUP2 GT ISZERO PUSH3 0x1F4A JUMPI POP POP POP POP POP PUSH3 0x1F64 JUMP JUMPDEST PUSH3 0x1F5B DUP3 PUSH1 0x20 ADD DUP6 ADD DUP7 PUSH3 0x1E96 JUMP JUMPDEST DUP3 SWAP6 POP POP POP POP POP POP JUMPDEST SWAP1 JUMP JUMPDEST PUSH32 0x455243313135353A207472616E7366657220746F206E6F6E2D45524331313535 PUSH1 0x0 DUP3 ADD MSTORE PUSH32 0x526563656976657220696D706C656D656E746572000000000000000000000000 PUSH1 0x20 DUP3 ADD MSTORE POP JUMP JUMPDEST PUSH1 0x0 PUSH3 0x1FC5 PUSH1 0x34 DUP4 PUSH3 0x176E JUMP JUMPDEST SWAP2 POP PUSH3 0x1FD2 DUP3 PUSH3 0x1F67 JUMP JUMPDEST PUSH1 0x40 DUP3 ADD SWAP1 POP SWAP2 SWAP1 POP JUMP JUMPDEST PUSH1 0x0 PUSH1 0x20 DUP3 ADD SWAP1 POP DUP2 DUP2 SUB PUSH1 0x0 DUP4 ADD MSTORE PUSH3 0x1FF8 DUP2 PUSH3 0x1FB6 JUMP JUMPDEST SWAP1 POP SWAP2 SWAP1 POP JUMP JUMPDEST PUSH32 0x455243313135353A204552433131353552656365697665722072656A65637465 PUSH1 0x0 DUP3 ADD MSTORE PUSH32 0x6420746F6B656E73000000000000000000000000000000000000000000000000 PUSH1 0x20 DUP3 ADD MSTORE POP JUMP JUMPDEST PUSH1 0x0 PUSH3 0x205D PUSH1 0x28 DUP4 PUSH3 0x176E JUMP JUMPDEST SWAP2 POP PUSH3 0x206A DUP3 PUSH3 0x1FFF JUMP JUMPDEST PUSH1 0x40 DUP3 ADD SWAP1 POP SWAP2 SWAP1 POP JUMP JUMPDEST PUSH1 0x0 PUSH1 0x20 DUP3 ADD SWAP1 POP DUP2 DUP2 SUB PUSH1 0x0 DUP4 ADD MSTORE PUSH3 0x2090 DUP2 PUSH3 0x204E JUMP JUMPDEST SWAP1 POP SWAP2 SWAP1 POP JUMP JUMPDEST PUSH2 0x50BA DUP1 PUSH3 0x20A7 PUSH1 0x0 CODECOPY PUSH1 0x0 RETURN INVALID PUSH1 0x80 PUSH1 0x40 MSTORE CALLVALUE DUP1 ISZERO PUSH2 0x10 JUMPI PUSH1 0x0 DUP1 REVERT JUMPDEST POP PUSH1 0x4 CALLDATASIZE LT PUSH2 0x1C3 JUMPI PUSH1 0x0 CALLDATALOAD PUSH1 0xE0 SHR DUP1 PUSH4 0x5944C753 GT PUSH2 0xF9 JUMPI DUP1 PUSH4 0x95D89B41 GT PUSH2 0x97 JUMPI DUP1 PUSH4 0xB219F7D7 GT PUSH2 0x71 JUMPI DUP1 PUSH4 0xB219F7D7 EQ PUSH2 0x4C5 JUMPI DUP1 PUSH4 0xE985E9C5 EQ PUSH2 0x4E1 JUMPI DUP1 PUSH4 0xF242432A EQ PUSH2 0x511 JUMPI DUP1 PUSH4 0xF2FDE38B EQ PUSH2 0x52D JUMPI PUSH2 0x1C3 JUMP JUMPDEST DUP1 PUSH4 0x95D89B41 EQ PUSH2 0x481 JUMPI DUP1 PUSH4 0xA22CB465 EQ PUSH2 0x49F JUMPI DUP1 PUSH4 0xAA1B103F EQ PUSH2 0x4BB JUMPI PUSH2 0x1C3 JUMP JUMPDEST DUP1 PUSH4 0x872A2803 GT PUSH2 0xD3 JUMPI DUP1 PUSH4 0x872A2803 EQ PUSH2 0x40F JUMPI DUP1 PUSH4 0x8A616BC0 EQ PUSH2 0x42B JUMPI DUP1 PUSH4 0x8DA5CB5B EQ PUSH2 0x447 JUMPI DUP1 PUSH4 0x9324B42A EQ PUSH2 0x465 JUMPI PUSH2 0x1C3 JUMP JUMPDEST DUP1 PUSH4 0x5944C753 EQ PUSH2 0x3B9 JUMPI DUP1 PUSH4 0x6D70F7AE EQ PUSH2 0x3D5 JUMPI DUP1 PUSH4 0x715018A6 EQ PUSH2 0x405 JUMPI PUSH2 0x1C3 JUMP JUMPDEST DUP1 PUSH4 0x27AC0C58 GT PUSH2 0x166 JUMPI DUP1 PUSH4 0x2EB2C2D6 GT PUSH2 0x140 JUMPI DUP1 PUSH4 0x2EB2C2D6 EQ PUSH2 0x333 JUMPI DUP1 PUSH4 0x41F43434 EQ PUSH2 0x34F JUMPI DUP1 PUSH4 0x4E1273F4 EQ PUSH2 0x36D JUMPI DUP1 PUSH4 0x55F804B3 EQ PUSH2 0x39D JUMPI PUSH2 0x1C3 JUMP JUMPDEST DUP1 PUSH4 0x27AC0C58 EQ PUSH2 0x2CA JUMPI DUP1 PUSH4 0x2A55205A EQ PUSH2 0x2E6 JUMPI DUP1 PUSH4 0x2CDA9103 EQ PUSH2 0x317 JUMPI PUSH2 0x1C3 JUMP JUMPDEST DUP1 PUSH4 0x6FDDE03 GT PUSH2 0x1A2 JUMPI DUP1 PUSH4 0x6FDDE03 EQ PUSH2 0x244 JUMPI DUP1 PUSH4 0xE89341C EQ PUSH2 0x262 JUMPI DUP1 PUSH4 0x156E29F6 EQ PUSH2 0x292 JUMPI DUP1 PUSH4 0x162094C4 EQ PUSH2 0x2AE JUMPI PUSH2 0x1C3 JUMP JUMPDEST DUP1 PUSH3 0xFDD58E EQ PUSH2 0x1C8 JUMPI DUP1 PUSH4 0x1FFC9A7 EQ PUSH2 0x1F8 JUMPI DUP1 PUSH4 0x4634D8D EQ PUSH2 0x228 JUMPI JUMPDEST PUSH1 0x0 DUP1 REVERT JUMPDEST PUSH2 0x1E2 PUSH1 0x4 DUP1 CALLDATASIZE SUB DUP2 ADD SWAP1 PUSH2 0x1DD SWAP2 SWAP1 PUSH2 0x2F8E JUMP JUMPDEST PUSH2 0x549 JUMP JUMPDEST PUSH1 0x40 MLOAD PUSH2 0x1EF SWAP2 SWAP1 PUSH2 0x2FDD JUMP JUMPDEST PUSH1 0x40 MLOAD DUP1 SWAP2 SUB SWAP1 RETURN JUMPDEST PUSH2 0x212 PUSH1 0x4 DUP1 CALLDATASIZE SUB DUP2 ADD SWAP1 PUSH2 0x20D SWAP2 SWAP1 PUSH2 0x3050 JUMP JUMPDEST PUSH2 0x611 JUMP JUMPDEST PUSH1 0x40 MLOAD PUSH2 0x21F SWAP2 SWAP1 PUSH2 0x3098 JUMP JUMPDEST PUSH1 0x40 MLOAD DUP1 SWAP2 SUB SWAP1 RETURN JUMPDEST PUSH2 0x242 PUSH1 0x4 DUP1 CALLDATASIZE SUB DUP2 ADD SWAP1 PUSH2 0x23D SWAP2 SWAP1 PUSH2 0x30F7 JUMP JUMPDEST PUSH2 0x623 JUMP JUMPDEST STOP JUMPDEST PUSH2 0x24C PUSH2 0x639 JUMP JUMPDEST PUSH1 0x40 MLOAD PUSH2 0x259 SWAP2 SWAP1 PUSH2 0x31C7 JUMP JUMPDEST PUSH1 0x40 MLOAD DUP1 SWAP2 SUB SWAP1 RETURN JUMPDEST PUSH2 0x27C PUSH1 0x4 DUP1 CALLDATASIZE SUB DUP2 ADD SWAP1 PUSH2 0x277 SWAP2 SWAP1 PUSH2 0x31E9 JUMP JUMPDEST PUSH2 0x6C7 JUMP JUMPDEST PUSH1 0x40 MLOAD PUSH2 0x289 SWAP2 SWAP1 PUSH2 0x31C7 JUMP JUMPDEST PUSH1 0x40 MLOAD DUP1 SWAP2 SUB SWAP1 RETURN JUMPDEST PUSH2 0x2AC PUSH1 0x4 DUP1 CALLDATASIZE SUB DUP2 ADD SWAP1 PUSH2 0x2A7 SWAP2 SWAP1 PUSH2 0x3216 JUMP JUMPDEST PUSH2 0x7AC JUMP JUMPDEST STOP JUMPDEST PUSH2 0x2C8 PUSH1 0x4 DUP1 CALLDATASIZE SUB DUP2 ADD SWAP1 PUSH2 0x2C3 SWAP2 SWAP1 PUSH2 0x339E JUMP JUMPDEST PUSH2 0x828 JUMP JUMPDEST STOP JUMPDEST PUSH2 0x2E4 PUSH1 0x4 DUP1 CALLDATASIZE SUB DUP2 ADD SWAP1 PUSH2 0x2DF SWAP2 SWAP1 PUSH2 0x33FA JUMP JUMPDEST PUSH2 0x846 JUMP JUMPDEST STOP JUMPDEST PUSH2 0x300 PUSH1 0x4 DUP1 CALLDATASIZE SUB DUP2 ADD SWAP1 PUSH2 0x2FB SWAP2 SWAP1 PUSH2 0x3427 JUMP JUMPDEST PUSH2 0x85A JUMP JUMPDEST PUSH1 0x40 MLOAD PUSH2 0x30E SWAP3 SWAP2 SWAP1 PUSH2 0x3476 JUMP JUMPDEST PUSH1 0x40 MLOAD DUP1 SWAP2 SUB SWAP1 RETURN JUMPDEST PUSH2 0x331 PUSH1 0x4 DUP1 CALLDATASIZE SUB DUP2 ADD SWAP1 PUSH2 0x32C SWAP2 SWAP1 PUSH2 0x339E JUMP JUMPDEST PUSH2 0xA44 JUMP JUMPDEST STOP JUMPDEST PUSH2 0x34D PUSH1 0x4 DUP1 CALLDATASIZE SUB DUP2 ADD SWAP1 PUSH2 0x348 SWAP2 SWAP1 PUSH2 0x3608 JUMP JUMPDEST PUSH2 0xACA JUMP JUMPDEST STOP JUMPDEST PUSH2 0x357 PUSH2 0xB1D JUMP JUMPDEST PUSH1 0x40 MLOAD PUSH2 0x364 SWAP2 SWAP1 PUSH2 0x3736 JUMP JUMPDEST PUSH1 0x40 MLOAD DUP1 SWAP2 SUB SWAP1 RETURN JUMPDEST PUSH2 0x387 PUSH1 0x4 DUP1 CALLDATASIZE SUB DUP2 ADD SWAP1 PUSH2 0x382 SWAP2 SWAP1 PUSH2 0x3814 JUMP JUMPDEST PUSH2 0xB2F JUMP JUMPDEST PUSH1 0x40 MLOAD PUSH2 0x394 SWAP2 SWAP1 PUSH2 0x394A JUMP JUMPDEST PUSH1 0x40 MLOAD DUP1 SWAP2 SUB SWAP1 RETURN JUMPDEST PUSH2 0x3B7 PUSH1 0x4 DUP1 CALLDATASIZE SUB DUP2 ADD SWAP1 PUSH2 0x3B2 SWAP2 SWAP1 PUSH2 0x396C JUMP JUMPDEST PUSH2 0xC48 JUMP JUMPDEST STOP JUMPDEST PUSH2 0x3D3 PUSH1 0x4 DUP1 CALLDATASIZE SUB DUP2 ADD SWAP1 PUSH2 0x3CE SWAP2 SWAP1 PUSH2 0x39B5 JUMP JUMPDEST PUSH2 0xC64 JUMP JUMPDEST STOP JUMPDEST PUSH2 0x3EF PUSH1 0x4 DUP1 CALLDATASIZE SUB DUP2 ADD SWAP1 PUSH2 0x3EA SWAP2 SWAP1 PUSH2 0x33FA JUMP JUMPDEST PUSH2 0xC7C JUMP JUMPDEST PUSH1 0x40 MLOAD PUSH2 0x3FC SWAP2 SWAP1 PUSH2 0x3098 JUMP JUMPDEST PUSH1 0x40 MLOAD DUP1 SWAP2 SUB SWAP1 RETURN JUMPDEST PUSH2 0x40D PUSH2 0xCD2 JUMP JUMPDEST STOP JUMPDEST PUSH2 0x429 PUSH1 0x4 DUP1 CALLDATASIZE SUB DUP2 ADD SWAP1 PUSH2 0x424 SWAP2 SWAP1 PUSH2 0x3A08 JUMP JUMPDEST PUSH2 0xCE6 JUMP JUMPDEST STOP JUMPDEST PUSH2 0x445 PUSH1 0x4 DUP1 CALLDATASIZE SUB DUP2 ADD SWAP1 PUSH2 0x440 SWAP2 SWAP1 PUSH2 0x31E9 JUMP JUMPDEST PUSH2 0xD6A JUMP JUMPDEST STOP JUMPDEST PUSH2 0x44F PUSH2 0xD7E JUMP JUMPDEST PUSH1 0x40 MLOAD PUSH2 0x45C SWAP2 SWAP1 PUSH2 0x3A93 JUMP JUMPDEST PUSH1 0x40 MLOAD DUP1 SWAP2 SUB SWAP1 RETURN JUMPDEST PUSH2 0x47F PUSH1 0x4 DUP1 CALLDATASIZE SUB DUP2 ADD SWAP1 PUSH2 0x47A SWAP2 SWAP1 PUSH2 0x3216 JUMP JUMPDEST PUSH2 0xDA8 JUMP JUMPDEST STOP JUMPDEST PUSH2 0x489 PUSH2 0xDC8 JUMP JUMPDEST PUSH1 0x40 MLOAD PUSH2 0x496 SWAP2 SWAP1 PUSH2 0x31C7 JUMP JUMPDEST PUSH1 0x40 MLOAD DUP1 SWAP2 SUB SWAP1 RETURN JUMPDEST PUSH2 0x4B9 PUSH1 0x4 DUP1 CALLDATASIZE SUB DUP2 ADD SWAP1 PUSH2 0x4B4 SWAP2 SWAP1 PUSH2 0x3ADA JUMP JUMPDEST PUSH2 0xE56 JUMP JUMPDEST STOP JUMPDEST PUSH2 0x4C3 PUSH2 0xEEC JUMP JUMPDEST STOP JUMPDEST PUSH2 0x4DF PUSH1 0x4 DUP1 CALLDATASIZE SUB DUP2 ADD SWAP1 PUSH2 0x4DA SWAP2 SWAP1 PUSH2 0x33FA JUMP JUMPDEST PUSH2 0xEFE JUMP JUMPDEST STOP JUMPDEST PUSH2 0x4FB PUSH1 0x4 DUP1 CALLDATASIZE SUB DUP2 ADD SWAP1 PUSH2 0x4F6 SWAP2 SWAP1 PUSH2 0x3B1A JUMP JUMPDEST PUSH2 0xF12 JUMP JUMPDEST PUSH1 0x40 MLOAD PUSH2 0x508 SWAP2 SWAP1 PUSH2 0x3098 JUMP JUMPDEST PUSH1 0x40 MLOAD DUP1 SWAP2 SUB SWAP1 RETURN JUMPDEST PUSH2 0x52B PUSH1 0x4 DUP1 CALLDATASIZE SUB DUP2 ADD SWAP1 PUSH2 0x526 SWAP2 SWAP1 PUSH2 0x3B5A JUMP JUMPDEST PUSH2 0xFA6 JUMP JUMPDEST STOP JUMPDEST PUSH2 0x547 PUSH1 0x4 DUP1 CALLDATASIZE SUB DUP2 ADD SWAP1 PUSH2 0x542 SWAP2 SWAP1 PUSH2 0x33FA JUMP JUMPDEST PUSH2 0xFF9 JUMP JUMPDEST STOP JUMPDEST PUSH1 0x0 DUP1 PUSH20 0xFFFFFFFFFFFFFFFFFFFFFFFFFFFFFFFFFFFFFFFF AND DUP4 PUSH20 0xFFFFFFFFFFFFFFFFFFFFFFFFFFFFFFFFFFFFFFFF AND SUB PUSH2 0x5B9 JUMPI PUSH1 0x40 MLOAD PUSH32 0x8C379A000000000000000000000000000000000000000000000000000000000 DUP2 MSTORE PUSH1 0x4 ADD PUSH2 0x5B0 SWAP1 PUSH2 0x3C63 JUMP JUMPDEST PUSH1 0x40 MLOAD DUP1 SWAP2 SUB SWAP1 REVERT JUMPDEST PUSH1 0x0 DUP1 DUP4 DUP2 MSTORE PUSH1 0x20 ADD SWAP1 DUP2 MSTORE PUSH1 0x20 ADD PUSH1 0x0 KECCAK256 PUSH1 0x0 DUP5 PUSH20 0xFFFFFFFFFFFFFFFFFFFFFFFFFFFFFFFFFFFFFFFF AND PUSH20 0xFFFFFFFFFFFFFFFFFFFFFFFFFFFFFFFFFFFFFFFF AND DUP2 MSTORE PUSH1 0x20 ADD SWAP1 DUP2 MSTORE PUSH1 0x20 ADD PUSH1 0x0 KECCAK256 SLOAD SWAP1 POP SWAP3 SWAP2 POP POP JUMP JUMPDEST PUSH1 0x0 PUSH2 0x61C DUP3 PUSH2 0x136F JUMP JUMPDEST SWAP1 POP SWAP2 SWAP1 POP JUMP JUMPDEST PUSH2 0x62B PUSH2 0x13E9 JUMP JUMPDEST PUSH2 0x635 DUP3 DUP3 PUSH2 0x1467 JUMP JUMPDEST POP POP JUMP JUMPDEST PUSH1 0x9 DUP1 SLOAD PUSH2 0x646 SWAP1 PUSH2 0x3CB2 JUMP JUMPDEST DUP1 PUSH1 0x1F ADD PUSH1 0x20 DUP1 SWAP2 DIV MUL PUSH1 0x20 ADD PUSH1 0x40 MLOAD SWAP1 DUP2 ADD PUSH1 0x40 MSTORE DUP1 SWAP3 SWAP2 SWAP1 DUP2 DUP2 MSTORE PUSH1 0x20 ADD DUP3 DUP1 SLOAD PUSH2 0x672 SWAP1 PUSH2 0x3CB2 JUMP JUMPDEST DUP1 ISZERO PUSH2 0x6BF JUMPI DUP1 PUSH1 0x1F LT PUSH2 0x694 JUMPI PUSH2 0x100 DUP1 DUP4 SLOAD DIV MUL DUP4 MSTORE SWAP2 PUSH1 0x20 ADD SWAP2 PUSH2 0x6BF JUMP JUMPDEST DUP3 ADD SWAP2 SWAP1 PUSH1 0x0 MSTORE PUSH1 0x20 PUSH1 0x0 KECCAK256 SWAP1 JUMPDEST DUP2 SLOAD DUP2 MSTORE SWAP1 PUSH1 0x1 ADD SWAP1 PUSH1 0x20 ADD DUP1 DUP4 GT PUSH2 0x6A2 JUMPI DUP3 SWAP1 SUB PUSH1 0x1F AND DUP3 ADD SWAP2 JUMPDEST POP POP POP POP POP DUP2 JUMP JUMPDEST PUSH1 0x60 PUSH1 0x0 PUSH1 0x4 PUSH1 0x0 DUP5 DUP2 MSTORE PUSH1 0x20 ADD SWAP1 DUP2 MSTORE PUSH1 0x20 ADD PUSH1 0x0 KECCAK256 DUP1 SLOAD PUSH2 0x6E9 SWAP1 PUSH2 0x3CB2 JUMP JUMPDEST DUP1 PUSH1 0x1F ADD PUSH1 0x20 DUP1 SWAP2 DIV MUL PUSH1 0x20 ADD PUSH1 0x40 MLOAD SWAP1 DUP2 ADD PUSH1 0x40 MSTORE DUP1 SWAP3 SWAP2 SWAP1 DUP2 DUP2 MSTORE PUSH1 0x20 ADD DUP3 DUP1 SLOAD PUSH2 0x715 SWAP1 PUSH2 0x3CB2 JUMP JUMPDEST DUP1 ISZERO PUSH2 0x762 JUMPI DUP1 PUSH1 0x1F LT PUSH2 0x737 JUMPI PUSH2 0x100 DUP1 DUP4 SLOAD DIV MUL DUP4 MSTORE SWAP2 PUSH1 0x20 ADD SWAP2 PUSH2 0x762 JUMP JUMPDEST DUP3 ADD SWAP2 SWAP1 PUSH1 0x0 MSTORE PUSH1 0x20 PUSH1 0x0 KECCAK256 SWAP1 JUMPDEST DUP2 SLOAD DUP2 MSTORE SWAP1 PUSH1 0x1 ADD SWAP1 PUSH1 0x20 ADD DUP1 DUP4 GT PUSH2 0x745 JUMPI DUP3 SWAP1 SUB PUSH1 0x1F AND DUP3 ADD SWAP2 JUMPDEST POP POP POP POP POP SWAP1 POP PUSH1 0x0 DUP2 MLOAD GT PUSH2 0x780 JUMPI PUSH2 0x77B DUP4 PUSH2 0x12B8 JUMP JUMPDEST PUSH2 0x7A4 JUMP JUMPDEST PUSH1 0x3 DUP2 PUSH1 0x40 MLOAD PUSH1 0x20 ADD PUSH2 0x794 SWAP3 SWAP2 SWAP1 PUSH2 0x3DB7 JUMP JUMPDEST PUSH1 0x40 MLOAD PUSH1 0x20 DUP2 DUP4 SUB SUB DUP2 MSTORE SWAP1 PUSH1 0x40 MSTORE JUMPDEST SWAP2 POP POP SWAP2 SWAP1 POP JUMP JUMPDEST PUSH2 0x7BC PUSH2 0x7B7 PUSH2 0x15FC JUMP JUMPDEST PUSH2 0x1604 JUMP JUMPDEST PUSH1 0x0 PUSH2 0x7C7 DUP4 PUSH2 0x6C7 JUMP JUMPDEST MLOAD SUB PUSH2 0x808 JUMPI PUSH1 0x40 MLOAD PUSH32 0x8C379A000000000000000000000000000000000000000000000000000000000 DUP2 MSTORE PUSH1 0x4 ADD PUSH2 0x7FF SWAP1 PUSH2 0x3E27 JUMP JUMPDEST PUSH1 0x40 MLOAD DUP1 SWAP2 SUB SWAP1 REVERT JUMPDEST PUSH2 0x823 DUP4 DUP4 DUP4 PUSH1 0x40 MLOAD DUP1 PUSH1 0x20 ADD PUSH1 0x40 MSTORE DUP1 PUSH1 0x0 DUP2 MSTORE POP PUSH2 0x16DD JUMP JUMPDEST POP POP POP JUMP JUMPDEST PUSH2 0x838 PUSH2 0x833 PUSH2 0x15FC JUMP JUMPDEST PUSH2 0x1604 JUMP JUMPDEST PUSH2 0x842 DUP3 DUP3 PUSH2 0x188D JUMP JUMPDEST POP POP JUMP JUMPDEST PUSH2 0x84E PUSH2 0x13E9 JUMP JUMPDEST PUSH2 0x857 DUP2 PUSH2 0x18F2 JUMP JUMPDEST POP JUMP JUMPDEST PUSH1 0x0 DUP1 PUSH1 0x0 PUSH1 0x8 PUSH1 0x0 DUP7 DUP2 MSTORE PUSH1 0x20 ADD SWAP1 DUP2 MSTORE PUSH1 0x20 ADD PUSH1 0x0 KECCAK256 PUSH1 0x40 MLOAD DUP1 PUSH1 0x40 ADD PUSH1 0x40 MSTORE SWAP1 DUP2 PUSH1 0x0 DUP3 ADD PUSH1 0x0 SWAP1 SLOAD SWAP1 PUSH2 0x100 EXP SWAP1 DIV PUSH20 0xFFFFFFFFFFFFFFFFFFFFFFFFFFFFFFFFFFFFFFFF AND PUSH20 0xFFFFFFFFFFFFFFFFFFFFFFFFFFFFFFFFFFFFFFFF AND PUSH20 0xFFFFFFFFFFFFFFFFFFFFFFFFFFFFFFFFFFFFFFFF AND DUP2 MSTORE PUSH1 0x20 ADD PUSH1 0x0 DUP3 ADD PUSH1 0x14 SWAP1 SLOAD SWAP1 PUSH2 0x100 EXP SWAP1 DIV PUSH12 0xFFFFFFFFFFFFFFFFFFFFFFFF AND PUSH12 0xFFFFFFFFFFFFFFFFFFFFFFFF AND PUSH12 0xFFFFFFFFFFFFFFFFFFFFFFFF AND DUP2 MSTORE POP POP SWAP1 POP PUSH1 0x0 PUSH20 0xFFFFFFFFFFFFFFFFFFFFFFFFFFFFFFFFFFFFFFFF AND DUP2 PUSH1 0x0 ADD MLOAD PUSH20 0xFFFFFFFFFFFFFFFFFFFFFFFFFFFFFFFFFFFFFFFF AND SUB PUSH2 0x9EF JUMPI PUSH1 0x7 PUSH1 0x40 MLOAD DUP1 PUSH1 0x40 ADD PUSH1 0x40 MSTORE SWAP1 DUP2 PUSH1 0x0 DUP3 ADD PUSH1 0x0 SWAP1 SLOAD SWAP1 PUSH2 0x100 EXP SWAP1 DIV PUSH20 0xFFFFFFFFFFFFFFFFFFFFFFFFFFFFFFFFFFFFFFFF AND PUSH20 0xFFFFFFFFFFFFFFFFFFFFFFFFFFFFFFFFFFFFFFFF AND PUSH20 0xFFFFFFFFFFFFFFFFFFFFFFFFFFFFFFFFFFFFFFFF AND DUP2 MSTORE PUSH1 0x20 ADD PUSH1 0x0 DUP3 ADD PUSH1 0x14 SWAP1 SLOAD SWAP1 PUSH2 0x100 EXP SWAP1 DIV PUSH12 0xFFFFFFFFFFFFFFFFFFFFFFFF AND PUSH12 0xFFFFFFFFFFFFFFFFFFFFFFFF AND PUSH12 0xFFFFFFFFFFFFFFFFFFFFFFFF AND DUP2 MSTORE POP POP SWAP1 POP JUMPDEST PUSH1 0x0 PUSH2 0x9F9 PUSH2 0x1A24 JUMP JUMPDEST PUSH12 0xFFFFFFFFFFFFFFFFFFFFFFFF AND DUP3 PUSH1 0x20 ADD MLOAD PUSH12 0xFFFFFFFFFFFFFFFFFFFFFFFF AND DUP7 PUSH2 0xA25 SWAP2 SWAP1 PUSH2 0x3E76 JUMP JUMPDEST PUSH2 0xA2F SWAP2 SWAP1 PUSH2 0x3EE7 JUMP JUMPDEST SWAP1 POP DUP2 PUSH1 0x0 ADD MLOAD DUP2 SWAP4 POP SWAP4 POP POP POP SWAP3 POP SWAP3 SWAP1 POP JUMP JUMPDEST PUSH2 0xA54 PUSH2 0xA4F PUSH2 0x15FC JUMP JUMPDEST PUSH2 0x1604 JUMP JUMPDEST PUSH1 0x0 PUSH2 0xA5F DUP4 PUSH2 0x6C7 JUMP JUMPDEST MLOAD EQ PUSH2 0xAA0 JUMPI PUSH1 0x40 MLOAD PUSH32 0x8C379A000000000000000000000000000000000000000000000000000000000 DUP2 MSTORE PUSH1 0x4 ADD PUSH2 0xA97 SWAP1 PUSH2 0x3F64 JUMP JUMPDEST PUSH1 0x40 MLOAD DUP1 SWAP2 SUB SWAP1 REVERT JUMPDEST PUSH2 0xABC CALLER DUP4 PUSH1 0x1 PUSH1 0x40 MLOAD DUP1 PUSH1 0x20 ADD PUSH1 0x40 MSTORE DUP1 PUSH1 0x0 DUP2 MSTORE POP PUSH2 0x16DD JUMP JUMPDEST PUSH2 0xAC6 DUP3 DUP3 PUSH2 0x188D JUMP JUMPDEST POP POP JUMP JUMPDEST DUP5 CALLER PUSH20 0xFFFFFFFFFFFFFFFFFFFFFFFFFFFFFFFFFFFFFFFF AND DUP2 PUSH20 0xFFFFFFFFFFFFFFFFFFFFFFFFFFFFFFFFFFFFFFFF AND EQ PUSH2 0xB08 JUMPI PUSH2 0xB07 CALLER PUSH2 0x1A2E JUMP JUMPDEST JUMPDEST PUSH2 0xB15 DUP7 DUP7 DUP7 DUP7 DUP7 PUSH2 0x1B2B JUMP JUMPDEST POP POP POP POP POP POP JUMP JUMPDEST PUSH14 0xAAEB6D7670E522A718067333CD4E DUP2 JUMP JUMPDEST PUSH1 0x60 DUP2 MLOAD DUP4 MLOAD EQ PUSH2 0xB75 JUMPI PUSH1 0x40 MLOAD PUSH32 0x8C379A000000000000000000000000000000000000000000000000000000000 DUP2 MSTORE PUSH1 0x4 ADD PUSH2 0xB6C SWAP1 PUSH2 0x3FF6 JUMP JUMPDEST PUSH1 0x40 MLOAD DUP1 SWAP2 SUB SWAP1 REVERT JUMPDEST PUSH1 0x0 DUP4 MLOAD PUSH8 0xFFFFFFFFFFFFFFFF DUP2 GT ISZERO PUSH2 0xB92 JUMPI PUSH2 0xB91 PUSH2 0x3273 JUMP JUMPDEST JUMPDEST PUSH1 0x40 MLOAD SWAP1 DUP1 DUP3 MSTORE DUP1 PUSH1 0x20 MUL PUSH1 0x20 ADD DUP3 ADD PUSH1 0x40 MSTORE DUP1 ISZERO PUSH2 0xBC0 JUMPI DUP2 PUSH1 0x20 ADD PUSH1 0x20 DUP3 MUL DUP1 CALLDATASIZE DUP4 CALLDATACOPY DUP1 DUP3 ADD SWAP2 POP POP SWAP1 POP JUMPDEST POP SWAP1 POP PUSH1 0x0 JUMPDEST DUP5 MLOAD DUP2 LT ISZERO PUSH2 0xC3D JUMPI PUSH2 0xC0D DUP6 DUP3 DUP2 MLOAD DUP2 LT PUSH2 0xBE5 JUMPI PUSH2 0xBE4 PUSH2 0x4016 JUMP JUMPDEST JUMPDEST PUSH1 0x20 MUL PUSH1 0x20 ADD ADD MLOAD DUP6 DUP4 DUP2 MLOAD DUP2 LT PUSH2 0xC00 JUMPI PUSH2 0xBFF PUSH2 0x4016 JUMP JUMPDEST JUMPDEST PUSH1 0x20 MUL PUSH1 0x20 ADD ADD MLOAD PUSH2 0x549 JUMP JUMPDEST DUP3 DUP3 DUP2 MLOAD DUP2 LT PUSH2 0xC20 JUMPI PUSH2 0xC1F PUSH2 0x4016 JUMP JUMPDEST JUMPDEST PUSH1 0x20 MUL PUSH1 0x20 ADD ADD DUP2 DUP2 MSTORE POP POP DUP1 PUSH2 0xC36 SWAP1 PUSH2 0x4045 JUMP JUMPDEST SWAP1 POP PUSH2 0xBC6 JUMP JUMPDEST POP DUP1 SWAP2 POP POP SWAP3 SWAP2 POP POP JUMP JUMPDEST PUSH2 0xC58 PUSH2 0xC53 PUSH2 0x15FC JUMP JUMPDEST PUSH2 0x1604 JUMP JUMPDEST PUSH2 0xC61 DUP2 PUSH2 0x1BCC JUMP JUMPDEST POP JUMP JUMPDEST PUSH2 0xC6C PUSH2 0x13E9 JUMP JUMPDEST PUSH2 0xC77 DUP4 DUP4 DUP4 PUSH2 0x1BDF JUMP JUMPDEST POP POP POP JUMP JUMPDEST PUSH1 0x0 PUSH1 0x6 PUSH1 0x0 DUP4 PUSH20 0xFFFFFFFFFFFFFFFFFFFFFFFFFFFFFFFFFFFFFFFF AND PUSH20 0xFFFFFFFFFFFFFFFFFFFFFFFFFFFFFFFFFFFFFFFF AND DUP2 MSTORE PUSH1 0x20 ADD SWAP1 DUP2 MSTORE PUSH1 0x20 ADD PUSH1 0x0 KECCAK256 PUSH1 0x0 SWAP1 SLOAD SWAP1 PUSH2 0x100 EXP SWAP1 DIV PUSH1 0xFF AND SWAP1 POP SWAP2 SWAP1 POP JUMP JUMPDEST PUSH2 0xCDA PUSH2 0x13E9 JUMP JUMPDEST PUSH2 0xCE4 PUSH1 0x0 PUSH2 0x1D86 JUMP JUMPDEST JUMP JUMPDEST PUSH2 0xCF6 PUSH2 0xCF1 PUSH2 0x15FC JUMP JUMPDEST PUSH2 0x1604 JUMP JUMPDEST PUSH1 0x0 JUMPDEST DUP4 MLOAD DUP2 LT ISZERO PUSH2 0xD64 JUMPI PUSH2 0xD51 DUP5 DUP3 DUP2 MLOAD DUP2 LT PUSH2 0xD18 JUMPI PUSH2 0xD17 PUSH2 0x4016 JUMP JUMPDEST JUMPDEST PUSH1 0x20 MUL PUSH1 0x20 ADD ADD MLOAD DUP5 DUP5 DUP5 DUP2 MLOAD DUP2 LT PUSH2 0xD34 JUMPI PUSH2 0xD33 PUSH2 0x4016 JUMP JUMPDEST JUMPDEST PUSH1 0x20 MUL PUSH1 0x20 ADD ADD MLOAD PUSH1 0x40 MLOAD DUP1 PUSH1 0x20 ADD PUSH1 0x40 MSTORE DUP1 PUSH1 0x0 DUP2 MSTORE POP PUSH2 0x16DD JUMP JUMPDEST DUP1 DUP1 PUSH2 0xD5C SWAP1 PUSH2 0x4045 JUMP JUMPDEST SWAP2 POP POP PUSH2 0xCF9 JUMP JUMPDEST POP POP POP POP JUMP JUMPDEST PUSH2 0xD72 PUSH2 0x13E9 JUMP JUMPDEST PUSH2 0xD7B DUP2 PUSH2 0x1E4C JUMP JUMPDEST POP JUMP JUMPDEST PUSH1 0x0 PUSH1 0x5 PUSH1 0x0 SWAP1 SLOAD SWAP1 PUSH2 0x100 EXP SWAP1 DIV PUSH20 0xFFFFFFFFFFFFFFFFFFFFFFFFFFFFFFFFFFFFFFFF AND SWAP1 POP SWAP1 JUMP JUMPDEST PUSH2 0xDB8 PUSH2 0xDB3 PUSH2 0x15FC JUMP JUMPDEST PUSH2 0x1604 JUMP JUMPDEST PUSH2 0xDC3 DUP4 DUP4 DUP4 PUSH2 0x1EAB JUMP JUMPDEST POP POP POP JUMP JUMPDEST PUSH1 0xA DUP1 SLOAD PUSH2 0xDD5 SWAP1 PUSH2 0x3CB2 JUMP JUMPDEST DUP1 PUSH1 0x1F ADD PUSH1 0x20 DUP1 SWAP2 DIV MUL PUSH1 0x20 ADD PUSH1 0x40 MLOAD SWAP1 DUP2 ADD PUSH1 0x40 MSTORE DUP1 SWAP3 SWAP2 SWAP1 DUP2 DUP2 MSTORE PUSH1 0x20 ADD DUP3 DUP1 SLOAD PUSH2 0xE01 SWAP1 PUSH2 0x3CB2 JUMP JUMPDEST DUP1 ISZERO PUSH2 0xE4E JUMPI DUP1 PUSH1 0x1F LT PUSH2 0xE23 JUMPI PUSH2 0x100 DUP1 DUP4 SLOAD DIV MUL DUP4 MSTORE SWAP2 PUSH1 0x20 ADD SWAP2 PUSH2 0xE4E JUMP JUMPDEST DUP3 ADD SWAP2 SWAP1 PUSH1 0x0 MSTORE PUSH1 0x20 PUSH1 0x0 KECCAK256 SWAP1 JUMPDEST DUP2 SLOAD DUP2 MSTORE SWAP1 PUSH1 0x1 ADD SWAP1 PUSH1 0x20 ADD DUP1 DUP4 GT PUSH2 0xE31 JUMPI DUP3 SWAP1 SUB PUSH1 0x1F AND DUP3 ADD SWAP2 JUMPDEST POP POP POP POP POP DUP2 JUMP JUMPDEST DUP2 PUSH2 0xE60 DUP2 PUSH2 0x1A2E JUMP JUMPDEST PUSH2 0xE68 PUSH2 0xD7E JUMP JUMPDEST PUSH20 0xFFFFFFFFFFFFFFFFFFFFFFFFFFFFFFFFFFFFFFFF AND DUP4 PUSH20 0xFFFFFFFFFFFFFFFFFFFFFFFFFFFFFFFFFFFFFFFF AND EQ PUSH2 0xED5 JUMPI PUSH1 0x40 MLOAD PUSH32 0x8C379A000000000000000000000000000000000000000000000000000000000 DUP2 MSTORE PUSH1 0x4 ADD PUSH2 0xECC SWAP1 PUSH2 0x40FF JUMP JUMPDEST PUSH1 0x40 MLOAD DUP1 SWAP2 SUB SWAP1 REVERT JUMPDEST PUSH2 0xEE7 PUSH2 0xEE0 PUSH2 0x15FC JUMP JUMPDEST DUP5 DUP5 PUSH2 0x20F1 JUMP JUMPDEST POP POP POP JUMP JUMPDEST PUSH2 0xEF4 PUSH2 0x13E9 JUMP JUMPDEST PUSH2 0xEFC PUSH2 0x225D JUMP JUMPDEST JUMP JUMPDEST PUSH2 0xF06 PUSH2 0x13E9 JUMP JUMPDEST PUSH2 0xF0F DUP2 PUSH2 0x22AA JUMP JUMPDEST POP JUMP JUMPDEST PUSH1 0x0 PUSH1 0x1 PUSH1 0x0 DUP5 PUSH20 0xFFFFFFFFFFFFFFFFFFFFFFFFFFFFFFFFFFFFFFFF AND PUSH20 0xFFFFFFFFFFFFFFFFFFFFFFFFFFFFFFFFFFFFFFFF AND DUP2 MSTORE PUSH1 0x20 ADD SWAP1 DUP2 MSTORE PUSH1 0x20 ADD PUSH1 0x0 KECCAK256 PUSH1 0x0 DUP4 PUSH20 0xFFFFFFFFFFFFFFFFFFFFFFFFFFFFFFFFFFFFFFFF AND PUSH20 0xFFFFFFFFFFFFFFFFFFFFFFFFFFFFFFFFFFFFFFFF AND DUP2 MSTORE PUSH1 0x20 ADD SWAP1 DUP2 MSTORE PUSH1 0x20 ADD PUSH1 0x0 KECCAK256 PUSH1 0x0 SWAP1 SLOAD SWAP1 PUSH2 0x100 EXP SWAP1 DIV PUSH1 0xFF AND SWAP1 POP SWAP3 SWAP2 POP POP JUMP JUMPDEST DUP5 CALLER PUSH20 0xFFFFFFFFFFFFFFFFFFFFFFFFFFFFFFFFFFFFFFFF AND DUP2 PUSH20 0xFFFFFFFFFFFFFFFFFFFFFFFFFFFFFFFFFFFFFFFF AND EQ PUSH2 0xFE4 JUMPI PUSH2 0xFE3 CALLER PUSH2 0x1A2E JUMP JUMPDEST JUMPDEST PUSH2 0xFF1 DUP7 DUP7 DUP7 DUP7 DUP7 PUSH2 0x2305 JUMP JUMPDEST POP POP POP POP POP POP JUMP JUMPDEST PUSH2 0x1001 PUSH2 0x13E9 JUMP JUMPDEST PUSH1 0x0 PUSH20 0xFFFFFFFFFFFFFFFFFFFFFFFFFFFFFFFFFFFFFFFF AND DUP2 PUSH20 0xFFFFFFFFFFFFFFFFFFFFFFFFFFFFFFFFFFFFFFFF AND SUB PUSH2 0x1070 JUMPI PUSH1 0x40 MLOAD PUSH32 0x8C379A000000000000000000000000000000000000000000000000000000000 DUP2 MSTORE PUSH1 0x4 ADD PUSH2 0x1067 SWAP1 PUSH2 0x4191 JUMP JUMPDEST PUSH1 0x40 MLOAD DUP1 SWAP2 SUB SWAP1 REVERT JUMPDEST PUSH2 0x1079 DUP2 PUSH2 0x1D86 JUMP JUMPDEST POP JUMP JUMPDEST PUSH1 0x60 PUSH1 0x0 PUSH1 0x2 DUP4 PUSH1 0x2 PUSH2 0x108F SWAP2 SWAP1 PUSH2 0x3E76 JUMP JUMPDEST PUSH2 0x1099 SWAP2 SWAP1 PUSH2 0x41B1 JUMP JUMPDEST PUSH8 0xFFFFFFFFFFFFFFFF DUP2 GT ISZERO PUSH2 0x10B2 JUMPI PUSH2 0x10B1 PUSH2 0x3273 JUMP JUMPDEST JUMPDEST PUSH1 0x40 MLOAD SWAP1 DUP1 DUP3 MSTORE DUP1 PUSH1 0x1F ADD PUSH1 0x1F NOT AND PUSH1 0x20 ADD DUP3 ADD PUSH1 0x40 MSTORE DUP1 ISZERO PUSH2 0x10E4 JUMPI DUP2 PUSH1 0x20 ADD PUSH1 0x1 DUP3 MUL DUP1 CALLDATASIZE DUP4 CALLDATACOPY DUP1 DUP3 ADD SWAP2 POP POP SWAP1 POP JUMPDEST POP SWAP1 POP PUSH32 0x3000000000000000000000000000000000000000000000000000000000000000 DUP2 PUSH1 0x0 DUP2 MLOAD DUP2 LT PUSH2 0x111C JUMPI PUSH2 0x111B PUSH2 0x4016 JUMP JUMPDEST JUMPDEST PUSH1 0x20 ADD ADD SWAP1 PUSH31 0xFFFFFFFFFFFFFFFFFFFFFFFFFFFFFFFFFFFFFFFFFFFFFFFFFFFFFFFFFFFFFF NOT AND SWAP1 DUP2 PUSH1 0x0 BYTE SWAP1 MSTORE8 POP PUSH32 0x7800000000000000000000000000000000000000000000000000000000000000 DUP2 PUSH1 0x1 DUP2 MLOAD DUP2 LT PUSH2 0x1180 JUMPI PUSH2 0x117F PUSH2 0x4016 JUMP JUMPDEST JUMPDEST PUSH1 0x20 ADD ADD SWAP1 PUSH31 0xFFFFFFFFFFFFFFFFFFFFFFFFFFFFFFFFFFFFFFFFFFFFFFFFFFFFFFFFFFFFFF NOT AND SWAP1 DUP2 PUSH1 0x0 BYTE SWAP1 MSTORE8 POP PUSH1 0x0 PUSH1 0x1 DUP5 PUSH1 0x2 PUSH2 0x11C0 SWAP2 SWAP1 PUSH2 0x3E76 JUMP JUMPDEST PUSH2 0x11CA SWAP2 SWAP1 PUSH2 0x41B1 JUMP JUMPDEST SWAP1 POP JUMPDEST PUSH1 0x1 DUP2 GT ISZERO PUSH2 0x126A JUMPI PUSH32 0x3031323334353637383961626364656600000000000000000000000000000000 PUSH1 0xF DUP7 AND PUSH1 0x10 DUP2 LT PUSH2 0x120C JUMPI PUSH2 0x120B PUSH2 0x4016 JUMP JUMPDEST JUMPDEST BYTE PUSH1 0xF8 SHL DUP3 DUP3 DUP2 MLOAD DUP2 LT PUSH2 0x1223 JUMPI PUSH2 0x1222 PUSH2 0x4016 JUMP JUMPDEST JUMPDEST PUSH1 0x20 ADD ADD SWAP1 PUSH31 0xFFFFFFFFFFFFFFFFFFFFFFFFFFFFFFFFFFFFFFFFFFFFFFFFFFFFFFFFFFFFFF NOT AND SWAP1 DUP2 PUSH1 0x0 BYTE SWAP1 MSTORE8 POP PUSH1 0x4 DUP6 SWAP1 SHR SWAP5 POP DUP1 PUSH2 0x1263 SWAP1 PUSH2 0x41E5 JUMP JUMPDEST SWAP1 POP PUSH2 0x11CD JUMP JUMPDEST POP PUSH1 0x0 DUP5 EQ PUSH2 0x12AE JUMPI PUSH1 0x40 MLOAD PUSH32 0x8C379A000000000000000000000000000000000000000000000000000000000 DUP2 MSTORE PUSH1 0x4 ADD PUSH2 0x12A5 SWAP1 PUSH2 0x425A JUMP JUMPDEST PUSH1 0x40 MLOAD DUP1 SWAP2 SUB SWAP1 REVERT JUMPDEST DUP1 SWAP2 POP POP SWAP3 SWAP2 POP POP JUMP JUMPDEST PUSH1 0x60 PUSH1 0x2 DUP1 SLOAD PUSH2 0x12C7 SWAP1 PUSH2 0x3CB2 JUMP JUMPDEST DUP1 PUSH1 0x1F ADD PUSH1 0x20 DUP1 SWAP2 DIV MUL PUSH1 0x20 ADD PUSH1 0x40 MLOAD SWAP1 DUP2 ADD PUSH1 0x40 MSTORE DUP1 SWAP3 SWAP2 SWAP1 DUP2 DUP2 MSTORE PUSH1 0x20 ADD DUP3 DUP1 SLOAD PUSH2 0x12F3 SWAP1 PUSH2 0x3CB2 JUMP JUMPDEST DUP1 ISZERO PUSH2 0x1340 JUMPI DUP1 PUSH1 0x1F LT PUSH2 0x1315 JUMPI PUSH2 0x100 DUP1 DUP4 SLOAD DIV MUL DUP4 MSTORE SWAP2 PUSH1 0x20 ADD SWAP2 PUSH2 0x1340 JUMP JUMPDEST DUP3 ADD SWAP2 SWAP1 PUSH1 0x0 MSTORE PUSH1 0x20 PUSH1 0x0 KECCAK256 SWAP1 JUMPDEST DUP2 SLOAD DUP2 MSTORE SWAP1 PUSH1 0x1 ADD SWAP1 PUSH1 0x20 ADD DUP1 DUP4 GT PUSH2 0x1323 JUMPI DUP3 SWAP1 SUB PUSH1 0x1F AND DUP3 ADD SWAP2 JUMPDEST POP POP POP POP POP SWAP1 POP SWAP2 SWAP1 POP JUMP JUMPDEST PUSH1 0x0 DUP1 DUP3 PUSH20 0xFFFFFFFFFFFFFFFFFFFFFFFFFFFFFFFFFFFFFFFF AND EXTCODESIZE GT SWAP1 POP SWAP2 SWAP1 POP JUMP JUMPDEST PUSH1 0x0 PUSH32 0x2A55205A00000000000000000000000000000000000000000000000000000000 PUSH28 0xFFFFFFFFFFFFFFFFFFFFFFFFFFFFFFFFFFFFFFFFFFFFFFFFFFFFFFFF NOT AND DUP3 PUSH28 0xFFFFFFFFFFFFFFFFFFFFFFFFFFFFFFFFFFFFFFFFFFFFFFFFFFFFFFFF NOT AND EQ DUP1 PUSH2 0x13E2 JUMPI POP PUSH2 0x13E1 DUP3 PUSH2 0x23A6 JUMP JUMPDEST JUMPDEST SWAP1 POP SWAP2 SWAP1 POP JUMP JUMPDEST PUSH2 0x13F1 PUSH2 0x15FC JUMP JUMPDEST PUSH20 0xFFFFFFFFFFFFFFFFFFFFFFFFFFFFFFFFFFFFFFFF AND PUSH2 0x140F PUSH2 0xD7E JUMP JUMPDEST PUSH20 0xFFFFFFFFFFFFFFFFFFFFFFFFFFFFFFFFFFFFFFFF AND EQ PUSH2 0x1465 JUMPI PUSH1 0x40 MLOAD PUSH32 0x8C379A000000000000000000000000000000000000000000000000000000000 DUP2 MSTORE PUSH1 0x4 ADD PUSH2 0x145C SWAP1 PUSH2 0x42C6 JUMP JUMPDEST PUSH1 0x40 MLOAD DUP1 SWAP2 SUB SWAP1 REVERT JUMPDEST JUMP JUMPDEST PUSH2 0x146F PUSH2 0x1A24 JUMP JUMPDEST PUSH12 0xFFFFFFFFFFFFFFFFFFFFFFFF AND DUP2 PUSH12 0xFFFFFFFFFFFFFFFFFFFFFFFF AND GT ISZERO PUSH2 0x14CD JUMPI PUSH1 0x40 MLOAD PUSH32 0x8C379A000000000000000000000000000000000000000000000000000000000 DUP2 MSTORE PUSH1 0x4 ADD PUSH2 0x14C4 SWAP1 PUSH2 0x4358 JUMP JUMPDEST PUSH1 0x40 MLOAD DUP1 SWAP2 SUB SWAP1 REVERT JUMPDEST PUSH1 0x0 PUSH20 0xFFFFFFFFFFFFFFFFFFFFFFFFFFFFFFFFFFFFFFFF AND DUP3 PUSH20 0xFFFFFFFFFFFFFFFFFFFFFFFFFFFFFFFFFFFFFFFF AND SUB PUSH2 0x153C JUMPI PUSH1 0x40 MLOAD PUSH32 0x8C379A000000000000000000000000000000000000000000000000000000000 DUP2 MSTORE PUSH1 0x4 ADD PUSH2 0x1533 SWAP1 PUSH2 0x43C4 JUMP JUMPDEST PUSH1 0x40 MLOAD DUP1 SWAP2 SUB SWAP1 REVERT JUMPDEST PUSH1 0x40 MLOAD DUP1 PUSH1 0x40 ADD PUSH1 0x40 MSTORE DUP1 DUP4 PUSH20 0xFFFFFFFFFFFFFFFFFFFFFFFFFFFFFFFFFFFFFFFF AND DUP2 MSTORE PUSH1 0x20 ADD DUP3 PUSH12 0xFFFFFFFFFFFFFFFFFFFFFFFF AND DUP2 MSTORE POP PUSH1 0x7 PUSH1 0x0 DUP3 ADD MLOAD DUP2 PUSH1 0x0 ADD PUSH1 0x0 PUSH2 0x100 EXP DUP2 SLOAD DUP2 PUSH20 0xFFFFFFFFFFFFFFFFFFFFFFFFFFFFFFFFFFFFFFFF MUL NOT AND SWAP1 DUP4 PUSH20 0xFFFFFFFFFFFFFFFFFFFFFFFFFFFFFFFFFFFFFFFF AND MUL OR SWAP1 SSTORE POP PUSH1 0x20 DUP3 ADD MLOAD DUP2 PUSH1 0x0 ADD PUSH1 0x14 PUSH2 0x100 EXP DUP2 SLOAD DUP2 PUSH12 0xFFFFFFFFFFFFFFFFFFFFFFFF MUL NOT AND SWAP1 DUP4 PUSH12 0xFFFFFFFFFFFFFFFFFFFFFFFF AND MUL OR SWAP1 SSTORE POP SWAP1 POP POP POP POP JUMP JUMPDEST PUSH1 0x0 CALLER SWAP1 POP SWAP1 JUMP JUMPDEST PUSH1 0x6 PUSH1 0x0 DUP3 PUSH20 0xFFFFFFFFFFFFFFFFFFFFFFFFFFFFFFFFFFFFFFFF AND PUSH20 0xFFFFFFFFFFFFFFFFFFFFFFFFFFFFFFFFFFFFFFFF AND DUP2 MSTORE PUSH1 0x20 ADD SWAP1 DUP2 MSTORE PUSH1 0x20 ADD PUSH1 0x0 KECCAK256 PUSH1 0x0 SWAP1 SLOAD SWAP1 PUSH2 0x100 EXP SWAP1 DIV PUSH1 0xFF AND PUSH2 0x1679 PUSH2 0x165C PUSH2 0x15FC JUMP JUMPDEST PUSH20 0xFFFFFFFFFFFFFFFFFFFFFFFFFFFFFFFFFFFFFFFF AND PUSH1 0x14 PUSH2 0x107C JUMP JUMPDEST PUSH1 0x40 MLOAD PUSH1 0x20 ADD PUSH2 0x1689 SWAP2 SWAP1 PUSH2 0x447C JUMP JUMPDEST PUSH1 0x40 MLOAD PUSH1 0x20 DUP2 DUP4 SUB SUB DUP2 MSTORE SWAP1 PUSH1 0x40 MSTORE SWAP1 PUSH2 0x16D9 JUMPI PUSH1 0x40 MLOAD PUSH32 0x8C379A000000000000000000000000000000000000000000000000000000000 DUP2 MSTORE PUSH1 0x4 ADD PUSH2 0x16D0 SWAP2 SWAP1 PUSH2 0x31C7 JUMP JUMPDEST PUSH1 0x40 MLOAD DUP1 SWAP2 SUB SWAP1 REVERT JUMPDEST POP POP JUMP JUMPDEST PUSH1 0x0 PUSH20 0xFFFFFFFFFFFFFFFFFFFFFFFFFFFFFFFFFFFFFFFF AND DUP5 PUSH20 0xFFFFFFFFFFFFFFFFFFFFFFFFFFFFFFFFFFFFFFFF AND SUB PUSH2 0x174C JUMPI PUSH1 0x40 MLOAD PUSH32 0x8C379A000000000000000000000000000000000000000000000000000000000 DUP2 MSTORE PUSH1 0x4 ADD PUSH2 0x1743 SWAP1 PUSH2 0x451B JUMP JUMPDEST PUSH1 0x40 MLOAD DUP1 SWAP2 SUB SWAP1 REVERT JUMPDEST PUSH1 0x0 PUSH2 0x1756 PUSH2 0x15FC JUMP JUMPDEST SWAP1 POP PUSH1 0x0 PUSH2 0x1763 DUP6 PUSH2 0x2488 JUMP JUMPDEST SWAP1 POP PUSH1 0x0 PUSH2 0x1770 DUP6 PUSH2 0x2488 JUMP JUMPDEST SWAP1 POP PUSH2 0x1781 DUP4 PUSH1 0x0 DUP10 DUP6 DUP6 DUP10 PUSH2 0x2502 JUMP JUMPDEST DUP5 PUSH1 0x0 DUP1 DUP9 DUP2 MSTORE PUSH1 0x20 ADD SWAP1 DUP2 MSTORE PUSH1 0x20 ADD PUSH1 0x0 KECCAK256 PUSH1 0x0 DUP10 PUSH20 0xFFFFFFFFFFFFFFFFFFFFFFFFFFFFFFFFFFFFFFFF AND PUSH20 0xFFFFFFFFFFFFFFFFFFFFFFFFFFFFFFFFFFFFFFFF AND DUP2 MSTORE PUSH1 0x20 ADD SWAP1 DUP2 MSTORE PUSH1 0x20 ADD PUSH1 0x0 KECCAK256 PUSH1 0x0 DUP3 DUP3 SLOAD PUSH2 0x17E0 SWAP2 SWAP1 PUSH2 0x41B1 JUMP JUMPDEST SWAP3 POP POP DUP2 SWAP1 SSTORE POP DUP7 PUSH20 0xFFFFFFFFFFFFFFFFFFFFFFFFFFFFFFFFFFFFFFFF AND PUSH1 0x0 PUSH20 0xFFFFFFFFFFFFFFFFFFFFFFFFFFFFFFFFFFFFFFFF AND DUP5 PUSH20 0xFFFFFFFFFFFFFFFFFFFFFFFFFFFFFFFFFFFFFFFF AND PUSH32 0xC3D58168C5AE7397731D063D5BBF3D657854427343F4C083240F7AACAA2D0F62 DUP10 DUP10 PUSH1 0x40 MLOAD PUSH2 0x185E SWAP3 SWAP2 SWAP1 PUSH2 0x453B JUMP JUMPDEST PUSH1 0x40 MLOAD DUP1 SWAP2 SUB SWAP1 LOG4 PUSH2 0x1875 DUP4 PUSH1 0x0 DUP10 DUP6 DUP6 DUP10 PUSH2 0x250A JUMP JUMPDEST PUSH2 0x1884 DUP4 PUSH1 0x0 DUP10 DUP10 DUP10 DUP10 PUSH2 0x2512 JUMP JUMPDEST POP POP POP POP POP POP POP JUMP JUMPDEST DUP1 PUSH1 0x4 PUSH1 0x0 DUP5 DUP2 MSTORE PUSH1 0x20 ADD SWAP1 DUP2 MSTORE PUSH1 0x20 ADD PUSH1 0x0 KECCAK256 SWAP1 DUP2 PUSH2 0x18AD SWAP2 SWAP1 PUSH2 0x46F1 JUMP JUMPDEST POP DUP2 PUSH32 0x6BB7FF708619BA0610CBA295A58592E0451DEE2622938C8755667688DAF3529B PUSH2 0x18D9 DUP5 PUSH2 0x6C7 JUMP JUMPDEST PUSH1 0x40 MLOAD PUSH2 0x18E6 SWAP2 SWAP1 PUSH2 0x31C7 JUMP JUMPDEST PUSH1 0x40 MLOAD DUP1 SWAP2 SUB SWAP1 LOG2 POP POP JUMP JUMPDEST PUSH1 0x6 PUSH1 0x0 DUP3 PUSH20 0xFFFFFFFFFFFFFFFFFFFFFFFFFFFFFFFFFFFFFFFF AND PUSH20 0xFFFFFFFFFFFFFFFFFFFFFFFFFFFFFFFFFFFFFFFF AND DUP2 MSTORE PUSH1 0x20 ADD SWAP1 DUP2 MSTORE PUSH1 0x20 ADD PUSH1 0x0 KECCAK256 PUSH1 0x0 SWAP1 SLOAD SWAP1 PUSH2 0x100 EXP SWAP1 DIV PUSH1 0xFF AND ISZERO PUSH2 0x1968 PUSH2 0x194B PUSH2 0x15FC JUMP JUMPDEST PUSH20 0xFFFFFFFFFFFFFFFFFFFFFFFFFFFFFFFFFFFFFFFF AND PUSH1 0x14 PUSH2 0x107C JUMP JUMPDEST PUSH1 0x40 MLOAD PUSH1 0x20 ADD PUSH2 0x1978 SWAP2 SWAP1 PUSH2 0x480F JUMP JUMPDEST PUSH1 0x40 MLOAD PUSH1 0x20 DUP2 DUP4 SUB SUB DUP2 MSTORE SWAP1 PUSH1 0x40 MSTORE SWAP1 PUSH2 0x19C8 JUMPI PUSH1 0x40 MLOAD PUSH32 0x8C379A000000000000000000000000000000000000000000000000000000000 DUP2 MSTORE PUSH1 0x4 ADD PUSH2 0x19BF SWAP2 SWAP1 PUSH2 0x31C7 JUMP JUMPDEST PUSH1 0x40 MLOAD DUP1 SWAP2 SUB SWAP1 REVERT JUMPDEST POP PUSH1 0x1 PUSH1 0x6 PUSH1 0x0 DUP4 PUSH20 0xFFFFFFFFFFFFFFFFFFFFFFFFFFFFFFFFFFFFFFFF AND PUSH20 0xFFFFFFFFFFFFFFFFFFFFFFFFFFFFFFFFFFFFFFFF AND DUP2 MSTORE PUSH1 0x20 ADD SWAP1 DUP2 MSTORE PUSH1 0x20 ADD PUSH1 0x0 KECCAK256 PUSH1 0x0 PUSH2 0x100 EXP DUP2 SLOAD DUP2 PUSH1 0xFF MUL NOT AND SWAP1 DUP4 ISZERO ISZERO MUL OR SWAP1 SSTORE POP POP JUMP JUMPDEST PUSH1 0x0 PUSH2 0x2710 SWAP1 POP SWAP1 JUMP JUMPDEST PUSH1 0x0 PUSH14 0xAAEB6D7670E522A718067333CD4E PUSH20 0xFFFFFFFFFFFFFFFFFFFFFFFFFFFFFFFFFFFFFFFF AND EXTCODESIZE GT ISZERO PUSH2 0x1B28 JUMPI PUSH14 0xAAEB6D7670E522A718067333CD4E PUSH20 0xFFFFFFFFFFFFFFFFFFFFFFFFFFFFFFFFFFFFFFFF AND PUSH4 0xC6171134 ADDRESS DUP4 PUSH1 0x40 MLOAD DUP4 PUSH4 0xFFFFFFFF AND PUSH1 0xE0 SHL DUP2 MSTORE PUSH1 0x4 ADD PUSH2 0x1AA5 SWAP3 SWAP2 SWAP1 PUSH2 0x483C JUMP JUMPDEST PUSH1 0x20 PUSH1 0x40 MLOAD DUP1 DUP4 SUB DUP2 DUP7 GAS STATICCALL ISZERO DUP1 ISZERO PUSH2 0x1AC2 JUMPI RETURNDATASIZE PUSH1 0x0 DUP1 RETURNDATACOPY RETURNDATASIZE PUSH1 0x0 REVERT JUMPDEST POP POP POP POP PUSH1 0x40 MLOAD RETURNDATASIZE PUSH1 0x1F NOT PUSH1 0x1F DUP3 ADD AND DUP3 ADD DUP1 PUSH1 0x40 MSTORE POP DUP2 ADD SWAP1 PUSH2 0x1AE6 SWAP2 SWAP1 PUSH2 0x487A JUMP JUMPDEST PUSH2 0x1B27 JUMPI DUP1 PUSH1 0x40 MLOAD PUSH32 0xEDE71DCC00000000000000000000000000000000000000000000000000000000 DUP2 MSTORE PUSH1 0x4 ADD PUSH2 0x1B1E SWAP2 SWAP1 PUSH2 0x3A93 JUMP JUMPDEST PUSH1 0x40 MLOAD DUP1 SWAP2 SUB SWAP1 REVERT JUMPDEST JUMPDEST POP JUMP JUMPDEST PUSH2 0x1B33 PUSH2 0x15FC JUMP JUMPDEST PUSH20 0xFFFFFFFFFFFFFFFFFFFFFFFFFFFFFFFFFFFFFFFF AND DUP6 PUSH20 0xFFFFFFFFFFFFFFFFFFFFFFFFFFFFFFFFFFFFFFFF AND EQ DUP1 PUSH2 0x1B79 JUMPI POP PUSH2 0x1B78 DUP6 PUSH2 0x1B73 PUSH2 0x15FC JUMP JUMPDEST PUSH2 0xF12 JUMP JUMPDEST JUMPDEST PUSH2 0x1BB8 JUMPI PUSH1 0x40 MLOAD PUSH32 0x8C379A000000000000000000000000000000000000000000000000000000000 DUP2 MSTORE PUSH1 0x4 ADD PUSH2 0x1BAF SWAP1 PUSH2 0x4919 JUMP JUMPDEST PUSH1 0x40 MLOAD DUP1 SWAP2 SUB SWAP1 REVERT JUMPDEST PUSH2 0x1BC5 DUP6 DUP6 DUP6 DUP6 DUP6 PUSH2 0x26E9 JUMP JUMPDEST POP POP POP POP POP JUMP JUMPDEST DUP1 PUSH1 0x3 SWAP1 DUP2 PUSH2 0x1BDB SWAP2 SWAP1 PUSH2 0x46F1 JUMP JUMPDEST POP POP JUMP JUMPDEST PUSH2 0x1BE7 PUSH2 0x1A24 JUMP JUMPDEST PUSH12 0xFFFFFFFFFFFFFFFFFFFFFFFF AND DUP2 PUSH12 0xFFFFFFFFFFFFFFFFFFFFFFFF AND GT ISZERO PUSH2 0x1C45 JUMPI PUSH1 0x40 MLOAD PUSH32 0x8C379A000000000000000000000000000000000000000000000000000000000 DUP2 MSTORE PUSH1 0x4 ADD PUSH2 0x1C3C SWAP1 PUSH2 0x4358 JUMP JUMPDEST PUSH1 0x40 MLOAD DUP1 SWAP2 SUB SWAP1 REVERT JUMPDEST PUSH1 0x0 PUSH20 0xFFFFFFFFFFFFFFFFFFFFFFFFFFFFFFFFFFFFFFFF AND DUP3 PUSH20 0xFFFFFFFFFFFFFFFFFFFFFFFFFFFFFFFFFFFFFFFF AND SUB PUSH2 0x1CB4 JUMPI PUSH1 0x40 MLOAD PUSH32 0x8C379A000000000000000000000000000000000000000000000000000000000 DUP2 MSTORE PUSH1 0x4 ADD PUSH2 0x1CAB SWAP1 PUSH2 0x4985 JUMP JUMPDEST PUSH1 0x40 MLOAD DUP1 SWAP2 SUB SWAP1 REVERT JUMPDEST PUSH1 0x40 MLOAD DUP1 PUSH1 0x40 ADD PUSH1 0x40 MSTORE DUP1 DUP4 PUSH20 0xFFFFFFFFFFFFFFFFFFFFFFFFFFFFFFFFFFFFFFFF AND DUP2 MSTORE PUSH1 0x20 ADD DUP3 PUSH12 0xFFFFFFFFFFFFFFFFFFFFFFFF AND DUP2 MSTORE POP PUSH1 0x8 PUSH1 0x0 DUP6 DUP2 MSTORE PUSH1 0x20 ADD SWAP1 DUP2 MSTORE PUSH1 0x20 ADD PUSH1 0x0 KECCAK256 PUSH1 0x0 DUP3 ADD MLOAD DUP2 PUSH1 0x0 ADD PUSH1 0x0 PUSH2 0x100 EXP DUP2 SLOAD DUP2 PUSH20 0xFFFFFFFFFFFFFFFFFFFFFFFFFFFFFFFFFFFFFFFF MUL NOT AND SWAP1 DUP4 PUSH20 0xFFFFFFFFFFFFFFFFFFFFFFFFFFFFFFFFFFFFFFFF AND MUL OR SWAP1 SSTORE POP PUSH1 0x20 DUP3 ADD MLOAD DUP2 PUSH1 0x0 ADD PUSH1 0x14 PUSH2 0x100 EXP DUP2 SLOAD DUP2 PUSH12 0xFFFFFFFFFFFFFFFFFFFFFFFF MUL NOT AND SWAP1 DUP4 PUSH12 0xFFFFFFFFFFFFFFFFFFFFFFFF AND MUL OR SWAP1 SSTORE POP SWAP1 POP POP POP POP POP JUMP JUMPDEST PUSH1 0x0 PUSH1 0x5 PUSH1 0x0 SWAP1 SLOAD SWAP1 PUSH2 0x100 EXP SWAP1 DIV PUSH20 0xFFFFFFFFFFFFFFFFFFFFFFFFFFFFFFFFFFFFFFFF AND SWAP1 POP DUP2 PUSH1 0x5 PUSH1 0x0 PUSH2 0x100 EXP DUP2 SLOAD DUP2 PUSH20 0xFFFFFFFFFFFFFFFFFFFFFFFFFFFFFFFFFFFFFFFF MUL NOT AND SWAP1 DUP4 PUSH20 0xFFFFFFFFFFFFFFFFFFFFFFFFFFFFFFFFFFFFFFFF AND MUL OR SWAP1 SSTORE POP DUP2 PUSH20 0xFFFFFFFFFFFFFFFFFFFFFFFFFFFFFFFFFFFFFFFF AND DUP2 PUSH20 0xFFFFFFFFFFFFFFFFFFFFFFFFFFFFFFFFFFFFFFFF AND PUSH32 0x8BE0079C531659141344CD1FD0A4F28419497F9722A3DAAFE3B4186F6B6457E0 PUSH1 0x40 MLOAD PUSH1 0x40 MLOAD DUP1 SWAP2 SUB SWAP1 LOG3 POP POP JUMP JUMPDEST PUSH1 0x8 PUSH1 0x0 DUP3 DUP2 MSTORE PUSH1 0x20 ADD SWAP1 DUP2 MSTORE PUSH1 0x20 ADD PUSH1 0x0 KECCAK256 PUSH1 0x0 DUP1 DUP3 ADD PUSH1 0x0 PUSH2 0x100 EXP DUP2 SLOAD SWAP1 PUSH20 0xFFFFFFFFFFFFFFFFFFFFFFFFFFFFFFFFFFFFFFFF MUL NOT AND SWAP1 SSTORE PUSH1 0x0 DUP3 ADD PUSH1 0x14 PUSH2 0x100 EXP DUP2 SLOAD SWAP1 PUSH12 0xFFFFFFFFFFFFFFFFFFFFFFFF MUL NOT AND SWAP1 SSTORE POP POP POP JUMP JUMPDEST PUSH1 0x0 PUSH20 0xFFFFFFFFFFFFFFFFFFFFFFFFFFFFFFFFFFFFFFFF AND DUP4 PUSH20 0xFFFFFFFFFFFFFFFFFFFFFFFFFFFFFFFFFFFFFFFF AND SUB PUSH2 0x1F1A JUMPI PUSH1 0x40 MLOAD PUSH32 0x8C379A000000000000000000000000000000000000000000000000000000000 DUP2 MSTORE PUSH1 0x4 ADD PUSH2 0x1F11 SWAP1 PUSH2 0x4A17 JUMP JUMPDEST PUSH1 0x40 MLOAD DUP1 SWAP2 SUB SWAP1 REVERT JUMPDEST PUSH1 0x0 PUSH2 0x1F24 PUSH2 0x15FC JUMP JUMPDEST SWAP1 POP PUSH1 0x0 PUSH2 0x1F31 DUP5 PUSH2 0x2488 JUMP JUMPDEST SWAP1 POP PUSH1 0x0 PUSH2 0x1F3E DUP5 PUSH2 0x2488 JUMP JUMPDEST SWAP1 POP PUSH2 0x1F5E DUP4 DUP8 PUSH1 0x0 DUP6 DUP6 PUSH1 0x40 MLOAD DUP1 PUSH1 0x20 ADD PUSH1 0x40 MSTORE DUP1 PUSH1 0x0 DUP2 MSTORE POP PUSH2 0x2502 JUMP JUMPDEST PUSH1 0x0 DUP1 PUSH1 0x0 DUP8 DUP2 MSTORE PUSH1 0x20 ADD SWAP1 DUP2 MSTORE PUSH1 0x20 ADD PUSH1 0x0 KECCAK256 PUSH1 0x0 DUP9 PUSH20 0xFFFFFFFFFFFFFFFFFFFFFFFFFFFFFFFFFFFFFFFF AND PUSH20 0xFFFFFFFFFFFFFFFFFFFFFFFFFFFFFFFFFFFFFFFF AND DUP2 MSTORE PUSH1 0x20 ADD SWAP1 DUP2 MSTORE PUSH1 0x20 ADD PUSH1 0x0 KECCAK256 SLOAD SWAP1 POP DUP5 DUP2 LT ISZERO PUSH2 0x1FF5 JUMPI PUSH1 0x40 MLOAD PUSH32 0x8C379A000000000000000000000000000000000000000000000000000000000 DUP2 MSTORE PUSH1 0x4 ADD PUSH2 0x1FEC SWAP1 PUSH2 0x4AA9 JUMP JUMPDEST PUSH1 0x40 MLOAD DUP1 SWAP2 SUB SWAP1 REVERT JUMPDEST DUP5 DUP2 SUB PUSH1 0x0 DUP1 DUP9 DUP2 MSTORE PUSH1 0x20 ADD SWAP1 DUP2 MSTORE PUSH1 0x20 ADD PUSH1 0x0 KECCAK256 PUSH1 0x0 DUP10 PUSH20 0xFFFFFFFFFFFFFFFFFFFFFFFFFFFFFFFFFFFFFFFF AND PUSH20 0xFFFFFFFFFFFFFFFFFFFFFFFFFFFFFFFFFFFFFFFF AND DUP2 MSTORE PUSH1 0x20 ADD SWAP1 DUP2 MSTORE PUSH1 0x20 ADD PUSH1 0x0 KECCAK256 DUP2 SWAP1 SSTORE POP PUSH1 0x0 PUSH20 0xFFFFFFFFFFFFFFFFFFFFFFFFFFFFFFFFFFFFFFFF AND DUP8 PUSH20 0xFFFFFFFFFFFFFFFFFFFFFFFFFFFFFFFFFFFFFFFF AND DUP6 PUSH20 0xFFFFFFFFFFFFFFFFFFFFFFFFFFFFFFFFFFFFFFFF AND PUSH32 0xC3D58168C5AE7397731D063D5BBF3D657854427343F4C083240F7AACAA2D0F62 DUP10 DUP10 PUSH1 0x40 MLOAD PUSH2 0x20C2 SWAP3 SWAP2 SWAP1 PUSH2 0x453B JUMP JUMPDEST PUSH1 0x40 MLOAD DUP1 SWAP2 SUB SWAP1 LOG4 PUSH2 0x20E8 DUP5 DUP9 PUSH1 0x0 DUP7 DUP7 PUSH1 0x40 MLOAD DUP1 PUSH1 0x20 ADD PUSH1 0x40 MSTORE DUP1 PUSH1 0x0 DUP2 MSTORE POP PUSH2 0x250A JUMP JUMPDEST POP POP POP POP POP POP POP JUMP JUMPDEST DUP2 PUSH20 0xFFFFFFFFFFFFFFFFFFFFFFFFFFFFFFFFFFFFFFFF AND DUP4 PUSH20 0xFFFFFFFFFFFFFFFFFFFFFFFFFFFFFFFFFFFFFFFF AND SUB PUSH2 0x215F JUMPI PUSH1 0x40 MLOAD PUSH32 0x8C379A000000000000000000000000000000000000000000000000000000000 DUP2 MSTORE PUSH1 0x4 ADD PUSH2 0x2156 SWAP1 PUSH2 0x4B3B JUMP JUMPDEST PUSH1 0x40 MLOAD DUP1 SWAP2 SUB SWAP1 REVERT JUMPDEST DUP1 PUSH1 0x1 PUSH1 0x0 DUP6 PUSH20 0xFFFFFFFFFFFFFFFFFFFFFFFFFFFFFFFFFFFFFFFF AND PUSH20 0xFFFFFFFFFFFFFFFFFFFFFFFFFFFFFFFFFFFFFFFF AND DUP2 MSTORE PUSH1 0x20 ADD SWAP1 DUP2 MSTORE PUSH1 0x20 ADD PUSH1 0x0 KECCAK256 PUSH1 0x0 DUP5 PUSH20 0xFFFFFFFFFFFFFFFFFFFFFFFFFFFFFFFFFFFFFFFF AND PUSH20 0xFFFFFFFFFFFFFFFFFFFFFFFFFFFFFFFFFFFFFFFF AND DUP2 MSTORE PUSH1 0x20 ADD SWAP1 DUP2 MSTORE PUSH1 0x20 ADD PUSH1 0x0 KECCAK256 PUSH1 0x0 PUSH2 0x100 EXP DUP2 SLOAD DUP2 PUSH1 0xFF MUL NOT AND SWAP1 DUP4 ISZERO ISZERO MUL OR SWAP1 SSTORE POP DUP2 PUSH20 0xFFFFFFFFFFFFFFFFFFFFFFFFFFFFFFFFFFFFFFFF AND DUP4 PUSH20 0xFFFFFFFFFFFFFFFFFFFFFFFFFFFFFFFFFFFFFFFF AND PUSH32 0x17307EAB39AB6107E8899845AD3D59BD9653F200F220920489CA2B5937696C31 DUP4 PUSH1 0x40 MLOAD PUSH2 0x2250 SWAP2 SWAP1 PUSH2 0x3098 JUMP JUMPDEST PUSH1 0x40 MLOAD DUP1 SWAP2 SUB SWAP1 LOG3 POP POP POP JUMP JUMPDEST PUSH1 0x7 PUSH1 0x0 DUP1 DUP3 ADD PUSH1 0x0 PUSH2 0x100 EXP DUP2 SLOAD SWAP1 PUSH20 0xFFFFFFFFFFFFFFFFFFFFFFFFFFFFFFFFFFFFFFFF MUL NOT AND SWAP1 SSTORE PUSH1 0x0 DUP3 ADD PUSH1 0x14 PUSH2 0x100 EXP DUP2 SLOAD SWAP1 PUSH12 0xFFFFFFFFFFFFFFFFFFFFFFFF MUL NOT AND SWAP1 SSTORE POP POP JUMP JUMPDEST PUSH2 0x22B3 DUP2 PUSH2 0x1604 JUMP JUMPDEST PUSH1 0x6 PUSH1 0x0 DUP3 PUSH20 0xFFFFFFFFFFFFFFFFFFFFFFFFFFFFFFFFFFFFFFFF AND PUSH20 0xFFFFFFFFFFFFFFFFFFFFFFFFFFFFFFFFFFFFFFFF AND DUP2 MSTORE PUSH1 0x20 ADD SWAP1 DUP2 MSTORE PUSH1 0x20 ADD PUSH1 0x0 KECCAK256 PUSH1 0x0 PUSH2 0x100 EXP DUP2 SLOAD SWAP1 PUSH1 0xFF MUL NOT AND SWAP1 SSTORE POP JUMP JUMPDEST PUSH2 0x230D PUSH2 0x15FC JUMP JUMPDEST PUSH20 0xFFFFFFFFFFFFFFFFFFFFFFFFFFFFFFFFFFFFFFFF AND DUP6 PUSH20 0xFFFFFFFFFFFFFFFFFFFFFFFFFFFFFFFFFFFFFFFF AND EQ DUP1 PUSH2 0x2353 JUMPI POP PUSH2 0x2352 DUP6 PUSH2 0x234D PUSH2 0x15FC JUMP JUMPDEST PUSH2 0xF12 JUMP JUMPDEST JUMPDEST PUSH2 0x2392 JUMPI PUSH1 0x40 MLOAD PUSH32 0x8C379A000000000000000000000000000000000000000000000000000000000 DUP2 MSTORE PUSH1 0x4 ADD PUSH2 0x2389 SWAP1 PUSH2 0x4919 JUMP JUMPDEST PUSH1 0x40 MLOAD DUP1 SWAP2 SUB SWAP1 REVERT JUMPDEST PUSH2 0x239F DUP6 DUP6 DUP6 DUP6 DUP6 PUSH2 0x2A0A JUMP JUMPDEST POP POP POP POP POP JUMP JUMPDEST PUSH1 0x0 PUSH32 0xD9B67A2600000000000000000000000000000000000000000000000000000000 PUSH28 0xFFFFFFFFFFFFFFFFFFFFFFFFFFFFFFFFFFFFFFFFFFFFFFFFFFFFFFFF NOT AND DUP3 PUSH28 0xFFFFFFFFFFFFFFFFFFFFFFFFFFFFFFFFFFFFFFFFFFFFFFFFFFFFFFFF NOT AND EQ DUP1 PUSH2 0x2471 JUMPI POP PUSH32 0xE89341C00000000000000000000000000000000000000000000000000000000 PUSH28 0xFFFFFFFFFFFFFFFFFFFFFFFFFFFFFFFFFFFFFFFFFFFFFFFFFFFFFFFF NOT AND DUP3 PUSH28 0xFFFFFFFFFFFFFFFFFFFFFFFFFFFFFFFFFFFFFFFFFFFFFFFFFFFFFFFF NOT AND EQ JUMPDEST DUP1 PUSH2 0x2481 JUMPI POP PUSH2 0x2480 DUP3 PUSH2 0x2CA5 JUMP JUMPDEST JUMPDEST SWAP1 POP SWAP2 SWAP1 POP JUMP JUMPDEST PUSH1 0x60 PUSH1 0x0 PUSH1 0x1 PUSH8 0xFFFFFFFFFFFFFFFF DUP2 GT ISZERO PUSH2 0x24A7 JUMPI PUSH2 0x24A6 PUSH2 0x3273 JUMP JUMPDEST JUMPDEST PUSH1 0x40 MLOAD SWAP1 DUP1 DUP3 MSTORE DUP1 PUSH1 0x20 MUL PUSH1 0x20 ADD DUP3 ADD PUSH1 0x40 MSTORE DUP1 ISZERO PUSH2 0x24D5 JUMPI DUP2 PUSH1 0x20 ADD PUSH1 0x20 DUP3 MUL DUP1 CALLDATASIZE DUP4 CALLDATACOPY DUP1 DUP3 ADD SWAP2 POP POP SWAP1 POP JUMPDEST POP SWAP1 POP DUP3 DUP2 PUSH1 0x0 DUP2 MLOAD DUP2 LT PUSH2 0x24ED JUMPI PUSH2 0x24EC PUSH2 0x4016 JUMP JUMPDEST JUMPDEST PUSH1 0x20 MUL PUSH1 0x20 ADD ADD DUP2 DUP2 MSTORE POP POP DUP1 SWAP2 POP POP SWAP2 SWAP1 POP JUMP JUMPDEST POP POP POP POP POP POP JUMP JUMPDEST POP POP POP POP POP POP JUMP JUMPDEST PUSH2 0x2531 DUP5 PUSH20 0xFFFFFFFFFFFFFFFFFFFFFFFFFFFFFFFFFFFFFFFF AND PUSH2 0x134C JUMP JUMPDEST ISZERO PUSH2 0x26E1 JUMPI DUP4 PUSH20 0xFFFFFFFFFFFFFFFFFFFFFFFFFFFFFFFFFFFFFFFF AND PUSH4 0xF23A6E61 DUP8 DUP8 DUP7 DUP7 DUP7 PUSH1 0x40 MLOAD DUP7 PUSH4 0xFFFFFFFF AND PUSH1 0xE0 SHL DUP2 MSTORE PUSH1 0x4 ADD PUSH2 0x2577 SWAP6 SWAP5 SWAP4 SWAP3 SWAP2 SWAP1 PUSH2 0x4BB0 JUMP JUMPDEST PUSH1 0x20 PUSH1 0x40 MLOAD DUP1 DUP4 SUB DUP2 PUSH1 0x0 DUP8 GAS CALL SWAP3 POP POP POP DUP1 ISZERO PUSH2 0x25B3 JUMPI POP PUSH1 0x40 MLOAD RETURNDATASIZE PUSH1 0x1F NOT PUSH1 0x1F DUP3 ADD AND DUP3 ADD DUP1 PUSH1 0x40 MSTORE POP DUP2 ADD SWAP1 PUSH2 0x25B0 SWAP2 SWAP1 PUSH2 0x4C1F JUMP JUMPDEST PUSH1 0x1 JUMPDEST PUSH2 0x2658 JUMPI PUSH2 0x25BF PUSH2 0x4C59 JUMP JUMPDEST DUP1 PUSH4 0x8C379A0 SUB PUSH2 0x261B JUMPI POP PUSH2 0x25D3 PUSH2 0x4C7B JUMP JUMPDEST DUP1 PUSH2 0x25DE JUMPI POP PUSH2 0x261D JUMP JUMPDEST DUP1 PUSH1 0x40 MLOAD PUSH32 0x8C379A000000000000000000000000000000000000000000000000000000000 DUP2 MSTORE PUSH1 0x4 ADD PUSH2 0x2612 SWAP2 SWAP1 PUSH2 0x31C7 JUMP JUMPDEST PUSH1 0x40 MLOAD DUP1 SWAP2 SUB SWAP1 REVERT JUMPDEST POP JUMPDEST PUSH1 0x40 MLOAD PUSH32 0x8C379A000000000000000000000000000000000000000000000000000000000 DUP2 MSTORE PUSH1 0x4 ADD PUSH2 0x264F SWAP1 PUSH2 0x4D7D JUMP JUMPDEST PUSH1 0x40 MLOAD DUP1 SWAP2 SUB SWAP1 REVERT JUMPDEST PUSH4 0xF23A6E61 PUSH1 0xE0 SHL PUSH28 0xFFFFFFFFFFFFFFFFFFFFFFFFFFFFFFFFFFFFFFFFFFFFFFFFFFFFFFFF NOT AND DUP2 PUSH28 0xFFFFFFFFFFFFFFFFFFFFFFFFFFFFFFFFFFFFFFFFFFFFFFFFFFFFFFFF NOT AND EQ PUSH2 0x26DF JUMPI PUSH1 0x40 MLOAD PUSH32 0x8C379A000000000000000000000000000000000000000000000000000000000 DUP2 MSTORE PUSH1 0x4 ADD PUSH2 0x26D6 SWAP1 PUSH2 0x4E0F JUMP JUMPDEST PUSH1 0x40 MLOAD DUP1 SWAP2 SUB SWAP1 REVERT JUMPDEST POP JUMPDEST POP POP POP POP POP POP JUMP JUMPDEST DUP2 MLOAD DUP4 MLOAD EQ PUSH2 0x272D JUMPI PUSH1 0x40 MLOAD PUSH32 0x8C379A000000000000000000000000000000000000000000000000000000000 DUP2 MSTORE PUSH1 0x4 ADD PUSH2 0x2724 SWAP1 PUSH2 0x4EA1 JUMP JUMPDEST PUSH1 0x40 MLOAD DUP1 SWAP2 SUB SWAP1 REVERT JUMPDEST PUSH1 0x0 PUSH20 0xFFFFFFFFFFFFFFFFFFFFFFFFFFFFFFFFFFFFFFFF AND DUP5 PUSH20 0xFFFFFFFFFFFFFFFFFFFFFFFFFFFFFFFFFFFFFFFF AND SUB PUSH2 0x279C JUMPI PUSH1 0x40 MLOAD PUSH32 0x8C379A000000000000000000000000000000000000000000000000000000000 DUP2 MSTORE PUSH1 0x4 ADD PUSH2 0x2793 SWAP1 PUSH2 0x4F33 JUMP JUMPDEST PUSH1 0x40 MLOAD DUP1 SWAP2 SUB SWAP1 REVERT JUMPDEST PUSH1 0x0 PUSH2 0x27A6 PUSH2 0x15FC JUMP JUMPDEST SWAP1 POP PUSH2 0x27B6 DUP2 DUP8 DUP8 DUP8 DUP8 DUP8 PUSH2 0x2502 JUMP JUMPDEST PUSH1 0x0 JUMPDEST DUP5 MLOAD DUP2 LT ISZERO PUSH2 0x2967 JUMPI PUSH1 0x0 DUP6 DUP3 DUP2 MLOAD DUP2 LT PUSH2 0x27D7 JUMPI PUSH2 0x27D6 PUSH2 0x4016 JUMP JUMPDEST JUMPDEST PUSH1 0x20 MUL PUSH1 0x20 ADD ADD MLOAD SWAP1 POP PUSH1 0x0 DUP6 DUP4 DUP2 MLOAD DUP2 LT PUSH2 0x27F6 JUMPI PUSH2 0x27F5 PUSH2 0x4016 JUMP JUMPDEST JUMPDEST PUSH1 0x20 MUL PUSH1 0x20 ADD ADD MLOAD SWAP1 POP PUSH1 0x0 DUP1 PUSH1 0x0 DUP5 DUP2 MSTORE PUSH1 0x20 ADD SWAP1 DUP2 MSTORE PUSH1 0x20 ADD PUSH1 0x0 KECCAK256 PUSH1 0x0 DUP12 PUSH20 0xFFFFFFFFFFFFFFFFFFFFFFFFFFFFFFFFFFFFFFFF AND PUSH20 0xFFFFFFFFFFFFFFFFFFFFFFFFFFFFFFFFFFFFFFFF AND DUP2 MSTORE PUSH1 0x20 ADD SWAP1 DUP2 MSTORE PUSH1 0x20 ADD PUSH1 0x0 KECCAK256 SLOAD SWAP1 POP DUP2 DUP2 LT ISZERO PUSH2 0x2897 JUMPI PUSH1 0x40 MLOAD PUSH32 0x8C379A000000000000000000000000000000000000000000000000000000000 DUP2 MSTORE PUSH1 0x4 ADD PUSH2 0x288E SWAP1 PUSH2 0x4FC5 JUMP JUMPDEST PUSH1 0x40 MLOAD DUP1 SWAP2 SUB SWAP1 REVERT JUMPDEST DUP2 DUP2 SUB PUSH1 0x0 DUP1 DUP6 DUP2 MSTORE PUSH1 0x20 ADD SWAP1 DUP2 MSTORE PUSH1 0x20 ADD PUSH1 0x0 KECCAK256 PUSH1 0x0 DUP13 PUSH20 0xFFFFFFFFFFFFFFFFFFFFFFFFFFFFFFFFFFFFFFFF AND PUSH20 0xFFFFFFFFFFFFFFFFFFFFFFFFFFFFFFFFFFFFFFFF AND DUP2 MSTORE PUSH1 0x20 ADD SWAP1 DUP2 MSTORE PUSH1 0x20 ADD PUSH1 0x0 KECCAK256 DUP2 SWAP1 SSTORE POP DUP2 PUSH1 0x0 DUP1 DUP6 DUP2 MSTORE PUSH1 0x20 ADD SWAP1 DUP2 MSTORE PUSH1 0x20 ADD PUSH1 0x0 KECCAK256 PUSH1 0x0 DUP12 PUSH20 0xFFFFFFFFFFFFFFFFFFFFFFFFFFFFFFFFFFFFFFFF AND PUSH20 0xFFFFFFFFFFFFFFFFFFFFFFFFFFFFFFFFFFFFFFFF AND DUP2 MSTORE PUSH1 0x20 ADD SWAP1 DUP2 MSTORE PUSH1 0x20 ADD PUSH1 0x0 KECCAK256 PUSH1 0x0 DUP3 DUP3 SLOAD PUSH2 0x294C SWAP2 SWAP1 PUSH2 0x41B1 JUMP JUMPDEST SWAP3 POP POP DUP2 SWAP1 SSTORE POP POP POP POP DUP1 PUSH2 0x2960 SWAP1 PUSH2 0x4045 JUMP JUMPDEST SWAP1 POP PUSH2 0x27B9 JUMP JUMPDEST POP DUP5 PUSH20 0xFFFFFFFFFFFFFFFFFFFFFFFFFFFFFFFFFFFFFFFF AND DUP7 PUSH20 0xFFFFFFFFFFFFFFFFFFFFFFFFFFFFFFFFFFFFFFFF AND DUP3 PUSH20 0xFFFFFFFFFFFFFFFFFFFFFFFFFFFFFFFFFFFFFFFF AND PUSH32 0x4A39DC06D4C0DBC64B70AF90FD698A233A518AA5D07E595D983B8C0526C8F7FB DUP8 DUP8 PUSH1 0x40 MLOAD PUSH2 0x29DE SWAP3 SWAP2 SWAP1 PUSH2 0x4FE5 JUMP JUMPDEST PUSH1 0x40 MLOAD DUP1 SWAP2 SUB SWAP1 LOG4 PUSH2 0x29F4 DUP2 DUP8 DUP8 DUP8 DUP8 DUP8 PUSH2 0x250A JUMP JUMPDEST PUSH2 0x2A02 DUP2 DUP8 DUP8 DUP8 DUP8 DUP8 PUSH2 0x2D0F JUMP JUMPDEST POP POP POP POP POP POP JUMP JUMPDEST PUSH1 0x0 PUSH20 0xFFFFFFFFFFFFFFFFFFFFFFFFFFFFFFFFFFFFFFFF AND DUP5 PUSH20 0xFFFFFFFFFFFFFFFFFFFFFFFFFFFFFFFFFFFFFFFF AND SUB PUSH2 0x2A79 JUMPI PUSH1 0x40 MLOAD PUSH32 0x8C379A000000000000000000000000000000000000000000000000000000000 DUP2 MSTORE PUSH1 0x4 ADD PUSH2 0x2A70 SWAP1 PUSH2 0x4F33 JUMP JUMPDEST PUSH1 0x40 MLOAD DUP1 SWAP2 SUB SWAP1 REVERT JUMPDEST PUSH1 0x0 PUSH2 0x2A83 PUSH2 0x15FC JUMP JUMPDEST SWAP1 POP PUSH1 0x0 PUSH2 0x2A90 DUP6 PUSH2 0x2488 JUMP JUMPDEST SWAP1 POP PUSH1 0x0 PUSH2 0x2A9D DUP6 PUSH2 0x2488 JUMP JUMPDEST SWAP1 POP PUSH2 0x2AAD DUP4 DUP10 DUP10 DUP6 DUP6 DUP10 PUSH2 0x2502 JUMP JUMPDEST PUSH1 0x0 DUP1 PUSH1 0x0 DUP9 DUP2 MSTORE PUSH1 0x20 ADD SWAP1 DUP2 MSTORE PUSH1 0x20 ADD PUSH1 0x0 KECCAK256 PUSH1 0x0 DUP11 PUSH20 0xFFFFFFFFFFFFFFFFFFFFFFFFFFFFFFFFFFFFFFFF AND PUSH20 0xFFFFFFFFFFFFFFFFFFFFFFFFFFFFFFFFFFFFFFFF AND DUP2 MSTORE PUSH1 0x20 ADD SWAP1 DUP2 MSTORE PUSH1 0x20 ADD PUSH1 0x0 KECCAK256 SLOAD SWAP1 POP DUP6 DUP2 LT ISZERO PUSH2 0x2B44 JUMPI PUSH1 0x40 MLOAD PUSH32 0x8C379A000000000000000000000000000000000000000000000000000000000 DUP2 MSTORE PUSH1 0x4 ADD PUSH2 0x2B3B SWAP1 PUSH2 0x4FC5 JUMP JUMPDEST PUSH1 0x40 MLOAD DUP1 SWAP2 SUB SWAP1 REVERT JUMPDEST DUP6 DUP2 SUB PUSH1 0x0 DUP1 DUP10 DUP2 MSTORE PUSH1 0x20 ADD SWAP1 DUP2 MSTORE PUSH1 0x20 ADD PUSH1 0x0 KECCAK256 PUSH1 0x0 DUP12 PUSH20 0xFFFFFFFFFFFFFFFFFFFFFFFFFFFFFFFFFFFFFFFF AND PUSH20 0xFFFFFFFFFFFFFFFFFFFFFFFFFFFFFFFFFFFFFFFF AND DUP2 MSTORE PUSH1 0x20 ADD SWAP1 DUP2 MSTORE PUSH1 0x20 ADD PUSH1 0x0 KECCAK256 DUP2 SWAP1 SSTORE POP DUP6 PUSH1 0x0 DUP1 DUP10 DUP2 MSTORE PUSH1 0x20 ADD SWAP1 DUP2 MSTORE PUSH1 0x20 ADD PUSH1 0x0 KECCAK256 PUSH1 0x0 DUP11 PUSH20 0xFFFFFFFFFFFFFFFFFFFFFFFFFFFFFFFFFFFFFFFF AND PUSH20 0xFFFFFFFFFFFFFFFFFFFFFFFFFFFFFFFFFFFFFFFF AND DUP2 MSTORE PUSH1 0x20 ADD SWAP1 DUP2 MSTORE PUSH1 0x20 ADD PUSH1 0x0 KECCAK256 PUSH1 0x0 DUP3 DUP3 SLOAD PUSH2 0x2BF9 SWAP2 SWAP1 PUSH2 0x41B1 JUMP JUMPDEST SWAP3 POP POP DUP2 SWAP1 SSTORE POP DUP8 PUSH20 0xFFFFFFFFFFFFFFFFFFFFFFFFFFFFFFFFFFFFFFFF AND DUP10 PUSH20 0xFFFFFFFFFFFFFFFFFFFFFFFFFFFFFFFFFFFFFFFF AND DUP6 PUSH20 0xFFFFFFFFFFFFFFFFFFFFFFFFFFFFFFFFFFFFFFFF AND PUSH32 0xC3D58168C5AE7397731D063D5BBF3D657854427343F4C083240F7AACAA2D0F62 DUP11 DUP11 PUSH1 0x40 MLOAD PUSH2 0x2C76 SWAP3 SWAP2 SWAP1 PUSH2 0x453B JUMP JUMPDEST PUSH1 0x40 MLOAD DUP1 SWAP2 SUB SWAP1 LOG4 PUSH2 0x2C8C DUP5 DUP11 DUP11 DUP7 DUP7 DUP11 PUSH2 0x250A JUMP JUMPDEST PUSH2 0x2C9A DUP5 DUP11 DUP11 DUP11 DUP11 DUP11 PUSH2 0x2512 JUMP JUMPDEST POP POP POP POP POP POP POP POP POP JUMP JUMPDEST PUSH1 0x0 PUSH32 0x1FFC9A700000000000000000000000000000000000000000000000000000000 PUSH28 0xFFFFFFFFFFFFFFFFFFFFFFFFFFFFFFFFFFFFFFFFFFFFFFFFFFFFFFFF NOT AND DUP3 PUSH28 0xFFFFFFFFFFFFFFFFFFFFFFFFFFFFFFFFFFFFFFFFFFFFFFFFFFFFFFFF NOT AND EQ SWAP1 POP SWAP2 SWAP1 POP JUMP JUMPDEST PUSH2 0x2D2E DUP5 PUSH20 0xFFFFFFFFFFFFFFFFFFFFFFFFFFFFFFFFFFFFFFFF AND PUSH2 0x134C JUMP JUMPDEST ISZERO PUSH2 0x2EDE JUMPI DUP4 PUSH20 0xFFFFFFFFFFFFFFFFFFFFFFFFFFFFFFFFFFFFFFFF AND PUSH4 0xBC197C81 DUP8 DUP8 DUP7 DUP7 DUP7 PUSH1 0x40 MLOAD DUP7 PUSH4 0xFFFFFFFF AND PUSH1 0xE0 SHL DUP2 MSTORE PUSH1 0x4 ADD PUSH2 0x2D74 SWAP6 SWAP5 SWAP4 SWAP3 SWAP2 SWAP1 PUSH2 0x501C JUMP JUMPDEST PUSH1 0x20 PUSH1 0x40 MLOAD DUP1 DUP4 SUB DUP2 PUSH1 0x0 DUP8 GAS CALL SWAP3 POP POP POP DUP1 ISZERO PUSH2 0x2DB0 JUMPI POP PUSH1 0x40 MLOAD RETURNDATASIZE PUSH1 0x1F NOT PUSH1 0x1F DUP3 ADD AND DUP3 ADD DUP1 PUSH1 0x40 MSTORE POP DUP2 ADD SWAP1 PUSH2 0x2DAD SWAP2 SWAP1 PUSH2 0x4C1F JUMP JUMPDEST PUSH1 0x1 JUMPDEST PUSH2 0x2E55 JUMPI PUSH2 0x2DBC PUSH2 0x4C59 JUMP JUMPDEST DUP1 PUSH4 0x8C379A0 SUB PUSH2 0x2E18 JUMPI POP PUSH2 0x2DD0 PUSH2 0x4C7B JUMP JUMPDEST DUP1 PUSH2 0x2DDB JUMPI POP PUSH2 0x2E1A JUMP JUMPDEST DUP1 PUSH1 0x40 MLOAD PUSH32 0x8C379A000000000000000000000000000000000000000000000000000000000 DUP2 MSTORE PUSH1 0x4 ADD PUSH2 0x2E0F SWAP2 SWAP1 PUSH2 0x31C7 JUMP JUMPDEST PUSH1 0x40 MLOAD DUP1 SWAP2 SUB SWAP1 REVERT JUMPDEST POP JUMPDEST PUSH1 0x40 MLOAD PUSH32 0x8C379A000000000000000000000000000000000000000000000000000000000 DUP2 MSTORE PUSH1 0x4 ADD PUSH2 0x2E4C SWAP1 PUSH2 0x4D7D JUMP JUMPDEST PUSH1 0x40 MLOAD DUP1 SWAP2 SUB SWAP1 REVERT JUMPDEST PUSH4 0xBC197C81 PUSH1 0xE0 SHL PUSH28 0xFFFFFFFFFFFFFFFFFFFFFFFFFFFFFFFFFFFFFFFFFFFFFFFFFFFFFFFF NOT AND DUP2 PUSH28 0xFFFFFFFFFFFFFFFFFFFFFFFFFFFFFFFFFFFFFFFFFFFFFFFFFFFFFFFF NOT AND EQ PUSH2 0x2EDC JUMPI PUSH1 0x40 MLOAD PUSH32 0x8C379A000000000000000000000000000000000000000000000000000000000 DUP2 MSTORE PUSH1 0x4 ADD PUSH2 0x2ED3 SWAP1 PUSH2 0x4E0F JUMP JUMPDEST PUSH1 0x40 MLOAD DUP1 SWAP2 SUB SWAP1 REVERT JUMPDEST POP JUMPDEST POP POP POP POP POP POP JUMP JUMPDEST PUSH1 0x0 PUSH1 0x40 MLOAD SWAP1 POP SWAP1 JUMP JUMPDEST PUSH1 0x0 DUP1 REVERT JUMPDEST PUSH1 0x0 DUP1 REVERT JUMPDEST PUSH1 0x0 PUSH20 0xFFFFFFFFFFFFFFFFFFFFFFFFFFFFFFFFFFFFFFFF DUP3 AND SWAP1 POP SWAP2 SWAP1 POP JUMP JUMPDEST PUSH1 0x0 PUSH2 0x2F25 DUP3 PUSH2 0x2EFA JUMP JUMPDEST SWAP1 POP SWAP2 SWAP1 POP JUMP JUMPDEST PUSH2 0x2F35 DUP2 PUSH2 0x2F1A JUMP JUMPDEST DUP2 EQ PUSH2 0x2F40 JUMPI PUSH1 0x0 DUP1 REVERT JUMPDEST POP JUMP JUMPDEST PUSH1 0x0 DUP2 CALLDATALOAD SWAP1 POP PUSH2 0x2F52 DUP2 PUSH2 0x2F2C JUMP JUMPDEST SWAP3 SWAP2 POP POP JUMP JUMPDEST PUSH1 0x0 DUP2 SWAP1 POP SWAP2 SWAP1 POP JUMP JUMPDEST PUSH2 0x2F6B DUP2 PUSH2 0x2F58 JUMP JUMPDEST DUP2 EQ PUSH2 0x2F76 JUMPI PUSH1 0x0 DUP1 REVERT JUMPDEST POP JUMP JUMPDEST PUSH1 0x0 DUP2 CALLDATALOAD SWAP1 POP PUSH2 0x2F88 DUP2 PUSH2 0x2F62 JUMP JUMPDEST SWAP3 SWAP2 POP POP JUMP JUMPDEST PUSH1 0x0 DUP1 PUSH1 0x40 DUP4 DUP6 SUB SLT ISZERO PUSH2 0x2FA5 JUMPI PUSH2 0x2FA4 PUSH2 0x2EF0 JUMP JUMPDEST JUMPDEST PUSH1 0x0 PUSH2 0x2FB3 DUP6 DUP3 DUP7 ADD PUSH2 0x2F43 JUMP JUMPDEST SWAP3 POP POP PUSH1 0x20 PUSH2 0x2FC4 DUP6 DUP3 DUP7 ADD PUSH2 0x2F79 JUMP JUMPDEST SWAP2 POP POP SWAP3 POP SWAP3 SWAP1 POP JUMP JUMPDEST PUSH2 0x2FD7 DUP2 PUSH2 0x2F58 JUMP JUMPDEST DUP3 MSTORE POP POP JUMP JUMPDEST PUSH1 0x0 PUSH1 0x20 DUP3 ADD SWAP1 POP PUSH2 0x2FF2 PUSH1 0x0 DUP4 ADD DUP5 PUSH2 0x2FCE JUMP JUMPDEST SWAP3 SWAP2 POP POP JUMP JUMPDEST PUSH1 0x0 PUSH32 0xFFFFFFFF00000000000000000000000000000000000000000000000000000000 DUP3 AND SWAP1 POP SWAP2 SWAP1 POP JUMP JUMPDEST PUSH2 0x302D DUP2 PUSH2 0x2FF8 JUMP JUMPDEST DUP2 EQ PUSH2 0x3038 JUMPI PUSH1 0x0 DUP1 REVERT JUMPDEST POP JUMP JUMPDEST PUSH1 0x0 DUP2 CALLDATALOAD SWAP1 POP PUSH2 0x304A DUP2 PUSH2 0x3024 JUMP JUMPDEST SWAP3 SWAP2 POP POP JUMP JUMPDEST PUSH1 0x0 PUSH1 0x20 DUP3 DUP5 SUB SLT ISZERO PUSH2 0x3066 JUMPI PUSH2 0x3065 PUSH2 0x2EF0 JUMP JUMPDEST JUMPDEST PUSH1 0x0 PUSH2 0x3074 DUP5 DUP3 DUP6 ADD PUSH2 0x303B JUMP JUMPDEST SWAP2 POP POP SWAP3 SWAP2 POP POP JUMP JUMPDEST PUSH1 0x0 DUP2 ISZERO ISZERO SWAP1 POP SWAP2 SWAP1 POP JUMP JUMPDEST PUSH2 0x3092 DUP2 PUSH2 0x307D JUMP JUMPDEST DUP3 MSTORE POP POP JUMP JUMPDEST PUSH1 0x0 PUSH1 0x20 DUP3 ADD SWAP1 POP PUSH2 0x30AD PUSH1 0x0 DUP4 ADD DUP5 PUSH2 0x3089 JUMP JUMPDEST SWAP3 SWAP2 POP POP JUMP JUMPDEST PUSH1 0x0 PUSH12 0xFFFFFFFFFFFFFFFFFFFFFFFF DUP3 AND SWAP1 POP SWAP2 SWAP1 POP JUMP JUMPDEST PUSH2 0x30D4 DUP2 PUSH2 0x30B3 JUMP JUMPDEST DUP2 EQ PUSH2 0x30DF JUMPI PUSH1 0x0 DUP1 REVERT JUMPDEST POP JUMP JUMPDEST PUSH1 0x0 DUP2 CALLDATALOAD SWAP1 POP PUSH2 0x30F1 DUP2 PUSH2 0x30CB JUMP JUMPDEST SWAP3 SWAP2 POP POP JUMP JUMPDEST PUSH1 0x0 DUP1 PUSH1 0x40 DUP4 DUP6 SUB SLT ISZERO PUSH2 0x310E JUMPI PUSH2 0x310D PUSH2 0x2EF0 JUMP JUMPDEST JUMPDEST PUSH1 0x0 PUSH2 0x311C DUP6 DUP3 DUP7 ADD PUSH2 0x2F43 JUMP JUMPDEST SWAP3 POP POP PUSH1 0x20 PUSH2 0x312D DUP6 DUP3 DUP7 ADD PUSH2 0x30E2 JUMP JUMPDEST SWAP2 POP POP SWAP3 POP SWAP3 SWAP1 POP JUMP JUMPDEST PUSH1 0x0 DUP2 MLOAD SWAP1 POP SWAP2 SWAP1 POP JUMP JUMPDEST PUSH1 0x0 DUP3 DUP3 MSTORE PUSH1 0x20 DUP3 ADD SWAP1 POP SWAP3 SWAP2 POP POP JUMP JUMPDEST PUSH1 0x0 JUMPDEST DUP4 DUP2 LT ISZERO PUSH2 0x3171 JUMPI DUP1 DUP3 ADD MLOAD DUP2 DUP5 ADD MSTORE PUSH1 0x20 DUP2 ADD SWAP1 POP PUSH2 0x3156 JUMP JUMPDEST PUSH1 0x0 DUP5 DUP5 ADD MSTORE POP POP POP POP JUMP JUMPDEST PUSH1 0x0 PUSH1 0x1F NOT PUSH1 0x1F DUP4 ADD AND SWAP1 POP SWAP2 SWAP1 POP JUMP JUMPDEST PUSH1 0x0 PUSH2 0x3199 DUP3 PUSH2 0x3137 JUMP JUMPDEST PUSH2 0x31A3 DUP2 DUP6 PUSH2 0x3142 JUMP JUMPDEST SWAP4 POP PUSH2 0x31B3 DUP2 DUP6 PUSH1 0x20 DUP7 ADD PUSH2 0x3153 JUMP JUMPDEST PUSH2 0x31BC DUP2 PUSH2 0x317D JUMP JUMPDEST DUP5 ADD SWAP2 POP POP SWAP3 SWAP2 POP POP JUMP JUMPDEST PUSH1 0x0 PUSH1 0x20 DUP3 ADD SWAP1 POP DUP2 DUP2 SUB PUSH1 0x0 DUP4 ADD MSTORE PUSH2 0x31E1 DUP2 DUP5 PUSH2 0x318E JUMP JUMPDEST SWAP1 POP SWAP3 SWAP2 POP POP JUMP JUMPDEST PUSH1 0x0 PUSH1 0x20 DUP3 DUP5 SUB SLT ISZERO PUSH2 0x31FF JUMPI PUSH2 0x31FE PUSH2 0x2EF0 JUMP JUMPDEST JUMPDEST PUSH1 0x0 PUSH2 0x320D DUP5 DUP3 DUP6 ADD PUSH2 0x2F79 JUMP JUMPDEST SWAP2 POP POP SWAP3 SWAP2 POP POP JUMP JUMPDEST PUSH1 0x0 DUP1 PUSH1 0x0 PUSH1 0x60 DUP5 DUP7 SUB SLT ISZERO PUSH2 0x322F JUMPI PUSH2 0x322E PUSH2 0x2EF0 JUMP JUMPDEST JUMPDEST PUSH1 0x0 PUSH2 0x323D DUP7 DUP3 DUP8 ADD PUSH2 0x2F43 JUMP JUMPDEST SWAP4 POP POP PUSH1 0x20 PUSH2 0x324E DUP7 DUP3 DUP8 ADD PUSH2 0x2F79 JUMP JUMPDEST SWAP3 POP POP PUSH1 0x40 PUSH2 0x325F DUP7 DUP3 DUP8 ADD PUSH2 0x2F79 JUMP JUMPDEST SWAP2 POP POP SWAP3 POP SWAP3 POP SWAP3 JUMP JUMPDEST PUSH1 0x0 DUP1 REVERT JUMPDEST PUSH1 0x0 DUP1 REVERT JUMPDEST PUSH32 0x4E487B7100000000000000000000000000000000000000000000000000000000 PUSH1 0x0 MSTORE PUSH1 0x41 PUSH1 0x4 MSTORE PUSH1 0x24 PUSH1 0x0 REVERT JUMPDEST PUSH2 0x32AB DUP3 PUSH2 0x317D JUMP JUMPDEST DUP2 ADD DUP2 DUP2 LT PUSH8 0xFFFFFFFFFFFFFFFF DUP3 GT OR ISZERO PUSH2 0x32CA JUMPI PUSH2 0x32C9 PUSH2 0x3273 JUMP JUMPDEST JUMPDEST DUP1 PUSH1 0x40 MSTORE POP POP POP JUMP JUMPDEST PUSH1 0x0 PUSH2 0x32DD PUSH2 0x2EE6 JUMP JUMPDEST SWAP1 POP PUSH2 0x32E9 DUP3 DUP3 PUSH2 0x32A2 JUMP JUMPDEST SWAP2 SWAP1 POP JUMP JUMPDEST PUSH1 0x0 PUSH8 0xFFFFFFFFFFFFFFFF DUP3 GT ISZERO PUSH2 0x3309 JUMPI PUSH2 0x3308 PUSH2 0x3273 JUMP JUMPDEST JUMPDEST PUSH2 0x3312 DUP3 PUSH2 0x317D JUMP JUMPDEST SWAP1 POP PUSH1 0x20 DUP2 ADD SWAP1 POP SWAP2 SWAP1 POP JUMP JUMPDEST DUP3 DUP2 DUP4 CALLDATACOPY PUSH1 0x0 DUP4 DUP4 ADD MSTORE POP POP POP JUMP JUMPDEST PUSH1 0x0 PUSH2 0x3341 PUSH2 0x333C DUP5 PUSH2 0x32EE JUMP JUMPDEST PUSH2 0x32D3 JUMP JUMPDEST SWAP1 POP DUP3 DUP2 MSTORE PUSH1 0x20 DUP2 ADD DUP5 DUP5 DUP5 ADD GT ISZERO PUSH2 0x335D JUMPI PUSH2 0x335C PUSH2 0x326E JUMP JUMPDEST JUMPDEST PUSH2 0x3368 DUP5 DUP3 DUP6 PUSH2 0x331F JUMP JUMPDEST POP SWAP4 SWAP3 POP POP POP JUMP JUMPDEST PUSH1 0x0 DUP3 PUSH1 0x1F DUP4 ADD SLT PUSH2 0x3385 JUMPI PUSH2 0x3384 PUSH2 0x3269 JUMP JUMPDEST JUMPDEST DUP2 CALLDATALOAD PUSH2 0x3395 DUP5 DUP3 PUSH1 0x20 DUP7 ADD PUSH2 0x332E JUMP JUMPDEST SWAP2 POP POP SWAP3 SWAP2 POP POP JUMP JUMPDEST PUSH1 0x0 DUP1 PUSH1 0x40 DUP4 DUP6 SUB SLT ISZERO PUSH2 0x33B5 JUMPI PUSH2 0x33B4 PUSH2 0x2EF0 JUMP JUMPDEST JUMPDEST PUSH1 0x0 PUSH2 0x33C3 DUP6 DUP3 DUP7 ADD PUSH2 0x2F79 JUMP JUMPDEST SWAP3 POP POP PUSH1 0x20 DUP4 ADD CALLDATALOAD PUSH8 0xFFFFFFFFFFFFFFFF DUP2 GT ISZERO PUSH2 0x33E4 JUMPI PUSH2 0x33E3 PUSH2 0x2EF5 JUMP JUMPDEST JUMPDEST PUSH2 0x33F0 DUP6 DUP3 DUP7 ADD PUSH2 0x3370 JUMP JUMPDEST SWAP2 POP POP SWAP3 POP SWAP3 SWAP1 POP JUMP JUMPDEST PUSH1 0x0 PUSH1 0x20 DUP3 DUP5 SUB SLT ISZERO PUSH2 0x3410 JUMPI PUSH2 0x340F PUSH2 0x2EF0 JUMP JUMPDEST JUMPDEST PUSH1 0x0 PUSH2 0x341E DUP5 DUP3 DUP6 ADD PUSH2 0x2F43 JUMP JUMPDEST SWAP2 POP POP SWAP3 SWAP2 POP POP JUMP JUMPDEST PUSH1 0x0 DUP1 PUSH1 0x40 DUP4 DUP6 SUB SLT ISZERO PUSH2 0x343E JUMPI PUSH2 0x343D PUSH2 0x2EF0 JUMP JUMPDEST JUMPDEST PUSH1 0x0 PUSH2 0x344C DUP6 DUP3 DUP7 ADD PUSH2 0x2F79 JUMP JUMPDEST SWAP3 POP POP PUSH1 0x20 PUSH2 0x345D DUP6 DUP3 DUP7 ADD PUSH2 0x2F79 JUMP JUMPDEST SWAP2 POP POP SWAP3 POP SWAP3 SWAP1 POP JUMP JUMPDEST PUSH2 0x3470 DUP2 PUSH2 0x2F1A JUMP JUMPDEST DUP3 MSTORE POP POP JUMP JUMPDEST PUSH1 0x0 PUSH1 0x40 DUP3 ADD SWAP1 POP PUSH2 0x348B PUSH1 0x0 DUP4 ADD DUP6 PUSH2 0x3467 JUMP JUMPDEST PUSH2 0x3498 PUSH1 0x20 DUP4 ADD DUP5 PUSH2 0x2FCE JUMP JUMPDEST SWAP4 SWAP3 POP POP POP JUMP JUMPDEST PUSH1 0x0 PUSH8 0xFFFFFFFFFFFFFFFF DUP3 GT ISZERO PUSH2 0x34BA JUMPI PUSH2 0x34B9 PUSH2 0x3273 JUMP JUMPDEST JUMPDEST PUSH1 0x20 DUP3 MUL SWAP1 POP PUSH1 0x20 DUP2 ADD SWAP1 POP SWAP2 SWAP1 POP JUMP JUMPDEST PUSH1 0x0 DUP1 REVERT JUMPDEST PUSH1 0x0 PUSH2 0x34E3 PUSH2 0x34DE DUP5 PUSH2 0x349F JUMP JUMPDEST PUSH2 0x32D3 JUMP JUMPDEST SWAP1 POP DUP1 DUP4 DUP3 MSTORE PUSH1 0x20 DUP3 ADD SWAP1 POP PUSH1 0x20 DUP5 MUL DUP4 ADD DUP6 DUP2 GT ISZERO PUSH2 0x3506 JUMPI PUSH2 0x3505 PUSH2 0x34CB JUMP JUMPDEST JUMPDEST DUP4 JUMPDEST DUP2 DUP2 LT ISZERO PUSH2 0x352F JUMPI DUP1 PUSH2 0x351B DUP9 DUP3 PUSH2 0x2F79 JUMP JUMPDEST DUP5 MSTORE PUSH1 0x20 DUP5 ADD SWAP4 POP POP PUSH1 0x20 DUP2 ADD SWAP1 POP PUSH2 0x3508 JUMP JUMPDEST POP POP POP SWAP4 SWAP3 POP POP POP JUMP JUMPDEST PUSH1 0x0 DUP3 PUSH1 0x1F DUP4 ADD SLT PUSH2 0x354E JUMPI PUSH2 0x354D PUSH2 0x3269 JUMP JUMPDEST JUMPDEST DUP2 CALLDATALOAD PUSH2 0x355E DUP5 DUP3 PUSH1 0x20 DUP7 ADD PUSH2 0x34D0 JUMP JUMPDEST SWAP2 POP POP SWAP3 SWAP2 POP POP JUMP JUMPDEST PUSH1 0x0 PUSH8 0xFFFFFFFFFFFFFFFF DUP3 GT ISZERO PUSH2 0x3582 JUMPI PUSH2 0x3581 PUSH2 0x3273 JUMP JUMPDEST JUMPDEST PUSH2 0x358B DUP3 PUSH2 0x317D JUMP JUMPDEST SWAP1 POP PUSH1 0x20 DUP2 ADD SWAP1 POP SWAP2 SWAP1 POP JUMP JUMPDEST PUSH1 0x0 PUSH2 0x35AB PUSH2 0x35A6 DUP5 PUSH2 0x3567 JUMP JUMPDEST PUSH2 0x32D3 JUMP JUMPDEST SWAP1 POP DUP3 DUP2 MSTORE PUSH1 0x20 DUP2 ADD DUP5 DUP5 DUP5 ADD GT ISZERO PUSH2 0x35C7 JUMPI PUSH2 0x35C6 PUSH2 0x326E JUMP JUMPDEST JUMPDEST PUSH2 0x35D2 DUP5 DUP3 DUP6 PUSH2 0x331F JUMP JUMPDEST POP SWAP4 SWAP3 POP POP POP JUMP JUMPDEST PUSH1 0x0 DUP3 PUSH1 0x1F DUP4 ADD SLT PUSH2 0x35EF JUMPI PUSH2 0x35EE PUSH2 0x3269 JUMP JUMPDEST JUMPDEST DUP2 CALLDATALOAD PUSH2 0x35FF DUP5 DUP3 PUSH1 0x20 DUP7 ADD PUSH2 0x3598 JUMP JUMPDEST SWAP2 POP POP SWAP3 SWAP2 POP POP JUMP JUMPDEST PUSH1 0x0 DUP1 PUSH1 0x0 DUP1 PUSH1 0x0 PUSH1 0xA0 DUP7 DUP9 SUB SLT ISZERO PUSH2 0x3624 JUMPI PUSH2 0x3623 PUSH2 0x2EF0 JUMP JUMPDEST JUMPDEST PUSH1 0x0 PUSH2 0x3632 DUP9 DUP3 DUP10 ADD PUSH2 0x2F43 JUMP JUMPDEST SWAP6 POP POP PUSH1 0x20 PUSH2 0x3643 DUP9 DUP3 DUP10 ADD PUSH2 0x2F43 JUMP JUMPDEST SWAP5 POP POP PUSH1 0x40 DUP7 ADD CALLDATALOAD PUSH8 0xFFFFFFFFFFFFFFFF DUP2 GT ISZERO PUSH2 0x3664 JUMPI PUSH2 0x3663 PUSH2 0x2EF5 JUMP JUMPDEST JUMPDEST PUSH2 0x3670 DUP9 DUP3 DUP10 ADD PUSH2 0x3539 JUMP JUMPDEST SWAP4 POP POP PUSH1 0x60 DUP7 ADD CALLDATALOAD PUSH8 0xFFFFFFFFFFFFFFFF DUP2 GT ISZERO PUSH2 0x3691 JUMPI PUSH2 0x3690 PUSH2 0x2EF5 JUMP JUMPDEST JUMPDEST PUSH2 0x369D DUP9 DUP3 DUP10 ADD PUSH2 0x3539 JUMP JUMPDEST SWAP3 POP POP PUSH1 0x80 DUP7 ADD CALLDATALOAD PUSH8 0xFFFFFFFFFFFFFFFF DUP2 GT ISZERO PUSH2 0x36BE JUMPI PUSH2 0x36BD PUSH2 0x2EF5 JUMP JUMPDEST JUMPDEST PUSH2 0x36CA DUP9 DUP3 DUP10 ADD PUSH2 0x35DA JUMP JUMPDEST SWAP2 POP POP SWAP3 SWAP6 POP SWAP3 SWAP6 SWAP1 SWAP4 POP JUMP JUMPDEST PUSH1 0x0 DUP2 SWAP1 POP SWAP2 SWAP1 POP JUMP JUMPDEST PUSH1 0x0 PUSH2 0x36FC PUSH2 0x36F7 PUSH2 0x36F2 DUP5 PUSH2 0x2EFA JUMP JUMPDEST PUSH2 0x36D7 JUMP JUMPDEST PUSH2 0x2EFA JUMP JUMPDEST SWAP1 POP SWAP2 SWAP1 POP JUMP JUMPDEST PUSH1 0x0 PUSH2 0x370E DUP3 PUSH2 0x36E1 JUMP JUMPDEST SWAP1 POP SWAP2 SWAP1 POP JUMP JUMPDEST PUSH1 0x0 PUSH2 0x3720 DUP3 PUSH2 0x3703 JUMP JUMPDEST SWAP1 POP SWAP2 SWAP1 POP JUMP JUMPDEST PUSH2 0x3730 DUP2 PUSH2 0x3715 JUMP JUMPDEST DUP3 MSTORE POP POP JUMP JUMPDEST PUSH1 0x0 PUSH1 0x20 DUP3 ADD SWAP1 POP PUSH2 0x374B PUSH1 0x0 DUP4 ADD DUP5 PUSH2 0x3727 JUMP JUMPDEST SWAP3 SWAP2 POP POP JUMP JUMPDEST PUSH1 0x0 PUSH8 0xFFFFFFFFFFFFFFFF DUP3 GT ISZERO PUSH2 0x376C JUMPI PUSH2 0x376B PUSH2 0x3273 JUMP JUMPDEST JUMPDEST PUSH1 0x20 DUP3 MUL SWAP1 POP PUSH1 0x20 DUP2 ADD SWAP1 POP SWAP2 SWAP1 POP JUMP JUMPDEST PUSH1 0x0 PUSH2 0x3790 PUSH2 0x378B DUP5 PUSH2 0x3751 JUMP JUMPDEST PUSH2 0x32D3 JUMP JUMPDEST SWAP1 POP DUP1 DUP4 DUP3 MSTORE PUSH1 0x20 DUP3 ADD SWAP1 POP PUSH1 0x20 DUP5 MUL DUP4 ADD DUP6 DUP2 GT ISZERO PUSH2 0x37B3 JUMPI PUSH2 0x37B2 PUSH2 0x34CB JUMP JUMPDEST JUMPDEST DUP4 JUMPDEST DUP2 DUP2 LT ISZERO PUSH2 0x37DC JUMPI DUP1 PUSH2 0x37C8 DUP9 DUP3 PUSH2 0x2F43 JUMP JUMPDEST DUP5 MSTORE PUSH1 0x20 DUP5 ADD SWAP4 POP POP PUSH1 0x20 DUP2 ADD SWAP1 POP PUSH2 0x37B5 JUMP JUMPDEST POP POP POP SWAP4 SWAP3 POP POP POP JUMP JUMPDEST PUSH1 0x0 DUP3 PUSH1 0x1F DUP4 ADD SLT PUSH2 0x37FB JUMPI PUSH2 0x37FA PUSH2 0x3269 JUMP JUMPDEST JUMPDEST DUP2 CALLDATALOAD PUSH2 0x380B DUP5 DUP3 PUSH1 0x20 DUP7 ADD PUSH2 0x377D JUMP JUMPDEST SWAP2 POP POP SWAP3 SWAP2 POP POP JUMP JUMPDEST PUSH1 0x0 DUP1 PUSH1 0x40 DUP4 DUP6 SUB SLT ISZERO PUSH2 0x382B JUMPI PUSH2 0x382A PUSH2 0x2EF0 JUMP JUMPDEST JUMPDEST PUSH1 0x0 DUP4 ADD CALLDATALOAD PUSH8 0xFFFFFFFFFFFFFFFF DUP2 GT ISZERO PUSH2 0x3849 JUMPI PUSH2 0x3848 PUSH2 0x2EF5 JUMP JUMPDEST JUMPDEST PUSH2 0x3855 DUP6 DUP3 DUP7 ADD PUSH2 0x37E6 JUMP JUMPDEST SWAP3 POP POP PUSH1 0x20 DUP4 ADD CALLDATALOAD PUSH8 0xFFFFFFFFFFFFFFFF DUP2 GT ISZERO PUSH2 0x3876 JUMPI PUSH2 0x3875 PUSH2 0x2EF5 JUMP JUMPDEST JUMPDEST PUSH2 0x3882 DUP6 DUP3 DUP7 ADD PUSH2 0x3539 JUMP JUMPDEST SWAP2 POP POP SWAP3 POP SWAP3 SWAP1 POP JUMP JUMPDEST PUSH1 0x0 DUP2 MLOAD SWAP1 POP SWAP2 SWAP1 POP JUMP JUMPDEST PUSH1 0x0 DUP3 DUP3 MSTORE PUSH1 0x20 DUP3 ADD SWAP1 POP SWAP3 SWAP2 POP POP JUMP JUMPDEST PUSH1 0x0 DUP2 SWAP1 POP PUSH1 0x20 DUP3 ADD SWAP1 POP SWAP2 SWAP1 POP JUMP JUMPDEST PUSH2 0x38C1 DUP2 PUSH2 0x2F58 JUMP JUMPDEST DUP3 MSTORE POP POP JUMP JUMPDEST PUSH1 0x0 PUSH2 0x38D3 DUP4 DUP4 PUSH2 0x38B8 JUMP JUMPDEST PUSH1 0x20 DUP4 ADD SWAP1 POP SWAP3 SWAP2 POP POP JUMP JUMPDEST PUSH1 0x0 PUSH1 0x20 DUP3 ADD SWAP1 POP SWAP2 SWAP1 POP JUMP JUMPDEST PUSH1 0x0 PUSH2 0x38F7 DUP3 PUSH2 0x388C JUMP JUMPDEST PUSH2 0x3901 DUP2 DUP6 PUSH2 0x3897 JUMP JUMPDEST SWAP4 POP PUSH2 0x390C DUP4 PUSH2 0x38A8 JUMP JUMPDEST DUP1 PUSH1 0x0 JUMPDEST DUP4 DUP2 LT ISZERO PUSH2 0x393D JUMPI DUP2 MLOAD PUSH2 0x3924 DUP9 DUP3 PUSH2 0x38C7 JUMP JUMPDEST SWAP8 POP PUSH2 0x392F DUP4 PUSH2 0x38DF JUMP JUMPDEST SWAP3 POP POP PUSH1 0x1 DUP2 ADD SWAP1 POP PUSH2 0x3910 JUMP JUMPDEST POP DUP6 SWAP4 POP POP POP POP SWAP3 SWAP2 POP POP JUMP JUMPDEST PUSH1 0x0 PUSH1 0x20 DUP3 ADD SWAP1 POP DUP2 DUP2 SUB PUSH1 0x0 DUP4 ADD MSTORE PUSH2 0x3964 DUP2 DUP5 PUSH2 0x38EC JUMP JUMPDEST SWAP1 POP SWAP3 SWAP2 POP POP JUMP JUMPDEST PUSH1 0x0 PUSH1 0x20 DUP3 DUP5 SUB SLT ISZERO PUSH2 0x3982 JUMPI PUSH2 0x3981 PUSH2 0x2EF0 JUMP JUMPDEST JUMPDEST PUSH1 0x0 DUP3 ADD CALLDATALOAD PUSH8 0xFFFFFFFFFFFFFFFF DUP2 GT ISZERO PUSH2 0x39A0 JUMPI PUSH2 0x399F PUSH2 0x2EF5 JUMP JUMPDEST JUMPDEST PUSH2 0x39AC DUP5 DUP3 DUP6 ADD PUSH2 0x3370 JUMP JUMPDEST SWAP2 POP POP SWAP3 SWAP2 POP POP JUMP JUMPDEST PUSH1 0x0 DUP1 PUSH1 0x0 PUSH1 0x60 DUP5 DUP7 SUB SLT ISZERO PUSH2 0x39CE JUMPI PUSH2 0x39CD PUSH2 0x2EF0 JUMP JUMPDEST JUMPDEST PUSH1 0x0 PUSH2 0x39DC DUP7 DUP3 DUP8 ADD PUSH2 0x2F79 JUMP JUMPDEST SWAP4 POP POP PUSH1 0x20 PUSH2 0x39ED DUP7 DUP3 DUP8 ADD PUSH2 0x2F43 JUMP JUMPDEST SWAP3 POP POP PUSH1 0x40 PUSH2 0x39FE DUP7 DUP3 DUP8 ADD PUSH2 0x30E2 JUMP JUMPDEST SWAP2 POP POP SWAP3 POP SWAP3 POP SWAP3 JUMP JUMPDEST PUSH1 0x0 DUP1 PUSH1 0x0 PUSH1 0x60 DUP5 DUP7 SUB SLT ISZERO PUSH2 0x3A21 JUMPI PUSH2 0x3A20 PUSH2 0x2EF0 JUMP JUMPDEST JUMPDEST PUSH1 0x0 DUP5 ADD CALLDATALOAD PUSH8 0xFFFFFFFFFFFFFFFF DUP2 GT ISZERO PUSH2 0x3A3F JUMPI PUSH2 0x3A3E PUSH2 0x2EF5 JUMP JUMPDEST JUMPDEST PUSH2 0x3A4B DUP7 DUP3 DUP8 ADD PUSH2 0x37E6 JUMP JUMPDEST SWAP4 POP POP PUSH1 0x20 PUSH2 0x3A5C DUP7 DUP3 DUP8 ADD PUSH2 0x2F79 JUMP JUMPDEST SWAP3 POP POP PUSH1 0x40 DUP5 ADD CALLDATALOAD PUSH8 0xFFFFFFFFFFFFFFFF DUP2 GT ISZERO PUSH2 0x3A7D JUMPI PUSH2 0x3A7C PUSH2 0x2EF5 JUMP JUMPDEST JUMPDEST PUSH2 0x3A89 DUP7 DUP3 DUP8 ADD PUSH2 0x3539 JUMP JUMPDEST SWAP2 POP POP SWAP3 POP SWAP3 POP SWAP3 JUMP JUMPDEST PUSH1 0x0 PUSH1 0x20 DUP3 ADD SWAP1 POP PUSH2 0x3AA8 PUSH1 0x0 DUP4 ADD DUP5 PUSH2 0x3467 JUMP JUMPDEST SWAP3 SWAP2 POP POP JUMP JUMPDEST PUSH2 0x3AB7 DUP2 PUSH2 0x307D JUMP JUMPDEST DUP2 EQ PUSH2 0x3AC2 JUMPI PUSH1 0x0 DUP1 REVERT JUMPDEST POP JUMP JUMPDEST PUSH1 0x0 DUP2 CALLDATALOAD SWAP1 POP PUSH2 0x3AD4 DUP2 PUSH2 0x3AAE JUMP JUMPDEST SWAP3 SWAP2 POP POP JUMP JUMPDEST PUSH1 0x0 DUP1 PUSH1 0x40 DUP4 DUP6 SUB SLT ISZERO PUSH2 0x3AF1 JUMPI PUSH2 0x3AF0 PUSH2 0x2EF0 JUMP JUMPDEST JUMPDEST PUSH1 0x0 PUSH2 0x3AFF DUP6 DUP3 DUP7 ADD PUSH2 0x2F43 JUMP JUMPDEST SWAP3 POP POP PUSH1 0x20 PUSH2 0x3B10 DUP6 DUP3 DUP7 ADD PUSH2 0x3AC5 JUMP JUMPDEST SWAP2 POP POP SWAP3 POP SWAP3 SWAP1 POP JUMP JUMPDEST PUSH1 0x0 DUP1 PUSH1 0x40 DUP4 DUP6 SUB SLT ISZERO PUSH2 0x3B31 JUMPI PUSH2 0x3B30 PUSH2 0x2EF0 JUMP JUMPDEST JUMPDEST PUSH1 0x0 PUSH2 0x3B3F DUP6 DUP3 DUP7 ADD PUSH2 0x2F43 JUMP JUMPDEST SWAP3 POP POP PUSH1 0x20 PUSH2 0x3B50 DUP6 DUP3 DUP7 ADD PUSH2 0x2F43 JUMP JUMPDEST SWAP2 POP POP SWAP3 POP SWAP3 SWAP1 POP JUMP JUMPDEST PUSH1 0x0 DUP1 PUSH1 0x0 DUP1 PUSH1 0x0 PUSH1 0xA0 DUP7 DUP9 SUB SLT ISZERO PUSH2 0x3B76 JUMPI PUSH2 0x3B75 PUSH2 0x2EF0 JUMP JUMPDEST JUMPDEST PUSH1 0x0 PUSH2 0x3B84 DUP9 DUP3 DUP10 ADD PUSH2 0x2F43 JUMP JUMPDEST SWAP6 POP POP PUSH1 0x20 PUSH2 0x3B95 DUP9 DUP3 DUP10 ADD PUSH2 0x2F43 JUMP JUMPDEST SWAP5 POP POP PUSH1 0x40 PUSH2 0x3BA6 DUP9 DUP3 DUP10 ADD PUSH2 0x2F79 JUMP JUMPDEST SWAP4 POP POP PUSH1 0x60 PUSH2 0x3BB7 DUP9 DUP3 DUP10 ADD PUSH2 0x2F79 JUMP JUMPDEST SWAP3 POP POP PUSH1 0x80 DUP7 ADD CALLDATALOAD PUSH8 0xFFFFFFFFFFFFFFFF DUP2 GT ISZERO PUSH2 0x3BD8 JUMPI PUSH2 0x3BD7 PUSH2 0x2EF5 JUMP JUMPDEST JUMPDEST PUSH2 0x3BE4 DUP9 DUP3 DUP10 ADD PUSH2 0x35DA JUMP JUMPDEST SWAP2 POP POP SWAP3 SWAP6 POP SWAP3 SWAP6 SWAP1 SWAP4 POP JUMP JUMPDEST PUSH32 0x455243313135353A2061646472657373207A65726F206973206E6F7420612076 PUSH1 0x0 DUP3 ADD MSTORE PUSH32 0x616C6964206F776E657200000000000000000000000000000000000000000000 PUSH1 0x20 DUP3 ADD MSTORE POP JUMP JUMPDEST PUSH1 0x0 PUSH2 0x3C4D PUSH1 0x2A DUP4 PUSH2 0x3142 JUMP JUMPDEST SWAP2 POP PUSH2 0x3C58 DUP3 PUSH2 0x3BF1 JUMP JUMPDEST PUSH1 0x40 DUP3 ADD SWAP1 POP SWAP2 SWAP1 POP JUMP JUMPDEST PUSH1 0x0 PUSH1 0x20 DUP3 ADD SWAP1 POP DUP2 DUP2 SUB PUSH1 0x0 DUP4 ADD MSTORE PUSH2 0x3C7C DUP2 PUSH2 0x3C40 JUMP JUMPDEST SWAP1 POP SWAP2 SWAP1 POP JUMP JUMPDEST PUSH32 0x4E487B7100000000000000000000000000000000000000000000000000000000 PUSH1 0x0 MSTORE PUSH1 0x22 PUSH1 0x4 MSTORE PUSH1 0x24 PUSH1 0x0 REVERT JUMPDEST PUSH1 0x0 PUSH1 0x2 DUP3 DIV SWAP1 POP PUSH1 0x1 DUP3 AND DUP1 PUSH2 0x3CCA JUMPI PUSH1 0x7F DUP3 AND SWAP2 POP JUMPDEST PUSH1 0x20 DUP3 LT DUP2 SUB PUSH2 0x3CDD JUMPI PUSH2 0x3CDC PUSH2 0x3C83 JUMP JUMPDEST JUMPDEST POP SWAP2 SWAP1 POP JUMP JUMPDEST PUSH1 0x0 DUP2 SWAP1 POP SWAP3 SWAP2 POP POP JUMP JUMPDEST PUSH1 0x0 DUP2 SWAP1 POP DUP2 PUSH1 0x0 MSTORE PUSH1 0x20 PUSH1 0x0 KECCAK256 SWAP1 POP SWAP2 SWAP1 POP JUMP JUMPDEST PUSH1 0x0 DUP2 SLOAD PUSH2 0x3D10 DUP2 PUSH2 0x3CB2 JUMP JUMPDEST PUSH2 0x3D1A DUP2 DUP7 PUSH2 0x3CE3 JUMP JUMPDEST SWAP5 POP PUSH1 0x1 DUP3 AND PUSH1 0x0 DUP2 EQ PUSH2 0x3D35 JUMPI PUSH1 0x1 DUP2 EQ PUSH2 0x3D4A JUMPI PUSH2 0x3D7D JUMP JUMPDEST PUSH1 0xFF NOT DUP4 AND DUP7 MSTORE DUP2 ISZERO ISZERO DUP3 MUL DUP7 ADD SWAP4 POP PUSH2 0x3D7D JUMP JUMPDEST PUSH2 0x3D53 DUP6 PUSH2 0x3CEE JUMP JUMPDEST PUSH1 0x0 JUMPDEST DUP4 DUP2 LT ISZERO PUSH2 0x3D75 JUMPI DUP2 SLOAD DUP2 DUP10 ADD MSTORE PUSH1 0x1 DUP3 ADD SWAP2 POP PUSH1 0x20 DUP2 ADD SWAP1 POP PUSH2 0x3D56 JUMP JUMPDEST DUP4 DUP9 ADD SWAP6 POP POP POP JUMPDEST POP POP POP SWAP3 SWAP2 POP POP JUMP JUMPDEST PUSH1 0x0 PUSH2 0x3D91 DUP3 PUSH2 0x3137 JUMP JUMPDEST PUSH2 0x3D9B DUP2 DUP6 PUSH2 0x3CE3 JUMP JUMPDEST SWAP4 POP PUSH2 0x3DAB DUP2 DUP6 PUSH1 0x20 DUP7 ADD PUSH2 0x3153 JUMP JUMPDEST DUP1 DUP5 ADD SWAP2 POP POP SWAP3 SWAP2 POP POP JUMP JUMPDEST PUSH1 0x0 PUSH2 0x3DC3 DUP3 DUP6 PUSH2 0x3D03 JUMP JUMPDEST SWAP2 POP PUSH2 0x3DCF DUP3 DUP5 PUSH2 0x3D86 JUMP JUMPDEST SWAP2 POP DUP2 SWAP1 POP SWAP4 SWAP3 POP POP POP JUMP JUMPDEST PUSH32 0x4E6F7420696E697469616C697A65640000000000000000000000000000000000 PUSH1 0x0 DUP3 ADD MSTORE POP JUMP JUMPDEST PUSH1 0x0 PUSH2 0x3E11 PUSH1 0xF DUP4 PUSH2 0x3142 JUMP JUMPDEST SWAP2 POP PUSH2 0x3E1C DUP3 PUSH2 0x3DDB JUMP JUMPDEST PUSH1 0x20 DUP3 ADD SWAP1 POP SWAP2 SWAP1 POP JUMP JUMPDEST PUSH1 0x0 PUSH1 0x20 DUP3 ADD SWAP1 POP DUP2 DUP2 SUB PUSH1 0x0 DUP4 ADD MSTORE PUSH2 0x3E40 DUP2 PUSH2 0x3E04 JUMP JUMPDEST SWAP1 POP SWAP2 SWAP1 POP JUMP JUMPDEST PUSH32 0x4E487B7100000000000000000000000000000000000000000000000000000000 PUSH1 0x0 MSTORE PUSH1 0x11 PUSH1 0x4 MSTORE PUSH1 0x24 PUSH1 0x0 REVERT JUMPDEST PUSH1 0x0 PUSH2 0x3E81 DUP3 PUSH2 0x2F58 JUMP JUMPDEST SWAP2 POP PUSH2 0x3E8C DUP4 PUSH2 0x2F58 JUMP JUMPDEST SWAP3 POP DUP3 DUP3 MUL PUSH2 0x3E9A DUP2 PUSH2 0x2F58 JUMP JUMPDEST SWAP2 POP DUP3 DUP3 DIV DUP5 EQ DUP4 ISZERO OR PUSH2 0x3EB1 JUMPI PUSH2 0x3EB0 PUSH2 0x3E47 JUMP JUMPDEST JUMPDEST POP SWAP3 SWAP2 POP POP JUMP JUMPDEST PUSH32 0x4E487B7100000000000000000000000000000000000000000000000000000000 PUSH1 0x0 MSTORE PUSH1 0x12 PUSH1 0x4 MSTORE PUSH1 0x24 PUSH1 0x0 REVERT JUMPDEST PUSH1 0x0 PUSH2 0x3EF2 DUP3 PUSH2 0x2F58 JUMP JUMPDEST SWAP2 POP PUSH2 0x3EFD DUP4 PUSH2 0x2F58 JUMP JUMPDEST SWAP3 POP DUP3 PUSH2 0x3F0D JUMPI PUSH2 0x3F0C PUSH2 0x3EB8 JUMP JUMPDEST JUMPDEST DUP3 DUP3 DIV SWAP1 POP SWAP3 SWAP2 POP POP JUMP JUMPDEST PUSH32 0x4E465420616C7265616479206578697374730000000000000000000000000000 PUSH1 0x0 DUP3 ADD MSTORE POP JUMP JUMPDEST PUSH1 0x0 PUSH2 0x3F4E PUSH1 0x12 DUP4 PUSH2 0x3142 JUMP JUMPDEST SWAP2 POP PUSH2 0x3F59 DUP3 PUSH2 0x3F18 JUMP JUMPDEST PUSH1 0x20 DUP3 ADD SWAP1 POP SWAP2 SWAP1 POP JUMP JUMPDEST PUSH1 0x0 PUSH1 0x20 DUP3 ADD SWAP1 POP DUP2 DUP2 SUB PUSH1 0x0 DUP4 ADD MSTORE PUSH2 0x3F7D DUP2 PUSH2 0x3F41 JUMP JUMPDEST SWAP1 POP SWAP2 SWAP1 POP JUMP JUMPDEST PUSH32 0x455243313135353A206163636F756E747320616E6420696473206C656E677468 PUSH1 0x0 DUP3 ADD MSTORE PUSH32 0x206D69736D617463680000000000000000000000000000000000000000000000 PUSH1 0x20 DUP3 ADD MSTORE POP JUMP JUMPDEST PUSH1 0x0 PUSH2 0x3FE0 PUSH1 0x29 DUP4 PUSH2 0x3142 JUMP JUMPDEST SWAP2 POP PUSH2 0x3FEB DUP3 PUSH2 0x3F84 JUMP JUMPDEST PUSH1 0x40 DUP3 ADD SWAP1 POP SWAP2 SWAP1 POP JUMP JUMPDEST PUSH1 0x0 PUSH1 0x20 DUP3 ADD SWAP1 POP DUP2 DUP2 SUB PUSH1 0x0 DUP4 ADD MSTORE PUSH2 0x400F DUP2 PUSH2 0x3FD3 JUMP JUMPDEST SWAP1 POP SWAP2 SWAP1 POP JUMP JUMPDEST PUSH32 0x4E487B7100000000000000000000000000000000000000000000000000000000 PUSH1 0x0 MSTORE PUSH1 0x32 PUSH1 0x4 MSTORE PUSH1 0x24 PUSH1 0x0 REVERT JUMPDEST PUSH1 0x0 PUSH2 0x4050 DUP3 PUSH2 0x2F58 JUMP JUMPDEST SWAP2 POP PUSH32 0xFFFFFFFFFFFFFFFFFFFFFFFFFFFFFFFFFFFFFFFFFFFFFFFFFFFFFFFFFFFFFFFF DUP3 SUB PUSH2 0x4082 JUMPI PUSH2 0x4081 PUSH2 0x3E47 JUMP JUMPDEST JUMPDEST PUSH1 0x1 DUP3 ADD SWAP1 POP SWAP2 SWAP1 POP JUMP JUMPDEST PUSH32 0x43616E6E6F7420617070726F76652C207472616E7366657272696E67206E6F74 PUSH1 0x0 DUP3 ADD MSTORE PUSH32 0x20616C6C6F776564000000000000000000000000000000000000000000000000 PUSH1 0x20 DUP3 ADD MSTORE POP JUMP JUMPDEST PUSH1 0x0 PUSH2 0x40E9 PUSH1 0x28 DUP4 PUSH2 0x3142 JUMP JUMPDEST SWAP2 POP PUSH2 0x40F4 DUP3 PUSH2 0x408D JUMP JUMPDEST PUSH1 0x40 DUP3 ADD SWAP1 POP SWAP2 SWAP1 POP JUMP JUMPDEST PUSH1 0x0 PUSH1 0x20 DUP3 ADD SWAP1 POP DUP2 DUP2 SUB PUSH1 0x0 DUP4 ADD MSTORE PUSH2 0x4118 DUP2 PUSH2 0x40DC JUMP JUMPDEST SWAP1 POP SWAP2 SWAP1 POP JUMP JUMPDEST PUSH32 0x4F776E61626C653A206E6577206F776E657220697320746865207A65726F2061 PUSH1 0x0 DUP3 ADD MSTORE PUSH32 0x6464726573730000000000000000000000000000000000000000000000000000 PUSH1 0x20 DUP3 ADD MSTORE POP JUMP JUMPDEST PUSH1 0x0 PUSH2 0x417B PUSH1 0x26 DUP4 PUSH2 0x3142 JUMP JUMPDEST SWAP2 POP PUSH2 0x4186 DUP3 PUSH2 0x411F JUMP JUMPDEST PUSH1 0x40 DUP3 ADD SWAP1 POP SWAP2 SWAP1 POP JUMP JUMPDEST PUSH1 0x0 PUSH1 0x20 DUP3 ADD SWAP1 POP DUP2 DUP2 SUB PUSH1 0x0 DUP4 ADD MSTORE PUSH2 0x41AA DUP2 PUSH2 0x416E JUMP JUMPDEST SWAP1 POP SWAP2 SWAP1 POP JUMP JUMPDEST PUSH1 0x0 PUSH2 0x41BC DUP3 PUSH2 0x2F58 JUMP JUMPDEST SWAP2 POP PUSH2 0x41C7 DUP4 PUSH2 0x2F58 JUMP JUMPDEST SWAP3 POP DUP3 DUP3 ADD SWAP1 POP DUP1 DUP3 GT ISZERO PUSH2 0x41DF JUMPI PUSH2 0x41DE PUSH2 0x3E47 JUMP JUMPDEST JUMPDEST SWAP3 SWAP2 POP POP JUMP JUMPDEST PUSH1 0x0 PUSH2 0x41F0 DUP3 PUSH2 0x2F58 JUMP JUMPDEST SWAP2 POP PUSH1 0x0 DUP3 SUB PUSH2 0x4203 JUMPI PUSH2 0x4202 PUSH2 0x3E47 JUMP JUMPDEST JUMPDEST PUSH1 0x1 DUP3 SUB SWAP1 POP SWAP2 SWAP1 POP JUMP JUMPDEST PUSH32 0x537472696E67733A20686578206C656E67746820696E73756666696369656E74 PUSH1 0x0 DUP3 ADD MSTORE POP JUMP JUMPDEST PUSH1 0x0 PUSH2 0x4244 PUSH1 0x20 DUP4 PUSH2 0x3142 JUMP JUMPDEST SWAP2 POP PUSH2 0x424F DUP3 PUSH2 0x420E JUMP JUMPDEST PUSH1 0x20 DUP3 ADD SWAP1 POP SWAP2 SWAP1 POP JUMP JUMPDEST PUSH1 0x0 PUSH1 0x20 DUP3 ADD SWAP1 POP DUP2 DUP2 SUB PUSH1 0x0 DUP4 ADD MSTORE PUSH2 0x4273 DUP2 PUSH2 0x4237 JUMP JUMPDEST SWAP1 POP SWAP2 SWAP1 POP JUMP JUMPDEST PUSH32 0x4F776E61626C653A2063616C6C6572206973206E6F7420746865206F776E6572 PUSH1 0x0 DUP3 ADD MSTORE POP JUMP JUMPDEST PUSH1 0x0 PUSH2 0x42B0 PUSH1 0x20 DUP4 PUSH2 0x3142 JUMP JUMPDEST SWAP2 POP PUSH2 0x42BB DUP3 PUSH2 0x427A JUMP JUMPDEST PUSH1 0x20 DUP3 ADD SWAP1 POP SWAP2 SWAP1 POP JUMP JUMPDEST PUSH1 0x0 PUSH1 0x20 DUP3 ADD SWAP1 POP DUP2 DUP2 SUB PUSH1 0x0 DUP4 ADD MSTORE PUSH2 0x42DF DUP2 PUSH2 0x42A3 JUMP JUMPDEST SWAP1 POP SWAP2 SWAP1 POP JUMP JUMPDEST PUSH32 0x455243323938313A20726F79616C7479206665652077696C6C20657863656564 PUSH1 0x0 DUP3 ADD MSTORE PUSH32 0x2073616C65507269636500000000000000000000000000000000000000000000 PUSH1 0x20 DUP3 ADD MSTORE POP JUMP JUMPDEST PUSH1 0x0 PUSH2 0x4342 PUSH1 0x2A DUP4 PUSH2 0x3142 JUMP JUMPDEST SWAP2 POP PUSH2 0x434D DUP3 PUSH2 0x42E6 JUMP JUMPDEST PUSH1 0x40 DUP3 ADD SWAP1 POP SWAP2 SWAP1 POP JUMP JUMPDEST PUSH1 0x0 PUSH1 0x20 DUP3 ADD SWAP1 POP DUP2 DUP2 SUB PUSH1 0x0 DUP4 ADD MSTORE PUSH2 0x4371 DUP2 PUSH2 0x4335 JUMP JUMPDEST SWAP1 POP SWAP2 SWAP1 POP JUMP JUMPDEST PUSH32 0x455243323938313A20696E76616C696420726563656976657200000000000000 PUSH1 0x0 DUP3 ADD MSTORE POP JUMP JUMPDEST PUSH1 0x0 PUSH2 0x43AE PUSH1 0x19 DUP4 PUSH2 0x3142 JUMP JUMPDEST SWAP2 POP PUSH2 0x43B9 DUP3 PUSH2 0x4378 JUMP JUMPDEST PUSH1 0x20 DUP3 ADD SWAP1 POP SWAP2 SWAP1 POP JUMP JUMPDEST PUSH1 0x0 PUSH1 0x20 DUP3 ADD SWAP1 POP DUP2 DUP2 SUB PUSH1 0x0 DUP4 ADD MSTORE PUSH2 0x43DD DUP2 PUSH2 0x43A1 JUMP JUMPDEST SWAP1 POP SWAP2 SWAP1 POP JUMP JUMPDEST PUSH32 0x6163636F756E7420000000000000000000000000000000000000000000000000 PUSH1 0x0 DUP3 ADD MSTORE POP JUMP JUMPDEST PUSH1 0x0 PUSH2 0x441A PUSH1 0x8 DUP4 PUSH2 0x3CE3 JUMP JUMPDEST SWAP2 POP PUSH2 0x4425 DUP3 PUSH2 0x43E4 JUMP JUMPDEST PUSH1 0x8 DUP3 ADD SWAP1 POP SWAP2 SWAP1 POP JUMP JUMPDEST PUSH32 0x206973206E6F7420616E206F70657261746F7200000000000000000000000000 PUSH1 0x0 DUP3 ADD MSTORE POP JUMP JUMPDEST PUSH1 0x0 PUSH2 0x4466 PUSH1 0x13 DUP4 PUSH2 0x3CE3 JUMP JUMPDEST SWAP2 POP PUSH2 0x4471 DUP3 PUSH2 0x4430 JUMP JUMPDEST PUSH1 0x13 DUP3 ADD SWAP1 POP SWAP2 SWAP1 POP JUMP JUMPDEST PUSH1 0x0 PUSH2 0x4487 DUP3 PUSH2 0x440D JUMP JUMPDEST SWAP2 POP PUSH2 0x4493 DUP3 DUP5 PUSH2 0x3D86 JUMP JUMPDEST SWAP2 POP PUSH2 0x449E DUP3 PUSH2 0x4459 JUMP JUMPDEST SWAP2 POP DUP2 SWAP1 POP SWAP3 SWAP2 POP POP JUMP JUMPDEST PUSH32 0x455243313135353A206D696E7420746F20746865207A65726F20616464726573 PUSH1 0x0 DUP3 ADD MSTORE PUSH32 0x7300000000000000000000000000000000000000000000000000000000000000 PUSH1 0x20 DUP3 ADD MSTORE POP JUMP JUMPDEST PUSH1 0x0 PUSH2 0x4505 PUSH1 0x21 DUP4 PUSH2 0x3142 JUMP JUMPDEST SWAP2 POP PUSH2 0x4510 DUP3 PUSH2 0x44A9 JUMP JUMPDEST PUSH1 0x40 DUP3 ADD SWAP1 POP SWAP2 SWAP1 POP JUMP JUMPDEST PUSH1 0x0 PUSH1 0x20 DUP3 ADD SWAP1 POP DUP2 DUP2 SUB PUSH1 0x0 DUP4 ADD MSTORE PUSH2 0x4534 DUP2 PUSH2 0x44F8 JUMP JUMPDEST SWAP1 POP SWAP2 SWAP1 POP JUMP JUMPDEST PUSH1 0x0 PUSH1 0x40 DUP3 ADD SWAP1 POP PUSH2 0x4550 PUSH1 0x0 DUP4 ADD DUP6 PUSH2 0x2FCE JUMP JUMPDEST PUSH2 0x455D PUSH1 0x20 DUP4 ADD DUP5 PUSH2 0x2FCE JUMP JUMPDEST SWAP4 SWAP3 POP POP POP JUMP JUMPDEST PUSH1 0x0 PUSH1 0x20 PUSH1 0x1F DUP4 ADD DIV SWAP1 POP SWAP2 SWAP1 POP JUMP JUMPDEST PUSH1 0x0 DUP3 DUP3 SHL SWAP1 POP SWAP3 SWAP2 POP POP JUMP JUMPDEST PUSH1 0x0 PUSH1 0x8 DUP4 MUL PUSH2 0x45B1 PUSH32 0xFFFFFFFFFFFFFFFFFFFFFFFFFFFFFFFFFFFFFFFFFFFFFFFFFFFFFFFFFFFFFFFF DUP3 PUSH2 0x4574 JUMP JUMPDEST PUSH2 0x45BB DUP7 DUP4 PUSH2 0x4574 JUMP JUMPDEST SWAP6 POP DUP1 NOT DUP5 AND SWAP4 POP DUP1 DUP7 AND DUP5 OR SWAP3 POP POP POP SWAP4 SWAP3 POP POP POP JUMP JUMPDEST PUSH1 0x0 PUSH2 0x45EE PUSH2 0x45E9 PUSH2 0x45E4 DUP5 PUSH2 0x2F58 JUMP JUMPDEST PUSH2 0x36D7 JUMP JUMPDEST PUSH2 0x2F58 JUMP JUMPDEST SWAP1 POP SWAP2 SWAP1 POP JUMP JUMPDEST PUSH1 0x0 DUP2 SWAP1 POP SWAP2 SWAP1 POP JUMP JUMPDEST PUSH2 0x4608 DUP4 PUSH2 0x45D3 JUMP JUMPDEST PUSH2 0x461C PUSH2 0x4614 DUP3 PUSH2 0x45F5 JUMP JUMPDEST DUP5 DUP5 SLOAD PUSH2 0x4581 JUMP JUMPDEST DUP3 SSTORE POP POP POP POP JUMP JUMPDEST PUSH1 0x0 SWAP1 JUMP JUMPDEST PUSH2 0x4631 PUSH2 0x4624 JUMP JUMPDEST PUSH2 0x463C DUP2 DUP5 DUP5 PUSH2 0x45FF JUMP JUMPDEST POP POP POP JUMP JUMPDEST JUMPDEST DUP2 DUP2 LT ISZERO PUSH2 0x4660 JUMPI PUSH2 0x4655 PUSH1 0x0 DUP3 PUSH2 0x4629 JUMP JUMPDEST PUSH1 0x1 DUP2 ADD SWAP1 POP PUSH2 0x4642 JUMP JUMPDEST POP POP JUMP JUMPDEST PUSH1 0x1F DUP3 GT ISZERO PUSH2 0x46A5 JUMPI PUSH2 0x4676 DUP2 PUSH2 0x3CEE JUMP JUMPDEST PUSH2 0x467F DUP5 PUSH2 0x4564 JUMP JUMPDEST DUP2 ADD PUSH1 0x20 DUP6 LT ISZERO PUSH2 0x468E JUMPI DUP2 SWAP1 POP JUMPDEST PUSH2 0x46A2 PUSH2 0x469A DUP6 PUSH2 0x4564 JUMP JUMPDEST DUP4 ADD DUP3 PUSH2 0x4641 JUMP JUMPDEST POP POP JUMPDEST POP POP POP JUMP JUMPDEST PUSH1 0x0 DUP3 DUP3 SHR SWAP1 POP SWAP3 SWAP2 POP POP JUMP JUMPDEST PUSH1 0x0 PUSH2 0x46C8 PUSH1 0x0 NOT DUP5 PUSH1 0x8 MUL PUSH2 0x46AA JUMP JUMPDEST NOT DUP1 DUP4 AND SWAP2 POP POP SWAP3 SWAP2 POP POP JUMP JUMPDEST PUSH1 0x0 PUSH2 0x46E1 DUP4 DUP4 PUSH2 0x46B7 JUMP JUMPDEST SWAP2 POP DUP3 PUSH1 0x2 MUL DUP3 OR SWAP1 POP SWAP3 SWAP2 POP POP JUMP JUMPDEST PUSH2 0x46FA DUP3 PUSH2 0x3137 JUMP JUMPDEST PUSH8 0xFFFFFFFFFFFFFFFF DUP2 GT ISZERO PUSH2 0x4713 JUMPI PUSH2 0x4712 PUSH2 0x3273 JUMP JUMPDEST JUMPDEST PUSH2 0x471D DUP3 SLOAD PUSH2 0x3CB2 JUMP JUMPDEST PUSH2 0x4728 DUP3 DUP3 DUP6 PUSH2 0x4664 JUMP JUMPDEST PUSH1 0x0 PUSH1 0x20 SWAP1 POP PUSH1 0x1F DUP4 GT PUSH1 0x1 DUP2 EQ PUSH2 0x475B JUMPI PUSH1 0x0 DUP5 ISZERO PUSH2 0x4749 JUMPI DUP3 DUP8 ADD MLOAD SWAP1 POP JUMPDEST PUSH2 0x4753 DUP6 DUP3 PUSH2 0x46D5 JUMP JUMPDEST DUP7 SSTORE POP PUSH2 0x47BB JUMP JUMPDEST PUSH1 0x1F NOT DUP5 AND PUSH2 0x4769 DUP7 PUSH2 0x3CEE JUMP JUMPDEST PUSH1 0x0 JUMPDEST DUP3 DUP2 LT ISZERO PUSH2 0x4791 JUMPI DUP5 DUP10 ADD MLOAD DUP3 SSTORE PUSH1 0x1 DUP3 ADD SWAP2 POP PUSH1 0x20 DUP6 ADD SWAP5 POP PUSH1 0x20 DUP2 ADD SWAP1 POP PUSH2 0x476C JUMP JUMPDEST DUP7 DUP4 LT ISZERO PUSH2 0x47AE JUMPI DUP5 DUP10 ADD MLOAD PUSH2 0x47AA PUSH1 0x1F DUP10 AND DUP3 PUSH2 0x46B7 JUMP JUMPDEST DUP4 SSTORE POP JUMPDEST PUSH1 0x1 PUSH1 0x2 DUP9 MUL ADD DUP9 SSTORE POP POP POP JUMPDEST POP POP POP POP POP POP JUMP JUMPDEST PUSH32 0x20697320616C72656164792068617320616E206F70657261746F7220726F6C65 PUSH1 0x0 DUP3 ADD MSTORE POP JUMP JUMPDEST PUSH1 0x0 PUSH2 0x47F9 PUSH1 0x20 DUP4 PUSH2 0x3CE3 JUMP JUMPDEST SWAP2 POP PUSH2 0x4804 DUP3 PUSH2 0x47C3 JUMP JUMPDEST PUSH1 0x20 DUP3 ADD SWAP1 POP SWAP2 SWAP1 POP JUMP JUMPDEST PUSH1 0x0 PUSH2 0x481A DUP3 PUSH2 0x440D JUMP JUMPDEST SWAP2 POP PUSH2 0x4826 DUP3 DUP5 PUSH2 0x3D86 JUMP JUMPDEST SWAP2 POP PUSH2 0x4831 DUP3 PUSH2 0x47EC JUMP JUMPDEST SWAP2 POP DUP2 SWAP1 POP SWAP3 SWAP2 POP POP JUMP JUMPDEST PUSH1 0x0 PUSH1 0x40 DUP3 ADD SWAP1 POP PUSH2 0x4851 PUSH1 0x0 DUP4 ADD DUP6 PUSH2 0x3467 JUMP JUMPDEST PUSH2 0x485E PUSH1 0x20 DUP4 ADD DUP5 PUSH2 0x3467 JUMP JUMPDEST SWAP4 SWAP3 POP POP POP JUMP JUMPDEST PUSH1 0x0 DUP2 MLOAD SWAP1 POP PUSH2 0x4874 DUP2 PUSH2 0x3AAE JUMP JUMPDEST SWAP3 SWAP2 POP POP JUMP JUMPDEST PUSH1 0x0 PUSH1 0x20 DUP3 DUP5 SUB SLT ISZERO PUSH2 0x4890 JUMPI PUSH2 0x488F PUSH2 0x2EF0 JUMP JUMPDEST JUMPDEST PUSH1 0x0 PUSH2 0x489E DUP5 DUP3 DUP6 ADD PUSH2 0x4865 JUMP JUMPDEST SWAP2 POP POP SWAP3 SWAP2 POP POP JUMP JUMPDEST PUSH32 0x455243313135353A2063616C6C6572206973206E6F7420746F6B656E206F776E PUSH1 0x0 DUP3 ADD MSTORE PUSH32 0x6572206F7220617070726F766564000000000000000000000000000000000000 PUSH1 0x20 DUP3 ADD MSTORE POP JUMP JUMPDEST PUSH1 0x0 PUSH2 0x4903 PUSH1 0x2E DUP4 PUSH2 0x3142 JUMP JUMPDEST SWAP2 POP PUSH2 0x490E DUP3 PUSH2 0x48A7 JUMP JUMPDEST PUSH1 0x40 DUP3 ADD SWAP1 POP SWAP2 SWAP1 POP JUMP JUMPDEST PUSH1 0x0 PUSH1 0x20 DUP3 ADD SWAP1 POP DUP2 DUP2 SUB PUSH1 0x0 DUP4 ADD MSTORE PUSH2 0x4932 DUP2 PUSH2 0x48F6 JUMP JUMPDEST SWAP1 POP SWAP2 SWAP1 POP JUMP JUMPDEST PUSH32 0x455243323938313A20496E76616C696420706172616D65746572730000000000 PUSH1 0x0 DUP3 ADD MSTORE POP JUMP JUMPDEST PUSH1 0x0 PUSH2 0x496F PUSH1 0x1B DUP4 PUSH2 0x3142 JUMP JUMPDEST SWAP2 POP PUSH2 0x497A DUP3 PUSH2 0x4939 JUMP JUMPDEST PUSH1 0x20 DUP3 ADD SWAP1 POP SWAP2 SWAP1 POP JUMP JUMPDEST PUSH1 0x0 PUSH1 0x20 DUP3 ADD SWAP1 POP DUP2 DUP2 SUB PUSH1 0x0 DUP4 ADD MSTORE PUSH2 0x499E DUP2 PUSH2 0x4962 JUMP JUMPDEST SWAP1 POP SWAP2 SWAP1 POP JUMP JUMPDEST PUSH32 0x455243313135353A206275726E2066726F6D20746865207A65726F2061646472 PUSH1 0x0 DUP3 ADD MSTORE PUSH32 0x6573730000000000000000000000000000000000000000000000000000000000 PUSH1 0x20 DUP3 ADD MSTORE POP JUMP JUMPDEST PUSH1 0x0 PUSH2 0x4A01 PUSH1 0x23 DUP4 PUSH2 0x3142 JUMP JUMPDEST SWAP2 POP PUSH2 0x4A0C DUP3 PUSH2 0x49A5 JUMP JUMPDEST PUSH1 0x40 DUP3 ADD SWAP1 POP SWAP2 SWAP1 POP JUMP JUMPDEST PUSH1 0x0 PUSH1 0x20 DUP3 ADD SWAP1 POP DUP2 DUP2 SUB PUSH1 0x0 DUP4 ADD MSTORE PUSH2 0x4A30 DUP2 PUSH2 0x49F4 JUMP JUMPDEST SWAP1 POP SWAP2 SWAP1 POP JUMP JUMPDEST PUSH32 0x455243313135353A206275726E20616D6F756E7420657863656564732062616C PUSH1 0x0 DUP3 ADD MSTORE PUSH32 0x616E636500000000000000000000000000000000000000000000000000000000 PUSH1 0x20 DUP3 ADD MSTORE POP JUMP JUMPDEST PUSH1 0x0 PUSH2 0x4A93 PUSH1 0x24 DUP4 PUSH2 0x3142 JUMP JUMPDEST SWAP2 POP PUSH2 0x4A9E DUP3 PUSH2 0x4A37 JUMP JUMPDEST PUSH1 0x40 DUP3 ADD SWAP1 POP SWAP2 SWAP1 POP JUMP JUMPDEST PUSH1 0x0 PUSH1 0x20 DUP3 ADD SWAP1 POP DUP2 DUP2 SUB PUSH1 0x0 DUP4 ADD MSTORE PUSH2 0x4AC2 DUP2 PUSH2 0x4A86 JUMP JUMPDEST SWAP1 POP SWAP2 SWAP1 POP JUMP JUMPDEST PUSH32 0x455243313135353A2073657474696E6720617070726F76616C20737461747573 PUSH1 0x0 DUP3 ADD MSTORE PUSH32 0x20666F722073656C660000000000000000000000000000000000000000000000 PUSH1 0x20 DUP3 ADD MSTORE POP JUMP JUMPDEST PUSH1 0x0 PUSH2 0x4B25 PUSH1 0x29 DUP4 PUSH2 0x3142 JUMP JUMPDEST SWAP2 POP PUSH2 0x4B30 DUP3 PUSH2 0x4AC9 JUMP JUMPDEST PUSH1 0x40 DUP3 ADD SWAP1 POP SWAP2 SWAP1 POP JUMP JUMPDEST PUSH1 0x0 PUSH1 0x20 DUP3 ADD SWAP1 POP DUP2 DUP2 SUB PUSH1 0x0 DUP4 ADD MSTORE PUSH2 0x4B54 DUP2 PUSH2 0x4B18 JUMP JUMPDEST SWAP1 POP SWAP2 SWAP1 POP JUMP JUMPDEST PUSH1 0x0 DUP2 MLOAD SWAP1 POP SWAP2 SWAP1 POP JUMP JUMPDEST PUSH1 0x0 DUP3 DUP3 MSTORE PUSH1 0x20 DUP3 ADD SWAP1 POP SWAP3 SWAP2 POP POP JUMP JUMPDEST PUSH1 0x0 PUSH2 0x4B82 DUP3 PUSH2 0x4B5B JUMP JUMPDEST PUSH2 0x4B8C DUP2 DUP6 PUSH2 0x4B66 JUMP JUMPDEST SWAP4 POP PUSH2 0x4B9C DUP2 DUP6 PUSH1 0x20 DUP7 ADD PUSH2 0x3153 JUMP JUMPDEST PUSH2 0x4BA5 DUP2 PUSH2 0x317D JUMP JUMPDEST DUP5 ADD SWAP2 POP POP SWAP3 SWAP2 POP POP JUMP JUMPDEST PUSH1 0x0 PUSH1 0xA0 DUP3 ADD SWAP1 POP PUSH2 0x4BC5 PUSH1 0x0 DUP4 ADD DUP9 PUSH2 0x3467 JUMP JUMPDEST PUSH2 0x4BD2 PUSH1 0x20 DUP4 ADD DUP8 PUSH2 0x3467 JUMP JUMPDEST PUSH2 0x4BDF PUSH1 0x40 DUP4 ADD DUP7 PUSH2 0x2FCE JUMP JUMPDEST PUSH2 0x4BEC PUSH1 0x60 DUP4 ADD DUP6 PUSH2 0x2FCE JUMP JUMPDEST DUP2 DUP2 SUB PUSH1 0x80 DUP4 ADD MSTORE PUSH2 0x4BFE DUP2 DUP5 PUSH2 0x4B77 JUMP JUMPDEST SWAP1 POP SWAP7 SWAP6 POP POP POP POP POP POP JUMP JUMPDEST PUSH1 0x0 DUP2 MLOAD SWAP1 POP PUSH2 0x4C19 DUP2 PUSH2 0x3024 JUMP JUMPDEST SWAP3 SWAP2 POP POP JUMP JUMPDEST PUSH1 0x0 PUSH1 0x20 DUP3 DUP5 SUB SLT ISZERO PUSH2 0x4C35 JUMPI PUSH2 0x4C34 PUSH2 0x2EF0 JUMP JUMPDEST JUMPDEST PUSH1 0x0 PUSH2 0x4C43 DUP5 DUP3 DUP6 ADD PUSH2 0x4C0A JUMP JUMPDEST SWAP2 POP POP SWAP3 SWAP2 POP POP JUMP JUMPDEST PUSH1 0x0 DUP2 PUSH1 0xE0 SHR SWAP1 POP SWAP2 SWAP1 POP JUMP JUMPDEST PUSH1 0x0 PUSH1 0x3 RETURNDATASIZE GT ISZERO PUSH2 0x4C78 JUMPI PUSH1 0x4 PUSH1 0x0 DUP1 RETURNDATACOPY PUSH2 0x4C75 PUSH1 0x0 MLOAD PUSH2 0x4C4C JUMP JUMPDEST SWAP1 POP JUMPDEST SWAP1 JUMP JUMPDEST PUSH1 0x0 PUSH1 0x44 RETURNDATASIZE LT PUSH2 0x4D08 JUMPI PUSH2 0x4C8D PUSH2 0x2EE6 JUMP JUMPDEST PUSH1 0x4 RETURNDATASIZE SUB PUSH1 0x4 DUP3 RETURNDATACOPY DUP1 MLOAD RETURNDATASIZE PUSH1 0x24 DUP3 ADD GT PUSH8 0xFFFFFFFFFFFFFFFF DUP3 GT OR ISZERO PUSH2 0x4CB5 JUMPI POP POP PUSH2 0x4D08 JUMP JUMPDEST DUP1 DUP3 ADD DUP1 MLOAD PUSH8 0xFFFFFFFFFFFFFFFF DUP2 GT ISZERO PUSH2 0x4CD3 JUMPI POP POP POP POP PUSH2 0x4D08 JUMP JUMPDEST DUP1 PUSH1 0x20 DUP4 ADD ADD PUSH1 0x4 RETURNDATASIZE SUB DUP6 ADD DUP2 GT ISZERO PUSH2 0x4CF0 JUMPI POP POP POP POP POP PUSH2 0x4D08 JUMP JUMPDEST PUSH2 0x4CFF DUP3 PUSH1 0x20 ADD DUP6 ADD DUP7 PUSH2 0x32A2 JUMP JUMPDEST DUP3 SWAP6 POP POP POP POP POP POP JUMPDEST SWAP1 JUMP JUMPDEST PUSH32 0x455243313135353A207472616E7366657220746F206E6F6E2D45524331313535 PUSH1 0x0 DUP3 ADD MSTORE PUSH32 0x526563656976657220696D706C656D656E746572000000000000000000000000 PUSH1 0x20 DUP3 ADD MSTORE POP JUMP JUMPDEST PUSH1 0x0 PUSH2 0x4D67 PUSH1 0x34 DUP4 PUSH2 0x3142 JUMP JUMPDEST SWAP2 POP PUSH2 0x4D72 DUP3 PUSH2 0x4D0B JUMP JUMPDEST PUSH1 0x40 DUP3 ADD SWAP1 POP SWAP2 SWAP1 POP JUMP JUMPDEST PUSH1 0x0 PUSH1 0x20 DUP3 ADD SWAP1 POP DUP2 DUP2 SUB PUSH1 0x0 DUP4 ADD MSTORE PUSH2 0x4D96 DUP2 PUSH2 0x4D5A JUMP JUMPDEST SWAP1 POP SWAP2 SWAP1 POP JUMP JUMPDEST PUSH32 0x455243313135353A204552433131353552656365697665722072656A65637465 PUSH1 0x0 DUP3 ADD MSTORE PUSH32 0x6420746F6B656E73000000000000000000000000000000000000000000000000 PUSH1 0x20 DUP3 ADD MSTORE POP JUMP JUMPDEST PUSH1 0x0 PUSH2 0x4DF9 PUSH1 0x28 DUP4 PUSH2 0x3142 JUMP JUMPDEST SWAP2 POP PUSH2 0x4E04 DUP3 PUSH2 0x4D9D JUMP JUMPDEST PUSH1 0x40 DUP3 ADD SWAP1 POP SWAP2 SWAP1 POP JUMP JUMPDEST PUSH1 0x0 PUSH1 0x20 DUP3 ADD SWAP1 POP DUP2 DUP2 SUB PUSH1 0x0 DUP4 ADD MSTORE PUSH2 0x4E28 DUP2 PUSH2 0x4DEC JUMP JUMPDEST SWAP1 POP SWAP2 SWAP1 POP JUMP JUMPDEST PUSH32 0x455243313135353A2069647320616E6420616D6F756E7473206C656E67746820 PUSH1 0x0 DUP3 ADD MSTORE PUSH32 0x6D69736D61746368000000000000000000000000000000000000000000000000 PUSH1 0x20 DUP3 ADD MSTORE POP JUMP JUMPDEST PUSH1 0x0 PUSH2 0x4E8B PUSH1 0x28 DUP4 PUSH2 0x3142 JUMP JUMPDEST SWAP2 POP PUSH2 0x4E96 DUP3 PUSH2 0x4E2F JUMP JUMPDEST PUSH1 0x40 DUP3 ADD SWAP1 POP SWAP2 SWAP1 POP JUMP JUMPDEST PUSH1 0x0 PUSH1 0x20 DUP3 ADD SWAP1 POP DUP2 DUP2 SUB PUSH1 0x0 DUP4 ADD MSTORE PUSH2 0x4EBA DUP2 PUSH2 0x4E7E JUMP JUMPDEST SWAP1 POP SWAP2 SWAP1 POP JUMP JUMPDEST PUSH32 0x455243313135353A207472616E7366657220746F20746865207A65726F206164 PUSH1 0x0 DUP3 ADD MSTORE PUSH32 0x6472657373000000000000000000000000000000000000000000000000000000 PUSH1 0x20 DUP3 ADD MSTORE POP JUMP JUMPDEST PUSH1 0x0 PUSH2 0x4F1D PUSH1 0x25 DUP4 PUSH2 0x3142 JUMP JUMPDEST SWAP2 POP PUSH2 0x4F28 DUP3 PUSH2 0x4EC1 JUMP JUMPDEST PUSH1 0x40 DUP3 ADD SWAP1 POP SWAP2 SWAP1 POP JUMP JUMPDEST PUSH1 0x0 PUSH1 0x20 DUP3 ADD SWAP1 POP DUP2 DUP2 SUB PUSH1 0x0 DUP4 ADD MSTORE PUSH2 0x4F4C DUP2 PUSH2 0x4F10 JUMP JUMPDEST SWAP1 POP SWAP2 SWAP1 POP JUMP JUMPDEST PUSH32 0x455243313135353A20696E73756666696369656E742062616C616E636520666F PUSH1 0x0 DUP3 ADD MSTORE PUSH32 0x72207472616E7366657200000000000000000000000000000000000000000000 PUSH1 0x20 DUP3 ADD MSTORE POP JUMP JUMPDEST PUSH1 0x0 PUSH2 0x4FAF PUSH1 0x2A DUP4 PUSH2 0x3142 JUMP JUMPDEST SWAP2 POP PUSH2 0x4FBA DUP3 PUSH2 0x4F53 JUMP JUMPDEST PUSH1 0x40 DUP3 ADD SWAP1 POP SWAP2 SWAP1 POP JUMP JUMPDEST PUSH1 0x0 PUSH1 0x20 DUP3 ADD SWAP1 POP DUP2 DUP2 SUB PUSH1 0x0 DUP4 ADD MSTORE PUSH2 0x4FDE DUP2 PUSH2 0x4FA2 JUMP JUMPDEST SWAP1 POP SWAP2 SWAP1 POP JUMP JUMPDEST PUSH1 0x0 PUSH1 0x40 DUP3 ADD SWAP1 POP DUP2 DUP2 SUB PUSH1 0x0 DUP4 ADD MSTORE PUSH2 0x4FFF DUP2 DUP6 PUSH2 0x38EC JUMP JUMPDEST SWAP1 POP DUP2 DUP2 SUB PUSH1 0x20 DUP4 ADD MSTORE PUSH2 0x5013 DUP2 DUP5 PUSH2 0x38EC JUMP JUMPDEST SWAP1 POP SWAP4 SWAP3 POP POP POP JUMP JUMPDEST PUSH1 0x0 PUSH1 0xA0 DUP3 ADD SWAP1 POP PUSH2 0x5031 PUSH1 0x0 DUP4 ADD DUP9 PUSH2 0x3467 JUMP JUMPDEST PUSH2 0x503E PUSH1 0x20 DUP4 ADD DUP8 PUSH2 0x3467 JUMP JUMPDEST DUP2 DUP2 SUB PUSH1 0x40 DUP4 ADD MSTORE PUSH2 0x5050 DUP2 DUP7 PUSH2 0x38EC JUMP JUMPDEST SWAP1 POP DUP2 DUP2 SUB PUSH1 0x60 DUP4 ADD MSTORE PUSH2 0x5064 DUP2 DUP6 PUSH2 0x38EC JUMP JUMPDEST SWAP1 POP DUP2 DUP2 SUB PUSH1 0x80 DUP4 ADD MSTORE PUSH2 0x5078 DUP2 DUP5 PUSH2 0x4B77 JUMP JUMPDEST SWAP1 POP SWAP7 SWAP6 POP POP POP POP POP POP JUMP INVALID LOG2 PUSH5 0x6970667358 0x22 SLT KECCAK256 0xF9 DUP15 LOG1 DIV 0xC6 SWAP12 SUB PUSH22 0xBCF167EE4C13C201604C458012C0F44F000E1818A45B PUSH22 0xB464736F6C63430008110033697066733A2F2F516D58 PUSH16 0x6D4A6E69364B6665365979706857346A ORIGIN MSIZE PUSH17 0x794C4A395357526232716F757A7A56524E 0x4D CALLDATACOPY SLOAD PUSH21 0x4E332F000000000000000000000000000000000000 "
		},
		"gasEstimates": {
			"creation": {
				"codeDepositCost": "4133200",
				"executionCost": "infinite",
				"totalCost": "infinite"
			},
			"external": {
				"OPERATOR_FILTER_REGISTRY()": "infinite",
				"balanceOf(address,uint256)": "infinite",
				"balanceOfBatch(address[],uint256[])": "infinite",
				"batchMintTo(address[],uint256,uint256[])": "infinite",
				"burnAdmin(address,uint256,uint256)": "infinite",
				"deleteDefaultRoyalty()": "33977",
				"grantOperatorRole(address)": "infinite",
				"initializeNFT(uint256,string)": "infinite",
				"isApprovedForAll(address,address)": "infinite",
				"isOperator(address)": "2951",
				"mint(address,uint256,uint256)": "infinite",
				"name()": "infinite",
				"owner()": "2611",
				"renounceOwnership()": "30488",
				"resetTokenRoyalty(uint256)": "34300",
				"revokeOperatorRole(address)": "infinite",
				"royaltyInfo(uint256,uint256)": "infinite",
				"safeBatchTransferFrom(address,address,uint256[],uint256[],bytes)": "infinite",
				"safeTransferFrom(address,address,uint256,uint256,bytes)": "infinite",
				"setApprovalForAll(address,bool)": "infinite",
				"setBaseURI(string)": "infinite",
				"setDefaultRoyalty(address,uint96)": "51826",
				"setTokenRoyalty(uint256,address,uint96)": "52034",
				"setTokenURI(uint256,string)": "infinite",
				"supportsInterface(bytes4)": "974",
				"symbol()": "infinite",
				"transferOwnership(address)": "30854",
				"uri(uint256)": "infinite"
			}
		},
		"methodIdentifiers": {
			"OPERATOR_FILTER_REGISTRY()": "41f43434",
			"balanceOf(address,uint256)": "00fdd58e",
			"balanceOfBatch(address[],uint256[])": "4e1273f4",
			"batchMintTo(address[],uint256,uint256[])": "872a2803",
			"burnAdmin(address,uint256,uint256)": "9324b42a",
			"deleteDefaultRoyalty()": "aa1b103f",
			"grantOperatorRole(address)": "27ac0c58",
			"initializeNFT(uint256,string)": "2cda9103",
			"isApprovedForAll(address,address)": "e985e9c5",
			"isOperator(address)": "6d70f7ae",
			"mint(address,uint256,uint256)": "156e29f6",
			"name()": "06fdde03",
			"owner()": "8da5cb5b",
			"renounceOwnership()": "715018a6",
			"resetTokenRoyalty(uint256)": "8a616bc0",
			"revokeOperatorRole(address)": "b219f7d7",
			"royaltyInfo(uint256,uint256)": "2a55205a",
			"safeBatchTransferFrom(address,address,uint256[],uint256[],bytes)": "2eb2c2d6",
			"safeTransferFrom(address,address,uint256,uint256,bytes)": "f242432a",
			"setApprovalForAll(address,bool)": "a22cb465",
			"setBaseURI(string)": "55f804b3",
			"setDefaultRoyalty(address,uint96)": "04634d8d",
			"setTokenRoyalty(uint256,address,uint96)": "5944c753",
			"setTokenURI(uint256,string)": "162094c4",
			"supportsInterface(bytes4)": "01ffc9a7",
			"symbol()": "95d89b41",
			"transferOwnership(address)": "f2fde38b",
			"uri(uint256)": "0e89341c"
		}
	},
	"abi": [
		{
			"inputs": [],
			"stateMutability": "nonpayable",
			"type": "constructor"
		},
		{
			"inputs": [
				{
					"internalType": "address",
					"name": "operator",
					"type": "address"
				}
			],
			"name": "OperatorNotAllowed",
			"type": "error"
		},
		{
			"anonymous": false,
			"inputs": [
				{
					"indexed": true,
					"internalType": "address",
					"name": "account",
					"type": "address"
				},
				{
					"indexed": true,
					"internalType": "address",
					"name": "operator",
					"type": "address"
				},
				{
					"indexed": false,
					"internalType": "bool",
					"name": "approved",
					"type": "bool"
				}
			],
			"name": "ApprovalForAll",
			"type": "event"
		},
		{
			"anonymous": false,
			"inputs": [
				{
					"indexed": true,
					"internalType": "address",
					"name": "previousOwner",
					"type": "address"
				},
				{
					"indexed": true,
					"internalType": "address",
					"name": "newOwner",
					"type": "address"
				}
			],
			"name": "OwnershipTransferred",
			"type": "event"
		},
		{
			"anonymous": false,
			"inputs": [
				{
					"indexed": true,
					"internalType": "address",
					"name": "operator",
					"type": "address"
				},
				{
					"indexed": true,
					"internalType": "address",
					"name": "from",
					"type": "address"
				},
				{
					"indexed": true,
					"internalType": "address",
					"name": "to",
					"type": "address"
				},
				{
					"indexed": false,
					"internalType": "uint256[]",
					"name": "ids",
					"type": "uint256[]"
				},
				{
					"indexed": false,
					"internalType": "uint256[]",
					"name": "values",
					"type": "uint256[]"
				}
			],
			"name": "TransferBatch",
			"type": "event"
		},
		{
			"anonymous": false,
			"inputs": [
				{
					"indexed": true,
					"internalType": "address",
					"name": "operator",
					"type": "address"
				},
				{
					"indexed": true,
					"internalType": "address",
					"name": "from",
					"type": "address"
				},
				{
					"indexed": true,
					"internalType": "address",
					"name": "to",
					"type": "address"
				},
				{
					"indexed": false,
					"internalType": "uint256",
					"name": "id",
					"type": "uint256"
				},
				{
					"indexed": false,
					"internalType": "uint256",
					"name": "value",
					"type": "uint256"
				}
			],
			"name": "TransferSingle",
			"type": "event"
		},
		{
			"anonymous": false,
			"inputs": [
				{
					"indexed": false,
					"internalType": "string",
					"name": "value",
					"type": "string"
				},
				{
					"indexed": true,
					"internalType": "uint256",
					"name": "id",
					"type": "uint256"
				}
			],
			"name": "URI",
			"type": "event"
		},
		{
			"inputs": [],
			"name": "OPERATOR_FILTER_REGISTRY",
			"outputs": [
				{
					"internalType": "contract IOperatorFilterRegistry",
					"name": "",
					"type": "address"
				}
			],
			"stateMutability": "view",
			"type": "function"
		},
		{
			"inputs": [
				{
					"internalType": "address",
					"name": "account",
					"type": "address"
				},
				{
					"internalType": "uint256",
					"name": "id",
					"type": "uint256"
				}
			],
			"name": "balanceOf",
			"outputs": [
				{
					"internalType": "uint256",
					"name": "",
					"type": "uint256"
				}
			],
			"stateMutability": "view",
			"type": "function"
		},
		{
			"inputs": [
				{
					"internalType": "address[]",
					"name": "accounts",
					"type": "address[]"
				},
				{
					"internalType": "uint256[]",
					"name": "ids",
					"type": "uint256[]"
				}
			],
			"name": "balanceOfBatch",
			"outputs": [
				{
					"internalType": "uint256[]",
					"name": "",
					"type": "uint256[]"
				}
			],
			"stateMutability": "view",
			"type": "function"
		},
		{
			"inputs": [
				{
					"internalType": "address[]",
					"name": "list",
					"type": "address[]"
				},
				{
					"internalType": "uint256",
					"name": "id",
					"type": "uint256"
				},
				{
					"internalType": "uint256[]",
					"name": "amount",
					"type": "uint256[]"
				}
			],
			"name": "batchMintTo",
			"outputs": [],
			"stateMutability": "nonpayable",
			"type": "function"
		},
		{
			"inputs": [
				{
					"internalType": "address",
					"name": "to",
					"type": "address"
				},
				{
					"internalType": "uint256",
					"name": "id",
					"type": "uint256"
				},
				{
					"internalType": "uint256",
					"name": "amount",
					"type": "uint256"
				}
			],
			"name": "burnAdmin",
			"outputs": [],
			"stateMutability": "nonpayable",
			"type": "function"
		},
		{
			"inputs": [],
			"name": "deleteDefaultRoyalty",
			"outputs": [],
			"stateMutability": "nonpayable",
			"type": "function"
		},
		{
			"inputs": [
				{
					"internalType": "address",
					"name": "_candidate",
					"type": "address"
				}
			],
			"name": "grantOperatorRole",
			"outputs": [],
			"stateMutability": "nonpayable",
			"type": "function"
		},
		{
			"inputs": [
				{
					"internalType": "uint256",
					"name": "tokenId",
					"type": "uint256"
				},
				{
					"internalType": "string",
					"name": "_tokenURI",
					"type": "string"
				}
			],
			"name": "initializeNFT",
			"outputs": [],
			"stateMutability": "nonpayable",
			"type": "function"
		},
		{
			"inputs": [
				{
					"internalType": "address",
					"name": "account",
					"type": "address"
				},
				{
					"internalType": "address",
					"name": "operator",
					"type": "address"
				}
			],
			"name": "isApprovedForAll",
			"outputs": [
				{
					"internalType": "bool",
					"name": "",
					"type": "bool"
				}
			],
			"stateMutability": "view",
			"type": "function"
		},
		{
			"inputs": [
				{
					"internalType": "address",
					"name": "_operator",
					"type": "address"
				}
			],
			"name": "isOperator",
			"outputs": [
				{
					"internalType": "bool",
					"name": "",
					"type": "bool"
				}
			],
			"stateMutability": "view",
			"type": "function"
		},
		{
			"inputs": [
				{
					"internalType": "address",
					"name": "to",
					"type": "address"
				},
				{
					"internalType": "uint256",
					"name": "id",
					"type": "uint256"
				},
				{
					"internalType": "uint256",
					"name": "amount",
					"type": "uint256"
				}
			],
			"name": "mint",
			"outputs": [],
			"stateMutability": "nonpayable",
			"type": "function"
		},
		{
			"inputs": [],
			"name": "name",
			"outputs": [
				{
					"internalType": "string",
					"name": "",
					"type": "string"
				}
			],
			"stateMutability": "view",
			"type": "function"
		},
		{
			"inputs": [],
			"name": "owner",
			"outputs": [
				{
					"internalType": "address",
					"name": "",
					"type": "address"
				}
			],
			"stateMutability": "view",
			"type": "function"
		},
		{
			"inputs": [],
			"name": "renounceOwnership",
			"outputs": [],
			"stateMutability": "nonpayable",
			"type": "function"
		},
		{
			"inputs": [
				{
					"internalType": "uint256",
					"name": "tokenId",
					"type": "uint256"
				}
			],
			"name": "resetTokenRoyalty",
			"outputs": [],
			"stateMutability": "nonpayable",
			"type": "function"
		},
		{
			"inputs": [
				{
					"internalType": "address",
					"name": "_candidate",
					"type": "address"
				}
			],
			"name": "revokeOperatorRole",
			"outputs": [],
			"stateMutability": "nonpayable",
			"type": "function"
		},
		{
			"inputs": [
				{
					"internalType": "uint256",
					"name": "_tokenId",
					"type": "uint256"
				},
				{
					"internalType": "uint256",
					"name": "_salePrice",
					"type": "uint256"
				}
			],
			"name": "royaltyInfo",
			"outputs": [
				{
					"internalType": "address",
					"name": "",
					"type": "address"
				},
				{
					"internalType": "uint256",
					"name": "",
					"type": "uint256"
				}
			],
			"stateMutability": "view",
			"type": "function"
		},
		{
			"inputs": [
				{
					"internalType": "address",
					"name": "from",
					"type": "address"
				},
				{
					"internalType": "address",
					"name": "to",
					"type": "address"
				},
				{
					"internalType": "uint256[]",
					"name": "ids",
					"type": "uint256[]"
				},
				{
					"internalType": "uint256[]",
					"name": "amounts",
					"type": "uint256[]"
				},
				{
					"internalType": "bytes",
					"name": "data",
					"type": "bytes"
				}
			],
			"name": "safeBatchTransferFrom",
			"outputs": [],
			"stateMutability": "nonpayable",
			"type": "function"
		},
		{
			"inputs": [
				{
					"internalType": "address",
					"name": "from",
					"type": "address"
				},
				{
					"internalType": "address",
					"name": "to",
					"type": "address"
				},
				{
					"internalType": "uint256",
					"name": "tokenId",
					"type": "uint256"
				},
				{
					"internalType": "uint256",
					"name": "amount",
					"type": "uint256"
				},
				{
					"internalType": "bytes",
					"name": "data",
					"type": "bytes"
				}
			],
			"name": "safeTransferFrom",
			"outputs": [],
			"stateMutability": "nonpayable",
			"type": "function"
		},
		{
			"inputs": [
				{
					"internalType": "address",
					"name": "operator",
					"type": "address"
				},
				{
					"internalType": "bool",
					"name": "approved",
					"type": "bool"
				}
			],
			"name": "setApprovalForAll",
			"outputs": [],
			"stateMutability": "nonpayable",
			"type": "function"
		},
		{
			"inputs": [
				{
					"internalType": "string",
					"name": "uri_",
					"type": "string"
				}
			],
			"name": "setBaseURI",
			"outputs": [],
			"stateMutability": "nonpayable",
			"type": "function"
		},
		{
			"inputs": [
				{
					"internalType": "address",
					"name": "receiver",
					"type": "address"
				},
				{
					"internalType": "uint96",
					"name": "feeNumerator",
					"type": "uint96"
				}
			],
			"name": "setDefaultRoyalty",
			"outputs": [],
			"stateMutability": "nonpayable",
			"type": "function"
		},
		{
			"inputs": [
				{
					"internalType": "uint256",
					"name": "tokenId",
					"type": "uint256"
				},
				{
					"internalType": "address",
					"name": "receiver",
					"type": "address"
				},
				{
					"internalType": "uint96",
					"name": "feeNumerator",
					"type": "uint96"
				}
			],
			"name": "setTokenRoyalty",
			"outputs": [],
			"stateMutability": "nonpayable",
			"type": "function"
		},
		{
			"inputs": [
				{
					"internalType": "uint256",
					"name": "tokenId",
					"type": "uint256"
				},
				{
					"internalType": "string",
					"name": "_tokenURI",
					"type": "string"
				}
			],
			"name": "setTokenURI",
			"outputs": [],
			"stateMutability": "nonpayable",
			"type": "function"
		},
		{
			"inputs": [
				{
					"internalType": "bytes4",
					"name": "interfaceId",
					"type": "bytes4"
				}
			],
			"name": "supportsInterface",
			"outputs": [
				{
					"internalType": "bool",
					"name": "",
					"type": "bool"
				}
			],
			"stateMutability": "view",
			"type": "function"
		},
		{
			"inputs": [],
			"name": "symbol",
			"outputs": [
				{
					"internalType": "string",
					"name": "",
					"type": "string"
				}
			],
			"stateMutability": "view",
			"type": "function"
		},
		{
			"inputs": [
				{
					"internalType": "address",
					"name": "newOwner",
					"type": "address"
				}
			],
			"name": "transferOwnership",
			"outputs": [],
			"stateMutability": "nonpayable",
			"type": "function"
		},
		{
			"inputs": [
				{
					"internalType": "uint256",
					"name": "tokenId",
					"type": "uint256"
				}
			],
			"name": "uri",
			"outputs": [
				{
					"internalType": "string",
					"name": "",
					"type": "string"
				}
			],
			"stateMutability": "view",
			"type": "function"
		}
	]
}