{
	"data": {
		"bytecode": {
			"linkReferences": {},
			"object": "6080604052604051806020016040528060008152506004908162000024919062000ff2565b506040518060400160405280600981526020017f30626a65637472306e0000000000000000000000000000000000000000000000815250600690816200006b919062000ff2565b506040518060400160405280600981526020017f30626a65637472306e000000000000000000000000000000000000000000000081525060079081620000b2919062000ff2565b50348015620000c057600080fd5b5060405180602001604052806000815250733cc6cdda760b79bafa08df41ecfa224f810dceb6600160006daaeb6d7670e522a718067333cd4e73ffffffffffffffffffffffffffffffffffffffff163b1115620002dd578015620001a3576daaeb6d7670e522a718067333cd4e73ffffffffffffffffffffffffffffffffffffffff16637d3e3dbe30846040518363ffffffff1660e01b8152600401620001699291906200111e565b600060405180830381600087803b1580156200018457600080fd5b505af115801562000199573d6000803e3d6000fd5b50505050620002dc565b600073ffffffffffffffffffffffffffffffffffffffff168273ffffffffffffffffffffffffffffffffffffffff16146200025d576daaeb6d7670e522a718067333cd4e73ffffffffffffffffffffffffffffffffffffffff1663a0af290330846040518363ffffffff1660e01b8152600401620002239291906200111e565b600060405180830381600087803b1580156200023e57600080fd5b505af115801562000253573d6000803e3d6000fd5b50505050620002db565b6daaeb6d7670e522a718067333cd4e73ffffffffffffffffffffffffffffffffffffffff16634420e486306040518263ffffffff1660e01b8152600401620002a691906200114b565b600060405180830381600087803b158015620002c157600080fd5b505af1158015620002d6573d6000803e3d6000fd5b505050505b5b5b5050620002f081620003be60201b60201c565b50620003066000801b33620003d360201b60201c565b620003387f7804d923f43a17d325d77e781528e0793b2edd9890ab45fc64efd7b4b427744c33620003d360201b60201c565b6200036a7f9f2df0fed2c77648de5860a4cc508cd0818c85b8b8a1ab4ceeef8d981c8956a633620003d360201b60201c565b620003946040518060600160405280603c8152602001620059f0603c9139620003be60201b60201c565b620003b83360028060405180602001604052806000815250620004c460201b60201c565b6200192b565b8060039081620003cf919062000ff2565b5050565b620003e582826200051160201b60201c565b620004c057600160008084815260200190815260200160002060000160008373ffffffffffffffffffffffffffffffffffffffff1673ffffffffffffffffffffffffffffffffffffffff16815260200190815260200160002060006101000a81548160ff021916908315150217905550620004656200057b60201b60201c565b73ffffffffffffffffffffffffffffffffffffffff168173ffffffffffffffffffffffffffffffffffffffff16837f2f8788117e7eff1d82e926ec794901d17c78024a50270940304540a733656f0d60405160405180910390a45b5050565b7f9f2df0fed2c77648de5860a4cc508cd0818c85b8b8a1ab4ceeef8d981c8956a6620004f6816200058360201b60201c565b6200050a85858585620005a760201b60201c565b5050505050565b600080600084815260200190815260200160002060000160008373ffffffffffffffffffffffffffffffffffffffff1673ffffffffffffffffffffffffffffffffffffffff16815260200190815260200160002060009054906101000a900460ff16905092915050565b600033905090565b620005a481620005986200057b60201b60201c565b6200078f60201b60201c565b50565b600073ffffffffffffffffffffffffffffffffffffffff168473ffffffffffffffffffffffffffffffffffffffff160362000619576040517f08c379a00000000000000000000000000000000000000000000000000000000081526004016200061090620011ef565b60405180910390fd5b60006200062b6200057b60201b60201c565b9050600062000640856200083b60201b60201c565b9050600062000655856200083b60201b60201c565b90506200066e83600089858589620008bc60201b60201c565b846001600088815260200190815260200160002060008973ffffffffffffffffffffffffffffffffffffffff1673ffffffffffffffffffffffffffffffffffffffff1681526020019081526020016000206000828254620006d0919062001240565b925050819055508673ffffffffffffffffffffffffffffffffffffffff16600073ffffffffffffffffffffffffffffffffffffffff168473ffffffffffffffffffffffffffffffffffffffff167fc3d58168c5ae7397731d063d5bbf3d657854427343f4c083240f7aacaa2d0f628989604051620007509291906200128c565b60405180910390a46200076f83600089858589620008c460201b60201c565b6200078683600089898989620008cc60201b60201c565b50505050505050565b620007a182826200051160201b60201c565b6200083757620007bc8162000ac560201b62000ce81760201c565b620007d78360001c602062000afa60201b62000d151760201c565b604051602001620007ea929190620013c7565b6040516020818303038152906040526040517f08c379a00000000000000000000000000000000000000000000000000000000081526004016200082e91906200145b565b60405180910390fd5b5050565b60606000600167ffffffffffffffff8111156200085d576200085c62000d83565b5b6040519080825280602002602001820160405280156200088c5781602001602082028036833780820191505090505b5090508281600081518110620008a757620008a66200147f565b5b60200260200101818152505080915050919050565b505050505050565b505050505050565b620008f88473ffffffffffffffffffffffffffffffffffffffff1662000d5560201b62000f511760201c565b1562000abd578373ffffffffffffffffffffffffffffffffffffffff1663f23a6e6187878686866040518663ffffffff1660e01b8152600401620009419594939291906200150b565b6020604051808303816000875af19250505080156200098057506040513d601f19601f820116820180604052508101906200097d9190620015db565b60015b62000a31576200098f6200161a565b806308c379a003620009f25750620009a662001675565b80620009b35750620009f4565b806040517f08c379a0000000000000000000000000000000000000000000000000000000008152600401620009e991906200145b565b60405180910390fd5b505b6040517f08c379a000000000000000000000000000000000000000000000000000000000815260040162000a289062001786565b60405180910390fd5b63f23a6e6160e01b7bffffffffffffffffffffffffffffffffffffffffffffffffffffffff1916817bffffffffffffffffffffffffffffffffffffffffffffffffffffffff19161462000abb576040517f08c379a000000000000000000000000000000000000000000000000000000000815260040162000ab2906200181e565b60405180910390fd5b505b505050505050565b606062000af38273ffffffffffffffffffffffffffffffffffffffff16601460ff1662000afa60201b60201c565b9050919050565b60606000600283600262000b0f919062001840565b62000b1b919062001240565b67ffffffffffffffff81111562000b375762000b3662000d83565b5b6040519080825280601f01601f19166020018201604052801562000b6a5781602001600182028036833780820191505090505b5090507f30000000000000000000000000000000000000000000000000000000000000008160008151811062000ba55762000ba46200147f565b5b60200101907effffffffffffffffffffffffffffffffffffffffffffffffffffffffffffff1916908160001a9053507f78000000000000000000000000000000000000000000000000000000000000008160018151811062000c0c5762000c0b6200147f565b5b60200101907effffffffffffffffffffffffffffffffffffffffffffffffffffffffffffff1916908160001a9053506000600184600262000c4e919062001840565b62000c5a919062001240565b90505b600181111562000d04577f3031323334353637383961626364656600000000000000000000000000000000600f86166010811062000ca05762000c9f6200147f565b5b1a60f81b82828151811062000cba5762000cb96200147f565b5b60200101907effffffffffffffffffffffffffffffffffffffffffffffffffffffffffffff1916908160001a905350600485901c94508062000cfc906200188b565b905062000c5d565b506000841462000d4b576040517f08c379a000000000000000000000000000000000000000000000000000000000815260040162000d429062001909565b60405180910390fd5b8091505092915050565b6000808273ffffffffffffffffffffffffffffffffffffffff163b119050919050565b600081519050919050565b7f4e487b7100000000000000000000000000000000000000000000000000000000600052604160045260246000fd5b7f4e487b7100000000000000000000000000000000000000000000000000000000600052602260045260246000fd5b6000600282049050600182168062000dfa57607f821691505b60208210810362000e105762000e0f62000db2565b5b50919050565b60008190508160005260206000209050919050565b60006020601f8301049050919050565b600082821b905092915050565b60006008830262000e7a7fffffffffffffffffffffffffffffffffffffffffffffffffffffffffffffffff8262000e3b565b62000e86868362000e3b565b95508019841693508086168417925050509392505050565b6000819050919050565b6000819050919050565b600062000ed362000ecd62000ec78462000e9e565b62000ea8565b62000e9e565b9050919050565b6000819050919050565b62000eef8362000eb2565b62000f0762000efe8262000eda565b84845462000e48565b825550505050565b600090565b62000f1e62000f0f565b62000f2b81848462000ee4565b505050565b5b8181101562000f535762000f4760008262000f14565b60018101905062000f31565b5050565b601f82111562000fa25762000f6c8162000e16565b62000f778462000e2b565b8101602085101562000f87578190505b62000f9f62000f968562000e2b565b83018262000f30565b50505b505050565b600082821c905092915050565b600062000fc76000198460080262000fa7565b1980831691505092915050565b600062000fe2838362000fb4565b9150826002028217905092915050565b62000ffd8262000d78565b67ffffffffffffffff81111562001019576200101862000d83565b5b62001025825462000de1565b6200103282828562000f57565b600060209050601f8311600181146200106a576000841562001055578287015190505b62001061858262000fd4565b865550620010d1565b601f1984166200107a8662000e16565b60005b82811015620010a4578489015182556001820191506020850194506020810190506200107d565b86831015620010c45784890151620010c0601f89168262000fb4565b8355505b6001600288020188555050505b505050505050565b600073ffffffffffffffffffffffffffffffffffffffff82169050919050565b60006200110682620010d9565b9050919050565b6200111881620010f9565b82525050565b60006040820190506200113560008301856200110d565b6200114460208301846200110d565b9392505050565b60006020820190506200116260008301846200110d565b92915050565b600082825260208201905092915050565b7f455243313135353a206d696e7420746f20746865207a65726f2061646472657360008201527f7300000000000000000000000000000000000000000000000000000000000000602082015250565b6000620011d760218362001168565b9150620011e48262001179565b604082019050919050565b600060208201905081810360008301526200120a81620011c8565b9050919050565b7f4e487b7100000000000000000000000000000000000000000000000000000000600052601160045260246000fd5b60006200124d8262000e9e565b91506200125a8362000e9e565b925082820190508082111562001275576200127462001211565b5b92915050565b620012868162000e9e565b82525050565b6000604082019050620012a360008301856200127b565b620012b260208301846200127b565b9392505050565b600081905092915050565b7f416363657373436f6e74726f6c3a206163636f756e7420000000000000000000600082015250565b6000620012fc601783620012b9565b91506200130982620012c4565b601782019050919050565b60005b838110156200133457808201518184015260208101905062001317565b60008484015250505050565b60006200134d8262000d78565b620013598185620012b9565b93506200136b81856020860162001314565b80840191505092915050565b7f206973206d697373696e6720726f6c6520000000000000000000000000000000600082015250565b6000620013af601183620012b9565b9150620013bc8262001377565b601182019050919050565b6000620013d482620012ed565b9150620013e2828562001340565b9150620013ef82620013a0565b9150620013fd828462001340565b91508190509392505050565b6000601f19601f8301169050919050565b6000620014278262000d78565b62001433818562001168565b93506200144581856020860162001314565b620014508162001409565b840191505092915050565b600060208201905081810360008301526200147781846200141a565b905092915050565b7f4e487b7100000000000000000000000000000000000000000000000000000000600052603260045260246000fd5b600081519050919050565b600082825260208201905092915050565b6000620014d782620014ae565b620014e38185620014b9565b9350620014f581856020860162001314565b620015008162001409565b840191505092915050565b600060a0820190506200152260008301886200110d565b6200153160208301876200110d565b6200154060408301866200127b565b6200154f60608301856200127b565b8181036080830152620015638184620014ca565b90509695505050505050565b6000604051905090565b600080fd5b60007fffffffff0000000000000000000000000000000000000000000000000000000082169050919050565b620015b5816200157e565b8114620015c157600080fd5b50565b600081519050620015d581620015aa565b92915050565b600060208284031215620015f457620015f362001579565b5b60006200160484828501620015c4565b91505092915050565b60008160e01c9050919050565b600060033d11156200163c5760046000803e620016396000516200160d565b90505b90565b6200164a8262001409565b810181811067ffffffffffffffff821117156200166c576200166b62000d83565b5b80604052505050565b600060443d106200170d576200168a6200156f565b60043d036004823e80513d602482011167ffffffffffffffff82111715620016b45750506200170d565b808201805167ffffffffffffffff811115620016d457505050506200170d565b80602083010160043d038501811115620016f35750505050506200170d565b62001704826020018501866200163f565b82955050505050505b90565b7f455243313135353a207472616e7366657220746f206e6f6e2d4552433131353560008201527f526563656976657220696d706c656d656e746572000000000000000000000000602082015250565b60006200176e60348362001168565b91506200177b8262001710565b604082019050919050565b60006020820190508181036000830152620017a1816200175f565b9050919050565b7f455243313135353a204552433131353552656365697665722072656a6563746560008201527f6420746f6b656e73000000000000000000000000000000000000000000000000602082015250565b60006200180660288362001168565b91506200181382620017a8565b604082019050919050565b600060208201905081810360008301526200183981620017f7565b9050919050565b60006200184d8262000e9e565b91506200185a8362000e9e565b92508282026200186a8162000e9e565b9150828204841483151762001884576200188362001211565b5b5092915050565b6000620018988262000e9e565b915060008203620018ae57620018ad62001211565b5b600182039050919050565b7f537472696e67733a20686578206c656e67746820696e73756666696369656e74600082015250565b6000620018f160208362001168565b9150620018fe82620018b9565b602082019050919050565b600060208201905081810360008301526200192481620018e2565b9050919050565b6140b5806200193b6000396000f3fe608060405234801561001057600080fd5b506004361061014c5760003560e01c80634e1273f4116100c3578063a217fddf1161007c578063a217fddf146103ad578063a22cb465146103cb578063d5391393146103e7578063d547741f14610405578063e985e9c514610421578063f242432a146104515761014c565b80634e1273f4146102d957806355f804b314610309578063731133e9146103255780637f3457101461034157806391d148541461035f57806395d89b411461038f5761014c565b80631f7fdffa116101155780631f7fdffa1461021b578063248a9ca3146102375780632eb2c2d6146102675780632f2ff15d1461028357806336568abe1461029f57806341f43434146102bb5761014c565b8062fdd58e1461015157806301ffc9a71461018157806302fe5305146101b157806306fdde03146101cd5780630e89341c146101eb575b600080fd5b61016b60048036038101906101669190612555565b61046d565b60405161017891906125a4565b60405180910390f35b61019b60048036038101906101969190612617565b610536565b6040516101a8919061265f565b60405180910390f35b6101cb60048036038101906101c691906127c0565b610548565b005b6101d561057f565b6040516101e29190612888565b60405180910390f35b610205600480360381019061020091906128aa565b61060d565b6040516102129190612888565b60405180910390f35b61023560048036038101906102309190612a40565b6106f2565b005b610251600480360381019061024c9190612b31565b61072f565b60405161025e9190612b6d565b60405180910390f35b610281600480360381019061027c9190612b88565b61074e565b005b61029d60048036038101906102989190612c57565b6107ef565b005b6102b960048036038101906102b49190612c57565b610810565b005b6102c3610893565b6040516102d09190612cf6565b60405180910390f35b6102f360048036038101906102ee9190612dd4565b6108a5565b6040516103009190612f0a565b60405180910390f35b610323600480360381019061031e91906127c0565b6109be565b005b61033f600480360381019061033a9190612f2c565b6109f5565b005b610349610a32565b6040516103569190612b6d565b60405180910390f35b61037960048036038101906103749190612c57565b610a56565b604051610386919061265f565b60405180910390f35b610397610ac0565b6040516103a49190612888565b60405180910390f35b6103b5610b4e565b6040516103c29190612b6d565b60405180910390f35b6103e560048036038101906103e09190612fdb565b610b55565b005b6103ef610b6e565b6040516103fc9190612b6d565b60405180910390f35b61041f600480360381019061041a9190612c57565b610b92565b005b61043b6004803603810190610436919061301b565b610bb3565b604051610448919061265f565b60405180910390f35b61046b6004803603810190610466919061305b565b610c47565b005b60008073ffffffffffffffffffffffffffffffffffffffff168373ffffffffffffffffffffffffffffffffffffffff16036104dd576040517f08c379a00000000000000000000000000000000000000000000000000000000081526004016104d490613164565b60405180910390fd5b6001600083815260200190815260200160002060008473ffffffffffffffffffffffffffffffffffffffff1673ffffffffffffffffffffffffffffffffffffffff16815260200190815260200160002054905092915050565b600061054182610f74565b9050919050565b7f7804d923f43a17d325d77e781528e0793b2edd9890ab45fc64efd7b4b427744c61057281611056565b61057b8261106a565b5050565b6006805461058c906131b3565b80601f01602080910402602001604051908101604052809291908181526020018280546105b8906131b3565b80156106055780601f106105da57610100808354040283529160200191610605565b820191906000526020600020905b8154815290600101906020018083116105e857829003601f168201915b505050505081565b6060600060056000848152602001908152602001600020805461062f906131b3565b80601f016020809104026020016040519081016040528092919081815260200182805461065b906131b3565b80156106a85780601f1061067d576101008083540402835291602001916106a8565b820191906000526020600020905b81548152906001019060200180831161068b57829003601f168201915b5050505050905060008151116106c6576106c18361107d565b6106ea565b6004816040516020016106da9291906132b8565b6040516020818303038152906040525b915050919050565b7f9f2df0fed2c77648de5860a4cc508cd0818c85b8b8a1ab4ceeef8d981c8956a661071c81611056565b61072885858585611111565b5050505050565b6000806000838152602001908152602001600020600101549050919050565b61075661133e565b73ffffffffffffffffffffffffffffffffffffffff168573ffffffffffffffffffffffffffffffffffffffff16148061079c575061079b8561079661133e565b610bb3565b5b6107db576040517f08c379a00000000000000000000000000000000000000000000000000000000081526004016107d29061334e565b60405180910390fd5b6107e88585858585611346565b5050505050565b6107f88261072f565b61080181611056565b61080b838361166a565b505050565b61081861133e565b73ffffffffffffffffffffffffffffffffffffffff168173ffffffffffffffffffffffffffffffffffffffff1614610885576040517f08c379a000000000000000000000000000000000000000000000000000000000815260040161087c906133e0565b60405180910390fd5b61088f828261174a565b5050565b6daaeb6d7670e522a718067333cd4e81565b606081518351146108eb576040517f08c379a00000000000000000000000000000000000000000000000000000000081526004016108e290613472565b60405180910390fd5b6000835167ffffffffffffffff81111561090857610907612695565b5b6040519080825280602002602001820160405280156109365781602001602082028036833780820191505090505b50905060005b84518110156109b35761098385828151811061095b5761095a613492565b5b602002602001015185838151811061097657610975613492565b5b602002602001015161046d565b82828151811061099657610995613492565b5b602002602001018181525050806109ac906134f0565b905061093c565b508091505092915050565b7f7804d923f43a17d325d77e781528e0793b2edd9890ab45fc64efd7b4b427744c6109e881611056565b6109f18261182b565b5050565b7f9f2df0fed2c77648de5860a4cc508cd0818c85b8b8a1ab4ceeef8d981c8956a6610a1f81611056565b610a2b8585858561183e565b5050505050565b7f7804d923f43a17d325d77e781528e0793b2edd9890ab45fc64efd7b4b427744c81565b600080600084815260200190815260200160002060000160008373ffffffffffffffffffffffffffffffffffffffff1673ffffffffffffffffffffffffffffffffffffffff16815260200190815260200160002060009054906101000a900460ff16905092915050565b60078054610acd906131b3565b80601f0160208091040260200160405190810160405280929190818152602001828054610af9906131b3565b8015610b465780601f10610b1b57610100808354040283529160200191610b46565b820191906000526020600020905b815481529060010190602001808311610b2957829003601f168201915b505050505081565b6000801b81565b81610b5f816119ef565b610b698383611aec565b505050565b7f9f2df0fed2c77648de5860a4cc508cd0818c85b8b8a1ab4ceeef8d981c8956a681565b610b9b8261072f565b610ba481611056565b610bae838361174a565b505050565b6000600260008473ffffffffffffffffffffffffffffffffffffffff1673ffffffffffffffffffffffffffffffffffffffff16815260200190815260200160002060008373ffffffffffffffffffffffffffffffffffffffff1673ffffffffffffffffffffffffffffffffffffffff16815260200190815260200160002060009054906101000a900460ff16905092915050565b610c4f61133e565b73ffffffffffffffffffffffffffffffffffffffff168573ffffffffffffffffffffffffffffffffffffffff161480610c955750610c9485610c8f61133e565b610bb3565b5b610cd4576040517f08c379a0000000000000000000000000000000000000000000000000000000008152600401610ccb9061334e565b60405180910390fd5b610ce18585858585611b02565b5050505050565b6060610d0e8273ffffffffffffffffffffffffffffffffffffffff16601460ff16610d15565b9050919050565b606060006002836002610d289190613538565b610d32919061357a565b67ffffffffffffffff811115610d4b57610d4a612695565b5b6040519080825280601f01601f191660200182016040528015610d7d5781602001600182028036833780820191505090505b5090507f300000000000000000000000000000000000000000000000000000000000000081600081518110610db557610db4613492565b5b60200101907effffffffffffffffffffffffffffffffffffffffffffffffffffffffffffff1916908160001a9053507f780000000000000000000000000000000000000000000000000000000000000081600181518110610e1957610e18613492565b5b60200101907effffffffffffffffffffffffffffffffffffffffffffffffffffffffffffff1916908160001a90535060006001846002610e599190613538565b610e63919061357a565b90505b6001811115610f03577f3031323334353637383961626364656600000000000000000000000000000000600f861660108110610ea557610ea4613492565b5b1a60f81b828281518110610ebc57610ebb613492565b5b60200101907effffffffffffffffffffffffffffffffffffffffffffffffffffffffffffff1916908160001a905350600485901c945080610efc906135ae565b9050610e66565b5060008414610f47576040517f08c379a0000000000000000000000000000000000000000000000000000000008152600401610f3e90613623565b60405180910390fd5b8091505092915050565b6000808273ffffffffffffffffffffffffffffffffffffffff163b119050919050565b60007fd9b67a26000000000000000000000000000000000000000000000000000000007bffffffffffffffffffffffffffffffffffffffffffffffffffffffff1916827bffffffffffffffffffffffffffffffffffffffffffffffffffffffff1916148061103f57507f0e89341c000000000000000000000000000000000000000000000000000000007bffffffffffffffffffffffffffffffffffffffffffffffffffffffff1916827bffffffffffffffffffffffffffffffffffffffffffffffffffffffff1916145b8061104f575061104e82611da0565b5b9050919050565b6110678161106261133e565b611e1a565b50565b806003908161107991906137d0565b5050565b60606003805461108c906131b3565b80601f01602080910402602001604051908101604052809291908181526020018280546110b8906131b3565b80156111055780601f106110da57610100808354040283529160200191611105565b820191906000526020600020905b8154815290600101906020018083116110e857829003601f168201915b50505050509050919050565b600073ffffffffffffffffffffffffffffffffffffffff168473ffffffffffffffffffffffffffffffffffffffff1603611180576040517f08c379a000000000000000000000000000000000000000000000000000000000815260040161117790613914565b60405180910390fd5b81518351146111c4576040517f08c379a00000000000000000000000000000000000000000000000000000000081526004016111bb906139a6565b60405180910390fd5b60006111ce61133e565b90506111df81600087878787611e9f565b60005b8451811015611299578381815181106111fe576111fd613492565b5b60200260200101516001600087848151811061121d5761121c613492565b5b6020026020010151815260200190815260200160002060008873ffffffffffffffffffffffffffffffffffffffff1673ffffffffffffffffffffffffffffffffffffffff168152602001908152602001600020600082825461127f919061357a565b925050819055508080611291906134f0565b9150506111e2565b508473ffffffffffffffffffffffffffffffffffffffff16600073ffffffffffffffffffffffffffffffffffffffff168273ffffffffffffffffffffffffffffffffffffffff167f4a39dc06d4c0dbc64b70af90fd698a233a518aa5d07e595d983b8c0526c8f7fb87876040516113119291906139c6565b60405180910390a461132881600087878787611ea7565b61133781600087878787611eaf565b5050505050565b600033905090565b815183511461138a576040517f08c379a0000000000000000000000000000000000000000000000000000000008152600401611381906139a6565b60405180910390fd5b600073ffffffffffffffffffffffffffffffffffffffff168473ffffffffffffffffffffffffffffffffffffffff16036113f9576040517f08c379a00000000000000000000000000000000000000000000000000000000081526004016113f090613a6f565b60405180910390fd5b600061140361133e565b9050611413818787878787611e9f565b60005b84518110156115c757600085828151811061143457611433613492565b5b60200260200101519050600085838151811061145357611452613492565b5b6020026020010151905060006001600084815260200190815260200160002060008b73ffffffffffffffffffffffffffffffffffffffff1673ffffffffffffffffffffffffffffffffffffffff168152602001908152602001600020549050818110156114f5576040517f08c379a00000000000000000000000000000000000000000000000000000000081526004016114ec90613b01565b60405180910390fd5b8181036001600085815260200190815260200160002060008c73ffffffffffffffffffffffffffffffffffffffff1673ffffffffffffffffffffffffffffffffffffffff16815260200190815260200160002081905550816001600085815260200190815260200160002060008b73ffffffffffffffffffffffffffffffffffffffff1673ffffffffffffffffffffffffffffffffffffffff16815260200190815260200160002060008282546115ac919061357a565b92505081905550505050806115c0906134f0565b9050611416565b508473ffffffffffffffffffffffffffffffffffffffff168673ffffffffffffffffffffffffffffffffffffffff168273ffffffffffffffffffffffffffffffffffffffff167f4a39dc06d4c0dbc64b70af90fd698a233a518aa5d07e595d983b8c0526c8f7fb878760405161163e9291906139c6565b60405180910390a4611654818787878787611ea7565b611662818787878787611eaf565b505050505050565b6116748282610a56565b61174657600160008084815260200190815260200160002060000160008373ffffffffffffffffffffffffffffffffffffffff1673ffffffffffffffffffffffffffffffffffffffff16815260200190815260200160002060006101000a81548160ff0219169083151502179055506116eb61133e565b73ffffffffffffffffffffffffffffffffffffffff168173ffffffffffffffffffffffffffffffffffffffff16837f2f8788117e7eff1d82e926ec794901d17c78024a50270940304540a733656f0d60405160405180910390a45b5050565b6117548282610a56565b1561182757600080600084815260200190815260200160002060000160008373ffffffffffffffffffffffffffffffffffffffff1673ffffffffffffffffffffffffffffffffffffffff16815260200190815260200160002060006101000a81548160ff0219169083151502179055506117cc61133e565b73ffffffffffffffffffffffffffffffffffffffff168173ffffffffffffffffffffffffffffffffffffffff16837ff6391f5c32d9c69d2a47ea670b442974b53935d1edc7fd64eb21e047a839171b60405160405180910390a45b5050565b806004908161183a91906137d0565b5050565b600073ffffffffffffffffffffffffffffffffffffffff168473ffffffffffffffffffffffffffffffffffffffff16036118ad576040517f08c379a00000000000000000000000000000000000000000000000000000000081526004016118a490613914565b60405180910390fd5b60006118b761133e565b905060006118c485612086565b905060006118d185612086565b90506118e283600089858589611e9f565b846001600088815260200190815260200160002060008973ffffffffffffffffffffffffffffffffffffffff1673ffffffffffffffffffffffffffffffffffffffff1681526020019081526020016000206000828254611942919061357a565b925050819055508673ffffffffffffffffffffffffffffffffffffffff16600073ffffffffffffffffffffffffffffffffffffffff168473ffffffffffffffffffffffffffffffffffffffff167fc3d58168c5ae7397731d063d5bbf3d657854427343f4c083240f7aacaa2d0f6289896040516119c0929190613b21565b60405180910390a46119d783600089858589611ea7565b6119e683600089898989612100565b50505050505050565b60006daaeb6d7670e522a718067333cd4e73ffffffffffffffffffffffffffffffffffffffff163b1115611ae9576daaeb6d7670e522a718067333cd4e73ffffffffffffffffffffffffffffffffffffffff1663c617113430836040518363ffffffff1660e01b8152600401611a66929190613b59565b602060405180830381865afa158015611a83573d6000803e3d6000fd5b505050506040513d601f19601f82011682018060405250810190611aa79190613b97565b611ae857806040517fede71dcc000000000000000000000000000000000000000000000000000000008152600401611adf9190613bc4565b60405180910390fd5b5b50565b611afe611af761133e565b83836122d7565b5050565b600073ffffffffffffffffffffffffffffffffffffffff168473ffffffffffffffffffffffffffffffffffffffff1603611b71576040517f08c379a0000000000000000000000000000000000000000000000000000000008152600401611b6890613a6f565b60405180910390fd5b6000611b7b61133e565b90506000611b8885612086565b90506000611b9585612086565b9050611ba5838989858589611e9f565b60006001600088815260200190815260200160002060008a73ffffffffffffffffffffffffffffffffffffffff1673ffffffffffffffffffffffffffffffffffffffff16815260200190815260200160002054905085811015611c3d576040517f08c379a0000000000000000000000000000000000000000000000000000000008152600401611c3490613b01565b60405180910390fd5b8581036001600089815260200190815260200160002060008b73ffffffffffffffffffffffffffffffffffffffff1673ffffffffffffffffffffffffffffffffffffffff16815260200190815260200160002081905550856001600089815260200190815260200160002060008a73ffffffffffffffffffffffffffffffffffffffff1673ffffffffffffffffffffffffffffffffffffffff1681526020019081526020016000206000828254611cf4919061357a565b925050819055508773ffffffffffffffffffffffffffffffffffffffff168973ffffffffffffffffffffffffffffffffffffffff168573ffffffffffffffffffffffffffffffffffffffff167fc3d58168c5ae7397731d063d5bbf3d657854427343f4c083240f7aacaa2d0f628a8a604051611d71929190613b21565b60405180910390a4611d87848a8a86868a611ea7565b611d95848a8a8a8a8a612100565b505050505050505050565b60007f7965db0b000000000000000000000000000000000000000000000000000000007bffffffffffffffffffffffffffffffffffffffffffffffffffffffff1916827bffffffffffffffffffffffffffffffffffffffffffffffffffffffff19161480611e135750611e1282612443565b5b9050919050565b611e248282610a56565b611e9b57611e3181610ce8565b611e3f8360001c6020610d15565b604051602001611e50929190613c77565b6040516020818303038152906040526040517f08c379a0000000000000000000000000000000000000000000000000000000008152600401611e929190612888565b60405180910390fd5b5050565b505050505050565b505050505050565b611ece8473ffffffffffffffffffffffffffffffffffffffff16610f51565b1561207e578373ffffffffffffffffffffffffffffffffffffffff1663bc197c8187878686866040518663ffffffff1660e01b8152600401611f14959493929190613d06565b6020604051808303816000875af1925050508015611f5057506040513d601f19601f82011682018060405250810190611f4d9190613d83565b60015b611ff557611f5c613dbd565b806308c379a003611fb85750611f70613ddf565b80611f7b5750611fba565b806040517f08c379a0000000000000000000000000000000000000000000000000000000008152600401611faf9190612888565b60405180910390fd5b505b6040517f08c379a0000000000000000000000000000000000000000000000000000000008152600401611fec90613ee1565b60405180910390fd5b63bc197c8160e01b7bffffffffffffffffffffffffffffffffffffffffffffffffffffffff1916817bffffffffffffffffffffffffffffffffffffffffffffffffffffffff19161461207c576040517f08c379a000000000000000000000000000000000000000000000000000000000815260040161207390613f73565b60405180910390fd5b505b505050505050565b60606000600167ffffffffffffffff8111156120a5576120a4612695565b5b6040519080825280602002602001820160405280156120d35781602001602082028036833780820191505090505b50905082816000815181106120eb576120ea613492565b5b60200260200101818152505080915050919050565b61211f8473ffffffffffffffffffffffffffffffffffffffff16610f51565b156122cf578373ffffffffffffffffffffffffffffffffffffffff1663f23a6e6187878686866040518663ffffffff1660e01b8152600401612165959493929190613f93565b6020604051808303816000875af19250505080156121a157506040513d601f19601f8201168201806040525081019061219e9190613d83565b60015b612246576121ad613dbd565b806308c379a00361220957506121c1613ddf565b806121cc575061220b565b806040517f08c379a00000000000000000000000000000000000000000000000000000000081526004016122009190612888565b60405180910390fd5b505b6040517f08c379a000000000000000000000000000000000000000000000000000000000815260040161223d90613ee1565b60405180910390fd5b63f23a6e6160e01b7bffffffffffffffffffffffffffffffffffffffffffffffffffffffff1916817bffffffffffffffffffffffffffffffffffffffffffffffffffffffff1916146122cd576040517f08c379a00000000000000000000000000000000000000000000000000000000081526004016122c490613f73565b60405180910390fd5b505b505050505050565b8173ffffffffffffffffffffffffffffffffffffffff168373ffffffffffffffffffffffffffffffffffffffff1603612345576040517f08c379a000000000000000000000000000000000000000000000000000000000815260040161233c9061405f565b60405180910390fd5b80600260008573ffffffffffffffffffffffffffffffffffffffff1673ffffffffffffffffffffffffffffffffffffffff16815260200190815260200160002060008473ffffffffffffffffffffffffffffffffffffffff1673ffffffffffffffffffffffffffffffffffffffff16815260200190815260200160002060006101000a81548160ff0219169083151502179055508173ffffffffffffffffffffffffffffffffffffffff168373ffffffffffffffffffffffffffffffffffffffff167f17307eab39ab6107e8899845ad3d59bd9653f200f220920489ca2b5937696c3183604051612436919061265f565b60405180910390a3505050565b60007f01ffc9a7000000000000000000000000000000000000000000000000000000007bffffffffffffffffffffffffffffffffffffffffffffffffffffffff1916827bffffffffffffffffffffffffffffffffffffffffffffffffffffffff1916149050919050565b6000604051905090565b600080fd5b600080fd5b600073ffffffffffffffffffffffffffffffffffffffff82169050919050565b60006124ec826124c1565b9050919050565b6124fc816124e1565b811461250757600080fd5b50565b600081359050612519816124f3565b92915050565b6000819050919050565b6125328161251f565b811461253d57600080fd5b50565b60008135905061254f81612529565b92915050565b6000806040838503121561256c5761256b6124b7565b5b600061257a8582860161250a565b925050602061258b85828601612540565b9150509250929050565b61259e8161251f565b82525050565b60006020820190506125b96000830184612595565b92915050565b60007fffffffff0000000000000000000000000000000000000000000000000000000082169050919050565b6125f4816125bf565b81146125ff57600080fd5b50565b600081359050612611816125eb565b92915050565b60006020828403121561262d5761262c6124b7565b5b600061263b84828501612602565b91505092915050565b60008115159050919050565b61265981612644565b82525050565b60006020820190506126746000830184612650565b92915050565b600080fd5b600080fd5b6000601f19601f8301169050919050565b7f4e487b7100000000000000000000000000000000000000000000000000000000600052604160045260246000fd5b6126cd82612684565b810181811067ffffffffffffffff821117156126ec576126eb612695565b5b80604052505050565b60006126ff6124ad565b905061270b82826126c4565b919050565b600067ffffffffffffffff82111561272b5761272a612695565b5b61273482612684565b9050602081019050919050565b82818337600083830152505050565b600061276361275e84612710565b6126f5565b90508281526020810184848401111561277f5761277e61267f565b5b61278a848285612741565b509392505050565b600082601f8301126127a7576127a661267a565b5b81356127b7848260208601612750565b91505092915050565b6000602082840312156127d6576127d56124b7565b5b600082013567ffffffffffffffff8111156127f4576127f36124bc565b5b61280084828501612792565b91505092915050565b600081519050919050565b600082825260208201905092915050565b60005b83811015612843578082015181840152602081019050612828565b60008484015250505050565b600061285a82612809565b6128648185612814565b9350612874818560208601612825565b61287d81612684565b840191505092915050565b600060208201905081810360008301526128a2818461284f565b905092915050565b6000602082840312156128c0576128bf6124b7565b5b60006128ce84828501612540565b91505092915050565b600067ffffffffffffffff8211156128f2576128f1612695565b5b602082029050602081019050919050565b600080fd5b600061291b612916846128d7565b6126f5565b9050808382526020820190506020840283018581111561293e5761293d612903565b5b835b8181101561296757806129538882612540565b845260208401935050602081019050612940565b5050509392505050565b600082601f8301126129865761298561267a565b5b8135612996848260208601612908565b91505092915050565b600067ffffffffffffffff8211156129ba576129b9612695565b5b6129c382612684565b9050602081019050919050565b60006129e36129de8461299f565b6126f5565b9050828152602081018484840111156129ff576129fe61267f565b5b612a0a848285612741565b509392505050565b600082601f830112612a2757612a2661267a565b5b8135612a378482602086016129d0565b91505092915050565b60008060008060808587031215612a5a57612a596124b7565b5b6000612a688782880161250a565b945050602085013567ffffffffffffffff811115612a8957612a886124bc565b5b612a9587828801612971565b935050604085013567ffffffffffffffff811115612ab657612ab56124bc565b5b612ac287828801612971565b925050606085013567ffffffffffffffff811115612ae357612ae26124bc565b5b612aef87828801612a12565b91505092959194509250565b6000819050919050565b612b0e81612afb565b8114612b1957600080fd5b50565b600081359050612b2b81612b05565b92915050565b600060208284031215612b4757612b466124b7565b5b6000612b5584828501612b1c565b91505092915050565b612b6781612afb565b82525050565b6000602082019050612b826000830184612b5e565b92915050565b600080600080600060a08688031215612ba457612ba36124b7565b5b6000612bb28882890161250a565b9550506020612bc38882890161250a565b945050604086013567ffffffffffffffff811115612be457612be36124bc565b5b612bf088828901612971565b935050606086013567ffffffffffffffff811115612c1157612c106124bc565b5b612c1d88828901612971565b925050608086013567ffffffffffffffff811115612c3e57612c3d6124bc565b5b612c4a88828901612a12565b9150509295509295909350565b60008060408385031215612c6e57612c6d6124b7565b5b6000612c7c85828601612b1c565b9250506020612c8d8582860161250a565b9150509250929050565b6000819050919050565b6000612cbc612cb7612cb2846124c1565b612c97565b6124c1565b9050919050565b6000612cce82612ca1565b9050919050565b6000612ce082612cc3565b9050919050565b612cf081612cd5565b82525050565b6000602082019050612d0b6000830184612ce7565b92915050565b600067ffffffffffffffff821115612d2c57612d2b612695565b5b602082029050602081019050919050565b6000612d50612d4b84612d11565b6126f5565b90508083825260208201905060208402830185811115612d7357612d72612903565b5b835b81811015612d9c5780612d88888261250a565b845260208401935050602081019050612d75565b5050509392505050565b600082601f830112612dbb57612dba61267a565b5b8135612dcb848260208601612d3d565b91505092915050565b60008060408385031215612deb57612dea6124b7565b5b600083013567ffffffffffffffff811115612e0957612e086124bc565b5b612e1585828601612da6565b925050602083013567ffffffffffffffff811115612e3657612e356124bc565b5b612e4285828601612971565b9150509250929050565b600081519050919050565b600082825260208201905092915050565b6000819050602082019050919050565b612e818161251f565b82525050565b6000612e938383612e78565b60208301905092915050565b6000602082019050919050565b6000612eb782612e4c565b612ec18185612e57565b9350612ecc83612e68565b8060005b83811015612efd578151612ee48882612e87565b9750612eef83612e9f565b925050600181019050612ed0565b5085935050505092915050565b60006020820190508181036000830152612f248184612eac565b905092915050565b60008060008060808587031215612f4657612f456124b7565b5b6000612f548782880161250a565b9450506020612f6587828801612540565b9350506040612f7687828801612540565b925050606085013567ffffffffffffffff811115612f9757612f966124bc565b5b612fa387828801612a12565b91505092959194509250565b612fb881612644565b8114612fc357600080fd5b50565b600081359050612fd581612faf565b92915050565b60008060408385031215612ff257612ff16124b7565b5b60006130008582860161250a565b925050602061301185828601612fc6565b9150509250929050565b60008060408385031215613032576130316124b7565b5b60006130408582860161250a565b92505060206130518582860161250a565b9150509250929050565b600080600080600060a08688031215613077576130766124b7565b5b60006130858882890161250a565b95505060206130968882890161250a565b94505060406130a788828901612540565b93505060606130b888828901612540565b925050608086013567ffffffffffffffff8111156130d9576130d86124bc565b5b6130e588828901612a12565b9150509295509295909350565b7f455243313135353a2061646472657373207a65726f206973206e6f742061207660008201527f616c6964206f776e657200000000000000000000000000000000000000000000602082015250565b600061314e602a83612814565b9150613159826130f2565b604082019050919050565b6000602082019050818103600083015261317d81613141565b9050919050565b7f4e487b7100000000000000000000000000000000000000000000000000000000600052602260045260246000fd5b600060028204905060018216806131cb57607f821691505b6020821081036131de576131dd613184565b5b50919050565b600081905092915050565b60008190508160005260206000209050919050565b60008154613211816131b3565b61321b81866131e4565b94506001821660008114613236576001811461324b5761327e565b60ff198316865281151582028601935061327e565b613254856131ef565b60005b8381101561327657815481890152600182019150602081019050613257565b838801955050505b50505092915050565b600061329282612809565b61329c81856131e4565b93506132ac818560208601612825565b80840191505092915050565b60006132c48285613204565b91506132d08284613287565b91508190509392505050565b7f455243313135353a2063616c6c6572206973206e6f7420746f6b656e206f776e60008201527f6572206f7220617070726f766564000000000000000000000000000000000000602082015250565b6000613338602e83612814565b9150613343826132dc565b604082019050919050565b600060208201905081810360008301526133678161332b565b9050919050565b7f416363657373436f6e74726f6c3a2063616e206f6e6c792072656e6f756e636560008201527f20726f6c657320666f722073656c660000000000000000000000000000000000602082015250565b60006133ca602f83612814565b91506133d58261336e565b604082019050919050565b600060208201905081810360008301526133f9816133bd565b9050919050565b7f455243313135353a206163636f756e747320616e6420696473206c656e67746860008201527f206d69736d617463680000000000000000000000000000000000000000000000602082015250565b600061345c602983612814565b915061346782613400565b604082019050919050565b6000602082019050818103600083015261348b8161344f565b9050919050565b7f4e487b7100000000000000000000000000000000000000000000000000000000600052603260045260246000fd5b7f4e487b7100000000000000000000000000000000000000000000000000000000600052601160045260246000fd5b60006134fb8261251f565b91507fffffffffffffffffffffffffffffffffffffffffffffffffffffffffffffffff820361352d5761352c6134c1565b5b600182019050919050565b60006135438261251f565b915061354e8361251f565b925082820261355c8161251f565b91508282048414831517613573576135726134c1565b5b5092915050565b60006135858261251f565b91506135908361251f565b92508282019050808211156135a8576135a76134c1565b5b92915050565b60006135b98261251f565b9150600082036135cc576135cb6134c1565b5b600182039050919050565b7f537472696e67733a20686578206c656e67746820696e73756666696369656e74600082015250565b600061360d602083612814565b9150613618826135d7565b602082019050919050565b6000602082019050818103600083015261363c81613600565b9050919050565b60006020601f8301049050919050565b600082821b905092915050565b6000600883026136907fffffffffffffffffffffffffffffffffffffffffffffffffffffffffffffffff82613653565b61369a8683613653565b95508019841693508086168417925050509392505050565b60006136cd6136c86136c38461251f565b612c97565b61251f565b9050919050565b6000819050919050565b6136e7836136b2565b6136fb6136f3826136d4565b848454613660565b825550505050565b600090565b613710613703565b61371b8184846136de565b505050565b5b8181101561373f57613734600082613708565b600181019050613721565b5050565b601f82111561378457613755816131ef565b61375e84613643565b8101602085101561376d578190505b61378161377985613643565b830182613720565b50505b505050565b600082821c905092915050565b60006137a760001984600802613789565b1980831691505092915050565b60006137c08383613796565b9150826002028217905092915050565b6137d982612809565b67ffffffffffffffff8111156137f2576137f1612695565b5b6137fc82546131b3565b613807828285613743565b600060209050601f83116001811461383a5760008415613828578287015190505b61383285826137b4565b86555061389a565b601f198416613848866131ef565b60005b828110156138705784890151825560018201915060208501945060208101905061384b565b8683101561388d5784890151613889601f891682613796565b8355505b6001600288020188555050505b505050505050565b7f455243313135353a206d696e7420746f20746865207a65726f2061646472657360008201527f7300000000000000000000000000000000000000000000000000000000000000602082015250565b60006138fe602183612814565b9150613909826138a2565b604082019050919050565b6000602082019050818103600083015261392d816138f1565b9050919050565b7f455243313135353a2069647320616e6420616d6f756e7473206c656e6774682060008201527f6d69736d61746368000000000000000000000000000000000000000000000000602082015250565b6000613990602883612814565b915061399b82613934565b604082019050919050565b600060208201905081810360008301526139bf81613983565b9050919050565b600060408201905081810360008301526139e08185612eac565b905081810360208301526139f48184612eac565b90509392505050565b7f455243313135353a207472616e7366657220746f20746865207a65726f20616460008201527f6472657373000000000000000000000000000000000000000000000000000000602082015250565b6000613a59602583612814565b9150613a64826139fd565b604082019050919050565b60006020820190508181036000830152613a8881613a4c565b9050919050565b7f455243313135353a20696e73756666696369656e742062616c616e636520666f60008201527f72207472616e7366657200000000000000000000000000000000000000000000602082015250565b6000613aeb602a83612814565b9150613af682613a8f565b604082019050919050565b60006020820190508181036000830152613b1a81613ade565b9050919050565b6000604082019050613b366000830185612595565b613b436020830184612595565b9392505050565b613b53816124e1565b82525050565b6000604082019050613b6e6000830185613b4a565b613b7b6020830184613b4a565b9392505050565b600081519050613b9181612faf565b92915050565b600060208284031215613bad57613bac6124b7565b5b6000613bbb84828501613b82565b91505092915050565b6000602082019050613bd96000830184613b4a565b92915050565b7f416363657373436f6e74726f6c3a206163636f756e7420000000000000000000600082015250565b6000613c156017836131e4565b9150613c2082613bdf565b601782019050919050565b7f206973206d697373696e6720726f6c6520000000000000000000000000000000600082015250565b6000613c616011836131e4565b9150613c6c82613c2b565b601182019050919050565b6000613c8282613c08565b9150613c8e8285613287565b9150613c9982613c54565b9150613ca58284613287565b91508190509392505050565b600081519050919050565b600082825260208201905092915050565b6000613cd882613cb1565b613ce28185613cbc565b9350613cf2818560208601612825565b613cfb81612684565b840191505092915050565b600060a082019050613d1b6000830188613b4a565b613d286020830187613b4a565b8181036040830152613d3a8186612eac565b90508181036060830152613d4e8185612eac565b90508181036080830152613d628184613ccd565b90509695505050505050565b600081519050613d7d816125eb565b92915050565b600060208284031215613d9957613d986124b7565b5b6000613da784828501613d6e565b91505092915050565b60008160e01c9050919050565b600060033d1115613ddc5760046000803e613dd9600051613db0565b90505b90565b600060443d10613e6c57613df16124ad565b60043d036004823e80513d602482011167ffffffffffffffff82111715613e19575050613e6c565b808201805167ffffffffffffffff811115613e375750505050613e6c565b80602083010160043d038501811115613e54575050505050613e6c565b613e63826020018501866126c4565b82955050505050505b90565b7f455243313135353a207472616e7366657220746f206e6f6e2d4552433131353560008201527f526563656976657220696d706c656d656e746572000000000000000000000000602082015250565b6000613ecb603483612814565b9150613ed682613e6f565b604082019050919050565b60006020820190508181036000830152613efa81613ebe565b9050919050565b7f455243313135353a204552433131353552656365697665722072656a6563746560008201527f6420746f6b656e73000000000000000000000000000000000000000000000000602082015250565b6000613f5d602883612814565b9150613f6882613f01565b604082019050919050565b60006020820190508181036000830152613f8c81613f50565b9050919050565b600060a082019050613fa86000830188613b4a565b613fb56020830187613b4a565b613fc26040830186612595565b613fcf6060830185612595565b8181036080830152613fe18184613ccd565b90509695505050505050565b7f455243313135353a2073657474696e6720617070726f76616c2073746174757360008201527f20666f722073656c660000000000000000000000000000000000000000000000602082015250565b6000614049602983612814565b915061405482613fed565b604082019050919050565b600060208201905081810360008301526140788161403c565b905091905056fea2646970667358221220785d5182dd84117bd780260039cf320a4cf0bd7f0c23658106e11618c5c67afc64736f6c63430008110033697066733a2f2f516d526f517459454d36776b45586d4c39504766377177574852384a727a63326f424e37736e54676646416a46422f322e6a736f6e",
			"opcodes": "PUSH1 0x80 PUSH1 0x40 MSTORE PUSH1 0x40 MLOAD DUP1 PUSH1 0x20 ADD PUSH1 0x40 MSTORE DUP1 PUSH1 0x0 DUP2 MSTORE POP PUSH1 0x4 SWAP1 DUP2 PUSH3 0x24 SWAP2 SWAP1 PUSH3 0xFF2 JUMP JUMPDEST POP PUSH1 0x40 MLOAD DUP1 PUSH1 0x40 ADD PUSH1 0x40 MSTORE DUP1 PUSH1 0x9 DUP2 MSTORE PUSH1 0x20 ADD PUSH32 0x30626A65637472306E0000000000000000000000000000000000000000000000 DUP2 MSTORE POP PUSH1 0x6 SWAP1 DUP2 PUSH3 0x6B SWAP2 SWAP1 PUSH3 0xFF2 JUMP JUMPDEST POP PUSH1 0x40 MLOAD DUP1 PUSH1 0x40 ADD PUSH1 0x40 MSTORE DUP1 PUSH1 0x9 DUP2 MSTORE PUSH1 0x20 ADD PUSH32 0x30626A65637472306E0000000000000000000000000000000000000000000000 DUP2 MSTORE POP PUSH1 0x7 SWAP1 DUP2 PUSH3 0xB2 SWAP2 SWAP1 PUSH3 0xFF2 JUMP JUMPDEST POP CALLVALUE DUP1 ISZERO PUSH3 0xC0 JUMPI PUSH1 0x0 DUP1 REVERT JUMPDEST POP PUSH1 0x40 MLOAD DUP1 PUSH1 0x20 ADD PUSH1 0x40 MSTORE DUP1 PUSH1 0x0 DUP2 MSTORE POP PUSH20 0x3CC6CDDA760B79BAFA08DF41ECFA224F810DCEB6 PUSH1 0x1 PUSH1 0x0 PUSH14 0xAAEB6D7670E522A718067333CD4E PUSH20 0xFFFFFFFFFFFFFFFFFFFFFFFFFFFFFFFFFFFFFFFF AND EXTCODESIZE GT ISZERO PUSH3 0x2DD JUMPI DUP1 ISZERO PUSH3 0x1A3 JUMPI PUSH14 0xAAEB6D7670E522A718067333CD4E PUSH20 0xFFFFFFFFFFFFFFFFFFFFFFFFFFFFFFFFFFFFFFFF AND PUSH4 0x7D3E3DBE ADDRESS DUP5 PUSH1 0x40 MLOAD DUP4 PUSH4 0xFFFFFFFF AND PUSH1 0xE0 SHL DUP2 MSTORE PUSH1 0x4 ADD PUSH3 0x169 SWAP3 SWAP2 SWAP1 PUSH3 0x111E JUMP JUMPDEST PUSH1 0x0 PUSH1 0x40 MLOAD DUP1 DUP4 SUB DUP2 PUSH1 0x0 DUP8 DUP1 EXTCODESIZE ISZERO DUP1 ISZERO PUSH3 0x184 JUMPI PUSH1 0x0 DUP1 REVERT JUMPDEST POP GAS CALL ISZERO DUP1 ISZERO PUSH3 0x199 JUMPI RETURNDATASIZE PUSH1 0x0 DUP1 RETURNDATACOPY RETURNDATASIZE PUSH1 0x0 REVERT JUMPDEST POP POP POP POP PUSH3 0x2DC JUMP JUMPDEST PUSH1 0x0 PUSH20 0xFFFFFFFFFFFFFFFFFFFFFFFFFFFFFFFFFFFFFFFF AND DUP3 PUSH20 0xFFFFFFFFFFFFFFFFFFFFFFFFFFFFFFFFFFFFFFFF AND EQ PUSH3 0x25D JUMPI PUSH14 0xAAEB6D7670E522A718067333CD4E PUSH20 0xFFFFFFFFFFFFFFFFFFFFFFFFFFFFFFFFFFFFFFFF AND PUSH4 0xA0AF2903 ADDRESS DUP5 PUSH1 0x40 MLOAD DUP4 PUSH4 0xFFFFFFFF AND PUSH1 0xE0 SHL DUP2 MSTORE PUSH1 0x4 ADD PUSH3 0x223 SWAP3 SWAP2 SWAP1 PUSH3 0x111E JUMP JUMPDEST PUSH1 0x0 PUSH1 0x40 MLOAD DUP1 DUP4 SUB DUP2 PUSH1 0x0 DUP8 DUP1 EXTCODESIZE ISZERO DUP1 ISZERO PUSH3 0x23E JUMPI PUSH1 0x0 DUP1 REVERT JUMPDEST POP GAS CALL ISZERO DUP1 ISZERO PUSH3 0x253 JUMPI RETURNDATASIZE PUSH1 0x0 DUP1 RETURNDATACOPY RETURNDATASIZE PUSH1 0x0 REVERT JUMPDEST POP POP POP POP PUSH3 0x2DB JUMP JUMPDEST PUSH14 0xAAEB6D7670E522A718067333CD4E PUSH20 0xFFFFFFFFFFFFFFFFFFFFFFFFFFFFFFFFFFFFFFFF AND PUSH4 0x4420E486 ADDRESS PUSH1 0x40 MLOAD DUP3 PUSH4 0xFFFFFFFF AND PUSH1 0xE0 SHL DUP2 MSTORE PUSH1 0x4 ADD PUSH3 0x2A6 SWAP2 SWAP1 PUSH3 0x114B JUMP JUMPDEST PUSH1 0x0 PUSH1 0x40 MLOAD DUP1 DUP4 SUB DUP2 PUSH1 0x0 DUP8 DUP1 EXTCODESIZE ISZERO DUP1 ISZERO PUSH3 0x2C1 JUMPI PUSH1 0x0 DUP1 REVERT JUMPDEST POP GAS CALL ISZERO DUP1 ISZERO PUSH3 0x2D6 JUMPI RETURNDATASIZE PUSH1 0x0 DUP1 RETURNDATACOPY RETURNDATASIZE PUSH1 0x0 REVERT JUMPDEST POP POP POP POP JUMPDEST JUMPDEST JUMPDEST POP POP PUSH3 0x2F0 DUP2 PUSH3 0x3BE PUSH1 0x20 SHL PUSH1 0x20 SHR JUMP JUMPDEST POP PUSH3 0x306 PUSH1 0x0 DUP1 SHL CALLER PUSH3 0x3D3 PUSH1 0x20 SHL PUSH1 0x20 SHR JUMP JUMPDEST PUSH3 0x338 PUSH32 0x7804D923F43A17D325D77E781528E0793B2EDD9890AB45FC64EFD7B4B427744C CALLER PUSH3 0x3D3 PUSH1 0x20 SHL PUSH1 0x20 SHR JUMP JUMPDEST PUSH3 0x36A PUSH32 0x9F2DF0FED2C77648DE5860A4CC508CD0818C85B8B8A1AB4CEEEF8D981C8956A6 CALLER PUSH3 0x3D3 PUSH1 0x20 SHL PUSH1 0x20 SHR JUMP JUMPDEST PUSH3 0x394 PUSH1 0x40 MLOAD DUP1 PUSH1 0x60 ADD PUSH1 0x40 MSTORE DUP1 PUSH1 0x3C DUP2 MSTORE PUSH1 0x20 ADD PUSH3 0x59F0 PUSH1 0x3C SWAP2 CODECOPY PUSH3 0x3BE PUSH1 0x20 SHL PUSH1 0x20 SHR JUMP JUMPDEST PUSH3 0x3B8 CALLER PUSH1 0x2 DUP1 PUSH1 0x40 MLOAD DUP1 PUSH1 0x20 ADD PUSH1 0x40 MSTORE DUP1 PUSH1 0x0 DUP2 MSTORE POP PUSH3 0x4C4 PUSH1 0x20 SHL PUSH1 0x20 SHR JUMP JUMPDEST PUSH3 0x192B JUMP JUMPDEST DUP1 PUSH1 0x3 SWAP1 DUP2 PUSH3 0x3CF SWAP2 SWAP1 PUSH3 0xFF2 JUMP JUMPDEST POP POP JUMP JUMPDEST PUSH3 0x3E5 DUP3 DUP3 PUSH3 0x511 PUSH1 0x20 SHL PUSH1 0x20 SHR JUMP JUMPDEST PUSH3 0x4C0 JUMPI PUSH1 0x1 PUSH1 0x0 DUP1 DUP5 DUP2 MSTORE PUSH1 0x20 ADD SWAP1 DUP2 MSTORE PUSH1 0x20 ADD PUSH1 0x0 KECCAK256 PUSH1 0x0 ADD PUSH1 0x0 DUP4 PUSH20 0xFFFFFFFFFFFFFFFFFFFFFFFFFFFFFFFFFFFFFFFF AND PUSH20 0xFFFFFFFFFFFFFFFFFFFFFFFFFFFFFFFFFFFFFFFF AND DUP2 MSTORE PUSH1 0x20 ADD SWAP1 DUP2 MSTORE PUSH1 0x20 ADD PUSH1 0x0 KECCAK256 PUSH1 0x0 PUSH2 0x100 EXP DUP2 SLOAD DUP2 PUSH1 0xFF MUL NOT AND SWAP1 DUP4 ISZERO ISZERO MUL OR SWAP1 SSTORE POP PUSH3 0x465 PUSH3 0x57B PUSH1 0x20 SHL PUSH1 0x20 SHR JUMP JUMPDEST PUSH20 0xFFFFFFFFFFFFFFFFFFFFFFFFFFFFFFFFFFFFFFFF AND DUP2 PUSH20 0xFFFFFFFFFFFFFFFFFFFFFFFFFFFFFFFFFFFFFFFF AND DUP4 PUSH32 0x2F8788117E7EFF1D82E926EC794901D17C78024A50270940304540A733656F0D PUSH1 0x40 MLOAD PUSH1 0x40 MLOAD DUP1 SWAP2 SUB SWAP1 LOG4 JUMPDEST POP POP JUMP JUMPDEST PUSH32 0x9F2DF0FED2C77648DE5860A4CC508CD0818C85B8B8A1AB4CEEEF8D981C8956A6 PUSH3 0x4F6 DUP2 PUSH3 0x583 PUSH1 0x20 SHL PUSH1 0x20 SHR JUMP JUMPDEST PUSH3 0x50A DUP6 DUP6 DUP6 DUP6 PUSH3 0x5A7 PUSH1 0x20 SHL PUSH1 0x20 SHR JUMP JUMPDEST POP POP POP POP POP JUMP JUMPDEST PUSH1 0x0 DUP1 PUSH1 0x0 DUP5 DUP2 MSTORE PUSH1 0x20 ADD SWAP1 DUP2 MSTORE PUSH1 0x20 ADD PUSH1 0x0 KECCAK256 PUSH1 0x0 ADD PUSH1 0x0 DUP4 PUSH20 0xFFFFFFFFFFFFFFFFFFFFFFFFFFFFFFFFFFFFFFFF AND PUSH20 0xFFFFFFFFFFFFFFFFFFFFFFFFFFFFFFFFFFFFFFFF AND DUP2 MSTORE PUSH1 0x20 ADD SWAP1 DUP2 MSTORE PUSH1 0x20 ADD PUSH1 0x0 KECCAK256 PUSH1 0x0 SWAP1 SLOAD SWAP1 PUSH2 0x100 EXP SWAP1 DIV PUSH1 0xFF AND SWAP1 POP SWAP3 SWAP2 POP POP JUMP JUMPDEST PUSH1 0x0 CALLER SWAP1 POP SWAP1 JUMP JUMPDEST PUSH3 0x5A4 DUP2 PUSH3 0x598 PUSH3 0x57B PUSH1 0x20 SHL PUSH1 0x20 SHR JUMP JUMPDEST PUSH3 0x78F PUSH1 0x20 SHL PUSH1 0x20 SHR JUMP JUMPDEST POP JUMP JUMPDEST PUSH1 0x0 PUSH20 0xFFFFFFFFFFFFFFFFFFFFFFFFFFFFFFFFFFFFFFFF AND DUP5 PUSH20 0xFFFFFFFFFFFFFFFFFFFFFFFFFFFFFFFFFFFFFFFF AND SUB PUSH3 0x619 JUMPI PUSH1 0x40 MLOAD PUSH32 0x8C379A000000000000000000000000000000000000000000000000000000000 DUP2 MSTORE PUSH1 0x4 ADD PUSH3 0x610 SWAP1 PUSH3 0x11EF JUMP JUMPDEST PUSH1 0x40 MLOAD DUP1 SWAP2 SUB SWAP1 REVERT JUMPDEST PUSH1 0x0 PUSH3 0x62B PUSH3 0x57B PUSH1 0x20 SHL PUSH1 0x20 SHR JUMP JUMPDEST SWAP1 POP PUSH1 0x0 PUSH3 0x640 DUP6 PUSH3 0x83B PUSH1 0x20 SHL PUSH1 0x20 SHR JUMP JUMPDEST SWAP1 POP PUSH1 0x0 PUSH3 0x655 DUP6 PUSH3 0x83B PUSH1 0x20 SHL PUSH1 0x20 SHR JUMP JUMPDEST SWAP1 POP PUSH3 0x66E DUP4 PUSH1 0x0 DUP10 DUP6 DUP6 DUP10 PUSH3 0x8BC PUSH1 0x20 SHL PUSH1 0x20 SHR JUMP JUMPDEST DUP5 PUSH1 0x1 PUSH1 0x0 DUP9 DUP2 MSTORE PUSH1 0x20 ADD SWAP1 DUP2 MSTORE PUSH1 0x20 ADD PUSH1 0x0 KECCAK256 PUSH1 0x0 DUP10 PUSH20 0xFFFFFFFFFFFFFFFFFFFFFFFFFFFFFFFFFFFFFFFF AND PUSH20 0xFFFFFFFFFFFFFFFFFFFFFFFFFFFFFFFFFFFFFFFF AND DUP2 MSTORE PUSH1 0x20 ADD SWAP1 DUP2 MSTORE PUSH1 0x20 ADD PUSH1 0x0 KECCAK256 PUSH1 0x0 DUP3 DUP3 SLOAD PUSH3 0x6D0 SWAP2 SWAP1 PUSH3 0x1240 JUMP JUMPDEST SWAP3 POP POP DUP2 SWAP1 SSTORE POP DUP7 PUSH20 0xFFFFFFFFFFFFFFFFFFFFFFFFFFFFFFFFFFFFFFFF AND PUSH1 0x0 PUSH20 0xFFFFFFFFFFFFFFFFFFFFFFFFFFFFFFFFFFFFFFFF AND DUP5 PUSH20 0xFFFFFFFFFFFFFFFFFFFFFFFFFFFFFFFFFFFFFFFF AND PUSH32 0xC3D58168C5AE7397731D063D5BBF3D657854427343F4C083240F7AACAA2D0F62 DUP10 DUP10 PUSH1 0x40 MLOAD PUSH3 0x750 SWAP3 SWAP2 SWAP1 PUSH3 0x128C JUMP JUMPDEST PUSH1 0x40 MLOAD DUP1 SWAP2 SUB SWAP1 LOG4 PUSH3 0x76F DUP4 PUSH1 0x0 DUP10 DUP6 DUP6 DUP10 PUSH3 0x8C4 PUSH1 0x20 SHL PUSH1 0x20 SHR JUMP JUMPDEST PUSH3 0x786 DUP4 PUSH1 0x0 DUP10 DUP10 DUP10 DUP10 PUSH3 0x8CC PUSH1 0x20 SHL PUSH1 0x20 SHR JUMP JUMPDEST POP POP POP POP POP POP POP JUMP JUMPDEST PUSH3 0x7A1 DUP3 DUP3 PUSH3 0x511 PUSH1 0x20 SHL PUSH1 0x20 SHR JUMP JUMPDEST PUSH3 0x837 JUMPI PUSH3 0x7BC DUP2 PUSH3 0xAC5 PUSH1 0x20 SHL PUSH3 0xCE8 OR PUSH1 0x20 SHR JUMP JUMPDEST PUSH3 0x7D7 DUP4 PUSH1 0x0 SHR PUSH1 0x20 PUSH3 0xAFA PUSH1 0x20 SHL PUSH3 0xD15 OR PUSH1 0x20 SHR JUMP JUMPDEST PUSH1 0x40 MLOAD PUSH1 0x20 ADD PUSH3 0x7EA SWAP3 SWAP2 SWAP1 PUSH3 0x13C7 JUMP JUMPDEST PUSH1 0x40 MLOAD PUSH1 0x20 DUP2 DUP4 SUB SUB DUP2 MSTORE SWAP1 PUSH1 0x40 MSTORE PUSH1 0x40 MLOAD PUSH32 0x8C379A000000000000000000000000000000000000000000000000000000000 DUP2 MSTORE PUSH1 0x4 ADD PUSH3 0x82E SWAP2 SWAP1 PUSH3 0x145B JUMP JUMPDEST PUSH1 0x40 MLOAD DUP1 SWAP2 SUB SWAP1 REVERT JUMPDEST POP POP JUMP JUMPDEST PUSH1 0x60 PUSH1 0x0 PUSH1 0x1 PUSH8 0xFFFFFFFFFFFFFFFF DUP2 GT ISZERO PUSH3 0x85D JUMPI PUSH3 0x85C PUSH3 0xD83 JUMP JUMPDEST JUMPDEST PUSH1 0x40 MLOAD SWAP1 DUP1 DUP3 MSTORE DUP1 PUSH1 0x20 MUL PUSH1 0x20 ADD DUP3 ADD PUSH1 0x40 MSTORE DUP1 ISZERO PUSH3 0x88C JUMPI DUP2 PUSH1 0x20 ADD PUSH1 0x20 DUP3 MUL DUP1 CALLDATASIZE DUP4 CALLDATACOPY DUP1 DUP3 ADD SWAP2 POP POP SWAP1 POP JUMPDEST POP SWAP1 POP DUP3 DUP2 PUSH1 0x0 DUP2 MLOAD DUP2 LT PUSH3 0x8A7 JUMPI PUSH3 0x8A6 PUSH3 0x147F JUMP JUMPDEST JUMPDEST PUSH1 0x20 MUL PUSH1 0x20 ADD ADD DUP2 DUP2 MSTORE POP POP DUP1 SWAP2 POP POP SWAP2 SWAP1 POP JUMP JUMPDEST POP POP POP POP POP POP JUMP JUMPDEST POP POP POP POP POP POP JUMP JUMPDEST PUSH3 0x8F8 DUP5 PUSH20 0xFFFFFFFFFFFFFFFFFFFFFFFFFFFFFFFFFFFFFFFF AND PUSH3 0xD55 PUSH1 0x20 SHL PUSH3 0xF51 OR PUSH1 0x20 SHR JUMP JUMPDEST ISZERO PUSH3 0xABD JUMPI DUP4 PUSH20 0xFFFFFFFFFFFFFFFFFFFFFFFFFFFFFFFFFFFFFFFF AND PUSH4 0xF23A6E61 DUP8 DUP8 DUP7 DUP7 DUP7 PUSH1 0x40 MLOAD DUP7 PUSH4 0xFFFFFFFF AND PUSH1 0xE0 SHL DUP2 MSTORE PUSH1 0x4 ADD PUSH3 0x941 SWAP6 SWAP5 SWAP4 SWAP3 SWAP2 SWAP1 PUSH3 0x150B JUMP JUMPDEST PUSH1 0x20 PUSH1 0x40 MLOAD DUP1 DUP4 SUB DUP2 PUSH1 0x0 DUP8 GAS CALL SWAP3 POP POP POP DUP1 ISZERO PUSH3 0x980 JUMPI POP PUSH1 0x40 MLOAD RETURNDATASIZE PUSH1 0x1F NOT PUSH1 0x1F DUP3 ADD AND DUP3 ADD DUP1 PUSH1 0x40 MSTORE POP DUP2 ADD SWAP1 PUSH3 0x97D SWAP2 SWAP1 PUSH3 0x15DB JUMP JUMPDEST PUSH1 0x1 JUMPDEST PUSH3 0xA31 JUMPI PUSH3 0x98F PUSH3 0x161A JUMP JUMPDEST DUP1 PUSH4 0x8C379A0 SUB PUSH3 0x9F2 JUMPI POP PUSH3 0x9A6 PUSH3 0x1675 JUMP JUMPDEST DUP1 PUSH3 0x9B3 JUMPI POP PUSH3 0x9F4 JUMP JUMPDEST DUP1 PUSH1 0x40 MLOAD PUSH32 0x8C379A000000000000000000000000000000000000000000000000000000000 DUP2 MSTORE PUSH1 0x4 ADD PUSH3 0x9E9 SWAP2 SWAP1 PUSH3 0x145B JUMP JUMPDEST PUSH1 0x40 MLOAD DUP1 SWAP2 SUB SWAP1 REVERT JUMPDEST POP JUMPDEST PUSH1 0x40 MLOAD PUSH32 0x8C379A000000000000000000000000000000000000000000000000000000000 DUP2 MSTORE PUSH1 0x4 ADD PUSH3 0xA28 SWAP1 PUSH3 0x1786 JUMP JUMPDEST PUSH1 0x40 MLOAD DUP1 SWAP2 SUB SWAP1 REVERT JUMPDEST PUSH4 0xF23A6E61 PUSH1 0xE0 SHL PUSH28 0xFFFFFFFFFFFFFFFFFFFFFFFFFFFFFFFFFFFFFFFFFFFFFFFFFFFFFFFF NOT AND DUP2 PUSH28 0xFFFFFFFFFFFFFFFFFFFFFFFFFFFFFFFFFFFFFFFFFFFFFFFFFFFFFFFF NOT AND EQ PUSH3 0xABB JUMPI PUSH1 0x40 MLOAD PUSH32 0x8C379A000000000000000000000000000000000000000000000000000000000 DUP2 MSTORE PUSH1 0x4 ADD PUSH3 0xAB2 SWAP1 PUSH3 0x181E JUMP JUMPDEST PUSH1 0x40 MLOAD DUP1 SWAP2 SUB SWAP1 REVERT JUMPDEST POP JUMPDEST POP POP POP POP POP POP JUMP JUMPDEST PUSH1 0x60 PUSH3 0xAF3 DUP3 PUSH20 0xFFFFFFFFFFFFFFFFFFFFFFFFFFFFFFFFFFFFFFFF AND PUSH1 0x14 PUSH1 0xFF AND PUSH3 0xAFA PUSH1 0x20 SHL PUSH1 0x20 SHR JUMP JUMPDEST SWAP1 POP SWAP2 SWAP1 POP JUMP JUMPDEST PUSH1 0x60 PUSH1 0x0 PUSH1 0x2 DUP4 PUSH1 0x2 PUSH3 0xB0F SWAP2 SWAP1 PUSH3 0x1840 JUMP JUMPDEST PUSH3 0xB1B SWAP2 SWAP1 PUSH3 0x1240 JUMP JUMPDEST PUSH8 0xFFFFFFFFFFFFFFFF DUP2 GT ISZERO PUSH3 0xB37 JUMPI PUSH3 0xB36 PUSH3 0xD83 JUMP JUMPDEST JUMPDEST PUSH1 0x40 MLOAD SWAP1 DUP1 DUP3 MSTORE DUP1 PUSH1 0x1F ADD PUSH1 0x1F NOT AND PUSH1 0x20 ADD DUP3 ADD PUSH1 0x40 MSTORE DUP1 ISZERO PUSH3 0xB6A JUMPI DUP2 PUSH1 0x20 ADD PUSH1 0x1 DUP3 MUL DUP1 CALLDATASIZE DUP4 CALLDATACOPY DUP1 DUP3 ADD SWAP2 POP POP SWAP1 POP JUMPDEST POP SWAP1 POP PUSH32 0x3000000000000000000000000000000000000000000000000000000000000000 DUP2 PUSH1 0x0 DUP2 MLOAD DUP2 LT PUSH3 0xBA5 JUMPI PUSH3 0xBA4 PUSH3 0x147F JUMP JUMPDEST JUMPDEST PUSH1 0x20 ADD ADD SWAP1 PUSH31 0xFFFFFFFFFFFFFFFFFFFFFFFFFFFFFFFFFFFFFFFFFFFFFFFFFFFFFFFFFFFFFF NOT AND SWAP1 DUP2 PUSH1 0x0 BYTE SWAP1 MSTORE8 POP PUSH32 0x7800000000000000000000000000000000000000000000000000000000000000 DUP2 PUSH1 0x1 DUP2 MLOAD DUP2 LT PUSH3 0xC0C JUMPI PUSH3 0xC0B PUSH3 0x147F JUMP JUMPDEST JUMPDEST PUSH1 0x20 ADD ADD SWAP1 PUSH31 0xFFFFFFFFFFFFFFFFFFFFFFFFFFFFFFFFFFFFFFFFFFFFFFFFFFFFFFFFFFFFFF NOT AND SWAP1 DUP2 PUSH1 0x0 BYTE SWAP1 MSTORE8 POP PUSH1 0x0 PUSH1 0x1 DUP5 PUSH1 0x2 PUSH3 0xC4E SWAP2 SWAP1 PUSH3 0x1840 JUMP JUMPDEST PUSH3 0xC5A SWAP2 SWAP1 PUSH3 0x1240 JUMP JUMPDEST SWAP1 POP JUMPDEST PUSH1 0x1 DUP2 GT ISZERO PUSH3 0xD04 JUMPI PUSH32 0x3031323334353637383961626364656600000000000000000000000000000000 PUSH1 0xF DUP7 AND PUSH1 0x10 DUP2 LT PUSH3 0xCA0 JUMPI PUSH3 0xC9F PUSH3 0x147F JUMP JUMPDEST JUMPDEST BYTE PUSH1 0xF8 SHL DUP3 DUP3 DUP2 MLOAD DUP2 LT PUSH3 0xCBA JUMPI PUSH3 0xCB9 PUSH3 0x147F JUMP JUMPDEST JUMPDEST PUSH1 0x20 ADD ADD SWAP1 PUSH31 0xFFFFFFFFFFFFFFFFFFFFFFFFFFFFFFFFFFFFFFFFFFFFFFFFFFFFFFFFFFFFFF NOT AND SWAP1 DUP2 PUSH1 0x0 BYTE SWAP1 MSTORE8 POP PUSH1 0x4 DUP6 SWAP1 SHR SWAP5 POP DUP1 PUSH3 0xCFC SWAP1 PUSH3 0x188B JUMP JUMPDEST SWAP1 POP PUSH3 0xC5D JUMP JUMPDEST POP PUSH1 0x0 DUP5 EQ PUSH3 0xD4B JUMPI PUSH1 0x40 MLOAD PUSH32 0x8C379A000000000000000000000000000000000000000000000000000000000 DUP2 MSTORE PUSH1 0x4 ADD PUSH3 0xD42 SWAP1 PUSH3 0x1909 JUMP JUMPDEST PUSH1 0x40 MLOAD DUP1 SWAP2 SUB SWAP1 REVERT JUMPDEST DUP1 SWAP2 POP POP SWAP3 SWAP2 POP POP JUMP JUMPDEST PUSH1 0x0 DUP1 DUP3 PUSH20 0xFFFFFFFFFFFFFFFFFFFFFFFFFFFFFFFFFFFFFFFF AND EXTCODESIZE GT SWAP1 POP SWAP2 SWAP1 POP JUMP JUMPDEST PUSH1 0x0 DUP2 MLOAD SWAP1 POP SWAP2 SWAP1 POP JUMP JUMPDEST PUSH32 0x4E487B7100000000000000000000000000000000000000000000000000000000 PUSH1 0x0 MSTORE PUSH1 0x41 PUSH1 0x4 MSTORE PUSH1 0x24 PUSH1 0x0 REVERT JUMPDEST PUSH32 0x4E487B7100000000000000000000000000000000000000000000000000000000 PUSH1 0x0 MSTORE PUSH1 0x22 PUSH1 0x4 MSTORE PUSH1 0x24 PUSH1 0x0 REVERT JUMPDEST PUSH1 0x0 PUSH1 0x2 DUP3 DIV SWAP1 POP PUSH1 0x1 DUP3 AND DUP1 PUSH3 0xDFA JUMPI PUSH1 0x7F DUP3 AND SWAP2 POP JUMPDEST PUSH1 0x20 DUP3 LT DUP2 SUB PUSH3 0xE10 JUMPI PUSH3 0xE0F PUSH3 0xDB2 JUMP JUMPDEST JUMPDEST POP SWAP2 SWAP1 POP JUMP JUMPDEST PUSH1 0x0 DUP2 SWAP1 POP DUP2 PUSH1 0x0 MSTORE PUSH1 0x20 PUSH1 0x0 KECCAK256 SWAP1 POP SWAP2 SWAP1 POP JUMP JUMPDEST PUSH1 0x0 PUSH1 0x20 PUSH1 0x1F DUP4 ADD DIV SWAP1 POP SWAP2 SWAP1 POP JUMP JUMPDEST PUSH1 0x0 DUP3 DUP3 SHL SWAP1 POP SWAP3 SWAP2 POP POP JUMP JUMPDEST PUSH1 0x0 PUSH1 0x8 DUP4 MUL PUSH3 0xE7A PUSH32 0xFFFFFFFFFFFFFFFFFFFFFFFFFFFFFFFFFFFFFFFFFFFFFFFFFFFFFFFFFFFFFFFF DUP3 PUSH3 0xE3B JUMP JUMPDEST PUSH3 0xE86 DUP7 DUP4 PUSH3 0xE3B JUMP JUMPDEST SWAP6 POP DUP1 NOT DUP5 AND SWAP4 POP DUP1 DUP7 AND DUP5 OR SWAP3 POP POP POP SWAP4 SWAP3 POP POP POP JUMP JUMPDEST PUSH1 0x0 DUP2 SWAP1 POP SWAP2 SWAP1 POP JUMP JUMPDEST PUSH1 0x0 DUP2 SWAP1 POP SWAP2 SWAP1 POP JUMP JUMPDEST PUSH1 0x0 PUSH3 0xED3 PUSH3 0xECD PUSH3 0xEC7 DUP5 PUSH3 0xE9E JUMP JUMPDEST PUSH3 0xEA8 JUMP JUMPDEST PUSH3 0xE9E JUMP JUMPDEST SWAP1 POP SWAP2 SWAP1 POP JUMP JUMPDEST PUSH1 0x0 DUP2 SWAP1 POP SWAP2 SWAP1 POP JUMP JUMPDEST PUSH3 0xEEF DUP4 PUSH3 0xEB2 JUMP JUMPDEST PUSH3 0xF07 PUSH3 0xEFE DUP3 PUSH3 0xEDA JUMP JUMPDEST DUP5 DUP5 SLOAD PUSH3 0xE48 JUMP JUMPDEST DUP3 SSTORE POP POP POP POP JUMP JUMPDEST PUSH1 0x0 SWAP1 JUMP JUMPDEST PUSH3 0xF1E PUSH3 0xF0F JUMP JUMPDEST PUSH3 0xF2B DUP2 DUP5 DUP5 PUSH3 0xEE4 JUMP JUMPDEST POP POP POP JUMP JUMPDEST JUMPDEST DUP2 DUP2 LT ISZERO PUSH3 0xF53 JUMPI PUSH3 0xF47 PUSH1 0x0 DUP3 PUSH3 0xF14 JUMP JUMPDEST PUSH1 0x1 DUP2 ADD SWAP1 POP PUSH3 0xF31 JUMP JUMPDEST POP POP JUMP JUMPDEST PUSH1 0x1F DUP3 GT ISZERO PUSH3 0xFA2 JUMPI PUSH3 0xF6C DUP2 PUSH3 0xE16 JUMP JUMPDEST PUSH3 0xF77 DUP5 PUSH3 0xE2B JUMP JUMPDEST DUP2 ADD PUSH1 0x20 DUP6 LT ISZERO PUSH3 0xF87 JUMPI DUP2 SWAP1 POP JUMPDEST PUSH3 0xF9F PUSH3 0xF96 DUP6 PUSH3 0xE2B JUMP JUMPDEST DUP4 ADD DUP3 PUSH3 0xF30 JUMP JUMPDEST POP POP JUMPDEST POP POP POP JUMP JUMPDEST PUSH1 0x0 DUP3 DUP3 SHR SWAP1 POP SWAP3 SWAP2 POP POP JUMP JUMPDEST PUSH1 0x0 PUSH3 0xFC7 PUSH1 0x0 NOT DUP5 PUSH1 0x8 MUL PUSH3 0xFA7 JUMP JUMPDEST NOT DUP1 DUP4 AND SWAP2 POP POP SWAP3 SWAP2 POP POP JUMP JUMPDEST PUSH1 0x0 PUSH3 0xFE2 DUP4 DUP4 PUSH3 0xFB4 JUMP JUMPDEST SWAP2 POP DUP3 PUSH1 0x2 MUL DUP3 OR SWAP1 POP SWAP3 SWAP2 POP POP JUMP JUMPDEST PUSH3 0xFFD DUP3 PUSH3 0xD78 JUMP JUMPDEST PUSH8 0xFFFFFFFFFFFFFFFF DUP2 GT ISZERO PUSH3 0x1019 JUMPI PUSH3 0x1018 PUSH3 0xD83 JUMP JUMPDEST JUMPDEST PUSH3 0x1025 DUP3 SLOAD PUSH3 0xDE1 JUMP JUMPDEST PUSH3 0x1032 DUP3 DUP3 DUP6 PUSH3 0xF57 JUMP JUMPDEST PUSH1 0x0 PUSH1 0x20 SWAP1 POP PUSH1 0x1F DUP4 GT PUSH1 0x1 DUP2 EQ PUSH3 0x106A JUMPI PUSH1 0x0 DUP5 ISZERO PUSH3 0x1055 JUMPI DUP3 DUP8 ADD MLOAD SWAP1 POP JUMPDEST PUSH3 0x1061 DUP6 DUP3 PUSH3 0xFD4 JUMP JUMPDEST DUP7 SSTORE POP PUSH3 0x10D1 JUMP JUMPDEST PUSH1 0x1F NOT DUP5 AND PUSH3 0x107A DUP7 PUSH3 0xE16 JUMP JUMPDEST PUSH1 0x0 JUMPDEST DUP3 DUP2 LT ISZERO PUSH3 0x10A4 JUMPI DUP5 DUP10 ADD MLOAD DUP3 SSTORE PUSH1 0x1 DUP3 ADD SWAP2 POP PUSH1 0x20 DUP6 ADD SWAP5 POP PUSH1 0x20 DUP2 ADD SWAP1 POP PUSH3 0x107D JUMP JUMPDEST DUP7 DUP4 LT ISZERO PUSH3 0x10C4 JUMPI DUP5 DUP10 ADD MLOAD PUSH3 0x10C0 PUSH1 0x1F DUP10 AND DUP3 PUSH3 0xFB4 JUMP JUMPDEST DUP4 SSTORE POP JUMPDEST PUSH1 0x1 PUSH1 0x2 DUP9 MUL ADD DUP9 SSTORE POP POP POP JUMPDEST POP POP POP POP POP POP JUMP JUMPDEST PUSH1 0x0 PUSH20 0xFFFFFFFFFFFFFFFFFFFFFFFFFFFFFFFFFFFFFFFF DUP3 AND SWAP1 POP SWAP2 SWAP1 POP JUMP JUMPDEST PUSH1 0x0 PUSH3 0x1106 DUP3 PUSH3 0x10D9 JUMP JUMPDEST SWAP1 POP SWAP2 SWAP1 POP JUMP JUMPDEST PUSH3 0x1118 DUP2 PUSH3 0x10F9 JUMP JUMPDEST DUP3 MSTORE POP POP JUMP JUMPDEST PUSH1 0x0 PUSH1 0x40 DUP3 ADD SWAP1 POP PUSH3 0x1135 PUSH1 0x0 DUP4 ADD DUP6 PUSH3 0x110D JUMP JUMPDEST PUSH3 0x1144 PUSH1 0x20 DUP4 ADD DUP5 PUSH3 0x110D JUMP JUMPDEST SWAP4 SWAP3 POP POP POP JUMP JUMPDEST PUSH1 0x0 PUSH1 0x20 DUP3 ADD SWAP1 POP PUSH3 0x1162 PUSH1 0x0 DUP4 ADD DUP5 PUSH3 0x110D JUMP JUMPDEST SWAP3 SWAP2 POP POP JUMP JUMPDEST PUSH1 0x0 DUP3 DUP3 MSTORE PUSH1 0x20 DUP3 ADD SWAP1 POP SWAP3 SWAP2 POP POP JUMP JUMPDEST PUSH32 0x455243313135353A206D696E7420746F20746865207A65726F20616464726573 PUSH1 0x0 DUP3 ADD MSTORE PUSH32 0x7300000000000000000000000000000000000000000000000000000000000000 PUSH1 0x20 DUP3 ADD MSTORE POP JUMP JUMPDEST PUSH1 0x0 PUSH3 0x11D7 PUSH1 0x21 DUP4 PUSH3 0x1168 JUMP JUMPDEST SWAP2 POP PUSH3 0x11E4 DUP3 PUSH3 0x1179 JUMP JUMPDEST PUSH1 0x40 DUP3 ADD SWAP1 POP SWAP2 SWAP1 POP JUMP JUMPDEST PUSH1 0x0 PUSH1 0x20 DUP3 ADD SWAP1 POP DUP2 DUP2 SUB PUSH1 0x0 DUP4 ADD MSTORE PUSH3 0x120A DUP2 PUSH3 0x11C8 JUMP JUMPDEST SWAP1 POP SWAP2 SWAP1 POP JUMP JUMPDEST PUSH32 0x4E487B7100000000000000000000000000000000000000000000000000000000 PUSH1 0x0 MSTORE PUSH1 0x11 PUSH1 0x4 MSTORE PUSH1 0x24 PUSH1 0x0 REVERT JUMPDEST PUSH1 0x0 PUSH3 0x124D DUP3 PUSH3 0xE9E JUMP JUMPDEST SWAP2 POP PUSH3 0x125A DUP4 PUSH3 0xE9E JUMP JUMPDEST SWAP3 POP DUP3 DUP3 ADD SWAP1 POP DUP1 DUP3 GT ISZERO PUSH3 0x1275 JUMPI PUSH3 0x1274 PUSH3 0x1211 JUMP JUMPDEST JUMPDEST SWAP3 SWAP2 POP POP JUMP JUMPDEST PUSH3 0x1286 DUP2 PUSH3 0xE9E JUMP JUMPDEST DUP3 MSTORE POP POP JUMP JUMPDEST PUSH1 0x0 PUSH1 0x40 DUP3 ADD SWAP1 POP PUSH3 0x12A3 PUSH1 0x0 DUP4 ADD DUP6 PUSH3 0x127B JUMP JUMPDEST PUSH3 0x12B2 PUSH1 0x20 DUP4 ADD DUP5 PUSH3 0x127B JUMP JUMPDEST SWAP4 SWAP3 POP POP POP JUMP JUMPDEST PUSH1 0x0 DUP2 SWAP1 POP SWAP3 SWAP2 POP POP JUMP JUMPDEST PUSH32 0x416363657373436F6E74726F6C3A206163636F756E7420000000000000000000 PUSH1 0x0 DUP3 ADD MSTORE POP JUMP JUMPDEST PUSH1 0x0 PUSH3 0x12FC PUSH1 0x17 DUP4 PUSH3 0x12B9 JUMP JUMPDEST SWAP2 POP PUSH3 0x1309 DUP3 PUSH3 0x12C4 JUMP JUMPDEST PUSH1 0x17 DUP3 ADD SWAP1 POP SWAP2 SWAP1 POP JUMP JUMPDEST PUSH1 0x0 JUMPDEST DUP4 DUP2 LT ISZERO PUSH3 0x1334 JUMPI DUP1 DUP3 ADD MLOAD DUP2 DUP5 ADD MSTORE PUSH1 0x20 DUP2 ADD SWAP1 POP PUSH3 0x1317 JUMP JUMPDEST PUSH1 0x0 DUP5 DUP5 ADD MSTORE POP POP POP POP JUMP JUMPDEST PUSH1 0x0 PUSH3 0x134D DUP3 PUSH3 0xD78 JUMP JUMPDEST PUSH3 0x1359 DUP2 DUP6 PUSH3 0x12B9 JUMP JUMPDEST SWAP4 POP PUSH3 0x136B DUP2 DUP6 PUSH1 0x20 DUP7 ADD PUSH3 0x1314 JUMP JUMPDEST DUP1 DUP5 ADD SWAP2 POP POP SWAP3 SWAP2 POP POP JUMP JUMPDEST PUSH32 0x206973206D697373696E6720726F6C6520000000000000000000000000000000 PUSH1 0x0 DUP3 ADD MSTORE POP JUMP JUMPDEST PUSH1 0x0 PUSH3 0x13AF PUSH1 0x11 DUP4 PUSH3 0x12B9 JUMP JUMPDEST SWAP2 POP PUSH3 0x13BC DUP3 PUSH3 0x1377 JUMP JUMPDEST PUSH1 0x11 DUP3 ADD SWAP1 POP SWAP2 SWAP1 POP JUMP JUMPDEST PUSH1 0x0 PUSH3 0x13D4 DUP3 PUSH3 0x12ED JUMP JUMPDEST SWAP2 POP PUSH3 0x13E2 DUP3 DUP6 PUSH3 0x1340 JUMP JUMPDEST SWAP2 POP PUSH3 0x13EF DUP3 PUSH3 0x13A0 JUMP JUMPDEST SWAP2 POP PUSH3 0x13FD DUP3 DUP5 PUSH3 0x1340 JUMP JUMPDEST SWAP2 POP DUP2 SWAP1 POP SWAP4 SWAP3 POP POP POP JUMP JUMPDEST PUSH1 0x0 PUSH1 0x1F NOT PUSH1 0x1F DUP4 ADD AND SWAP1 POP SWAP2 SWAP1 POP JUMP JUMPDEST PUSH1 0x0 PUSH3 0x1427 DUP3 PUSH3 0xD78 JUMP JUMPDEST PUSH3 0x1433 DUP2 DUP6 PUSH3 0x1168 JUMP JUMPDEST SWAP4 POP PUSH3 0x1445 DUP2 DUP6 PUSH1 0x20 DUP7 ADD PUSH3 0x1314 JUMP JUMPDEST PUSH3 0x1450 DUP2 PUSH3 0x1409 JUMP JUMPDEST DUP5 ADD SWAP2 POP POP SWAP3 SWAP2 POP POP JUMP JUMPDEST PUSH1 0x0 PUSH1 0x20 DUP3 ADD SWAP1 POP DUP2 DUP2 SUB PUSH1 0x0 DUP4 ADD MSTORE PUSH3 0x1477 DUP2 DUP5 PUSH3 0x141A JUMP JUMPDEST SWAP1 POP SWAP3 SWAP2 POP POP JUMP JUMPDEST PUSH32 0x4E487B7100000000000000000000000000000000000000000000000000000000 PUSH1 0x0 MSTORE PUSH1 0x32 PUSH1 0x4 MSTORE PUSH1 0x24 PUSH1 0x0 REVERT JUMPDEST PUSH1 0x0 DUP2 MLOAD SWAP1 POP SWAP2 SWAP1 POP JUMP JUMPDEST PUSH1 0x0 DUP3 DUP3 MSTORE PUSH1 0x20 DUP3 ADD SWAP1 POP SWAP3 SWAP2 POP POP JUMP JUMPDEST PUSH1 0x0 PUSH3 0x14D7 DUP3 PUSH3 0x14AE JUMP JUMPDEST PUSH3 0x14E3 DUP2 DUP6 PUSH3 0x14B9 JUMP JUMPDEST SWAP4 POP PUSH3 0x14F5 DUP2 DUP6 PUSH1 0x20 DUP7 ADD PUSH3 0x1314 JUMP JUMPDEST PUSH3 0x1500 DUP2 PUSH3 0x1409 JUMP JUMPDEST DUP5 ADD SWAP2 POP POP SWAP3 SWAP2 POP POP JUMP JUMPDEST PUSH1 0x0 PUSH1 0xA0 DUP3 ADD SWAP1 POP PUSH3 0x1522 PUSH1 0x0 DUP4 ADD DUP9 PUSH3 0x110D JUMP JUMPDEST PUSH3 0x1531 PUSH1 0x20 DUP4 ADD DUP8 PUSH3 0x110D JUMP JUMPDEST PUSH3 0x1540 PUSH1 0x40 DUP4 ADD DUP7 PUSH3 0x127B JUMP JUMPDEST PUSH3 0x154F PUSH1 0x60 DUP4 ADD DUP6 PUSH3 0x127B JUMP JUMPDEST DUP2 DUP2 SUB PUSH1 0x80 DUP4 ADD MSTORE PUSH3 0x1563 DUP2 DUP5 PUSH3 0x14CA JUMP JUMPDEST SWAP1 POP SWAP7 SWAP6 POP POP POP POP POP POP JUMP JUMPDEST PUSH1 0x0 PUSH1 0x40 MLOAD SWAP1 POP SWAP1 JUMP JUMPDEST PUSH1 0x0 DUP1 REVERT JUMPDEST PUSH1 0x0 PUSH32 0xFFFFFFFF00000000000000000000000000000000000000000000000000000000 DUP3 AND SWAP1 POP SWAP2 SWAP1 POP JUMP JUMPDEST PUSH3 0x15B5 DUP2 PUSH3 0x157E JUMP JUMPDEST DUP2 EQ PUSH3 0x15C1 JUMPI PUSH1 0x0 DUP1 REVERT JUMPDEST POP JUMP JUMPDEST PUSH1 0x0 DUP2 MLOAD SWAP1 POP PUSH3 0x15D5 DUP2 PUSH3 0x15AA JUMP JUMPDEST SWAP3 SWAP2 POP POP JUMP JUMPDEST PUSH1 0x0 PUSH1 0x20 DUP3 DUP5 SUB SLT ISZERO PUSH3 0x15F4 JUMPI PUSH3 0x15F3 PUSH3 0x1579 JUMP JUMPDEST JUMPDEST PUSH1 0x0 PUSH3 0x1604 DUP5 DUP3 DUP6 ADD PUSH3 0x15C4 JUMP JUMPDEST SWAP2 POP POP SWAP3 SWAP2 POP POP JUMP JUMPDEST PUSH1 0x0 DUP2 PUSH1 0xE0 SHR SWAP1 POP SWAP2 SWAP1 POP JUMP JUMPDEST PUSH1 0x0 PUSH1 0x3 RETURNDATASIZE GT ISZERO PUSH3 0x163C JUMPI PUSH1 0x4 PUSH1 0x0 DUP1 RETURNDATACOPY PUSH3 0x1639 PUSH1 0x0 MLOAD PUSH3 0x160D JUMP JUMPDEST SWAP1 POP JUMPDEST SWAP1 JUMP JUMPDEST PUSH3 0x164A DUP3 PUSH3 0x1409 JUMP JUMPDEST DUP2 ADD DUP2 DUP2 LT PUSH8 0xFFFFFFFFFFFFFFFF DUP3 GT OR ISZERO PUSH3 0x166C JUMPI PUSH3 0x166B PUSH3 0xD83 JUMP JUMPDEST JUMPDEST DUP1 PUSH1 0x40 MSTORE POP POP POP JUMP JUMPDEST PUSH1 0x0 PUSH1 0x44 RETURNDATASIZE LT PUSH3 0x170D JUMPI PUSH3 0x168A PUSH3 0x156F JUMP JUMPDEST PUSH1 0x4 RETURNDATASIZE SUB PUSH1 0x4 DUP3 RETURNDATACOPY DUP1 MLOAD RETURNDATASIZE PUSH1 0x24 DUP3 ADD GT PUSH8 0xFFFFFFFFFFFFFFFF DUP3 GT OR ISZERO PUSH3 0x16B4 JUMPI POP POP PUSH3 0x170D JUMP JUMPDEST DUP1 DUP3 ADD DUP1 MLOAD PUSH8 0xFFFFFFFFFFFFFFFF DUP2 GT ISZERO PUSH3 0x16D4 JUMPI POP POP POP POP PUSH3 0x170D JUMP JUMPDEST DUP1 PUSH1 0x20 DUP4 ADD ADD PUSH1 0x4 RETURNDATASIZE SUB DUP6 ADD DUP2 GT ISZERO PUSH3 0x16F3 JUMPI POP POP POP POP POP PUSH3 0x170D JUMP JUMPDEST PUSH3 0x1704 DUP3 PUSH1 0x20 ADD DUP6 ADD DUP7 PUSH3 0x163F JUMP JUMPDEST DUP3 SWAP6 POP POP POP POP POP POP JUMPDEST SWAP1 JUMP JUMPDEST PUSH32 0x455243313135353A207472616E7366657220746F206E6F6E2D45524331313535 PUSH1 0x0 DUP3 ADD MSTORE PUSH32 0x526563656976657220696D706C656D656E746572000000000000000000000000 PUSH1 0x20 DUP3 ADD MSTORE POP JUMP JUMPDEST PUSH1 0x0 PUSH3 0x176E PUSH1 0x34 DUP4 PUSH3 0x1168 JUMP JUMPDEST SWAP2 POP PUSH3 0x177B DUP3 PUSH3 0x1710 JUMP JUMPDEST PUSH1 0x40 DUP3 ADD SWAP1 POP SWAP2 SWAP1 POP JUMP JUMPDEST PUSH1 0x0 PUSH1 0x20 DUP3 ADD SWAP1 POP DUP2 DUP2 SUB PUSH1 0x0 DUP4 ADD MSTORE PUSH3 0x17A1 DUP2 PUSH3 0x175F JUMP JUMPDEST SWAP1 POP SWAP2 SWAP1 POP JUMP JUMPDEST PUSH32 0x455243313135353A204552433131353552656365697665722072656A65637465 PUSH1 0x0 DUP3 ADD MSTORE PUSH32 0x6420746F6B656E73000000000000000000000000000000000000000000000000 PUSH1 0x20 DUP3 ADD MSTORE POP JUMP JUMPDEST PUSH1 0x0 PUSH3 0x1806 PUSH1 0x28 DUP4 PUSH3 0x1168 JUMP JUMPDEST SWAP2 POP PUSH3 0x1813 DUP3 PUSH3 0x17A8 JUMP JUMPDEST PUSH1 0x40 DUP3 ADD SWAP1 POP SWAP2 SWAP1 POP JUMP JUMPDEST PUSH1 0x0 PUSH1 0x20 DUP3 ADD SWAP1 POP DUP2 DUP2 SUB PUSH1 0x0 DUP4 ADD MSTORE PUSH3 0x1839 DUP2 PUSH3 0x17F7 JUMP JUMPDEST SWAP1 POP SWAP2 SWAP1 POP JUMP JUMPDEST PUSH1 0x0 PUSH3 0x184D DUP3 PUSH3 0xE9E JUMP JUMPDEST SWAP2 POP PUSH3 0x185A DUP4 PUSH3 0xE9E JUMP JUMPDEST SWAP3 POP DUP3 DUP3 MUL PUSH3 0x186A DUP2 PUSH3 0xE9E JUMP JUMPDEST SWAP2 POP DUP3 DUP3 DIV DUP5 EQ DUP4 ISZERO OR PUSH3 0x1884 JUMPI PUSH3 0x1883 PUSH3 0x1211 JUMP JUMPDEST JUMPDEST POP SWAP3 SWAP2 POP POP JUMP JUMPDEST PUSH1 0x0 PUSH3 0x1898 DUP3 PUSH3 0xE9E JUMP JUMPDEST SWAP2 POP PUSH1 0x0 DUP3 SUB PUSH3 0x18AE JUMPI PUSH3 0x18AD PUSH3 0x1211 JUMP JUMPDEST JUMPDEST PUSH1 0x1 DUP3 SUB SWAP1 POP SWAP2 SWAP1 POP JUMP JUMPDEST PUSH32 0x537472696E67733A20686578206C656E67746820696E73756666696369656E74 PUSH1 0x0 DUP3 ADD MSTORE POP JUMP JUMPDEST PUSH1 0x0 PUSH3 0x18F1 PUSH1 0x20 DUP4 PUSH3 0x1168 JUMP JUMPDEST SWAP2 POP PUSH3 0x18FE DUP3 PUSH3 0x18B9 JUMP JUMPDEST PUSH1 0x20 DUP3 ADD SWAP1 POP SWAP2 SWAP1 POP JUMP JUMPDEST PUSH1 0x0 PUSH1 0x20 DUP3 ADD SWAP1 POP DUP2 DUP2 SUB PUSH1 0x0 DUP4 ADD MSTORE PUSH3 0x1924 DUP2 PUSH3 0x18E2 JUMP JUMPDEST SWAP1 POP SWAP2 SWAP1 POP JUMP JUMPDEST PUSH2 0x40B5 DUP1 PUSH3 0x193B PUSH1 0x0 CODECOPY PUSH1 0x0 RETURN INVALID PUSH1 0x80 PUSH1 0x40 MSTORE CALLVALUE DUP1 ISZERO PUSH2 0x10 JUMPI PUSH1 0x0 DUP1 REVERT JUMPDEST POP PUSH1 0x4 CALLDATASIZE LT PUSH2 0x14C JUMPI PUSH1 0x0 CALLDATALOAD PUSH1 0xE0 SHR DUP1 PUSH4 0x4E1273F4 GT PUSH2 0xC3 JUMPI DUP1 PUSH4 0xA217FDDF GT PUSH2 0x7C JUMPI DUP1 PUSH4 0xA217FDDF EQ PUSH2 0x3AD JUMPI DUP1 PUSH4 0xA22CB465 EQ PUSH2 0x3CB JUMPI DUP1 PUSH4 0xD5391393 EQ PUSH2 0x3E7 JUMPI DUP1 PUSH4 0xD547741F EQ PUSH2 0x405 JUMPI DUP1 PUSH4 0xE985E9C5 EQ PUSH2 0x421 JUMPI DUP1 PUSH4 0xF242432A EQ PUSH2 0x451 JUMPI PUSH2 0x14C JUMP JUMPDEST DUP1 PUSH4 0x4E1273F4 EQ PUSH2 0x2D9 JUMPI DUP1 PUSH4 0x55F804B3 EQ PUSH2 0x309 JUMPI DUP1 PUSH4 0x731133E9 EQ PUSH2 0x325 JUMPI DUP1 PUSH4 0x7F345710 EQ PUSH2 0x341 JUMPI DUP1 PUSH4 0x91D14854 EQ PUSH2 0x35F JUMPI DUP1 PUSH4 0x95D89B41 EQ PUSH2 0x38F JUMPI PUSH2 0x14C JUMP JUMPDEST DUP1 PUSH4 0x1F7FDFFA GT PUSH2 0x115 JUMPI DUP1 PUSH4 0x1F7FDFFA EQ PUSH2 0x21B JUMPI DUP1 PUSH4 0x248A9CA3 EQ PUSH2 0x237 JUMPI DUP1 PUSH4 0x2EB2C2D6 EQ PUSH2 0x267 JUMPI DUP1 PUSH4 0x2F2FF15D EQ PUSH2 0x283 JUMPI DUP1 PUSH4 0x36568ABE EQ PUSH2 0x29F JUMPI DUP1 PUSH4 0x41F43434 EQ PUSH2 0x2BB JUMPI PUSH2 0x14C JUMP JUMPDEST DUP1 PUSH3 0xFDD58E EQ PUSH2 0x151 JUMPI DUP1 PUSH4 0x1FFC9A7 EQ PUSH2 0x181 JUMPI DUP1 PUSH4 0x2FE5305 EQ PUSH2 0x1B1 JUMPI DUP1 PUSH4 0x6FDDE03 EQ PUSH2 0x1CD JUMPI DUP1 PUSH4 0xE89341C EQ PUSH2 0x1EB JUMPI JUMPDEST PUSH1 0x0 DUP1 REVERT JUMPDEST PUSH2 0x16B PUSH1 0x4 DUP1 CALLDATASIZE SUB DUP2 ADD SWAP1 PUSH2 0x166 SWAP2 SWAP1 PUSH2 0x2555 JUMP JUMPDEST PUSH2 0x46D JUMP JUMPDEST PUSH1 0x40 MLOAD PUSH2 0x178 SWAP2 SWAP1 PUSH2 0x25A4 JUMP JUMPDEST PUSH1 0x40 MLOAD DUP1 SWAP2 SUB SWAP1 RETURN JUMPDEST PUSH2 0x19B PUSH1 0x4 DUP1 CALLDATASIZE SUB DUP2 ADD SWAP1 PUSH2 0x196 SWAP2 SWAP1 PUSH2 0x2617 JUMP JUMPDEST PUSH2 0x536 JUMP JUMPDEST PUSH1 0x40 MLOAD PUSH2 0x1A8 SWAP2 SWAP1 PUSH2 0x265F JUMP JUMPDEST PUSH1 0x40 MLOAD DUP1 SWAP2 SUB SWAP1 RETURN JUMPDEST PUSH2 0x1CB PUSH1 0x4 DUP1 CALLDATASIZE SUB DUP2 ADD SWAP1 PUSH2 0x1C6 SWAP2 SWAP1 PUSH2 0x27C0 JUMP JUMPDEST PUSH2 0x548 JUMP JUMPDEST STOP JUMPDEST PUSH2 0x1D5 PUSH2 0x57F JUMP JUMPDEST PUSH1 0x40 MLOAD PUSH2 0x1E2 SWAP2 SWAP1 PUSH2 0x2888 JUMP JUMPDEST PUSH1 0x40 MLOAD DUP1 SWAP2 SUB SWAP1 RETURN JUMPDEST PUSH2 0x205 PUSH1 0x4 DUP1 CALLDATASIZE SUB DUP2 ADD SWAP1 PUSH2 0x200 SWAP2 SWAP1 PUSH2 0x28AA JUMP JUMPDEST PUSH2 0x60D JUMP JUMPDEST PUSH1 0x40 MLOAD PUSH2 0x212 SWAP2 SWAP1 PUSH2 0x2888 JUMP JUMPDEST PUSH1 0x40 MLOAD DUP1 SWAP2 SUB SWAP1 RETURN JUMPDEST PUSH2 0x235 PUSH1 0x4 DUP1 CALLDATASIZE SUB DUP2 ADD SWAP1 PUSH2 0x230 SWAP2 SWAP1 PUSH2 0x2A40 JUMP JUMPDEST PUSH2 0x6F2 JUMP JUMPDEST STOP JUMPDEST PUSH2 0x251 PUSH1 0x4 DUP1 CALLDATASIZE SUB DUP2 ADD SWAP1 PUSH2 0x24C SWAP2 SWAP1 PUSH2 0x2B31 JUMP JUMPDEST PUSH2 0x72F JUMP JUMPDEST PUSH1 0x40 MLOAD PUSH2 0x25E SWAP2 SWAP1 PUSH2 0x2B6D JUMP JUMPDEST PUSH1 0x40 MLOAD DUP1 SWAP2 SUB SWAP1 RETURN JUMPDEST PUSH2 0x281 PUSH1 0x4 DUP1 CALLDATASIZE SUB DUP2 ADD SWAP1 PUSH2 0x27C SWAP2 SWAP1 PUSH2 0x2B88 JUMP JUMPDEST PUSH2 0x74E JUMP JUMPDEST STOP JUMPDEST PUSH2 0x29D PUSH1 0x4 DUP1 CALLDATASIZE SUB DUP2 ADD SWAP1 PUSH2 0x298 SWAP2 SWAP1 PUSH2 0x2C57 JUMP JUMPDEST PUSH2 0x7EF JUMP JUMPDEST STOP JUMPDEST PUSH2 0x2B9 PUSH1 0x4 DUP1 CALLDATASIZE SUB DUP2 ADD SWAP1 PUSH2 0x2B4 SWAP2 SWAP1 PUSH2 0x2C57 JUMP JUMPDEST PUSH2 0x810 JUMP JUMPDEST STOP JUMPDEST PUSH2 0x2C3 PUSH2 0x893 JUMP JUMPDEST PUSH1 0x40 MLOAD PUSH2 0x2D0 SWAP2 SWAP1 PUSH2 0x2CF6 JUMP JUMPDEST PUSH1 0x40 MLOAD DUP1 SWAP2 SUB SWAP1 RETURN JUMPDEST PUSH2 0x2F3 PUSH1 0x4 DUP1 CALLDATASIZE SUB DUP2 ADD SWAP1 PUSH2 0x2EE SWAP2 SWAP1 PUSH2 0x2DD4 JUMP JUMPDEST PUSH2 0x8A5 JUMP JUMPDEST PUSH1 0x40 MLOAD PUSH2 0x300 SWAP2 SWAP1 PUSH2 0x2F0A JUMP JUMPDEST PUSH1 0x40 MLOAD DUP1 SWAP2 SUB SWAP1 RETURN JUMPDEST PUSH2 0x323 PUSH1 0x4 DUP1 CALLDATASIZE SUB DUP2 ADD SWAP1 PUSH2 0x31E SWAP2 SWAP1 PUSH2 0x27C0 JUMP JUMPDEST PUSH2 0x9BE JUMP JUMPDEST STOP JUMPDEST PUSH2 0x33F PUSH1 0x4 DUP1 CALLDATASIZE SUB DUP2 ADD SWAP1 PUSH2 0x33A SWAP2 SWAP1 PUSH2 0x2F2C JUMP JUMPDEST PUSH2 0x9F5 JUMP JUMPDEST STOP JUMPDEST PUSH2 0x349 PUSH2 0xA32 JUMP JUMPDEST PUSH1 0x40 MLOAD PUSH2 0x356 SWAP2 SWAP1 PUSH2 0x2B6D JUMP JUMPDEST PUSH1 0x40 MLOAD DUP1 SWAP2 SUB SWAP1 RETURN JUMPDEST PUSH2 0x379 PUSH1 0x4 DUP1 CALLDATASIZE SUB DUP2 ADD SWAP1 PUSH2 0x374 SWAP2 SWAP1 PUSH2 0x2C57 JUMP JUMPDEST PUSH2 0xA56 JUMP JUMPDEST PUSH1 0x40 MLOAD PUSH2 0x386 SWAP2 SWAP1 PUSH2 0x265F JUMP JUMPDEST PUSH1 0x40 MLOAD DUP1 SWAP2 SUB SWAP1 RETURN JUMPDEST PUSH2 0x397 PUSH2 0xAC0 JUMP JUMPDEST PUSH1 0x40 MLOAD PUSH2 0x3A4 SWAP2 SWAP1 PUSH2 0x2888 JUMP JUMPDEST PUSH1 0x40 MLOAD DUP1 SWAP2 SUB SWAP1 RETURN JUMPDEST PUSH2 0x3B5 PUSH2 0xB4E JUMP JUMPDEST PUSH1 0x40 MLOAD PUSH2 0x3C2 SWAP2 SWAP1 PUSH2 0x2B6D JUMP JUMPDEST PUSH1 0x40 MLOAD DUP1 SWAP2 SUB SWAP1 RETURN JUMPDEST PUSH2 0x3E5 PUSH1 0x4 DUP1 CALLDATASIZE SUB DUP2 ADD SWAP1 PUSH2 0x3E0 SWAP2 SWAP1 PUSH2 0x2FDB JUMP JUMPDEST PUSH2 0xB55 JUMP JUMPDEST STOP JUMPDEST PUSH2 0x3EF PUSH2 0xB6E JUMP JUMPDEST PUSH1 0x40 MLOAD PUSH2 0x3FC SWAP2 SWAP1 PUSH2 0x2B6D JUMP JUMPDEST PUSH1 0x40 MLOAD DUP1 SWAP2 SUB SWAP1 RETURN JUMPDEST PUSH2 0x41F PUSH1 0x4 DUP1 CALLDATASIZE SUB DUP2 ADD SWAP1 PUSH2 0x41A SWAP2 SWAP1 PUSH2 0x2C57 JUMP JUMPDEST PUSH2 0xB92 JUMP JUMPDEST STOP JUMPDEST PUSH2 0x43B PUSH1 0x4 DUP1 CALLDATASIZE SUB DUP2 ADD SWAP1 PUSH2 0x436 SWAP2 SWAP1 PUSH2 0x301B JUMP JUMPDEST PUSH2 0xBB3 JUMP JUMPDEST PUSH1 0x40 MLOAD PUSH2 0x448 SWAP2 SWAP1 PUSH2 0x265F JUMP JUMPDEST PUSH1 0x40 MLOAD DUP1 SWAP2 SUB SWAP1 RETURN JUMPDEST PUSH2 0x46B PUSH1 0x4 DUP1 CALLDATASIZE SUB DUP2 ADD SWAP1 PUSH2 0x466 SWAP2 SWAP1 PUSH2 0x305B JUMP JUMPDEST PUSH2 0xC47 JUMP JUMPDEST STOP JUMPDEST PUSH1 0x0 DUP1 PUSH20 0xFFFFFFFFFFFFFFFFFFFFFFFFFFFFFFFFFFFFFFFF AND DUP4 PUSH20 0xFFFFFFFFFFFFFFFFFFFFFFFFFFFFFFFFFFFFFFFF AND SUB PUSH2 0x4DD JUMPI PUSH1 0x40 MLOAD PUSH32 0x8C379A000000000000000000000000000000000000000000000000000000000 DUP2 MSTORE PUSH1 0x4 ADD PUSH2 0x4D4 SWAP1 PUSH2 0x3164 JUMP JUMPDEST PUSH1 0x40 MLOAD DUP1 SWAP2 SUB SWAP1 REVERT JUMPDEST PUSH1 0x1 PUSH1 0x0 DUP4 DUP2 MSTORE PUSH1 0x20 ADD SWAP1 DUP2 MSTORE PUSH1 0x20 ADD PUSH1 0x0 KECCAK256 PUSH1 0x0 DUP5 PUSH20 0xFFFFFFFFFFFFFFFFFFFFFFFFFFFFFFFFFFFFFFFF AND PUSH20 0xFFFFFFFFFFFFFFFFFFFFFFFFFFFFFFFFFFFFFFFF AND DUP2 MSTORE PUSH1 0x20 ADD SWAP1 DUP2 MSTORE PUSH1 0x20 ADD PUSH1 0x0 KECCAK256 SLOAD SWAP1 POP SWAP3 SWAP2 POP POP JUMP JUMPDEST PUSH1 0x0 PUSH2 0x541 DUP3 PUSH2 0xF74 JUMP JUMPDEST SWAP1 POP SWAP2 SWAP1 POP JUMP JUMPDEST PUSH32 0x7804D923F43A17D325D77E781528E0793B2EDD9890AB45FC64EFD7B4B427744C PUSH2 0x572 DUP2 PUSH2 0x1056 JUMP JUMPDEST PUSH2 0x57B DUP3 PUSH2 0x106A JUMP JUMPDEST POP POP JUMP JUMPDEST PUSH1 0x6 DUP1 SLOAD PUSH2 0x58C SWAP1 PUSH2 0x31B3 JUMP JUMPDEST DUP1 PUSH1 0x1F ADD PUSH1 0x20 DUP1 SWAP2 DIV MUL PUSH1 0x20 ADD PUSH1 0x40 MLOAD SWAP1 DUP2 ADD PUSH1 0x40 MSTORE DUP1 SWAP3 SWAP2 SWAP1 DUP2 DUP2 MSTORE PUSH1 0x20 ADD DUP3 DUP1 SLOAD PUSH2 0x5B8 SWAP1 PUSH2 0x31B3 JUMP JUMPDEST DUP1 ISZERO PUSH2 0x605 JUMPI DUP1 PUSH1 0x1F LT PUSH2 0x5DA JUMPI PUSH2 0x100 DUP1 DUP4 SLOAD DIV MUL DUP4 MSTORE SWAP2 PUSH1 0x20 ADD SWAP2 PUSH2 0x605 JUMP JUMPDEST DUP3 ADD SWAP2 SWAP1 PUSH1 0x0 MSTORE PUSH1 0x20 PUSH1 0x0 KECCAK256 SWAP1 JUMPDEST DUP2 SLOAD DUP2 MSTORE SWAP1 PUSH1 0x1 ADD SWAP1 PUSH1 0x20 ADD DUP1 DUP4 GT PUSH2 0x5E8 JUMPI DUP3 SWAP1 SUB PUSH1 0x1F AND DUP3 ADD SWAP2 JUMPDEST POP POP POP POP POP DUP2 JUMP JUMPDEST PUSH1 0x60 PUSH1 0x0 PUSH1 0x5 PUSH1 0x0 DUP5 DUP2 MSTORE PUSH1 0x20 ADD SWAP1 DUP2 MSTORE PUSH1 0x20 ADD PUSH1 0x0 KECCAK256 DUP1 SLOAD PUSH2 0x62F SWAP1 PUSH2 0x31B3 JUMP JUMPDEST DUP1 PUSH1 0x1F ADD PUSH1 0x20 DUP1 SWAP2 DIV MUL PUSH1 0x20 ADD PUSH1 0x40 MLOAD SWAP1 DUP2 ADD PUSH1 0x40 MSTORE DUP1 SWAP3 SWAP2 SWAP1 DUP2 DUP2 MSTORE PUSH1 0x20 ADD DUP3 DUP1 SLOAD PUSH2 0x65B SWAP1 PUSH2 0x31B3 JUMP JUMPDEST DUP1 ISZERO PUSH2 0x6A8 JUMPI DUP1 PUSH1 0x1F LT PUSH2 0x67D JUMPI PUSH2 0x100 DUP1 DUP4 SLOAD DIV MUL DUP4 MSTORE SWAP2 PUSH1 0x20 ADD SWAP2 PUSH2 0x6A8 JUMP JUMPDEST DUP3 ADD SWAP2 SWAP1 PUSH1 0x0 MSTORE PUSH1 0x20 PUSH1 0x0 KECCAK256 SWAP1 JUMPDEST DUP2 SLOAD DUP2 MSTORE SWAP1 PUSH1 0x1 ADD SWAP1 PUSH1 0x20 ADD DUP1 DUP4 GT PUSH2 0x68B JUMPI DUP3 SWAP1 SUB PUSH1 0x1F AND DUP3 ADD SWAP2 JUMPDEST POP POP POP POP POP SWAP1 POP PUSH1 0x0 DUP2 MLOAD GT PUSH2 0x6C6 JUMPI PUSH2 0x6C1 DUP4 PUSH2 0x107D JUMP JUMPDEST PUSH2 0x6EA JUMP JUMPDEST PUSH1 0x4 DUP2 PUSH1 0x40 MLOAD PUSH1 0x20 ADD PUSH2 0x6DA SWAP3 SWAP2 SWAP1 PUSH2 0x32B8 JUMP JUMPDEST PUSH1 0x40 MLOAD PUSH1 0x20 DUP2 DUP4 SUB SUB DUP2 MSTORE SWAP1 PUSH1 0x40 MSTORE JUMPDEST SWAP2 POP POP SWAP2 SWAP1 POP JUMP JUMPDEST PUSH32 0x9F2DF0FED2C77648DE5860A4CC508CD0818C85B8B8A1AB4CEEEF8D981C8956A6 PUSH2 0x71C DUP2 PUSH2 0x1056 JUMP JUMPDEST PUSH2 0x728 DUP6 DUP6 DUP6 DUP6 PUSH2 0x1111 JUMP JUMPDEST POP POP POP POP POP JUMP JUMPDEST PUSH1 0x0 DUP1 PUSH1 0x0 DUP4 DUP2 MSTORE PUSH1 0x20 ADD SWAP1 DUP2 MSTORE PUSH1 0x20 ADD PUSH1 0x0 KECCAK256 PUSH1 0x1 ADD SLOAD SWAP1 POP SWAP2 SWAP1 POP JUMP JUMPDEST PUSH2 0x756 PUSH2 0x133E JUMP JUMPDEST PUSH20 0xFFFFFFFFFFFFFFFFFFFFFFFFFFFFFFFFFFFFFFFF AND DUP6 PUSH20 0xFFFFFFFFFFFFFFFFFFFFFFFFFFFFFFFFFFFFFFFF AND EQ DUP1 PUSH2 0x79C JUMPI POP PUSH2 0x79B DUP6 PUSH2 0x796 PUSH2 0x133E JUMP JUMPDEST PUSH2 0xBB3 JUMP JUMPDEST JUMPDEST PUSH2 0x7DB JUMPI PUSH1 0x40 MLOAD PUSH32 0x8C379A000000000000000000000000000000000000000000000000000000000 DUP2 MSTORE PUSH1 0x4 ADD PUSH2 0x7D2 SWAP1 PUSH2 0x334E JUMP JUMPDEST PUSH1 0x40 MLOAD DUP1 SWAP2 SUB SWAP1 REVERT JUMPDEST PUSH2 0x7E8 DUP6 DUP6 DUP6 DUP6 DUP6 PUSH2 0x1346 JUMP JUMPDEST POP POP POP POP POP JUMP JUMPDEST PUSH2 0x7F8 DUP3 PUSH2 0x72F JUMP JUMPDEST PUSH2 0x801 DUP2 PUSH2 0x1056 JUMP JUMPDEST PUSH2 0x80B DUP4 DUP4 PUSH2 0x166A JUMP JUMPDEST POP POP POP JUMP JUMPDEST PUSH2 0x818 PUSH2 0x133E JUMP JUMPDEST PUSH20 0xFFFFFFFFFFFFFFFFFFFFFFFFFFFFFFFFFFFFFFFF AND DUP2 PUSH20 0xFFFFFFFFFFFFFFFFFFFFFFFFFFFFFFFFFFFFFFFF AND EQ PUSH2 0x885 JUMPI PUSH1 0x40 MLOAD PUSH32 0x8C379A000000000000000000000000000000000000000000000000000000000 DUP2 MSTORE PUSH1 0x4 ADD PUSH2 0x87C SWAP1 PUSH2 0x33E0 JUMP JUMPDEST PUSH1 0x40 MLOAD DUP1 SWAP2 SUB SWAP1 REVERT JUMPDEST PUSH2 0x88F DUP3 DUP3 PUSH2 0x174A JUMP JUMPDEST POP POP JUMP JUMPDEST PUSH14 0xAAEB6D7670E522A718067333CD4E DUP2 JUMP JUMPDEST PUSH1 0x60 DUP2 MLOAD DUP4 MLOAD EQ PUSH2 0x8EB JUMPI PUSH1 0x40 MLOAD PUSH32 0x8C379A000000000000000000000000000000000000000000000000000000000 DUP2 MSTORE PUSH1 0x4 ADD PUSH2 0x8E2 SWAP1 PUSH2 0x3472 JUMP JUMPDEST PUSH1 0x40 MLOAD DUP1 SWAP2 SUB SWAP1 REVERT JUMPDEST PUSH1 0x0 DUP4 MLOAD PUSH8 0xFFFFFFFFFFFFFFFF DUP2 GT ISZERO PUSH2 0x908 JUMPI PUSH2 0x907 PUSH2 0x2695 JUMP JUMPDEST JUMPDEST PUSH1 0x40 MLOAD SWAP1 DUP1 DUP3 MSTORE DUP1 PUSH1 0x20 MUL PUSH1 0x20 ADD DUP3 ADD PUSH1 0x40 MSTORE DUP1 ISZERO PUSH2 0x936 JUMPI DUP2 PUSH1 0x20 ADD PUSH1 0x20 DUP3 MUL DUP1 CALLDATASIZE DUP4 CALLDATACOPY DUP1 DUP3 ADD SWAP2 POP POP SWAP1 POP JUMPDEST POP SWAP1 POP PUSH1 0x0 JUMPDEST DUP5 MLOAD DUP2 LT ISZERO PUSH2 0x9B3 JUMPI PUSH2 0x983 DUP6 DUP3 DUP2 MLOAD DUP2 LT PUSH2 0x95B JUMPI PUSH2 0x95A PUSH2 0x3492 JUMP JUMPDEST JUMPDEST PUSH1 0x20 MUL PUSH1 0x20 ADD ADD MLOAD DUP6 DUP4 DUP2 MLOAD DUP2 LT PUSH2 0x976 JUMPI PUSH2 0x975 PUSH2 0x3492 JUMP JUMPDEST JUMPDEST PUSH1 0x20 MUL PUSH1 0x20 ADD ADD MLOAD PUSH2 0x46D JUMP JUMPDEST DUP3 DUP3 DUP2 MLOAD DUP2 LT PUSH2 0x996 JUMPI PUSH2 0x995 PUSH2 0x3492 JUMP JUMPDEST JUMPDEST PUSH1 0x20 MUL PUSH1 0x20 ADD ADD DUP2 DUP2 MSTORE POP POP DUP1 PUSH2 0x9AC SWAP1 PUSH2 0x34F0 JUMP JUMPDEST SWAP1 POP PUSH2 0x93C JUMP JUMPDEST POP DUP1 SWAP2 POP POP SWAP3 SWAP2 POP POP JUMP JUMPDEST PUSH32 0x7804D923F43A17D325D77E781528E0793B2EDD9890AB45FC64EFD7B4B427744C PUSH2 0x9E8 DUP2 PUSH2 0x1056 JUMP JUMPDEST PUSH2 0x9F1 DUP3 PUSH2 0x182B JUMP JUMPDEST POP POP JUMP JUMPDEST PUSH32 0x9F2DF0FED2C77648DE5860A4CC508CD0818C85B8B8A1AB4CEEEF8D981C8956A6 PUSH2 0xA1F DUP2 PUSH2 0x1056 JUMP JUMPDEST PUSH2 0xA2B DUP6 DUP6 DUP6 DUP6 PUSH2 0x183E JUMP JUMPDEST POP POP POP POP POP JUMP JUMPDEST PUSH32 0x7804D923F43A17D325D77E781528E0793B2EDD9890AB45FC64EFD7B4B427744C DUP2 JUMP JUMPDEST PUSH1 0x0 DUP1 PUSH1 0x0 DUP5 DUP2 MSTORE PUSH1 0x20 ADD SWAP1 DUP2 MSTORE PUSH1 0x20 ADD PUSH1 0x0 KECCAK256 PUSH1 0x0 ADD PUSH1 0x0 DUP4 PUSH20 0xFFFFFFFFFFFFFFFFFFFFFFFFFFFFFFFFFFFFFFFF AND PUSH20 0xFFFFFFFFFFFFFFFFFFFFFFFFFFFFFFFFFFFFFFFF AND DUP2 MSTORE PUSH1 0x20 ADD SWAP1 DUP2 MSTORE PUSH1 0x20 ADD PUSH1 0x0 KECCAK256 PUSH1 0x0 SWAP1 SLOAD SWAP1 PUSH2 0x100 EXP SWAP1 DIV PUSH1 0xFF AND SWAP1 POP SWAP3 SWAP2 POP POP JUMP JUMPDEST PUSH1 0x7 DUP1 SLOAD PUSH2 0xACD SWAP1 PUSH2 0x31B3 JUMP JUMPDEST DUP1 PUSH1 0x1F ADD PUSH1 0x20 DUP1 SWAP2 DIV MUL PUSH1 0x20 ADD PUSH1 0x40 MLOAD SWAP1 DUP2 ADD PUSH1 0x40 MSTORE DUP1 SWAP3 SWAP2 SWAP1 DUP2 DUP2 MSTORE PUSH1 0x20 ADD DUP3 DUP1 SLOAD PUSH2 0xAF9 SWAP1 PUSH2 0x31B3 JUMP JUMPDEST DUP1 ISZERO PUSH2 0xB46 JUMPI DUP1 PUSH1 0x1F LT PUSH2 0xB1B JUMPI PUSH2 0x100 DUP1 DUP4 SLOAD DIV MUL DUP4 MSTORE SWAP2 PUSH1 0x20 ADD SWAP2 PUSH2 0xB46 JUMP JUMPDEST DUP3 ADD SWAP2 SWAP1 PUSH1 0x0 MSTORE PUSH1 0x20 PUSH1 0x0 KECCAK256 SWAP1 JUMPDEST DUP2 SLOAD DUP2 MSTORE SWAP1 PUSH1 0x1 ADD SWAP1 PUSH1 0x20 ADD DUP1 DUP4 GT PUSH2 0xB29 JUMPI DUP3 SWAP1 SUB PUSH1 0x1F AND DUP3 ADD SWAP2 JUMPDEST POP POP POP POP POP DUP2 JUMP JUMPDEST PUSH1 0x0 DUP1 SHL DUP2 JUMP JUMPDEST DUP2 PUSH2 0xB5F DUP2 PUSH2 0x19EF JUMP JUMPDEST PUSH2 0xB69 DUP4 DUP4 PUSH2 0x1AEC JUMP JUMPDEST POP POP POP JUMP JUMPDEST PUSH32 0x9F2DF0FED2C77648DE5860A4CC508CD0818C85B8B8A1AB4CEEEF8D981C8956A6 DUP2 JUMP JUMPDEST PUSH2 0xB9B DUP3 PUSH2 0x72F JUMP JUMPDEST PUSH2 0xBA4 DUP2 PUSH2 0x1056 JUMP JUMPDEST PUSH2 0xBAE DUP4 DUP4 PUSH2 0x174A JUMP JUMPDEST POP POP POP JUMP JUMPDEST PUSH1 0x0 PUSH1 0x2 PUSH1 0x0 DUP5 PUSH20 0xFFFFFFFFFFFFFFFFFFFFFFFFFFFFFFFFFFFFFFFF AND PUSH20 0xFFFFFFFFFFFFFFFFFFFFFFFFFFFFFFFFFFFFFFFF AND DUP2 MSTORE PUSH1 0x20 ADD SWAP1 DUP2 MSTORE PUSH1 0x20 ADD PUSH1 0x0 KECCAK256 PUSH1 0x0 DUP4 PUSH20 0xFFFFFFFFFFFFFFFFFFFFFFFFFFFFFFFFFFFFFFFF AND PUSH20 0xFFFFFFFFFFFFFFFFFFFFFFFFFFFFFFFFFFFFFFFF AND DUP2 MSTORE PUSH1 0x20 ADD SWAP1 DUP2 MSTORE PUSH1 0x20 ADD PUSH1 0x0 KECCAK256 PUSH1 0x0 SWAP1 SLOAD SWAP1 PUSH2 0x100 EXP SWAP1 DIV PUSH1 0xFF AND SWAP1 POP SWAP3 SWAP2 POP POP JUMP JUMPDEST PUSH2 0xC4F PUSH2 0x133E JUMP JUMPDEST PUSH20 0xFFFFFFFFFFFFFFFFFFFFFFFFFFFFFFFFFFFFFFFF AND DUP6 PUSH20 0xFFFFFFFFFFFFFFFFFFFFFFFFFFFFFFFFFFFFFFFF AND EQ DUP1 PUSH2 0xC95 JUMPI POP PUSH2 0xC94 DUP6 PUSH2 0xC8F PUSH2 0x133E JUMP JUMPDEST PUSH2 0xBB3 JUMP JUMPDEST JUMPDEST PUSH2 0xCD4 JUMPI PUSH1 0x40 MLOAD PUSH32 0x8C379A000000000000000000000000000000000000000000000000000000000 DUP2 MSTORE PUSH1 0x4 ADD PUSH2 0xCCB SWAP1 PUSH2 0x334E JUMP JUMPDEST PUSH1 0x40 MLOAD DUP1 SWAP2 SUB SWAP1 REVERT JUMPDEST PUSH2 0xCE1 DUP6 DUP6 DUP6 DUP6 DUP6 PUSH2 0x1B02 JUMP JUMPDEST POP POP POP POP POP JUMP JUMPDEST PUSH1 0x60 PUSH2 0xD0E DUP3 PUSH20 0xFFFFFFFFFFFFFFFFFFFFFFFFFFFFFFFFFFFFFFFF AND PUSH1 0x14 PUSH1 0xFF AND PUSH2 0xD15 JUMP JUMPDEST SWAP1 POP SWAP2 SWAP1 POP JUMP JUMPDEST PUSH1 0x60 PUSH1 0x0 PUSH1 0x2 DUP4 PUSH1 0x2 PUSH2 0xD28 SWAP2 SWAP1 PUSH2 0x3538 JUMP JUMPDEST PUSH2 0xD32 SWAP2 SWAP1 PUSH2 0x357A JUMP JUMPDEST PUSH8 0xFFFFFFFFFFFFFFFF DUP2 GT ISZERO PUSH2 0xD4B JUMPI PUSH2 0xD4A PUSH2 0x2695 JUMP JUMPDEST JUMPDEST PUSH1 0x40 MLOAD SWAP1 DUP1 DUP3 MSTORE DUP1 PUSH1 0x1F ADD PUSH1 0x1F NOT AND PUSH1 0x20 ADD DUP3 ADD PUSH1 0x40 MSTORE DUP1 ISZERO PUSH2 0xD7D JUMPI DUP2 PUSH1 0x20 ADD PUSH1 0x1 DUP3 MUL DUP1 CALLDATASIZE DUP4 CALLDATACOPY DUP1 DUP3 ADD SWAP2 POP POP SWAP1 POP JUMPDEST POP SWAP1 POP PUSH32 0x3000000000000000000000000000000000000000000000000000000000000000 DUP2 PUSH1 0x0 DUP2 MLOAD DUP2 LT PUSH2 0xDB5 JUMPI PUSH2 0xDB4 PUSH2 0x3492 JUMP JUMPDEST JUMPDEST PUSH1 0x20 ADD ADD SWAP1 PUSH31 0xFFFFFFFFFFFFFFFFFFFFFFFFFFFFFFFFFFFFFFFFFFFFFFFFFFFFFFFFFFFFFF NOT AND SWAP1 DUP2 PUSH1 0x0 BYTE SWAP1 MSTORE8 POP PUSH32 0x7800000000000000000000000000000000000000000000000000000000000000 DUP2 PUSH1 0x1 DUP2 MLOAD DUP2 LT PUSH2 0xE19 JUMPI PUSH2 0xE18 PUSH2 0x3492 JUMP JUMPDEST JUMPDEST PUSH1 0x20 ADD ADD SWAP1 PUSH31 0xFFFFFFFFFFFFFFFFFFFFFFFFFFFFFFFFFFFFFFFFFFFFFFFFFFFFFFFFFFFFFF NOT AND SWAP1 DUP2 PUSH1 0x0 BYTE SWAP1 MSTORE8 POP PUSH1 0x0 PUSH1 0x1 DUP5 PUSH1 0x2 PUSH2 0xE59 SWAP2 SWAP1 PUSH2 0x3538 JUMP JUMPDEST PUSH2 0xE63 SWAP2 SWAP1 PUSH2 0x357A JUMP JUMPDEST SWAP1 POP JUMPDEST PUSH1 0x1 DUP2 GT ISZERO PUSH2 0xF03 JUMPI PUSH32 0x3031323334353637383961626364656600000000000000000000000000000000 PUSH1 0xF DUP7 AND PUSH1 0x10 DUP2 LT PUSH2 0xEA5 JUMPI PUSH2 0xEA4 PUSH2 0x3492 JUMP JUMPDEST JUMPDEST BYTE PUSH1 0xF8 SHL DUP3 DUP3 DUP2 MLOAD DUP2 LT PUSH2 0xEBC JUMPI PUSH2 0xEBB PUSH2 0x3492 JUMP JUMPDEST JUMPDEST PUSH1 0x20 ADD ADD SWAP1 PUSH31 0xFFFFFFFFFFFFFFFFFFFFFFFFFFFFFFFFFFFFFFFFFFFFFFFFFFFFFFFFFFFFFF NOT AND SWAP1 DUP2 PUSH1 0x0 BYTE SWAP1 MSTORE8 POP PUSH1 0x4 DUP6 SWAP1 SHR SWAP5 POP DUP1 PUSH2 0xEFC SWAP1 PUSH2 0x35AE JUMP JUMPDEST SWAP1 POP PUSH2 0xE66 JUMP JUMPDEST POP PUSH1 0x0 DUP5 EQ PUSH2 0xF47 JUMPI PUSH1 0x40 MLOAD PUSH32 0x8C379A000000000000000000000000000000000000000000000000000000000 DUP2 MSTORE PUSH1 0x4 ADD PUSH2 0xF3E SWAP1 PUSH2 0x3623 JUMP JUMPDEST PUSH1 0x40 MLOAD DUP1 SWAP2 SUB SWAP1 REVERT JUMPDEST DUP1 SWAP2 POP POP SWAP3 SWAP2 POP POP JUMP JUMPDEST PUSH1 0x0 DUP1 DUP3 PUSH20 0xFFFFFFFFFFFFFFFFFFFFFFFFFFFFFFFFFFFFFFFF AND EXTCODESIZE GT SWAP1 POP SWAP2 SWAP1 POP JUMP JUMPDEST PUSH1 0x0 PUSH32 0xD9B67A2600000000000000000000000000000000000000000000000000000000 PUSH28 0xFFFFFFFFFFFFFFFFFFFFFFFFFFFFFFFFFFFFFFFFFFFFFFFFFFFFFFFF NOT AND DUP3 PUSH28 0xFFFFFFFFFFFFFFFFFFFFFFFFFFFFFFFFFFFFFFFFFFFFFFFFFFFFFFFF NOT AND EQ DUP1 PUSH2 0x103F JUMPI POP PUSH32 0xE89341C00000000000000000000000000000000000000000000000000000000 PUSH28 0xFFFFFFFFFFFFFFFFFFFFFFFFFFFFFFFFFFFFFFFFFFFFFFFFFFFFFFFF NOT AND DUP3 PUSH28 0xFFFFFFFFFFFFFFFFFFFFFFFFFFFFFFFFFFFFFFFFFFFFFFFFFFFFFFFF NOT AND EQ JUMPDEST DUP1 PUSH2 0x104F JUMPI POP PUSH2 0x104E DUP3 PUSH2 0x1DA0 JUMP JUMPDEST JUMPDEST SWAP1 POP SWAP2 SWAP1 POP JUMP JUMPDEST PUSH2 0x1067 DUP2 PUSH2 0x1062 PUSH2 0x133E JUMP JUMPDEST PUSH2 0x1E1A JUMP JUMPDEST POP JUMP JUMPDEST DUP1 PUSH1 0x3 SWAP1 DUP2 PUSH2 0x1079 SWAP2 SWAP1 PUSH2 0x37D0 JUMP JUMPDEST POP POP JUMP JUMPDEST PUSH1 0x60 PUSH1 0x3 DUP1 SLOAD PUSH2 0x108C SWAP1 PUSH2 0x31B3 JUMP JUMPDEST DUP1 PUSH1 0x1F ADD PUSH1 0x20 DUP1 SWAP2 DIV MUL PUSH1 0x20 ADD PUSH1 0x40 MLOAD SWAP1 DUP2 ADD PUSH1 0x40 MSTORE DUP1 SWAP3 SWAP2 SWAP1 DUP2 DUP2 MSTORE PUSH1 0x20 ADD DUP3 DUP1 SLOAD PUSH2 0x10B8 SWAP1 PUSH2 0x31B3 JUMP JUMPDEST DUP1 ISZERO PUSH2 0x1105 JUMPI DUP1 PUSH1 0x1F LT PUSH2 0x10DA JUMPI PUSH2 0x100 DUP1 DUP4 SLOAD DIV MUL DUP4 MSTORE SWAP2 PUSH1 0x20 ADD SWAP2 PUSH2 0x1105 JUMP JUMPDEST DUP3 ADD SWAP2 SWAP1 PUSH1 0x0 MSTORE PUSH1 0x20 PUSH1 0x0 KECCAK256 SWAP1 JUMPDEST DUP2 SLOAD DUP2 MSTORE SWAP1 PUSH1 0x1 ADD SWAP1 PUSH1 0x20 ADD DUP1 DUP4 GT PUSH2 0x10E8 JUMPI DUP3 SWAP1 SUB PUSH1 0x1F AND DUP3 ADD SWAP2 JUMPDEST POP POP POP POP POP SWAP1 POP SWAP2 SWAP1 POP JUMP JUMPDEST PUSH1 0x0 PUSH20 0xFFFFFFFFFFFFFFFFFFFFFFFFFFFFFFFFFFFFFFFF AND DUP5 PUSH20 0xFFFFFFFFFFFFFFFFFFFFFFFFFFFFFFFFFFFFFFFF AND SUB PUSH2 0x1180 JUMPI PUSH1 0x40 MLOAD PUSH32 0x8C379A000000000000000000000000000000000000000000000000000000000 DUP2 MSTORE PUSH1 0x4 ADD PUSH2 0x1177 SWAP1 PUSH2 0x3914 JUMP JUMPDEST PUSH1 0x40 MLOAD DUP1 SWAP2 SUB SWAP1 REVERT JUMPDEST DUP2 MLOAD DUP4 MLOAD EQ PUSH2 0x11C4 JUMPI PUSH1 0x40 MLOAD PUSH32 0x8C379A000000000000000000000000000000000000000000000000000000000 DUP2 MSTORE PUSH1 0x4 ADD PUSH2 0x11BB SWAP1 PUSH2 0x39A6 JUMP JUMPDEST PUSH1 0x40 MLOAD DUP1 SWAP2 SUB SWAP1 REVERT JUMPDEST PUSH1 0x0 PUSH2 0x11CE PUSH2 0x133E JUMP JUMPDEST SWAP1 POP PUSH2 0x11DF DUP2 PUSH1 0x0 DUP8 DUP8 DUP8 DUP8 PUSH2 0x1E9F JUMP JUMPDEST PUSH1 0x0 JUMPDEST DUP5 MLOAD DUP2 LT ISZERO PUSH2 0x1299 JUMPI DUP4 DUP2 DUP2 MLOAD DUP2 LT PUSH2 0x11FE JUMPI PUSH2 0x11FD PUSH2 0x3492 JUMP JUMPDEST JUMPDEST PUSH1 0x20 MUL PUSH1 0x20 ADD ADD MLOAD PUSH1 0x1 PUSH1 0x0 DUP8 DUP5 DUP2 MLOAD DUP2 LT PUSH2 0x121D JUMPI PUSH2 0x121C PUSH2 0x3492 JUMP JUMPDEST JUMPDEST PUSH1 0x20 MUL PUSH1 0x20 ADD ADD MLOAD DUP2 MSTORE PUSH1 0x20 ADD SWAP1 DUP2 MSTORE PUSH1 0x20 ADD PUSH1 0x0 KECCAK256 PUSH1 0x0 DUP9 PUSH20 0xFFFFFFFFFFFFFFFFFFFFFFFFFFFFFFFFFFFFFFFF AND PUSH20 0xFFFFFFFFFFFFFFFFFFFFFFFFFFFFFFFFFFFFFFFF AND DUP2 MSTORE PUSH1 0x20 ADD SWAP1 DUP2 MSTORE PUSH1 0x20 ADD PUSH1 0x0 KECCAK256 PUSH1 0x0 DUP3 DUP3 SLOAD PUSH2 0x127F SWAP2 SWAP1 PUSH2 0x357A JUMP JUMPDEST SWAP3 POP POP DUP2 SWAP1 SSTORE POP DUP1 DUP1 PUSH2 0x1291 SWAP1 PUSH2 0x34F0 JUMP JUMPDEST SWAP2 POP POP PUSH2 0x11E2 JUMP JUMPDEST POP DUP5 PUSH20 0xFFFFFFFFFFFFFFFFFFFFFFFFFFFFFFFFFFFFFFFF AND PUSH1 0x0 PUSH20 0xFFFFFFFFFFFFFFFFFFFFFFFFFFFFFFFFFFFFFFFF AND DUP3 PUSH20 0xFFFFFFFFFFFFFFFFFFFFFFFFFFFFFFFFFFFFFFFF AND PUSH32 0x4A39DC06D4C0DBC64B70AF90FD698A233A518AA5D07E595D983B8C0526C8F7FB DUP8 DUP8 PUSH1 0x40 MLOAD PUSH2 0x1311 SWAP3 SWAP2 SWAP1 PUSH2 0x39C6 JUMP JUMPDEST PUSH1 0x40 MLOAD DUP1 SWAP2 SUB SWAP1 LOG4 PUSH2 0x1328 DUP2 PUSH1 0x0 DUP8 DUP8 DUP8 DUP8 PUSH2 0x1EA7 JUMP JUMPDEST PUSH2 0x1337 DUP2 PUSH1 0x0 DUP8 DUP8 DUP8 DUP8 PUSH2 0x1EAF JUMP JUMPDEST POP POP POP POP POP JUMP JUMPDEST PUSH1 0x0 CALLER SWAP1 POP SWAP1 JUMP JUMPDEST DUP2 MLOAD DUP4 MLOAD EQ PUSH2 0x138A JUMPI PUSH1 0x40 MLOAD PUSH32 0x8C379A000000000000000000000000000000000000000000000000000000000 DUP2 MSTORE PUSH1 0x4 ADD PUSH2 0x1381 SWAP1 PUSH2 0x39A6 JUMP JUMPDEST PUSH1 0x40 MLOAD DUP1 SWAP2 SUB SWAP1 REVERT JUMPDEST PUSH1 0x0 PUSH20 0xFFFFFFFFFFFFFFFFFFFFFFFFFFFFFFFFFFFFFFFF AND DUP5 PUSH20 0xFFFFFFFFFFFFFFFFFFFFFFFFFFFFFFFFFFFFFFFF AND SUB PUSH2 0x13F9 JUMPI PUSH1 0x40 MLOAD PUSH32 0x8C379A000000000000000000000000000000000000000000000000000000000 DUP2 MSTORE PUSH1 0x4 ADD PUSH2 0x13F0 SWAP1 PUSH2 0x3A6F JUMP JUMPDEST PUSH1 0x40 MLOAD DUP1 SWAP2 SUB SWAP1 REVERT JUMPDEST PUSH1 0x0 PUSH2 0x1403 PUSH2 0x133E JUMP JUMPDEST SWAP1 POP PUSH2 0x1413 DUP2 DUP8 DUP8 DUP8 DUP8 DUP8 PUSH2 0x1E9F JUMP JUMPDEST PUSH1 0x0 JUMPDEST DUP5 MLOAD DUP2 LT ISZERO PUSH2 0x15C7 JUMPI PUSH1 0x0 DUP6 DUP3 DUP2 MLOAD DUP2 LT PUSH2 0x1434 JUMPI PUSH2 0x1433 PUSH2 0x3492 JUMP JUMPDEST JUMPDEST PUSH1 0x20 MUL PUSH1 0x20 ADD ADD MLOAD SWAP1 POP PUSH1 0x0 DUP6 DUP4 DUP2 MLOAD DUP2 LT PUSH2 0x1453 JUMPI PUSH2 0x1452 PUSH2 0x3492 JUMP JUMPDEST JUMPDEST PUSH1 0x20 MUL PUSH1 0x20 ADD ADD MLOAD SWAP1 POP PUSH1 0x0 PUSH1 0x1 PUSH1 0x0 DUP5 DUP2 MSTORE PUSH1 0x20 ADD SWAP1 DUP2 MSTORE PUSH1 0x20 ADD PUSH1 0x0 KECCAK256 PUSH1 0x0 DUP12 PUSH20 0xFFFFFFFFFFFFFFFFFFFFFFFFFFFFFFFFFFFFFFFF AND PUSH20 0xFFFFFFFFFFFFFFFFFFFFFFFFFFFFFFFFFFFFFFFF AND DUP2 MSTORE PUSH1 0x20 ADD SWAP1 DUP2 MSTORE PUSH1 0x20 ADD PUSH1 0x0 KECCAK256 SLOAD SWAP1 POP DUP2 DUP2 LT ISZERO PUSH2 0x14F5 JUMPI PUSH1 0x40 MLOAD PUSH32 0x8C379A000000000000000000000000000000000000000000000000000000000 DUP2 MSTORE PUSH1 0x4 ADD PUSH2 0x14EC SWAP1 PUSH2 0x3B01 JUMP JUMPDEST PUSH1 0x40 MLOAD DUP1 SWAP2 SUB SWAP1 REVERT JUMPDEST DUP2 DUP2 SUB PUSH1 0x1 PUSH1 0x0 DUP6 DUP2 MSTORE PUSH1 0x20 ADD SWAP1 DUP2 MSTORE PUSH1 0x20 ADD PUSH1 0x0 KECCAK256 PUSH1 0x0 DUP13 PUSH20 0xFFFFFFFFFFFFFFFFFFFFFFFFFFFFFFFFFFFFFFFF AND PUSH20 0xFFFFFFFFFFFFFFFFFFFFFFFFFFFFFFFFFFFFFFFF AND DUP2 MSTORE PUSH1 0x20 ADD SWAP1 DUP2 MSTORE PUSH1 0x20 ADD PUSH1 0x0 KECCAK256 DUP2 SWAP1 SSTORE POP DUP2 PUSH1 0x1 PUSH1 0x0 DUP6 DUP2 MSTORE PUSH1 0x20 ADD SWAP1 DUP2 MSTORE PUSH1 0x20 ADD PUSH1 0x0 KECCAK256 PUSH1 0x0 DUP12 PUSH20 0xFFFFFFFFFFFFFFFFFFFFFFFFFFFFFFFFFFFFFFFF AND PUSH20 0xFFFFFFFFFFFFFFFFFFFFFFFFFFFFFFFFFFFFFFFF AND DUP2 MSTORE PUSH1 0x20 ADD SWAP1 DUP2 MSTORE PUSH1 0x20 ADD PUSH1 0x0 KECCAK256 PUSH1 0x0 DUP3 DUP3 SLOAD PUSH2 0x15AC SWAP2 SWAP1 PUSH2 0x357A JUMP JUMPDEST SWAP3 POP POP DUP2 SWAP1 SSTORE POP POP POP POP DUP1 PUSH2 0x15C0 SWAP1 PUSH2 0x34F0 JUMP JUMPDEST SWAP1 POP PUSH2 0x1416 JUMP JUMPDEST POP DUP5 PUSH20 0xFFFFFFFFFFFFFFFFFFFFFFFFFFFFFFFFFFFFFFFF AND DUP7 PUSH20 0xFFFFFFFFFFFFFFFFFFFFFFFFFFFFFFFFFFFFFFFF AND DUP3 PUSH20 0xFFFFFFFFFFFFFFFFFFFFFFFFFFFFFFFFFFFFFFFF AND PUSH32 0x4A39DC06D4C0DBC64B70AF90FD698A233A518AA5D07E595D983B8C0526C8F7FB DUP8 DUP8 PUSH1 0x40 MLOAD PUSH2 0x163E SWAP3 SWAP2 SWAP1 PUSH2 0x39C6 JUMP JUMPDEST PUSH1 0x40 MLOAD DUP1 SWAP2 SUB SWAP1 LOG4 PUSH2 0x1654 DUP2 DUP8 DUP8 DUP8 DUP8 DUP8 PUSH2 0x1EA7 JUMP JUMPDEST PUSH2 0x1662 DUP2 DUP8 DUP8 DUP8 DUP8 DUP8 PUSH2 0x1EAF JUMP JUMPDEST POP POP POP POP POP POP JUMP JUMPDEST PUSH2 0x1674 DUP3 DUP3 PUSH2 0xA56 JUMP JUMPDEST PUSH2 0x1746 JUMPI PUSH1 0x1 PUSH1 0x0 DUP1 DUP5 DUP2 MSTORE PUSH1 0x20 ADD SWAP1 DUP2 MSTORE PUSH1 0x20 ADD PUSH1 0x0 KECCAK256 PUSH1 0x0 ADD PUSH1 0x0 DUP4 PUSH20 0xFFFFFFFFFFFFFFFFFFFFFFFFFFFFFFFFFFFFFFFF AND PUSH20 0xFFFFFFFFFFFFFFFFFFFFFFFFFFFFFFFFFFFFFFFF AND DUP2 MSTORE PUSH1 0x20 ADD SWAP1 DUP2 MSTORE PUSH1 0x20 ADD PUSH1 0x0 KECCAK256 PUSH1 0x0 PUSH2 0x100 EXP DUP2 SLOAD DUP2 PUSH1 0xFF MUL NOT AND SWAP1 DUP4 ISZERO ISZERO MUL OR SWAP1 SSTORE POP PUSH2 0x16EB PUSH2 0x133E JUMP JUMPDEST PUSH20 0xFFFFFFFFFFFFFFFFFFFFFFFFFFFFFFFFFFFFFFFF AND DUP2 PUSH20 0xFFFFFFFFFFFFFFFFFFFFFFFFFFFFFFFFFFFFFFFF AND DUP4 PUSH32 0x2F8788117E7EFF1D82E926EC794901D17C78024A50270940304540A733656F0D PUSH1 0x40 MLOAD PUSH1 0x40 MLOAD DUP1 SWAP2 SUB SWAP1 LOG4 JUMPDEST POP POP JUMP JUMPDEST PUSH2 0x1754 DUP3 DUP3 PUSH2 0xA56 JUMP JUMPDEST ISZERO PUSH2 0x1827 JUMPI PUSH1 0x0 DUP1 PUSH1 0x0 DUP5 DUP2 MSTORE PUSH1 0x20 ADD SWAP1 DUP2 MSTORE PUSH1 0x20 ADD PUSH1 0x0 KECCAK256 PUSH1 0x0 ADD PUSH1 0x0 DUP4 PUSH20 0xFFFFFFFFFFFFFFFFFFFFFFFFFFFFFFFFFFFFFFFF AND PUSH20 0xFFFFFFFFFFFFFFFFFFFFFFFFFFFFFFFFFFFFFFFF AND DUP2 MSTORE PUSH1 0x20 ADD SWAP1 DUP2 MSTORE PUSH1 0x20 ADD PUSH1 0x0 KECCAK256 PUSH1 0x0 PUSH2 0x100 EXP DUP2 SLOAD DUP2 PUSH1 0xFF MUL NOT AND SWAP1 DUP4 ISZERO ISZERO MUL OR SWAP1 SSTORE POP PUSH2 0x17CC PUSH2 0x133E JUMP JUMPDEST PUSH20 0xFFFFFFFFFFFFFFFFFFFFFFFFFFFFFFFFFFFFFFFF AND DUP2 PUSH20 0xFFFFFFFFFFFFFFFFFFFFFFFFFFFFFFFFFFFFFFFF AND DUP4 PUSH32 0xF6391F5C32D9C69D2A47EA670B442974B53935D1EDC7FD64EB21E047A839171B PUSH1 0x40 MLOAD PUSH1 0x40 MLOAD DUP1 SWAP2 SUB SWAP1 LOG4 JUMPDEST POP POP JUMP JUMPDEST DUP1 PUSH1 0x4 SWAP1 DUP2 PUSH2 0x183A SWAP2 SWAP1 PUSH2 0x37D0 JUMP JUMPDEST POP POP JUMP JUMPDEST PUSH1 0x0 PUSH20 0xFFFFFFFFFFFFFFFFFFFFFFFFFFFFFFFFFFFFFFFF AND DUP5 PUSH20 0xFFFFFFFFFFFFFFFFFFFFFFFFFFFFFFFFFFFFFFFF AND SUB PUSH2 0x18AD JUMPI PUSH1 0x40 MLOAD PUSH32 0x8C379A000000000000000000000000000000000000000000000000000000000 DUP2 MSTORE PUSH1 0x4 ADD PUSH2 0x18A4 SWAP1 PUSH2 0x3914 JUMP JUMPDEST PUSH1 0x40 MLOAD DUP1 SWAP2 SUB SWAP1 REVERT JUMPDEST PUSH1 0x0 PUSH2 0x18B7 PUSH2 0x133E JUMP JUMPDEST SWAP1 POP PUSH1 0x0 PUSH2 0x18C4 DUP6 PUSH2 0x2086 JUMP JUMPDEST SWAP1 POP PUSH1 0x0 PUSH2 0x18D1 DUP6 PUSH2 0x2086 JUMP JUMPDEST SWAP1 POP PUSH2 0x18E2 DUP4 PUSH1 0x0 DUP10 DUP6 DUP6 DUP10 PUSH2 0x1E9F JUMP JUMPDEST DUP5 PUSH1 0x1 PUSH1 0x0 DUP9 DUP2 MSTORE PUSH1 0x20 ADD SWAP1 DUP2 MSTORE PUSH1 0x20 ADD PUSH1 0x0 KECCAK256 PUSH1 0x0 DUP10 PUSH20 0xFFFFFFFFFFFFFFFFFFFFFFFFFFFFFFFFFFFFFFFF AND PUSH20 0xFFFFFFFFFFFFFFFFFFFFFFFFFFFFFFFFFFFFFFFF AND DUP2 MSTORE PUSH1 0x20 ADD SWAP1 DUP2 MSTORE PUSH1 0x20 ADD PUSH1 0x0 KECCAK256 PUSH1 0x0 DUP3 DUP3 SLOAD PUSH2 0x1942 SWAP2 SWAP1 PUSH2 0x357A JUMP JUMPDEST SWAP3 POP POP DUP2 SWAP1 SSTORE POP DUP7 PUSH20 0xFFFFFFFFFFFFFFFFFFFFFFFFFFFFFFFFFFFFFFFF AND PUSH1 0x0 PUSH20 0xFFFFFFFFFFFFFFFFFFFFFFFFFFFFFFFFFFFFFFFF AND DUP5 PUSH20 0xFFFFFFFFFFFFFFFFFFFFFFFFFFFFFFFFFFFFFFFF AND PUSH32 0xC3D58168C5AE7397731D063D5BBF3D657854427343F4C083240F7AACAA2D0F62 DUP10 DUP10 PUSH1 0x40 MLOAD PUSH2 0x19C0 SWAP3 SWAP2 SWAP1 PUSH2 0x3B21 JUMP JUMPDEST PUSH1 0x40 MLOAD DUP1 SWAP2 SUB SWAP1 LOG4 PUSH2 0x19D7 DUP4 PUSH1 0x0 DUP10 DUP6 DUP6 DUP10 PUSH2 0x1EA7 JUMP JUMPDEST PUSH2 0x19E6 DUP4 PUSH1 0x0 DUP10 DUP10 DUP10 DUP10 PUSH2 0x2100 JUMP JUMPDEST POP POP POP POP POP POP POP JUMP JUMPDEST PUSH1 0x0 PUSH14 0xAAEB6D7670E522A718067333CD4E PUSH20 0xFFFFFFFFFFFFFFFFFFFFFFFFFFFFFFFFFFFFFFFF AND EXTCODESIZE GT ISZERO PUSH2 0x1AE9 JUMPI PUSH14 0xAAEB6D7670E522A718067333CD4E PUSH20 0xFFFFFFFFFFFFFFFFFFFFFFFFFFFFFFFFFFFFFFFF AND PUSH4 0xC6171134 ADDRESS DUP4 PUSH1 0x40 MLOAD DUP4 PUSH4 0xFFFFFFFF AND PUSH1 0xE0 SHL DUP2 MSTORE PUSH1 0x4 ADD PUSH2 0x1A66 SWAP3 SWAP2 SWAP1 PUSH2 0x3B59 JUMP JUMPDEST PUSH1 0x20 PUSH1 0x40 MLOAD DUP1 DUP4 SUB DUP2 DUP7 GAS STATICCALL ISZERO DUP1 ISZERO PUSH2 0x1A83 JUMPI RETURNDATASIZE PUSH1 0x0 DUP1 RETURNDATACOPY RETURNDATASIZE PUSH1 0x0 REVERT JUMPDEST POP POP POP POP PUSH1 0x40 MLOAD RETURNDATASIZE PUSH1 0x1F NOT PUSH1 0x1F DUP3 ADD AND DUP3 ADD DUP1 PUSH1 0x40 MSTORE POP DUP2 ADD SWAP1 PUSH2 0x1AA7 SWAP2 SWAP1 PUSH2 0x3B97 JUMP JUMPDEST PUSH2 0x1AE8 JUMPI DUP1 PUSH1 0x40 MLOAD PUSH32 0xEDE71DCC00000000000000000000000000000000000000000000000000000000 DUP2 MSTORE PUSH1 0x4 ADD PUSH2 0x1ADF SWAP2 SWAP1 PUSH2 0x3BC4 JUMP JUMPDEST PUSH1 0x40 MLOAD DUP1 SWAP2 SUB SWAP1 REVERT JUMPDEST JUMPDEST POP JUMP JUMPDEST PUSH2 0x1AFE PUSH2 0x1AF7 PUSH2 0x133E JUMP JUMPDEST DUP4 DUP4 PUSH2 0x22D7 JUMP JUMPDEST POP POP JUMP JUMPDEST PUSH1 0x0 PUSH20 0xFFFFFFFFFFFFFFFFFFFFFFFFFFFFFFFFFFFFFFFF AND DUP5 PUSH20 0xFFFFFFFFFFFFFFFFFFFFFFFFFFFFFFFFFFFFFFFF AND SUB PUSH2 0x1B71 JUMPI PUSH1 0x40 MLOAD PUSH32 0x8C379A000000000000000000000000000000000000000000000000000000000 DUP2 MSTORE PUSH1 0x4 ADD PUSH2 0x1B68 SWAP1 PUSH2 0x3A6F JUMP JUMPDEST PUSH1 0x40 MLOAD DUP1 SWAP2 SUB SWAP1 REVERT JUMPDEST PUSH1 0x0 PUSH2 0x1B7B PUSH2 0x133E JUMP JUMPDEST SWAP1 POP PUSH1 0x0 PUSH2 0x1B88 DUP6 PUSH2 0x2086 JUMP JUMPDEST SWAP1 POP PUSH1 0x0 PUSH2 0x1B95 DUP6 PUSH2 0x2086 JUMP JUMPDEST SWAP1 POP PUSH2 0x1BA5 DUP4 DUP10 DUP10 DUP6 DUP6 DUP10 PUSH2 0x1E9F JUMP JUMPDEST PUSH1 0x0 PUSH1 0x1 PUSH1 0x0 DUP9 DUP2 MSTORE PUSH1 0x20 ADD SWAP1 DUP2 MSTORE PUSH1 0x20 ADD PUSH1 0x0 KECCAK256 PUSH1 0x0 DUP11 PUSH20 0xFFFFFFFFFFFFFFFFFFFFFFFFFFFFFFFFFFFFFFFF AND PUSH20 0xFFFFFFFFFFFFFFFFFFFFFFFFFFFFFFFFFFFFFFFF AND DUP2 MSTORE PUSH1 0x20 ADD SWAP1 DUP2 MSTORE PUSH1 0x20 ADD PUSH1 0x0 KECCAK256 SLOAD SWAP1 POP DUP6 DUP2 LT ISZERO PUSH2 0x1C3D JUMPI PUSH1 0x40 MLOAD PUSH32 0x8C379A000000000000000000000000000000000000000000000000000000000 DUP2 MSTORE PUSH1 0x4 ADD PUSH2 0x1C34 SWAP1 PUSH2 0x3B01 JUMP JUMPDEST PUSH1 0x40 MLOAD DUP1 SWAP2 SUB SWAP1 REVERT JUMPDEST DUP6 DUP2 SUB PUSH1 0x1 PUSH1 0x0 DUP10 DUP2 MSTORE PUSH1 0x20 ADD SWAP1 DUP2 MSTORE PUSH1 0x20 ADD PUSH1 0x0 KECCAK256 PUSH1 0x0 DUP12 PUSH20 0xFFFFFFFFFFFFFFFFFFFFFFFFFFFFFFFFFFFFFFFF AND PUSH20 0xFFFFFFFFFFFFFFFFFFFFFFFFFFFFFFFFFFFFFFFF AND DUP2 MSTORE PUSH1 0x20 ADD SWAP1 DUP2 MSTORE PUSH1 0x20 ADD PUSH1 0x0 KECCAK256 DUP2 SWAP1 SSTORE POP DUP6 PUSH1 0x1 PUSH1 0x0 DUP10 DUP2 MSTORE PUSH1 0x20 ADD SWAP1 DUP2 MSTORE PUSH1 0x20 ADD PUSH1 0x0 KECCAK256 PUSH1 0x0 DUP11 PUSH20 0xFFFFFFFFFFFFFFFFFFFFFFFFFFFFFFFFFFFFFFFF AND PUSH20 0xFFFFFFFFFFFFFFFFFFFFFFFFFFFFFFFFFFFFFFFF AND DUP2 MSTORE PUSH1 0x20 ADD SWAP1 DUP2 MSTORE PUSH1 0x20 ADD PUSH1 0x0 KECCAK256 PUSH1 0x0 DUP3 DUP3 SLOAD PUSH2 0x1CF4 SWAP2 SWAP1 PUSH2 0x357A JUMP JUMPDEST SWAP3 POP POP DUP2 SWAP1 SSTORE POP DUP8 PUSH20 0xFFFFFFFFFFFFFFFFFFFFFFFFFFFFFFFFFFFFFFFF AND DUP10 PUSH20 0xFFFFFFFFFFFFFFFFFFFFFFFFFFFFFFFFFFFFFFFF AND DUP6 PUSH20 0xFFFFFFFFFFFFFFFFFFFFFFFFFFFFFFFFFFFFFFFF AND PUSH32 0xC3D58168C5AE7397731D063D5BBF3D657854427343F4C083240F7AACAA2D0F62 DUP11 DUP11 PUSH1 0x40 MLOAD PUSH2 0x1D71 SWAP3 SWAP2 SWAP1 PUSH2 0x3B21 JUMP JUMPDEST PUSH1 0x40 MLOAD DUP1 SWAP2 SUB SWAP1 LOG4 PUSH2 0x1D87 DUP5 DUP11 DUP11 DUP7 DUP7 DUP11 PUSH2 0x1EA7 JUMP JUMPDEST PUSH2 0x1D95 DUP5 DUP11 DUP11 DUP11 DUP11 DUP11 PUSH2 0x2100 JUMP JUMPDEST POP POP POP POP POP POP POP POP POP JUMP JUMPDEST PUSH1 0x0 PUSH32 0x7965DB0B00000000000000000000000000000000000000000000000000000000 PUSH28 0xFFFFFFFFFFFFFFFFFFFFFFFFFFFFFFFFFFFFFFFFFFFFFFFFFFFFFFFF NOT AND DUP3 PUSH28 0xFFFFFFFFFFFFFFFFFFFFFFFFFFFFFFFFFFFFFFFFFFFFFFFFFFFFFFFF NOT AND EQ DUP1 PUSH2 0x1E13 JUMPI POP PUSH2 0x1E12 DUP3 PUSH2 0x2443 JUMP JUMPDEST JUMPDEST SWAP1 POP SWAP2 SWAP1 POP JUMP JUMPDEST PUSH2 0x1E24 DUP3 DUP3 PUSH2 0xA56 JUMP JUMPDEST PUSH2 0x1E9B JUMPI PUSH2 0x1E31 DUP2 PUSH2 0xCE8 JUMP JUMPDEST PUSH2 0x1E3F DUP4 PUSH1 0x0 SHR PUSH1 0x20 PUSH2 0xD15 JUMP JUMPDEST PUSH1 0x40 MLOAD PUSH1 0x20 ADD PUSH2 0x1E50 SWAP3 SWAP2 SWAP1 PUSH2 0x3C77 JUMP JUMPDEST PUSH1 0x40 MLOAD PUSH1 0x20 DUP2 DUP4 SUB SUB DUP2 MSTORE SWAP1 PUSH1 0x40 MSTORE PUSH1 0x40 MLOAD PUSH32 0x8C379A000000000000000000000000000000000000000000000000000000000 DUP2 MSTORE PUSH1 0x4 ADD PUSH2 0x1E92 SWAP2 SWAP1 PUSH2 0x2888 JUMP JUMPDEST PUSH1 0x40 MLOAD DUP1 SWAP2 SUB SWAP1 REVERT JUMPDEST POP POP JUMP JUMPDEST POP POP POP POP POP POP JUMP JUMPDEST POP POP POP POP POP POP JUMP JUMPDEST PUSH2 0x1ECE DUP5 PUSH20 0xFFFFFFFFFFFFFFFFFFFFFFFFFFFFFFFFFFFFFFFF AND PUSH2 0xF51 JUMP JUMPDEST ISZERO PUSH2 0x207E JUMPI DUP4 PUSH20 0xFFFFFFFFFFFFFFFFFFFFFFFFFFFFFFFFFFFFFFFF AND PUSH4 0xBC197C81 DUP8 DUP8 DUP7 DUP7 DUP7 PUSH1 0x40 MLOAD DUP7 PUSH4 0xFFFFFFFF AND PUSH1 0xE0 SHL DUP2 MSTORE PUSH1 0x4 ADD PUSH2 0x1F14 SWAP6 SWAP5 SWAP4 SWAP3 SWAP2 SWAP1 PUSH2 0x3D06 JUMP JUMPDEST PUSH1 0x20 PUSH1 0x40 MLOAD DUP1 DUP4 SUB DUP2 PUSH1 0x0 DUP8 GAS CALL SWAP3 POP POP POP DUP1 ISZERO PUSH2 0x1F50 JUMPI POP PUSH1 0x40 MLOAD RETURNDATASIZE PUSH1 0x1F NOT PUSH1 0x1F DUP3 ADD AND DUP3 ADD DUP1 PUSH1 0x40 MSTORE POP DUP2 ADD SWAP1 PUSH2 0x1F4D SWAP2 SWAP1 PUSH2 0x3D83 JUMP JUMPDEST PUSH1 0x1 JUMPDEST PUSH2 0x1FF5 JUMPI PUSH2 0x1F5C PUSH2 0x3DBD JUMP JUMPDEST DUP1 PUSH4 0x8C379A0 SUB PUSH2 0x1FB8 JUMPI POP PUSH2 0x1F70 PUSH2 0x3DDF JUMP JUMPDEST DUP1 PUSH2 0x1F7B JUMPI POP PUSH2 0x1FBA JUMP JUMPDEST DUP1 PUSH1 0x40 MLOAD PUSH32 0x8C379A000000000000000000000000000000000000000000000000000000000 DUP2 MSTORE PUSH1 0x4 ADD PUSH2 0x1FAF SWAP2 SWAP1 PUSH2 0x2888 JUMP JUMPDEST PUSH1 0x40 MLOAD DUP1 SWAP2 SUB SWAP1 REVERT JUMPDEST POP JUMPDEST PUSH1 0x40 MLOAD PUSH32 0x8C379A000000000000000000000000000000000000000000000000000000000 DUP2 MSTORE PUSH1 0x4 ADD PUSH2 0x1FEC SWAP1 PUSH2 0x3EE1 JUMP JUMPDEST PUSH1 0x40 MLOAD DUP1 SWAP2 SUB SWAP1 REVERT JUMPDEST PUSH4 0xBC197C81 PUSH1 0xE0 SHL PUSH28 0xFFFFFFFFFFFFFFFFFFFFFFFFFFFFFFFFFFFFFFFFFFFFFFFFFFFFFFFF NOT AND DUP2 PUSH28 0xFFFFFFFFFFFFFFFFFFFFFFFFFFFFFFFFFFFFFFFFFFFFFFFFFFFFFFFF NOT AND EQ PUSH2 0x207C JUMPI PUSH1 0x40 MLOAD PUSH32 0x8C379A000000000000000000000000000000000000000000000000000000000 DUP2 MSTORE PUSH1 0x4 ADD PUSH2 0x2073 SWAP1 PUSH2 0x3F73 JUMP JUMPDEST PUSH1 0x40 MLOAD DUP1 SWAP2 SUB SWAP1 REVERT JUMPDEST POP JUMPDEST POP POP POP POP POP POP JUMP JUMPDEST PUSH1 0x60 PUSH1 0x0 PUSH1 0x1 PUSH8 0xFFFFFFFFFFFFFFFF DUP2 GT ISZERO PUSH2 0x20A5 JUMPI PUSH2 0x20A4 PUSH2 0x2695 JUMP JUMPDEST JUMPDEST PUSH1 0x40 MLOAD SWAP1 DUP1 DUP3 MSTORE DUP1 PUSH1 0x20 MUL PUSH1 0x20 ADD DUP3 ADD PUSH1 0x40 MSTORE DUP1 ISZERO PUSH2 0x20D3 JUMPI DUP2 PUSH1 0x20 ADD PUSH1 0x20 DUP3 MUL DUP1 CALLDATASIZE DUP4 CALLDATACOPY DUP1 DUP3 ADD SWAP2 POP POP SWAP1 POP JUMPDEST POP SWAP1 POP DUP3 DUP2 PUSH1 0x0 DUP2 MLOAD DUP2 LT PUSH2 0x20EB JUMPI PUSH2 0x20EA PUSH2 0x3492 JUMP JUMPDEST JUMPDEST PUSH1 0x20 MUL PUSH1 0x20 ADD ADD DUP2 DUP2 MSTORE POP POP DUP1 SWAP2 POP POP SWAP2 SWAP1 POP JUMP JUMPDEST PUSH2 0x211F DUP5 PUSH20 0xFFFFFFFFFFFFFFFFFFFFFFFFFFFFFFFFFFFFFFFF AND PUSH2 0xF51 JUMP JUMPDEST ISZERO PUSH2 0x22CF JUMPI DUP4 PUSH20 0xFFFFFFFFFFFFFFFFFFFFFFFFFFFFFFFFFFFFFFFF AND PUSH4 0xF23A6E61 DUP8 DUP8 DUP7 DUP7 DUP7 PUSH1 0x40 MLOAD DUP7 PUSH4 0xFFFFFFFF AND PUSH1 0xE0 SHL DUP2 MSTORE PUSH1 0x4 ADD PUSH2 0x2165 SWAP6 SWAP5 SWAP4 SWAP3 SWAP2 SWAP1 PUSH2 0x3F93 JUMP JUMPDEST PUSH1 0x20 PUSH1 0x40 MLOAD DUP1 DUP4 SUB DUP2 PUSH1 0x0 DUP8 GAS CALL SWAP3 POP POP POP DUP1 ISZERO PUSH2 0x21A1 JUMPI POP PUSH1 0x40 MLOAD RETURNDATASIZE PUSH1 0x1F NOT PUSH1 0x1F DUP3 ADD AND DUP3 ADD DUP1 PUSH1 0x40 MSTORE POP DUP2 ADD SWAP1 PUSH2 0x219E SWAP2 SWAP1 PUSH2 0x3D83 JUMP JUMPDEST PUSH1 0x1 JUMPDEST PUSH2 0x2246 JUMPI PUSH2 0x21AD PUSH2 0x3DBD JUMP JUMPDEST DUP1 PUSH4 0x8C379A0 SUB PUSH2 0x2209 JUMPI POP PUSH2 0x21C1 PUSH2 0x3DDF JUMP JUMPDEST DUP1 PUSH2 0x21CC JUMPI POP PUSH2 0x220B JUMP JUMPDEST DUP1 PUSH1 0x40 MLOAD PUSH32 0x8C379A000000000000000000000000000000000000000000000000000000000 DUP2 MSTORE PUSH1 0x4 ADD PUSH2 0x2200 SWAP2 SWAP1 PUSH2 0x2888 JUMP JUMPDEST PUSH1 0x40 MLOAD DUP1 SWAP2 SUB SWAP1 REVERT JUMPDEST POP JUMPDEST PUSH1 0x40 MLOAD PUSH32 0x8C379A000000000000000000000000000000000000000000000000000000000 DUP2 MSTORE PUSH1 0x4 ADD PUSH2 0x223D SWAP1 PUSH2 0x3EE1 JUMP JUMPDEST PUSH1 0x40 MLOAD DUP1 SWAP2 SUB SWAP1 REVERT JUMPDEST PUSH4 0xF23A6E61 PUSH1 0xE0 SHL PUSH28 0xFFFFFFFFFFFFFFFFFFFFFFFFFFFFFFFFFFFFFFFFFFFFFFFFFFFFFFFF NOT AND DUP2 PUSH28 0xFFFFFFFFFFFFFFFFFFFFFFFFFFFFFFFFFFFFFFFFFFFFFFFFFFFFFFFF NOT AND EQ PUSH2 0x22CD JUMPI PUSH1 0x40 MLOAD PUSH32 0x8C379A000000000000000000000000000000000000000000000000000000000 DUP2 MSTORE PUSH1 0x4 ADD PUSH2 0x22C4 SWAP1 PUSH2 0x3F73 JUMP JUMPDEST PUSH1 0x40 MLOAD DUP1 SWAP2 SUB SWAP1 REVERT JUMPDEST POP JUMPDEST POP POP POP POP POP POP JUMP JUMPDEST DUP2 PUSH20 0xFFFFFFFFFFFFFFFFFFFFFFFFFFFFFFFFFFFFFFFF AND DUP4 PUSH20 0xFFFFFFFFFFFFFFFFFFFFFFFFFFFFFFFFFFFFFFFF AND SUB PUSH2 0x2345 JUMPI PUSH1 0x40 MLOAD PUSH32 0x8C379A000000000000000000000000000000000000000000000000000000000 DUP2 MSTORE PUSH1 0x4 ADD PUSH2 0x233C SWAP1 PUSH2 0x405F JUMP JUMPDEST PUSH1 0x40 MLOAD DUP1 SWAP2 SUB SWAP1 REVERT JUMPDEST DUP1 PUSH1 0x2 PUSH1 0x0 DUP6 PUSH20 0xFFFFFFFFFFFFFFFFFFFFFFFFFFFFFFFFFFFFFFFF AND PUSH20 0xFFFFFFFFFFFFFFFFFFFFFFFFFFFFFFFFFFFFFFFF AND DUP2 MSTORE PUSH1 0x20 ADD SWAP1 DUP2 MSTORE PUSH1 0x20 ADD PUSH1 0x0 KECCAK256 PUSH1 0x0 DUP5 PUSH20 0xFFFFFFFFFFFFFFFFFFFFFFFFFFFFFFFFFFFFFFFF AND PUSH20 0xFFFFFFFFFFFFFFFFFFFFFFFFFFFFFFFFFFFFFFFF AND DUP2 MSTORE PUSH1 0x20 ADD SWAP1 DUP2 MSTORE PUSH1 0x20 ADD PUSH1 0x0 KECCAK256 PUSH1 0x0 PUSH2 0x100 EXP DUP2 SLOAD DUP2 PUSH1 0xFF MUL NOT AND SWAP1 DUP4 ISZERO ISZERO MUL OR SWAP1 SSTORE POP DUP2 PUSH20 0xFFFFFFFFFFFFFFFFFFFFFFFFFFFFFFFFFFFFFFFF AND DUP4 PUSH20 0xFFFFFFFFFFFFFFFFFFFFFFFFFFFFFFFFFFFFFFFF AND PUSH32 0x17307EAB39AB6107E8899845AD3D59BD9653F200F220920489CA2B5937696C31 DUP4 PUSH1 0x40 MLOAD PUSH2 0x2436 SWAP2 SWAP1 PUSH2 0x265F JUMP JUMPDEST PUSH1 0x40 MLOAD DUP1 SWAP2 SUB SWAP1 LOG3 POP POP POP JUMP JUMPDEST PUSH1 0x0 PUSH32 0x1FFC9A700000000000000000000000000000000000000000000000000000000 PUSH28 0xFFFFFFFFFFFFFFFFFFFFFFFFFFFFFFFFFFFFFFFFFFFFFFFFFFFFFFFF NOT AND DUP3 PUSH28 0xFFFFFFFFFFFFFFFFFFFFFFFFFFFFFFFFFFFFFFFFFFFFFFFFFFFFFFFF NOT AND EQ SWAP1 POP SWAP2 SWAP1 POP JUMP JUMPDEST PUSH1 0x0 PUSH1 0x40 MLOAD SWAP1 POP SWAP1 JUMP JUMPDEST PUSH1 0x0 DUP1 REVERT JUMPDEST PUSH1 0x0 DUP1 REVERT JUMPDEST PUSH1 0x0 PUSH20 0xFFFFFFFFFFFFFFFFFFFFFFFFFFFFFFFFFFFFFFFF DUP3 AND SWAP1 POP SWAP2 SWAP1 POP JUMP JUMPDEST PUSH1 0x0 PUSH2 0x24EC DUP3 PUSH2 0x24C1 JUMP JUMPDEST SWAP1 POP SWAP2 SWAP1 POP JUMP JUMPDEST PUSH2 0x24FC DUP2 PUSH2 0x24E1 JUMP JUMPDEST DUP2 EQ PUSH2 0x2507 JUMPI PUSH1 0x0 DUP1 REVERT JUMPDEST POP JUMP JUMPDEST PUSH1 0x0 DUP2 CALLDATALOAD SWAP1 POP PUSH2 0x2519 DUP2 PUSH2 0x24F3 JUMP JUMPDEST SWAP3 SWAP2 POP POP JUMP JUMPDEST PUSH1 0x0 DUP2 SWAP1 POP SWAP2 SWAP1 POP JUMP JUMPDEST PUSH2 0x2532 DUP2 PUSH2 0x251F JUMP JUMPDEST DUP2 EQ PUSH2 0x253D JUMPI PUSH1 0x0 DUP1 REVERT JUMPDEST POP JUMP JUMPDEST PUSH1 0x0 DUP2 CALLDATALOAD SWAP1 POP PUSH2 0x254F DUP2 PUSH2 0x2529 JUMP JUMPDEST SWAP3 SWAP2 POP POP JUMP JUMPDEST PUSH1 0x0 DUP1 PUSH1 0x40 DUP4 DUP6 SUB SLT ISZERO PUSH2 0x256C JUMPI PUSH2 0x256B PUSH2 0x24B7 JUMP JUMPDEST JUMPDEST PUSH1 0x0 PUSH2 0x257A DUP6 DUP3 DUP7 ADD PUSH2 0x250A JUMP JUMPDEST SWAP3 POP POP PUSH1 0x20 PUSH2 0x258B DUP6 DUP3 DUP7 ADD PUSH2 0x2540 JUMP JUMPDEST SWAP2 POP POP SWAP3 POP SWAP3 SWAP1 POP JUMP JUMPDEST PUSH2 0x259E DUP2 PUSH2 0x251F JUMP JUMPDEST DUP3 MSTORE POP POP JUMP JUMPDEST PUSH1 0x0 PUSH1 0x20 DUP3 ADD SWAP1 POP PUSH2 0x25B9 PUSH1 0x0 DUP4 ADD DUP5 PUSH2 0x2595 JUMP JUMPDEST SWAP3 SWAP2 POP POP JUMP JUMPDEST PUSH1 0x0 PUSH32 0xFFFFFFFF00000000000000000000000000000000000000000000000000000000 DUP3 AND SWAP1 POP SWAP2 SWAP1 POP JUMP JUMPDEST PUSH2 0x25F4 DUP2 PUSH2 0x25BF JUMP JUMPDEST DUP2 EQ PUSH2 0x25FF JUMPI PUSH1 0x0 DUP1 REVERT JUMPDEST POP JUMP JUMPDEST PUSH1 0x0 DUP2 CALLDATALOAD SWAP1 POP PUSH2 0x2611 DUP2 PUSH2 0x25EB JUMP JUMPDEST SWAP3 SWAP2 POP POP JUMP JUMPDEST PUSH1 0x0 PUSH1 0x20 DUP3 DUP5 SUB SLT ISZERO PUSH2 0x262D JUMPI PUSH2 0x262C PUSH2 0x24B7 JUMP JUMPDEST JUMPDEST PUSH1 0x0 PUSH2 0x263B DUP5 DUP3 DUP6 ADD PUSH2 0x2602 JUMP JUMPDEST SWAP2 POP POP SWAP3 SWAP2 POP POP JUMP JUMPDEST PUSH1 0x0 DUP2 ISZERO ISZERO SWAP1 POP SWAP2 SWAP1 POP JUMP JUMPDEST PUSH2 0x2659 DUP2 PUSH2 0x2644 JUMP JUMPDEST DUP3 MSTORE POP POP JUMP JUMPDEST PUSH1 0x0 PUSH1 0x20 DUP3 ADD SWAP1 POP PUSH2 0x2674 PUSH1 0x0 DUP4 ADD DUP5 PUSH2 0x2650 JUMP JUMPDEST SWAP3 SWAP2 POP POP JUMP JUMPDEST PUSH1 0x0 DUP1 REVERT JUMPDEST PUSH1 0x0 DUP1 REVERT JUMPDEST PUSH1 0x0 PUSH1 0x1F NOT PUSH1 0x1F DUP4 ADD AND SWAP1 POP SWAP2 SWAP1 POP JUMP JUMPDEST PUSH32 0x4E487B7100000000000000000000000000000000000000000000000000000000 PUSH1 0x0 MSTORE PUSH1 0x41 PUSH1 0x4 MSTORE PUSH1 0x24 PUSH1 0x0 REVERT JUMPDEST PUSH2 0x26CD DUP3 PUSH2 0x2684 JUMP JUMPDEST DUP2 ADD DUP2 DUP2 LT PUSH8 0xFFFFFFFFFFFFFFFF DUP3 GT OR ISZERO PUSH2 0x26EC JUMPI PUSH2 0x26EB PUSH2 0x2695 JUMP JUMPDEST JUMPDEST DUP1 PUSH1 0x40 MSTORE POP POP POP JUMP JUMPDEST PUSH1 0x0 PUSH2 0x26FF PUSH2 0x24AD JUMP JUMPDEST SWAP1 POP PUSH2 0x270B DUP3 DUP3 PUSH2 0x26C4 JUMP JUMPDEST SWAP2 SWAP1 POP JUMP JUMPDEST PUSH1 0x0 PUSH8 0xFFFFFFFFFFFFFFFF DUP3 GT ISZERO PUSH2 0x272B JUMPI PUSH2 0x272A PUSH2 0x2695 JUMP JUMPDEST JUMPDEST PUSH2 0x2734 DUP3 PUSH2 0x2684 JUMP JUMPDEST SWAP1 POP PUSH1 0x20 DUP2 ADD SWAP1 POP SWAP2 SWAP1 POP JUMP JUMPDEST DUP3 DUP2 DUP4 CALLDATACOPY PUSH1 0x0 DUP4 DUP4 ADD MSTORE POP POP POP JUMP JUMPDEST PUSH1 0x0 PUSH2 0x2763 PUSH2 0x275E DUP5 PUSH2 0x2710 JUMP JUMPDEST PUSH2 0x26F5 JUMP JUMPDEST SWAP1 POP DUP3 DUP2 MSTORE PUSH1 0x20 DUP2 ADD DUP5 DUP5 DUP5 ADD GT ISZERO PUSH2 0x277F JUMPI PUSH2 0x277E PUSH2 0x267F JUMP JUMPDEST JUMPDEST PUSH2 0x278A DUP5 DUP3 DUP6 PUSH2 0x2741 JUMP JUMPDEST POP SWAP4 SWAP3 POP POP POP JUMP JUMPDEST PUSH1 0x0 DUP3 PUSH1 0x1F DUP4 ADD SLT PUSH2 0x27A7 JUMPI PUSH2 0x27A6 PUSH2 0x267A JUMP JUMPDEST JUMPDEST DUP2 CALLDATALOAD PUSH2 0x27B7 DUP5 DUP3 PUSH1 0x20 DUP7 ADD PUSH2 0x2750 JUMP JUMPDEST SWAP2 POP POP SWAP3 SWAP2 POP POP JUMP JUMPDEST PUSH1 0x0 PUSH1 0x20 DUP3 DUP5 SUB SLT ISZERO PUSH2 0x27D6 JUMPI PUSH2 0x27D5 PUSH2 0x24B7 JUMP JUMPDEST JUMPDEST PUSH1 0x0 DUP3 ADD CALLDATALOAD PUSH8 0xFFFFFFFFFFFFFFFF DUP2 GT ISZERO PUSH2 0x27F4 JUMPI PUSH2 0x27F3 PUSH2 0x24BC JUMP JUMPDEST JUMPDEST PUSH2 0x2800 DUP5 DUP3 DUP6 ADD PUSH2 0x2792 JUMP JUMPDEST SWAP2 POP POP SWAP3 SWAP2 POP POP JUMP JUMPDEST PUSH1 0x0 DUP2 MLOAD SWAP1 POP SWAP2 SWAP1 POP JUMP JUMPDEST PUSH1 0x0 DUP3 DUP3 MSTORE PUSH1 0x20 DUP3 ADD SWAP1 POP SWAP3 SWAP2 POP POP JUMP JUMPDEST PUSH1 0x0 JUMPDEST DUP4 DUP2 LT ISZERO PUSH2 0x2843 JUMPI DUP1 DUP3 ADD MLOAD DUP2 DUP5 ADD MSTORE PUSH1 0x20 DUP2 ADD SWAP1 POP PUSH2 0x2828 JUMP JUMPDEST PUSH1 0x0 DUP5 DUP5 ADD MSTORE POP POP POP POP JUMP JUMPDEST PUSH1 0x0 PUSH2 0x285A DUP3 PUSH2 0x2809 JUMP JUMPDEST PUSH2 0x2864 DUP2 DUP6 PUSH2 0x2814 JUMP JUMPDEST SWAP4 POP PUSH2 0x2874 DUP2 DUP6 PUSH1 0x20 DUP7 ADD PUSH2 0x2825 JUMP JUMPDEST PUSH2 0x287D DUP2 PUSH2 0x2684 JUMP JUMPDEST DUP5 ADD SWAP2 POP POP SWAP3 SWAP2 POP POP JUMP JUMPDEST PUSH1 0x0 PUSH1 0x20 DUP3 ADD SWAP1 POP DUP2 DUP2 SUB PUSH1 0x0 DUP4 ADD MSTORE PUSH2 0x28A2 DUP2 DUP5 PUSH2 0x284F JUMP JUMPDEST SWAP1 POP SWAP3 SWAP2 POP POP JUMP JUMPDEST PUSH1 0x0 PUSH1 0x20 DUP3 DUP5 SUB SLT ISZERO PUSH2 0x28C0 JUMPI PUSH2 0x28BF PUSH2 0x24B7 JUMP JUMPDEST JUMPDEST PUSH1 0x0 PUSH2 0x28CE DUP5 DUP3 DUP6 ADD PUSH2 0x2540 JUMP JUMPDEST SWAP2 POP POP SWAP3 SWAP2 POP POP JUMP JUMPDEST PUSH1 0x0 PUSH8 0xFFFFFFFFFFFFFFFF DUP3 GT ISZERO PUSH2 0x28F2 JUMPI PUSH2 0x28F1 PUSH2 0x2695 JUMP JUMPDEST JUMPDEST PUSH1 0x20 DUP3 MUL SWAP1 POP PUSH1 0x20 DUP2 ADD SWAP1 POP SWAP2 SWAP1 POP JUMP JUMPDEST PUSH1 0x0 DUP1 REVERT JUMPDEST PUSH1 0x0 PUSH2 0x291B PUSH2 0x2916 DUP5 PUSH2 0x28D7 JUMP JUMPDEST PUSH2 0x26F5 JUMP JUMPDEST SWAP1 POP DUP1 DUP4 DUP3 MSTORE PUSH1 0x20 DUP3 ADD SWAP1 POP PUSH1 0x20 DUP5 MUL DUP4 ADD DUP6 DUP2 GT ISZERO PUSH2 0x293E JUMPI PUSH2 0x293D PUSH2 0x2903 JUMP JUMPDEST JUMPDEST DUP4 JUMPDEST DUP2 DUP2 LT ISZERO PUSH2 0x2967 JUMPI DUP1 PUSH2 0x2953 DUP9 DUP3 PUSH2 0x2540 JUMP JUMPDEST DUP5 MSTORE PUSH1 0x20 DUP5 ADD SWAP4 POP POP PUSH1 0x20 DUP2 ADD SWAP1 POP PUSH2 0x2940 JUMP JUMPDEST POP POP POP SWAP4 SWAP3 POP POP POP JUMP JUMPDEST PUSH1 0x0 DUP3 PUSH1 0x1F DUP4 ADD SLT PUSH2 0x2986 JUMPI PUSH2 0x2985 PUSH2 0x267A JUMP JUMPDEST JUMPDEST DUP2 CALLDATALOAD PUSH2 0x2996 DUP5 DUP3 PUSH1 0x20 DUP7 ADD PUSH2 0x2908 JUMP JUMPDEST SWAP2 POP POP SWAP3 SWAP2 POP POP JUMP JUMPDEST PUSH1 0x0 PUSH8 0xFFFFFFFFFFFFFFFF DUP3 GT ISZERO PUSH2 0x29BA JUMPI PUSH2 0x29B9 PUSH2 0x2695 JUMP JUMPDEST JUMPDEST PUSH2 0x29C3 DUP3 PUSH2 0x2684 JUMP JUMPDEST SWAP1 POP PUSH1 0x20 DUP2 ADD SWAP1 POP SWAP2 SWAP1 POP JUMP JUMPDEST PUSH1 0x0 PUSH2 0x29E3 PUSH2 0x29DE DUP5 PUSH2 0x299F JUMP JUMPDEST PUSH2 0x26F5 JUMP JUMPDEST SWAP1 POP DUP3 DUP2 MSTORE PUSH1 0x20 DUP2 ADD DUP5 DUP5 DUP5 ADD GT ISZERO PUSH2 0x29FF JUMPI PUSH2 0x29FE PUSH2 0x267F JUMP JUMPDEST JUMPDEST PUSH2 0x2A0A DUP5 DUP3 DUP6 PUSH2 0x2741 JUMP JUMPDEST POP SWAP4 SWAP3 POP POP POP JUMP JUMPDEST PUSH1 0x0 DUP3 PUSH1 0x1F DUP4 ADD SLT PUSH2 0x2A27 JUMPI PUSH2 0x2A26 PUSH2 0x267A JUMP JUMPDEST JUMPDEST DUP2 CALLDATALOAD PUSH2 0x2A37 DUP5 DUP3 PUSH1 0x20 DUP7 ADD PUSH2 0x29D0 JUMP JUMPDEST SWAP2 POP POP SWAP3 SWAP2 POP POP JUMP JUMPDEST PUSH1 0x0 DUP1 PUSH1 0x0 DUP1 PUSH1 0x80 DUP6 DUP8 SUB SLT ISZERO PUSH2 0x2A5A JUMPI PUSH2 0x2A59 PUSH2 0x24B7 JUMP JUMPDEST JUMPDEST PUSH1 0x0 PUSH2 0x2A68 DUP8 DUP3 DUP9 ADD PUSH2 0x250A JUMP JUMPDEST SWAP5 POP POP PUSH1 0x20 DUP6 ADD CALLDATALOAD PUSH8 0xFFFFFFFFFFFFFFFF DUP2 GT ISZERO PUSH2 0x2A89 JUMPI PUSH2 0x2A88 PUSH2 0x24BC JUMP JUMPDEST JUMPDEST PUSH2 0x2A95 DUP8 DUP3 DUP9 ADD PUSH2 0x2971 JUMP JUMPDEST SWAP4 POP POP PUSH1 0x40 DUP6 ADD CALLDATALOAD PUSH8 0xFFFFFFFFFFFFFFFF DUP2 GT ISZERO PUSH2 0x2AB6 JUMPI PUSH2 0x2AB5 PUSH2 0x24BC JUMP JUMPDEST JUMPDEST PUSH2 0x2AC2 DUP8 DUP3 DUP9 ADD PUSH2 0x2971 JUMP JUMPDEST SWAP3 POP POP PUSH1 0x60 DUP6 ADD CALLDATALOAD PUSH8 0xFFFFFFFFFFFFFFFF DUP2 GT ISZERO PUSH2 0x2AE3 JUMPI PUSH2 0x2AE2 PUSH2 0x24BC JUMP JUMPDEST JUMPDEST PUSH2 0x2AEF DUP8 DUP3 DUP9 ADD PUSH2 0x2A12 JUMP JUMPDEST SWAP2 POP POP SWAP3 SWAP6 SWAP2 SWAP5 POP SWAP3 POP JUMP JUMPDEST PUSH1 0x0 DUP2 SWAP1 POP SWAP2 SWAP1 POP JUMP JUMPDEST PUSH2 0x2B0E DUP2 PUSH2 0x2AFB JUMP JUMPDEST DUP2 EQ PUSH2 0x2B19 JUMPI PUSH1 0x0 DUP1 REVERT JUMPDEST POP JUMP JUMPDEST PUSH1 0x0 DUP2 CALLDATALOAD SWAP1 POP PUSH2 0x2B2B DUP2 PUSH2 0x2B05 JUMP JUMPDEST SWAP3 SWAP2 POP POP JUMP JUMPDEST PUSH1 0x0 PUSH1 0x20 DUP3 DUP5 SUB SLT ISZERO PUSH2 0x2B47 JUMPI PUSH2 0x2B46 PUSH2 0x24B7 JUMP JUMPDEST JUMPDEST PUSH1 0x0 PUSH2 0x2B55 DUP5 DUP3 DUP6 ADD PUSH2 0x2B1C JUMP JUMPDEST SWAP2 POP POP SWAP3 SWAP2 POP POP JUMP JUMPDEST PUSH2 0x2B67 DUP2 PUSH2 0x2AFB JUMP JUMPDEST DUP3 MSTORE POP POP JUMP JUMPDEST PUSH1 0x0 PUSH1 0x20 DUP3 ADD SWAP1 POP PUSH2 0x2B82 PUSH1 0x0 DUP4 ADD DUP5 PUSH2 0x2B5E JUMP JUMPDEST SWAP3 SWAP2 POP POP JUMP JUMPDEST PUSH1 0x0 DUP1 PUSH1 0x0 DUP1 PUSH1 0x0 PUSH1 0xA0 DUP7 DUP9 SUB SLT ISZERO PUSH2 0x2BA4 JUMPI PUSH2 0x2BA3 PUSH2 0x24B7 JUMP JUMPDEST JUMPDEST PUSH1 0x0 PUSH2 0x2BB2 DUP9 DUP3 DUP10 ADD PUSH2 0x250A JUMP JUMPDEST SWAP6 POP POP PUSH1 0x20 PUSH2 0x2BC3 DUP9 DUP3 DUP10 ADD PUSH2 0x250A JUMP JUMPDEST SWAP5 POP POP PUSH1 0x40 DUP7 ADD CALLDATALOAD PUSH8 0xFFFFFFFFFFFFFFFF DUP2 GT ISZERO PUSH2 0x2BE4 JUMPI PUSH2 0x2BE3 PUSH2 0x24BC JUMP JUMPDEST JUMPDEST PUSH2 0x2BF0 DUP9 DUP3 DUP10 ADD PUSH2 0x2971 JUMP JUMPDEST SWAP4 POP POP PUSH1 0x60 DUP7 ADD CALLDATALOAD PUSH8 0xFFFFFFFFFFFFFFFF DUP2 GT ISZERO PUSH2 0x2C11 JUMPI PUSH2 0x2C10 PUSH2 0x24BC JUMP JUMPDEST JUMPDEST PUSH2 0x2C1D DUP9 DUP3 DUP10 ADD PUSH2 0x2971 JUMP JUMPDEST SWAP3 POP POP PUSH1 0x80 DUP7 ADD CALLDATALOAD PUSH8 0xFFFFFFFFFFFFFFFF DUP2 GT ISZERO PUSH2 0x2C3E JUMPI PUSH2 0x2C3D PUSH2 0x24BC JUMP JUMPDEST JUMPDEST PUSH2 0x2C4A DUP9 DUP3 DUP10 ADD PUSH2 0x2A12 JUMP JUMPDEST SWAP2 POP POP SWAP3 SWAP6 POP SWAP3 SWAP6 SWAP1 SWAP4 POP JUMP JUMPDEST PUSH1 0x0 DUP1 PUSH1 0x40 DUP4 DUP6 SUB SLT ISZERO PUSH2 0x2C6E JUMPI PUSH2 0x2C6D PUSH2 0x24B7 JUMP JUMPDEST JUMPDEST PUSH1 0x0 PUSH2 0x2C7C DUP6 DUP3 DUP7 ADD PUSH2 0x2B1C JUMP JUMPDEST SWAP3 POP POP PUSH1 0x20 PUSH2 0x2C8D DUP6 DUP3 DUP7 ADD PUSH2 0x250A JUMP JUMPDEST SWAP2 POP POP SWAP3 POP SWAP3 SWAP1 POP JUMP JUMPDEST PUSH1 0x0 DUP2 SWAP1 POP SWAP2 SWAP1 POP JUMP JUMPDEST PUSH1 0x0 PUSH2 0x2CBC PUSH2 0x2CB7 PUSH2 0x2CB2 DUP5 PUSH2 0x24C1 JUMP JUMPDEST PUSH2 0x2C97 JUMP JUMPDEST PUSH2 0x24C1 JUMP JUMPDEST SWAP1 POP SWAP2 SWAP1 POP JUMP JUMPDEST PUSH1 0x0 PUSH2 0x2CCE DUP3 PUSH2 0x2CA1 JUMP JUMPDEST SWAP1 POP SWAP2 SWAP1 POP JUMP JUMPDEST PUSH1 0x0 PUSH2 0x2CE0 DUP3 PUSH2 0x2CC3 JUMP JUMPDEST SWAP1 POP SWAP2 SWAP1 POP JUMP JUMPDEST PUSH2 0x2CF0 DUP2 PUSH2 0x2CD5 JUMP JUMPDEST DUP3 MSTORE POP POP JUMP JUMPDEST PUSH1 0x0 PUSH1 0x20 DUP3 ADD SWAP1 POP PUSH2 0x2D0B PUSH1 0x0 DUP4 ADD DUP5 PUSH2 0x2CE7 JUMP JUMPDEST SWAP3 SWAP2 POP POP JUMP JUMPDEST PUSH1 0x0 PUSH8 0xFFFFFFFFFFFFFFFF DUP3 GT ISZERO PUSH2 0x2D2C JUMPI PUSH2 0x2D2B PUSH2 0x2695 JUMP JUMPDEST JUMPDEST PUSH1 0x20 DUP3 MUL SWAP1 POP PUSH1 0x20 DUP2 ADD SWAP1 POP SWAP2 SWAP1 POP JUMP JUMPDEST PUSH1 0x0 PUSH2 0x2D50 PUSH2 0x2D4B DUP5 PUSH2 0x2D11 JUMP JUMPDEST PUSH2 0x26F5 JUMP JUMPDEST SWAP1 POP DUP1 DUP4 DUP3 MSTORE PUSH1 0x20 DUP3 ADD SWAP1 POP PUSH1 0x20 DUP5 MUL DUP4 ADD DUP6 DUP2 GT ISZERO PUSH2 0x2D73 JUMPI PUSH2 0x2D72 PUSH2 0x2903 JUMP JUMPDEST JUMPDEST DUP4 JUMPDEST DUP2 DUP2 LT ISZERO PUSH2 0x2D9C JUMPI DUP1 PUSH2 0x2D88 DUP9 DUP3 PUSH2 0x250A JUMP JUMPDEST DUP5 MSTORE PUSH1 0x20 DUP5 ADD SWAP4 POP POP PUSH1 0x20 DUP2 ADD SWAP1 POP PUSH2 0x2D75 JUMP JUMPDEST POP POP POP SWAP4 SWAP3 POP POP POP JUMP JUMPDEST PUSH1 0x0 DUP3 PUSH1 0x1F DUP4 ADD SLT PUSH2 0x2DBB JUMPI PUSH2 0x2DBA PUSH2 0x267A JUMP JUMPDEST JUMPDEST DUP2 CALLDATALOAD PUSH2 0x2DCB DUP5 DUP3 PUSH1 0x20 DUP7 ADD PUSH2 0x2D3D JUMP JUMPDEST SWAP2 POP POP SWAP3 SWAP2 POP POP JUMP JUMPDEST PUSH1 0x0 DUP1 PUSH1 0x40 DUP4 DUP6 SUB SLT ISZERO PUSH2 0x2DEB JUMPI PUSH2 0x2DEA PUSH2 0x24B7 JUMP JUMPDEST JUMPDEST PUSH1 0x0 DUP4 ADD CALLDATALOAD PUSH8 0xFFFFFFFFFFFFFFFF DUP2 GT ISZERO PUSH2 0x2E09 JUMPI PUSH2 0x2E08 PUSH2 0x24BC JUMP JUMPDEST JUMPDEST PUSH2 0x2E15 DUP6 DUP3 DUP7 ADD PUSH2 0x2DA6 JUMP JUMPDEST SWAP3 POP POP PUSH1 0x20 DUP4 ADD CALLDATALOAD PUSH8 0xFFFFFFFFFFFFFFFF DUP2 GT ISZERO PUSH2 0x2E36 JUMPI PUSH2 0x2E35 PUSH2 0x24BC JUMP JUMPDEST JUMPDEST PUSH2 0x2E42 DUP6 DUP3 DUP7 ADD PUSH2 0x2971 JUMP JUMPDEST SWAP2 POP POP SWAP3 POP SWAP3 SWAP1 POP JUMP JUMPDEST PUSH1 0x0 DUP2 MLOAD SWAP1 POP SWAP2 SWAP1 POP JUMP JUMPDEST PUSH1 0x0 DUP3 DUP3 MSTORE PUSH1 0x20 DUP3 ADD SWAP1 POP SWAP3 SWAP2 POP POP JUMP JUMPDEST PUSH1 0x0 DUP2 SWAP1 POP PUSH1 0x20 DUP3 ADD SWAP1 POP SWAP2 SWAP1 POP JUMP JUMPDEST PUSH2 0x2E81 DUP2 PUSH2 0x251F JUMP JUMPDEST DUP3 MSTORE POP POP JUMP JUMPDEST PUSH1 0x0 PUSH2 0x2E93 DUP4 DUP4 PUSH2 0x2E78 JUMP JUMPDEST PUSH1 0x20 DUP4 ADD SWAP1 POP SWAP3 SWAP2 POP POP JUMP JUMPDEST PUSH1 0x0 PUSH1 0x20 DUP3 ADD SWAP1 POP SWAP2 SWAP1 POP JUMP JUMPDEST PUSH1 0x0 PUSH2 0x2EB7 DUP3 PUSH2 0x2E4C JUMP JUMPDEST PUSH2 0x2EC1 DUP2 DUP6 PUSH2 0x2E57 JUMP JUMPDEST SWAP4 POP PUSH2 0x2ECC DUP4 PUSH2 0x2E68 JUMP JUMPDEST DUP1 PUSH1 0x0 JUMPDEST DUP4 DUP2 LT ISZERO PUSH2 0x2EFD JUMPI DUP2 MLOAD PUSH2 0x2EE4 DUP9 DUP3 PUSH2 0x2E87 JUMP JUMPDEST SWAP8 POP PUSH2 0x2EEF DUP4 PUSH2 0x2E9F JUMP JUMPDEST SWAP3 POP POP PUSH1 0x1 DUP2 ADD SWAP1 POP PUSH2 0x2ED0 JUMP JUMPDEST POP DUP6 SWAP4 POP POP POP POP SWAP3 SWAP2 POP POP JUMP JUMPDEST PUSH1 0x0 PUSH1 0x20 DUP3 ADD SWAP1 POP DUP2 DUP2 SUB PUSH1 0x0 DUP4 ADD MSTORE PUSH2 0x2F24 DUP2 DUP5 PUSH2 0x2EAC JUMP JUMPDEST SWAP1 POP SWAP3 SWAP2 POP POP JUMP JUMPDEST PUSH1 0x0 DUP1 PUSH1 0x0 DUP1 PUSH1 0x80 DUP6 DUP8 SUB SLT ISZERO PUSH2 0x2F46 JUMPI PUSH2 0x2F45 PUSH2 0x24B7 JUMP JUMPDEST JUMPDEST PUSH1 0x0 PUSH2 0x2F54 DUP8 DUP3 DUP9 ADD PUSH2 0x250A JUMP JUMPDEST SWAP5 POP POP PUSH1 0x20 PUSH2 0x2F65 DUP8 DUP3 DUP9 ADD PUSH2 0x2540 JUMP JUMPDEST SWAP4 POP POP PUSH1 0x40 PUSH2 0x2F76 DUP8 DUP3 DUP9 ADD PUSH2 0x2540 JUMP JUMPDEST SWAP3 POP POP PUSH1 0x60 DUP6 ADD CALLDATALOAD PUSH8 0xFFFFFFFFFFFFFFFF DUP2 GT ISZERO PUSH2 0x2F97 JUMPI PUSH2 0x2F96 PUSH2 0x24BC JUMP JUMPDEST JUMPDEST PUSH2 0x2FA3 DUP8 DUP3 DUP9 ADD PUSH2 0x2A12 JUMP JUMPDEST SWAP2 POP POP SWAP3 SWAP6 SWAP2 SWAP5 POP SWAP3 POP JUMP JUMPDEST PUSH2 0x2FB8 DUP2 PUSH2 0x2644 JUMP JUMPDEST DUP2 EQ PUSH2 0x2FC3 JUMPI PUSH1 0x0 DUP1 REVERT JUMPDEST POP JUMP JUMPDEST PUSH1 0x0 DUP2 CALLDATALOAD SWAP1 POP PUSH2 0x2FD5 DUP2 PUSH2 0x2FAF JUMP JUMPDEST SWAP3 SWAP2 POP POP JUMP JUMPDEST PUSH1 0x0 DUP1 PUSH1 0x40 DUP4 DUP6 SUB SLT ISZERO PUSH2 0x2FF2 JUMPI PUSH2 0x2FF1 PUSH2 0x24B7 JUMP JUMPDEST JUMPDEST PUSH1 0x0 PUSH2 0x3000 DUP6 DUP3 DUP7 ADD PUSH2 0x250A JUMP JUMPDEST SWAP3 POP POP PUSH1 0x20 PUSH2 0x3011 DUP6 DUP3 DUP7 ADD PUSH2 0x2FC6 JUMP JUMPDEST SWAP2 POP POP SWAP3 POP SWAP3 SWAP1 POP JUMP JUMPDEST PUSH1 0x0 DUP1 PUSH1 0x40 DUP4 DUP6 SUB SLT ISZERO PUSH2 0x3032 JUMPI PUSH2 0x3031 PUSH2 0x24B7 JUMP JUMPDEST JUMPDEST PUSH1 0x0 PUSH2 0x3040 DUP6 DUP3 DUP7 ADD PUSH2 0x250A JUMP JUMPDEST SWAP3 POP POP PUSH1 0x20 PUSH2 0x3051 DUP6 DUP3 DUP7 ADD PUSH2 0x250A JUMP JUMPDEST SWAP2 POP POP SWAP3 POP SWAP3 SWAP1 POP JUMP JUMPDEST PUSH1 0x0 DUP1 PUSH1 0x0 DUP1 PUSH1 0x0 PUSH1 0xA0 DUP7 DUP9 SUB SLT ISZERO PUSH2 0x3077 JUMPI PUSH2 0x3076 PUSH2 0x24B7 JUMP JUMPDEST JUMPDEST PUSH1 0x0 PUSH2 0x3085 DUP9 DUP3 DUP10 ADD PUSH2 0x250A JUMP JUMPDEST SWAP6 POP POP PUSH1 0x20 PUSH2 0x3096 DUP9 DUP3 DUP10 ADD PUSH2 0x250A JUMP JUMPDEST SWAP5 POP POP PUSH1 0x40 PUSH2 0x30A7 DUP9 DUP3 DUP10 ADD PUSH2 0x2540 JUMP JUMPDEST SWAP4 POP POP PUSH1 0x60 PUSH2 0x30B8 DUP9 DUP3 DUP10 ADD PUSH2 0x2540 JUMP JUMPDEST SWAP3 POP POP PUSH1 0x80 DUP7 ADD CALLDATALOAD PUSH8 0xFFFFFFFFFFFFFFFF DUP2 GT ISZERO PUSH2 0x30D9 JUMPI PUSH2 0x30D8 PUSH2 0x24BC JUMP JUMPDEST JUMPDEST PUSH2 0x30E5 DUP9 DUP3 DUP10 ADD PUSH2 0x2A12 JUMP JUMPDEST SWAP2 POP POP SWAP3 SWAP6 POP SWAP3 SWAP6 SWAP1 SWAP4 POP JUMP JUMPDEST PUSH32 0x455243313135353A2061646472657373207A65726F206973206E6F7420612076 PUSH1 0x0 DUP3 ADD MSTORE PUSH32 0x616C6964206F776E657200000000000000000000000000000000000000000000 PUSH1 0x20 DUP3 ADD MSTORE POP JUMP JUMPDEST PUSH1 0x0 PUSH2 0x314E PUSH1 0x2A DUP4 PUSH2 0x2814 JUMP JUMPDEST SWAP2 POP PUSH2 0x3159 DUP3 PUSH2 0x30F2 JUMP JUMPDEST PUSH1 0x40 DUP3 ADD SWAP1 POP SWAP2 SWAP1 POP JUMP JUMPDEST PUSH1 0x0 PUSH1 0x20 DUP3 ADD SWAP1 POP DUP2 DUP2 SUB PUSH1 0x0 DUP4 ADD MSTORE PUSH2 0x317D DUP2 PUSH2 0x3141 JUMP JUMPDEST SWAP1 POP SWAP2 SWAP1 POP JUMP JUMPDEST PUSH32 0x4E487B7100000000000000000000000000000000000000000000000000000000 PUSH1 0x0 MSTORE PUSH1 0x22 PUSH1 0x4 MSTORE PUSH1 0x24 PUSH1 0x0 REVERT JUMPDEST PUSH1 0x0 PUSH1 0x2 DUP3 DIV SWAP1 POP PUSH1 0x1 DUP3 AND DUP1 PUSH2 0x31CB JUMPI PUSH1 0x7F DUP3 AND SWAP2 POP JUMPDEST PUSH1 0x20 DUP3 LT DUP2 SUB PUSH2 0x31DE JUMPI PUSH2 0x31DD PUSH2 0x3184 JUMP JUMPDEST JUMPDEST POP SWAP2 SWAP1 POP JUMP JUMPDEST PUSH1 0x0 DUP2 SWAP1 POP SWAP3 SWAP2 POP POP JUMP JUMPDEST PUSH1 0x0 DUP2 SWAP1 POP DUP2 PUSH1 0x0 MSTORE PUSH1 0x20 PUSH1 0x0 KECCAK256 SWAP1 POP SWAP2 SWAP1 POP JUMP JUMPDEST PUSH1 0x0 DUP2 SLOAD PUSH2 0x3211 DUP2 PUSH2 0x31B3 JUMP JUMPDEST PUSH2 0x321B DUP2 DUP7 PUSH2 0x31E4 JUMP JUMPDEST SWAP5 POP PUSH1 0x1 DUP3 AND PUSH1 0x0 DUP2 EQ PUSH2 0x3236 JUMPI PUSH1 0x1 DUP2 EQ PUSH2 0x324B JUMPI PUSH2 0x327E JUMP JUMPDEST PUSH1 0xFF NOT DUP4 AND DUP7 MSTORE DUP2 ISZERO ISZERO DUP3 MUL DUP7 ADD SWAP4 POP PUSH2 0x327E JUMP JUMPDEST PUSH2 0x3254 DUP6 PUSH2 0x31EF JUMP JUMPDEST PUSH1 0x0 JUMPDEST DUP4 DUP2 LT ISZERO PUSH2 0x3276 JUMPI DUP2 SLOAD DUP2 DUP10 ADD MSTORE PUSH1 0x1 DUP3 ADD SWAP2 POP PUSH1 0x20 DUP2 ADD SWAP1 POP PUSH2 0x3257 JUMP JUMPDEST DUP4 DUP9 ADD SWAP6 POP POP POP JUMPDEST POP POP POP SWAP3 SWAP2 POP POP JUMP JUMPDEST PUSH1 0x0 PUSH2 0x3292 DUP3 PUSH2 0x2809 JUMP JUMPDEST PUSH2 0x329C DUP2 DUP6 PUSH2 0x31E4 JUMP JUMPDEST SWAP4 POP PUSH2 0x32AC DUP2 DUP6 PUSH1 0x20 DUP7 ADD PUSH2 0x2825 JUMP JUMPDEST DUP1 DUP5 ADD SWAP2 POP POP SWAP3 SWAP2 POP POP JUMP JUMPDEST PUSH1 0x0 PUSH2 0x32C4 DUP3 DUP6 PUSH2 0x3204 JUMP JUMPDEST SWAP2 POP PUSH2 0x32D0 DUP3 DUP5 PUSH2 0x3287 JUMP JUMPDEST SWAP2 POP DUP2 SWAP1 POP SWAP4 SWAP3 POP POP POP JUMP JUMPDEST PUSH32 0x455243313135353A2063616C6C6572206973206E6F7420746F6B656E206F776E PUSH1 0x0 DUP3 ADD MSTORE PUSH32 0x6572206F7220617070726F766564000000000000000000000000000000000000 PUSH1 0x20 DUP3 ADD MSTORE POP JUMP JUMPDEST PUSH1 0x0 PUSH2 0x3338 PUSH1 0x2E DUP4 PUSH2 0x2814 JUMP JUMPDEST SWAP2 POP PUSH2 0x3343 DUP3 PUSH2 0x32DC JUMP JUMPDEST PUSH1 0x40 DUP3 ADD SWAP1 POP SWAP2 SWAP1 POP JUMP JUMPDEST PUSH1 0x0 PUSH1 0x20 DUP3 ADD SWAP1 POP DUP2 DUP2 SUB PUSH1 0x0 DUP4 ADD MSTORE PUSH2 0x3367 DUP2 PUSH2 0x332B JUMP JUMPDEST SWAP1 POP SWAP2 SWAP1 POP JUMP JUMPDEST PUSH32 0x416363657373436F6E74726F6C3A2063616E206F6E6C792072656E6F756E6365 PUSH1 0x0 DUP3 ADD MSTORE PUSH32 0x20726F6C657320666F722073656C660000000000000000000000000000000000 PUSH1 0x20 DUP3 ADD MSTORE POP JUMP JUMPDEST PUSH1 0x0 PUSH2 0x33CA PUSH1 0x2F DUP4 PUSH2 0x2814 JUMP JUMPDEST SWAP2 POP PUSH2 0x33D5 DUP3 PUSH2 0x336E JUMP JUMPDEST PUSH1 0x40 DUP3 ADD SWAP1 POP SWAP2 SWAP1 POP JUMP JUMPDEST PUSH1 0x0 PUSH1 0x20 DUP3 ADD SWAP1 POP DUP2 DUP2 SUB PUSH1 0x0 DUP4 ADD MSTORE PUSH2 0x33F9 DUP2 PUSH2 0x33BD JUMP JUMPDEST SWAP1 POP SWAP2 SWAP1 POP JUMP JUMPDEST PUSH32 0x455243313135353A206163636F756E747320616E6420696473206C656E677468 PUSH1 0x0 DUP3 ADD MSTORE PUSH32 0x206D69736D617463680000000000000000000000000000000000000000000000 PUSH1 0x20 DUP3 ADD MSTORE POP JUMP JUMPDEST PUSH1 0x0 PUSH2 0x345C PUSH1 0x29 DUP4 PUSH2 0x2814 JUMP JUMPDEST SWAP2 POP PUSH2 0x3467 DUP3 PUSH2 0x3400 JUMP JUMPDEST PUSH1 0x40 DUP3 ADD SWAP1 POP SWAP2 SWAP1 POP JUMP JUMPDEST PUSH1 0x0 PUSH1 0x20 DUP3 ADD SWAP1 POP DUP2 DUP2 SUB PUSH1 0x0 DUP4 ADD MSTORE PUSH2 0x348B DUP2 PUSH2 0x344F JUMP JUMPDEST SWAP1 POP SWAP2 SWAP1 POP JUMP JUMPDEST PUSH32 0x4E487B7100000000000000000000000000000000000000000000000000000000 PUSH1 0x0 MSTORE PUSH1 0x32 PUSH1 0x4 MSTORE PUSH1 0x24 PUSH1 0x0 REVERT JUMPDEST PUSH32 0x4E487B7100000000000000000000000000000000000000000000000000000000 PUSH1 0x0 MSTORE PUSH1 0x11 PUSH1 0x4 MSTORE PUSH1 0x24 PUSH1 0x0 REVERT JUMPDEST PUSH1 0x0 PUSH2 0x34FB DUP3 PUSH2 0x251F JUMP JUMPDEST SWAP2 POP PUSH32 0xFFFFFFFFFFFFFFFFFFFFFFFFFFFFFFFFFFFFFFFFFFFFFFFFFFFFFFFFFFFFFFFF DUP3 SUB PUSH2 0x352D JUMPI PUSH2 0x352C PUSH2 0x34C1 JUMP JUMPDEST JUMPDEST PUSH1 0x1 DUP3 ADD SWAP1 POP SWAP2 SWAP1 POP JUMP JUMPDEST PUSH1 0x0 PUSH2 0x3543 DUP3 PUSH2 0x251F JUMP JUMPDEST SWAP2 POP PUSH2 0x354E DUP4 PUSH2 0x251F JUMP JUMPDEST SWAP3 POP DUP3 DUP3 MUL PUSH2 0x355C DUP2 PUSH2 0x251F JUMP JUMPDEST SWAP2 POP DUP3 DUP3 DIV DUP5 EQ DUP4 ISZERO OR PUSH2 0x3573 JUMPI PUSH2 0x3572 PUSH2 0x34C1 JUMP JUMPDEST JUMPDEST POP SWAP3 SWAP2 POP POP JUMP JUMPDEST PUSH1 0x0 PUSH2 0x3585 DUP3 PUSH2 0x251F JUMP JUMPDEST SWAP2 POP PUSH2 0x3590 DUP4 PUSH2 0x251F JUMP JUMPDEST SWAP3 POP DUP3 DUP3 ADD SWAP1 POP DUP1 DUP3 GT ISZERO PUSH2 0x35A8 JUMPI PUSH2 0x35A7 PUSH2 0x34C1 JUMP JUMPDEST JUMPDEST SWAP3 SWAP2 POP POP JUMP JUMPDEST PUSH1 0x0 PUSH2 0x35B9 DUP3 PUSH2 0x251F JUMP JUMPDEST SWAP2 POP PUSH1 0x0 DUP3 SUB PUSH2 0x35CC JUMPI PUSH2 0x35CB PUSH2 0x34C1 JUMP JUMPDEST JUMPDEST PUSH1 0x1 DUP3 SUB SWAP1 POP SWAP2 SWAP1 POP JUMP JUMPDEST PUSH32 0x537472696E67733A20686578206C656E67746820696E73756666696369656E74 PUSH1 0x0 DUP3 ADD MSTORE POP JUMP JUMPDEST PUSH1 0x0 PUSH2 0x360D PUSH1 0x20 DUP4 PUSH2 0x2814 JUMP JUMPDEST SWAP2 POP PUSH2 0x3618 DUP3 PUSH2 0x35D7 JUMP JUMPDEST PUSH1 0x20 DUP3 ADD SWAP1 POP SWAP2 SWAP1 POP JUMP JUMPDEST PUSH1 0x0 PUSH1 0x20 DUP3 ADD SWAP1 POP DUP2 DUP2 SUB PUSH1 0x0 DUP4 ADD MSTORE PUSH2 0x363C DUP2 PUSH2 0x3600 JUMP JUMPDEST SWAP1 POP SWAP2 SWAP1 POP JUMP JUMPDEST PUSH1 0x0 PUSH1 0x20 PUSH1 0x1F DUP4 ADD DIV SWAP1 POP SWAP2 SWAP1 POP JUMP JUMPDEST PUSH1 0x0 DUP3 DUP3 SHL SWAP1 POP SWAP3 SWAP2 POP POP JUMP JUMPDEST PUSH1 0x0 PUSH1 0x8 DUP4 MUL PUSH2 0x3690 PUSH32 0xFFFFFFFFFFFFFFFFFFFFFFFFFFFFFFFFFFFFFFFFFFFFFFFFFFFFFFFFFFFFFFFF DUP3 PUSH2 0x3653 JUMP JUMPDEST PUSH2 0x369A DUP7 DUP4 PUSH2 0x3653 JUMP JUMPDEST SWAP6 POP DUP1 NOT DUP5 AND SWAP4 POP DUP1 DUP7 AND DUP5 OR SWAP3 POP POP POP SWAP4 SWAP3 POP POP POP JUMP JUMPDEST PUSH1 0x0 PUSH2 0x36CD PUSH2 0x36C8 PUSH2 0x36C3 DUP5 PUSH2 0x251F JUMP JUMPDEST PUSH2 0x2C97 JUMP JUMPDEST PUSH2 0x251F JUMP JUMPDEST SWAP1 POP SWAP2 SWAP1 POP JUMP JUMPDEST PUSH1 0x0 DUP2 SWAP1 POP SWAP2 SWAP1 POP JUMP JUMPDEST PUSH2 0x36E7 DUP4 PUSH2 0x36B2 JUMP JUMPDEST PUSH2 0x36FB PUSH2 0x36F3 DUP3 PUSH2 0x36D4 JUMP JUMPDEST DUP5 DUP5 SLOAD PUSH2 0x3660 JUMP JUMPDEST DUP3 SSTORE POP POP POP POP JUMP JUMPDEST PUSH1 0x0 SWAP1 JUMP JUMPDEST PUSH2 0x3710 PUSH2 0x3703 JUMP JUMPDEST PUSH2 0x371B DUP2 DUP5 DUP5 PUSH2 0x36DE JUMP JUMPDEST POP POP POP JUMP JUMPDEST JUMPDEST DUP2 DUP2 LT ISZERO PUSH2 0x373F JUMPI PUSH2 0x3734 PUSH1 0x0 DUP3 PUSH2 0x3708 JUMP JUMPDEST PUSH1 0x1 DUP2 ADD SWAP1 POP PUSH2 0x3721 JUMP JUMPDEST POP POP JUMP JUMPDEST PUSH1 0x1F DUP3 GT ISZERO PUSH2 0x3784 JUMPI PUSH2 0x3755 DUP2 PUSH2 0x31EF JUMP JUMPDEST PUSH2 0x375E DUP5 PUSH2 0x3643 JUMP JUMPDEST DUP2 ADD PUSH1 0x20 DUP6 LT ISZERO PUSH2 0x376D JUMPI DUP2 SWAP1 POP JUMPDEST PUSH2 0x3781 PUSH2 0x3779 DUP6 PUSH2 0x3643 JUMP JUMPDEST DUP4 ADD DUP3 PUSH2 0x3720 JUMP JUMPDEST POP POP JUMPDEST POP POP POP JUMP JUMPDEST PUSH1 0x0 DUP3 DUP3 SHR SWAP1 POP SWAP3 SWAP2 POP POP JUMP JUMPDEST PUSH1 0x0 PUSH2 0x37A7 PUSH1 0x0 NOT DUP5 PUSH1 0x8 MUL PUSH2 0x3789 JUMP JUMPDEST NOT DUP1 DUP4 AND SWAP2 POP POP SWAP3 SWAP2 POP POP JUMP JUMPDEST PUSH1 0x0 PUSH2 0x37C0 DUP4 DUP4 PUSH2 0x3796 JUMP JUMPDEST SWAP2 POP DUP3 PUSH1 0x2 MUL DUP3 OR SWAP1 POP SWAP3 SWAP2 POP POP JUMP JUMPDEST PUSH2 0x37D9 DUP3 PUSH2 0x2809 JUMP JUMPDEST PUSH8 0xFFFFFFFFFFFFFFFF DUP2 GT ISZERO PUSH2 0x37F2 JUMPI PUSH2 0x37F1 PUSH2 0x2695 JUMP JUMPDEST JUMPDEST PUSH2 0x37FC DUP3 SLOAD PUSH2 0x31B3 JUMP JUMPDEST PUSH2 0x3807 DUP3 DUP3 DUP6 PUSH2 0x3743 JUMP JUMPDEST PUSH1 0x0 PUSH1 0x20 SWAP1 POP PUSH1 0x1F DUP4 GT PUSH1 0x1 DUP2 EQ PUSH2 0x383A JUMPI PUSH1 0x0 DUP5 ISZERO PUSH2 0x3828 JUMPI DUP3 DUP8 ADD MLOAD SWAP1 POP JUMPDEST PUSH2 0x3832 DUP6 DUP3 PUSH2 0x37B4 JUMP JUMPDEST DUP7 SSTORE POP PUSH2 0x389A JUMP JUMPDEST PUSH1 0x1F NOT DUP5 AND PUSH2 0x3848 DUP7 PUSH2 0x31EF JUMP JUMPDEST PUSH1 0x0 JUMPDEST DUP3 DUP2 LT ISZERO PUSH2 0x3870 JUMPI DUP5 DUP10 ADD MLOAD DUP3 SSTORE PUSH1 0x1 DUP3 ADD SWAP2 POP PUSH1 0x20 DUP6 ADD SWAP5 POP PUSH1 0x20 DUP2 ADD SWAP1 POP PUSH2 0x384B JUMP JUMPDEST DUP7 DUP4 LT ISZERO PUSH2 0x388D JUMPI DUP5 DUP10 ADD MLOAD PUSH2 0x3889 PUSH1 0x1F DUP10 AND DUP3 PUSH2 0x3796 JUMP JUMPDEST DUP4 SSTORE POP JUMPDEST PUSH1 0x1 PUSH1 0x2 DUP9 MUL ADD DUP9 SSTORE POP POP POP JUMPDEST POP POP POP POP POP POP JUMP JUMPDEST PUSH32 0x455243313135353A206D696E7420746F20746865207A65726F20616464726573 PUSH1 0x0 DUP3 ADD MSTORE PUSH32 0x7300000000000000000000000000000000000000000000000000000000000000 PUSH1 0x20 DUP3 ADD MSTORE POP JUMP JUMPDEST PUSH1 0x0 PUSH2 0x38FE PUSH1 0x21 DUP4 PUSH2 0x2814 JUMP JUMPDEST SWAP2 POP PUSH2 0x3909 DUP3 PUSH2 0x38A2 JUMP JUMPDEST PUSH1 0x40 DUP3 ADD SWAP1 POP SWAP2 SWAP1 POP JUMP JUMPDEST PUSH1 0x0 PUSH1 0x20 DUP3 ADD SWAP1 POP DUP2 DUP2 SUB PUSH1 0x0 DUP4 ADD MSTORE PUSH2 0x392D DUP2 PUSH2 0x38F1 JUMP JUMPDEST SWAP1 POP SWAP2 SWAP1 POP JUMP JUMPDEST PUSH32 0x455243313135353A2069647320616E6420616D6F756E7473206C656E67746820 PUSH1 0x0 DUP3 ADD MSTORE PUSH32 0x6D69736D61746368000000000000000000000000000000000000000000000000 PUSH1 0x20 DUP3 ADD MSTORE POP JUMP JUMPDEST PUSH1 0x0 PUSH2 0x3990 PUSH1 0x28 DUP4 PUSH2 0x2814 JUMP JUMPDEST SWAP2 POP PUSH2 0x399B DUP3 PUSH2 0x3934 JUMP JUMPDEST PUSH1 0x40 DUP3 ADD SWAP1 POP SWAP2 SWAP1 POP JUMP JUMPDEST PUSH1 0x0 PUSH1 0x20 DUP3 ADD SWAP1 POP DUP2 DUP2 SUB PUSH1 0x0 DUP4 ADD MSTORE PUSH2 0x39BF DUP2 PUSH2 0x3983 JUMP JUMPDEST SWAP1 POP SWAP2 SWAP1 POP JUMP JUMPDEST PUSH1 0x0 PUSH1 0x40 DUP3 ADD SWAP1 POP DUP2 DUP2 SUB PUSH1 0x0 DUP4 ADD MSTORE PUSH2 0x39E0 DUP2 DUP6 PUSH2 0x2EAC JUMP JUMPDEST SWAP1 POP DUP2 DUP2 SUB PUSH1 0x20 DUP4 ADD MSTORE PUSH2 0x39F4 DUP2 DUP5 PUSH2 0x2EAC JUMP JUMPDEST SWAP1 POP SWAP4 SWAP3 POP POP POP JUMP JUMPDEST PUSH32 0x455243313135353A207472616E7366657220746F20746865207A65726F206164 PUSH1 0x0 DUP3 ADD MSTORE PUSH32 0x6472657373000000000000000000000000000000000000000000000000000000 PUSH1 0x20 DUP3 ADD MSTORE POP JUMP JUMPDEST PUSH1 0x0 PUSH2 0x3A59 PUSH1 0x25 DUP4 PUSH2 0x2814 JUMP JUMPDEST SWAP2 POP PUSH2 0x3A64 DUP3 PUSH2 0x39FD JUMP JUMPDEST PUSH1 0x40 DUP3 ADD SWAP1 POP SWAP2 SWAP1 POP JUMP JUMPDEST PUSH1 0x0 PUSH1 0x20 DUP3 ADD SWAP1 POP DUP2 DUP2 SUB PUSH1 0x0 DUP4 ADD MSTORE PUSH2 0x3A88 DUP2 PUSH2 0x3A4C JUMP JUMPDEST SWAP1 POP SWAP2 SWAP1 POP JUMP JUMPDEST PUSH32 0x455243313135353A20696E73756666696369656E742062616C616E636520666F PUSH1 0x0 DUP3 ADD MSTORE PUSH32 0x72207472616E7366657200000000000000000000000000000000000000000000 PUSH1 0x20 DUP3 ADD MSTORE POP JUMP JUMPDEST PUSH1 0x0 PUSH2 0x3AEB PUSH1 0x2A DUP4 PUSH2 0x2814 JUMP JUMPDEST SWAP2 POP PUSH2 0x3AF6 DUP3 PUSH2 0x3A8F JUMP JUMPDEST PUSH1 0x40 DUP3 ADD SWAP1 POP SWAP2 SWAP1 POP JUMP JUMPDEST PUSH1 0x0 PUSH1 0x20 DUP3 ADD SWAP1 POP DUP2 DUP2 SUB PUSH1 0x0 DUP4 ADD MSTORE PUSH2 0x3B1A DUP2 PUSH2 0x3ADE JUMP JUMPDEST SWAP1 POP SWAP2 SWAP1 POP JUMP JUMPDEST PUSH1 0x0 PUSH1 0x40 DUP3 ADD SWAP1 POP PUSH2 0x3B36 PUSH1 0x0 DUP4 ADD DUP6 PUSH2 0x2595 JUMP JUMPDEST PUSH2 0x3B43 PUSH1 0x20 DUP4 ADD DUP5 PUSH2 0x2595 JUMP JUMPDEST SWAP4 SWAP3 POP POP POP JUMP JUMPDEST PUSH2 0x3B53 DUP2 PUSH2 0x24E1 JUMP JUMPDEST DUP3 MSTORE POP POP JUMP JUMPDEST PUSH1 0x0 PUSH1 0x40 DUP3 ADD SWAP1 POP PUSH2 0x3B6E PUSH1 0x0 DUP4 ADD DUP6 PUSH2 0x3B4A JUMP JUMPDEST PUSH2 0x3B7B PUSH1 0x20 DUP4 ADD DUP5 PUSH2 0x3B4A JUMP JUMPDEST SWAP4 SWAP3 POP POP POP JUMP JUMPDEST PUSH1 0x0 DUP2 MLOAD SWAP1 POP PUSH2 0x3B91 DUP2 PUSH2 0x2FAF JUMP JUMPDEST SWAP3 SWAP2 POP POP JUMP JUMPDEST PUSH1 0x0 PUSH1 0x20 DUP3 DUP5 SUB SLT ISZERO PUSH2 0x3BAD JUMPI PUSH2 0x3BAC PUSH2 0x24B7 JUMP JUMPDEST JUMPDEST PUSH1 0x0 PUSH2 0x3BBB DUP5 DUP3 DUP6 ADD PUSH2 0x3B82 JUMP JUMPDEST SWAP2 POP POP SWAP3 SWAP2 POP POP JUMP JUMPDEST PUSH1 0x0 PUSH1 0x20 DUP3 ADD SWAP1 POP PUSH2 0x3BD9 PUSH1 0x0 DUP4 ADD DUP5 PUSH2 0x3B4A JUMP JUMPDEST SWAP3 SWAP2 POP POP JUMP JUMPDEST PUSH32 0x416363657373436F6E74726F6C3A206163636F756E7420000000000000000000 PUSH1 0x0 DUP3 ADD MSTORE POP JUMP JUMPDEST PUSH1 0x0 PUSH2 0x3C15 PUSH1 0x17 DUP4 PUSH2 0x31E4 JUMP JUMPDEST SWAP2 POP PUSH2 0x3C20 DUP3 PUSH2 0x3BDF JUMP JUMPDEST PUSH1 0x17 DUP3 ADD SWAP1 POP SWAP2 SWAP1 POP JUMP JUMPDEST PUSH32 0x206973206D697373696E6720726F6C6520000000000000000000000000000000 PUSH1 0x0 DUP3 ADD MSTORE POP JUMP JUMPDEST PUSH1 0x0 PUSH2 0x3C61 PUSH1 0x11 DUP4 PUSH2 0x31E4 JUMP JUMPDEST SWAP2 POP PUSH2 0x3C6C DUP3 PUSH2 0x3C2B JUMP JUMPDEST PUSH1 0x11 DUP3 ADD SWAP1 POP SWAP2 SWAP1 POP JUMP JUMPDEST PUSH1 0x0 PUSH2 0x3C82 DUP3 PUSH2 0x3C08 JUMP JUMPDEST SWAP2 POP PUSH2 0x3C8E DUP3 DUP6 PUSH2 0x3287 JUMP JUMPDEST SWAP2 POP PUSH2 0x3C99 DUP3 PUSH2 0x3C54 JUMP JUMPDEST SWAP2 POP PUSH2 0x3CA5 DUP3 DUP5 PUSH2 0x3287 JUMP JUMPDEST SWAP2 POP DUP2 SWAP1 POP SWAP4 SWAP3 POP POP POP JUMP JUMPDEST PUSH1 0x0 DUP2 MLOAD SWAP1 POP SWAP2 SWAP1 POP JUMP JUMPDEST PUSH1 0x0 DUP3 DUP3 MSTORE PUSH1 0x20 DUP3 ADD SWAP1 POP SWAP3 SWAP2 POP POP JUMP JUMPDEST PUSH1 0x0 PUSH2 0x3CD8 DUP3 PUSH2 0x3CB1 JUMP JUMPDEST PUSH2 0x3CE2 DUP2 DUP6 PUSH2 0x3CBC JUMP JUMPDEST SWAP4 POP PUSH2 0x3CF2 DUP2 DUP6 PUSH1 0x20 DUP7 ADD PUSH2 0x2825 JUMP JUMPDEST PUSH2 0x3CFB DUP2 PUSH2 0x2684 JUMP JUMPDEST DUP5 ADD SWAP2 POP POP SWAP3 SWAP2 POP POP JUMP JUMPDEST PUSH1 0x0 PUSH1 0xA0 DUP3 ADD SWAP1 POP PUSH2 0x3D1B PUSH1 0x0 DUP4 ADD DUP9 PUSH2 0x3B4A JUMP JUMPDEST PUSH2 0x3D28 PUSH1 0x20 DUP4 ADD DUP8 PUSH2 0x3B4A JUMP JUMPDEST DUP2 DUP2 SUB PUSH1 0x40 DUP4 ADD MSTORE PUSH2 0x3D3A DUP2 DUP7 PUSH2 0x2EAC JUMP JUMPDEST SWAP1 POP DUP2 DUP2 SUB PUSH1 0x60 DUP4 ADD MSTORE PUSH2 0x3D4E DUP2 DUP6 PUSH2 0x2EAC JUMP JUMPDEST SWAP1 POP DUP2 DUP2 SUB PUSH1 0x80 DUP4 ADD MSTORE PUSH2 0x3D62 DUP2 DUP5 PUSH2 0x3CCD JUMP JUMPDEST SWAP1 POP SWAP7 SWAP6 POP POP POP POP POP POP JUMP JUMPDEST PUSH1 0x0 DUP2 MLOAD SWAP1 POP PUSH2 0x3D7D DUP2 PUSH2 0x25EB JUMP JUMPDEST SWAP3 SWAP2 POP POP JUMP JUMPDEST PUSH1 0x0 PUSH1 0x20 DUP3 DUP5 SUB SLT ISZERO PUSH2 0x3D99 JUMPI PUSH2 0x3D98 PUSH2 0x24B7 JUMP JUMPDEST JUMPDEST PUSH1 0x0 PUSH2 0x3DA7 DUP5 DUP3 DUP6 ADD PUSH2 0x3D6E JUMP JUMPDEST SWAP2 POP POP SWAP3 SWAP2 POP POP JUMP JUMPDEST PUSH1 0x0 DUP2 PUSH1 0xE0 SHR SWAP1 POP SWAP2 SWAP1 POP JUMP JUMPDEST PUSH1 0x0 PUSH1 0x3 RETURNDATASIZE GT ISZERO PUSH2 0x3DDC JUMPI PUSH1 0x4 PUSH1 0x0 DUP1 RETURNDATACOPY PUSH2 0x3DD9 PUSH1 0x0 MLOAD PUSH2 0x3DB0 JUMP JUMPDEST SWAP1 POP JUMPDEST SWAP1 JUMP JUMPDEST PUSH1 0x0 PUSH1 0x44 RETURNDATASIZE LT PUSH2 0x3E6C JUMPI PUSH2 0x3DF1 PUSH2 0x24AD JUMP JUMPDEST PUSH1 0x4 RETURNDATASIZE SUB PUSH1 0x4 DUP3 RETURNDATACOPY DUP1 MLOAD RETURNDATASIZE PUSH1 0x24 DUP3 ADD GT PUSH8 0xFFFFFFFFFFFFFFFF DUP3 GT OR ISZERO PUSH2 0x3E19 JUMPI POP POP PUSH2 0x3E6C JUMP JUMPDEST DUP1 DUP3 ADD DUP1 MLOAD PUSH8 0xFFFFFFFFFFFFFFFF DUP2 GT ISZERO PUSH2 0x3E37 JUMPI POP POP POP POP PUSH2 0x3E6C JUMP JUMPDEST DUP1 PUSH1 0x20 DUP4 ADD ADD PUSH1 0x4 RETURNDATASIZE SUB DUP6 ADD DUP2 GT ISZERO PUSH2 0x3E54 JUMPI POP POP POP POP POP PUSH2 0x3E6C JUMP JUMPDEST PUSH2 0x3E63 DUP3 PUSH1 0x20 ADD DUP6 ADD DUP7 PUSH2 0x26C4 JUMP JUMPDEST DUP3 SWAP6 POP POP POP POP POP POP JUMPDEST SWAP1 JUMP JUMPDEST PUSH32 0x455243313135353A207472616E7366657220746F206E6F6E2D45524331313535 PUSH1 0x0 DUP3 ADD MSTORE PUSH32 0x526563656976657220696D706C656D656E746572000000000000000000000000 PUSH1 0x20 DUP3 ADD MSTORE POP JUMP JUMPDEST PUSH1 0x0 PUSH2 0x3ECB PUSH1 0x34 DUP4 PUSH2 0x2814 JUMP JUMPDEST SWAP2 POP PUSH2 0x3ED6 DUP3 PUSH2 0x3E6F JUMP JUMPDEST PUSH1 0x40 DUP3 ADD SWAP1 POP SWAP2 SWAP1 POP JUMP JUMPDEST PUSH1 0x0 PUSH1 0x20 DUP3 ADD SWAP1 POP DUP2 DUP2 SUB PUSH1 0x0 DUP4 ADD MSTORE PUSH2 0x3EFA DUP2 PUSH2 0x3EBE JUMP JUMPDEST SWAP1 POP SWAP2 SWAP1 POP JUMP JUMPDEST PUSH32 0x455243313135353A204552433131353552656365697665722072656A65637465 PUSH1 0x0 DUP3 ADD MSTORE PUSH32 0x6420746F6B656E73000000000000000000000000000000000000000000000000 PUSH1 0x20 DUP3 ADD MSTORE POP JUMP JUMPDEST PUSH1 0x0 PUSH2 0x3F5D PUSH1 0x28 DUP4 PUSH2 0x2814 JUMP JUMPDEST SWAP2 POP PUSH2 0x3F68 DUP3 PUSH2 0x3F01 JUMP JUMPDEST PUSH1 0x40 DUP3 ADD SWAP1 POP SWAP2 SWAP1 POP JUMP JUMPDEST PUSH1 0x0 PUSH1 0x20 DUP3 ADD SWAP1 POP DUP2 DUP2 SUB PUSH1 0x0 DUP4 ADD MSTORE PUSH2 0x3F8C DUP2 PUSH2 0x3F50 JUMP JUMPDEST SWAP1 POP SWAP2 SWAP1 POP JUMP JUMPDEST PUSH1 0x0 PUSH1 0xA0 DUP3 ADD SWAP1 POP PUSH2 0x3FA8 PUSH1 0x0 DUP4 ADD DUP9 PUSH2 0x3B4A JUMP JUMPDEST PUSH2 0x3FB5 PUSH1 0x20 DUP4 ADD DUP8 PUSH2 0x3B4A JUMP JUMPDEST PUSH2 0x3FC2 PUSH1 0x40 DUP4 ADD DUP7 PUSH2 0x2595 JUMP JUMPDEST PUSH2 0x3FCF PUSH1 0x60 DUP4 ADD DUP6 PUSH2 0x2595 JUMP JUMPDEST DUP2 DUP2 SUB PUSH1 0x80 DUP4 ADD MSTORE PUSH2 0x3FE1 DUP2 DUP5 PUSH2 0x3CCD JUMP JUMPDEST SWAP1 POP SWAP7 SWAP6 POP POP POP POP POP POP JUMP JUMPDEST PUSH32 0x455243313135353A2073657474696E6720617070726F76616C20737461747573 PUSH1 0x0 DUP3 ADD MSTORE PUSH32 0x20666F722073656C660000000000000000000000000000000000000000000000 PUSH1 0x20 DUP3 ADD MSTORE POP JUMP JUMPDEST PUSH1 0x0 PUSH2 0x4049 PUSH1 0x29 DUP4 PUSH2 0x2814 JUMP JUMPDEST SWAP2 POP PUSH2 0x4054 DUP3 PUSH2 0x3FED JUMP JUMPDEST PUSH1 0x40 DUP3 ADD SWAP1 POP SWAP2 SWAP1 POP JUMP JUMPDEST PUSH1 0x0 PUSH1 0x20 DUP3 ADD SWAP1 POP DUP2 DUP2 SUB PUSH1 0x0 DUP4 ADD MSTORE PUSH2 0x4078 DUP2 PUSH2 0x403C JUMP JUMPDEST SWAP1 POP SWAP2 SWAP1 POP JUMP INVALID LOG2 PUSH5 0x6970667358 0x22 SLT KECCAK256 PUSH25 0x5D5182DD84117BD780260039CF320A4CF0BD7F0C23658106E1 AND XOR 0xC5 0xC6 PUSH27 0xFC64736F6C63430008110033697066733A2F2F516D526F51745945 0x4D CALLDATASIZE PUSH24 0x6B45586D4C39504766377177574852384A727A63326F424E CALLDATACOPY PUSH20 0x6E54676646416A46422F322E6A736F6E00000000 "
		},
		"gasEstimates": {
			"creation": {
				"codeDepositCost": "3313000",
				"executionCost": "infinite",
				"totalCost": "infinite"
			},
			"external": {
				"DEFAULT_ADMIN_ROLE()": "357",
				"MINTER_ROLE()": "395",
				"OPERATOR_FILTER_REGISTRY()": "infinite",
				"URI_SETTER_ROLE()": "418",
				"balanceOf(address,uint256)": "infinite",
				"balanceOfBatch(address[],uint256[])": "infinite",
				"getRoleAdmin(bytes32)": "infinite",
				"grantRole(bytes32,address)": "infinite",
				"hasRole(bytes32,address)": "3251",
				"isApprovedForAll(address,address)": "infinite",
				"mint(address,uint256,uint256,bytes)": "infinite",
				"mintBatch(address,uint256[],uint256[],bytes)": "infinite",
				"name()": "infinite",
				"renounceRole(bytes32,address)": "infinite",
				"revokeRole(bytes32,address)": "infinite",
				"safeBatchTransferFrom(address,address,uint256[],uint256[],bytes)": "infinite",
				"safeTransferFrom(address,address,uint256,uint256,bytes)": "infinite",
				"setApprovalForAll(address,bool)": "infinite",
				"setBaseURI(string)": "infinite",
				"setURI(string)": "infinite",
				"supportsInterface(bytes4)": "951",
				"symbol()": "infinite",
				"uri(uint256)": "infinite"
			}
		},
		"methodIdentifiers": {
			"DEFAULT_ADMIN_ROLE()": "a217fddf",
			"MINTER_ROLE()": "d5391393",
			"OPERATOR_FILTER_REGISTRY()": "41f43434",
			"URI_SETTER_ROLE()": "7f345710",
			"balanceOf(address,uint256)": "00fdd58e",
			"balanceOfBatch(address[],uint256[])": "4e1273f4",
			"getRoleAdmin(bytes32)": "248a9ca3",
			"grantRole(bytes32,address)": "2f2ff15d",
			"hasRole(bytes32,address)": "91d14854",
			"isApprovedForAll(address,address)": "e985e9c5",
			"mint(address,uint256,uint256,bytes)": "731133e9",
			"mintBatch(address,uint256[],uint256[],bytes)": "1f7fdffa",
			"name()": "06fdde03",
			"renounceRole(bytes32,address)": "36568abe",
			"revokeRole(bytes32,address)": "d547741f",
			"safeBatchTransferFrom(address,address,uint256[],uint256[],bytes)": "2eb2c2d6",
			"safeTransferFrom(address,address,uint256,uint256,bytes)": "f242432a",
			"setApprovalForAll(address,bool)": "a22cb465",
			"setBaseURI(string)": "55f804b3",
			"setURI(string)": "02fe5305",
			"supportsInterface(bytes4)": "01ffc9a7",
			"symbol()": "95d89b41",
			"uri(uint256)": "0e89341c"
		}
	},
	"abi": [
		{
			"inputs": [],
			"stateMutability": "nonpayable",
			"type": "constructor"
		},
		{
			"inputs": [
				{
					"internalType": "address",
					"name": "operator",
					"type": "address"
				}
			],
			"name": "OperatorNotAllowed",
			"type": "error"
		},
		{
			"anonymous": false,
			"inputs": [
				{
					"indexed": true,
					"internalType": "address",
					"name": "account",
					"type": "address"
				},
				{
					"indexed": true,
					"internalType": "address",
					"name": "operator",
					"type": "address"
				},
				{
					"indexed": false,
					"internalType": "bool",
					"name": "approved",
					"type": "bool"
				}
			],
			"name": "ApprovalForAll",
			"type": "event"
		},
		{
			"anonymous": false,
			"inputs": [
				{
					"indexed": true,
					"internalType": "bytes32",
					"name": "role",
					"type": "bytes32"
				},
				{
					"indexed": true,
					"internalType": "bytes32",
					"name": "previousAdminRole",
					"type": "bytes32"
				},
				{
					"indexed": true,
					"internalType": "bytes32",
					"name": "newAdminRole",
					"type": "bytes32"
				}
			],
			"name": "RoleAdminChanged",
			"type": "event"
		},
		{
			"anonymous": false,
			"inputs": [
				{
					"indexed": true,
					"internalType": "bytes32",
					"name": "role",
					"type": "bytes32"
				},
				{
					"indexed": true,
					"internalType": "address",
					"name": "account",
					"type": "address"
				},
				{
					"indexed": true,
					"internalType": "address",
					"name": "sender",
					"type": "address"
				}
			],
			"name": "RoleGranted",
			"type": "event"
		},
		{
			"anonymous": false,
			"inputs": [
				{
					"indexed": true,
					"internalType": "bytes32",
					"name": "role",
					"type": "bytes32"
				},
				{
					"indexed": true,
					"internalType": "address",
					"name": "account",
					"type": "address"
				},
				{
					"indexed": true,
					"internalType": "address",
					"name": "sender",
					"type": "address"
				}
			],
			"name": "RoleRevoked",
			"type": "event"
		},
		{
			"anonymous": false,
			"inputs": [
				{
					"indexed": true,
					"internalType": "address",
					"name": "operator",
					"type": "address"
				},
				{
					"indexed": true,
					"internalType": "address",
					"name": "from",
					"type": "address"
				},
				{
					"indexed": true,
					"internalType": "address",
					"name": "to",
					"type": "address"
				},
				{
					"indexed": false,
					"internalType": "uint256[]",
					"name": "ids",
					"type": "uint256[]"
				},
				{
					"indexed": false,
					"internalType": "uint256[]",
					"name": "values",
					"type": "uint256[]"
				}
			],
			"name": "TransferBatch",
			"type": "event"
		},
		{
			"anonymous": false,
			"inputs": [
				{
					"indexed": true,
					"internalType": "address",
					"name": "operator",
					"type": "address"
				},
				{
					"indexed": true,
					"internalType": "address",
					"name": "from",
					"type": "address"
				},
				{
					"indexed": true,
					"internalType": "address",
					"name": "to",
					"type": "address"
				},
				{
					"indexed": false,
					"internalType": "uint256",
					"name": "id",
					"type": "uint256"
				},
				{
					"indexed": false,
					"internalType": "uint256",
					"name": "value",
					"type": "uint256"
				}
			],
			"name": "TransferSingle",
			"type": "event"
		},
		{
			"anonymous": false,
			"inputs": [
				{
					"indexed": false,
					"internalType": "string",
					"name": "value",
					"type": "string"
				},
				{
					"indexed": true,
					"internalType": "uint256",
					"name": "id",
					"type": "uint256"
				}
			],
			"name": "URI",
			"type": "event"
		},
		{
			"inputs": [],
			"name": "DEFAULT_ADMIN_ROLE",
			"outputs": [
				{
					"internalType": "bytes32",
					"name": "",
					"type": "bytes32"
				}
			],
			"stateMutability": "view",
			"type": "function"
		},
		{
			"inputs": [],
			"name": "MINTER_ROLE",
			"outputs": [
				{
					"internalType": "bytes32",
					"name": "",
					"type": "bytes32"
				}
			],
			"stateMutability": "view",
			"type": "function"
		},
		{
			"inputs": [],
			"name": "OPERATOR_FILTER_REGISTRY",
			"outputs": [
				{
					"internalType": "contract IOperatorFilterRegistry",
					"name": "",
					"type": "address"
				}
			],
			"stateMutability": "view",
			"type": "function"
		},
		{
			"inputs": [],
			"name": "URI_SETTER_ROLE",
			"outputs": [
				{
					"internalType": "bytes32",
					"name": "",
					"type": "bytes32"
				}
			],
			"stateMutability": "view",
			"type": "function"
		},
		{
			"inputs": [
				{
					"internalType": "address",
					"name": "account",
					"type": "address"
				},
				{
					"internalType": "uint256",
					"name": "id",
					"type": "uint256"
				}
			],
			"name": "balanceOf",
			"outputs": [
				{
					"internalType": "uint256",
					"name": "",
					"type": "uint256"
				}
			],
			"stateMutability": "view",
			"type": "function"
		},
		{
			"inputs": [
				{
					"internalType": "address[]",
					"name": "accounts",
					"type": "address[]"
				},
				{
					"internalType": "uint256[]",
					"name": "ids",
					"type": "uint256[]"
				}
			],
			"name": "balanceOfBatch",
			"outputs": [
				{
					"internalType": "uint256[]",
					"name": "",
					"type": "uint256[]"
				}
			],
			"stateMutability": "view",
			"type": "function"
		},
		{
			"inputs": [
				{
					"internalType": "bytes32",
					"name": "role",
					"type": "bytes32"
				}
			],
			"name": "getRoleAdmin",
			"outputs": [
				{
					"internalType": "bytes32",
					"name": "",
					"type": "bytes32"
				}
			],
			"stateMutability": "view",
			"type": "function"
		},
		{
			"inputs": [
				{
					"internalType": "bytes32",
					"name": "role",
					"type": "bytes32"
				},
				{
					"internalType": "address",
					"name": "account",
					"type": "address"
				}
			],
			"name": "grantRole",
			"outputs": [],
			"stateMutability": "nonpayable",
			"type": "function"
		},
		{
			"inputs": [
				{
					"internalType": "bytes32",
					"name": "role",
					"type": "bytes32"
				},
				{
					"internalType": "address",
					"name": "account",
					"type": "address"
				}
			],
			"name": "hasRole",
			"outputs": [
				{
					"internalType": "bool",
					"name": "",
					"type": "bool"
				}
			],
			"stateMutability": "view",
			"type": "function"
		},
		{
			"inputs": [
				{
					"internalType": "address",
					"name": "account",
					"type": "address"
				},
				{
					"internalType": "address",
					"name": "operator",
					"type": "address"
				}
			],
			"name": "isApprovedForAll",
			"outputs": [
				{
					"internalType": "bool",
					"name": "",
					"type": "bool"
				}
			],
			"stateMutability": "view",
			"type": "function"
		},
		{
			"inputs": [
				{
					"internalType": "address",
					"name": "account",
					"type": "address"
				},
				{
					"internalType": "uint256",
					"name": "id",
					"type": "uint256"
				},
				{
					"internalType": "uint256",
					"name": "amount",
					"type": "uint256"
				},
				{
					"internalType": "bytes",
					"name": "data",
					"type": "bytes"
				}
			],
			"name": "mint",
			"outputs": [],
			"stateMutability": "nonpayable",
			"type": "function"
		},
		{
			"inputs": [
				{
					"internalType": "address",
					"name": "to",
					"type": "address"
				},
				{
					"internalType": "uint256[]",
					"name": "ids",
					"type": "uint256[]"
				},
				{
					"internalType": "uint256[]",
					"name": "amounts",
					"type": "uint256[]"
				},
				{
					"internalType": "bytes",
					"name": "data",
					"type": "bytes"
				}
			],
			"name": "mintBatch",
			"outputs": [],
			"stateMutability": "nonpayable",
			"type": "function"
		},
		{
			"inputs": [],
			"name": "name",
			"outputs": [
				{
					"internalType": "string",
					"name": "",
					"type": "string"
				}
			],
			"stateMutability": "view",
			"type": "function"
		},
		{
			"inputs": [
				{
					"internalType": "bytes32",
					"name": "role",
					"type": "bytes32"
				},
				{
					"internalType": "address",
					"name": "account",
					"type": "address"
				}
			],
			"name": "renounceRole",
			"outputs": [],
			"stateMutability": "nonpayable",
			"type": "function"
		},
		{
			"inputs": [
				{
					"internalType": "bytes32",
					"name": "role",
					"type": "bytes32"
				},
				{
					"internalType": "address",
					"name": "account",
					"type": "address"
				}
			],
			"name": "revokeRole",
			"outputs": [],
			"stateMutability": "nonpayable",
			"type": "function"
		},
		{
			"inputs": [
				{
					"internalType": "address",
					"name": "from",
					"type": "address"
				},
				{
					"internalType": "address",
					"name": "to",
					"type": "address"
				},
				{
					"internalType": "uint256[]",
					"name": "ids",
					"type": "uint256[]"
				},
				{
					"internalType": "uint256[]",
					"name": "amounts",
					"type": "uint256[]"
				},
				{
					"internalType": "bytes",
					"name": "data",
					"type": "bytes"
				}
			],
			"name": "safeBatchTransferFrom",
			"outputs": [],
			"stateMutability": "nonpayable",
			"type": "function"
		},
		{
			"inputs": [
				{
					"internalType": "address",
					"name": "from",
					"type": "address"
				},
				{
					"internalType": "address",
					"name": "to",
					"type": "address"
				},
				{
					"internalType": "uint256",
					"name": "id",
					"type": "uint256"
				},
				{
					"internalType": "uint256",
					"name": "amount",
					"type": "uint256"
				},
				{
					"internalType": "bytes",
					"name": "data",
					"type": "bytes"
				}
			],
			"name": "safeTransferFrom",
			"outputs": [],
			"stateMutability": "nonpayable",
			"type": "function"
		},
		{
			"inputs": [
				{
					"internalType": "address",
					"name": "operator",
					"type": "address"
				},
				{
					"internalType": "bool",
					"name": "approved",
					"type": "bool"
				}
			],
			"name": "setApprovalForAll",
			"outputs": [],
			"stateMutability": "nonpayable",
			"type": "function"
		},
		{
			"inputs": [
				{
					"internalType": "string",
					"name": "uri_",
					"type": "string"
				}
			],
			"name": "setBaseURI",
			"outputs": [],
			"stateMutability": "nonpayable",
			"type": "function"
		},
		{
			"inputs": [
				{
					"internalType": "string",
					"name": "newuri",
					"type": "string"
				}
			],
			"name": "setURI",
			"outputs": [],
			"stateMutability": "nonpayable",
			"type": "function"
		},
		{
			"inputs": [
				{
					"internalType": "bytes4",
					"name": "interfaceId",
					"type": "bytes4"
				}
			],
			"name": "supportsInterface",
			"outputs": [
				{
					"internalType": "bool",
					"name": "",
					"type": "bool"
				}
			],
			"stateMutability": "view",
			"type": "function"
		},
		{
			"inputs": [],
			"name": "symbol",
			"outputs": [
				{
					"internalType": "string",
					"name": "",
					"type": "string"
				}
			],
			"stateMutability": "view",
			"type": "function"
		},
		{
			"inputs": [
				{
					"internalType": "uint256",
					"name": "tokenId",
					"type": "uint256"
				}
			],
			"name": "uri",
			"outputs": [
				{
					"internalType": "string",
					"name": "",
					"type": "string"
				}
			],
			"stateMutability": "view",
			"type": "function"
		}
	]
}