{
	"data": {
		"bytecode": {
			"linkReferences": {},
			"object": "6080604052604051806020016040528060008152506003908162000024919062001211565b506040518060400160405280600a81526020017f50454b45504f5254414c00000000000000000000000000000000000000000000815250600790816200006b919062001211565b506040518060400160405280600881526020017f502d504f5254414c00000000000000000000000000000000000000000000000081525060089081620000b2919062001211565b50348015620000c057600080fd5b5060405180602001604052806000815250620000e2816200018c60201b60201c565b5062000103620000f7620001a160201b60201c565b620001a960201b60201c565b62000114336200026f60201b60201c565b6200013e6040518060600160405280603681526020016200639e60369139620003bb60201b60201c565b6200018660006040518060400160405280600681526020017f302e6a736f6e0000000000000000000000000000000000000000000000000000815250620003d060201b60201c565b62001d51565b80600290816200019d919062001211565b5050565b600033905090565b6000600560009054906101000a900473ffffffffffffffffffffffffffffffffffffffff16905081600560006101000a81548173ffffffffffffffffffffffffffffffffffffffff021916908373ffffffffffffffffffffffffffffffffffffffff1602179055508173ffffffffffffffffffffffffffffffffffffffff168173ffffffffffffffffffffffffffffffffffffffff167f8be0079c531659141344cd1fd0a4f28419497f9722a3daafe3b4186f6b6457e060405160405180910390a35050565b600660008273ffffffffffffffffffffffffffffffffffffffff1673ffffffffffffffffffffffffffffffffffffffff16815260200190815260200160002060009054906101000a900460ff1615620002fa620002d1620001a160201b60201c565b73ffffffffffffffffffffffffffffffffffffffff1660146200048160201b62000fdc1760201c565b6040516020016200030c919062001410565b604051602081830303815290604052906200035f576040517f08c379a0000000000000000000000000000000000000000000000000000000008152600401620003569190620014a6565b60405180910390fd5b506001600660008373ffffffffffffffffffffffffffffffffffffffff1673ffffffffffffffffffffffffffffffffffffffff16815260200190815260200160002060006101000a81548160ff02191690831515021790555050565b8060039081620003cc919062001211565b5050565b620003f0620003e4620001a160201b60201c565b620006dc60201b60201c565b60006200040383620007cf60201b60201c565b511462000447576040517f08c379a00000000000000000000000000000000000000000000000000000000081526004016200043e906200151a565b60405180910390fd5b6200046b3383600160405180602001604052806000815250620008cd60201b60201c565b6200047d828262000ab460201b60201c565b5050565b6060600060028360026200049691906200156b565b620004a29190620015cc565b67ffffffffffffffff811115620004be57620004bd62000fa2565b5b6040519080825280601f01601f191660200182016040528015620004f15781602001600182028036833780820191505090505b5090507f3000000000000000000000000000000000000000000000000000000000000000816000815181106200052c576200052b62001629565b5b60200101907effffffffffffffffffffffffffffffffffffffffffffffffffffffffffffff1916908160001a9053507f78000000000000000000000000000000000000000000000000000000000000008160018151811062000593576200059262001629565b5b60200101907effffffffffffffffffffffffffffffffffffffffffffffffffffffffffffff1916908160001a90535060006001846002620005d591906200156b565b620005e19190620015cc565b90505b60018111156200068b577f3031323334353637383961626364656600000000000000000000000000000000600f86166010811062000627576200062662001629565b5b1a60f81b82828151811062000641576200064062001629565b5b60200101907effffffffffffffffffffffffffffffffffffffffffffffffffffffffffffff1916908160001a905350600485901c945080620006839062001658565b9050620005e4565b5060008414620006d2576040517f08c379a0000000000000000000000000000000000000000000000000000000008152600401620006c990620016d6565b60405180910390fd5b8091505092915050565b600660008273ffffffffffffffffffffffffffffffffffffffff1673ffffffffffffffffffffffffffffffffffffffff16815260200190815260200160002060009054906101000a900460ff16620007666200073d620001a160201b60201c565b73ffffffffffffffffffffffffffffffffffffffff1660146200048160201b62000fdc1760201c565b60405160200162000778919062001748565b60405160208183030381529060405290620007cb576040517f08c379a0000000000000000000000000000000000000000000000000000000008152600401620007c29190620014a6565b60405180910390fd5b5050565b60606000600460008481526020019081526020016000208054620007f39062001000565b80601f0160208091040260200160405190810160405280929190818152602001828054620008219062001000565b8015620008725780601f10620008465761010080835404028352916020019162000872565b820191906000526020600020905b8154815290600101906020018083116200085457829003601f168201915b5050505050905060008151116200089f57620008998362000b2560201b620012181760201c565b620008c5565b600381604051602001620008b59291906200180a565b6040516020818303038152906040525b915050919050565b600073ffffffffffffffffffffffffffffffffffffffff168473ffffffffffffffffffffffffffffffffffffffff16036200093f576040517f08c379a00000000000000000000000000000000000000000000000000000000081526004016200093690620018a8565b60405180910390fd5b600062000951620001a160201b60201c565b90506000620009668562000bc160201b60201c565b905060006200097b8562000bc160201b60201c565b9050620009948360008985858962000c4260201b60201c565b8460008088815260200190815260200160002060008973ffffffffffffffffffffffffffffffffffffffff1673ffffffffffffffffffffffffffffffffffffffff1681526020019081526020016000206000828254620009f59190620015cc565b925050819055508673ffffffffffffffffffffffffffffffffffffffff16600073ffffffffffffffffffffffffffffffffffffffff168473ffffffffffffffffffffffffffffffffffffffff167fc3d58168c5ae7397731d063d5bbf3d657854427343f4c083240f7aacaa2d0f62898960405162000a75929190620018db565b60405180910390a462000a948360008985858962000d4160201b60201c565b62000aab8360008989898962000d4960201b60201c565b50505050505050565b8060046000848152602001908152602001600020908162000ad6919062001211565b50817f6bb7ff708619ba0610cba295a58592e0451dee2622938c8755667688daf3529b62000b0a84620007cf60201b60201c565b60405162000b199190620014a6565b60405180910390a25050565b60606002805462000b369062001000565b80601f016020809104026020016040519081016040528092919081815260200182805462000b649062001000565b801562000bb55780601f1062000b895761010080835404028352916020019162000bb5565b820191906000526020600020905b81548152906001019060200180831162000b9757829003601f168201915b50505050509050919050565b60606000600167ffffffffffffffff81111562000be35762000be262000fa2565b5b60405190808252806020026020018201604052801562000c125781602001602082028036833780820191505090505b509050828160008151811062000c2d5762000c2c62001629565b5b60200260200101818152505080915050919050565b62000c5262000f4260201b60201c565b73ffffffffffffffffffffffffffffffffffffffff168673ffffffffffffffffffffffffffffffffffffffff16148062000cdc575060011515600960008873ffffffffffffffffffffffffffffffffffffffff1673ffffffffffffffffffffffffffffffffffffffff16815260200190815260200160002060009054906101000a900460ff161515145b62000d1e576040517f08c379a000000000000000000000000000000000000000000000000000000000815260040162000d159062001958565b60405180910390fd5b62000d3986868686868662000f6c60201b620012ac1760201c565b505050505050565b505050505050565b62000d758473ffffffffffffffffffffffffffffffffffffffff1662000f7460201b620012b41760201c565b1562000f3a578373ffffffffffffffffffffffffffffffffffffffff1663f23a6e6187878686866040518663ffffffff1660e01b815260040162000dbe95949392919062001a1c565b6020604051808303816000875af192505050801562000dfd57506040513d601f19601f8201168201806040525081019062000dfa919062001aec565b60015b62000eae5762000e0c62001b2b565b806308c379a00362000e6f575062000e2362001b86565b8062000e30575062000e71565b806040517f08c379a000000000000000000000000000000000000000000000000000000000815260040162000e669190620014a6565b60405180910390fd5b505b6040517f08c379a000000000000000000000000000000000000000000000000000000000815260040162000ea59062001c97565b60405180910390fd5b63f23a6e6160e01b7bffffffffffffffffffffffffffffffffffffffffffffffffffffffff1916817bffffffffffffffffffffffffffffffffffffffffffffffffffffffff19161462000f38576040517f08c379a000000000000000000000000000000000000000000000000000000000815260040162000f2f9062001d2f565b60405180910390fd5b505b505050505050565b6000600560009054906101000a900473ffffffffffffffffffffffffffffffffffffffff16905090565b505050505050565b6000808273ffffffffffffffffffffffffffffffffffffffff163b119050919050565b600081519050919050565b7f4e487b7100000000000000000000000000000000000000000000000000000000600052604160045260246000fd5b7f4e487b7100000000000000000000000000000000000000000000000000000000600052602260045260246000fd5b600060028204905060018216806200101957607f821691505b6020821081036200102f576200102e62000fd1565b5b50919050565b60008190508160005260206000209050919050565b60006020601f8301049050919050565b600082821b905092915050565b600060088302620010997fffffffffffffffffffffffffffffffffffffffffffffffffffffffffffffffff826200105a565b620010a586836200105a565b95508019841693508086168417925050509392505050565b6000819050919050565b6000819050919050565b6000620010f2620010ec620010e684620010bd565b620010c7565b620010bd565b9050919050565b6000819050919050565b6200110e83620010d1565b620011266200111d82620010f9565b84845462001067565b825550505050565b600090565b6200113d6200112e565b6200114a81848462001103565b505050565b5b8181101562001172576200116660008262001133565b60018101905062001150565b5050565b601f821115620011c1576200118b8162001035565b62001196846200104a565b81016020851015620011a6578190505b620011be620011b5856200104a565b8301826200114f565b50505b505050565b600082821c905092915050565b6000620011e660001984600802620011c6565b1980831691505092915050565b6000620012018383620011d3565b9150826002028217905092915050565b6200121c8262000f97565b67ffffffffffffffff81111562001238576200123762000fa2565b5b62001244825462001000565b6200125182828562001176565b600060209050601f83116001811462001289576000841562001274578287015190505b620012808582620011f3565b865550620012f0565b601f198416620012998662001035565b60005b82811015620012c3578489015182556001820191506020850194506020810190506200129c565b86831015620012e35784890151620012df601f891682620011d3565b8355505b6001600288020188555050505b505050505050565b600081905092915050565b7f6163636f756e7420000000000000000000000000000000000000000000000000600082015250565b60006200133b600883620012f8565b9150620013488262001303565b600882019050919050565b60005b838110156200137357808201518184015260208101905062001356565b8381111562001383576000848401525b50505050565b6000620013968262000f97565b620013a28185620012f8565b9350620013b481856020860162001353565b80840191505092915050565b7f20697320616c72656164792068617320616e206f70657261746f7220726f6c65600082015250565b6000620013f8602083620012f8565b91506200140582620013c0565b602082019050919050565b60006200141d826200132c565b91506200142b828462001389565b91506200143882620013e9565b915081905092915050565b600082825260208201905092915050565b6000601f19601f8301169050919050565b6000620014728262000f97565b6200147e818562001443565b93506200149081856020860162001353565b6200149b8162001454565b840191505092915050565b60006020820190508181036000830152620014c2818462001465565b905092915050565b7f53425420616c7265616479206578697374730000000000000000000000000000600082015250565b60006200150260128362001443565b91506200150f82620014ca565b602082019050919050565b600060208201905081810360008301526200153581620014f3565b9050919050565b7f4e487b7100000000000000000000000000000000000000000000000000000000600052601160045260246000fd5b60006200157882620010bd565b91506200158583620010bd565b9250817fffffffffffffffffffffffffffffffffffffffffffffffffffffffffffffffff0483118215151615620015c157620015c06200153c565b5b828202905092915050565b6000620015d982620010bd565b9150620015e683620010bd565b9250827fffffffffffffffffffffffffffffffffffffffffffffffffffffffffffffffff038211156200161e576200161d6200153c565b5b828201905092915050565b7f4e487b7100000000000000000000000000000000000000000000000000000000600052603260045260246000fd5b60006200166582620010bd565b9150600082036200167b576200167a6200153c565b5b600182039050919050565b7f537472696e67733a20686578206c656e67746820696e73756666696369656e74600082015250565b6000620016be60208362001443565b9150620016cb8262001686565b602082019050919050565b60006020820190508181036000830152620016f181620016af565b9050919050565b7f206973206e6f7420616e206f70657261746f7200000000000000000000000000600082015250565b600062001730601383620012f8565b91506200173d82620016f8565b601382019050919050565b600062001755826200132c565b915062001763828462001389565b9150620017708262001721565b915081905092915050565b600081546200178a8162001000565b620017968186620012f8565b94506001821660008114620017b45760018114620017ca5762001801565b60ff198316865281151582028601935062001801565b620017d58562001035565b60005b83811015620017f957815481890152600182019150602081019050620017d8565b838801955050505b50505092915050565b60006200181882856200177b565b915062001826828462001389565b91508190509392505050565b7f455243313135353a206d696e7420746f20746865207a65726f2061646472657360008201527f7300000000000000000000000000000000000000000000000000000000000000602082015250565b60006200189060218362001443565b91506200189d8262001832565b604082019050919050565b60006020820190508181036000830152620018c38162001881565b9050919050565b620018d581620010bd565b82525050565b6000604082019050620018f26000830185620018ca565b620019016020830184620018ca565b9392505050565b7f53656e64204e4654206e6f7420616c6c6f776564000000000000000000000000600082015250565b60006200194060148362001443565b91506200194d8262001908565b602082019050919050565b60006020820190508181036000830152620019738162001931565b9050919050565b600073ffffffffffffffffffffffffffffffffffffffff82169050919050565b6000620019a7826200197a565b9050919050565b620019b9816200199a565b82525050565b600081519050919050565b600082825260208201905092915050565b6000620019e882620019bf565b620019f48185620019ca565b935062001a0681856020860162001353565b62001a118162001454565b840191505092915050565b600060a08201905062001a336000830188620019ae565b62001a426020830187620019ae565b62001a516040830186620018ca565b62001a606060830185620018ca565b818103608083015262001a748184620019db565b90509695505050505050565b6000604051905090565b600080fd5b60007fffffffff0000000000000000000000000000000000000000000000000000000082169050919050565b62001ac68162001a8f565b811462001ad257600080fd5b50565b60008151905062001ae68162001abb565b92915050565b60006020828403121562001b055762001b0462001a8a565b5b600062001b158482850162001ad5565b91505092915050565b60008160e01c9050919050565b600060033d111562001b4d5760046000803e62001b4a60005162001b1e565b90505b90565b62001b5b8262001454565b810181811067ffffffffffffffff8211171562001b7d5762001b7c62000fa2565b5b80604052505050565b600060443d1062001c1e5762001b9b62001a80565b60043d036004823e80513d602482011167ffffffffffffffff8211171562001bc557505062001c1e565b808201805167ffffffffffffffff81111562001be5575050505062001c1e565b80602083010160043d03850181111562001c0457505050505062001c1e565b62001c158260200185018662001b50565b82955050505050505b90565b7f455243313135353a207472616e7366657220746f206e6f6e2d4552433131353560008201527f526563656976657220696d706c656d656e746572000000000000000000000000602082015250565b600062001c7f60348362001443565b915062001c8c8262001c21565b604082019050919050565b6000602082019050818103600083015262001cb28162001c70565b9050919050565b7f455243313135353a204552433131353552656365697665722072656a6563746560008201527f6420746f6b656e73000000000000000000000000000000000000000000000000602082015250565b600062001d1760288362001443565b915062001d248262001cb9565b604082019050919050565b6000602082019050818103600083015262001d4a8162001d08565b9050919050565b61463d8062001d616000396000f3fe608060405234801561001057600080fd5b50600436106101575760003560e01c8063715018a6116100c3578063a22cb4651161007c578063a22cb465146103ac578063b219f7d7146103c8578063cbf9fe5f146103e4578063e985e9c514610414578063f242432a14610444578063f2fde38b1461046057610157565b8063715018a614610312578063872a28031461031c5780638da5cb5b14610338578063910da0e9146103565780639324b42a1461037257806395d89b411461038e57610157565b806327ac0c581161011557806327ac0c58146102425780632eb2c2d61461025e5780634e1273f41461027a57806355f804b3146102aa57806356f5d89d146102c65780636d70f7ae146102e257610157565b8062fdd58e1461015c57806301ffc9a71461018c57806306fdde03146101bc5780630e89341c146101da578063156e29f61461020a578063162094c414610226575b600080fd5b61017660048036038101906101719190612847565b61047c565b6040516101839190612896565b60405180910390f35b6101a660048036038101906101a19190612909565b610544565b6040516101b39190612951565b60405180910390f35b6101c4610626565b6040516101d19190612a05565b60405180910390f35b6101f460048036038101906101ef9190612a27565b6106b4565b6040516102019190612a05565b60405180910390f35b610224600480360381019061021f9190612a54565b610799565b005b610240600480360381019061023b9190612bdc565b610815565b005b61025c60048036038101906102579190612c38565b610833565b005b61027860048036038101906102739190612dce565b610847565b005b610294600480360381019061028f9190612f60565b6108e8565b6040516102a19190613096565b60405180910390f35b6102c460048036038101906102bf91906130b8565b610a01565b005b6102e060048036038101906102db919061312d565b610a1d565b005b6102fc60048036038101906102f79190612c38565b610a88565b6040516103099190612951565b60405180910390f35b61031a610ade565b005b6103366004803603810190610331919061316d565b610af2565b005b610340610b76565b60405161034d9190613207565b60405180910390f35b610370600480360381019061036b9190612bdc565b610ba0565b005b61038c60048036038101906103879190612a54565b610c26565b005b610396610c46565b6040516103a39190612a05565b60405180910390f35b6103c660048036038101906103c1919061312d565b610cd4565b005b6103e260048036038101906103dd9190612c38565b610dba565b005b6103fe60048036038101906103f99190612c38565b610dce565b60405161040b9190612951565b60405180910390f35b61042e60048036038101906104299190613222565b610e24565b60405161043b9190612951565b60405180910390f35b61045e60048036038101906104599190613262565b610eb8565b005b61047a60048036038101906104759190612c38565b610f59565b005b60008073ffffffffffffffffffffffffffffffffffffffff168373ffffffffffffffffffffffffffffffffffffffff16036104ec576040517f08c379a00000000000000000000000000000000000000000000000000000000081526004016104e39061336b565b60405180910390fd5b60008083815260200190815260200160002060008473ffffffffffffffffffffffffffffffffffffffff1673ffffffffffffffffffffffffffffffffffffffff16815260200190815260200160002054905092915050565b60007fd9b67a26000000000000000000000000000000000000000000000000000000007bffffffffffffffffffffffffffffffffffffffffffffffffffffffff1916827bffffffffffffffffffffffffffffffffffffffffffffffffffffffff1916148061060f57507f0e89341c000000000000000000000000000000000000000000000000000000007bffffffffffffffffffffffffffffffffffffffffffffffffffffffff1916827bffffffffffffffffffffffffffffffffffffffffffffffffffffffff1916145b8061061f575061061e826112d7565b5b9050919050565b60078054610633906133ba565b80601f016020809104026020016040519081016040528092919081815260200182805461065f906133ba565b80156106ac5780601f10610681576101008083540402835291602001916106ac565b820191906000526020600020905b81548152906001019060200180831161068f57829003601f168201915b505050505081565b606060006004600084815260200190815260200160002080546106d6906133ba565b80601f0160208091040260200160405190810160405280929190818152602001828054610702906133ba565b801561074f5780601f106107245761010080835404028352916020019161074f565b820191906000526020600020905b81548152906001019060200180831161073257829003601f168201915b50505050509050600081511161076d5761076883611218565b610791565b6003816040516020016107819291906134bf565b6040516020818303038152906040525b915050919050565b6107a96107a4611341565b611349565b60006107b4836106b4565b51036107f5576040517f08c379a00000000000000000000000000000000000000000000000000000000081526004016107ec9061352f565b60405180910390fd5b61081083838360405180602001604052806000815250611422565b505050565b610825610820611341565b611349565b61082f82826115d2565b5050565b61083b611637565b610844816116b5565b50565b61084f611341565b73ffffffffffffffffffffffffffffffffffffffff168573ffffffffffffffffffffffffffffffffffffffff16148061089557506108948561088f611341565b610e24565b5b6108d4576040517f08c379a00000000000000000000000000000000000000000000000000000000081526004016108cb906135c1565b60405180910390fd5b6108e185858585856117e7565b5050505050565b6060815183511461092e576040517f08c379a000000000000000000000000000000000000000000000000000000000815260040161092590613653565b60405180910390fd5b6000835167ffffffffffffffff81111561094b5761094a612ab1565b5b6040519080825280602002602001820160405280156109795781602001602082028036833780820191505090505b50905060005b84518110156109f6576109c685828151811061099e5761099d613673565b5b60200260200101518583815181106109b9576109b8613673565b5b602002602001015161047c565b8282815181106109d9576109d8613673565b5b602002602001018181525050806109ef906136d1565b905061097f565b508091505092915050565b610a11610a0c611341565b611349565b610a1a81611b08565b50565b610a2d610a28611341565b611349565b80600960008473ffffffffffffffffffffffffffffffffffffffff1673ffffffffffffffffffffffffffffffffffffffff16815260200190815260200160002060006101000a81548160ff0219169083151502179055505050565b6000600660008373ffffffffffffffffffffffffffffffffffffffff1673ffffffffffffffffffffffffffffffffffffffff16815260200190815260200160002060009054906101000a900460ff169050919050565b610ae6611637565b610af06000611b1b565b565b610b02610afd611341565b611349565b60005b8351811015610b7057610b5d848281518110610b2457610b23613673565b5b602002602001015184848481518110610b4057610b3f613673565b5b602002602001015160405180602001604052806000815250611422565b8080610b68906136d1565b915050610b05565b50505050565b6000600560009054906101000a900473ffffffffffffffffffffffffffffffffffffffff16905090565b610bb0610bab611341565b611349565b6000610bbb836106b4565b5114610bfc576040517f08c379a0000000000000000000000000000000000000000000000000000000008152600401610bf390613765565b60405180910390fd5b610c183383600160405180602001604052806000815250611422565b610c2282826115d2565b5050565b610c36610c31611341565b611349565b610c41838383611be1565b505050565b60088054610c53906133ba565b80601f0160208091040260200160405190810160405280929190818152602001828054610c7f906133ba565b8015610ccc5780601f10610ca157610100808354040283529160200191610ccc565b820191906000526020600020905b815481529060010190602001808311610caf57829003601f168201915b505050505081565b610cdc610b76565b73ffffffffffffffffffffffffffffffffffffffff168273ffffffffffffffffffffffffffffffffffffffff161480610d65575060011515600960008473ffffffffffffffffffffffffffffffffffffffff1673ffffffffffffffffffffffffffffffffffffffff16815260200190815260200160002060009054906101000a900460ff161515145b610da4576040517f08c379a0000000000000000000000000000000000000000000000000000000008152600401610d9b906137f7565b60405180910390fd5b610db6610daf611341565b8383611e27565b5050565b610dc2611637565b610dcb81611f93565b50565b6000600960008373ffffffffffffffffffffffffffffffffffffffff1673ffffffffffffffffffffffffffffffffffffffff16815260200190815260200160002060009054906101000a900460ff169050919050565b6000600160008473ffffffffffffffffffffffffffffffffffffffff1673ffffffffffffffffffffffffffffffffffffffff16815260200190815260200160002060008373ffffffffffffffffffffffffffffffffffffffff1673ffffffffffffffffffffffffffffffffffffffff16815260200190815260200160002060009054906101000a900460ff16905092915050565b610ec0611341565b73ffffffffffffffffffffffffffffffffffffffff168573ffffffffffffffffffffffffffffffffffffffff161480610f065750610f0585610f00611341565b610e24565b5b610f45576040517f08c379a0000000000000000000000000000000000000000000000000000000008152600401610f3c906135c1565b60405180910390fd5b610f528585858585611fee565b5050505050565b610f61611637565b600073ffffffffffffffffffffffffffffffffffffffff168173ffffffffffffffffffffffffffffffffffffffff1603610fd0576040517f08c379a0000000000000000000000000000000000000000000000000000000008152600401610fc790613889565b60405180910390fd5b610fd981611b1b565b50565b606060006002836002610fef91906138a9565b610ff99190613903565b67ffffffffffffffff81111561101257611011612ab1565b5b6040519080825280601f01601f1916602001820160405280156110445781602001600182028036833780820191505090505b5090507f30000000000000000000000000000000000000000000000000000000000000008160008151811061107c5761107b613673565b5b60200101907effffffffffffffffffffffffffffffffffffffffffffffffffffffffffffff1916908160001a9053507f7800000000000000000000000000000000000000000000000000000000000000816001815181106110e0576110df613673565b5b60200101907effffffffffffffffffffffffffffffffffffffffffffffffffffffffffffff1916908160001a9053506000600184600261112091906138a9565b61112a9190613903565b90505b60018111156111ca577f3031323334353637383961626364656600000000000000000000000000000000600f86166010811061116c5761116b613673565b5b1a60f81b82828151811061118357611182613673565b5b60200101907effffffffffffffffffffffffffffffffffffffffffffffffffffffffffffff1916908160001a905350600485901c9450806111c390613959565b905061112d565b506000841461120e576040517f08c379a0000000000000000000000000000000000000000000000000000000008152600401611205906139ce565b60405180910390fd5b8091505092915050565b606060028054611227906133ba565b80601f0160208091040260200160405190810160405280929190818152602001828054611253906133ba565b80156112a05780601f10611275576101008083540402835291602001916112a0565b820191906000526020600020905b81548152906001019060200180831161128357829003601f168201915b50505050509050919050565b505050505050565b6000808273ffffffffffffffffffffffffffffffffffffffff163b119050919050565b60007f01ffc9a7000000000000000000000000000000000000000000000000000000007bffffffffffffffffffffffffffffffffffffffffffffffffffffffff1916827bffffffffffffffffffffffffffffffffffffffffffffffffffffffff1916149050919050565b600033905090565b600660008273ffffffffffffffffffffffffffffffffffffffff1673ffffffffffffffffffffffffffffffffffffffff16815260200190815260200160002060009054906101000a900460ff166113be6113a1611341565b73ffffffffffffffffffffffffffffffffffffffff166014610fdc565b6040516020016113ce9190613a86565b6040516020818303038152906040529061141e576040517f08c379a00000000000000000000000000000000000000000000000000000000081526004016114159190612a05565b60405180910390fd5b5050565b600073ffffffffffffffffffffffffffffffffffffffff168473ffffffffffffffffffffffffffffffffffffffff1603611491576040517f08c379a000000000000000000000000000000000000000000000000000000000815260040161148890613b25565b60405180910390fd5b600061149b611341565b905060006114a885612289565b905060006114b585612289565b90506114c683600089858589612303565b8460008088815260200190815260200160002060008973ffffffffffffffffffffffffffffffffffffffff1673ffffffffffffffffffffffffffffffffffffffff16815260200190815260200160002060008282546115259190613903565b925050819055508673ffffffffffffffffffffffffffffffffffffffff16600073ffffffffffffffffffffffffffffffffffffffff168473ffffffffffffffffffffffffffffffffffffffff167fc3d58168c5ae7397731d063d5bbf3d657854427343f4c083240f7aacaa2d0f6289896040516115a3929190613b45565b60405180910390a46115ba836000898585896123e9565b6115c9836000898989896123f1565b50505050505050565b806004600084815260200190815260200160002090816115f29190613d05565b50817f6bb7ff708619ba0610cba295a58592e0451dee2622938c8755667688daf3529b61161e846106b4565b60405161162b9190612a05565b60405180910390a25050565b61163f611341565b73ffffffffffffffffffffffffffffffffffffffff1661165d610b76565b73ffffffffffffffffffffffffffffffffffffffff16146116b3576040517f08c379a00000000000000000000000000000000000000000000000000000000081526004016116aa90613e23565b60405180910390fd5b565b600660008273ffffffffffffffffffffffffffffffffffffffff1673ffffffffffffffffffffffffffffffffffffffff16815260200190815260200160002060009054906101000a900460ff161561172b61170e611341565b73ffffffffffffffffffffffffffffffffffffffff166014610fdc565b60405160200161173b9190613e8f565b6040516020818303038152906040529061178b576040517f08c379a00000000000000000000000000000000000000000000000000000000081526004016117829190612a05565b60405180910390fd5b506001600660008373ffffffffffffffffffffffffffffffffffffffff1673ffffffffffffffffffffffffffffffffffffffff16815260200190815260200160002060006101000a81548160ff02191690831515021790555050565b815183511461182b576040517f08c379a000000000000000000000000000000000000000000000000000000000815260040161182290613f2e565b60405180910390fd5b600073ffffffffffffffffffffffffffffffffffffffff168473ffffffffffffffffffffffffffffffffffffffff160361189a576040517f08c379a000000000000000000000000000000000000000000000000000000000815260040161189190613fc0565b60405180910390fd5b60006118a4611341565b90506118b4818787878787612303565b60005b8451811015611a655760008582815181106118d5576118d4613673565b5b6020026020010151905060008583815181106118f4576118f3613673565b5b60200260200101519050600080600084815260200190815260200160002060008b73ffffffffffffffffffffffffffffffffffffffff1673ffffffffffffffffffffffffffffffffffffffff16815260200190815260200160002054905081811015611995576040517f08c379a000000000000000000000000000000000000000000000000000000000815260040161198c90614052565b60405180910390fd5b81810360008085815260200190815260200160002060008c73ffffffffffffffffffffffffffffffffffffffff1673ffffffffffffffffffffffffffffffffffffffff168152602001908152602001600020819055508160008085815260200190815260200160002060008b73ffffffffffffffffffffffffffffffffffffffff1673ffffffffffffffffffffffffffffffffffffffff1681526020019081526020016000206000828254611a4a9190613903565b9250508190555050505080611a5e906136d1565b90506118b7565b508473ffffffffffffffffffffffffffffffffffffffff168673ffffffffffffffffffffffffffffffffffffffff168273ffffffffffffffffffffffffffffffffffffffff167f4a39dc06d4c0dbc64b70af90fd698a233a518aa5d07e595d983b8c0526c8f7fb8787604051611adc929190614072565b60405180910390a4611af28187878787876123e9565b611b008187878787876125c8565b505050505050565b8060039081611b179190613d05565b5050565b6000600560009054906101000a900473ffffffffffffffffffffffffffffffffffffffff16905081600560006101000a81548173ffffffffffffffffffffffffffffffffffffffff021916908373ffffffffffffffffffffffffffffffffffffffff1602179055508173ffffffffffffffffffffffffffffffffffffffff168173ffffffffffffffffffffffffffffffffffffffff167f8be0079c531659141344cd1fd0a4f28419497f9722a3daafe3b4186f6b6457e060405160405180910390a35050565b600073ffffffffffffffffffffffffffffffffffffffff168373ffffffffffffffffffffffffffffffffffffffff1603611c50576040517f08c379a0000000000000000000000000000000000000000000000000000000008152600401611c479061411b565b60405180910390fd5b6000611c5a611341565b90506000611c6784612289565b90506000611c7484612289565b9050611c9483876000858560405180602001604052806000815250612303565b600080600087815260200190815260200160002060008873ffffffffffffffffffffffffffffffffffffffff1673ffffffffffffffffffffffffffffffffffffffff16815260200190815260200160002054905084811015611d2b576040517f08c379a0000000000000000000000000000000000000000000000000000000008152600401611d22906141ad565b60405180910390fd5b84810360008088815260200190815260200160002060008973ffffffffffffffffffffffffffffffffffffffff1673ffffffffffffffffffffffffffffffffffffffff16815260200190815260200160002081905550600073ffffffffffffffffffffffffffffffffffffffff168773ffffffffffffffffffffffffffffffffffffffff168573ffffffffffffffffffffffffffffffffffffffff167fc3d58168c5ae7397731d063d5bbf3d657854427343f4c083240f7aacaa2d0f628989604051611df8929190613b45565b60405180910390a4611e1e848860008686604051806020016040528060008152506123e9565b50505050505050565b8173ffffffffffffffffffffffffffffffffffffffff168373ffffffffffffffffffffffffffffffffffffffff1603611e95576040517f08c379a0000000000000000000000000000000000000000000000000000000008152600401611e8c9061423f565b60405180910390fd5b80600160008573ffffffffffffffffffffffffffffffffffffffff1673ffffffffffffffffffffffffffffffffffffffff16815260200190815260200160002060008473ffffffffffffffffffffffffffffffffffffffff1673ffffffffffffffffffffffffffffffffffffffff16815260200190815260200160002060006101000a81548160ff0219169083151502179055508173ffffffffffffffffffffffffffffffffffffffff168373ffffffffffffffffffffffffffffffffffffffff167f17307eab39ab6107e8899845ad3d59bd9653f200f220920489ca2b5937696c3183604051611f869190612951565b60405180910390a3505050565b611f9c81611349565b600660008273ffffffffffffffffffffffffffffffffffffffff1673ffffffffffffffffffffffffffffffffffffffff16815260200190815260200160002060006101000a81549060ff021916905550565b600073ffffffffffffffffffffffffffffffffffffffff168473ffffffffffffffffffffffffffffffffffffffff160361205d576040517f08c379a000000000000000000000000000000000000000000000000000000000815260040161205490613fc0565b60405180910390fd5b6000612067611341565b9050600061207485612289565b9050600061208185612289565b9050612091838989858589612303565b600080600088815260200190815260200160002060008a73ffffffffffffffffffffffffffffffffffffffff1673ffffffffffffffffffffffffffffffffffffffff16815260200190815260200160002054905085811015612128576040517f08c379a000000000000000000000000000000000000000000000000000000000815260040161211f90614052565b60405180910390fd5b85810360008089815260200190815260200160002060008b73ffffffffffffffffffffffffffffffffffffffff1673ffffffffffffffffffffffffffffffffffffffff168152602001908152602001600020819055508560008089815260200190815260200160002060008a73ffffffffffffffffffffffffffffffffffffffff1673ffffffffffffffffffffffffffffffffffffffff16815260200190815260200160002060008282546121dd9190613903565b925050819055508773ffffffffffffffffffffffffffffffffffffffff168973ffffffffffffffffffffffffffffffffffffffff168573ffffffffffffffffffffffffffffffffffffffff167fc3d58168c5ae7397731d063d5bbf3d657854427343f4c083240f7aacaa2d0f628a8a60405161225a929190613b45565b60405180910390a4612270848a8a86868a6123e9565b61227e848a8a8a8a8a6123f1565b505050505050505050565b60606000600167ffffffffffffffff8111156122a8576122a7612ab1565b5b6040519080825280602002602001820160405280156122d65781602001602082028036833780820191505090505b50905082816000815181106122ee576122ed613673565b5b60200260200101818152505080915050919050565b61230b610b76565b73ffffffffffffffffffffffffffffffffffffffff168673ffffffffffffffffffffffffffffffffffffffff161480612394575060011515600960008873ffffffffffffffffffffffffffffffffffffffff1673ffffffffffffffffffffffffffffffffffffffff16815260200190815260200160002060009054906101000a900460ff161515145b6123d3576040517f08c379a00000000000000000000000000000000000000000000000000000000081526004016123ca906142ab565b60405180910390fd5b6123e18686868686866112ac565b505050505050565b505050505050565b6124108473ffffffffffffffffffffffffffffffffffffffff166112b4565b156125c0578373ffffffffffffffffffffffffffffffffffffffff1663f23a6e6187878686866040518663ffffffff1660e01b8152600401612456959493929190614320565b6020604051808303816000875af192505050801561249257506040513d601f19601f8201168201806040525081019061248f919061438f565b60015b6125375761249e6143c9565b806308c379a0036124fa57506124b26143eb565b806124bd57506124fc565b806040517f08c379a00000000000000000000000000000000000000000000000000000000081526004016124f19190612a05565b60405180910390fd5b505b6040517f08c379a000000000000000000000000000000000000000000000000000000000815260040161252e906144ed565b60405180910390fd5b63f23a6e6160e01b7bffffffffffffffffffffffffffffffffffffffffffffffffffffffff1916817bffffffffffffffffffffffffffffffffffffffffffffffffffffffff1916146125be576040517f08c379a00000000000000000000000000000000000000000000000000000000081526004016125b59061457f565b60405180910390fd5b505b505050505050565b6125e78473ffffffffffffffffffffffffffffffffffffffff166112b4565b15612797578373ffffffffffffffffffffffffffffffffffffffff1663bc197c8187878686866040518663ffffffff1660e01b815260040161262d95949392919061459f565b6020604051808303816000875af192505050801561266957506040513d601f19601f82011682018060405250810190612666919061438f565b60015b61270e576126756143c9565b806308c379a0036126d157506126896143eb565b8061269457506126d3565b806040517f08c379a00000000000000000000000000000000000000000000000000000000081526004016126c89190612a05565b60405180910390fd5b505b6040517f08c379a0000000000000000000000000000000000000000000000000000000008152600401612705906144ed565b60405180910390fd5b63bc197c8160e01b7bffffffffffffffffffffffffffffffffffffffffffffffffffffffff1916817bffffffffffffffffffffffffffffffffffffffffffffffffffffffff191614612795576040517f08c379a000000000000000000000000000000000000000000000000000000000815260040161278c9061457f565b60405180910390fd5b505b505050505050565b6000604051905090565b600080fd5b600080fd5b600073ffffffffffffffffffffffffffffffffffffffff82169050919050565b60006127de826127b3565b9050919050565b6127ee816127d3565b81146127f957600080fd5b50565b60008135905061280b816127e5565b92915050565b6000819050919050565b61282481612811565b811461282f57600080fd5b50565b6000813590506128418161281b565b92915050565b6000806040838503121561285e5761285d6127a9565b5b600061286c858286016127fc565b925050602061287d85828601612832565b9150509250929050565b61289081612811565b82525050565b60006020820190506128ab6000830184612887565b92915050565b60007fffffffff0000000000000000000000000000000000000000000000000000000082169050919050565b6128e6816128b1565b81146128f157600080fd5b50565b600081359050612903816128dd565b92915050565b60006020828403121561291f5761291e6127a9565b5b600061292d848285016128f4565b91505092915050565b60008115159050919050565b61294b81612936565b82525050565b60006020820190506129666000830184612942565b92915050565b600081519050919050565b600082825260208201905092915050565b60005b838110156129a657808201518184015260208101905061298b565b838111156129b5576000848401525b50505050565b6000601f19601f8301169050919050565b60006129d78261296c565b6129e18185612977565b93506129f1818560208601612988565b6129fa816129bb565b840191505092915050565b60006020820190508181036000830152612a1f81846129cc565b905092915050565b600060208284031215612a3d57612a3c6127a9565b5b6000612a4b84828501612832565b91505092915050565b600080600060608486031215612a6d57612a6c6127a9565b5b6000612a7b868287016127fc565b9350506020612a8c86828701612832565b9250506040612a9d86828701612832565b9150509250925092565b600080fd5b600080fd5b7f4e487b7100000000000000000000000000000000000000000000000000000000600052604160045260246000fd5b612ae9826129bb565b810181811067ffffffffffffffff82111715612b0857612b07612ab1565b5b80604052505050565b6000612b1b61279f565b9050612b278282612ae0565b919050565b600067ffffffffffffffff821115612b4757612b46612ab1565b5b612b50826129bb565b9050602081019050919050565b82818337600083830152505050565b6000612b7f612b7a84612b2c565b612b11565b905082815260208101848484011115612b9b57612b9a612aac565b5b612ba6848285612b5d565b509392505050565b600082601f830112612bc357612bc2612aa7565b5b8135612bd3848260208601612b6c565b91505092915050565b60008060408385031215612bf357612bf26127a9565b5b6000612c0185828601612832565b925050602083013567ffffffffffffffff811115612c2257612c216127ae565b5b612c2e85828601612bae565b9150509250929050565b600060208284031215612c4e57612c4d6127a9565b5b6000612c5c848285016127fc565b91505092915050565b600067ffffffffffffffff821115612c8057612c7f612ab1565b5b602082029050602081019050919050565b600080fd5b6000612ca9612ca484612c65565b612b11565b90508083825260208201905060208402830185811115612ccc57612ccb612c91565b5b835b81811015612cf55780612ce18882612832565b845260208401935050602081019050612cce565b5050509392505050565b600082601f830112612d1457612d13612aa7565b5b8135612d24848260208601612c96565b91505092915050565b600067ffffffffffffffff821115612d4857612d47612ab1565b5b612d51826129bb565b9050602081019050919050565b6000612d71612d6c84612d2d565b612b11565b905082815260208101848484011115612d8d57612d8c612aac565b5b612d98848285612b5d565b509392505050565b600082601f830112612db557612db4612aa7565b5b8135612dc5848260208601612d5e565b91505092915050565b600080600080600060a08688031215612dea57612de96127a9565b5b6000612df8888289016127fc565b9550506020612e09888289016127fc565b945050604086013567ffffffffffffffff811115612e2a57612e296127ae565b5b612e3688828901612cff565b935050606086013567ffffffffffffffff811115612e5757612e566127ae565b5b612e6388828901612cff565b925050608086013567ffffffffffffffff811115612e8457612e836127ae565b5b612e9088828901612da0565b9150509295509295909350565b600067ffffffffffffffff821115612eb857612eb7612ab1565b5b602082029050602081019050919050565b6000612edc612ed784612e9d565b612b11565b90508083825260208201905060208402830185811115612eff57612efe612c91565b5b835b81811015612f285780612f1488826127fc565b845260208401935050602081019050612f01565b5050509392505050565b600082601f830112612f4757612f46612aa7565b5b8135612f57848260208601612ec9565b91505092915050565b60008060408385031215612f7757612f766127a9565b5b600083013567ffffffffffffffff811115612f9557612f946127ae565b5b612fa185828601612f32565b925050602083013567ffffffffffffffff811115612fc257612fc16127ae565b5b612fce85828601612cff565b9150509250929050565b600081519050919050565b600082825260208201905092915050565b6000819050602082019050919050565b61300d81612811565b82525050565b600061301f8383613004565b60208301905092915050565b6000602082019050919050565b600061304382612fd8565b61304d8185612fe3565b935061305883612ff4565b8060005b838110156130895781516130708882613013565b975061307b8361302b565b92505060018101905061305c565b5085935050505092915050565b600060208201905081810360008301526130b08184613038565b905092915050565b6000602082840312156130ce576130cd6127a9565b5b600082013567ffffffffffffffff8111156130ec576130eb6127ae565b5b6130f884828501612bae565b91505092915050565b61310a81612936565b811461311557600080fd5b50565b60008135905061312781613101565b92915050565b60008060408385031215613144576131436127a9565b5b6000613152858286016127fc565b925050602061316385828601613118565b9150509250929050565b600080600060608486031215613186576131856127a9565b5b600084013567ffffffffffffffff8111156131a4576131a36127ae565b5b6131b086828701612f32565b93505060206131c186828701612832565b925050604084013567ffffffffffffffff8111156131e2576131e16127ae565b5b6131ee86828701612cff565b9150509250925092565b613201816127d3565b82525050565b600060208201905061321c60008301846131f8565b92915050565b60008060408385031215613239576132386127a9565b5b6000613247858286016127fc565b9250506020613258858286016127fc565b9150509250929050565b600080600080600060a0868803121561327e5761327d6127a9565b5b600061328c888289016127fc565b955050602061329d888289016127fc565b94505060406132ae88828901612832565b93505060606132bf88828901612832565b925050608086013567ffffffffffffffff8111156132e0576132df6127ae565b5b6132ec88828901612da0565b9150509295509295909350565b7f455243313135353a2061646472657373207a65726f206973206e6f742061207660008201527f616c6964206f776e657200000000000000000000000000000000000000000000602082015250565b6000613355602a83612977565b9150613360826132f9565b604082019050919050565b6000602082019050818103600083015261338481613348565b9050919050565b7f4e487b7100000000000000000000000000000000000000000000000000000000600052602260045260246000fd5b600060028204905060018216806133d257607f821691505b6020821081036133e5576133e461338b565b5b50919050565b600081905092915050565b60008190508160005260206000209050919050565b60008154613418816133ba565b61342281866133eb565b9450600182166000811461343d576001811461345257613485565b60ff1983168652811515820286019350613485565b61345b856133f6565b60005b8381101561347d5781548189015260018201915060208101905061345e565b838801955050505b50505092915050565b60006134998261296c565b6134a381856133eb565b93506134b3818560208601612988565b80840191505092915050565b60006134cb828561340b565b91506134d7828461348e565b91508190509392505050565b7f4e6f7420696e697469616c697a65640000000000000000000000000000000000600082015250565b6000613519600f83612977565b9150613524826134e3565b602082019050919050565b600060208201905081810360008301526135488161350c565b9050919050565b7f455243313135353a2063616c6c6572206973206e6f7420746f6b656e206f776e60008201527f6572206f7220617070726f766564000000000000000000000000000000000000602082015250565b60006135ab602e83612977565b91506135b68261354f565b604082019050919050565b600060208201905081810360008301526135da8161359e565b9050919050565b7f455243313135353a206163636f756e747320616e6420696473206c656e67746860008201527f206d69736d617463680000000000000000000000000000000000000000000000602082015250565b600061363d602983612977565b9150613648826135e1565b604082019050919050565b6000602082019050818103600083015261366c81613630565b9050919050565b7f4e487b7100000000000000000000000000000000000000000000000000000000600052603260045260246000fd5b7f4e487b7100000000000000000000000000000000000000000000000000000000600052601160045260246000fd5b60006136dc82612811565b91507fffffffffffffffffffffffffffffffffffffffffffffffffffffffffffffffff820361370e5761370d6136a2565b5b600182019050919050565b7f53425420616c7265616479206578697374730000000000000000000000000000600082015250565b600061374f601283612977565b915061375a82613719565b602082019050919050565b6000602082019050818103600083015261377e81613742565b9050919050565b7f43616e6e6f7420617070726f76652c207472616e7366657272696e67206e6f7460008201527f20616c6c6f776564000000000000000000000000000000000000000000000000602082015250565b60006137e1602883612977565b91506137ec82613785565b604082019050919050565b60006020820190508181036000830152613810816137d4565b9050919050565b7f4f776e61626c653a206e6577206f776e657220697320746865207a65726f206160008201527f6464726573730000000000000000000000000000000000000000000000000000602082015250565b6000613873602683612977565b915061387e82613817565b604082019050919050565b600060208201905081810360008301526138a281613866565b9050919050565b60006138b482612811565b91506138bf83612811565b9250817fffffffffffffffffffffffffffffffffffffffffffffffffffffffffffffffff04831182151516156138f8576138f76136a2565b5b828202905092915050565b600061390e82612811565b915061391983612811565b9250827fffffffffffffffffffffffffffffffffffffffffffffffffffffffffffffffff0382111561394e5761394d6136a2565b5b828201905092915050565b600061396482612811565b915060008203613977576139766136a2565b5b600182039050919050565b7f537472696e67733a20686578206c656e67746820696e73756666696369656e74600082015250565b60006139b8602083612977565b91506139c382613982565b602082019050919050565b600060208201905081810360008301526139e7816139ab565b9050919050565b7f6163636f756e7420000000000000000000000000000000000000000000000000600082015250565b6000613a246008836133eb565b9150613a2f826139ee565b600882019050919050565b7f206973206e6f7420616e206f70657261746f7200000000000000000000000000600082015250565b6000613a706013836133eb565b9150613a7b82613a3a565b601382019050919050565b6000613a9182613a17565b9150613a9d828461348e565b9150613aa882613a63565b915081905092915050565b7f455243313135353a206d696e7420746f20746865207a65726f2061646472657360008201527f7300000000000000000000000000000000000000000000000000000000000000602082015250565b6000613b0f602183612977565b9150613b1a82613ab3565b604082019050919050565b60006020820190508181036000830152613b3e81613b02565b9050919050565b6000604082019050613b5a6000830185612887565b613b676020830184612887565b9392505050565b60006020601f8301049050919050565b600082821b905092915050565b600060088302613bbb7fffffffffffffffffffffffffffffffffffffffffffffffffffffffffffffffff82613b7e565b613bc58683613b7e565b95508019841693508086168417925050509392505050565b6000819050919050565b6000613c02613bfd613bf884612811565b613bdd565b612811565b9050919050565b6000819050919050565b613c1c83613be7565b613c30613c2882613c09565b848454613b8b565b825550505050565b600090565b613c45613c38565b613c50818484613c13565b505050565b5b81811015613c7457613c69600082613c3d565b600181019050613c56565b5050565b601f821115613cb957613c8a816133f6565b613c9384613b6e565b81016020851015613ca2578190505b613cb6613cae85613b6e565b830182613c55565b50505b505050565b600082821c905092915050565b6000613cdc60001984600802613cbe565b1980831691505092915050565b6000613cf58383613ccb565b9150826002028217905092915050565b613d0e8261296c565b67ffffffffffffffff811115613d2757613d26612ab1565b5b613d3182546133ba565b613d3c828285613c78565b600060209050601f831160018114613d6f5760008415613d5d578287015190505b613d678582613ce9565b865550613dcf565b601f198416613d7d866133f6565b60005b82811015613da557848901518255600182019150602085019450602081019050613d80565b86831015613dc25784890151613dbe601f891682613ccb565b8355505b6001600288020188555050505b505050505050565b7f4f776e61626c653a2063616c6c6572206973206e6f7420746865206f776e6572600082015250565b6000613e0d602083612977565b9150613e1882613dd7565b602082019050919050565b60006020820190508181036000830152613e3c81613e00565b9050919050565b7f20697320616c72656164792068617320616e206f70657261746f7220726f6c65600082015250565b6000613e796020836133eb565b9150613e8482613e43565b602082019050919050565b6000613e9a82613a17565b9150613ea6828461348e565b9150613eb182613e6c565b915081905092915050565b7f455243313135353a2069647320616e6420616d6f756e7473206c656e6774682060008201527f6d69736d61746368000000000000000000000000000000000000000000000000602082015250565b6000613f18602883612977565b9150613f2382613ebc565b604082019050919050565b60006020820190508181036000830152613f4781613f0b565b9050919050565b7f455243313135353a207472616e7366657220746f20746865207a65726f20616460008201527f6472657373000000000000000000000000000000000000000000000000000000602082015250565b6000613faa602583612977565b9150613fb582613f4e565b604082019050919050565b60006020820190508181036000830152613fd981613f9d565b9050919050565b7f455243313135353a20696e73756666696369656e742062616c616e636520666f60008201527f72207472616e7366657200000000000000000000000000000000000000000000602082015250565b600061403c602a83612977565b915061404782613fe0565b604082019050919050565b6000602082019050818103600083015261406b8161402f565b9050919050565b6000604082019050818103600083015261408c8185613038565b905081810360208301526140a08184613038565b90509392505050565b7f455243313135353a206275726e2066726f6d20746865207a65726f206164647260008201527f6573730000000000000000000000000000000000000000000000000000000000602082015250565b6000614105602383612977565b9150614110826140a9565b604082019050919050565b60006020820190508181036000830152614134816140f8565b9050919050565b7f455243313135353a206275726e20616d6f756e7420657863656564732062616c60008201527f616e636500000000000000000000000000000000000000000000000000000000602082015250565b6000614197602483612977565b91506141a28261413b565b604082019050919050565b600060208201905081810360008301526141c68161418a565b9050919050565b7f455243313135353a2073657474696e6720617070726f76616c2073746174757360008201527f20666f722073656c660000000000000000000000000000000000000000000000602082015250565b6000614229602983612977565b9150614234826141cd565b604082019050919050565b600060208201905081810360008301526142588161421c565b9050919050565b7f53656e64204e4654206e6f7420616c6c6f776564000000000000000000000000600082015250565b6000614295601483612977565b91506142a08261425f565b602082019050919050565b600060208201905081810360008301526142c481614288565b9050919050565b600081519050919050565b600082825260208201905092915050565b60006142f2826142cb565b6142fc81856142d6565b935061430c818560208601612988565b614315816129bb565b840191505092915050565b600060a08201905061433560008301886131f8565b61434260208301876131f8565b61434f6040830186612887565b61435c6060830185612887565b818103608083015261436e81846142e7565b90509695505050505050565b600081519050614389816128dd565b92915050565b6000602082840312156143a5576143a46127a9565b5b60006143b38482850161437a565b91505092915050565b60008160e01c9050919050565b600060033d11156143e85760046000803e6143e56000516143bc565b90505b90565b600060443d10614478576143fd61279f565b60043d036004823e80513d602482011167ffffffffffffffff82111715614425575050614478565b808201805167ffffffffffffffff8111156144435750505050614478565b80602083010160043d038501811115614460575050505050614478565b61446f82602001850186612ae0565b82955050505050505b90565b7f455243313135353a207472616e7366657220746f206e6f6e2d4552433131353560008201527f526563656976657220696d706c656d656e746572000000000000000000000000602082015250565b60006144d7603483612977565b91506144e28261447b565b604082019050919050565b60006020820190508181036000830152614506816144ca565b9050919050565b7f455243313135353a204552433131353552656365697665722072656a6563746560008201527f6420746f6b656e73000000000000000000000000000000000000000000000000602082015250565b6000614569602883612977565b91506145748261450d565b604082019050919050565b600060208201905081810360008301526145988161455c565b9050919050565b600060a0820190506145b460008301886131f8565b6145c160208301876131f8565b81810360408301526145d38186613038565b905081810360608301526145e78185613038565b905081810360808301526145fb81846142e7565b9050969550505050505056fea2646970667358221220b993bcc63ec7b7db9c3208a3132f38239d5b267dd147fe61ce2f87cea280dcb764736f6c634300080f0033697066733a2f2f516d6469596950566a58586e79504a557877564e67765268586a4354374a436d48464265576a5a32316d6a7972562f",
			"opcodes": "PUSH1 0x80 PUSH1 0x40 MSTORE PUSH1 0x40 MLOAD DUP1 PUSH1 0x20 ADD PUSH1 0x40 MSTORE DUP1 PUSH1 0x0 DUP2 MSTORE POP PUSH1 0x3 SWAP1 DUP2 PUSH3 0x24 SWAP2 SWAP1 PUSH3 0x1211 JUMP JUMPDEST POP PUSH1 0x40 MLOAD DUP1 PUSH1 0x40 ADD PUSH1 0x40 MSTORE DUP1 PUSH1 0xA DUP2 MSTORE PUSH1 0x20 ADD PUSH32 0x50454B45504F5254414C00000000000000000000000000000000000000000000 DUP2 MSTORE POP PUSH1 0x7 SWAP1 DUP2 PUSH3 0x6B SWAP2 SWAP1 PUSH3 0x1211 JUMP JUMPDEST POP PUSH1 0x40 MLOAD DUP1 PUSH1 0x40 ADD PUSH1 0x40 MSTORE DUP1 PUSH1 0x8 DUP2 MSTORE PUSH1 0x20 ADD PUSH32 0x502D504F5254414C000000000000000000000000000000000000000000000000 DUP2 MSTORE POP PUSH1 0x8 SWAP1 DUP2 PUSH3 0xB2 SWAP2 SWAP1 PUSH3 0x1211 JUMP JUMPDEST POP CALLVALUE DUP1 ISZERO PUSH3 0xC0 JUMPI PUSH1 0x0 DUP1 REVERT JUMPDEST POP PUSH1 0x40 MLOAD DUP1 PUSH1 0x20 ADD PUSH1 0x40 MSTORE DUP1 PUSH1 0x0 DUP2 MSTORE POP PUSH3 0xE2 DUP2 PUSH3 0x18C PUSH1 0x20 SHL PUSH1 0x20 SHR JUMP JUMPDEST POP PUSH3 0x103 PUSH3 0xF7 PUSH3 0x1A1 PUSH1 0x20 SHL PUSH1 0x20 SHR JUMP JUMPDEST PUSH3 0x1A9 PUSH1 0x20 SHL PUSH1 0x20 SHR JUMP JUMPDEST PUSH3 0x114 CALLER PUSH3 0x26F PUSH1 0x20 SHL PUSH1 0x20 SHR JUMP JUMPDEST PUSH3 0x13E PUSH1 0x40 MLOAD DUP1 PUSH1 0x60 ADD PUSH1 0x40 MSTORE DUP1 PUSH1 0x36 DUP2 MSTORE PUSH1 0x20 ADD PUSH3 0x639E PUSH1 0x36 SWAP2 CODECOPY PUSH3 0x3BB PUSH1 0x20 SHL PUSH1 0x20 SHR JUMP JUMPDEST PUSH3 0x186 PUSH1 0x0 PUSH1 0x40 MLOAD DUP1 PUSH1 0x40 ADD PUSH1 0x40 MSTORE DUP1 PUSH1 0x6 DUP2 MSTORE PUSH1 0x20 ADD PUSH32 0x302E6A736F6E0000000000000000000000000000000000000000000000000000 DUP2 MSTORE POP PUSH3 0x3D0 PUSH1 0x20 SHL PUSH1 0x20 SHR JUMP JUMPDEST PUSH3 0x1D51 JUMP JUMPDEST DUP1 PUSH1 0x2 SWAP1 DUP2 PUSH3 0x19D SWAP2 SWAP1 PUSH3 0x1211 JUMP JUMPDEST POP POP JUMP JUMPDEST PUSH1 0x0 CALLER SWAP1 POP SWAP1 JUMP JUMPDEST PUSH1 0x0 PUSH1 0x5 PUSH1 0x0 SWAP1 SLOAD SWAP1 PUSH2 0x100 EXP SWAP1 DIV PUSH20 0xFFFFFFFFFFFFFFFFFFFFFFFFFFFFFFFFFFFFFFFF AND SWAP1 POP DUP2 PUSH1 0x5 PUSH1 0x0 PUSH2 0x100 EXP DUP2 SLOAD DUP2 PUSH20 0xFFFFFFFFFFFFFFFFFFFFFFFFFFFFFFFFFFFFFFFF MUL NOT AND SWAP1 DUP4 PUSH20 0xFFFFFFFFFFFFFFFFFFFFFFFFFFFFFFFFFFFFFFFF AND MUL OR SWAP1 SSTORE POP DUP2 PUSH20 0xFFFFFFFFFFFFFFFFFFFFFFFFFFFFFFFFFFFFFFFF AND DUP2 PUSH20 0xFFFFFFFFFFFFFFFFFFFFFFFFFFFFFFFFFFFFFFFF AND PUSH32 0x8BE0079C531659141344CD1FD0A4F28419497F9722A3DAAFE3B4186F6B6457E0 PUSH1 0x40 MLOAD PUSH1 0x40 MLOAD DUP1 SWAP2 SUB SWAP1 LOG3 POP POP JUMP JUMPDEST PUSH1 0x6 PUSH1 0x0 DUP3 PUSH20 0xFFFFFFFFFFFFFFFFFFFFFFFFFFFFFFFFFFFFFFFF AND PUSH20 0xFFFFFFFFFFFFFFFFFFFFFFFFFFFFFFFFFFFFFFFF AND DUP2 MSTORE PUSH1 0x20 ADD SWAP1 DUP2 MSTORE PUSH1 0x20 ADD PUSH1 0x0 KECCAK256 PUSH1 0x0 SWAP1 SLOAD SWAP1 PUSH2 0x100 EXP SWAP1 DIV PUSH1 0xFF AND ISZERO PUSH3 0x2FA PUSH3 0x2D1 PUSH3 0x1A1 PUSH1 0x20 SHL PUSH1 0x20 SHR JUMP JUMPDEST PUSH20 0xFFFFFFFFFFFFFFFFFFFFFFFFFFFFFFFFFFFFFFFF AND PUSH1 0x14 PUSH3 0x481 PUSH1 0x20 SHL PUSH3 0xFDC OR PUSH1 0x20 SHR JUMP JUMPDEST PUSH1 0x40 MLOAD PUSH1 0x20 ADD PUSH3 0x30C SWAP2 SWAP1 PUSH3 0x1410 JUMP JUMPDEST PUSH1 0x40 MLOAD PUSH1 0x20 DUP2 DUP4 SUB SUB DUP2 MSTORE SWAP1 PUSH1 0x40 MSTORE SWAP1 PUSH3 0x35F JUMPI PUSH1 0x40 MLOAD PUSH32 0x8C379A000000000000000000000000000000000000000000000000000000000 DUP2 MSTORE PUSH1 0x4 ADD PUSH3 0x356 SWAP2 SWAP1 PUSH3 0x14A6 JUMP JUMPDEST PUSH1 0x40 MLOAD DUP1 SWAP2 SUB SWAP1 REVERT JUMPDEST POP PUSH1 0x1 PUSH1 0x6 PUSH1 0x0 DUP4 PUSH20 0xFFFFFFFFFFFFFFFFFFFFFFFFFFFFFFFFFFFFFFFF AND PUSH20 0xFFFFFFFFFFFFFFFFFFFFFFFFFFFFFFFFFFFFFFFF AND DUP2 MSTORE PUSH1 0x20 ADD SWAP1 DUP2 MSTORE PUSH1 0x20 ADD PUSH1 0x0 KECCAK256 PUSH1 0x0 PUSH2 0x100 EXP DUP2 SLOAD DUP2 PUSH1 0xFF MUL NOT AND SWAP1 DUP4 ISZERO ISZERO MUL OR SWAP1 SSTORE POP POP JUMP JUMPDEST DUP1 PUSH1 0x3 SWAP1 DUP2 PUSH3 0x3CC SWAP2 SWAP1 PUSH3 0x1211 JUMP JUMPDEST POP POP JUMP JUMPDEST PUSH3 0x3F0 PUSH3 0x3E4 PUSH3 0x1A1 PUSH1 0x20 SHL PUSH1 0x20 SHR JUMP JUMPDEST PUSH3 0x6DC PUSH1 0x20 SHL PUSH1 0x20 SHR JUMP JUMPDEST PUSH1 0x0 PUSH3 0x403 DUP4 PUSH3 0x7CF PUSH1 0x20 SHL PUSH1 0x20 SHR JUMP JUMPDEST MLOAD EQ PUSH3 0x447 JUMPI PUSH1 0x40 MLOAD PUSH32 0x8C379A000000000000000000000000000000000000000000000000000000000 DUP2 MSTORE PUSH1 0x4 ADD PUSH3 0x43E SWAP1 PUSH3 0x151A JUMP JUMPDEST PUSH1 0x40 MLOAD DUP1 SWAP2 SUB SWAP1 REVERT JUMPDEST PUSH3 0x46B CALLER DUP4 PUSH1 0x1 PUSH1 0x40 MLOAD DUP1 PUSH1 0x20 ADD PUSH1 0x40 MSTORE DUP1 PUSH1 0x0 DUP2 MSTORE POP PUSH3 0x8CD PUSH1 0x20 SHL PUSH1 0x20 SHR JUMP JUMPDEST PUSH3 0x47D DUP3 DUP3 PUSH3 0xAB4 PUSH1 0x20 SHL PUSH1 0x20 SHR JUMP JUMPDEST POP POP JUMP JUMPDEST PUSH1 0x60 PUSH1 0x0 PUSH1 0x2 DUP4 PUSH1 0x2 PUSH3 0x496 SWAP2 SWAP1 PUSH3 0x156B JUMP JUMPDEST PUSH3 0x4A2 SWAP2 SWAP1 PUSH3 0x15CC JUMP JUMPDEST PUSH8 0xFFFFFFFFFFFFFFFF DUP2 GT ISZERO PUSH3 0x4BE JUMPI PUSH3 0x4BD PUSH3 0xFA2 JUMP JUMPDEST JUMPDEST PUSH1 0x40 MLOAD SWAP1 DUP1 DUP3 MSTORE DUP1 PUSH1 0x1F ADD PUSH1 0x1F NOT AND PUSH1 0x20 ADD DUP3 ADD PUSH1 0x40 MSTORE DUP1 ISZERO PUSH3 0x4F1 JUMPI DUP2 PUSH1 0x20 ADD PUSH1 0x1 DUP3 MUL DUP1 CALLDATASIZE DUP4 CALLDATACOPY DUP1 DUP3 ADD SWAP2 POP POP SWAP1 POP JUMPDEST POP SWAP1 POP PUSH32 0x3000000000000000000000000000000000000000000000000000000000000000 DUP2 PUSH1 0x0 DUP2 MLOAD DUP2 LT PUSH3 0x52C JUMPI PUSH3 0x52B PUSH3 0x1629 JUMP JUMPDEST JUMPDEST PUSH1 0x20 ADD ADD SWAP1 PUSH31 0xFFFFFFFFFFFFFFFFFFFFFFFFFFFFFFFFFFFFFFFFFFFFFFFFFFFFFFFFFFFFFF NOT AND SWAP1 DUP2 PUSH1 0x0 BYTE SWAP1 MSTORE8 POP PUSH32 0x7800000000000000000000000000000000000000000000000000000000000000 DUP2 PUSH1 0x1 DUP2 MLOAD DUP2 LT PUSH3 0x593 JUMPI PUSH3 0x592 PUSH3 0x1629 JUMP JUMPDEST JUMPDEST PUSH1 0x20 ADD ADD SWAP1 PUSH31 0xFFFFFFFFFFFFFFFFFFFFFFFFFFFFFFFFFFFFFFFFFFFFFFFFFFFFFFFFFFFFFF NOT AND SWAP1 DUP2 PUSH1 0x0 BYTE SWAP1 MSTORE8 POP PUSH1 0x0 PUSH1 0x1 DUP5 PUSH1 0x2 PUSH3 0x5D5 SWAP2 SWAP1 PUSH3 0x156B JUMP JUMPDEST PUSH3 0x5E1 SWAP2 SWAP1 PUSH3 0x15CC JUMP JUMPDEST SWAP1 POP JUMPDEST PUSH1 0x1 DUP2 GT ISZERO PUSH3 0x68B JUMPI PUSH32 0x3031323334353637383961626364656600000000000000000000000000000000 PUSH1 0xF DUP7 AND PUSH1 0x10 DUP2 LT PUSH3 0x627 JUMPI PUSH3 0x626 PUSH3 0x1629 JUMP JUMPDEST JUMPDEST BYTE PUSH1 0xF8 SHL DUP3 DUP3 DUP2 MLOAD DUP2 LT PUSH3 0x641 JUMPI PUSH3 0x640 PUSH3 0x1629 JUMP JUMPDEST JUMPDEST PUSH1 0x20 ADD ADD SWAP1 PUSH31 0xFFFFFFFFFFFFFFFFFFFFFFFFFFFFFFFFFFFFFFFFFFFFFFFFFFFFFFFFFFFFFF NOT AND SWAP1 DUP2 PUSH1 0x0 BYTE SWAP1 MSTORE8 POP PUSH1 0x4 DUP6 SWAP1 SHR SWAP5 POP DUP1 PUSH3 0x683 SWAP1 PUSH3 0x1658 JUMP JUMPDEST SWAP1 POP PUSH3 0x5E4 JUMP JUMPDEST POP PUSH1 0x0 DUP5 EQ PUSH3 0x6D2 JUMPI PUSH1 0x40 MLOAD PUSH32 0x8C379A000000000000000000000000000000000000000000000000000000000 DUP2 MSTORE PUSH1 0x4 ADD PUSH3 0x6C9 SWAP1 PUSH3 0x16D6 JUMP JUMPDEST PUSH1 0x40 MLOAD DUP1 SWAP2 SUB SWAP1 REVERT JUMPDEST DUP1 SWAP2 POP POP SWAP3 SWAP2 POP POP JUMP JUMPDEST PUSH1 0x6 PUSH1 0x0 DUP3 PUSH20 0xFFFFFFFFFFFFFFFFFFFFFFFFFFFFFFFFFFFFFFFF AND PUSH20 0xFFFFFFFFFFFFFFFFFFFFFFFFFFFFFFFFFFFFFFFF AND DUP2 MSTORE PUSH1 0x20 ADD SWAP1 DUP2 MSTORE PUSH1 0x20 ADD PUSH1 0x0 KECCAK256 PUSH1 0x0 SWAP1 SLOAD SWAP1 PUSH2 0x100 EXP SWAP1 DIV PUSH1 0xFF AND PUSH3 0x766 PUSH3 0x73D PUSH3 0x1A1 PUSH1 0x20 SHL PUSH1 0x20 SHR JUMP JUMPDEST PUSH20 0xFFFFFFFFFFFFFFFFFFFFFFFFFFFFFFFFFFFFFFFF AND PUSH1 0x14 PUSH3 0x481 PUSH1 0x20 SHL PUSH3 0xFDC OR PUSH1 0x20 SHR JUMP JUMPDEST PUSH1 0x40 MLOAD PUSH1 0x20 ADD PUSH3 0x778 SWAP2 SWAP1 PUSH3 0x1748 JUMP JUMPDEST PUSH1 0x40 MLOAD PUSH1 0x20 DUP2 DUP4 SUB SUB DUP2 MSTORE SWAP1 PUSH1 0x40 MSTORE SWAP1 PUSH3 0x7CB JUMPI PUSH1 0x40 MLOAD PUSH32 0x8C379A000000000000000000000000000000000000000000000000000000000 DUP2 MSTORE PUSH1 0x4 ADD PUSH3 0x7C2 SWAP2 SWAP1 PUSH3 0x14A6 JUMP JUMPDEST PUSH1 0x40 MLOAD DUP1 SWAP2 SUB SWAP1 REVERT JUMPDEST POP POP JUMP JUMPDEST PUSH1 0x60 PUSH1 0x0 PUSH1 0x4 PUSH1 0x0 DUP5 DUP2 MSTORE PUSH1 0x20 ADD SWAP1 DUP2 MSTORE PUSH1 0x20 ADD PUSH1 0x0 KECCAK256 DUP1 SLOAD PUSH3 0x7F3 SWAP1 PUSH3 0x1000 JUMP JUMPDEST DUP1 PUSH1 0x1F ADD PUSH1 0x20 DUP1 SWAP2 DIV MUL PUSH1 0x20 ADD PUSH1 0x40 MLOAD SWAP1 DUP2 ADD PUSH1 0x40 MSTORE DUP1 SWAP3 SWAP2 SWAP1 DUP2 DUP2 MSTORE PUSH1 0x20 ADD DUP3 DUP1 SLOAD PUSH3 0x821 SWAP1 PUSH3 0x1000 JUMP JUMPDEST DUP1 ISZERO PUSH3 0x872 JUMPI DUP1 PUSH1 0x1F LT PUSH3 0x846 JUMPI PUSH2 0x100 DUP1 DUP4 SLOAD DIV MUL DUP4 MSTORE SWAP2 PUSH1 0x20 ADD SWAP2 PUSH3 0x872 JUMP JUMPDEST DUP3 ADD SWAP2 SWAP1 PUSH1 0x0 MSTORE PUSH1 0x20 PUSH1 0x0 KECCAK256 SWAP1 JUMPDEST DUP2 SLOAD DUP2 MSTORE SWAP1 PUSH1 0x1 ADD SWAP1 PUSH1 0x20 ADD DUP1 DUP4 GT PUSH3 0x854 JUMPI DUP3 SWAP1 SUB PUSH1 0x1F AND DUP3 ADD SWAP2 JUMPDEST POP POP POP POP POP SWAP1 POP PUSH1 0x0 DUP2 MLOAD GT PUSH3 0x89F JUMPI PUSH3 0x899 DUP4 PUSH3 0xB25 PUSH1 0x20 SHL PUSH3 0x1218 OR PUSH1 0x20 SHR JUMP JUMPDEST PUSH3 0x8C5 JUMP JUMPDEST PUSH1 0x3 DUP2 PUSH1 0x40 MLOAD PUSH1 0x20 ADD PUSH3 0x8B5 SWAP3 SWAP2 SWAP1 PUSH3 0x180A JUMP JUMPDEST PUSH1 0x40 MLOAD PUSH1 0x20 DUP2 DUP4 SUB SUB DUP2 MSTORE SWAP1 PUSH1 0x40 MSTORE JUMPDEST SWAP2 POP POP SWAP2 SWAP1 POP JUMP JUMPDEST PUSH1 0x0 PUSH20 0xFFFFFFFFFFFFFFFFFFFFFFFFFFFFFFFFFFFFFFFF AND DUP5 PUSH20 0xFFFFFFFFFFFFFFFFFFFFFFFFFFFFFFFFFFFFFFFF AND SUB PUSH3 0x93F JUMPI PUSH1 0x40 MLOAD PUSH32 0x8C379A000000000000000000000000000000000000000000000000000000000 DUP2 MSTORE PUSH1 0x4 ADD PUSH3 0x936 SWAP1 PUSH3 0x18A8 JUMP JUMPDEST PUSH1 0x40 MLOAD DUP1 SWAP2 SUB SWAP1 REVERT JUMPDEST PUSH1 0x0 PUSH3 0x951 PUSH3 0x1A1 PUSH1 0x20 SHL PUSH1 0x20 SHR JUMP JUMPDEST SWAP1 POP PUSH1 0x0 PUSH3 0x966 DUP6 PUSH3 0xBC1 PUSH1 0x20 SHL PUSH1 0x20 SHR JUMP JUMPDEST SWAP1 POP PUSH1 0x0 PUSH3 0x97B DUP6 PUSH3 0xBC1 PUSH1 0x20 SHL PUSH1 0x20 SHR JUMP JUMPDEST SWAP1 POP PUSH3 0x994 DUP4 PUSH1 0x0 DUP10 DUP6 DUP6 DUP10 PUSH3 0xC42 PUSH1 0x20 SHL PUSH1 0x20 SHR JUMP JUMPDEST DUP5 PUSH1 0x0 DUP1 DUP9 DUP2 MSTORE PUSH1 0x20 ADD SWAP1 DUP2 MSTORE PUSH1 0x20 ADD PUSH1 0x0 KECCAK256 PUSH1 0x0 DUP10 PUSH20 0xFFFFFFFFFFFFFFFFFFFFFFFFFFFFFFFFFFFFFFFF AND PUSH20 0xFFFFFFFFFFFFFFFFFFFFFFFFFFFFFFFFFFFFFFFF AND DUP2 MSTORE PUSH1 0x20 ADD SWAP1 DUP2 MSTORE PUSH1 0x20 ADD PUSH1 0x0 KECCAK256 PUSH1 0x0 DUP3 DUP3 SLOAD PUSH3 0x9F5 SWAP2 SWAP1 PUSH3 0x15CC JUMP JUMPDEST SWAP3 POP POP DUP2 SWAP1 SSTORE POP DUP7 PUSH20 0xFFFFFFFFFFFFFFFFFFFFFFFFFFFFFFFFFFFFFFFF AND PUSH1 0x0 PUSH20 0xFFFFFFFFFFFFFFFFFFFFFFFFFFFFFFFFFFFFFFFF AND DUP5 PUSH20 0xFFFFFFFFFFFFFFFFFFFFFFFFFFFFFFFFFFFFFFFF AND PUSH32 0xC3D58168C5AE7397731D063D5BBF3D657854427343F4C083240F7AACAA2D0F62 DUP10 DUP10 PUSH1 0x40 MLOAD PUSH3 0xA75 SWAP3 SWAP2 SWAP1 PUSH3 0x18DB JUMP JUMPDEST PUSH1 0x40 MLOAD DUP1 SWAP2 SUB SWAP1 LOG4 PUSH3 0xA94 DUP4 PUSH1 0x0 DUP10 DUP6 DUP6 DUP10 PUSH3 0xD41 PUSH1 0x20 SHL PUSH1 0x20 SHR JUMP JUMPDEST PUSH3 0xAAB DUP4 PUSH1 0x0 DUP10 DUP10 DUP10 DUP10 PUSH3 0xD49 PUSH1 0x20 SHL PUSH1 0x20 SHR JUMP JUMPDEST POP POP POP POP POP POP POP JUMP JUMPDEST DUP1 PUSH1 0x4 PUSH1 0x0 DUP5 DUP2 MSTORE PUSH1 0x20 ADD SWAP1 DUP2 MSTORE PUSH1 0x20 ADD PUSH1 0x0 KECCAK256 SWAP1 DUP2 PUSH3 0xAD6 SWAP2 SWAP1 PUSH3 0x1211 JUMP JUMPDEST POP DUP2 PUSH32 0x6BB7FF708619BA0610CBA295A58592E0451DEE2622938C8755667688DAF3529B PUSH3 0xB0A DUP5 PUSH3 0x7CF PUSH1 0x20 SHL PUSH1 0x20 SHR JUMP JUMPDEST PUSH1 0x40 MLOAD PUSH3 0xB19 SWAP2 SWAP1 PUSH3 0x14A6 JUMP JUMPDEST PUSH1 0x40 MLOAD DUP1 SWAP2 SUB SWAP1 LOG2 POP POP JUMP JUMPDEST PUSH1 0x60 PUSH1 0x2 DUP1 SLOAD PUSH3 0xB36 SWAP1 PUSH3 0x1000 JUMP JUMPDEST DUP1 PUSH1 0x1F ADD PUSH1 0x20 DUP1 SWAP2 DIV MUL PUSH1 0x20 ADD PUSH1 0x40 MLOAD SWAP1 DUP2 ADD PUSH1 0x40 MSTORE DUP1 SWAP3 SWAP2 SWAP1 DUP2 DUP2 MSTORE PUSH1 0x20 ADD DUP3 DUP1 SLOAD PUSH3 0xB64 SWAP1 PUSH3 0x1000 JUMP JUMPDEST DUP1 ISZERO PUSH3 0xBB5 JUMPI DUP1 PUSH1 0x1F LT PUSH3 0xB89 JUMPI PUSH2 0x100 DUP1 DUP4 SLOAD DIV MUL DUP4 MSTORE SWAP2 PUSH1 0x20 ADD SWAP2 PUSH3 0xBB5 JUMP JUMPDEST DUP3 ADD SWAP2 SWAP1 PUSH1 0x0 MSTORE PUSH1 0x20 PUSH1 0x0 KECCAK256 SWAP1 JUMPDEST DUP2 SLOAD DUP2 MSTORE SWAP1 PUSH1 0x1 ADD SWAP1 PUSH1 0x20 ADD DUP1 DUP4 GT PUSH3 0xB97 JUMPI DUP3 SWAP1 SUB PUSH1 0x1F AND DUP3 ADD SWAP2 JUMPDEST POP POP POP POP POP SWAP1 POP SWAP2 SWAP1 POP JUMP JUMPDEST PUSH1 0x60 PUSH1 0x0 PUSH1 0x1 PUSH8 0xFFFFFFFFFFFFFFFF DUP2 GT ISZERO PUSH3 0xBE3 JUMPI PUSH3 0xBE2 PUSH3 0xFA2 JUMP JUMPDEST JUMPDEST PUSH1 0x40 MLOAD SWAP1 DUP1 DUP3 MSTORE DUP1 PUSH1 0x20 MUL PUSH1 0x20 ADD DUP3 ADD PUSH1 0x40 MSTORE DUP1 ISZERO PUSH3 0xC12 JUMPI DUP2 PUSH1 0x20 ADD PUSH1 0x20 DUP3 MUL DUP1 CALLDATASIZE DUP4 CALLDATACOPY DUP1 DUP3 ADD SWAP2 POP POP SWAP1 POP JUMPDEST POP SWAP1 POP DUP3 DUP2 PUSH1 0x0 DUP2 MLOAD DUP2 LT PUSH3 0xC2D JUMPI PUSH3 0xC2C PUSH3 0x1629 JUMP JUMPDEST JUMPDEST PUSH1 0x20 MUL PUSH1 0x20 ADD ADD DUP2 DUP2 MSTORE POP POP DUP1 SWAP2 POP POP SWAP2 SWAP1 POP JUMP JUMPDEST PUSH3 0xC52 PUSH3 0xF42 PUSH1 0x20 SHL PUSH1 0x20 SHR JUMP JUMPDEST PUSH20 0xFFFFFFFFFFFFFFFFFFFFFFFFFFFFFFFFFFFFFFFF AND DUP7 PUSH20 0xFFFFFFFFFFFFFFFFFFFFFFFFFFFFFFFFFFFFFFFF AND EQ DUP1 PUSH3 0xCDC JUMPI POP PUSH1 0x1 ISZERO ISZERO PUSH1 0x9 PUSH1 0x0 DUP9 PUSH20 0xFFFFFFFFFFFFFFFFFFFFFFFFFFFFFFFFFFFFFFFF AND PUSH20 0xFFFFFFFFFFFFFFFFFFFFFFFFFFFFFFFFFFFFFFFF AND DUP2 MSTORE PUSH1 0x20 ADD SWAP1 DUP2 MSTORE PUSH1 0x20 ADD PUSH1 0x0 KECCAK256 PUSH1 0x0 SWAP1 SLOAD SWAP1 PUSH2 0x100 EXP SWAP1 DIV PUSH1 0xFF AND ISZERO ISZERO EQ JUMPDEST PUSH3 0xD1E JUMPI PUSH1 0x40 MLOAD PUSH32 0x8C379A000000000000000000000000000000000000000000000000000000000 DUP2 MSTORE PUSH1 0x4 ADD PUSH3 0xD15 SWAP1 PUSH3 0x1958 JUMP JUMPDEST PUSH1 0x40 MLOAD DUP1 SWAP2 SUB SWAP1 REVERT JUMPDEST PUSH3 0xD39 DUP7 DUP7 DUP7 DUP7 DUP7 DUP7 PUSH3 0xF6C PUSH1 0x20 SHL PUSH3 0x12AC OR PUSH1 0x20 SHR JUMP JUMPDEST POP POP POP POP POP POP JUMP JUMPDEST POP POP POP POP POP POP JUMP JUMPDEST PUSH3 0xD75 DUP5 PUSH20 0xFFFFFFFFFFFFFFFFFFFFFFFFFFFFFFFFFFFFFFFF AND PUSH3 0xF74 PUSH1 0x20 SHL PUSH3 0x12B4 OR PUSH1 0x20 SHR JUMP JUMPDEST ISZERO PUSH3 0xF3A JUMPI DUP4 PUSH20 0xFFFFFFFFFFFFFFFFFFFFFFFFFFFFFFFFFFFFFFFF AND PUSH4 0xF23A6E61 DUP8 DUP8 DUP7 DUP7 DUP7 PUSH1 0x40 MLOAD DUP7 PUSH4 0xFFFFFFFF AND PUSH1 0xE0 SHL DUP2 MSTORE PUSH1 0x4 ADD PUSH3 0xDBE SWAP6 SWAP5 SWAP4 SWAP3 SWAP2 SWAP1 PUSH3 0x1A1C JUMP JUMPDEST PUSH1 0x20 PUSH1 0x40 MLOAD DUP1 DUP4 SUB DUP2 PUSH1 0x0 DUP8 GAS CALL SWAP3 POP POP POP DUP1 ISZERO PUSH3 0xDFD JUMPI POP PUSH1 0x40 MLOAD RETURNDATASIZE PUSH1 0x1F NOT PUSH1 0x1F DUP3 ADD AND DUP3 ADD DUP1 PUSH1 0x40 MSTORE POP DUP2 ADD SWAP1 PUSH3 0xDFA SWAP2 SWAP1 PUSH3 0x1AEC JUMP JUMPDEST PUSH1 0x1 JUMPDEST PUSH3 0xEAE JUMPI PUSH3 0xE0C PUSH3 0x1B2B JUMP JUMPDEST DUP1 PUSH4 0x8C379A0 SUB PUSH3 0xE6F JUMPI POP PUSH3 0xE23 PUSH3 0x1B86 JUMP JUMPDEST DUP1 PUSH3 0xE30 JUMPI POP PUSH3 0xE71 JUMP JUMPDEST DUP1 PUSH1 0x40 MLOAD PUSH32 0x8C379A000000000000000000000000000000000000000000000000000000000 DUP2 MSTORE PUSH1 0x4 ADD PUSH3 0xE66 SWAP2 SWAP1 PUSH3 0x14A6 JUMP JUMPDEST PUSH1 0x40 MLOAD DUP1 SWAP2 SUB SWAP1 REVERT JUMPDEST POP JUMPDEST PUSH1 0x40 MLOAD PUSH32 0x8C379A000000000000000000000000000000000000000000000000000000000 DUP2 MSTORE PUSH1 0x4 ADD PUSH3 0xEA5 SWAP1 PUSH3 0x1C97 JUMP JUMPDEST PUSH1 0x40 MLOAD DUP1 SWAP2 SUB SWAP1 REVERT JUMPDEST PUSH4 0xF23A6E61 PUSH1 0xE0 SHL PUSH28 0xFFFFFFFFFFFFFFFFFFFFFFFFFFFFFFFFFFFFFFFFFFFFFFFFFFFFFFFF NOT AND DUP2 PUSH28 0xFFFFFFFFFFFFFFFFFFFFFFFFFFFFFFFFFFFFFFFFFFFFFFFFFFFFFFFF NOT AND EQ PUSH3 0xF38 JUMPI PUSH1 0x40 MLOAD PUSH32 0x8C379A000000000000000000000000000000000000000000000000000000000 DUP2 MSTORE PUSH1 0x4 ADD PUSH3 0xF2F SWAP1 PUSH3 0x1D2F JUMP JUMPDEST PUSH1 0x40 MLOAD DUP1 SWAP2 SUB SWAP1 REVERT JUMPDEST POP JUMPDEST POP POP POP POP POP POP JUMP JUMPDEST PUSH1 0x0 PUSH1 0x5 PUSH1 0x0 SWAP1 SLOAD SWAP1 PUSH2 0x100 EXP SWAP1 DIV PUSH20 0xFFFFFFFFFFFFFFFFFFFFFFFFFFFFFFFFFFFFFFFF AND SWAP1 POP SWAP1 JUMP JUMPDEST POP POP POP POP POP POP JUMP JUMPDEST PUSH1 0x0 DUP1 DUP3 PUSH20 0xFFFFFFFFFFFFFFFFFFFFFFFFFFFFFFFFFFFFFFFF AND EXTCODESIZE GT SWAP1 POP SWAP2 SWAP1 POP JUMP JUMPDEST PUSH1 0x0 DUP2 MLOAD SWAP1 POP SWAP2 SWAP1 POP JUMP JUMPDEST PUSH32 0x4E487B7100000000000000000000000000000000000000000000000000000000 PUSH1 0x0 MSTORE PUSH1 0x41 PUSH1 0x4 MSTORE PUSH1 0x24 PUSH1 0x0 REVERT JUMPDEST PUSH32 0x4E487B7100000000000000000000000000000000000000000000000000000000 PUSH1 0x0 MSTORE PUSH1 0x22 PUSH1 0x4 MSTORE PUSH1 0x24 PUSH1 0x0 REVERT JUMPDEST PUSH1 0x0 PUSH1 0x2 DUP3 DIV SWAP1 POP PUSH1 0x1 DUP3 AND DUP1 PUSH3 0x1019 JUMPI PUSH1 0x7F DUP3 AND SWAP2 POP JUMPDEST PUSH1 0x20 DUP3 LT DUP2 SUB PUSH3 0x102F JUMPI PUSH3 0x102E PUSH3 0xFD1 JUMP JUMPDEST JUMPDEST POP SWAP2 SWAP1 POP JUMP JUMPDEST PUSH1 0x0 DUP2 SWAP1 POP DUP2 PUSH1 0x0 MSTORE PUSH1 0x20 PUSH1 0x0 KECCAK256 SWAP1 POP SWAP2 SWAP1 POP JUMP JUMPDEST PUSH1 0x0 PUSH1 0x20 PUSH1 0x1F DUP4 ADD DIV SWAP1 POP SWAP2 SWAP1 POP JUMP JUMPDEST PUSH1 0x0 DUP3 DUP3 SHL SWAP1 POP SWAP3 SWAP2 POP POP JUMP JUMPDEST PUSH1 0x0 PUSH1 0x8 DUP4 MUL PUSH3 0x1099 PUSH32 0xFFFFFFFFFFFFFFFFFFFFFFFFFFFFFFFFFFFFFFFFFFFFFFFFFFFFFFFFFFFFFFFF DUP3 PUSH3 0x105A JUMP JUMPDEST PUSH3 0x10A5 DUP7 DUP4 PUSH3 0x105A JUMP JUMPDEST SWAP6 POP DUP1 NOT DUP5 AND SWAP4 POP DUP1 DUP7 AND DUP5 OR SWAP3 POP POP POP SWAP4 SWAP3 POP POP POP JUMP JUMPDEST PUSH1 0x0 DUP2 SWAP1 POP SWAP2 SWAP1 POP JUMP JUMPDEST PUSH1 0x0 DUP2 SWAP1 POP SWAP2 SWAP1 POP JUMP JUMPDEST PUSH1 0x0 PUSH3 0x10F2 PUSH3 0x10EC PUSH3 0x10E6 DUP5 PUSH3 0x10BD JUMP JUMPDEST PUSH3 0x10C7 JUMP JUMPDEST PUSH3 0x10BD JUMP JUMPDEST SWAP1 POP SWAP2 SWAP1 POP JUMP JUMPDEST PUSH1 0x0 DUP2 SWAP1 POP SWAP2 SWAP1 POP JUMP JUMPDEST PUSH3 0x110E DUP4 PUSH3 0x10D1 JUMP JUMPDEST PUSH3 0x1126 PUSH3 0x111D DUP3 PUSH3 0x10F9 JUMP JUMPDEST DUP5 DUP5 SLOAD PUSH3 0x1067 JUMP JUMPDEST DUP3 SSTORE POP POP POP POP JUMP JUMPDEST PUSH1 0x0 SWAP1 JUMP JUMPDEST PUSH3 0x113D PUSH3 0x112E JUMP JUMPDEST PUSH3 0x114A DUP2 DUP5 DUP5 PUSH3 0x1103 JUMP JUMPDEST POP POP POP JUMP JUMPDEST JUMPDEST DUP2 DUP2 LT ISZERO PUSH3 0x1172 JUMPI PUSH3 0x1166 PUSH1 0x0 DUP3 PUSH3 0x1133 JUMP JUMPDEST PUSH1 0x1 DUP2 ADD SWAP1 POP PUSH3 0x1150 JUMP JUMPDEST POP POP JUMP JUMPDEST PUSH1 0x1F DUP3 GT ISZERO PUSH3 0x11C1 JUMPI PUSH3 0x118B DUP2 PUSH3 0x1035 JUMP JUMPDEST PUSH3 0x1196 DUP5 PUSH3 0x104A JUMP JUMPDEST DUP2 ADD PUSH1 0x20 DUP6 LT ISZERO PUSH3 0x11A6 JUMPI DUP2 SWAP1 POP JUMPDEST PUSH3 0x11BE PUSH3 0x11B5 DUP6 PUSH3 0x104A JUMP JUMPDEST DUP4 ADD DUP3 PUSH3 0x114F JUMP JUMPDEST POP POP JUMPDEST POP POP POP JUMP JUMPDEST PUSH1 0x0 DUP3 DUP3 SHR SWAP1 POP SWAP3 SWAP2 POP POP JUMP JUMPDEST PUSH1 0x0 PUSH3 0x11E6 PUSH1 0x0 NOT DUP5 PUSH1 0x8 MUL PUSH3 0x11C6 JUMP JUMPDEST NOT DUP1 DUP4 AND SWAP2 POP POP SWAP3 SWAP2 POP POP JUMP JUMPDEST PUSH1 0x0 PUSH3 0x1201 DUP4 DUP4 PUSH3 0x11D3 JUMP JUMPDEST SWAP2 POP DUP3 PUSH1 0x2 MUL DUP3 OR SWAP1 POP SWAP3 SWAP2 POP POP JUMP JUMPDEST PUSH3 0x121C DUP3 PUSH3 0xF97 JUMP JUMPDEST PUSH8 0xFFFFFFFFFFFFFFFF DUP2 GT ISZERO PUSH3 0x1238 JUMPI PUSH3 0x1237 PUSH3 0xFA2 JUMP JUMPDEST JUMPDEST PUSH3 0x1244 DUP3 SLOAD PUSH3 0x1000 JUMP JUMPDEST PUSH3 0x1251 DUP3 DUP3 DUP6 PUSH3 0x1176 JUMP JUMPDEST PUSH1 0x0 PUSH1 0x20 SWAP1 POP PUSH1 0x1F DUP4 GT PUSH1 0x1 DUP2 EQ PUSH3 0x1289 JUMPI PUSH1 0x0 DUP5 ISZERO PUSH3 0x1274 JUMPI DUP3 DUP8 ADD MLOAD SWAP1 POP JUMPDEST PUSH3 0x1280 DUP6 DUP3 PUSH3 0x11F3 JUMP JUMPDEST DUP7 SSTORE POP PUSH3 0x12F0 JUMP JUMPDEST PUSH1 0x1F NOT DUP5 AND PUSH3 0x1299 DUP7 PUSH3 0x1035 JUMP JUMPDEST PUSH1 0x0 JUMPDEST DUP3 DUP2 LT ISZERO PUSH3 0x12C3 JUMPI DUP5 DUP10 ADD MLOAD DUP3 SSTORE PUSH1 0x1 DUP3 ADD SWAP2 POP PUSH1 0x20 DUP6 ADD SWAP5 POP PUSH1 0x20 DUP2 ADD SWAP1 POP PUSH3 0x129C JUMP JUMPDEST DUP7 DUP4 LT ISZERO PUSH3 0x12E3 JUMPI DUP5 DUP10 ADD MLOAD PUSH3 0x12DF PUSH1 0x1F DUP10 AND DUP3 PUSH3 0x11D3 JUMP JUMPDEST DUP4 SSTORE POP JUMPDEST PUSH1 0x1 PUSH1 0x2 DUP9 MUL ADD DUP9 SSTORE POP POP POP JUMPDEST POP POP POP POP POP POP JUMP JUMPDEST PUSH1 0x0 DUP2 SWAP1 POP SWAP3 SWAP2 POP POP JUMP JUMPDEST PUSH32 0x6163636F756E7420000000000000000000000000000000000000000000000000 PUSH1 0x0 DUP3 ADD MSTORE POP JUMP JUMPDEST PUSH1 0x0 PUSH3 0x133B PUSH1 0x8 DUP4 PUSH3 0x12F8 JUMP JUMPDEST SWAP2 POP PUSH3 0x1348 DUP3 PUSH3 0x1303 JUMP JUMPDEST PUSH1 0x8 DUP3 ADD SWAP1 POP SWAP2 SWAP1 POP JUMP JUMPDEST PUSH1 0x0 JUMPDEST DUP4 DUP2 LT ISZERO PUSH3 0x1373 JUMPI DUP1 DUP3 ADD MLOAD DUP2 DUP5 ADD MSTORE PUSH1 0x20 DUP2 ADD SWAP1 POP PUSH3 0x1356 JUMP JUMPDEST DUP4 DUP2 GT ISZERO PUSH3 0x1383 JUMPI PUSH1 0x0 DUP5 DUP5 ADD MSTORE JUMPDEST POP POP POP POP JUMP JUMPDEST PUSH1 0x0 PUSH3 0x1396 DUP3 PUSH3 0xF97 JUMP JUMPDEST PUSH3 0x13A2 DUP2 DUP6 PUSH3 0x12F8 JUMP JUMPDEST SWAP4 POP PUSH3 0x13B4 DUP2 DUP6 PUSH1 0x20 DUP7 ADD PUSH3 0x1353 JUMP JUMPDEST DUP1 DUP5 ADD SWAP2 POP POP SWAP3 SWAP2 POP POP JUMP JUMPDEST PUSH32 0x20697320616C72656164792068617320616E206F70657261746F7220726F6C65 PUSH1 0x0 DUP3 ADD MSTORE POP JUMP JUMPDEST PUSH1 0x0 PUSH3 0x13F8 PUSH1 0x20 DUP4 PUSH3 0x12F8 JUMP JUMPDEST SWAP2 POP PUSH3 0x1405 DUP3 PUSH3 0x13C0 JUMP JUMPDEST PUSH1 0x20 DUP3 ADD SWAP1 POP SWAP2 SWAP1 POP JUMP JUMPDEST PUSH1 0x0 PUSH3 0x141D DUP3 PUSH3 0x132C JUMP JUMPDEST SWAP2 POP PUSH3 0x142B DUP3 DUP5 PUSH3 0x1389 JUMP JUMPDEST SWAP2 POP PUSH3 0x1438 DUP3 PUSH3 0x13E9 JUMP JUMPDEST SWAP2 POP DUP2 SWAP1 POP SWAP3 SWAP2 POP POP JUMP JUMPDEST PUSH1 0x0 DUP3 DUP3 MSTORE PUSH1 0x20 DUP3 ADD SWAP1 POP SWAP3 SWAP2 POP POP JUMP JUMPDEST PUSH1 0x0 PUSH1 0x1F NOT PUSH1 0x1F DUP4 ADD AND SWAP1 POP SWAP2 SWAP1 POP JUMP JUMPDEST PUSH1 0x0 PUSH3 0x1472 DUP3 PUSH3 0xF97 JUMP JUMPDEST PUSH3 0x147E DUP2 DUP6 PUSH3 0x1443 JUMP JUMPDEST SWAP4 POP PUSH3 0x1490 DUP2 DUP6 PUSH1 0x20 DUP7 ADD PUSH3 0x1353 JUMP JUMPDEST PUSH3 0x149B DUP2 PUSH3 0x1454 JUMP JUMPDEST DUP5 ADD SWAP2 POP POP SWAP3 SWAP2 POP POP JUMP JUMPDEST PUSH1 0x0 PUSH1 0x20 DUP3 ADD SWAP1 POP DUP2 DUP2 SUB PUSH1 0x0 DUP4 ADD MSTORE PUSH3 0x14C2 DUP2 DUP5 PUSH3 0x1465 JUMP JUMPDEST SWAP1 POP SWAP3 SWAP2 POP POP JUMP JUMPDEST PUSH32 0x53425420616C7265616479206578697374730000000000000000000000000000 PUSH1 0x0 DUP3 ADD MSTORE POP JUMP JUMPDEST PUSH1 0x0 PUSH3 0x1502 PUSH1 0x12 DUP4 PUSH3 0x1443 JUMP JUMPDEST SWAP2 POP PUSH3 0x150F DUP3 PUSH3 0x14CA JUMP JUMPDEST PUSH1 0x20 DUP3 ADD SWAP1 POP SWAP2 SWAP1 POP JUMP JUMPDEST PUSH1 0x0 PUSH1 0x20 DUP3 ADD SWAP1 POP DUP2 DUP2 SUB PUSH1 0x0 DUP4 ADD MSTORE PUSH3 0x1535 DUP2 PUSH3 0x14F3 JUMP JUMPDEST SWAP1 POP SWAP2 SWAP1 POP JUMP JUMPDEST PUSH32 0x4E487B7100000000000000000000000000000000000000000000000000000000 PUSH1 0x0 MSTORE PUSH1 0x11 PUSH1 0x4 MSTORE PUSH1 0x24 PUSH1 0x0 REVERT JUMPDEST PUSH1 0x0 PUSH3 0x1578 DUP3 PUSH3 0x10BD JUMP JUMPDEST SWAP2 POP PUSH3 0x1585 DUP4 PUSH3 0x10BD JUMP JUMPDEST SWAP3 POP DUP2 PUSH32 0xFFFFFFFFFFFFFFFFFFFFFFFFFFFFFFFFFFFFFFFFFFFFFFFFFFFFFFFFFFFFFFFF DIV DUP4 GT DUP3 ISZERO ISZERO AND ISZERO PUSH3 0x15C1 JUMPI PUSH3 0x15C0 PUSH3 0x153C JUMP JUMPDEST JUMPDEST DUP3 DUP3 MUL SWAP1 POP SWAP3 SWAP2 POP POP JUMP JUMPDEST PUSH1 0x0 PUSH3 0x15D9 DUP3 PUSH3 0x10BD JUMP JUMPDEST SWAP2 POP PUSH3 0x15E6 DUP4 PUSH3 0x10BD JUMP JUMPDEST SWAP3 POP DUP3 PUSH32 0xFFFFFFFFFFFFFFFFFFFFFFFFFFFFFFFFFFFFFFFFFFFFFFFFFFFFFFFFFFFFFFFF SUB DUP3 GT ISZERO PUSH3 0x161E JUMPI PUSH3 0x161D PUSH3 0x153C JUMP JUMPDEST JUMPDEST DUP3 DUP3 ADD SWAP1 POP SWAP3 SWAP2 POP POP JUMP JUMPDEST PUSH32 0x4E487B7100000000000000000000000000000000000000000000000000000000 PUSH1 0x0 MSTORE PUSH1 0x32 PUSH1 0x4 MSTORE PUSH1 0x24 PUSH1 0x0 REVERT JUMPDEST PUSH1 0x0 PUSH3 0x1665 DUP3 PUSH3 0x10BD JUMP JUMPDEST SWAP2 POP PUSH1 0x0 DUP3 SUB PUSH3 0x167B JUMPI PUSH3 0x167A PUSH3 0x153C JUMP JUMPDEST JUMPDEST PUSH1 0x1 DUP3 SUB SWAP1 POP SWAP2 SWAP1 POP JUMP JUMPDEST PUSH32 0x537472696E67733A20686578206C656E67746820696E73756666696369656E74 PUSH1 0x0 DUP3 ADD MSTORE POP JUMP JUMPDEST PUSH1 0x0 PUSH3 0x16BE PUSH1 0x20 DUP4 PUSH3 0x1443 JUMP JUMPDEST SWAP2 POP PUSH3 0x16CB DUP3 PUSH3 0x1686 JUMP JUMPDEST PUSH1 0x20 DUP3 ADD SWAP1 POP SWAP2 SWAP1 POP JUMP JUMPDEST PUSH1 0x0 PUSH1 0x20 DUP3 ADD SWAP1 POP DUP2 DUP2 SUB PUSH1 0x0 DUP4 ADD MSTORE PUSH3 0x16F1 DUP2 PUSH3 0x16AF JUMP JUMPDEST SWAP1 POP SWAP2 SWAP1 POP JUMP JUMPDEST PUSH32 0x206973206E6F7420616E206F70657261746F7200000000000000000000000000 PUSH1 0x0 DUP3 ADD MSTORE POP JUMP JUMPDEST PUSH1 0x0 PUSH3 0x1730 PUSH1 0x13 DUP4 PUSH3 0x12F8 JUMP JUMPDEST SWAP2 POP PUSH3 0x173D DUP3 PUSH3 0x16F8 JUMP JUMPDEST PUSH1 0x13 DUP3 ADD SWAP1 POP SWAP2 SWAP1 POP JUMP JUMPDEST PUSH1 0x0 PUSH3 0x1755 DUP3 PUSH3 0x132C JUMP JUMPDEST SWAP2 POP PUSH3 0x1763 DUP3 DUP5 PUSH3 0x1389 JUMP JUMPDEST SWAP2 POP PUSH3 0x1770 DUP3 PUSH3 0x1721 JUMP JUMPDEST SWAP2 POP DUP2 SWAP1 POP SWAP3 SWAP2 POP POP JUMP JUMPDEST PUSH1 0x0 DUP2 SLOAD PUSH3 0x178A DUP2 PUSH3 0x1000 JUMP JUMPDEST PUSH3 0x1796 DUP2 DUP7 PUSH3 0x12F8 JUMP JUMPDEST SWAP5 POP PUSH1 0x1 DUP3 AND PUSH1 0x0 DUP2 EQ PUSH3 0x17B4 JUMPI PUSH1 0x1 DUP2 EQ PUSH3 0x17CA JUMPI PUSH3 0x1801 JUMP JUMPDEST PUSH1 0xFF NOT DUP4 AND DUP7 MSTORE DUP2 ISZERO ISZERO DUP3 MUL DUP7 ADD SWAP4 POP PUSH3 0x1801 JUMP JUMPDEST PUSH3 0x17D5 DUP6 PUSH3 0x1035 JUMP JUMPDEST PUSH1 0x0 JUMPDEST DUP4 DUP2 LT ISZERO PUSH3 0x17F9 JUMPI DUP2 SLOAD DUP2 DUP10 ADD MSTORE PUSH1 0x1 DUP3 ADD SWAP2 POP PUSH1 0x20 DUP2 ADD SWAP1 POP PUSH3 0x17D8 JUMP JUMPDEST DUP4 DUP9 ADD SWAP6 POP POP POP JUMPDEST POP POP POP SWAP3 SWAP2 POP POP JUMP JUMPDEST PUSH1 0x0 PUSH3 0x1818 DUP3 DUP6 PUSH3 0x177B JUMP JUMPDEST SWAP2 POP PUSH3 0x1826 DUP3 DUP5 PUSH3 0x1389 JUMP JUMPDEST SWAP2 POP DUP2 SWAP1 POP SWAP4 SWAP3 POP POP POP JUMP JUMPDEST PUSH32 0x455243313135353A206D696E7420746F20746865207A65726F20616464726573 PUSH1 0x0 DUP3 ADD MSTORE PUSH32 0x7300000000000000000000000000000000000000000000000000000000000000 PUSH1 0x20 DUP3 ADD MSTORE POP JUMP JUMPDEST PUSH1 0x0 PUSH3 0x1890 PUSH1 0x21 DUP4 PUSH3 0x1443 JUMP JUMPDEST SWAP2 POP PUSH3 0x189D DUP3 PUSH3 0x1832 JUMP JUMPDEST PUSH1 0x40 DUP3 ADD SWAP1 POP SWAP2 SWAP1 POP JUMP JUMPDEST PUSH1 0x0 PUSH1 0x20 DUP3 ADD SWAP1 POP DUP2 DUP2 SUB PUSH1 0x0 DUP4 ADD MSTORE PUSH3 0x18C3 DUP2 PUSH3 0x1881 JUMP JUMPDEST SWAP1 POP SWAP2 SWAP1 POP JUMP JUMPDEST PUSH3 0x18D5 DUP2 PUSH3 0x10BD JUMP JUMPDEST DUP3 MSTORE POP POP JUMP JUMPDEST PUSH1 0x0 PUSH1 0x40 DUP3 ADD SWAP1 POP PUSH3 0x18F2 PUSH1 0x0 DUP4 ADD DUP6 PUSH3 0x18CA JUMP JUMPDEST PUSH3 0x1901 PUSH1 0x20 DUP4 ADD DUP5 PUSH3 0x18CA JUMP JUMPDEST SWAP4 SWAP3 POP POP POP JUMP JUMPDEST PUSH32 0x53656E64204E4654206E6F7420616C6C6F776564000000000000000000000000 PUSH1 0x0 DUP3 ADD MSTORE POP JUMP JUMPDEST PUSH1 0x0 PUSH3 0x1940 PUSH1 0x14 DUP4 PUSH3 0x1443 JUMP JUMPDEST SWAP2 POP PUSH3 0x194D DUP3 PUSH3 0x1908 JUMP JUMPDEST PUSH1 0x20 DUP3 ADD SWAP1 POP SWAP2 SWAP1 POP JUMP JUMPDEST PUSH1 0x0 PUSH1 0x20 DUP3 ADD SWAP1 POP DUP2 DUP2 SUB PUSH1 0x0 DUP4 ADD MSTORE PUSH3 0x1973 DUP2 PUSH3 0x1931 JUMP JUMPDEST SWAP1 POP SWAP2 SWAP1 POP JUMP JUMPDEST PUSH1 0x0 PUSH20 0xFFFFFFFFFFFFFFFFFFFFFFFFFFFFFFFFFFFFFFFF DUP3 AND SWAP1 POP SWAP2 SWAP1 POP JUMP JUMPDEST PUSH1 0x0 PUSH3 0x19A7 DUP3 PUSH3 0x197A JUMP JUMPDEST SWAP1 POP SWAP2 SWAP1 POP JUMP JUMPDEST PUSH3 0x19B9 DUP2 PUSH3 0x199A JUMP JUMPDEST DUP3 MSTORE POP POP JUMP JUMPDEST PUSH1 0x0 DUP2 MLOAD SWAP1 POP SWAP2 SWAP1 POP JUMP JUMPDEST PUSH1 0x0 DUP3 DUP3 MSTORE PUSH1 0x20 DUP3 ADD SWAP1 POP SWAP3 SWAP2 POP POP JUMP JUMPDEST PUSH1 0x0 PUSH3 0x19E8 DUP3 PUSH3 0x19BF JUMP JUMPDEST PUSH3 0x19F4 DUP2 DUP6 PUSH3 0x19CA JUMP JUMPDEST SWAP4 POP PUSH3 0x1A06 DUP2 DUP6 PUSH1 0x20 DUP7 ADD PUSH3 0x1353 JUMP JUMPDEST PUSH3 0x1A11 DUP2 PUSH3 0x1454 JUMP JUMPDEST DUP5 ADD SWAP2 POP POP SWAP3 SWAP2 POP POP JUMP JUMPDEST PUSH1 0x0 PUSH1 0xA0 DUP3 ADD SWAP1 POP PUSH3 0x1A33 PUSH1 0x0 DUP4 ADD DUP9 PUSH3 0x19AE JUMP JUMPDEST PUSH3 0x1A42 PUSH1 0x20 DUP4 ADD DUP8 PUSH3 0x19AE JUMP JUMPDEST PUSH3 0x1A51 PUSH1 0x40 DUP4 ADD DUP7 PUSH3 0x18CA JUMP JUMPDEST PUSH3 0x1A60 PUSH1 0x60 DUP4 ADD DUP6 PUSH3 0x18CA JUMP JUMPDEST DUP2 DUP2 SUB PUSH1 0x80 DUP4 ADD MSTORE PUSH3 0x1A74 DUP2 DUP5 PUSH3 0x19DB JUMP JUMPDEST SWAP1 POP SWAP7 SWAP6 POP POP POP POP POP POP JUMP JUMPDEST PUSH1 0x0 PUSH1 0x40 MLOAD SWAP1 POP SWAP1 JUMP JUMPDEST PUSH1 0x0 DUP1 REVERT JUMPDEST PUSH1 0x0 PUSH32 0xFFFFFFFF00000000000000000000000000000000000000000000000000000000 DUP3 AND SWAP1 POP SWAP2 SWAP1 POP JUMP JUMPDEST PUSH3 0x1AC6 DUP2 PUSH3 0x1A8F JUMP JUMPDEST DUP2 EQ PUSH3 0x1AD2 JUMPI PUSH1 0x0 DUP1 REVERT JUMPDEST POP JUMP JUMPDEST PUSH1 0x0 DUP2 MLOAD SWAP1 POP PUSH3 0x1AE6 DUP2 PUSH3 0x1ABB JUMP JUMPDEST SWAP3 SWAP2 POP POP JUMP JUMPDEST PUSH1 0x0 PUSH1 0x20 DUP3 DUP5 SUB SLT ISZERO PUSH3 0x1B05 JUMPI PUSH3 0x1B04 PUSH3 0x1A8A JUMP JUMPDEST JUMPDEST PUSH1 0x0 PUSH3 0x1B15 DUP5 DUP3 DUP6 ADD PUSH3 0x1AD5 JUMP JUMPDEST SWAP2 POP POP SWAP3 SWAP2 POP POP JUMP JUMPDEST PUSH1 0x0 DUP2 PUSH1 0xE0 SHR SWAP1 POP SWAP2 SWAP1 POP JUMP JUMPDEST PUSH1 0x0 PUSH1 0x3 RETURNDATASIZE GT ISZERO PUSH3 0x1B4D JUMPI PUSH1 0x4 PUSH1 0x0 DUP1 RETURNDATACOPY PUSH3 0x1B4A PUSH1 0x0 MLOAD PUSH3 0x1B1E JUMP JUMPDEST SWAP1 POP JUMPDEST SWAP1 JUMP JUMPDEST PUSH3 0x1B5B DUP3 PUSH3 0x1454 JUMP JUMPDEST DUP2 ADD DUP2 DUP2 LT PUSH8 0xFFFFFFFFFFFFFFFF DUP3 GT OR ISZERO PUSH3 0x1B7D JUMPI PUSH3 0x1B7C PUSH3 0xFA2 JUMP JUMPDEST JUMPDEST DUP1 PUSH1 0x40 MSTORE POP POP POP JUMP JUMPDEST PUSH1 0x0 PUSH1 0x44 RETURNDATASIZE LT PUSH3 0x1C1E JUMPI PUSH3 0x1B9B PUSH3 0x1A80 JUMP JUMPDEST PUSH1 0x4 RETURNDATASIZE SUB PUSH1 0x4 DUP3 RETURNDATACOPY DUP1 MLOAD RETURNDATASIZE PUSH1 0x24 DUP3 ADD GT PUSH8 0xFFFFFFFFFFFFFFFF DUP3 GT OR ISZERO PUSH3 0x1BC5 JUMPI POP POP PUSH3 0x1C1E JUMP JUMPDEST DUP1 DUP3 ADD DUP1 MLOAD PUSH8 0xFFFFFFFFFFFFFFFF DUP2 GT ISZERO PUSH3 0x1BE5 JUMPI POP POP POP POP PUSH3 0x1C1E JUMP JUMPDEST DUP1 PUSH1 0x20 DUP4 ADD ADD PUSH1 0x4 RETURNDATASIZE SUB DUP6 ADD DUP2 GT ISZERO PUSH3 0x1C04 JUMPI POP POP POP POP POP PUSH3 0x1C1E JUMP JUMPDEST PUSH3 0x1C15 DUP3 PUSH1 0x20 ADD DUP6 ADD DUP7 PUSH3 0x1B50 JUMP JUMPDEST DUP3 SWAP6 POP POP POP POP POP POP JUMPDEST SWAP1 JUMP JUMPDEST PUSH32 0x455243313135353A207472616E7366657220746F206E6F6E2D45524331313535 PUSH1 0x0 DUP3 ADD MSTORE PUSH32 0x526563656976657220696D706C656D656E746572000000000000000000000000 PUSH1 0x20 DUP3 ADD MSTORE POP JUMP JUMPDEST PUSH1 0x0 PUSH3 0x1C7F PUSH1 0x34 DUP4 PUSH3 0x1443 JUMP JUMPDEST SWAP2 POP PUSH3 0x1C8C DUP3 PUSH3 0x1C21 JUMP JUMPDEST PUSH1 0x40 DUP3 ADD SWAP1 POP SWAP2 SWAP1 POP JUMP JUMPDEST PUSH1 0x0 PUSH1 0x20 DUP3 ADD SWAP1 POP DUP2 DUP2 SUB PUSH1 0x0 DUP4 ADD MSTORE PUSH3 0x1CB2 DUP2 PUSH3 0x1C70 JUMP JUMPDEST SWAP1 POP SWAP2 SWAP1 POP JUMP JUMPDEST PUSH32 0x455243313135353A204552433131353552656365697665722072656A65637465 PUSH1 0x0 DUP3 ADD MSTORE PUSH32 0x6420746F6B656E73000000000000000000000000000000000000000000000000 PUSH1 0x20 DUP3 ADD MSTORE POP JUMP JUMPDEST PUSH1 0x0 PUSH3 0x1D17 PUSH1 0x28 DUP4 PUSH3 0x1443 JUMP JUMPDEST SWAP2 POP PUSH3 0x1D24 DUP3 PUSH3 0x1CB9 JUMP JUMPDEST PUSH1 0x40 DUP3 ADD SWAP1 POP SWAP2 SWAP1 POP JUMP JUMPDEST PUSH1 0x0 PUSH1 0x20 DUP3 ADD SWAP1 POP DUP2 DUP2 SUB PUSH1 0x0 DUP4 ADD MSTORE PUSH3 0x1D4A DUP2 PUSH3 0x1D08 JUMP JUMPDEST SWAP1 POP SWAP2 SWAP1 POP JUMP JUMPDEST PUSH2 0x463D DUP1 PUSH3 0x1D61 PUSH1 0x0 CODECOPY PUSH1 0x0 RETURN INVALID PUSH1 0x80 PUSH1 0x40 MSTORE CALLVALUE DUP1 ISZERO PUSH2 0x10 JUMPI PUSH1 0x0 DUP1 REVERT JUMPDEST POP PUSH1 0x4 CALLDATASIZE LT PUSH2 0x157 JUMPI PUSH1 0x0 CALLDATALOAD PUSH1 0xE0 SHR DUP1 PUSH4 0x715018A6 GT PUSH2 0xC3 JUMPI DUP1 PUSH4 0xA22CB465 GT PUSH2 0x7C JUMPI DUP1 PUSH4 0xA22CB465 EQ PUSH2 0x3AC JUMPI DUP1 PUSH4 0xB219F7D7 EQ PUSH2 0x3C8 JUMPI DUP1 PUSH4 0xCBF9FE5F EQ PUSH2 0x3E4 JUMPI DUP1 PUSH4 0xE985E9C5 EQ PUSH2 0x414 JUMPI DUP1 PUSH4 0xF242432A EQ PUSH2 0x444 JUMPI DUP1 PUSH4 0xF2FDE38B EQ PUSH2 0x460 JUMPI PUSH2 0x157 JUMP JUMPDEST DUP1 PUSH4 0x715018A6 EQ PUSH2 0x312 JUMPI DUP1 PUSH4 0x872A2803 EQ PUSH2 0x31C JUMPI DUP1 PUSH4 0x8DA5CB5B EQ PUSH2 0x338 JUMPI DUP1 PUSH4 0x910DA0E9 EQ PUSH2 0x356 JUMPI DUP1 PUSH4 0x9324B42A EQ PUSH2 0x372 JUMPI DUP1 PUSH4 0x95D89B41 EQ PUSH2 0x38E JUMPI PUSH2 0x157 JUMP JUMPDEST DUP1 PUSH4 0x27AC0C58 GT PUSH2 0x115 JUMPI DUP1 PUSH4 0x27AC0C58 EQ PUSH2 0x242 JUMPI DUP1 PUSH4 0x2EB2C2D6 EQ PUSH2 0x25E JUMPI DUP1 PUSH4 0x4E1273F4 EQ PUSH2 0x27A JUMPI DUP1 PUSH4 0x55F804B3 EQ PUSH2 0x2AA JUMPI DUP1 PUSH4 0x56F5D89D EQ PUSH2 0x2C6 JUMPI DUP1 PUSH4 0x6D70F7AE EQ PUSH2 0x2E2 JUMPI PUSH2 0x157 JUMP JUMPDEST DUP1 PUSH3 0xFDD58E EQ PUSH2 0x15C JUMPI DUP1 PUSH4 0x1FFC9A7 EQ PUSH2 0x18C JUMPI DUP1 PUSH4 0x6FDDE03 EQ PUSH2 0x1BC JUMPI DUP1 PUSH4 0xE89341C EQ PUSH2 0x1DA JUMPI DUP1 PUSH4 0x156E29F6 EQ PUSH2 0x20A JUMPI DUP1 PUSH4 0x162094C4 EQ PUSH2 0x226 JUMPI JUMPDEST PUSH1 0x0 DUP1 REVERT JUMPDEST PUSH2 0x176 PUSH1 0x4 DUP1 CALLDATASIZE SUB DUP2 ADD SWAP1 PUSH2 0x171 SWAP2 SWAP1 PUSH2 0x2847 JUMP JUMPDEST PUSH2 0x47C JUMP JUMPDEST PUSH1 0x40 MLOAD PUSH2 0x183 SWAP2 SWAP1 PUSH2 0x2896 JUMP JUMPDEST PUSH1 0x40 MLOAD DUP1 SWAP2 SUB SWAP1 RETURN JUMPDEST PUSH2 0x1A6 PUSH1 0x4 DUP1 CALLDATASIZE SUB DUP2 ADD SWAP1 PUSH2 0x1A1 SWAP2 SWAP1 PUSH2 0x2909 JUMP JUMPDEST PUSH2 0x544 JUMP JUMPDEST PUSH1 0x40 MLOAD PUSH2 0x1B3 SWAP2 SWAP1 PUSH2 0x2951 JUMP JUMPDEST PUSH1 0x40 MLOAD DUP1 SWAP2 SUB SWAP1 RETURN JUMPDEST PUSH2 0x1C4 PUSH2 0x626 JUMP JUMPDEST PUSH1 0x40 MLOAD PUSH2 0x1D1 SWAP2 SWAP1 PUSH2 0x2A05 JUMP JUMPDEST PUSH1 0x40 MLOAD DUP1 SWAP2 SUB SWAP1 RETURN JUMPDEST PUSH2 0x1F4 PUSH1 0x4 DUP1 CALLDATASIZE SUB DUP2 ADD SWAP1 PUSH2 0x1EF SWAP2 SWAP1 PUSH2 0x2A27 JUMP JUMPDEST PUSH2 0x6B4 JUMP JUMPDEST PUSH1 0x40 MLOAD PUSH2 0x201 SWAP2 SWAP1 PUSH2 0x2A05 JUMP JUMPDEST PUSH1 0x40 MLOAD DUP1 SWAP2 SUB SWAP1 RETURN JUMPDEST PUSH2 0x224 PUSH1 0x4 DUP1 CALLDATASIZE SUB DUP2 ADD SWAP1 PUSH2 0x21F SWAP2 SWAP1 PUSH2 0x2A54 JUMP JUMPDEST PUSH2 0x799 JUMP JUMPDEST STOP JUMPDEST PUSH2 0x240 PUSH1 0x4 DUP1 CALLDATASIZE SUB DUP2 ADD SWAP1 PUSH2 0x23B SWAP2 SWAP1 PUSH2 0x2BDC JUMP JUMPDEST PUSH2 0x815 JUMP JUMPDEST STOP JUMPDEST PUSH2 0x25C PUSH1 0x4 DUP1 CALLDATASIZE SUB DUP2 ADD SWAP1 PUSH2 0x257 SWAP2 SWAP1 PUSH2 0x2C38 JUMP JUMPDEST PUSH2 0x833 JUMP JUMPDEST STOP JUMPDEST PUSH2 0x278 PUSH1 0x4 DUP1 CALLDATASIZE SUB DUP2 ADD SWAP1 PUSH2 0x273 SWAP2 SWAP1 PUSH2 0x2DCE JUMP JUMPDEST PUSH2 0x847 JUMP JUMPDEST STOP JUMPDEST PUSH2 0x294 PUSH1 0x4 DUP1 CALLDATASIZE SUB DUP2 ADD SWAP1 PUSH2 0x28F SWAP2 SWAP1 PUSH2 0x2F60 JUMP JUMPDEST PUSH2 0x8E8 JUMP JUMPDEST PUSH1 0x40 MLOAD PUSH2 0x2A1 SWAP2 SWAP1 PUSH2 0x3096 JUMP JUMPDEST PUSH1 0x40 MLOAD DUP1 SWAP2 SUB SWAP1 RETURN JUMPDEST PUSH2 0x2C4 PUSH1 0x4 DUP1 CALLDATASIZE SUB DUP2 ADD SWAP1 PUSH2 0x2BF SWAP2 SWAP1 PUSH2 0x30B8 JUMP JUMPDEST PUSH2 0xA01 JUMP JUMPDEST STOP JUMPDEST PUSH2 0x2E0 PUSH1 0x4 DUP1 CALLDATASIZE SUB DUP2 ADD SWAP1 PUSH2 0x2DB SWAP2 SWAP1 PUSH2 0x312D JUMP JUMPDEST PUSH2 0xA1D JUMP JUMPDEST STOP JUMPDEST PUSH2 0x2FC PUSH1 0x4 DUP1 CALLDATASIZE SUB DUP2 ADD SWAP1 PUSH2 0x2F7 SWAP2 SWAP1 PUSH2 0x2C38 JUMP JUMPDEST PUSH2 0xA88 JUMP JUMPDEST PUSH1 0x40 MLOAD PUSH2 0x309 SWAP2 SWAP1 PUSH2 0x2951 JUMP JUMPDEST PUSH1 0x40 MLOAD DUP1 SWAP2 SUB SWAP1 RETURN JUMPDEST PUSH2 0x31A PUSH2 0xADE JUMP JUMPDEST STOP JUMPDEST PUSH2 0x336 PUSH1 0x4 DUP1 CALLDATASIZE SUB DUP2 ADD SWAP1 PUSH2 0x331 SWAP2 SWAP1 PUSH2 0x316D JUMP JUMPDEST PUSH2 0xAF2 JUMP JUMPDEST STOP JUMPDEST PUSH2 0x340 PUSH2 0xB76 JUMP JUMPDEST PUSH1 0x40 MLOAD PUSH2 0x34D SWAP2 SWAP1 PUSH2 0x3207 JUMP JUMPDEST PUSH1 0x40 MLOAD DUP1 SWAP2 SUB SWAP1 RETURN JUMPDEST PUSH2 0x370 PUSH1 0x4 DUP1 CALLDATASIZE SUB DUP2 ADD SWAP1 PUSH2 0x36B SWAP2 SWAP1 PUSH2 0x2BDC JUMP JUMPDEST PUSH2 0xBA0 JUMP JUMPDEST STOP JUMPDEST PUSH2 0x38C PUSH1 0x4 DUP1 CALLDATASIZE SUB DUP2 ADD SWAP1 PUSH2 0x387 SWAP2 SWAP1 PUSH2 0x2A54 JUMP JUMPDEST PUSH2 0xC26 JUMP JUMPDEST STOP JUMPDEST PUSH2 0x396 PUSH2 0xC46 JUMP JUMPDEST PUSH1 0x40 MLOAD PUSH2 0x3A3 SWAP2 SWAP1 PUSH2 0x2A05 JUMP JUMPDEST PUSH1 0x40 MLOAD DUP1 SWAP2 SUB SWAP1 RETURN JUMPDEST PUSH2 0x3C6 PUSH1 0x4 DUP1 CALLDATASIZE SUB DUP2 ADD SWAP1 PUSH2 0x3C1 SWAP2 SWAP1 PUSH2 0x312D JUMP JUMPDEST PUSH2 0xCD4 JUMP JUMPDEST STOP JUMPDEST PUSH2 0x3E2 PUSH1 0x4 DUP1 CALLDATASIZE SUB DUP2 ADD SWAP1 PUSH2 0x3DD SWAP2 SWAP1 PUSH2 0x2C38 JUMP JUMPDEST PUSH2 0xDBA JUMP JUMPDEST STOP JUMPDEST PUSH2 0x3FE PUSH1 0x4 DUP1 CALLDATASIZE SUB DUP2 ADD SWAP1 PUSH2 0x3F9 SWAP2 SWAP1 PUSH2 0x2C38 JUMP JUMPDEST PUSH2 0xDCE JUMP JUMPDEST PUSH1 0x40 MLOAD PUSH2 0x40B SWAP2 SWAP1 PUSH2 0x2951 JUMP JUMPDEST PUSH1 0x40 MLOAD DUP1 SWAP2 SUB SWAP1 RETURN JUMPDEST PUSH2 0x42E PUSH1 0x4 DUP1 CALLDATASIZE SUB DUP2 ADD SWAP1 PUSH2 0x429 SWAP2 SWAP1 PUSH2 0x3222 JUMP JUMPDEST PUSH2 0xE24 JUMP JUMPDEST PUSH1 0x40 MLOAD PUSH2 0x43B SWAP2 SWAP1 PUSH2 0x2951 JUMP JUMPDEST PUSH1 0x40 MLOAD DUP1 SWAP2 SUB SWAP1 RETURN JUMPDEST PUSH2 0x45E PUSH1 0x4 DUP1 CALLDATASIZE SUB DUP2 ADD SWAP1 PUSH2 0x459 SWAP2 SWAP1 PUSH2 0x3262 JUMP JUMPDEST PUSH2 0xEB8 JUMP JUMPDEST STOP JUMPDEST PUSH2 0x47A PUSH1 0x4 DUP1 CALLDATASIZE SUB DUP2 ADD SWAP1 PUSH2 0x475 SWAP2 SWAP1 PUSH2 0x2C38 JUMP JUMPDEST PUSH2 0xF59 JUMP JUMPDEST STOP JUMPDEST PUSH1 0x0 DUP1 PUSH20 0xFFFFFFFFFFFFFFFFFFFFFFFFFFFFFFFFFFFFFFFF AND DUP4 PUSH20 0xFFFFFFFFFFFFFFFFFFFFFFFFFFFFFFFFFFFFFFFF AND SUB PUSH2 0x4EC JUMPI PUSH1 0x40 MLOAD PUSH32 0x8C379A000000000000000000000000000000000000000000000000000000000 DUP2 MSTORE PUSH1 0x4 ADD PUSH2 0x4E3 SWAP1 PUSH2 0x336B JUMP JUMPDEST PUSH1 0x40 MLOAD DUP1 SWAP2 SUB SWAP1 REVERT JUMPDEST PUSH1 0x0 DUP1 DUP4 DUP2 MSTORE PUSH1 0x20 ADD SWAP1 DUP2 MSTORE PUSH1 0x20 ADD PUSH1 0x0 KECCAK256 PUSH1 0x0 DUP5 PUSH20 0xFFFFFFFFFFFFFFFFFFFFFFFFFFFFFFFFFFFFFFFF AND PUSH20 0xFFFFFFFFFFFFFFFFFFFFFFFFFFFFFFFFFFFFFFFF AND DUP2 MSTORE PUSH1 0x20 ADD SWAP1 DUP2 MSTORE PUSH1 0x20 ADD PUSH1 0x0 KECCAK256 SLOAD SWAP1 POP SWAP3 SWAP2 POP POP JUMP JUMPDEST PUSH1 0x0 PUSH32 0xD9B67A2600000000000000000000000000000000000000000000000000000000 PUSH28 0xFFFFFFFFFFFFFFFFFFFFFFFFFFFFFFFFFFFFFFFFFFFFFFFFFFFFFFFF NOT AND DUP3 PUSH28 0xFFFFFFFFFFFFFFFFFFFFFFFFFFFFFFFFFFFFFFFFFFFFFFFFFFFFFFFF NOT AND EQ DUP1 PUSH2 0x60F JUMPI POP PUSH32 0xE89341C00000000000000000000000000000000000000000000000000000000 PUSH28 0xFFFFFFFFFFFFFFFFFFFFFFFFFFFFFFFFFFFFFFFFFFFFFFFFFFFFFFFF NOT AND DUP3 PUSH28 0xFFFFFFFFFFFFFFFFFFFFFFFFFFFFFFFFFFFFFFFFFFFFFFFFFFFFFFFF NOT AND EQ JUMPDEST DUP1 PUSH2 0x61F JUMPI POP PUSH2 0x61E DUP3 PUSH2 0x12D7 JUMP JUMPDEST JUMPDEST SWAP1 POP SWAP2 SWAP1 POP JUMP JUMPDEST PUSH1 0x7 DUP1 SLOAD PUSH2 0x633 SWAP1 PUSH2 0x33BA JUMP JUMPDEST DUP1 PUSH1 0x1F ADD PUSH1 0x20 DUP1 SWAP2 DIV MUL PUSH1 0x20 ADD PUSH1 0x40 MLOAD SWAP1 DUP2 ADD PUSH1 0x40 MSTORE DUP1 SWAP3 SWAP2 SWAP1 DUP2 DUP2 MSTORE PUSH1 0x20 ADD DUP3 DUP1 SLOAD PUSH2 0x65F SWAP1 PUSH2 0x33BA JUMP JUMPDEST DUP1 ISZERO PUSH2 0x6AC JUMPI DUP1 PUSH1 0x1F LT PUSH2 0x681 JUMPI PUSH2 0x100 DUP1 DUP4 SLOAD DIV MUL DUP4 MSTORE SWAP2 PUSH1 0x20 ADD SWAP2 PUSH2 0x6AC JUMP JUMPDEST DUP3 ADD SWAP2 SWAP1 PUSH1 0x0 MSTORE PUSH1 0x20 PUSH1 0x0 KECCAK256 SWAP1 JUMPDEST DUP2 SLOAD DUP2 MSTORE SWAP1 PUSH1 0x1 ADD SWAP1 PUSH1 0x20 ADD DUP1 DUP4 GT PUSH2 0x68F JUMPI DUP3 SWAP1 SUB PUSH1 0x1F AND DUP3 ADD SWAP2 JUMPDEST POP POP POP POP POP DUP2 JUMP JUMPDEST PUSH1 0x60 PUSH1 0x0 PUSH1 0x4 PUSH1 0x0 DUP5 DUP2 MSTORE PUSH1 0x20 ADD SWAP1 DUP2 MSTORE PUSH1 0x20 ADD PUSH1 0x0 KECCAK256 DUP1 SLOAD PUSH2 0x6D6 SWAP1 PUSH2 0x33BA JUMP JUMPDEST DUP1 PUSH1 0x1F ADD PUSH1 0x20 DUP1 SWAP2 DIV MUL PUSH1 0x20 ADD PUSH1 0x40 MLOAD SWAP1 DUP2 ADD PUSH1 0x40 MSTORE DUP1 SWAP3 SWAP2 SWAP1 DUP2 DUP2 MSTORE PUSH1 0x20 ADD DUP3 DUP1 SLOAD PUSH2 0x702 SWAP1 PUSH2 0x33BA JUMP JUMPDEST DUP1 ISZERO PUSH2 0x74F JUMPI DUP1 PUSH1 0x1F LT PUSH2 0x724 JUMPI PUSH2 0x100 DUP1 DUP4 SLOAD DIV MUL DUP4 MSTORE SWAP2 PUSH1 0x20 ADD SWAP2 PUSH2 0x74F JUMP JUMPDEST DUP3 ADD SWAP2 SWAP1 PUSH1 0x0 MSTORE PUSH1 0x20 PUSH1 0x0 KECCAK256 SWAP1 JUMPDEST DUP2 SLOAD DUP2 MSTORE SWAP1 PUSH1 0x1 ADD SWAP1 PUSH1 0x20 ADD DUP1 DUP4 GT PUSH2 0x732 JUMPI DUP3 SWAP1 SUB PUSH1 0x1F AND DUP3 ADD SWAP2 JUMPDEST POP POP POP POP POP SWAP1 POP PUSH1 0x0 DUP2 MLOAD GT PUSH2 0x76D JUMPI PUSH2 0x768 DUP4 PUSH2 0x1218 JUMP JUMPDEST PUSH2 0x791 JUMP JUMPDEST PUSH1 0x3 DUP2 PUSH1 0x40 MLOAD PUSH1 0x20 ADD PUSH2 0x781 SWAP3 SWAP2 SWAP1 PUSH2 0x34BF JUMP JUMPDEST PUSH1 0x40 MLOAD PUSH1 0x20 DUP2 DUP4 SUB SUB DUP2 MSTORE SWAP1 PUSH1 0x40 MSTORE JUMPDEST SWAP2 POP POP SWAP2 SWAP1 POP JUMP JUMPDEST PUSH2 0x7A9 PUSH2 0x7A4 PUSH2 0x1341 JUMP JUMPDEST PUSH2 0x1349 JUMP JUMPDEST PUSH1 0x0 PUSH2 0x7B4 DUP4 PUSH2 0x6B4 JUMP JUMPDEST MLOAD SUB PUSH2 0x7F5 JUMPI PUSH1 0x40 MLOAD PUSH32 0x8C379A000000000000000000000000000000000000000000000000000000000 DUP2 MSTORE PUSH1 0x4 ADD PUSH2 0x7EC SWAP1 PUSH2 0x352F JUMP JUMPDEST PUSH1 0x40 MLOAD DUP1 SWAP2 SUB SWAP1 REVERT JUMPDEST PUSH2 0x810 DUP4 DUP4 DUP4 PUSH1 0x40 MLOAD DUP1 PUSH1 0x20 ADD PUSH1 0x40 MSTORE DUP1 PUSH1 0x0 DUP2 MSTORE POP PUSH2 0x1422 JUMP JUMPDEST POP POP POP JUMP JUMPDEST PUSH2 0x825 PUSH2 0x820 PUSH2 0x1341 JUMP JUMPDEST PUSH2 0x1349 JUMP JUMPDEST PUSH2 0x82F DUP3 DUP3 PUSH2 0x15D2 JUMP JUMPDEST POP POP JUMP JUMPDEST PUSH2 0x83B PUSH2 0x1637 JUMP JUMPDEST PUSH2 0x844 DUP2 PUSH2 0x16B5 JUMP JUMPDEST POP JUMP JUMPDEST PUSH2 0x84F PUSH2 0x1341 JUMP JUMPDEST PUSH20 0xFFFFFFFFFFFFFFFFFFFFFFFFFFFFFFFFFFFFFFFF AND DUP6 PUSH20 0xFFFFFFFFFFFFFFFFFFFFFFFFFFFFFFFFFFFFFFFF AND EQ DUP1 PUSH2 0x895 JUMPI POP PUSH2 0x894 DUP6 PUSH2 0x88F PUSH2 0x1341 JUMP JUMPDEST PUSH2 0xE24 JUMP JUMPDEST JUMPDEST PUSH2 0x8D4 JUMPI PUSH1 0x40 MLOAD PUSH32 0x8C379A000000000000000000000000000000000000000000000000000000000 DUP2 MSTORE PUSH1 0x4 ADD PUSH2 0x8CB SWAP1 PUSH2 0x35C1 JUMP JUMPDEST PUSH1 0x40 MLOAD DUP1 SWAP2 SUB SWAP1 REVERT JUMPDEST PUSH2 0x8E1 DUP6 DUP6 DUP6 DUP6 DUP6 PUSH2 0x17E7 JUMP JUMPDEST POP POP POP POP POP JUMP JUMPDEST PUSH1 0x60 DUP2 MLOAD DUP4 MLOAD EQ PUSH2 0x92E JUMPI PUSH1 0x40 MLOAD PUSH32 0x8C379A000000000000000000000000000000000000000000000000000000000 DUP2 MSTORE PUSH1 0x4 ADD PUSH2 0x925 SWAP1 PUSH2 0x3653 JUMP JUMPDEST PUSH1 0x40 MLOAD DUP1 SWAP2 SUB SWAP1 REVERT JUMPDEST PUSH1 0x0 DUP4 MLOAD PUSH8 0xFFFFFFFFFFFFFFFF DUP2 GT ISZERO PUSH2 0x94B JUMPI PUSH2 0x94A PUSH2 0x2AB1 JUMP JUMPDEST JUMPDEST PUSH1 0x40 MLOAD SWAP1 DUP1 DUP3 MSTORE DUP1 PUSH1 0x20 MUL PUSH1 0x20 ADD DUP3 ADD PUSH1 0x40 MSTORE DUP1 ISZERO PUSH2 0x979 JUMPI DUP2 PUSH1 0x20 ADD PUSH1 0x20 DUP3 MUL DUP1 CALLDATASIZE DUP4 CALLDATACOPY DUP1 DUP3 ADD SWAP2 POP POP SWAP1 POP JUMPDEST POP SWAP1 POP PUSH1 0x0 JUMPDEST DUP5 MLOAD DUP2 LT ISZERO PUSH2 0x9F6 JUMPI PUSH2 0x9C6 DUP6 DUP3 DUP2 MLOAD DUP2 LT PUSH2 0x99E JUMPI PUSH2 0x99D PUSH2 0x3673 JUMP JUMPDEST JUMPDEST PUSH1 0x20 MUL PUSH1 0x20 ADD ADD MLOAD DUP6 DUP4 DUP2 MLOAD DUP2 LT PUSH2 0x9B9 JUMPI PUSH2 0x9B8 PUSH2 0x3673 JUMP JUMPDEST JUMPDEST PUSH1 0x20 MUL PUSH1 0x20 ADD ADD MLOAD PUSH2 0x47C JUMP JUMPDEST DUP3 DUP3 DUP2 MLOAD DUP2 LT PUSH2 0x9D9 JUMPI PUSH2 0x9D8 PUSH2 0x3673 JUMP JUMPDEST JUMPDEST PUSH1 0x20 MUL PUSH1 0x20 ADD ADD DUP2 DUP2 MSTORE POP POP DUP1 PUSH2 0x9EF SWAP1 PUSH2 0x36D1 JUMP JUMPDEST SWAP1 POP PUSH2 0x97F JUMP JUMPDEST POP DUP1 SWAP2 POP POP SWAP3 SWAP2 POP POP JUMP JUMPDEST PUSH2 0xA11 PUSH2 0xA0C PUSH2 0x1341 JUMP JUMPDEST PUSH2 0x1349 JUMP JUMPDEST PUSH2 0xA1A DUP2 PUSH2 0x1B08 JUMP JUMPDEST POP JUMP JUMPDEST PUSH2 0xA2D PUSH2 0xA28 PUSH2 0x1341 JUMP JUMPDEST PUSH2 0x1349 JUMP JUMPDEST DUP1 PUSH1 0x9 PUSH1 0x0 DUP5 PUSH20 0xFFFFFFFFFFFFFFFFFFFFFFFFFFFFFFFFFFFFFFFF AND PUSH20 0xFFFFFFFFFFFFFFFFFFFFFFFFFFFFFFFFFFFFFFFF AND DUP2 MSTORE PUSH1 0x20 ADD SWAP1 DUP2 MSTORE PUSH1 0x20 ADD PUSH1 0x0 KECCAK256 PUSH1 0x0 PUSH2 0x100 EXP DUP2 SLOAD DUP2 PUSH1 0xFF MUL NOT AND SWAP1 DUP4 ISZERO ISZERO MUL OR SWAP1 SSTORE POP POP POP JUMP JUMPDEST PUSH1 0x0 PUSH1 0x6 PUSH1 0x0 DUP4 PUSH20 0xFFFFFFFFFFFFFFFFFFFFFFFFFFFFFFFFFFFFFFFF AND PUSH20 0xFFFFFFFFFFFFFFFFFFFFFFFFFFFFFFFFFFFFFFFF AND DUP2 MSTORE PUSH1 0x20 ADD SWAP1 DUP2 MSTORE PUSH1 0x20 ADD PUSH1 0x0 KECCAK256 PUSH1 0x0 SWAP1 SLOAD SWAP1 PUSH2 0x100 EXP SWAP1 DIV PUSH1 0xFF AND SWAP1 POP SWAP2 SWAP1 POP JUMP JUMPDEST PUSH2 0xAE6 PUSH2 0x1637 JUMP JUMPDEST PUSH2 0xAF0 PUSH1 0x0 PUSH2 0x1B1B JUMP JUMPDEST JUMP JUMPDEST PUSH2 0xB02 PUSH2 0xAFD PUSH2 0x1341 JUMP JUMPDEST PUSH2 0x1349 JUMP JUMPDEST PUSH1 0x0 JUMPDEST DUP4 MLOAD DUP2 LT ISZERO PUSH2 0xB70 JUMPI PUSH2 0xB5D DUP5 DUP3 DUP2 MLOAD DUP2 LT PUSH2 0xB24 JUMPI PUSH2 0xB23 PUSH2 0x3673 JUMP JUMPDEST JUMPDEST PUSH1 0x20 MUL PUSH1 0x20 ADD ADD MLOAD DUP5 DUP5 DUP5 DUP2 MLOAD DUP2 LT PUSH2 0xB40 JUMPI PUSH2 0xB3F PUSH2 0x3673 JUMP JUMPDEST JUMPDEST PUSH1 0x20 MUL PUSH1 0x20 ADD ADD MLOAD PUSH1 0x40 MLOAD DUP1 PUSH1 0x20 ADD PUSH1 0x40 MSTORE DUP1 PUSH1 0x0 DUP2 MSTORE POP PUSH2 0x1422 JUMP JUMPDEST DUP1 DUP1 PUSH2 0xB68 SWAP1 PUSH2 0x36D1 JUMP JUMPDEST SWAP2 POP POP PUSH2 0xB05 JUMP JUMPDEST POP POP POP POP JUMP JUMPDEST PUSH1 0x0 PUSH1 0x5 PUSH1 0x0 SWAP1 SLOAD SWAP1 PUSH2 0x100 EXP SWAP1 DIV PUSH20 0xFFFFFFFFFFFFFFFFFFFFFFFFFFFFFFFFFFFFFFFF AND SWAP1 POP SWAP1 JUMP JUMPDEST PUSH2 0xBB0 PUSH2 0xBAB PUSH2 0x1341 JUMP JUMPDEST PUSH2 0x1349 JUMP JUMPDEST PUSH1 0x0 PUSH2 0xBBB DUP4 PUSH2 0x6B4 JUMP JUMPDEST MLOAD EQ PUSH2 0xBFC JUMPI PUSH1 0x40 MLOAD PUSH32 0x8C379A000000000000000000000000000000000000000000000000000000000 DUP2 MSTORE PUSH1 0x4 ADD PUSH2 0xBF3 SWAP1 PUSH2 0x3765 JUMP JUMPDEST PUSH1 0x40 MLOAD DUP1 SWAP2 SUB SWAP1 REVERT JUMPDEST PUSH2 0xC18 CALLER DUP4 PUSH1 0x1 PUSH1 0x40 MLOAD DUP1 PUSH1 0x20 ADD PUSH1 0x40 MSTORE DUP1 PUSH1 0x0 DUP2 MSTORE POP PUSH2 0x1422 JUMP JUMPDEST PUSH2 0xC22 DUP3 DUP3 PUSH2 0x15D2 JUMP JUMPDEST POP POP JUMP JUMPDEST PUSH2 0xC36 PUSH2 0xC31 PUSH2 0x1341 JUMP JUMPDEST PUSH2 0x1349 JUMP JUMPDEST PUSH2 0xC41 DUP4 DUP4 DUP4 PUSH2 0x1BE1 JUMP JUMPDEST POP POP POP JUMP JUMPDEST PUSH1 0x8 DUP1 SLOAD PUSH2 0xC53 SWAP1 PUSH2 0x33BA JUMP JUMPDEST DUP1 PUSH1 0x1F ADD PUSH1 0x20 DUP1 SWAP2 DIV MUL PUSH1 0x20 ADD PUSH1 0x40 MLOAD SWAP1 DUP2 ADD PUSH1 0x40 MSTORE DUP1 SWAP3 SWAP2 SWAP1 DUP2 DUP2 MSTORE PUSH1 0x20 ADD DUP3 DUP1 SLOAD PUSH2 0xC7F SWAP1 PUSH2 0x33BA JUMP JUMPDEST DUP1 ISZERO PUSH2 0xCCC JUMPI DUP1 PUSH1 0x1F LT PUSH2 0xCA1 JUMPI PUSH2 0x100 DUP1 DUP4 SLOAD DIV MUL DUP4 MSTORE SWAP2 PUSH1 0x20 ADD SWAP2 PUSH2 0xCCC JUMP JUMPDEST DUP3 ADD SWAP2 SWAP1 PUSH1 0x0 MSTORE PUSH1 0x20 PUSH1 0x0 KECCAK256 SWAP1 JUMPDEST DUP2 SLOAD DUP2 MSTORE SWAP1 PUSH1 0x1 ADD SWAP1 PUSH1 0x20 ADD DUP1 DUP4 GT PUSH2 0xCAF JUMPI DUP3 SWAP1 SUB PUSH1 0x1F AND DUP3 ADD SWAP2 JUMPDEST POP POP POP POP POP DUP2 JUMP JUMPDEST PUSH2 0xCDC PUSH2 0xB76 JUMP JUMPDEST PUSH20 0xFFFFFFFFFFFFFFFFFFFFFFFFFFFFFFFFFFFFFFFF AND DUP3 PUSH20 0xFFFFFFFFFFFFFFFFFFFFFFFFFFFFFFFFFFFFFFFF AND EQ DUP1 PUSH2 0xD65 JUMPI POP PUSH1 0x1 ISZERO ISZERO PUSH1 0x9 PUSH1 0x0 DUP5 PUSH20 0xFFFFFFFFFFFFFFFFFFFFFFFFFFFFFFFFFFFFFFFF AND PUSH20 0xFFFFFFFFFFFFFFFFFFFFFFFFFFFFFFFFFFFFFFFF AND DUP2 MSTORE PUSH1 0x20 ADD SWAP1 DUP2 MSTORE PUSH1 0x20 ADD PUSH1 0x0 KECCAK256 PUSH1 0x0 SWAP1 SLOAD SWAP1 PUSH2 0x100 EXP SWAP1 DIV PUSH1 0xFF AND ISZERO ISZERO EQ JUMPDEST PUSH2 0xDA4 JUMPI PUSH1 0x40 MLOAD PUSH32 0x8C379A000000000000000000000000000000000000000000000000000000000 DUP2 MSTORE PUSH1 0x4 ADD PUSH2 0xD9B SWAP1 PUSH2 0x37F7 JUMP JUMPDEST PUSH1 0x40 MLOAD DUP1 SWAP2 SUB SWAP1 REVERT JUMPDEST PUSH2 0xDB6 PUSH2 0xDAF PUSH2 0x1341 JUMP JUMPDEST DUP4 DUP4 PUSH2 0x1E27 JUMP JUMPDEST POP POP JUMP JUMPDEST PUSH2 0xDC2 PUSH2 0x1637 JUMP JUMPDEST PUSH2 0xDCB DUP2 PUSH2 0x1F93 JUMP JUMPDEST POP JUMP JUMPDEST PUSH1 0x0 PUSH1 0x9 PUSH1 0x0 DUP4 PUSH20 0xFFFFFFFFFFFFFFFFFFFFFFFFFFFFFFFFFFFFFFFF AND PUSH20 0xFFFFFFFFFFFFFFFFFFFFFFFFFFFFFFFFFFFFFFFF AND DUP2 MSTORE PUSH1 0x20 ADD SWAP1 DUP2 MSTORE PUSH1 0x20 ADD PUSH1 0x0 KECCAK256 PUSH1 0x0 SWAP1 SLOAD SWAP1 PUSH2 0x100 EXP SWAP1 DIV PUSH1 0xFF AND SWAP1 POP SWAP2 SWAP1 POP JUMP JUMPDEST PUSH1 0x0 PUSH1 0x1 PUSH1 0x0 DUP5 PUSH20 0xFFFFFFFFFFFFFFFFFFFFFFFFFFFFFFFFFFFFFFFF AND PUSH20 0xFFFFFFFFFFFFFFFFFFFFFFFFFFFFFFFFFFFFFFFF AND DUP2 MSTORE PUSH1 0x20 ADD SWAP1 DUP2 MSTORE PUSH1 0x20 ADD PUSH1 0x0 KECCAK256 PUSH1 0x0 DUP4 PUSH20 0xFFFFFFFFFFFFFFFFFFFFFFFFFFFFFFFFFFFFFFFF AND PUSH20 0xFFFFFFFFFFFFFFFFFFFFFFFFFFFFFFFFFFFFFFFF AND DUP2 MSTORE PUSH1 0x20 ADD SWAP1 DUP2 MSTORE PUSH1 0x20 ADD PUSH1 0x0 KECCAK256 PUSH1 0x0 SWAP1 SLOAD SWAP1 PUSH2 0x100 EXP SWAP1 DIV PUSH1 0xFF AND SWAP1 POP SWAP3 SWAP2 POP POP JUMP JUMPDEST PUSH2 0xEC0 PUSH2 0x1341 JUMP JUMPDEST PUSH20 0xFFFFFFFFFFFFFFFFFFFFFFFFFFFFFFFFFFFFFFFF AND DUP6 PUSH20 0xFFFFFFFFFFFFFFFFFFFFFFFFFFFFFFFFFFFFFFFF AND EQ DUP1 PUSH2 0xF06 JUMPI POP PUSH2 0xF05 DUP6 PUSH2 0xF00 PUSH2 0x1341 JUMP JUMPDEST PUSH2 0xE24 JUMP JUMPDEST JUMPDEST PUSH2 0xF45 JUMPI PUSH1 0x40 MLOAD PUSH32 0x8C379A000000000000000000000000000000000000000000000000000000000 DUP2 MSTORE PUSH1 0x4 ADD PUSH2 0xF3C SWAP1 PUSH2 0x35C1 JUMP JUMPDEST PUSH1 0x40 MLOAD DUP1 SWAP2 SUB SWAP1 REVERT JUMPDEST PUSH2 0xF52 DUP6 DUP6 DUP6 DUP6 DUP6 PUSH2 0x1FEE JUMP JUMPDEST POP POP POP POP POP JUMP JUMPDEST PUSH2 0xF61 PUSH2 0x1637 JUMP JUMPDEST PUSH1 0x0 PUSH20 0xFFFFFFFFFFFFFFFFFFFFFFFFFFFFFFFFFFFFFFFF AND DUP2 PUSH20 0xFFFFFFFFFFFFFFFFFFFFFFFFFFFFFFFFFFFFFFFF AND SUB PUSH2 0xFD0 JUMPI PUSH1 0x40 MLOAD PUSH32 0x8C379A000000000000000000000000000000000000000000000000000000000 DUP2 MSTORE PUSH1 0x4 ADD PUSH2 0xFC7 SWAP1 PUSH2 0x3889 JUMP JUMPDEST PUSH1 0x40 MLOAD DUP1 SWAP2 SUB SWAP1 REVERT JUMPDEST PUSH2 0xFD9 DUP2 PUSH2 0x1B1B JUMP JUMPDEST POP JUMP JUMPDEST PUSH1 0x60 PUSH1 0x0 PUSH1 0x2 DUP4 PUSH1 0x2 PUSH2 0xFEF SWAP2 SWAP1 PUSH2 0x38A9 JUMP JUMPDEST PUSH2 0xFF9 SWAP2 SWAP1 PUSH2 0x3903 JUMP JUMPDEST PUSH8 0xFFFFFFFFFFFFFFFF DUP2 GT ISZERO PUSH2 0x1012 JUMPI PUSH2 0x1011 PUSH2 0x2AB1 JUMP JUMPDEST JUMPDEST PUSH1 0x40 MLOAD SWAP1 DUP1 DUP3 MSTORE DUP1 PUSH1 0x1F ADD PUSH1 0x1F NOT AND PUSH1 0x20 ADD DUP3 ADD PUSH1 0x40 MSTORE DUP1 ISZERO PUSH2 0x1044 JUMPI DUP2 PUSH1 0x20 ADD PUSH1 0x1 DUP3 MUL DUP1 CALLDATASIZE DUP4 CALLDATACOPY DUP1 DUP3 ADD SWAP2 POP POP SWAP1 POP JUMPDEST POP SWAP1 POP PUSH32 0x3000000000000000000000000000000000000000000000000000000000000000 DUP2 PUSH1 0x0 DUP2 MLOAD DUP2 LT PUSH2 0x107C JUMPI PUSH2 0x107B PUSH2 0x3673 JUMP JUMPDEST JUMPDEST PUSH1 0x20 ADD ADD SWAP1 PUSH31 0xFFFFFFFFFFFFFFFFFFFFFFFFFFFFFFFFFFFFFFFFFFFFFFFFFFFFFFFFFFFFFF NOT AND SWAP1 DUP2 PUSH1 0x0 BYTE SWAP1 MSTORE8 POP PUSH32 0x7800000000000000000000000000000000000000000000000000000000000000 DUP2 PUSH1 0x1 DUP2 MLOAD DUP2 LT PUSH2 0x10E0 JUMPI PUSH2 0x10DF PUSH2 0x3673 JUMP JUMPDEST JUMPDEST PUSH1 0x20 ADD ADD SWAP1 PUSH31 0xFFFFFFFFFFFFFFFFFFFFFFFFFFFFFFFFFFFFFFFFFFFFFFFFFFFFFFFFFFFFFF NOT AND SWAP1 DUP2 PUSH1 0x0 BYTE SWAP1 MSTORE8 POP PUSH1 0x0 PUSH1 0x1 DUP5 PUSH1 0x2 PUSH2 0x1120 SWAP2 SWAP1 PUSH2 0x38A9 JUMP JUMPDEST PUSH2 0x112A SWAP2 SWAP1 PUSH2 0x3903 JUMP JUMPDEST SWAP1 POP JUMPDEST PUSH1 0x1 DUP2 GT ISZERO PUSH2 0x11CA JUMPI PUSH32 0x3031323334353637383961626364656600000000000000000000000000000000 PUSH1 0xF DUP7 AND PUSH1 0x10 DUP2 LT PUSH2 0x116C JUMPI PUSH2 0x116B PUSH2 0x3673 JUMP JUMPDEST JUMPDEST BYTE PUSH1 0xF8 SHL DUP3 DUP3 DUP2 MLOAD DUP2 LT PUSH2 0x1183 JUMPI PUSH2 0x1182 PUSH2 0x3673 JUMP JUMPDEST JUMPDEST PUSH1 0x20 ADD ADD SWAP1 PUSH31 0xFFFFFFFFFFFFFFFFFFFFFFFFFFFFFFFFFFFFFFFFFFFFFFFFFFFFFFFFFFFFFF NOT AND SWAP1 DUP2 PUSH1 0x0 BYTE SWAP1 MSTORE8 POP PUSH1 0x4 DUP6 SWAP1 SHR SWAP5 POP DUP1 PUSH2 0x11C3 SWAP1 PUSH2 0x3959 JUMP JUMPDEST SWAP1 POP PUSH2 0x112D JUMP JUMPDEST POP PUSH1 0x0 DUP5 EQ PUSH2 0x120E JUMPI PUSH1 0x40 MLOAD PUSH32 0x8C379A000000000000000000000000000000000000000000000000000000000 DUP2 MSTORE PUSH1 0x4 ADD PUSH2 0x1205 SWAP1 PUSH2 0x39CE JUMP JUMPDEST PUSH1 0x40 MLOAD DUP1 SWAP2 SUB SWAP1 REVERT JUMPDEST DUP1 SWAP2 POP POP SWAP3 SWAP2 POP POP JUMP JUMPDEST PUSH1 0x60 PUSH1 0x2 DUP1 SLOAD PUSH2 0x1227 SWAP1 PUSH2 0x33BA JUMP JUMPDEST DUP1 PUSH1 0x1F ADD PUSH1 0x20 DUP1 SWAP2 DIV MUL PUSH1 0x20 ADD PUSH1 0x40 MLOAD SWAP1 DUP2 ADD PUSH1 0x40 MSTORE DUP1 SWAP3 SWAP2 SWAP1 DUP2 DUP2 MSTORE PUSH1 0x20 ADD DUP3 DUP1 SLOAD PUSH2 0x1253 SWAP1 PUSH2 0x33BA JUMP JUMPDEST DUP1 ISZERO PUSH2 0x12A0 JUMPI DUP1 PUSH1 0x1F LT PUSH2 0x1275 JUMPI PUSH2 0x100 DUP1 DUP4 SLOAD DIV MUL DUP4 MSTORE SWAP2 PUSH1 0x20 ADD SWAP2 PUSH2 0x12A0 JUMP JUMPDEST DUP3 ADD SWAP2 SWAP1 PUSH1 0x0 MSTORE PUSH1 0x20 PUSH1 0x0 KECCAK256 SWAP1 JUMPDEST DUP2 SLOAD DUP2 MSTORE SWAP1 PUSH1 0x1 ADD SWAP1 PUSH1 0x20 ADD DUP1 DUP4 GT PUSH2 0x1283 JUMPI DUP3 SWAP1 SUB PUSH1 0x1F AND DUP3 ADD SWAP2 JUMPDEST POP POP POP POP POP SWAP1 POP SWAP2 SWAP1 POP JUMP JUMPDEST POP POP POP POP POP POP JUMP JUMPDEST PUSH1 0x0 DUP1 DUP3 PUSH20 0xFFFFFFFFFFFFFFFFFFFFFFFFFFFFFFFFFFFFFFFF AND EXTCODESIZE GT SWAP1 POP SWAP2 SWAP1 POP JUMP JUMPDEST PUSH1 0x0 PUSH32 0x1FFC9A700000000000000000000000000000000000000000000000000000000 PUSH28 0xFFFFFFFFFFFFFFFFFFFFFFFFFFFFFFFFFFFFFFFFFFFFFFFFFFFFFFFF NOT AND DUP3 PUSH28 0xFFFFFFFFFFFFFFFFFFFFFFFFFFFFFFFFFFFFFFFFFFFFFFFFFFFFFFFF NOT AND EQ SWAP1 POP SWAP2 SWAP1 POP JUMP JUMPDEST PUSH1 0x0 CALLER SWAP1 POP SWAP1 JUMP JUMPDEST PUSH1 0x6 PUSH1 0x0 DUP3 PUSH20 0xFFFFFFFFFFFFFFFFFFFFFFFFFFFFFFFFFFFFFFFF AND PUSH20 0xFFFFFFFFFFFFFFFFFFFFFFFFFFFFFFFFFFFFFFFF AND DUP2 MSTORE PUSH1 0x20 ADD SWAP1 DUP2 MSTORE PUSH1 0x20 ADD PUSH1 0x0 KECCAK256 PUSH1 0x0 SWAP1 SLOAD SWAP1 PUSH2 0x100 EXP SWAP1 DIV PUSH1 0xFF AND PUSH2 0x13BE PUSH2 0x13A1 PUSH2 0x1341 JUMP JUMPDEST PUSH20 0xFFFFFFFFFFFFFFFFFFFFFFFFFFFFFFFFFFFFFFFF AND PUSH1 0x14 PUSH2 0xFDC JUMP JUMPDEST PUSH1 0x40 MLOAD PUSH1 0x20 ADD PUSH2 0x13CE SWAP2 SWAP1 PUSH2 0x3A86 JUMP JUMPDEST PUSH1 0x40 MLOAD PUSH1 0x20 DUP2 DUP4 SUB SUB DUP2 MSTORE SWAP1 PUSH1 0x40 MSTORE SWAP1 PUSH2 0x141E JUMPI PUSH1 0x40 MLOAD PUSH32 0x8C379A000000000000000000000000000000000000000000000000000000000 DUP2 MSTORE PUSH1 0x4 ADD PUSH2 0x1415 SWAP2 SWAP1 PUSH2 0x2A05 JUMP JUMPDEST PUSH1 0x40 MLOAD DUP1 SWAP2 SUB SWAP1 REVERT JUMPDEST POP POP JUMP JUMPDEST PUSH1 0x0 PUSH20 0xFFFFFFFFFFFFFFFFFFFFFFFFFFFFFFFFFFFFFFFF AND DUP5 PUSH20 0xFFFFFFFFFFFFFFFFFFFFFFFFFFFFFFFFFFFFFFFF AND SUB PUSH2 0x1491 JUMPI PUSH1 0x40 MLOAD PUSH32 0x8C379A000000000000000000000000000000000000000000000000000000000 DUP2 MSTORE PUSH1 0x4 ADD PUSH2 0x1488 SWAP1 PUSH2 0x3B25 JUMP JUMPDEST PUSH1 0x40 MLOAD DUP1 SWAP2 SUB SWAP1 REVERT JUMPDEST PUSH1 0x0 PUSH2 0x149B PUSH2 0x1341 JUMP JUMPDEST SWAP1 POP PUSH1 0x0 PUSH2 0x14A8 DUP6 PUSH2 0x2289 JUMP JUMPDEST SWAP1 POP PUSH1 0x0 PUSH2 0x14B5 DUP6 PUSH2 0x2289 JUMP JUMPDEST SWAP1 POP PUSH2 0x14C6 DUP4 PUSH1 0x0 DUP10 DUP6 DUP6 DUP10 PUSH2 0x2303 JUMP JUMPDEST DUP5 PUSH1 0x0 DUP1 DUP9 DUP2 MSTORE PUSH1 0x20 ADD SWAP1 DUP2 MSTORE PUSH1 0x20 ADD PUSH1 0x0 KECCAK256 PUSH1 0x0 DUP10 PUSH20 0xFFFFFFFFFFFFFFFFFFFFFFFFFFFFFFFFFFFFFFFF AND PUSH20 0xFFFFFFFFFFFFFFFFFFFFFFFFFFFFFFFFFFFFFFFF AND DUP2 MSTORE PUSH1 0x20 ADD SWAP1 DUP2 MSTORE PUSH1 0x20 ADD PUSH1 0x0 KECCAK256 PUSH1 0x0 DUP3 DUP3 SLOAD PUSH2 0x1525 SWAP2 SWAP1 PUSH2 0x3903 JUMP JUMPDEST SWAP3 POP POP DUP2 SWAP1 SSTORE POP DUP7 PUSH20 0xFFFFFFFFFFFFFFFFFFFFFFFFFFFFFFFFFFFFFFFF AND PUSH1 0x0 PUSH20 0xFFFFFFFFFFFFFFFFFFFFFFFFFFFFFFFFFFFFFFFF AND DUP5 PUSH20 0xFFFFFFFFFFFFFFFFFFFFFFFFFFFFFFFFFFFFFFFF AND PUSH32 0xC3D58168C5AE7397731D063D5BBF3D657854427343F4C083240F7AACAA2D0F62 DUP10 DUP10 PUSH1 0x40 MLOAD PUSH2 0x15A3 SWAP3 SWAP2 SWAP1 PUSH2 0x3B45 JUMP JUMPDEST PUSH1 0x40 MLOAD DUP1 SWAP2 SUB SWAP1 LOG4 PUSH2 0x15BA DUP4 PUSH1 0x0 DUP10 DUP6 DUP6 DUP10 PUSH2 0x23E9 JUMP JUMPDEST PUSH2 0x15C9 DUP4 PUSH1 0x0 DUP10 DUP10 DUP10 DUP10 PUSH2 0x23F1 JUMP JUMPDEST POP POP POP POP POP POP POP JUMP JUMPDEST DUP1 PUSH1 0x4 PUSH1 0x0 DUP5 DUP2 MSTORE PUSH1 0x20 ADD SWAP1 DUP2 MSTORE PUSH1 0x20 ADD PUSH1 0x0 KECCAK256 SWAP1 DUP2 PUSH2 0x15F2 SWAP2 SWAP1 PUSH2 0x3D05 JUMP JUMPDEST POP DUP2 PUSH32 0x6BB7FF708619BA0610CBA295A58592E0451DEE2622938C8755667688DAF3529B PUSH2 0x161E DUP5 PUSH2 0x6B4 JUMP JUMPDEST PUSH1 0x40 MLOAD PUSH2 0x162B SWAP2 SWAP1 PUSH2 0x2A05 JUMP JUMPDEST PUSH1 0x40 MLOAD DUP1 SWAP2 SUB SWAP1 LOG2 POP POP JUMP JUMPDEST PUSH2 0x163F PUSH2 0x1341 JUMP JUMPDEST PUSH20 0xFFFFFFFFFFFFFFFFFFFFFFFFFFFFFFFFFFFFFFFF AND PUSH2 0x165D PUSH2 0xB76 JUMP JUMPDEST PUSH20 0xFFFFFFFFFFFFFFFFFFFFFFFFFFFFFFFFFFFFFFFF AND EQ PUSH2 0x16B3 JUMPI PUSH1 0x40 MLOAD PUSH32 0x8C379A000000000000000000000000000000000000000000000000000000000 DUP2 MSTORE PUSH1 0x4 ADD PUSH2 0x16AA SWAP1 PUSH2 0x3E23 JUMP JUMPDEST PUSH1 0x40 MLOAD DUP1 SWAP2 SUB SWAP1 REVERT JUMPDEST JUMP JUMPDEST PUSH1 0x6 PUSH1 0x0 DUP3 PUSH20 0xFFFFFFFFFFFFFFFFFFFFFFFFFFFFFFFFFFFFFFFF AND PUSH20 0xFFFFFFFFFFFFFFFFFFFFFFFFFFFFFFFFFFFFFFFF AND DUP2 MSTORE PUSH1 0x20 ADD SWAP1 DUP2 MSTORE PUSH1 0x20 ADD PUSH1 0x0 KECCAK256 PUSH1 0x0 SWAP1 SLOAD SWAP1 PUSH2 0x100 EXP SWAP1 DIV PUSH1 0xFF AND ISZERO PUSH2 0x172B PUSH2 0x170E PUSH2 0x1341 JUMP JUMPDEST PUSH20 0xFFFFFFFFFFFFFFFFFFFFFFFFFFFFFFFFFFFFFFFF AND PUSH1 0x14 PUSH2 0xFDC JUMP JUMPDEST PUSH1 0x40 MLOAD PUSH1 0x20 ADD PUSH2 0x173B SWAP2 SWAP1 PUSH2 0x3E8F JUMP JUMPDEST PUSH1 0x40 MLOAD PUSH1 0x20 DUP2 DUP4 SUB SUB DUP2 MSTORE SWAP1 PUSH1 0x40 MSTORE SWAP1 PUSH2 0x178B JUMPI PUSH1 0x40 MLOAD PUSH32 0x8C379A000000000000000000000000000000000000000000000000000000000 DUP2 MSTORE PUSH1 0x4 ADD PUSH2 0x1782 SWAP2 SWAP1 PUSH2 0x2A05 JUMP JUMPDEST PUSH1 0x40 MLOAD DUP1 SWAP2 SUB SWAP1 REVERT JUMPDEST POP PUSH1 0x1 PUSH1 0x6 PUSH1 0x0 DUP4 PUSH20 0xFFFFFFFFFFFFFFFFFFFFFFFFFFFFFFFFFFFFFFFF AND PUSH20 0xFFFFFFFFFFFFFFFFFFFFFFFFFFFFFFFFFFFFFFFF AND DUP2 MSTORE PUSH1 0x20 ADD SWAP1 DUP2 MSTORE PUSH1 0x20 ADD PUSH1 0x0 KECCAK256 PUSH1 0x0 PUSH2 0x100 EXP DUP2 SLOAD DUP2 PUSH1 0xFF MUL NOT AND SWAP1 DUP4 ISZERO ISZERO MUL OR SWAP1 SSTORE POP POP JUMP JUMPDEST DUP2 MLOAD DUP4 MLOAD EQ PUSH2 0x182B JUMPI PUSH1 0x40 MLOAD PUSH32 0x8C379A000000000000000000000000000000000000000000000000000000000 DUP2 MSTORE PUSH1 0x4 ADD PUSH2 0x1822 SWAP1 PUSH2 0x3F2E JUMP JUMPDEST PUSH1 0x40 MLOAD DUP1 SWAP2 SUB SWAP1 REVERT JUMPDEST PUSH1 0x0 PUSH20 0xFFFFFFFFFFFFFFFFFFFFFFFFFFFFFFFFFFFFFFFF AND DUP5 PUSH20 0xFFFFFFFFFFFFFFFFFFFFFFFFFFFFFFFFFFFFFFFF AND SUB PUSH2 0x189A JUMPI PUSH1 0x40 MLOAD PUSH32 0x8C379A000000000000000000000000000000000000000000000000000000000 DUP2 MSTORE PUSH1 0x4 ADD PUSH2 0x1891 SWAP1 PUSH2 0x3FC0 JUMP JUMPDEST PUSH1 0x40 MLOAD DUP1 SWAP2 SUB SWAP1 REVERT JUMPDEST PUSH1 0x0 PUSH2 0x18A4 PUSH2 0x1341 JUMP JUMPDEST SWAP1 POP PUSH2 0x18B4 DUP2 DUP8 DUP8 DUP8 DUP8 DUP8 PUSH2 0x2303 JUMP JUMPDEST PUSH1 0x0 JUMPDEST DUP5 MLOAD DUP2 LT ISZERO PUSH2 0x1A65 JUMPI PUSH1 0x0 DUP6 DUP3 DUP2 MLOAD DUP2 LT PUSH2 0x18D5 JUMPI PUSH2 0x18D4 PUSH2 0x3673 JUMP JUMPDEST JUMPDEST PUSH1 0x20 MUL PUSH1 0x20 ADD ADD MLOAD SWAP1 POP PUSH1 0x0 DUP6 DUP4 DUP2 MLOAD DUP2 LT PUSH2 0x18F4 JUMPI PUSH2 0x18F3 PUSH2 0x3673 JUMP JUMPDEST JUMPDEST PUSH1 0x20 MUL PUSH1 0x20 ADD ADD MLOAD SWAP1 POP PUSH1 0x0 DUP1 PUSH1 0x0 DUP5 DUP2 MSTORE PUSH1 0x20 ADD SWAP1 DUP2 MSTORE PUSH1 0x20 ADD PUSH1 0x0 KECCAK256 PUSH1 0x0 DUP12 PUSH20 0xFFFFFFFFFFFFFFFFFFFFFFFFFFFFFFFFFFFFFFFF AND PUSH20 0xFFFFFFFFFFFFFFFFFFFFFFFFFFFFFFFFFFFFFFFF AND DUP2 MSTORE PUSH1 0x20 ADD SWAP1 DUP2 MSTORE PUSH1 0x20 ADD PUSH1 0x0 KECCAK256 SLOAD SWAP1 POP DUP2 DUP2 LT ISZERO PUSH2 0x1995 JUMPI PUSH1 0x40 MLOAD PUSH32 0x8C379A000000000000000000000000000000000000000000000000000000000 DUP2 MSTORE PUSH1 0x4 ADD PUSH2 0x198C SWAP1 PUSH2 0x4052 JUMP JUMPDEST PUSH1 0x40 MLOAD DUP1 SWAP2 SUB SWAP1 REVERT JUMPDEST DUP2 DUP2 SUB PUSH1 0x0 DUP1 DUP6 DUP2 MSTORE PUSH1 0x20 ADD SWAP1 DUP2 MSTORE PUSH1 0x20 ADD PUSH1 0x0 KECCAK256 PUSH1 0x0 DUP13 PUSH20 0xFFFFFFFFFFFFFFFFFFFFFFFFFFFFFFFFFFFFFFFF AND PUSH20 0xFFFFFFFFFFFFFFFFFFFFFFFFFFFFFFFFFFFFFFFF AND DUP2 MSTORE PUSH1 0x20 ADD SWAP1 DUP2 MSTORE PUSH1 0x20 ADD PUSH1 0x0 KECCAK256 DUP2 SWAP1 SSTORE POP DUP2 PUSH1 0x0 DUP1 DUP6 DUP2 MSTORE PUSH1 0x20 ADD SWAP1 DUP2 MSTORE PUSH1 0x20 ADD PUSH1 0x0 KECCAK256 PUSH1 0x0 DUP12 PUSH20 0xFFFFFFFFFFFFFFFFFFFFFFFFFFFFFFFFFFFFFFFF AND PUSH20 0xFFFFFFFFFFFFFFFFFFFFFFFFFFFFFFFFFFFFFFFF AND DUP2 MSTORE PUSH1 0x20 ADD SWAP1 DUP2 MSTORE PUSH1 0x20 ADD PUSH1 0x0 KECCAK256 PUSH1 0x0 DUP3 DUP3 SLOAD PUSH2 0x1A4A SWAP2 SWAP1 PUSH2 0x3903 JUMP JUMPDEST SWAP3 POP POP DUP2 SWAP1 SSTORE POP POP POP POP DUP1 PUSH2 0x1A5E SWAP1 PUSH2 0x36D1 JUMP JUMPDEST SWAP1 POP PUSH2 0x18B7 JUMP JUMPDEST POP DUP5 PUSH20 0xFFFFFFFFFFFFFFFFFFFFFFFFFFFFFFFFFFFFFFFF AND DUP7 PUSH20 0xFFFFFFFFFFFFFFFFFFFFFFFFFFFFFFFFFFFFFFFF AND DUP3 PUSH20 0xFFFFFFFFFFFFFFFFFFFFFFFFFFFFFFFFFFFFFFFF AND PUSH32 0x4A39DC06D4C0DBC64B70AF90FD698A233A518AA5D07E595D983B8C0526C8F7FB DUP8 DUP8 PUSH1 0x40 MLOAD PUSH2 0x1ADC SWAP3 SWAP2 SWAP1 PUSH2 0x4072 JUMP JUMPDEST PUSH1 0x40 MLOAD DUP1 SWAP2 SUB SWAP1 LOG4 PUSH2 0x1AF2 DUP2 DUP8 DUP8 DUP8 DUP8 DUP8 PUSH2 0x23E9 JUMP JUMPDEST PUSH2 0x1B00 DUP2 DUP8 DUP8 DUP8 DUP8 DUP8 PUSH2 0x25C8 JUMP JUMPDEST POP POP POP POP POP POP JUMP JUMPDEST DUP1 PUSH1 0x3 SWAP1 DUP2 PUSH2 0x1B17 SWAP2 SWAP1 PUSH2 0x3D05 JUMP JUMPDEST POP POP JUMP JUMPDEST PUSH1 0x0 PUSH1 0x5 PUSH1 0x0 SWAP1 SLOAD SWAP1 PUSH2 0x100 EXP SWAP1 DIV PUSH20 0xFFFFFFFFFFFFFFFFFFFFFFFFFFFFFFFFFFFFFFFF AND SWAP1 POP DUP2 PUSH1 0x5 PUSH1 0x0 PUSH2 0x100 EXP DUP2 SLOAD DUP2 PUSH20 0xFFFFFFFFFFFFFFFFFFFFFFFFFFFFFFFFFFFFFFFF MUL NOT AND SWAP1 DUP4 PUSH20 0xFFFFFFFFFFFFFFFFFFFFFFFFFFFFFFFFFFFFFFFF AND MUL OR SWAP1 SSTORE POP DUP2 PUSH20 0xFFFFFFFFFFFFFFFFFFFFFFFFFFFFFFFFFFFFFFFF AND DUP2 PUSH20 0xFFFFFFFFFFFFFFFFFFFFFFFFFFFFFFFFFFFFFFFF AND PUSH32 0x8BE0079C531659141344CD1FD0A4F28419497F9722A3DAAFE3B4186F6B6457E0 PUSH1 0x40 MLOAD PUSH1 0x40 MLOAD DUP1 SWAP2 SUB SWAP1 LOG3 POP POP JUMP JUMPDEST PUSH1 0x0 PUSH20 0xFFFFFFFFFFFFFFFFFFFFFFFFFFFFFFFFFFFFFFFF AND DUP4 PUSH20 0xFFFFFFFFFFFFFFFFFFFFFFFFFFFFFFFFFFFFFFFF AND SUB PUSH2 0x1C50 JUMPI PUSH1 0x40 MLOAD PUSH32 0x8C379A000000000000000000000000000000000000000000000000000000000 DUP2 MSTORE PUSH1 0x4 ADD PUSH2 0x1C47 SWAP1 PUSH2 0x411B JUMP JUMPDEST PUSH1 0x40 MLOAD DUP1 SWAP2 SUB SWAP1 REVERT JUMPDEST PUSH1 0x0 PUSH2 0x1C5A PUSH2 0x1341 JUMP JUMPDEST SWAP1 POP PUSH1 0x0 PUSH2 0x1C67 DUP5 PUSH2 0x2289 JUMP JUMPDEST SWAP1 POP PUSH1 0x0 PUSH2 0x1C74 DUP5 PUSH2 0x2289 JUMP JUMPDEST SWAP1 POP PUSH2 0x1C94 DUP4 DUP8 PUSH1 0x0 DUP6 DUP6 PUSH1 0x40 MLOAD DUP1 PUSH1 0x20 ADD PUSH1 0x40 MSTORE DUP1 PUSH1 0x0 DUP2 MSTORE POP PUSH2 0x2303 JUMP JUMPDEST PUSH1 0x0 DUP1 PUSH1 0x0 DUP8 DUP2 MSTORE PUSH1 0x20 ADD SWAP1 DUP2 MSTORE PUSH1 0x20 ADD PUSH1 0x0 KECCAK256 PUSH1 0x0 DUP9 PUSH20 0xFFFFFFFFFFFFFFFFFFFFFFFFFFFFFFFFFFFFFFFF AND PUSH20 0xFFFFFFFFFFFFFFFFFFFFFFFFFFFFFFFFFFFFFFFF AND DUP2 MSTORE PUSH1 0x20 ADD SWAP1 DUP2 MSTORE PUSH1 0x20 ADD PUSH1 0x0 KECCAK256 SLOAD SWAP1 POP DUP5 DUP2 LT ISZERO PUSH2 0x1D2B JUMPI PUSH1 0x40 MLOAD PUSH32 0x8C379A000000000000000000000000000000000000000000000000000000000 DUP2 MSTORE PUSH1 0x4 ADD PUSH2 0x1D22 SWAP1 PUSH2 0x41AD JUMP JUMPDEST PUSH1 0x40 MLOAD DUP1 SWAP2 SUB SWAP1 REVERT JUMPDEST DUP5 DUP2 SUB PUSH1 0x0 DUP1 DUP9 DUP2 MSTORE PUSH1 0x20 ADD SWAP1 DUP2 MSTORE PUSH1 0x20 ADD PUSH1 0x0 KECCAK256 PUSH1 0x0 DUP10 PUSH20 0xFFFFFFFFFFFFFFFFFFFFFFFFFFFFFFFFFFFFFFFF AND PUSH20 0xFFFFFFFFFFFFFFFFFFFFFFFFFFFFFFFFFFFFFFFF AND DUP2 MSTORE PUSH1 0x20 ADD SWAP1 DUP2 MSTORE PUSH1 0x20 ADD PUSH1 0x0 KECCAK256 DUP2 SWAP1 SSTORE POP PUSH1 0x0 PUSH20 0xFFFFFFFFFFFFFFFFFFFFFFFFFFFFFFFFFFFFFFFF AND DUP8 PUSH20 0xFFFFFFFFFFFFFFFFFFFFFFFFFFFFFFFFFFFFFFFF AND DUP6 PUSH20 0xFFFFFFFFFFFFFFFFFFFFFFFFFFFFFFFFFFFFFFFF AND PUSH32 0xC3D58168C5AE7397731D063D5BBF3D657854427343F4C083240F7AACAA2D0F62 DUP10 DUP10 PUSH1 0x40 MLOAD PUSH2 0x1DF8 SWAP3 SWAP2 SWAP1 PUSH2 0x3B45 JUMP JUMPDEST PUSH1 0x40 MLOAD DUP1 SWAP2 SUB SWAP1 LOG4 PUSH2 0x1E1E DUP5 DUP9 PUSH1 0x0 DUP7 DUP7 PUSH1 0x40 MLOAD DUP1 PUSH1 0x20 ADD PUSH1 0x40 MSTORE DUP1 PUSH1 0x0 DUP2 MSTORE POP PUSH2 0x23E9 JUMP JUMPDEST POP POP POP POP POP POP POP JUMP JUMPDEST DUP2 PUSH20 0xFFFFFFFFFFFFFFFFFFFFFFFFFFFFFFFFFFFFFFFF AND DUP4 PUSH20 0xFFFFFFFFFFFFFFFFFFFFFFFFFFFFFFFFFFFFFFFF AND SUB PUSH2 0x1E95 JUMPI PUSH1 0x40 MLOAD PUSH32 0x8C379A000000000000000000000000000000000000000000000000000000000 DUP2 MSTORE PUSH1 0x4 ADD PUSH2 0x1E8C SWAP1 PUSH2 0x423F JUMP JUMPDEST PUSH1 0x40 MLOAD DUP1 SWAP2 SUB SWAP1 REVERT JUMPDEST DUP1 PUSH1 0x1 PUSH1 0x0 DUP6 PUSH20 0xFFFFFFFFFFFFFFFFFFFFFFFFFFFFFFFFFFFFFFFF AND PUSH20 0xFFFFFFFFFFFFFFFFFFFFFFFFFFFFFFFFFFFFFFFF AND DUP2 MSTORE PUSH1 0x20 ADD SWAP1 DUP2 MSTORE PUSH1 0x20 ADD PUSH1 0x0 KECCAK256 PUSH1 0x0 DUP5 PUSH20 0xFFFFFFFFFFFFFFFFFFFFFFFFFFFFFFFFFFFFFFFF AND PUSH20 0xFFFFFFFFFFFFFFFFFFFFFFFFFFFFFFFFFFFFFFFF AND DUP2 MSTORE PUSH1 0x20 ADD SWAP1 DUP2 MSTORE PUSH1 0x20 ADD PUSH1 0x0 KECCAK256 PUSH1 0x0 PUSH2 0x100 EXP DUP2 SLOAD DUP2 PUSH1 0xFF MUL NOT AND SWAP1 DUP4 ISZERO ISZERO MUL OR SWAP1 SSTORE POP DUP2 PUSH20 0xFFFFFFFFFFFFFFFFFFFFFFFFFFFFFFFFFFFFFFFF AND DUP4 PUSH20 0xFFFFFFFFFFFFFFFFFFFFFFFFFFFFFFFFFFFFFFFF AND PUSH32 0x17307EAB39AB6107E8899845AD3D59BD9653F200F220920489CA2B5937696C31 DUP4 PUSH1 0x40 MLOAD PUSH2 0x1F86 SWAP2 SWAP1 PUSH2 0x2951 JUMP JUMPDEST PUSH1 0x40 MLOAD DUP1 SWAP2 SUB SWAP1 LOG3 POP POP POP JUMP JUMPDEST PUSH2 0x1F9C DUP2 PUSH2 0x1349 JUMP JUMPDEST PUSH1 0x6 PUSH1 0x0 DUP3 PUSH20 0xFFFFFFFFFFFFFFFFFFFFFFFFFFFFFFFFFFFFFFFF AND PUSH20 0xFFFFFFFFFFFFFFFFFFFFFFFFFFFFFFFFFFFFFFFF AND DUP2 MSTORE PUSH1 0x20 ADD SWAP1 DUP2 MSTORE PUSH1 0x20 ADD PUSH1 0x0 KECCAK256 PUSH1 0x0 PUSH2 0x100 EXP DUP2 SLOAD SWAP1 PUSH1 0xFF MUL NOT AND SWAP1 SSTORE POP JUMP JUMPDEST PUSH1 0x0 PUSH20 0xFFFFFFFFFFFFFFFFFFFFFFFFFFFFFFFFFFFFFFFF AND DUP5 PUSH20 0xFFFFFFFFFFFFFFFFFFFFFFFFFFFFFFFFFFFFFFFF AND SUB PUSH2 0x205D JUMPI PUSH1 0x40 MLOAD PUSH32 0x8C379A000000000000000000000000000000000000000000000000000000000 DUP2 MSTORE PUSH1 0x4 ADD PUSH2 0x2054 SWAP1 PUSH2 0x3FC0 JUMP JUMPDEST PUSH1 0x40 MLOAD DUP1 SWAP2 SUB SWAP1 REVERT JUMPDEST PUSH1 0x0 PUSH2 0x2067 PUSH2 0x1341 JUMP JUMPDEST SWAP1 POP PUSH1 0x0 PUSH2 0x2074 DUP6 PUSH2 0x2289 JUMP JUMPDEST SWAP1 POP PUSH1 0x0 PUSH2 0x2081 DUP6 PUSH2 0x2289 JUMP JUMPDEST SWAP1 POP PUSH2 0x2091 DUP4 DUP10 DUP10 DUP6 DUP6 DUP10 PUSH2 0x2303 JUMP JUMPDEST PUSH1 0x0 DUP1 PUSH1 0x0 DUP9 DUP2 MSTORE PUSH1 0x20 ADD SWAP1 DUP2 MSTORE PUSH1 0x20 ADD PUSH1 0x0 KECCAK256 PUSH1 0x0 DUP11 PUSH20 0xFFFFFFFFFFFFFFFFFFFFFFFFFFFFFFFFFFFFFFFF AND PUSH20 0xFFFFFFFFFFFFFFFFFFFFFFFFFFFFFFFFFFFFFFFF AND DUP2 MSTORE PUSH1 0x20 ADD SWAP1 DUP2 MSTORE PUSH1 0x20 ADD PUSH1 0x0 KECCAK256 SLOAD SWAP1 POP DUP6 DUP2 LT ISZERO PUSH2 0x2128 JUMPI PUSH1 0x40 MLOAD PUSH32 0x8C379A000000000000000000000000000000000000000000000000000000000 DUP2 MSTORE PUSH1 0x4 ADD PUSH2 0x211F SWAP1 PUSH2 0x4052 JUMP JUMPDEST PUSH1 0x40 MLOAD DUP1 SWAP2 SUB SWAP1 REVERT JUMPDEST DUP6 DUP2 SUB PUSH1 0x0 DUP1 DUP10 DUP2 MSTORE PUSH1 0x20 ADD SWAP1 DUP2 MSTORE PUSH1 0x20 ADD PUSH1 0x0 KECCAK256 PUSH1 0x0 DUP12 PUSH20 0xFFFFFFFFFFFFFFFFFFFFFFFFFFFFFFFFFFFFFFFF AND PUSH20 0xFFFFFFFFFFFFFFFFFFFFFFFFFFFFFFFFFFFFFFFF AND DUP2 MSTORE PUSH1 0x20 ADD SWAP1 DUP2 MSTORE PUSH1 0x20 ADD PUSH1 0x0 KECCAK256 DUP2 SWAP1 SSTORE POP DUP6 PUSH1 0x0 DUP1 DUP10 DUP2 MSTORE PUSH1 0x20 ADD SWAP1 DUP2 MSTORE PUSH1 0x20 ADD PUSH1 0x0 KECCAK256 PUSH1 0x0 DUP11 PUSH20 0xFFFFFFFFFFFFFFFFFFFFFFFFFFFFFFFFFFFFFFFF AND PUSH20 0xFFFFFFFFFFFFFFFFFFFFFFFFFFFFFFFFFFFFFFFF AND DUP2 MSTORE PUSH1 0x20 ADD SWAP1 DUP2 MSTORE PUSH1 0x20 ADD PUSH1 0x0 KECCAK256 PUSH1 0x0 DUP3 DUP3 SLOAD PUSH2 0x21DD SWAP2 SWAP1 PUSH2 0x3903 JUMP JUMPDEST SWAP3 POP POP DUP2 SWAP1 SSTORE POP DUP8 PUSH20 0xFFFFFFFFFFFFFFFFFFFFFFFFFFFFFFFFFFFFFFFF AND DUP10 PUSH20 0xFFFFFFFFFFFFFFFFFFFFFFFFFFFFFFFFFFFFFFFF AND DUP6 PUSH20 0xFFFFFFFFFFFFFFFFFFFFFFFFFFFFFFFFFFFFFFFF AND PUSH32 0xC3D58168C5AE7397731D063D5BBF3D657854427343F4C083240F7AACAA2D0F62 DUP11 DUP11 PUSH1 0x40 MLOAD PUSH2 0x225A SWAP3 SWAP2 SWAP1 PUSH2 0x3B45 JUMP JUMPDEST PUSH1 0x40 MLOAD DUP1 SWAP2 SUB SWAP1 LOG4 PUSH2 0x2270 DUP5 DUP11 DUP11 DUP7 DUP7 DUP11 PUSH2 0x23E9 JUMP JUMPDEST PUSH2 0x227E DUP5 DUP11 DUP11 DUP11 DUP11 DUP11 PUSH2 0x23F1 JUMP JUMPDEST POP POP POP POP POP POP POP POP POP JUMP JUMPDEST PUSH1 0x60 PUSH1 0x0 PUSH1 0x1 PUSH8 0xFFFFFFFFFFFFFFFF DUP2 GT ISZERO PUSH2 0x22A8 JUMPI PUSH2 0x22A7 PUSH2 0x2AB1 JUMP JUMPDEST JUMPDEST PUSH1 0x40 MLOAD SWAP1 DUP1 DUP3 MSTORE DUP1 PUSH1 0x20 MUL PUSH1 0x20 ADD DUP3 ADD PUSH1 0x40 MSTORE DUP1 ISZERO PUSH2 0x22D6 JUMPI DUP2 PUSH1 0x20 ADD PUSH1 0x20 DUP3 MUL DUP1 CALLDATASIZE DUP4 CALLDATACOPY DUP1 DUP3 ADD SWAP2 POP POP SWAP1 POP JUMPDEST POP SWAP1 POP DUP3 DUP2 PUSH1 0x0 DUP2 MLOAD DUP2 LT PUSH2 0x22EE JUMPI PUSH2 0x22ED PUSH2 0x3673 JUMP JUMPDEST JUMPDEST PUSH1 0x20 MUL PUSH1 0x20 ADD ADD DUP2 DUP2 MSTORE POP POP DUP1 SWAP2 POP POP SWAP2 SWAP1 POP JUMP JUMPDEST PUSH2 0x230B PUSH2 0xB76 JUMP JUMPDEST PUSH20 0xFFFFFFFFFFFFFFFFFFFFFFFFFFFFFFFFFFFFFFFF AND DUP7 PUSH20 0xFFFFFFFFFFFFFFFFFFFFFFFFFFFFFFFFFFFFFFFF AND EQ DUP1 PUSH2 0x2394 JUMPI POP PUSH1 0x1 ISZERO ISZERO PUSH1 0x9 PUSH1 0x0 DUP9 PUSH20 0xFFFFFFFFFFFFFFFFFFFFFFFFFFFFFFFFFFFFFFFF AND PUSH20 0xFFFFFFFFFFFFFFFFFFFFFFFFFFFFFFFFFFFFFFFF AND DUP2 MSTORE PUSH1 0x20 ADD SWAP1 DUP2 MSTORE PUSH1 0x20 ADD PUSH1 0x0 KECCAK256 PUSH1 0x0 SWAP1 SLOAD SWAP1 PUSH2 0x100 EXP SWAP1 DIV PUSH1 0xFF AND ISZERO ISZERO EQ JUMPDEST PUSH2 0x23D3 JUMPI PUSH1 0x40 MLOAD PUSH32 0x8C379A000000000000000000000000000000000000000000000000000000000 DUP2 MSTORE PUSH1 0x4 ADD PUSH2 0x23CA SWAP1 PUSH2 0x42AB JUMP JUMPDEST PUSH1 0x40 MLOAD DUP1 SWAP2 SUB SWAP1 REVERT JUMPDEST PUSH2 0x23E1 DUP7 DUP7 DUP7 DUP7 DUP7 DUP7 PUSH2 0x12AC JUMP JUMPDEST POP POP POP POP POP POP JUMP JUMPDEST POP POP POP POP POP POP JUMP JUMPDEST PUSH2 0x2410 DUP5 PUSH20 0xFFFFFFFFFFFFFFFFFFFFFFFFFFFFFFFFFFFFFFFF AND PUSH2 0x12B4 JUMP JUMPDEST ISZERO PUSH2 0x25C0 JUMPI DUP4 PUSH20 0xFFFFFFFFFFFFFFFFFFFFFFFFFFFFFFFFFFFFFFFF AND PUSH4 0xF23A6E61 DUP8 DUP8 DUP7 DUP7 DUP7 PUSH1 0x40 MLOAD DUP7 PUSH4 0xFFFFFFFF AND PUSH1 0xE0 SHL DUP2 MSTORE PUSH1 0x4 ADD PUSH2 0x2456 SWAP6 SWAP5 SWAP4 SWAP3 SWAP2 SWAP1 PUSH2 0x4320 JUMP JUMPDEST PUSH1 0x20 PUSH1 0x40 MLOAD DUP1 DUP4 SUB DUP2 PUSH1 0x0 DUP8 GAS CALL SWAP3 POP POP POP DUP1 ISZERO PUSH2 0x2492 JUMPI POP PUSH1 0x40 MLOAD RETURNDATASIZE PUSH1 0x1F NOT PUSH1 0x1F DUP3 ADD AND DUP3 ADD DUP1 PUSH1 0x40 MSTORE POP DUP2 ADD SWAP1 PUSH2 0x248F SWAP2 SWAP1 PUSH2 0x438F JUMP JUMPDEST PUSH1 0x1 JUMPDEST PUSH2 0x2537 JUMPI PUSH2 0x249E PUSH2 0x43C9 JUMP JUMPDEST DUP1 PUSH4 0x8C379A0 SUB PUSH2 0x24FA JUMPI POP PUSH2 0x24B2 PUSH2 0x43EB JUMP JUMPDEST DUP1 PUSH2 0x24BD JUMPI POP PUSH2 0x24FC JUMP JUMPDEST DUP1 PUSH1 0x40 MLOAD PUSH32 0x8C379A000000000000000000000000000000000000000000000000000000000 DUP2 MSTORE PUSH1 0x4 ADD PUSH2 0x24F1 SWAP2 SWAP1 PUSH2 0x2A05 JUMP JUMPDEST PUSH1 0x40 MLOAD DUP1 SWAP2 SUB SWAP1 REVERT JUMPDEST POP JUMPDEST PUSH1 0x40 MLOAD PUSH32 0x8C379A000000000000000000000000000000000000000000000000000000000 DUP2 MSTORE PUSH1 0x4 ADD PUSH2 0x252E SWAP1 PUSH2 0x44ED JUMP JUMPDEST PUSH1 0x40 MLOAD DUP1 SWAP2 SUB SWAP1 REVERT JUMPDEST PUSH4 0xF23A6E61 PUSH1 0xE0 SHL PUSH28 0xFFFFFFFFFFFFFFFFFFFFFFFFFFFFFFFFFFFFFFFFFFFFFFFFFFFFFFFF NOT AND DUP2 PUSH28 0xFFFFFFFFFFFFFFFFFFFFFFFFFFFFFFFFFFFFFFFFFFFFFFFFFFFFFFFF NOT AND EQ PUSH2 0x25BE JUMPI PUSH1 0x40 MLOAD PUSH32 0x8C379A000000000000000000000000000000000000000000000000000000000 DUP2 MSTORE PUSH1 0x4 ADD PUSH2 0x25B5 SWAP1 PUSH2 0x457F JUMP JUMPDEST PUSH1 0x40 MLOAD DUP1 SWAP2 SUB SWAP1 REVERT JUMPDEST POP JUMPDEST POP POP POP POP POP POP JUMP JUMPDEST PUSH2 0x25E7 DUP5 PUSH20 0xFFFFFFFFFFFFFFFFFFFFFFFFFFFFFFFFFFFFFFFF AND PUSH2 0x12B4 JUMP JUMPDEST ISZERO PUSH2 0x2797 JUMPI DUP4 PUSH20 0xFFFFFFFFFFFFFFFFFFFFFFFFFFFFFFFFFFFFFFFF AND PUSH4 0xBC197C81 DUP8 DUP8 DUP7 DUP7 DUP7 PUSH1 0x40 MLOAD DUP7 PUSH4 0xFFFFFFFF AND PUSH1 0xE0 SHL DUP2 MSTORE PUSH1 0x4 ADD PUSH2 0x262D SWAP6 SWAP5 SWAP4 SWAP3 SWAP2 SWAP1 PUSH2 0x459F JUMP JUMPDEST PUSH1 0x20 PUSH1 0x40 MLOAD DUP1 DUP4 SUB DUP2 PUSH1 0x0 DUP8 GAS CALL SWAP3 POP POP POP DUP1 ISZERO PUSH2 0x2669 JUMPI POP PUSH1 0x40 MLOAD RETURNDATASIZE PUSH1 0x1F NOT PUSH1 0x1F DUP3 ADD AND DUP3 ADD DUP1 PUSH1 0x40 MSTORE POP DUP2 ADD SWAP1 PUSH2 0x2666 SWAP2 SWAP1 PUSH2 0x438F JUMP JUMPDEST PUSH1 0x1 JUMPDEST PUSH2 0x270E JUMPI PUSH2 0x2675 PUSH2 0x43C9 JUMP JUMPDEST DUP1 PUSH4 0x8C379A0 SUB PUSH2 0x26D1 JUMPI POP PUSH2 0x2689 PUSH2 0x43EB JUMP JUMPDEST DUP1 PUSH2 0x2694 JUMPI POP PUSH2 0x26D3 JUMP JUMPDEST DUP1 PUSH1 0x40 MLOAD PUSH32 0x8C379A000000000000000000000000000000000000000000000000000000000 DUP2 MSTORE PUSH1 0x4 ADD PUSH2 0x26C8 SWAP2 SWAP1 PUSH2 0x2A05 JUMP JUMPDEST PUSH1 0x40 MLOAD DUP1 SWAP2 SUB SWAP1 REVERT JUMPDEST POP JUMPDEST PUSH1 0x40 MLOAD PUSH32 0x8C379A000000000000000000000000000000000000000000000000000000000 DUP2 MSTORE PUSH1 0x4 ADD PUSH2 0x2705 SWAP1 PUSH2 0x44ED JUMP JUMPDEST PUSH1 0x40 MLOAD DUP1 SWAP2 SUB SWAP1 REVERT JUMPDEST PUSH4 0xBC197C81 PUSH1 0xE0 SHL PUSH28 0xFFFFFFFFFFFFFFFFFFFFFFFFFFFFFFFFFFFFFFFFFFFFFFFFFFFFFFFF NOT AND DUP2 PUSH28 0xFFFFFFFFFFFFFFFFFFFFFFFFFFFFFFFFFFFFFFFFFFFFFFFFFFFFFFFF NOT AND EQ PUSH2 0x2795 JUMPI PUSH1 0x40 MLOAD PUSH32 0x8C379A000000000000000000000000000000000000000000000000000000000 DUP2 MSTORE PUSH1 0x4 ADD PUSH2 0x278C SWAP1 PUSH2 0x457F JUMP JUMPDEST PUSH1 0x40 MLOAD DUP1 SWAP2 SUB SWAP1 REVERT JUMPDEST POP JUMPDEST POP POP POP POP POP POP JUMP JUMPDEST PUSH1 0x0 PUSH1 0x40 MLOAD SWAP1 POP SWAP1 JUMP JUMPDEST PUSH1 0x0 DUP1 REVERT JUMPDEST PUSH1 0x0 DUP1 REVERT JUMPDEST PUSH1 0x0 PUSH20 0xFFFFFFFFFFFFFFFFFFFFFFFFFFFFFFFFFFFFFFFF DUP3 AND SWAP1 POP SWAP2 SWAP1 POP JUMP JUMPDEST PUSH1 0x0 PUSH2 0x27DE DUP3 PUSH2 0x27B3 JUMP JUMPDEST SWAP1 POP SWAP2 SWAP1 POP JUMP JUMPDEST PUSH2 0x27EE DUP2 PUSH2 0x27D3 JUMP JUMPDEST DUP2 EQ PUSH2 0x27F9 JUMPI PUSH1 0x0 DUP1 REVERT JUMPDEST POP JUMP JUMPDEST PUSH1 0x0 DUP2 CALLDATALOAD SWAP1 POP PUSH2 0x280B DUP2 PUSH2 0x27E5 JUMP JUMPDEST SWAP3 SWAP2 POP POP JUMP JUMPDEST PUSH1 0x0 DUP2 SWAP1 POP SWAP2 SWAP1 POP JUMP JUMPDEST PUSH2 0x2824 DUP2 PUSH2 0x2811 JUMP JUMPDEST DUP2 EQ PUSH2 0x282F JUMPI PUSH1 0x0 DUP1 REVERT JUMPDEST POP JUMP JUMPDEST PUSH1 0x0 DUP2 CALLDATALOAD SWAP1 POP PUSH2 0x2841 DUP2 PUSH2 0x281B JUMP JUMPDEST SWAP3 SWAP2 POP POP JUMP JUMPDEST PUSH1 0x0 DUP1 PUSH1 0x40 DUP4 DUP6 SUB SLT ISZERO PUSH2 0x285E JUMPI PUSH2 0x285D PUSH2 0x27A9 JUMP JUMPDEST JUMPDEST PUSH1 0x0 PUSH2 0x286C DUP6 DUP3 DUP7 ADD PUSH2 0x27FC JUMP JUMPDEST SWAP3 POP POP PUSH1 0x20 PUSH2 0x287D DUP6 DUP3 DUP7 ADD PUSH2 0x2832 JUMP JUMPDEST SWAP2 POP POP SWAP3 POP SWAP3 SWAP1 POP JUMP JUMPDEST PUSH2 0x2890 DUP2 PUSH2 0x2811 JUMP JUMPDEST DUP3 MSTORE POP POP JUMP JUMPDEST PUSH1 0x0 PUSH1 0x20 DUP3 ADD SWAP1 POP PUSH2 0x28AB PUSH1 0x0 DUP4 ADD DUP5 PUSH2 0x2887 JUMP JUMPDEST SWAP3 SWAP2 POP POP JUMP JUMPDEST PUSH1 0x0 PUSH32 0xFFFFFFFF00000000000000000000000000000000000000000000000000000000 DUP3 AND SWAP1 POP SWAP2 SWAP1 POP JUMP JUMPDEST PUSH2 0x28E6 DUP2 PUSH2 0x28B1 JUMP JUMPDEST DUP2 EQ PUSH2 0x28F1 JUMPI PUSH1 0x0 DUP1 REVERT JUMPDEST POP JUMP JUMPDEST PUSH1 0x0 DUP2 CALLDATALOAD SWAP1 POP PUSH2 0x2903 DUP2 PUSH2 0x28DD JUMP JUMPDEST SWAP3 SWAP2 POP POP JUMP JUMPDEST PUSH1 0x0 PUSH1 0x20 DUP3 DUP5 SUB SLT ISZERO PUSH2 0x291F JUMPI PUSH2 0x291E PUSH2 0x27A9 JUMP JUMPDEST JUMPDEST PUSH1 0x0 PUSH2 0x292D DUP5 DUP3 DUP6 ADD PUSH2 0x28F4 JUMP JUMPDEST SWAP2 POP POP SWAP3 SWAP2 POP POP JUMP JUMPDEST PUSH1 0x0 DUP2 ISZERO ISZERO SWAP1 POP SWAP2 SWAP1 POP JUMP JUMPDEST PUSH2 0x294B DUP2 PUSH2 0x2936 JUMP JUMPDEST DUP3 MSTORE POP POP JUMP JUMPDEST PUSH1 0x0 PUSH1 0x20 DUP3 ADD SWAP1 POP PUSH2 0x2966 PUSH1 0x0 DUP4 ADD DUP5 PUSH2 0x2942 JUMP JUMPDEST SWAP3 SWAP2 POP POP JUMP JUMPDEST PUSH1 0x0 DUP2 MLOAD SWAP1 POP SWAP2 SWAP1 POP JUMP JUMPDEST PUSH1 0x0 DUP3 DUP3 MSTORE PUSH1 0x20 DUP3 ADD SWAP1 POP SWAP3 SWAP2 POP POP JUMP JUMPDEST PUSH1 0x0 JUMPDEST DUP4 DUP2 LT ISZERO PUSH2 0x29A6 JUMPI DUP1 DUP3 ADD MLOAD DUP2 DUP5 ADD MSTORE PUSH1 0x20 DUP2 ADD SWAP1 POP PUSH2 0x298B JUMP JUMPDEST DUP4 DUP2 GT ISZERO PUSH2 0x29B5 JUMPI PUSH1 0x0 DUP5 DUP5 ADD MSTORE JUMPDEST POP POP POP POP JUMP JUMPDEST PUSH1 0x0 PUSH1 0x1F NOT PUSH1 0x1F DUP4 ADD AND SWAP1 POP SWAP2 SWAP1 POP JUMP JUMPDEST PUSH1 0x0 PUSH2 0x29D7 DUP3 PUSH2 0x296C JUMP JUMPDEST PUSH2 0x29E1 DUP2 DUP6 PUSH2 0x2977 JUMP JUMPDEST SWAP4 POP PUSH2 0x29F1 DUP2 DUP6 PUSH1 0x20 DUP7 ADD PUSH2 0x2988 JUMP JUMPDEST PUSH2 0x29FA DUP2 PUSH2 0x29BB JUMP JUMPDEST DUP5 ADD SWAP2 POP POP SWAP3 SWAP2 POP POP JUMP JUMPDEST PUSH1 0x0 PUSH1 0x20 DUP3 ADD SWAP1 POP DUP2 DUP2 SUB PUSH1 0x0 DUP4 ADD MSTORE PUSH2 0x2A1F DUP2 DUP5 PUSH2 0x29CC JUMP JUMPDEST SWAP1 POP SWAP3 SWAP2 POP POP JUMP JUMPDEST PUSH1 0x0 PUSH1 0x20 DUP3 DUP5 SUB SLT ISZERO PUSH2 0x2A3D JUMPI PUSH2 0x2A3C PUSH2 0x27A9 JUMP JUMPDEST JUMPDEST PUSH1 0x0 PUSH2 0x2A4B DUP5 DUP3 DUP6 ADD PUSH2 0x2832 JUMP JUMPDEST SWAP2 POP POP SWAP3 SWAP2 POP POP JUMP JUMPDEST PUSH1 0x0 DUP1 PUSH1 0x0 PUSH1 0x60 DUP5 DUP7 SUB SLT ISZERO PUSH2 0x2A6D JUMPI PUSH2 0x2A6C PUSH2 0x27A9 JUMP JUMPDEST JUMPDEST PUSH1 0x0 PUSH2 0x2A7B DUP7 DUP3 DUP8 ADD PUSH2 0x27FC JUMP JUMPDEST SWAP4 POP POP PUSH1 0x20 PUSH2 0x2A8C DUP7 DUP3 DUP8 ADD PUSH2 0x2832 JUMP JUMPDEST SWAP3 POP POP PUSH1 0x40 PUSH2 0x2A9D DUP7 DUP3 DUP8 ADD PUSH2 0x2832 JUMP JUMPDEST SWAP2 POP POP SWAP3 POP SWAP3 POP SWAP3 JUMP JUMPDEST PUSH1 0x0 DUP1 REVERT JUMPDEST PUSH1 0x0 DUP1 REVERT JUMPDEST PUSH32 0x4E487B7100000000000000000000000000000000000000000000000000000000 PUSH1 0x0 MSTORE PUSH1 0x41 PUSH1 0x4 MSTORE PUSH1 0x24 PUSH1 0x0 REVERT JUMPDEST PUSH2 0x2AE9 DUP3 PUSH2 0x29BB JUMP JUMPDEST DUP2 ADD DUP2 DUP2 LT PUSH8 0xFFFFFFFFFFFFFFFF DUP3 GT OR ISZERO PUSH2 0x2B08 JUMPI PUSH2 0x2B07 PUSH2 0x2AB1 JUMP JUMPDEST JUMPDEST DUP1 PUSH1 0x40 MSTORE POP POP POP JUMP JUMPDEST PUSH1 0x0 PUSH2 0x2B1B PUSH2 0x279F JUMP JUMPDEST SWAP1 POP PUSH2 0x2B27 DUP3 DUP3 PUSH2 0x2AE0 JUMP JUMPDEST SWAP2 SWAP1 POP JUMP JUMPDEST PUSH1 0x0 PUSH8 0xFFFFFFFFFFFFFFFF DUP3 GT ISZERO PUSH2 0x2B47 JUMPI PUSH2 0x2B46 PUSH2 0x2AB1 JUMP JUMPDEST JUMPDEST PUSH2 0x2B50 DUP3 PUSH2 0x29BB JUMP JUMPDEST SWAP1 POP PUSH1 0x20 DUP2 ADD SWAP1 POP SWAP2 SWAP1 POP JUMP JUMPDEST DUP3 DUP2 DUP4 CALLDATACOPY PUSH1 0x0 DUP4 DUP4 ADD MSTORE POP POP POP JUMP JUMPDEST PUSH1 0x0 PUSH2 0x2B7F PUSH2 0x2B7A DUP5 PUSH2 0x2B2C JUMP JUMPDEST PUSH2 0x2B11 JUMP JUMPDEST SWAP1 POP DUP3 DUP2 MSTORE PUSH1 0x20 DUP2 ADD DUP5 DUP5 DUP5 ADD GT ISZERO PUSH2 0x2B9B JUMPI PUSH2 0x2B9A PUSH2 0x2AAC JUMP JUMPDEST JUMPDEST PUSH2 0x2BA6 DUP5 DUP3 DUP6 PUSH2 0x2B5D JUMP JUMPDEST POP SWAP4 SWAP3 POP POP POP JUMP JUMPDEST PUSH1 0x0 DUP3 PUSH1 0x1F DUP4 ADD SLT PUSH2 0x2BC3 JUMPI PUSH2 0x2BC2 PUSH2 0x2AA7 JUMP JUMPDEST JUMPDEST DUP2 CALLDATALOAD PUSH2 0x2BD3 DUP5 DUP3 PUSH1 0x20 DUP7 ADD PUSH2 0x2B6C JUMP JUMPDEST SWAP2 POP POP SWAP3 SWAP2 POP POP JUMP JUMPDEST PUSH1 0x0 DUP1 PUSH1 0x40 DUP4 DUP6 SUB SLT ISZERO PUSH2 0x2BF3 JUMPI PUSH2 0x2BF2 PUSH2 0x27A9 JUMP JUMPDEST JUMPDEST PUSH1 0x0 PUSH2 0x2C01 DUP6 DUP3 DUP7 ADD PUSH2 0x2832 JUMP JUMPDEST SWAP3 POP POP PUSH1 0x20 DUP4 ADD CALLDATALOAD PUSH8 0xFFFFFFFFFFFFFFFF DUP2 GT ISZERO PUSH2 0x2C22 JUMPI PUSH2 0x2C21 PUSH2 0x27AE JUMP JUMPDEST JUMPDEST PUSH2 0x2C2E DUP6 DUP3 DUP7 ADD PUSH2 0x2BAE JUMP JUMPDEST SWAP2 POP POP SWAP3 POP SWAP3 SWAP1 POP JUMP JUMPDEST PUSH1 0x0 PUSH1 0x20 DUP3 DUP5 SUB SLT ISZERO PUSH2 0x2C4E JUMPI PUSH2 0x2C4D PUSH2 0x27A9 JUMP JUMPDEST JUMPDEST PUSH1 0x0 PUSH2 0x2C5C DUP5 DUP3 DUP6 ADD PUSH2 0x27FC JUMP JUMPDEST SWAP2 POP POP SWAP3 SWAP2 POP POP JUMP JUMPDEST PUSH1 0x0 PUSH8 0xFFFFFFFFFFFFFFFF DUP3 GT ISZERO PUSH2 0x2C80 JUMPI PUSH2 0x2C7F PUSH2 0x2AB1 JUMP JUMPDEST JUMPDEST PUSH1 0x20 DUP3 MUL SWAP1 POP PUSH1 0x20 DUP2 ADD SWAP1 POP SWAP2 SWAP1 POP JUMP JUMPDEST PUSH1 0x0 DUP1 REVERT JUMPDEST PUSH1 0x0 PUSH2 0x2CA9 PUSH2 0x2CA4 DUP5 PUSH2 0x2C65 JUMP JUMPDEST PUSH2 0x2B11 JUMP JUMPDEST SWAP1 POP DUP1 DUP4 DUP3 MSTORE PUSH1 0x20 DUP3 ADD SWAP1 POP PUSH1 0x20 DUP5 MUL DUP4 ADD DUP6 DUP2 GT ISZERO PUSH2 0x2CCC JUMPI PUSH2 0x2CCB PUSH2 0x2C91 JUMP JUMPDEST JUMPDEST DUP4 JUMPDEST DUP2 DUP2 LT ISZERO PUSH2 0x2CF5 JUMPI DUP1 PUSH2 0x2CE1 DUP9 DUP3 PUSH2 0x2832 JUMP JUMPDEST DUP5 MSTORE PUSH1 0x20 DUP5 ADD SWAP4 POP POP PUSH1 0x20 DUP2 ADD SWAP1 POP PUSH2 0x2CCE JUMP JUMPDEST POP POP POP SWAP4 SWAP3 POP POP POP JUMP JUMPDEST PUSH1 0x0 DUP3 PUSH1 0x1F DUP4 ADD SLT PUSH2 0x2D14 JUMPI PUSH2 0x2D13 PUSH2 0x2AA7 JUMP JUMPDEST JUMPDEST DUP2 CALLDATALOAD PUSH2 0x2D24 DUP5 DUP3 PUSH1 0x20 DUP7 ADD PUSH2 0x2C96 JUMP JUMPDEST SWAP2 POP POP SWAP3 SWAP2 POP POP JUMP JUMPDEST PUSH1 0x0 PUSH8 0xFFFFFFFFFFFFFFFF DUP3 GT ISZERO PUSH2 0x2D48 JUMPI PUSH2 0x2D47 PUSH2 0x2AB1 JUMP JUMPDEST JUMPDEST PUSH2 0x2D51 DUP3 PUSH2 0x29BB JUMP JUMPDEST SWAP1 POP PUSH1 0x20 DUP2 ADD SWAP1 POP SWAP2 SWAP1 POP JUMP JUMPDEST PUSH1 0x0 PUSH2 0x2D71 PUSH2 0x2D6C DUP5 PUSH2 0x2D2D JUMP JUMPDEST PUSH2 0x2B11 JUMP JUMPDEST SWAP1 POP DUP3 DUP2 MSTORE PUSH1 0x20 DUP2 ADD DUP5 DUP5 DUP5 ADD GT ISZERO PUSH2 0x2D8D JUMPI PUSH2 0x2D8C PUSH2 0x2AAC JUMP JUMPDEST JUMPDEST PUSH2 0x2D98 DUP5 DUP3 DUP6 PUSH2 0x2B5D JUMP JUMPDEST POP SWAP4 SWAP3 POP POP POP JUMP JUMPDEST PUSH1 0x0 DUP3 PUSH1 0x1F DUP4 ADD SLT PUSH2 0x2DB5 JUMPI PUSH2 0x2DB4 PUSH2 0x2AA7 JUMP JUMPDEST JUMPDEST DUP2 CALLDATALOAD PUSH2 0x2DC5 DUP5 DUP3 PUSH1 0x20 DUP7 ADD PUSH2 0x2D5E JUMP JUMPDEST SWAP2 POP POP SWAP3 SWAP2 POP POP JUMP JUMPDEST PUSH1 0x0 DUP1 PUSH1 0x0 DUP1 PUSH1 0x0 PUSH1 0xA0 DUP7 DUP9 SUB SLT ISZERO PUSH2 0x2DEA JUMPI PUSH2 0x2DE9 PUSH2 0x27A9 JUMP JUMPDEST JUMPDEST PUSH1 0x0 PUSH2 0x2DF8 DUP9 DUP3 DUP10 ADD PUSH2 0x27FC JUMP JUMPDEST SWAP6 POP POP PUSH1 0x20 PUSH2 0x2E09 DUP9 DUP3 DUP10 ADD PUSH2 0x27FC JUMP JUMPDEST SWAP5 POP POP PUSH1 0x40 DUP7 ADD CALLDATALOAD PUSH8 0xFFFFFFFFFFFFFFFF DUP2 GT ISZERO PUSH2 0x2E2A JUMPI PUSH2 0x2E29 PUSH2 0x27AE JUMP JUMPDEST JUMPDEST PUSH2 0x2E36 DUP9 DUP3 DUP10 ADD PUSH2 0x2CFF JUMP JUMPDEST SWAP4 POP POP PUSH1 0x60 DUP7 ADD CALLDATALOAD PUSH8 0xFFFFFFFFFFFFFFFF DUP2 GT ISZERO PUSH2 0x2E57 JUMPI PUSH2 0x2E56 PUSH2 0x27AE JUMP JUMPDEST JUMPDEST PUSH2 0x2E63 DUP9 DUP3 DUP10 ADD PUSH2 0x2CFF JUMP JUMPDEST SWAP3 POP POP PUSH1 0x80 DUP7 ADD CALLDATALOAD PUSH8 0xFFFFFFFFFFFFFFFF DUP2 GT ISZERO PUSH2 0x2E84 JUMPI PUSH2 0x2E83 PUSH2 0x27AE JUMP JUMPDEST JUMPDEST PUSH2 0x2E90 DUP9 DUP3 DUP10 ADD PUSH2 0x2DA0 JUMP JUMPDEST SWAP2 POP POP SWAP3 SWAP6 POP SWAP3 SWAP6 SWAP1 SWAP4 POP JUMP JUMPDEST PUSH1 0x0 PUSH8 0xFFFFFFFFFFFFFFFF DUP3 GT ISZERO PUSH2 0x2EB8 JUMPI PUSH2 0x2EB7 PUSH2 0x2AB1 JUMP JUMPDEST JUMPDEST PUSH1 0x20 DUP3 MUL SWAP1 POP PUSH1 0x20 DUP2 ADD SWAP1 POP SWAP2 SWAP1 POP JUMP JUMPDEST PUSH1 0x0 PUSH2 0x2EDC PUSH2 0x2ED7 DUP5 PUSH2 0x2E9D JUMP JUMPDEST PUSH2 0x2B11 JUMP JUMPDEST SWAP1 POP DUP1 DUP4 DUP3 MSTORE PUSH1 0x20 DUP3 ADD SWAP1 POP PUSH1 0x20 DUP5 MUL DUP4 ADD DUP6 DUP2 GT ISZERO PUSH2 0x2EFF JUMPI PUSH2 0x2EFE PUSH2 0x2C91 JUMP JUMPDEST JUMPDEST DUP4 JUMPDEST DUP2 DUP2 LT ISZERO PUSH2 0x2F28 JUMPI DUP1 PUSH2 0x2F14 DUP9 DUP3 PUSH2 0x27FC JUMP JUMPDEST DUP5 MSTORE PUSH1 0x20 DUP5 ADD SWAP4 POP POP PUSH1 0x20 DUP2 ADD SWAP1 POP PUSH2 0x2F01 JUMP JUMPDEST POP POP POP SWAP4 SWAP3 POP POP POP JUMP JUMPDEST PUSH1 0x0 DUP3 PUSH1 0x1F DUP4 ADD SLT PUSH2 0x2F47 JUMPI PUSH2 0x2F46 PUSH2 0x2AA7 JUMP JUMPDEST JUMPDEST DUP2 CALLDATALOAD PUSH2 0x2F57 DUP5 DUP3 PUSH1 0x20 DUP7 ADD PUSH2 0x2EC9 JUMP JUMPDEST SWAP2 POP POP SWAP3 SWAP2 POP POP JUMP JUMPDEST PUSH1 0x0 DUP1 PUSH1 0x40 DUP4 DUP6 SUB SLT ISZERO PUSH2 0x2F77 JUMPI PUSH2 0x2F76 PUSH2 0x27A9 JUMP JUMPDEST JUMPDEST PUSH1 0x0 DUP4 ADD CALLDATALOAD PUSH8 0xFFFFFFFFFFFFFFFF DUP2 GT ISZERO PUSH2 0x2F95 JUMPI PUSH2 0x2F94 PUSH2 0x27AE JUMP JUMPDEST JUMPDEST PUSH2 0x2FA1 DUP6 DUP3 DUP7 ADD PUSH2 0x2F32 JUMP JUMPDEST SWAP3 POP POP PUSH1 0x20 DUP4 ADD CALLDATALOAD PUSH8 0xFFFFFFFFFFFFFFFF DUP2 GT ISZERO PUSH2 0x2FC2 JUMPI PUSH2 0x2FC1 PUSH2 0x27AE JUMP JUMPDEST JUMPDEST PUSH2 0x2FCE DUP6 DUP3 DUP7 ADD PUSH2 0x2CFF JUMP JUMPDEST SWAP2 POP POP SWAP3 POP SWAP3 SWAP1 POP JUMP JUMPDEST PUSH1 0x0 DUP2 MLOAD SWAP1 POP SWAP2 SWAP1 POP JUMP JUMPDEST PUSH1 0x0 DUP3 DUP3 MSTORE PUSH1 0x20 DUP3 ADD SWAP1 POP SWAP3 SWAP2 POP POP JUMP JUMPDEST PUSH1 0x0 DUP2 SWAP1 POP PUSH1 0x20 DUP3 ADD SWAP1 POP SWAP2 SWAP1 POP JUMP JUMPDEST PUSH2 0x300D DUP2 PUSH2 0x2811 JUMP JUMPDEST DUP3 MSTORE POP POP JUMP JUMPDEST PUSH1 0x0 PUSH2 0x301F DUP4 DUP4 PUSH2 0x3004 JUMP JUMPDEST PUSH1 0x20 DUP4 ADD SWAP1 POP SWAP3 SWAP2 POP POP JUMP JUMPDEST PUSH1 0x0 PUSH1 0x20 DUP3 ADD SWAP1 POP SWAP2 SWAP1 POP JUMP JUMPDEST PUSH1 0x0 PUSH2 0x3043 DUP3 PUSH2 0x2FD8 JUMP JUMPDEST PUSH2 0x304D DUP2 DUP6 PUSH2 0x2FE3 JUMP JUMPDEST SWAP4 POP PUSH2 0x3058 DUP4 PUSH2 0x2FF4 JUMP JUMPDEST DUP1 PUSH1 0x0 JUMPDEST DUP4 DUP2 LT ISZERO PUSH2 0x3089 JUMPI DUP2 MLOAD PUSH2 0x3070 DUP9 DUP3 PUSH2 0x3013 JUMP JUMPDEST SWAP8 POP PUSH2 0x307B DUP4 PUSH2 0x302B JUMP JUMPDEST SWAP3 POP POP PUSH1 0x1 DUP2 ADD SWAP1 POP PUSH2 0x305C JUMP JUMPDEST POP DUP6 SWAP4 POP POP POP POP SWAP3 SWAP2 POP POP JUMP JUMPDEST PUSH1 0x0 PUSH1 0x20 DUP3 ADD SWAP1 POP DUP2 DUP2 SUB PUSH1 0x0 DUP4 ADD MSTORE PUSH2 0x30B0 DUP2 DUP5 PUSH2 0x3038 JUMP JUMPDEST SWAP1 POP SWAP3 SWAP2 POP POP JUMP JUMPDEST PUSH1 0x0 PUSH1 0x20 DUP3 DUP5 SUB SLT ISZERO PUSH2 0x30CE JUMPI PUSH2 0x30CD PUSH2 0x27A9 JUMP JUMPDEST JUMPDEST PUSH1 0x0 DUP3 ADD CALLDATALOAD PUSH8 0xFFFFFFFFFFFFFFFF DUP2 GT ISZERO PUSH2 0x30EC JUMPI PUSH2 0x30EB PUSH2 0x27AE JUMP JUMPDEST JUMPDEST PUSH2 0x30F8 DUP5 DUP3 DUP6 ADD PUSH2 0x2BAE JUMP JUMPDEST SWAP2 POP POP SWAP3 SWAP2 POP POP JUMP JUMPDEST PUSH2 0x310A DUP2 PUSH2 0x2936 JUMP JUMPDEST DUP2 EQ PUSH2 0x3115 JUMPI PUSH1 0x0 DUP1 REVERT JUMPDEST POP JUMP JUMPDEST PUSH1 0x0 DUP2 CALLDATALOAD SWAP1 POP PUSH2 0x3127 DUP2 PUSH2 0x3101 JUMP JUMPDEST SWAP3 SWAP2 POP POP JUMP JUMPDEST PUSH1 0x0 DUP1 PUSH1 0x40 DUP4 DUP6 SUB SLT ISZERO PUSH2 0x3144 JUMPI PUSH2 0x3143 PUSH2 0x27A9 JUMP JUMPDEST JUMPDEST PUSH1 0x0 PUSH2 0x3152 DUP6 DUP3 DUP7 ADD PUSH2 0x27FC JUMP JUMPDEST SWAP3 POP POP PUSH1 0x20 PUSH2 0x3163 DUP6 DUP3 DUP7 ADD PUSH2 0x3118 JUMP JUMPDEST SWAP2 POP POP SWAP3 POP SWAP3 SWAP1 POP JUMP JUMPDEST PUSH1 0x0 DUP1 PUSH1 0x0 PUSH1 0x60 DUP5 DUP7 SUB SLT ISZERO PUSH2 0x3186 JUMPI PUSH2 0x3185 PUSH2 0x27A9 JUMP JUMPDEST JUMPDEST PUSH1 0x0 DUP5 ADD CALLDATALOAD PUSH8 0xFFFFFFFFFFFFFFFF DUP2 GT ISZERO PUSH2 0x31A4 JUMPI PUSH2 0x31A3 PUSH2 0x27AE JUMP JUMPDEST JUMPDEST PUSH2 0x31B0 DUP7 DUP3 DUP8 ADD PUSH2 0x2F32 JUMP JUMPDEST SWAP4 POP POP PUSH1 0x20 PUSH2 0x31C1 DUP7 DUP3 DUP8 ADD PUSH2 0x2832 JUMP JUMPDEST SWAP3 POP POP PUSH1 0x40 DUP5 ADD CALLDATALOAD PUSH8 0xFFFFFFFFFFFFFFFF DUP2 GT ISZERO PUSH2 0x31E2 JUMPI PUSH2 0x31E1 PUSH2 0x27AE JUMP JUMPDEST JUMPDEST PUSH2 0x31EE DUP7 DUP3 DUP8 ADD PUSH2 0x2CFF JUMP JUMPDEST SWAP2 POP POP SWAP3 POP SWAP3 POP SWAP3 JUMP JUMPDEST PUSH2 0x3201 DUP2 PUSH2 0x27D3 JUMP JUMPDEST DUP3 MSTORE POP POP JUMP JUMPDEST PUSH1 0x0 PUSH1 0x20 DUP3 ADD SWAP1 POP PUSH2 0x321C PUSH1 0x0 DUP4 ADD DUP5 PUSH2 0x31F8 JUMP JUMPDEST SWAP3 SWAP2 POP POP JUMP JUMPDEST PUSH1 0x0 DUP1 PUSH1 0x40 DUP4 DUP6 SUB SLT ISZERO PUSH2 0x3239 JUMPI PUSH2 0x3238 PUSH2 0x27A9 JUMP JUMPDEST JUMPDEST PUSH1 0x0 PUSH2 0x3247 DUP6 DUP3 DUP7 ADD PUSH2 0x27FC JUMP JUMPDEST SWAP3 POP POP PUSH1 0x20 PUSH2 0x3258 DUP6 DUP3 DUP7 ADD PUSH2 0x27FC JUMP JUMPDEST SWAP2 POP POP SWAP3 POP SWAP3 SWAP1 POP JUMP JUMPDEST PUSH1 0x0 DUP1 PUSH1 0x0 DUP1 PUSH1 0x0 PUSH1 0xA0 DUP7 DUP9 SUB SLT ISZERO PUSH2 0x327E JUMPI PUSH2 0x327D PUSH2 0x27A9 JUMP JUMPDEST JUMPDEST PUSH1 0x0 PUSH2 0x328C DUP9 DUP3 DUP10 ADD PUSH2 0x27FC JUMP JUMPDEST SWAP6 POP POP PUSH1 0x20 PUSH2 0x329D DUP9 DUP3 DUP10 ADD PUSH2 0x27FC JUMP JUMPDEST SWAP5 POP POP PUSH1 0x40 PUSH2 0x32AE DUP9 DUP3 DUP10 ADD PUSH2 0x2832 JUMP JUMPDEST SWAP4 POP POP PUSH1 0x60 PUSH2 0x32BF DUP9 DUP3 DUP10 ADD PUSH2 0x2832 JUMP JUMPDEST SWAP3 POP POP PUSH1 0x80 DUP7 ADD CALLDATALOAD PUSH8 0xFFFFFFFFFFFFFFFF DUP2 GT ISZERO PUSH2 0x32E0 JUMPI PUSH2 0x32DF PUSH2 0x27AE JUMP JUMPDEST JUMPDEST PUSH2 0x32EC DUP9 DUP3 DUP10 ADD PUSH2 0x2DA0 JUMP JUMPDEST SWAP2 POP POP SWAP3 SWAP6 POP SWAP3 SWAP6 SWAP1 SWAP4 POP JUMP JUMPDEST PUSH32 0x455243313135353A2061646472657373207A65726F206973206E6F7420612076 PUSH1 0x0 DUP3 ADD MSTORE PUSH32 0x616C6964206F776E657200000000000000000000000000000000000000000000 PUSH1 0x20 DUP3 ADD MSTORE POP JUMP JUMPDEST PUSH1 0x0 PUSH2 0x3355 PUSH1 0x2A DUP4 PUSH2 0x2977 JUMP JUMPDEST SWAP2 POP PUSH2 0x3360 DUP3 PUSH2 0x32F9 JUMP JUMPDEST PUSH1 0x40 DUP3 ADD SWAP1 POP SWAP2 SWAP1 POP JUMP JUMPDEST PUSH1 0x0 PUSH1 0x20 DUP3 ADD SWAP1 POP DUP2 DUP2 SUB PUSH1 0x0 DUP4 ADD MSTORE PUSH2 0x3384 DUP2 PUSH2 0x3348 JUMP JUMPDEST SWAP1 POP SWAP2 SWAP1 POP JUMP JUMPDEST PUSH32 0x4E487B7100000000000000000000000000000000000000000000000000000000 PUSH1 0x0 MSTORE PUSH1 0x22 PUSH1 0x4 MSTORE PUSH1 0x24 PUSH1 0x0 REVERT JUMPDEST PUSH1 0x0 PUSH1 0x2 DUP3 DIV SWAP1 POP PUSH1 0x1 DUP3 AND DUP1 PUSH2 0x33D2 JUMPI PUSH1 0x7F DUP3 AND SWAP2 POP JUMPDEST PUSH1 0x20 DUP3 LT DUP2 SUB PUSH2 0x33E5 JUMPI PUSH2 0x33E4 PUSH2 0x338B JUMP JUMPDEST JUMPDEST POP SWAP2 SWAP1 POP JUMP JUMPDEST PUSH1 0x0 DUP2 SWAP1 POP SWAP3 SWAP2 POP POP JUMP JUMPDEST PUSH1 0x0 DUP2 SWAP1 POP DUP2 PUSH1 0x0 MSTORE PUSH1 0x20 PUSH1 0x0 KECCAK256 SWAP1 POP SWAP2 SWAP1 POP JUMP JUMPDEST PUSH1 0x0 DUP2 SLOAD PUSH2 0x3418 DUP2 PUSH2 0x33BA JUMP JUMPDEST PUSH2 0x3422 DUP2 DUP7 PUSH2 0x33EB JUMP JUMPDEST SWAP5 POP PUSH1 0x1 DUP3 AND PUSH1 0x0 DUP2 EQ PUSH2 0x343D JUMPI PUSH1 0x1 DUP2 EQ PUSH2 0x3452 JUMPI PUSH2 0x3485 JUMP JUMPDEST PUSH1 0xFF NOT DUP4 AND DUP7 MSTORE DUP2 ISZERO ISZERO DUP3 MUL DUP7 ADD SWAP4 POP PUSH2 0x3485 JUMP JUMPDEST PUSH2 0x345B DUP6 PUSH2 0x33F6 JUMP JUMPDEST PUSH1 0x0 JUMPDEST DUP4 DUP2 LT ISZERO PUSH2 0x347D JUMPI DUP2 SLOAD DUP2 DUP10 ADD MSTORE PUSH1 0x1 DUP3 ADD SWAP2 POP PUSH1 0x20 DUP2 ADD SWAP1 POP PUSH2 0x345E JUMP JUMPDEST DUP4 DUP9 ADD SWAP6 POP POP POP JUMPDEST POP POP POP SWAP3 SWAP2 POP POP JUMP JUMPDEST PUSH1 0x0 PUSH2 0x3499 DUP3 PUSH2 0x296C JUMP JUMPDEST PUSH2 0x34A3 DUP2 DUP6 PUSH2 0x33EB JUMP JUMPDEST SWAP4 POP PUSH2 0x34B3 DUP2 DUP6 PUSH1 0x20 DUP7 ADD PUSH2 0x2988 JUMP JUMPDEST DUP1 DUP5 ADD SWAP2 POP POP SWAP3 SWAP2 POP POP JUMP JUMPDEST PUSH1 0x0 PUSH2 0x34CB DUP3 DUP6 PUSH2 0x340B JUMP JUMPDEST SWAP2 POP PUSH2 0x34D7 DUP3 DUP5 PUSH2 0x348E JUMP JUMPDEST SWAP2 POP DUP2 SWAP1 POP SWAP4 SWAP3 POP POP POP JUMP JUMPDEST PUSH32 0x4E6F7420696E697469616C697A65640000000000000000000000000000000000 PUSH1 0x0 DUP3 ADD MSTORE POP JUMP JUMPDEST PUSH1 0x0 PUSH2 0x3519 PUSH1 0xF DUP4 PUSH2 0x2977 JUMP JUMPDEST SWAP2 POP PUSH2 0x3524 DUP3 PUSH2 0x34E3 JUMP JUMPDEST PUSH1 0x20 DUP3 ADD SWAP1 POP SWAP2 SWAP1 POP JUMP JUMPDEST PUSH1 0x0 PUSH1 0x20 DUP3 ADD SWAP1 POP DUP2 DUP2 SUB PUSH1 0x0 DUP4 ADD MSTORE PUSH2 0x3548 DUP2 PUSH2 0x350C JUMP JUMPDEST SWAP1 POP SWAP2 SWAP1 POP JUMP JUMPDEST PUSH32 0x455243313135353A2063616C6C6572206973206E6F7420746F6B656E206F776E PUSH1 0x0 DUP3 ADD MSTORE PUSH32 0x6572206F7220617070726F766564000000000000000000000000000000000000 PUSH1 0x20 DUP3 ADD MSTORE POP JUMP JUMPDEST PUSH1 0x0 PUSH2 0x35AB PUSH1 0x2E DUP4 PUSH2 0x2977 JUMP JUMPDEST SWAP2 POP PUSH2 0x35B6 DUP3 PUSH2 0x354F JUMP JUMPDEST PUSH1 0x40 DUP3 ADD SWAP1 POP SWAP2 SWAP1 POP JUMP JUMPDEST PUSH1 0x0 PUSH1 0x20 DUP3 ADD SWAP1 POP DUP2 DUP2 SUB PUSH1 0x0 DUP4 ADD MSTORE PUSH2 0x35DA DUP2 PUSH2 0x359E JUMP JUMPDEST SWAP1 POP SWAP2 SWAP1 POP JUMP JUMPDEST PUSH32 0x455243313135353A206163636F756E747320616E6420696473206C656E677468 PUSH1 0x0 DUP3 ADD MSTORE PUSH32 0x206D69736D617463680000000000000000000000000000000000000000000000 PUSH1 0x20 DUP3 ADD MSTORE POP JUMP JUMPDEST PUSH1 0x0 PUSH2 0x363D PUSH1 0x29 DUP4 PUSH2 0x2977 JUMP JUMPDEST SWAP2 POP PUSH2 0x3648 DUP3 PUSH2 0x35E1 JUMP JUMPDEST PUSH1 0x40 DUP3 ADD SWAP1 POP SWAP2 SWAP1 POP JUMP JUMPDEST PUSH1 0x0 PUSH1 0x20 DUP3 ADD SWAP1 POP DUP2 DUP2 SUB PUSH1 0x0 DUP4 ADD MSTORE PUSH2 0x366C DUP2 PUSH2 0x3630 JUMP JUMPDEST SWAP1 POP SWAP2 SWAP1 POP JUMP JUMPDEST PUSH32 0x4E487B7100000000000000000000000000000000000000000000000000000000 PUSH1 0x0 MSTORE PUSH1 0x32 PUSH1 0x4 MSTORE PUSH1 0x24 PUSH1 0x0 REVERT JUMPDEST PUSH32 0x4E487B7100000000000000000000000000000000000000000000000000000000 PUSH1 0x0 MSTORE PUSH1 0x11 PUSH1 0x4 MSTORE PUSH1 0x24 PUSH1 0x0 REVERT JUMPDEST PUSH1 0x0 PUSH2 0x36DC DUP3 PUSH2 0x2811 JUMP JUMPDEST SWAP2 POP PUSH32 0xFFFFFFFFFFFFFFFFFFFFFFFFFFFFFFFFFFFFFFFFFFFFFFFFFFFFFFFFFFFFFFFF DUP3 SUB PUSH2 0x370E JUMPI PUSH2 0x370D PUSH2 0x36A2 JUMP JUMPDEST JUMPDEST PUSH1 0x1 DUP3 ADD SWAP1 POP SWAP2 SWAP1 POP JUMP JUMPDEST PUSH32 0x53425420616C7265616479206578697374730000000000000000000000000000 PUSH1 0x0 DUP3 ADD MSTORE POP JUMP JUMPDEST PUSH1 0x0 PUSH2 0x374F PUSH1 0x12 DUP4 PUSH2 0x2977 JUMP JUMPDEST SWAP2 POP PUSH2 0x375A DUP3 PUSH2 0x3719 JUMP JUMPDEST PUSH1 0x20 DUP3 ADD SWAP1 POP SWAP2 SWAP1 POP JUMP JUMPDEST PUSH1 0x0 PUSH1 0x20 DUP3 ADD SWAP1 POP DUP2 DUP2 SUB PUSH1 0x0 DUP4 ADD MSTORE PUSH2 0x377E DUP2 PUSH2 0x3742 JUMP JUMPDEST SWAP1 POP SWAP2 SWAP1 POP JUMP JUMPDEST PUSH32 0x43616E6E6F7420617070726F76652C207472616E7366657272696E67206E6F74 PUSH1 0x0 DUP3 ADD MSTORE PUSH32 0x20616C6C6F776564000000000000000000000000000000000000000000000000 PUSH1 0x20 DUP3 ADD MSTORE POP JUMP JUMPDEST PUSH1 0x0 PUSH2 0x37E1 PUSH1 0x28 DUP4 PUSH2 0x2977 JUMP JUMPDEST SWAP2 POP PUSH2 0x37EC DUP3 PUSH2 0x3785 JUMP JUMPDEST PUSH1 0x40 DUP3 ADD SWAP1 POP SWAP2 SWAP1 POP JUMP JUMPDEST PUSH1 0x0 PUSH1 0x20 DUP3 ADD SWAP1 POP DUP2 DUP2 SUB PUSH1 0x0 DUP4 ADD MSTORE PUSH2 0x3810 DUP2 PUSH2 0x37D4 JUMP JUMPDEST SWAP1 POP SWAP2 SWAP1 POP JUMP JUMPDEST PUSH32 0x4F776E61626C653A206E6577206F776E657220697320746865207A65726F2061 PUSH1 0x0 DUP3 ADD MSTORE PUSH32 0x6464726573730000000000000000000000000000000000000000000000000000 PUSH1 0x20 DUP3 ADD MSTORE POP JUMP JUMPDEST PUSH1 0x0 PUSH2 0x3873 PUSH1 0x26 DUP4 PUSH2 0x2977 JUMP JUMPDEST SWAP2 POP PUSH2 0x387E DUP3 PUSH2 0x3817 JUMP JUMPDEST PUSH1 0x40 DUP3 ADD SWAP1 POP SWAP2 SWAP1 POP JUMP JUMPDEST PUSH1 0x0 PUSH1 0x20 DUP3 ADD SWAP1 POP DUP2 DUP2 SUB PUSH1 0x0 DUP4 ADD MSTORE PUSH2 0x38A2 DUP2 PUSH2 0x3866 JUMP JUMPDEST SWAP1 POP SWAP2 SWAP1 POP JUMP JUMPDEST PUSH1 0x0 PUSH2 0x38B4 DUP3 PUSH2 0x2811 JUMP JUMPDEST SWAP2 POP PUSH2 0x38BF DUP4 PUSH2 0x2811 JUMP JUMPDEST SWAP3 POP DUP2 PUSH32 0xFFFFFFFFFFFFFFFFFFFFFFFFFFFFFFFFFFFFFFFFFFFFFFFFFFFFFFFFFFFFFFFF DIV DUP4 GT DUP3 ISZERO ISZERO AND ISZERO PUSH2 0x38F8 JUMPI PUSH2 0x38F7 PUSH2 0x36A2 JUMP JUMPDEST JUMPDEST DUP3 DUP3 MUL SWAP1 POP SWAP3 SWAP2 POP POP JUMP JUMPDEST PUSH1 0x0 PUSH2 0x390E DUP3 PUSH2 0x2811 JUMP JUMPDEST SWAP2 POP PUSH2 0x3919 DUP4 PUSH2 0x2811 JUMP JUMPDEST SWAP3 POP DUP3 PUSH32 0xFFFFFFFFFFFFFFFFFFFFFFFFFFFFFFFFFFFFFFFFFFFFFFFFFFFFFFFFFFFFFFFF SUB DUP3 GT ISZERO PUSH2 0x394E JUMPI PUSH2 0x394D PUSH2 0x36A2 JUMP JUMPDEST JUMPDEST DUP3 DUP3 ADD SWAP1 POP SWAP3 SWAP2 POP POP JUMP JUMPDEST PUSH1 0x0 PUSH2 0x3964 DUP3 PUSH2 0x2811 JUMP JUMPDEST SWAP2 POP PUSH1 0x0 DUP3 SUB PUSH2 0x3977 JUMPI PUSH2 0x3976 PUSH2 0x36A2 JUMP JUMPDEST JUMPDEST PUSH1 0x1 DUP3 SUB SWAP1 POP SWAP2 SWAP1 POP JUMP JUMPDEST PUSH32 0x537472696E67733A20686578206C656E67746820696E73756666696369656E74 PUSH1 0x0 DUP3 ADD MSTORE POP JUMP JUMPDEST PUSH1 0x0 PUSH2 0x39B8 PUSH1 0x20 DUP4 PUSH2 0x2977 JUMP JUMPDEST SWAP2 POP PUSH2 0x39C3 DUP3 PUSH2 0x3982 JUMP JUMPDEST PUSH1 0x20 DUP3 ADD SWAP1 POP SWAP2 SWAP1 POP JUMP JUMPDEST PUSH1 0x0 PUSH1 0x20 DUP3 ADD SWAP1 POP DUP2 DUP2 SUB PUSH1 0x0 DUP4 ADD MSTORE PUSH2 0x39E7 DUP2 PUSH2 0x39AB JUMP JUMPDEST SWAP1 POP SWAP2 SWAP1 POP JUMP JUMPDEST PUSH32 0x6163636F756E7420000000000000000000000000000000000000000000000000 PUSH1 0x0 DUP3 ADD MSTORE POP JUMP JUMPDEST PUSH1 0x0 PUSH2 0x3A24 PUSH1 0x8 DUP4 PUSH2 0x33EB JUMP JUMPDEST SWAP2 POP PUSH2 0x3A2F DUP3 PUSH2 0x39EE JUMP JUMPDEST PUSH1 0x8 DUP3 ADD SWAP1 POP SWAP2 SWAP1 POP JUMP JUMPDEST PUSH32 0x206973206E6F7420616E206F70657261746F7200000000000000000000000000 PUSH1 0x0 DUP3 ADD MSTORE POP JUMP JUMPDEST PUSH1 0x0 PUSH2 0x3A70 PUSH1 0x13 DUP4 PUSH2 0x33EB JUMP JUMPDEST SWAP2 POP PUSH2 0x3A7B DUP3 PUSH2 0x3A3A JUMP JUMPDEST PUSH1 0x13 DUP3 ADD SWAP1 POP SWAP2 SWAP1 POP JUMP JUMPDEST PUSH1 0x0 PUSH2 0x3A91 DUP3 PUSH2 0x3A17 JUMP JUMPDEST SWAP2 POP PUSH2 0x3A9D DUP3 DUP5 PUSH2 0x348E JUMP JUMPDEST SWAP2 POP PUSH2 0x3AA8 DUP3 PUSH2 0x3A63 JUMP JUMPDEST SWAP2 POP DUP2 SWAP1 POP SWAP3 SWAP2 POP POP JUMP JUMPDEST PUSH32 0x455243313135353A206D696E7420746F20746865207A65726F20616464726573 PUSH1 0x0 DUP3 ADD MSTORE PUSH32 0x7300000000000000000000000000000000000000000000000000000000000000 PUSH1 0x20 DUP3 ADD MSTORE POP JUMP JUMPDEST PUSH1 0x0 PUSH2 0x3B0F PUSH1 0x21 DUP4 PUSH2 0x2977 JUMP JUMPDEST SWAP2 POP PUSH2 0x3B1A DUP3 PUSH2 0x3AB3 JUMP JUMPDEST PUSH1 0x40 DUP3 ADD SWAP1 POP SWAP2 SWAP1 POP JUMP JUMPDEST PUSH1 0x0 PUSH1 0x20 DUP3 ADD SWAP1 POP DUP2 DUP2 SUB PUSH1 0x0 DUP4 ADD MSTORE PUSH2 0x3B3E DUP2 PUSH2 0x3B02 JUMP JUMPDEST SWAP1 POP SWAP2 SWAP1 POP JUMP JUMPDEST PUSH1 0x0 PUSH1 0x40 DUP3 ADD SWAP1 POP PUSH2 0x3B5A PUSH1 0x0 DUP4 ADD DUP6 PUSH2 0x2887 JUMP JUMPDEST PUSH2 0x3B67 PUSH1 0x20 DUP4 ADD DUP5 PUSH2 0x2887 JUMP JUMPDEST SWAP4 SWAP3 POP POP POP JUMP JUMPDEST PUSH1 0x0 PUSH1 0x20 PUSH1 0x1F DUP4 ADD DIV SWAP1 POP SWAP2 SWAP1 POP JUMP JUMPDEST PUSH1 0x0 DUP3 DUP3 SHL SWAP1 POP SWAP3 SWAP2 POP POP JUMP JUMPDEST PUSH1 0x0 PUSH1 0x8 DUP4 MUL PUSH2 0x3BBB PUSH32 0xFFFFFFFFFFFFFFFFFFFFFFFFFFFFFFFFFFFFFFFFFFFFFFFFFFFFFFFFFFFFFFFF DUP3 PUSH2 0x3B7E JUMP JUMPDEST PUSH2 0x3BC5 DUP7 DUP4 PUSH2 0x3B7E JUMP JUMPDEST SWAP6 POP DUP1 NOT DUP5 AND SWAP4 POP DUP1 DUP7 AND DUP5 OR SWAP3 POP POP POP SWAP4 SWAP3 POP POP POP JUMP JUMPDEST PUSH1 0x0 DUP2 SWAP1 POP SWAP2 SWAP1 POP JUMP JUMPDEST PUSH1 0x0 PUSH2 0x3C02 PUSH2 0x3BFD PUSH2 0x3BF8 DUP5 PUSH2 0x2811 JUMP JUMPDEST PUSH2 0x3BDD JUMP JUMPDEST PUSH2 0x2811 JUMP JUMPDEST SWAP1 POP SWAP2 SWAP1 POP JUMP JUMPDEST PUSH1 0x0 DUP2 SWAP1 POP SWAP2 SWAP1 POP JUMP JUMPDEST PUSH2 0x3C1C DUP4 PUSH2 0x3BE7 JUMP JUMPDEST PUSH2 0x3C30 PUSH2 0x3C28 DUP3 PUSH2 0x3C09 JUMP JUMPDEST DUP5 DUP5 SLOAD PUSH2 0x3B8B JUMP JUMPDEST DUP3 SSTORE POP POP POP POP JUMP JUMPDEST PUSH1 0x0 SWAP1 JUMP JUMPDEST PUSH2 0x3C45 PUSH2 0x3C38 JUMP JUMPDEST PUSH2 0x3C50 DUP2 DUP5 DUP5 PUSH2 0x3C13 JUMP JUMPDEST POP POP POP JUMP JUMPDEST JUMPDEST DUP2 DUP2 LT ISZERO PUSH2 0x3C74 JUMPI PUSH2 0x3C69 PUSH1 0x0 DUP3 PUSH2 0x3C3D JUMP JUMPDEST PUSH1 0x1 DUP2 ADD SWAP1 POP PUSH2 0x3C56 JUMP JUMPDEST POP POP JUMP JUMPDEST PUSH1 0x1F DUP3 GT ISZERO PUSH2 0x3CB9 JUMPI PUSH2 0x3C8A DUP2 PUSH2 0x33F6 JUMP JUMPDEST PUSH2 0x3C93 DUP5 PUSH2 0x3B6E JUMP JUMPDEST DUP2 ADD PUSH1 0x20 DUP6 LT ISZERO PUSH2 0x3CA2 JUMPI DUP2 SWAP1 POP JUMPDEST PUSH2 0x3CB6 PUSH2 0x3CAE DUP6 PUSH2 0x3B6E JUMP JUMPDEST DUP4 ADD DUP3 PUSH2 0x3C55 JUMP JUMPDEST POP POP JUMPDEST POP POP POP JUMP JUMPDEST PUSH1 0x0 DUP3 DUP3 SHR SWAP1 POP SWAP3 SWAP2 POP POP JUMP JUMPDEST PUSH1 0x0 PUSH2 0x3CDC PUSH1 0x0 NOT DUP5 PUSH1 0x8 MUL PUSH2 0x3CBE JUMP JUMPDEST NOT DUP1 DUP4 AND SWAP2 POP POP SWAP3 SWAP2 POP POP JUMP JUMPDEST PUSH1 0x0 PUSH2 0x3CF5 DUP4 DUP4 PUSH2 0x3CCB JUMP JUMPDEST SWAP2 POP DUP3 PUSH1 0x2 MUL DUP3 OR SWAP1 POP SWAP3 SWAP2 POP POP JUMP JUMPDEST PUSH2 0x3D0E DUP3 PUSH2 0x296C JUMP JUMPDEST PUSH8 0xFFFFFFFFFFFFFFFF DUP2 GT ISZERO PUSH2 0x3D27 JUMPI PUSH2 0x3D26 PUSH2 0x2AB1 JUMP JUMPDEST JUMPDEST PUSH2 0x3D31 DUP3 SLOAD PUSH2 0x33BA JUMP JUMPDEST PUSH2 0x3D3C DUP3 DUP3 DUP6 PUSH2 0x3C78 JUMP JUMPDEST PUSH1 0x0 PUSH1 0x20 SWAP1 POP PUSH1 0x1F DUP4 GT PUSH1 0x1 DUP2 EQ PUSH2 0x3D6F JUMPI PUSH1 0x0 DUP5 ISZERO PUSH2 0x3D5D JUMPI DUP3 DUP8 ADD MLOAD SWAP1 POP JUMPDEST PUSH2 0x3D67 DUP6 DUP3 PUSH2 0x3CE9 JUMP JUMPDEST DUP7 SSTORE POP PUSH2 0x3DCF JUMP JUMPDEST PUSH1 0x1F NOT DUP5 AND PUSH2 0x3D7D DUP7 PUSH2 0x33F6 JUMP JUMPDEST PUSH1 0x0 JUMPDEST DUP3 DUP2 LT ISZERO PUSH2 0x3DA5 JUMPI DUP5 DUP10 ADD MLOAD DUP3 SSTORE PUSH1 0x1 DUP3 ADD SWAP2 POP PUSH1 0x20 DUP6 ADD SWAP5 POP PUSH1 0x20 DUP2 ADD SWAP1 POP PUSH2 0x3D80 JUMP JUMPDEST DUP7 DUP4 LT ISZERO PUSH2 0x3DC2 JUMPI DUP5 DUP10 ADD MLOAD PUSH2 0x3DBE PUSH1 0x1F DUP10 AND DUP3 PUSH2 0x3CCB JUMP JUMPDEST DUP4 SSTORE POP JUMPDEST PUSH1 0x1 PUSH1 0x2 DUP9 MUL ADD DUP9 SSTORE POP POP POP JUMPDEST POP POP POP POP POP POP JUMP JUMPDEST PUSH32 0x4F776E61626C653A2063616C6C6572206973206E6F7420746865206F776E6572 PUSH1 0x0 DUP3 ADD MSTORE POP JUMP JUMPDEST PUSH1 0x0 PUSH2 0x3E0D PUSH1 0x20 DUP4 PUSH2 0x2977 JUMP JUMPDEST SWAP2 POP PUSH2 0x3E18 DUP3 PUSH2 0x3DD7 JUMP JUMPDEST PUSH1 0x20 DUP3 ADD SWAP1 POP SWAP2 SWAP1 POP JUMP JUMPDEST PUSH1 0x0 PUSH1 0x20 DUP3 ADD SWAP1 POP DUP2 DUP2 SUB PUSH1 0x0 DUP4 ADD MSTORE PUSH2 0x3E3C DUP2 PUSH2 0x3E00 JUMP JUMPDEST SWAP1 POP SWAP2 SWAP1 POP JUMP JUMPDEST PUSH32 0x20697320616C72656164792068617320616E206F70657261746F7220726F6C65 PUSH1 0x0 DUP3 ADD MSTORE POP JUMP JUMPDEST PUSH1 0x0 PUSH2 0x3E79 PUSH1 0x20 DUP4 PUSH2 0x33EB JUMP JUMPDEST SWAP2 POP PUSH2 0x3E84 DUP3 PUSH2 0x3E43 JUMP JUMPDEST PUSH1 0x20 DUP3 ADD SWAP1 POP SWAP2 SWAP1 POP JUMP JUMPDEST PUSH1 0x0 PUSH2 0x3E9A DUP3 PUSH2 0x3A17 JUMP JUMPDEST SWAP2 POP PUSH2 0x3EA6 DUP3 DUP5 PUSH2 0x348E JUMP JUMPDEST SWAP2 POP PUSH2 0x3EB1 DUP3 PUSH2 0x3E6C JUMP JUMPDEST SWAP2 POP DUP2 SWAP1 POP SWAP3 SWAP2 POP POP JUMP JUMPDEST PUSH32 0x455243313135353A2069647320616E6420616D6F756E7473206C656E67746820 PUSH1 0x0 DUP3 ADD MSTORE PUSH32 0x6D69736D61746368000000000000000000000000000000000000000000000000 PUSH1 0x20 DUP3 ADD MSTORE POP JUMP JUMPDEST PUSH1 0x0 PUSH2 0x3F18 PUSH1 0x28 DUP4 PUSH2 0x2977 JUMP JUMPDEST SWAP2 POP PUSH2 0x3F23 DUP3 PUSH2 0x3EBC JUMP JUMPDEST PUSH1 0x40 DUP3 ADD SWAP1 POP SWAP2 SWAP1 POP JUMP JUMPDEST PUSH1 0x0 PUSH1 0x20 DUP3 ADD SWAP1 POP DUP2 DUP2 SUB PUSH1 0x0 DUP4 ADD MSTORE PUSH2 0x3F47 DUP2 PUSH2 0x3F0B JUMP JUMPDEST SWAP1 POP SWAP2 SWAP1 POP JUMP JUMPDEST PUSH32 0x455243313135353A207472616E7366657220746F20746865207A65726F206164 PUSH1 0x0 DUP3 ADD MSTORE PUSH32 0x6472657373000000000000000000000000000000000000000000000000000000 PUSH1 0x20 DUP3 ADD MSTORE POP JUMP JUMPDEST PUSH1 0x0 PUSH2 0x3FAA PUSH1 0x25 DUP4 PUSH2 0x2977 JUMP JUMPDEST SWAP2 POP PUSH2 0x3FB5 DUP3 PUSH2 0x3F4E JUMP JUMPDEST PUSH1 0x40 DUP3 ADD SWAP1 POP SWAP2 SWAP1 POP JUMP JUMPDEST PUSH1 0x0 PUSH1 0x20 DUP3 ADD SWAP1 POP DUP2 DUP2 SUB PUSH1 0x0 DUP4 ADD MSTORE PUSH2 0x3FD9 DUP2 PUSH2 0x3F9D JUMP JUMPDEST SWAP1 POP SWAP2 SWAP1 POP JUMP JUMPDEST PUSH32 0x455243313135353A20696E73756666696369656E742062616C616E636520666F PUSH1 0x0 DUP3 ADD MSTORE PUSH32 0x72207472616E7366657200000000000000000000000000000000000000000000 PUSH1 0x20 DUP3 ADD MSTORE POP JUMP JUMPDEST PUSH1 0x0 PUSH2 0x403C PUSH1 0x2A DUP4 PUSH2 0x2977 JUMP JUMPDEST SWAP2 POP PUSH2 0x4047 DUP3 PUSH2 0x3FE0 JUMP JUMPDEST PUSH1 0x40 DUP3 ADD SWAP1 POP SWAP2 SWAP1 POP JUMP JUMPDEST PUSH1 0x0 PUSH1 0x20 DUP3 ADD SWAP1 POP DUP2 DUP2 SUB PUSH1 0x0 DUP4 ADD MSTORE PUSH2 0x406B DUP2 PUSH2 0x402F JUMP JUMPDEST SWAP1 POP SWAP2 SWAP1 POP JUMP JUMPDEST PUSH1 0x0 PUSH1 0x40 DUP3 ADD SWAP1 POP DUP2 DUP2 SUB PUSH1 0x0 DUP4 ADD MSTORE PUSH2 0x408C DUP2 DUP6 PUSH2 0x3038 JUMP JUMPDEST SWAP1 POP DUP2 DUP2 SUB PUSH1 0x20 DUP4 ADD MSTORE PUSH2 0x40A0 DUP2 DUP5 PUSH2 0x3038 JUMP JUMPDEST SWAP1 POP SWAP4 SWAP3 POP POP POP JUMP JUMPDEST PUSH32 0x455243313135353A206275726E2066726F6D20746865207A65726F2061646472 PUSH1 0x0 DUP3 ADD MSTORE PUSH32 0x6573730000000000000000000000000000000000000000000000000000000000 PUSH1 0x20 DUP3 ADD MSTORE POP JUMP JUMPDEST PUSH1 0x0 PUSH2 0x4105 PUSH1 0x23 DUP4 PUSH2 0x2977 JUMP JUMPDEST SWAP2 POP PUSH2 0x4110 DUP3 PUSH2 0x40A9 JUMP JUMPDEST PUSH1 0x40 DUP3 ADD SWAP1 POP SWAP2 SWAP1 POP JUMP JUMPDEST PUSH1 0x0 PUSH1 0x20 DUP3 ADD SWAP1 POP DUP2 DUP2 SUB PUSH1 0x0 DUP4 ADD MSTORE PUSH2 0x4134 DUP2 PUSH2 0x40F8 JUMP JUMPDEST SWAP1 POP SWAP2 SWAP1 POP JUMP JUMPDEST PUSH32 0x455243313135353A206275726E20616D6F756E7420657863656564732062616C PUSH1 0x0 DUP3 ADD MSTORE PUSH32 0x616E636500000000000000000000000000000000000000000000000000000000 PUSH1 0x20 DUP3 ADD MSTORE POP JUMP JUMPDEST PUSH1 0x0 PUSH2 0x4197 PUSH1 0x24 DUP4 PUSH2 0x2977 JUMP JUMPDEST SWAP2 POP PUSH2 0x41A2 DUP3 PUSH2 0x413B JUMP JUMPDEST PUSH1 0x40 DUP3 ADD SWAP1 POP SWAP2 SWAP1 POP JUMP JUMPDEST PUSH1 0x0 PUSH1 0x20 DUP3 ADD SWAP1 POP DUP2 DUP2 SUB PUSH1 0x0 DUP4 ADD MSTORE PUSH2 0x41C6 DUP2 PUSH2 0x418A JUMP JUMPDEST SWAP1 POP SWAP2 SWAP1 POP JUMP JUMPDEST PUSH32 0x455243313135353A2073657474696E6720617070726F76616C20737461747573 PUSH1 0x0 DUP3 ADD MSTORE PUSH32 0x20666F722073656C660000000000000000000000000000000000000000000000 PUSH1 0x20 DUP3 ADD MSTORE POP JUMP JUMPDEST PUSH1 0x0 PUSH2 0x4229 PUSH1 0x29 DUP4 PUSH2 0x2977 JUMP JUMPDEST SWAP2 POP PUSH2 0x4234 DUP3 PUSH2 0x41CD JUMP JUMPDEST PUSH1 0x40 DUP3 ADD SWAP1 POP SWAP2 SWAP1 POP JUMP JUMPDEST PUSH1 0x0 PUSH1 0x20 DUP3 ADD SWAP1 POP DUP2 DUP2 SUB PUSH1 0x0 DUP4 ADD MSTORE PUSH2 0x4258 DUP2 PUSH2 0x421C JUMP JUMPDEST SWAP1 POP SWAP2 SWAP1 POP JUMP JUMPDEST PUSH32 0x53656E64204E4654206E6F7420616C6C6F776564000000000000000000000000 PUSH1 0x0 DUP3 ADD MSTORE POP JUMP JUMPDEST PUSH1 0x0 PUSH2 0x4295 PUSH1 0x14 DUP4 PUSH2 0x2977 JUMP JUMPDEST SWAP2 POP PUSH2 0x42A0 DUP3 PUSH2 0x425F JUMP JUMPDEST PUSH1 0x20 DUP3 ADD SWAP1 POP SWAP2 SWAP1 POP JUMP JUMPDEST PUSH1 0x0 PUSH1 0x20 DUP3 ADD SWAP1 POP DUP2 DUP2 SUB PUSH1 0x0 DUP4 ADD MSTORE PUSH2 0x42C4 DUP2 PUSH2 0x4288 JUMP JUMPDEST SWAP1 POP SWAP2 SWAP1 POP JUMP JUMPDEST PUSH1 0x0 DUP2 MLOAD SWAP1 POP SWAP2 SWAP1 POP JUMP JUMPDEST PUSH1 0x0 DUP3 DUP3 MSTORE PUSH1 0x20 DUP3 ADD SWAP1 POP SWAP3 SWAP2 POP POP JUMP JUMPDEST PUSH1 0x0 PUSH2 0x42F2 DUP3 PUSH2 0x42CB JUMP JUMPDEST PUSH2 0x42FC DUP2 DUP6 PUSH2 0x42D6 JUMP JUMPDEST SWAP4 POP PUSH2 0x430C DUP2 DUP6 PUSH1 0x20 DUP7 ADD PUSH2 0x2988 JUMP JUMPDEST PUSH2 0x4315 DUP2 PUSH2 0x29BB JUMP JUMPDEST DUP5 ADD SWAP2 POP POP SWAP3 SWAP2 POP POP JUMP JUMPDEST PUSH1 0x0 PUSH1 0xA0 DUP3 ADD SWAP1 POP PUSH2 0x4335 PUSH1 0x0 DUP4 ADD DUP9 PUSH2 0x31F8 JUMP JUMPDEST PUSH2 0x4342 PUSH1 0x20 DUP4 ADD DUP8 PUSH2 0x31F8 JUMP JUMPDEST PUSH2 0x434F PUSH1 0x40 DUP4 ADD DUP7 PUSH2 0x2887 JUMP JUMPDEST PUSH2 0x435C PUSH1 0x60 DUP4 ADD DUP6 PUSH2 0x2887 JUMP JUMPDEST DUP2 DUP2 SUB PUSH1 0x80 DUP4 ADD MSTORE PUSH2 0x436E DUP2 DUP5 PUSH2 0x42E7 JUMP JUMPDEST SWAP1 POP SWAP7 SWAP6 POP POP POP POP POP POP JUMP JUMPDEST PUSH1 0x0 DUP2 MLOAD SWAP1 POP PUSH2 0x4389 DUP2 PUSH2 0x28DD JUMP JUMPDEST SWAP3 SWAP2 POP POP JUMP JUMPDEST PUSH1 0x0 PUSH1 0x20 DUP3 DUP5 SUB SLT ISZERO PUSH2 0x43A5 JUMPI PUSH2 0x43A4 PUSH2 0x27A9 JUMP JUMPDEST JUMPDEST PUSH1 0x0 PUSH2 0x43B3 DUP5 DUP3 DUP6 ADD PUSH2 0x437A JUMP JUMPDEST SWAP2 POP POP SWAP3 SWAP2 POP POP JUMP JUMPDEST PUSH1 0x0 DUP2 PUSH1 0xE0 SHR SWAP1 POP SWAP2 SWAP1 POP JUMP JUMPDEST PUSH1 0x0 PUSH1 0x3 RETURNDATASIZE GT ISZERO PUSH2 0x43E8 JUMPI PUSH1 0x4 PUSH1 0x0 DUP1 RETURNDATACOPY PUSH2 0x43E5 PUSH1 0x0 MLOAD PUSH2 0x43BC JUMP JUMPDEST SWAP1 POP JUMPDEST SWAP1 JUMP JUMPDEST PUSH1 0x0 PUSH1 0x44 RETURNDATASIZE LT PUSH2 0x4478 JUMPI PUSH2 0x43FD PUSH2 0x279F JUMP JUMPDEST PUSH1 0x4 RETURNDATASIZE SUB PUSH1 0x4 DUP3 RETURNDATACOPY DUP1 MLOAD RETURNDATASIZE PUSH1 0x24 DUP3 ADD GT PUSH8 0xFFFFFFFFFFFFFFFF DUP3 GT OR ISZERO PUSH2 0x4425 JUMPI POP POP PUSH2 0x4478 JUMP JUMPDEST DUP1 DUP3 ADD DUP1 MLOAD PUSH8 0xFFFFFFFFFFFFFFFF DUP2 GT ISZERO PUSH2 0x4443 JUMPI POP POP POP POP PUSH2 0x4478 JUMP JUMPDEST DUP1 PUSH1 0x20 DUP4 ADD ADD PUSH1 0x4 RETURNDATASIZE SUB DUP6 ADD DUP2 GT ISZERO PUSH2 0x4460 JUMPI POP POP POP POP POP PUSH2 0x4478 JUMP JUMPDEST PUSH2 0x446F DUP3 PUSH1 0x20 ADD DUP6 ADD DUP7 PUSH2 0x2AE0 JUMP JUMPDEST DUP3 SWAP6 POP POP POP POP POP POP JUMPDEST SWAP1 JUMP JUMPDEST PUSH32 0x455243313135353A207472616E7366657220746F206E6F6E2D45524331313535 PUSH1 0x0 DUP3 ADD MSTORE PUSH32 0x526563656976657220696D706C656D656E746572000000000000000000000000 PUSH1 0x20 DUP3 ADD MSTORE POP JUMP JUMPDEST PUSH1 0x0 PUSH2 0x44D7 PUSH1 0x34 DUP4 PUSH2 0x2977 JUMP JUMPDEST SWAP2 POP PUSH2 0x44E2 DUP3 PUSH2 0x447B JUMP JUMPDEST PUSH1 0x40 DUP3 ADD SWAP1 POP SWAP2 SWAP1 POP JUMP JUMPDEST PUSH1 0x0 PUSH1 0x20 DUP3 ADD SWAP1 POP DUP2 DUP2 SUB PUSH1 0x0 DUP4 ADD MSTORE PUSH2 0x4506 DUP2 PUSH2 0x44CA JUMP JUMPDEST SWAP1 POP SWAP2 SWAP1 POP JUMP JUMPDEST PUSH32 0x455243313135353A204552433131353552656365697665722072656A65637465 PUSH1 0x0 DUP3 ADD MSTORE PUSH32 0x6420746F6B656E73000000000000000000000000000000000000000000000000 PUSH1 0x20 DUP3 ADD MSTORE POP JUMP JUMPDEST PUSH1 0x0 PUSH2 0x4569 PUSH1 0x28 DUP4 PUSH2 0x2977 JUMP JUMPDEST SWAP2 POP PUSH2 0x4574 DUP3 PUSH2 0x450D JUMP JUMPDEST PUSH1 0x40 DUP3 ADD SWAP1 POP SWAP2 SWAP1 POP JUMP JUMPDEST PUSH1 0x0 PUSH1 0x20 DUP3 ADD SWAP1 POP DUP2 DUP2 SUB PUSH1 0x0 DUP4 ADD MSTORE PUSH2 0x4598 DUP2 PUSH2 0x455C JUMP JUMPDEST SWAP1 POP SWAP2 SWAP1 POP JUMP JUMPDEST PUSH1 0x0 PUSH1 0xA0 DUP3 ADD SWAP1 POP PUSH2 0x45B4 PUSH1 0x0 DUP4 ADD DUP9 PUSH2 0x31F8 JUMP JUMPDEST PUSH2 0x45C1 PUSH1 0x20 DUP4 ADD DUP8 PUSH2 0x31F8 JUMP JUMPDEST DUP2 DUP2 SUB PUSH1 0x40 DUP4 ADD MSTORE PUSH2 0x45D3 DUP2 DUP7 PUSH2 0x3038 JUMP JUMPDEST SWAP1 POP DUP2 DUP2 SUB PUSH1 0x60 DUP4 ADD MSTORE PUSH2 0x45E7 DUP2 DUP6 PUSH2 0x3038 JUMP JUMPDEST SWAP1 POP DUP2 DUP2 SUB PUSH1 0x80 DUP4 ADD MSTORE PUSH2 0x45FB DUP2 DUP5 PUSH2 0x42E7 JUMP JUMPDEST SWAP1 POP SWAP7 SWAP6 POP POP POP POP POP POP JUMP INVALID LOG2 PUSH5 0x6970667358 0x22 SLT KECCAK256 0xB9 SWAP4 0xBC 0xC6 RETURNDATACOPY 0xC7 0xB7 0xDB SWAP13 ORIGIN ADDMOD LOG3 SGT 0x2F CODESIZE 0x23 SWAP14 JUMPDEST 0x26 PUSH30 0xD147FE61CE2F87CEA280DCB764736F6C634300080F0033697066733A2F2F MLOAD PUSH14 0x6469596950566A58586E79504A55 PUSH25 0x77564E67765268586A4354374A436D48464265576A5A32316D PUSH11 0x7972562F00000000000000 "
		},
		"gasEstimates": {
			"creation": {
				"codeDepositCost": "3596200",
				"executionCost": "infinite",
				"totalCost": "infinite"
			},
			"external": {
				"balanceOf(address,uint256)": "infinite",
				"balanceOfBatch(address[],uint256[])": "infinite",
				"batchMintTo(address[],uint256,uint256[])": "infinite",
				"bound(address,bool)": "infinite",
				"burnAdmin(address,uint256,uint256)": "infinite",
				"grantOperatorRole(address)": "infinite",
				"initializeSBT(uint256,string)": "infinite",
				"isApprovedForAll(address,address)": "infinite",
				"isOperator(address)": "3016",
				"locked(address)": "2949",
				"mint(address,uint256,uint256)": "infinite",
				"name()": "infinite",
				"owner()": "2589",
				"renounceOwnership()": "30421",
				"revokeOperatorRole(address)": "infinite",
				"safeBatchTransferFrom(address,address,uint256[],uint256[],bytes)": "infinite",
				"safeTransferFrom(address,address,uint256,uint256,bytes)": "infinite",
				"setApprovalForAll(address,bool)": "infinite",
				"setBaseURI(string)": "infinite",
				"setTokenURI(uint256,string)": "infinite",
				"supportsInterface(bytes4)": "819",
				"symbol()": "infinite",
				"transferOwnership(address)": "30876",
				"uri(uint256)": "infinite"
			},
			"internal": {
				"_beforeTokenTransfer(address,address,address,uint256[] memory,uint256[] memory,bytes memory)": "infinite"
			}
		},
		"methodIdentifiers": {
			"balanceOf(address,uint256)": "00fdd58e",
			"balanceOfBatch(address[],uint256[])": "4e1273f4",
			"batchMintTo(address[],uint256,uint256[])": "872a2803",
			"bound(address,bool)": "56f5d89d",
			"burnAdmin(address,uint256,uint256)": "9324b42a",
			"grantOperatorRole(address)": "27ac0c58",
			"initializeSBT(uint256,string)": "910da0e9",
			"isApprovedForAll(address,address)": "e985e9c5",
			"isOperator(address)": "6d70f7ae",
			"locked(address)": "cbf9fe5f",
			"mint(address,uint256,uint256)": "156e29f6",
			"name()": "06fdde03",
			"owner()": "8da5cb5b",
			"renounceOwnership()": "715018a6",
			"revokeOperatorRole(address)": "b219f7d7",
			"safeBatchTransferFrom(address,address,uint256[],uint256[],bytes)": "2eb2c2d6",
			"safeTransferFrom(address,address,uint256,uint256,bytes)": "f242432a",
			"setApprovalForAll(address,bool)": "a22cb465",
			"setBaseURI(string)": "55f804b3",
			"setTokenURI(uint256,string)": "162094c4",
			"supportsInterface(bytes4)": "01ffc9a7",
			"symbol()": "95d89b41",
			"transferOwnership(address)": "f2fde38b",
			"uri(uint256)": "0e89341c"
		}
	},
	"abi": [
		{
			"inputs": [],
			"stateMutability": "nonpayable",
			"type": "constructor"
		},
		{
			"anonymous": false,
			"inputs": [
				{
					"indexed": true,
					"internalType": "address",
					"name": "account",
					"type": "address"
				},
				{
					"indexed": true,
					"internalType": "address",
					"name": "operator",
					"type": "address"
				},
				{
					"indexed": false,
					"internalType": "bool",
					"name": "approved",
					"type": "bool"
				}
			],
			"name": "ApprovalForAll",
			"type": "event"
		},
		{
			"anonymous": false,
			"inputs": [
				{
					"indexed": true,
					"internalType": "address",
					"name": "previousOwner",
					"type": "address"
				},
				{
					"indexed": true,
					"internalType": "address",
					"name": "newOwner",
					"type": "address"
				}
			],
			"name": "OwnershipTransferred",
			"type": "event"
		},
		{
			"anonymous": false,
			"inputs": [
				{
					"indexed": true,
					"internalType": "address",
					"name": "operator",
					"type": "address"
				},
				{
					"indexed": true,
					"internalType": "address",
					"name": "from",
					"type": "address"
				},
				{
					"indexed": true,
					"internalType": "address",
					"name": "to",
					"type": "address"
				},
				{
					"indexed": false,
					"internalType": "uint256[]",
					"name": "ids",
					"type": "uint256[]"
				},
				{
					"indexed": false,
					"internalType": "uint256[]",
					"name": "values",
					"type": "uint256[]"
				}
			],
			"name": "TransferBatch",
			"type": "event"
		},
		{
			"anonymous": false,
			"inputs": [
				{
					"indexed": true,
					"internalType": "address",
					"name": "operator",
					"type": "address"
				},
				{
					"indexed": true,
					"internalType": "address",
					"name": "from",
					"type": "address"
				},
				{
					"indexed": true,
					"internalType": "address",
					"name": "to",
					"type": "address"
				},
				{
					"indexed": false,
					"internalType": "uint256",
					"name": "id",
					"type": "uint256"
				},
				{
					"indexed": false,
					"internalType": "uint256",
					"name": "value",
					"type": "uint256"
				}
			],
			"name": "TransferSingle",
			"type": "event"
		},
		{
			"anonymous": false,
			"inputs": [
				{
					"indexed": false,
					"internalType": "string",
					"name": "value",
					"type": "string"
				},
				{
					"indexed": true,
					"internalType": "uint256",
					"name": "id",
					"type": "uint256"
				}
			],
			"name": "URI",
			"type": "event"
		},
		{
			"inputs": [
				{
					"internalType": "address",
					"name": "account",
					"type": "address"
				},
				{
					"internalType": "uint256",
					"name": "id",
					"type": "uint256"
				}
			],
			"name": "balanceOf",
			"outputs": [
				{
					"internalType": "uint256",
					"name": "",
					"type": "uint256"
				}
			],
			"stateMutability": "view",
			"type": "function"
		},
		{
			"inputs": [
				{
					"internalType": "address[]",
					"name": "accounts",
					"type": "address[]"
				},
				{
					"internalType": "uint256[]",
					"name": "ids",
					"type": "uint256[]"
				}
			],
			"name": "balanceOfBatch",
			"outputs": [
				{
					"internalType": "uint256[]",
					"name": "",
					"type": "uint256[]"
				}
			],
			"stateMutability": "view",
			"type": "function"
		},
		{
			"inputs": [
				{
					"internalType": "address[]",
					"name": "list",
					"type": "address[]"
				},
				{
					"internalType": "uint256",
					"name": "id",
					"type": "uint256"
				},
				{
					"internalType": "uint256[]",
					"name": "amount",
					"type": "uint256[]"
				}
			],
			"name": "batchMintTo",
			"outputs": [],
			"stateMutability": "nonpayable",
			"type": "function"
		},
		{
			"inputs": [
				{
					"internalType": "address",
					"name": "to",
					"type": "address"
				},
				{
					"internalType": "bool",
					"name": "flag",
					"type": "bool"
				}
			],
			"name": "bound",
			"outputs": [],
			"stateMutability": "nonpayable",
			"type": "function"
		},
		{
			"inputs": [
				{
					"internalType": "address",
					"name": "to",
					"type": "address"
				},
				{
					"internalType": "uint256",
					"name": "id",
					"type": "uint256"
				},
				{
					"internalType": "uint256",
					"name": "amount",
					"type": "uint256"
				}
			],
			"name": "burnAdmin",
			"outputs": [],
			"stateMutability": "nonpayable",
			"type": "function"
		},
		{
			"inputs": [
				{
					"internalType": "address",
					"name": "_candidate",
					"type": "address"
				}
			],
			"name": "grantOperatorRole",
			"outputs": [],
			"stateMutability": "nonpayable",
			"type": "function"
		},
		{
			"inputs": [
				{
					"internalType": "uint256",
					"name": "tokenId",
					"type": "uint256"
				},
				{
					"internalType": "string",
					"name": "_tokenURI",
					"type": "string"
				}
			],
			"name": "initializeSBT",
			"outputs": [],
			"stateMutability": "nonpayable",
			"type": "function"
		},
		{
			"inputs": [
				{
					"internalType": "address",
					"name": "account",
					"type": "address"
				},
				{
					"internalType": "address",
					"name": "operator",
					"type": "address"
				}
			],
			"name": "isApprovedForAll",
			"outputs": [
				{
					"internalType": "bool",
					"name": "",
					"type": "bool"
				}
			],
			"stateMutability": "view",
			"type": "function"
		},
		{
			"inputs": [
				{
					"internalType": "address",
					"name": "_operator",
					"type": "address"
				}
			],
			"name": "isOperator",
			"outputs": [
				{
					"internalType": "bool",
					"name": "",
					"type": "bool"
				}
			],
			"stateMutability": "view",
			"type": "function"
		},
		{
			"inputs": [
				{
					"internalType": "address",
					"name": "to",
					"type": "address"
				}
			],
			"name": "locked",
			"outputs": [
				{
					"internalType": "bool",
					"name": "",
					"type": "bool"
				}
			],
			"stateMutability": "view",
			"type": "function"
		},
		{
			"inputs": [
				{
					"internalType": "address",
					"name": "to",
					"type": "address"
				},
				{
					"internalType": "uint256",
					"name": "id",
					"type": "uint256"
				},
				{
					"internalType": "uint256",
					"name": "amount",
					"type": "uint256"
				}
			],
			"name": "mint",
			"outputs": [],
			"stateMutability": "nonpayable",
			"type": "function"
		},
		{
			"inputs": [],
			"name": "name",
			"outputs": [
				{
					"internalType": "string",
					"name": "",
					"type": "string"
				}
			],
			"stateMutability": "view",
			"type": "function"
		},
		{
			"inputs": [],
			"name": "owner",
			"outputs": [
				{
					"internalType": "address",
					"name": "",
					"type": "address"
				}
			],
			"stateMutability": "view",
			"type": "function"
		},
		{
			"inputs": [],
			"name": "renounceOwnership",
			"outputs": [],
			"stateMutability": "nonpayable",
			"type": "function"
		},
		{
			"inputs": [
				{
					"internalType": "address",
					"name": "_candidate",
					"type": "address"
				}
			],
			"name": "revokeOperatorRole",
			"outputs": [],
			"stateMutability": "nonpayable",
			"type": "function"
		},
		{
			"inputs": [
				{
					"internalType": "address",
					"name": "from",
					"type": "address"
				},
				{
					"internalType": "address",
					"name": "to",
					"type": "address"
				},
				{
					"internalType": "uint256[]",
					"name": "ids",
					"type": "uint256[]"
				},
				{
					"internalType": "uint256[]",
					"name": "amounts",
					"type": "uint256[]"
				},
				{
					"internalType": "bytes",
					"name": "data",
					"type": "bytes"
				}
			],
			"name": "safeBatchTransferFrom",
			"outputs": [],
			"stateMutability": "nonpayable",
			"type": "function"
		},
		{
			"inputs": [
				{
					"internalType": "address",
					"name": "from",
					"type": "address"
				},
				{
					"internalType": "address",
					"name": "to",
					"type": "address"
				},
				{
					"internalType": "uint256",
					"name": "id",
					"type": "uint256"
				},
				{
					"internalType": "uint256",
					"name": "amount",
					"type": "uint256"
				},
				{
					"internalType": "bytes",
					"name": "data",
					"type": "bytes"
				}
			],
			"name": "safeTransferFrom",
			"outputs": [],
			"stateMutability": "nonpayable",
			"type": "function"
		},
		{
			"inputs": [
				{
					"internalType": "address",
					"name": "operator",
					"type": "address"
				},
				{
					"internalType": "bool",
					"name": "approved",
					"type": "bool"
				}
			],
			"name": "setApprovalForAll",
			"outputs": [],
			"stateMutability": "nonpayable",
			"type": "function"
		},
		{
			"inputs": [
				{
					"internalType": "string",
					"name": "uri_",
					"type": "string"
				}
			],
			"name": "setBaseURI",
			"outputs": [],
			"stateMutability": "nonpayable",
			"type": "function"
		},
		{
			"inputs": [
				{
					"internalType": "uint256",
					"name": "tokenId",
					"type": "uint256"
				},
				{
					"internalType": "string",
					"name": "_tokenURI",
					"type": "string"
				}
			],
			"name": "setTokenURI",
			"outputs": [],
			"stateMutability": "nonpayable",
			"type": "function"
		},
		{
			"inputs": [
				{
					"internalType": "bytes4",
					"name": "interfaceId",
					"type": "bytes4"
				}
			],
			"name": "supportsInterface",
			"outputs": [
				{
					"internalType": "bool",
					"name": "",
					"type": "bool"
				}
			],
			"stateMutability": "view",
			"type": "function"
		},
		{
			"inputs": [],
			"name": "symbol",
			"outputs": [
				{
					"internalType": "string",
					"name": "",
					"type": "string"
				}
			],
			"stateMutability": "view",
			"type": "function"
		},
		{
			"inputs": [
				{
					"internalType": "address",
					"name": "newOwner",
					"type": "address"
				}
			],
			"name": "transferOwnership",
			"outputs": [],
			"stateMutability": "nonpayable",
			"type": "function"
		},
		{
			"inputs": [
				{
					"internalType": "uint256",
					"name": "tokenId",
					"type": "uint256"
				}
			],
			"name": "uri",
			"outputs": [
				{
					"internalType": "string",
					"name": "",
					"type": "string"
				}
			],
			"stateMutability": "view",
			"type": "function"
		}
	]
}